{
  "_format": "hh-sol-artifact-1",
  "contractName": "MetadataProviderV1",
  "sourceName": "@story-protocol/protocol-core/contracts/registries/metadata/MetadataProviderV1.sol",
  "abi": [
    {
      "inputs": [
        {
          "internalType": "address",
          "name": "ipAssetRegistry",
          "type": "address"
        }
      ],
      "stateMutability": "nonpayable",
      "type": "constructor"
    },
    {
      "inputs": [],
      "name": "MetadataProvider__IPAssetOwnerInvalid",
      "type": "error"
    },
    {
      "inputs": [],
      "name": "MetadataProvider__MetadataNotCompatible",
      "type": "error"
    },
    {
      "inputs": [],
      "name": "MetadataProvider__RegistrantInvalid",
      "type": "error"
    },
    {
      "inputs": [],
      "name": "MetadataProvider__Unauthorized",
      "type": "error"
    },
    {
      "inputs": [],
      "name": "MetadataProvider__UpgradeProviderInvalid",
      "type": "error"
    },
    {
      "inputs": [],
      "name": "MetadataProvider__UpgradeUnavailable",
      "type": "error"
    },
    {
      "anonymous": false,
      "inputs": [
        {
          "indexed": false,
          "internalType": "address",
          "name": "ipId",
          "type": "address"
        },
        {
          "indexed": false,
          "internalType": "bytes",
          "name": "metadata",
          "type": "bytes"
        }
      ],
      "name": "MetadataSet",
      "type": "event"
    },
    {
      "inputs": [],
      "name": "IP_ASSET_REGISTRY",
      "outputs": [
        {
          "internalType": "contract IIPAssetRegistry",
          "name": "",
          "type": "address"
        }
      ],
      "stateMutability": "view",
      "type": "function"
    },
    {
      "inputs": [
        {
          "internalType": "address",
          "name": "ipId",
          "type": "address"
        }
      ],
      "name": "getMetadata",
      "outputs": [
        {
          "internalType": "bytes",
          "name": "",
          "type": "bytes"
        }
      ],
      "stateMutability": "view",
      "type": "function"
    },
    {
      "inputs": [
        {
          "internalType": "address",
          "name": "ipId",
          "type": "address"
        }
      ],
      "name": "hash",
      "outputs": [
        {
          "internalType": "bytes32",
          "name": "",
          "type": "bytes32"
        }
      ],
      "stateMutability": "view",
      "type": "function"
    },
    {
      "inputs": [
        {
          "internalType": "address",
          "name": "ipId",
          "type": "address"
        }
      ],
      "name": "metadata",
      "outputs": [
        {
          "components": [
            {
              "internalType": "string",
              "name": "name",
              "type": "string"
            },
            {
              "internalType": "bytes32",
              "name": "hash",
              "type": "bytes32"
            },
            {
              "internalType": "uint64",
              "name": "registrationDate",
              "type": "uint64"
            },
            {
              "internalType": "address",
              "name": "registrant",
              "type": "address"
            },
            {
              "internalType": "string",
              "name": "uri",
              "type": "string"
            }
          ],
          "internalType": "struct IP.MetadataV1",
          "name": "",
          "type": "tuple"
        }
      ],
      "stateMutability": "view",
      "type": "function"
    },
    {
      "inputs": [
        {
          "internalType": "address",
          "name": "ipId",
          "type": "address"
        }
      ],
      "name": "name",
      "outputs": [
        {
          "internalType": "string",
          "name": "",
          "type": "string"
        }
      ],
      "stateMutability": "view",
      "type": "function"
    },
    {
      "inputs": [
        {
          "internalType": "address",
          "name": "ipId",
          "type": "address"
        }
      ],
      "name": "registrant",
      "outputs": [
        {
          "internalType": "address",
          "name": "",
          "type": "address"
        }
      ],
      "stateMutability": "view",
      "type": "function"
    },
    {
      "inputs": [
        {
          "internalType": "address",
          "name": "ipId",
          "type": "address"
        }
      ],
      "name": "registrationDate",
      "outputs": [
        {
          "internalType": "uint64",
          "name": "",
          "type": "uint64"
        }
      ],
      "stateMutability": "view",
      "type": "function"
    },
    {
      "inputs": [
        {
          "internalType": "address",
          "name": "ipId",
          "type": "address"
        },
        {
          "internalType": "bytes",
          "name": "metadata",
          "type": "bytes"
        }
      ],
      "name": "setMetadata",
      "outputs": [],
      "stateMutability": "nonpayable",
      "type": "function"
    },
    {
      "inputs": [
        {
          "internalType": "address",
          "name": "provider",
          "type": "address"
        }
      ],
      "name": "setUpgradeProvider",
      "outputs": [],
      "stateMutability": "nonpayable",
      "type": "function"
    },
    {
      "inputs": [
        {
          "internalType": "address payable",
          "name": "ipId",
          "type": "address"
        },
        {
          "internalType": "bytes",
          "name": "metadata",
          "type": "bytes"
        }
      ],
      "name": "upgrade",
      "outputs": [],
      "stateMutability": "nonpayable",
      "type": "function"
    },
    {
      "inputs": [],
      "name": "upgradeProvider",
      "outputs": [
        {
          "internalType": "contract IMetadataProvider",
          "name": "",
          "type": "address"
        }
      ],
      "stateMutability": "view",
      "type": "function"
    },
    {
      "inputs": [
        {
          "internalType": "address",
          "name": "ipId",
          "type": "address"
        }
      ],
      "name": "uri",
      "outputs": [
        {
          "internalType": "string",
          "name": "",
          "type": "string"
        }
      ],
      "stateMutability": "view",
      "type": "function"
    }
  ],
  "bytecode": "0x60a03461008157601f610d5138819003918201601f19168301916001600160401b038311848410176100865780849260209460405283398101031261008157516001600160a01b0381169081900361008157608052604051610cb4908161009d82396080518181816101df015281816103fa0152818161060701526106e40152f35b600080fd5b634e487b7160e01b600052604160045260246000fdfe6040608081526004908136101561001557600080fd5b600091823560e01c90816301984892146108905781632a50c146146107a85781632ba215721461071357816341c782c5146106cf578163426eb017146106925781637e809973146106675781639c1bbc03146105e15781639fd8b5fa146103b3578163a2911fcd14610388578163c29fab6d1461034e578163c987336c146100d1575063d091b7c2146100a757600080fd5b346100cd57816003193601126100cd57905490516001600160a01b039091168152602090f35b5080fd5b9190503461034a578060031936011261034a5781356001600160a01b0381811693918490036103465767ffffffffffffffff906024358281116103425761011b9036908501610999565b9080875416908115610332578551638da5cb5b60e01b8152602090818188818c5afa908115610328579083918b916102ec575b501633036102dc57878952600180825281888b208951908c90805494610173866109e0565b91828552858501966001811690816000146102c0575060011461028c575b5050506101d4936101ce93836101af6101c8956101b995038261095b565b8051010190610aa0565b93808851890101908801610aa0565b92610bfd565b91610bfd565b0361027c57908792917f00000000000000000000000000000000000000000000000000000000000000001690813b156102785783610239988851998a958694859363344e13ad60e11b85528b8501526024840152606060448401526064830190610904565b03925af1801561026e5761024b578480f35b831161025b575052388080808480f35b634e487b7160e01b845260419052602483fd5b83513d87823e3d90fd5b8380fd5b855163be1f6fe560e01b81528590fd5b8f809450528483205b8284106102ab5750505081018201838383610191565b80548585018701528795909301928101610295565b60ff19168852505050151560051b820183019050838383610191565b865163425ec99960e01b81528690fd5b809250838092503d8311610321575b610305818361095b565b8101031261031d576103178391610a47565b3861014e565b8980fd5b503d6102fb565b88513d8c823e3d90fd5b85516301d11e1d60e71b81528590fd5b8680fd5b8480fd5b8280fd5b5050346100cd5760203660031901126100cd576020906001600160a01b03606061037e6103796108c6565b610b3a565b0151169051908152f35b5050346100cd5760203660031901126100cd578067ffffffffffffffff60209261037e6103796108c6565b8383346100cd57806003193601126100cd576103cd6108c6565b9067ffffffffffffffff90602435828111610346576103ef9036908701610999565b946001600160a01b037f0000000000000000000000000000000000000000000000000000000000000000811633036105d257865194816060610439602080998c0101898c01610aa0565b015116156105c257169283865260018086528387209288519283116105af575061046383546109e0565b601f8111610569575b5085601f83116001146104e257918080899a95936104d197957feb93c52781456784fc831a72052881602fbd4b0251d0715f7e0852cdec233d1e9b936104d7575b501b916000199060031b1c19161790555b8080519586958652850152830190610904565b0390a180f35b87015192508c6104ad565b83885286882091929190601f198316895b81811061055457509183917feb93c52781456784fc831a72052881602fbd4b0251d0715f7e0852cdec233d1e9a9b96946104d19896941061053b575b5050811b0190556104be565b86015160001960f88460031b161c191690558a8061052f565b8b8301518455928501929189019189016104f3565b838852868820601f840160051c8101918885106105a5575b601f0160051c019082905b82811061059a57505061046c565b89815501829061058c565b9091508190610581565b634e487b7160e01b885260419052602487fd5b835163c3af260760e01b81528390fd5b5090516394b1485760e01b8152fd5b90503461034a57602036600319011261034a576105fc6108c6565b6001600160a01b03907f000000000000000000000000000000000000000000000000000000000000000082163303610657571691821561064a57505081546001600160a01b03191617815580f35b51630990112160e31b8152fd5b83516394b1485760e01b81528390fd5b5050346100cd5760203660031901126100cd57602090816106896103796108c6565b01519051908152f35b5050346100cd5760203660031901126100cd576106cb9060806106b66103796108c6565b01519051918291602083526020830190610904565b0390f35b5050346100cd57816003193601126100cd57517f00000000000000000000000000000000000000000000000000000000000000006001600160a01b03168152602090f35b5050346100cd5760203660031901126100cd576080906106cb6107456107376108c6565b61073f610a1a565b50610b3a565b9180519384936020855267ffffffffffffffff61076e825160a0602089015260c0880190610904565b60208301518786015293820151166060808701919091528101516001600160a01b0316828601520151838203601f190160a0850152610904565b5050346100cd576020908160031936011261034a576001600160a01b036107cd6108c6565b1683526001808352818420938251948592828254926107eb846109e0565b9384875288600182169182600014610866575050600114610828575b85886106cb89610819848a038561095b565b51928284938452830190610904565b87945081939291528383205b82841061084e57505050820101816108196106cb38610807565b8054848a018601528895508794909301928101610834565b60ff19168882015294151560051b8701909401945085935061081992506106cb9150389050610807565b5050346100cd5760203660031901126100cd576106cb906108b26103796108c6565b519051918291602083526020830190610904565b600435906001600160a01b03821682036108dc57565b600080fd5b60005b8381106108f45750506000910152565b81810151838201526020016108e4565b9060209161091d815180928185528580860191016108e1565b601f01601f1916010190565b60a0810190811067ffffffffffffffff82111761094557604052565b634e487b7160e01b600052604160045260246000fd5b90601f8019910116810190811067ffffffffffffffff82111761094557604052565b67ffffffffffffffff811161094557601f01601f191660200190565b81601f820112156108dc578035906109b08261097d565b926109be604051948561095b565b828452602083830101116108dc57816000926020809301838601378301015290565b90600182811c92168015610a10575b60208310146109fa57565b634e487b7160e01b600052602260045260246000fd5b91607f16916109ef565b60405190610a2782610929565b606060808382815260006020820152600060408201526000838201520152565b51906001600160a01b03821682036108dc57565b81601f820112156108dc578051610a718161097d565b92610a7f604051948561095b565b818452602082840101116108dc57610a9d91602080850191016108e1565b90565b906020828203126108dc57815167ffffffffffffffff928382116108dc57019060a0828203126108dc5760405192610ad784610929565b82518181116108dc5782610aec918501610a5b565b845260208301516020850152604083015181811681036108dc576040850152610b1760608401610a47565b606085015260808301519081116108dc57610b329201610a5b565b608082015290565b90610b43610a1a565b5060009160018060a01b0316825260019160206001815260408220604051908395815494610b70866109e0565b9283855285850196600181169081600014610bdb5750600114610ba2575b505050506101af81610a9d9596038261095b565b90809850528387205b828810610bc8575050509384018101936101af81610a9d38610b8e565b8054848901860152968401968101610bab565b60ff1916885250505050151560051b8101820194506101af81610a9d38610b8e565b805190610c78602082015167ffffffffffffffff604084015116610c6c608060018060a01b0360608701511695015192604051958693610c49602086019960a08b5260c0870190610904565b92604086015260608501526080840152601f1993848483030160a0850152610904565b0390810183528261095b565b5190209056fea26469706673582212204f4a4b6521ebb5eabe25fcff09c225fccc97ad2619da0831440ebf54548da09c64736f6c63430008170033",
  "linkReferences": {},
  "deployedLinkReferences": {}
}