{
  "_format": "hh-sol-artifact-1",
  "contractName": "StoryProtocolToken",
  "sourceName": "contracts/ERC721.sol",
  "abi": [
    {
      "inputs": [
        {
          "internalType": "string",
          "name": "name_",
          "type": "string"
        },
        {
          "internalType": "string",
          "name": "symbol_",
          "type": "string"
        }
      ],
      "stateMutability": "nonpayable",
      "type": "constructor"
    },
    {
      "anonymous": false,
      "inputs": [
        {
          "indexed": true,
          "internalType": "address",
          "name": "owner",
          "type": "address"
        },
        {
          "indexed": true,
          "internalType": "address",
          "name": "approved",
          "type": "address"
        },
        {
          "indexed": true,
          "internalType": "uint256",
          "name": "tokenId",
          "type": "uint256"
        }
      ],
      "name": "Approval",
      "type": "event"
    },
    {
      "anonymous": false,
      "inputs": [
        {
          "indexed": true,
          "internalType": "address",
          "name": "owner",
          "type": "address"
        },
        {
          "indexed": true,
          "internalType": "address",
          "name": "operator",
          "type": "address"
        },
        {
          "indexed": false,
          "internalType": "bool",
          "name": "approved",
          "type": "bool"
        }
      ],
      "name": "ApprovalForAll",
      "type": "event"
    },
    {
      "anonymous": false,
      "inputs": [
        {
          "indexed": true,
          "internalType": "address",
          "name": "previousOwner",
          "type": "address"
        },
        {
          "indexed": true,
          "internalType": "address",
          "name": "newOwner",
          "type": "address"
        }
      ],
      "name": "OwnershipTransferred",
      "type": "event"
    },
    {
      "anonymous": false,
      "inputs": [
        {
          "indexed": true,
          "internalType": "address",
          "name": "from",
          "type": "address"
        },
        {
          "indexed": true,
          "internalType": "address",
          "name": "to",
          "type": "address"
        },
        {
          "indexed": true,
          "internalType": "uint256",
          "name": "tokenId",
          "type": "uint256"
        }
      ],
      "name": "Transfer",
      "type": "event"
    },
    {
      "inputs": [
        {
          "internalType": "address",
          "name": "to",
          "type": "address"
        },
        {
          "internalType": "uint256",
          "name": "tokenId",
          "type": "uint256"
        }
      ],
      "name": "approve",
      "outputs": [],
      "stateMutability": "nonpayable",
      "type": "function"
    },
    {
      "inputs": [
        {
          "internalType": "address",
          "name": "owner",
          "type": "address"
        }
      ],
      "name": "balanceOf",
      "outputs": [
        {
          "internalType": "uint256",
          "name": "",
          "type": "uint256"
        }
      ],
      "stateMutability": "view",
      "type": "function"
    },
    {
      "inputs": [
        {
          "internalType": "address",
          "name": "spg",
          "type": "address"
        },
        {
          "components": [
            {
              "internalType": "uint256",
              "name": "start",
              "type": "uint256"
            },
            {
              "internalType": "uint256",
              "name": "end",
              "type": "uint256"
            }
          ],
          "internalType": "struct SPG.MintSettings",
          "name": "mintSettings",
          "type": "tuple"
        }
      ],
      "name": "configureMint",
      "outputs": [],
      "stateMutability": "nonpayable",
      "type": "function"
    },
    {
      "inputs": [
        {
          "internalType": "uint256",
          "name": "tokenId",
          "type": "uint256"
        }
      ],
      "name": "getApproved",
      "outputs": [
        {
          "internalType": "address",
          "name": "",
          "type": "address"
        }
      ],
      "stateMutability": "view",
      "type": "function"
    },
    {
      "inputs": [
        {
          "internalType": "address",
          "name": "owner",
          "type": "address"
        },
        {
          "internalType": "address",
          "name": "operator",
          "type": "address"
        }
      ],
      "name": "isApprovedForAll",
      "outputs": [
        {
          "internalType": "bool",
          "name": "",
          "type": "bool"
        }
      ],
      "stateMutability": "view",
      "type": "function"
    },
    {
      "inputs": [
        {
          "internalType": "address",
          "name": "to",
          "type": "address"
        },
        {
          "internalType": "bytes",
          "name": "data",
          "type": "bytes"
        }
      ],
      "name": "mint",
      "outputs": [
        {
          "internalType": "uint256",
          "name": "",
          "type": "uint256"
        }
      ],
      "stateMutability": "nonpayable",
      "type": "function"
    },
    {
      "inputs": [],
      "name": "name",
      "outputs": [
        {
          "internalType": "string",
          "name": "",
          "type": "string"
        }
      ],
      "stateMutability": "view",
      "type": "function"
    },
    {
      "inputs": [],
      "name": "owner",
      "outputs": [
        {
          "internalType": "address",
          "name": "",
          "type": "address"
        }
      ],
      "stateMutability": "view",
      "type": "function"
    },
    {
      "inputs": [
        {
          "internalType": "uint256",
          "name": "tokenId",
          "type": "uint256"
        }
      ],
      "name": "ownerOf",
      "outputs": [
        {
          "internalType": "address",
          "name": "",
          "type": "address"
        }
      ],
      "stateMutability": "view",
      "type": "function"
    },
    {
      "inputs": [],
      "name": "renounceOwnership",
      "outputs": [],
      "stateMutability": "nonpayable",
      "type": "function"
    },
    {
      "inputs": [
        {
          "internalType": "address",
          "name": "from",
          "type": "address"
        },
        {
          "internalType": "address",
          "name": "to",
          "type": "address"
        },
        {
          "internalType": "uint256",
          "name": "tokenId",
          "type": "uint256"
        }
      ],
      "name": "safeTransferFrom",
      "outputs": [],
      "stateMutability": "nonpayable",
      "type": "function"
    },
    {
      "inputs": [
        {
          "internalType": "address",
          "name": "from",
          "type": "address"
        },
        {
          "internalType": "address",
          "name": "to",
          "type": "address"
        },
        {
          "internalType": "uint256",
          "name": "tokenId",
          "type": "uint256"
        },
        {
          "internalType": "bytes",
          "name": "data",
          "type": "bytes"
        }
      ],
      "name": "safeTransferFrom",
      "outputs": [],
      "stateMutability": "nonpayable",
      "type": "function"
    },
    {
      "inputs": [
        {
          "internalType": "address",
          "name": "operator",
          "type": "address"
        },
        {
          "internalType": "bool",
          "name": "approved",
          "type": "bool"
        }
      ],
      "name": "setApprovalForAll",
      "outputs": [],
      "stateMutability": "nonpayable",
      "type": "function"
    },
    {
      "inputs": [
        {
          "internalType": "bytes4",
          "name": "interfaceId",
          "type": "bytes4"
        }
      ],
      "name": "supportsInterface",
      "outputs": [
        {
          "internalType": "bool",
          "name": "",
          "type": "bool"
        }
      ],
      "stateMutability": "view",
      "type": "function"
    },
    {
      "inputs": [],
      "name": "symbol",
      "outputs": [
        {
          "internalType": "string",
          "name": "",
          "type": "string"
        }
      ],
      "stateMutability": "view",
      "type": "function"
    },
    {
      "inputs": [
        {
          "internalType": "uint256",
          "name": "tokenId",
          "type": "uint256"
        }
      ],
      "name": "tokenURI",
      "outputs": [
        {
          "internalType": "string",
          "name": "",
          "type": "string"
        }
      ],
      "stateMutability": "view",
      "type": "function"
    },
    {
      "inputs": [
        {
          "internalType": "address",
          "name": "from",
          "type": "address"
        },
        {
          "internalType": "address",
          "name": "to",
          "type": "address"
        },
        {
          "internalType": "uint256",
          "name": "tokenId",
          "type": "uint256"
        }
      ],
      "name": "transferFrom",
      "outputs": [],
      "stateMutability": "nonpayable",
      "type": "function"
    },
    {
      "inputs": [
        {
          "internalType": "address",
          "name": "newOwner",
          "type": "address"
        }
      ],
      "name": "transferOwnership",
      "outputs": [],
      "stateMutability": "nonpayable",
      "type": "function"
    }
  ],
  "bytecode": "0x608060405234620005b45762001861803803806200001d81620005b9565b928339810190604081830312620005b45780516001600160401b0390818111620005b457836200004f918401620005f5565b9160209384820151838111620005b4576200006b9201620005f5565b60008054336001600160a01b031982168117835591959291906001600160a01b03167f8be0079c531659141344cd1fd0a4f28419497f9722a3daafe3b4186f6b6457e08780a38351918383116200030e576001948554938685811c95168015620005a9575b838610146200059557601f948581116200054d575b508083868211600114620004eb578991620004df575b50600019600383901b1c191690871b1786555b825185811162000407576002548781811c91168015620004d4575b84821014620003e8578581116200048b575b508083868211600114620004275789916200041b575b50600019600383901b1c191690871b176002555b80519085821162000407576007548781811c91168015620003fc575b84821014620003e85790818684931162000394575b5083908683116001146200032e57899262000322575b5050600019600383901b1c191690861b176007555b81519384116200030e576008548581811c9116801562000303575b82821014620002ef57838111620002a6575b50809284116001146200023c5750928293918392869462000230575b50501b916000199060031b1c1916176008555b600a556040516111f99081620006688239f35b0151925038806200020a565b919083601f198116600888528488209488905b888383106200028b575050501062000271575b505050811b016008556200021d565b015160001960f88460031b161c1916905538808062000262565b8587015188559096019594850194879350908101906200024f565b600887528187208480870160051c820192848810620002e5575b0160051c019086905b828110620002d9575050620001ee565b888155018690620002c9565b92508192620002c0565b634e487b7160e01b87526022600452602487fd5b90607f1690620001dc565b634e487b7160e01b86526041600452602486fd5b015190503880620001ac565b60078a52848a208994509190601f1984168b5b878282106200037d575050841162000363575b505050811b01600755620001c1565b015160001960f88460031b161c1916905538808062000354565b8385015186558c9790950194938401930162000341565b909150600789528389208680850160051c820192868610620003de575b918a91869594930160051c01915b828110620003cf57505062000196565b8b81558594508a9101620003bf565b92508192620003b1565b634e487b7160e01b89526022600452602489fd5b90607f169062000181565b634e487b7160e01b88526041600452602488fd5b90508401513862000151565b60028a52848a2089935090601f1983168b5b878282106200047457505083116200045a575b5050811b0160025562000165565b86015160001960f88460031b161c1916905538806200044c565b838a015185558c9690940193928301920162000439565b600289528389208680840160051c820192868510620004ca575b0160051c019088905b828110620004be5750506200013b565b8a8155018890620004ae565b92508192620004a5565b90607f169062000129565b905082015138620000fb565b888a52848a2089935090601f1983168b5b878282106200053657505083116200051c575b5050811b0186556200010e565b84015160001960f88460031b161c1916905538806200050f565b8388015185558c96909401939283019201620004fc565b8789528389208680840160051c8201928685106200058b575b0160051c019088905b8281106200057f575050620000e5565b8a81550188906200056f565b9250819262000566565b634e487b7160e01b88526022600452602488fd5b94607f1694620000d0565b600080fd5b6040519190601f01601f191682016001600160401b03811183821017620005df57604052565b634e487b7160e01b600052604160045260246000fd5b919080601f84011215620005b45782516001600160401b038111620005df576020906200062b601f8201601f19168301620005b9565b92818452828287010111620005b45760005b8181106200065357508260009394955001015290565b85810183015184820184015282016200063d56fe6080604081815260048036101561001557600080fd5b600092833560e01c90816301ffc9a714610aac5750806306fdde03146109dc578063081812fc146109bc578063095ea7b31461084c57806323b872dd1461082257806342842e0e146107f95780636352211e146107c857806370a0823114610737578063715018a6146106dd5780638da5cb5b146106b557806395d89b4114610599578063a22cb465146104ce578063b510391f14610374578063b69952e7146102c7578063b88d4fde14610270578063c87b56dd14610200578063e985e9c5146101ae5763f2fde38b146100e957600080fd5b346101aa5760203660031901126101aa57610102610b58565b9061010b610fad565b6001600160a01b0391821692831561015857505082546001600160a01b0319811683178455167f8be0079c531659141344cd1fd0a4f28419497f9722a3daafe3b4186f6b6457e08380a380f35b906020608492519162461bcd60e51b8352820152602660248201527f4f776e61626c653a206e6577206f776e657220697320746865207a65726f206160448201526564647265737360d01b6064820152fd5b8280fd5b5050346101fc57806003193601126101fc5760ff816020936101ce610b58565b6101d6610b73565b6001600160a01b0391821683526006875283832091168252855220549151911615158152f35b5080fd5b509190346101fc5760203660031901126101fc5761023f61023a61026c9435600052600360205260018060a01b0360406000205416151590565b610d15565b81815161024b81610bbe565b5280519161025883610bbe565b825251918291602083526020830190610b18565b0390f35b8382346101fc5760803660031901126101fc5761028b610b58565b610293610b73565b9060643567ffffffffffffffff81116102c3576102c0936102b691369101610c2e565b9160443591610d87565b80f35b8480fd5b50346101aa5760603660031901126101aa576102e1610b58565b82602319360112610370576102f4610fad565b6001600160a01b03161561031f5750600a548252600960205281206024358155600160443591015580f35b6020608492519162461bcd60e51b8352820152602660248201527f53504720616464726573732063616e6e6f7420626520746865207a65726f206160448201526564647265737360d01b6064820152fd5b8380fd5b508290346101fc57826003193601126101fc5761038f610b58565b9060243567ffffffffffffffff8111610370576103af9036908301610c2e565b50600a5491600183018093116104bb57600a8390556001600160a01b0316908115610478579060209483926104026103fc85600052600360205260018060a01b0360406000205416151590565b15611005565b600084815260036020526040902054610425906001600160a01b031615156103fc565b8286528652808520805460010190558285526003865280852080546001600160a01b0319168317905551937fddf252ad1be2c89b69c2b068fc378daa952ba7f163c4a11628f55a4df523b3ef8180a48152f35b606490602086519162461bcd60e51b8352820152602060248201527f4552433732313a206d696e7420746f20746865207a65726f20616464726573736044820152fd5b634e487b7160e01b845260118252602484fd5b5090346101aa57806003193601126101aa576104e8610b58565b90602435918215158093036102c3576001600160a01b0316923384146105575750338452600660205280842083855260205280842060ff1981541660ff8416179055519081527f17307eab39ab6107e8899845ad3d59bd9653f200f220920489ca2b5937696c3160203392a380f35b6020606492519162461bcd60e51b8352820152601960248201527f4552433732313a20617070726f766520746f2063616c6c6572000000000000006044820152fd5b5091346106b257806003193601126106b257815191816002549260018460011c91600186169586156106a8575b6020968785108114610695578899509688969785829a52918260001461066e575050600114610612575b50505061026c9291610603910385610bf0565b51928284938452830190610b18565b9190869350600283527f405787fa12a823e0f2b7631cc41b3ba8828b3321ca811111fa75cd3aa3bb5ace5b828410610656575050508201018161060361026c6105f0565b8054848a01860152889550879490930192810161063d565b60ff19168782015293151560051b86019093019350849250610603915061026c90506105f0565b634e487b7160e01b835260228a52602483fd5b92607f16926105c6565b80fd5b5050346101fc57816003193601126101fc57905490516001600160a01b039091168152602090f35b83346106b257806003193601126106b2576106f6610fad565b80546001600160a01b03198116825581906001600160a01b03167f8be0079c531659141344cd1fd0a4f28419497f9722a3daafe3b4186f6b6457e08280a380f35b5091346106b25760203660031901126106b2576001600160a01b0361075a610b58565b1680156107735781526020928352819020549051908152f35b825162461bcd60e51b8152602081860152602960248201527f4552433732313a2061646472657373207a65726f206973206e6f7420612076616044820152683634b21037bbb732b960b91b6064820152608490fd5b5091346106b25760203660031901126106b257506107e860209235610d61565b90516001600160a01b039091168152f35b5050346101fc576102c09061080d36610b89565b9192519261081a84610bbe565b858452610d87565b83346106b2576102c061083436610b89565b916108476108428433610dcf565b610cb3565b610e97565b50346101aa57816003193601126101aa57610865610b58565b6024359290916001600160a01b039190828061088087610d61565b1694169380851461096f57803314908115610950575b50156108e857508385526005602052842080546001600160a01b031916831790556108c083610d61565b167f8c5be1e5ebec7d5bd14f71427d1e84f3dd0314c0f7b2291e5b200ac8c7c3b9258480a480f35b6020608492519162461bcd60e51b8352820152603d60248201527f4552433732313a20617070726f76652063616c6c6572206973206e6f7420746f60448201527f6b656e206f776e6572206f7220617070726f76656420666f7220616c6c0000006064820152fd5b90508652600660205281862033875260205260ff828720541638610896565b506020608492519162461bcd60e51b8352820152602160248201527f4552433732313a20617070726f76616c20746f2063757272656e74206f776e656044820152603960f91b6064820152fd5b5091346106b25760203660031901126106b257506107e860209235610c75565b5091346106b257806003193601126106b25781519181600192600154938460011c9160018616958615610aa2575b6020968785108114610695578899509688969785829a52918260001461066e575050600114610a465750505061026c9291610603910385610bf0565b9190869350600183527fb10e2d527612073b26eecdfd717e6a320cf44b4afac2b0732d9fcbe2b7fa0cf65b828410610a8a575050508201018161060361026c6105f0565b8054848a018601528895508794909301928101610a71565b92607f1692610a0a565b925050346101aa5760203660031901126101aa573563ffffffff60e01b81168091036101aa57602092506380ac58cd60e01b8114908115610b07575b8115610af6575b5015158152f35b6301ffc9a760e01b14905038610aef565b635b5e139f60e01b81149150610ae8565b919082519283825260005b848110610b44575050826000602080949584010152601f8019910116010190565b602081830181015184830182015201610b23565b600435906001600160a01b0382168203610b6e57565b600080fd5b602435906001600160a01b0382168203610b6e57565b6060906003190112610b6e576001600160a01b03906004358281168103610b6e57916024359081168103610b6e579060443590565b6020810190811067ffffffffffffffff821117610bda57604052565b634e487b7160e01b600052604160045260246000fd5b90601f8019910116810190811067ffffffffffffffff821117610bda57604052565b67ffffffffffffffff8111610bda57601f01601f191660200190565b81601f82011215610b6e57803590610c4582610c12565b92610c536040519485610bf0565b82845260208383010111610b6e57816000926020809301838601378301015290565b600081815260036020526040902054610c98906001600160a01b03161515610d15565b6000908152600560205260409020546001600160a01b031690565b15610cba57565b60405162461bcd60e51b815260206004820152602d60248201527f4552433732313a2063616c6c6572206973206e6f7420746f6b656e206f776e6560448201526c1c881bdc88185c1c1c9bdd9959609a1b6064820152608490fd5b15610d1c57565b60405162461bcd60e51b815260206004820152601860248201527f4552433732313a20696e76616c696420746f6b656e20494400000000000000006044820152606490fd5b6000908152600360205260409020546001600160a01b0316610d84811515610d15565b90565b90610dab939291610d9b6108428433610dcf565b610da6838383610e97565b6110a4565b15610db257565b60405162461bcd60e51b815280610dcb60048201611051565b0390fd5b906001600160a01b038080610de384610d61565b16931691838314938415610e16575b508315610e00575b50505090565b610e0c91929350610c75565b1614388080610dfa565b909350600052600660205260406000208260005260205260ff604060002054169238610df2565b15610e4457565b60405162461bcd60e51b815260206004820152602560248201527f4552433732313a207472616e736665722066726f6d20696e636f72726563742060448201526437bbb732b960d91b6064820152608490fd5b90610ebf91610ea584610d61565b6001600160a01b0393918416928492909183168414610e3d565b16918215610f5c5781610edc91610ed586610d61565b1614610e3d565b7fddf252ad1be2c89b69c2b068fc378daa952ba7f163c4a11628f55a4df523b3ef60008481526005602052604081206bffffffffffffffffffffffff60a01b9081815416905583825260046020526040822060001981540190558482526040822060018154019055858252600360205284604083209182541617905580a4565b60405162461bcd60e51b8152602060048201526024808201527f4552433732313a207472616e7366657220746f20746865207a65726f206164646044820152637265737360e01b6064820152608490fd5b6000546001600160a01b03163303610fc157565b606460405162461bcd60e51b815260206004820152602060248201527f4f776e61626c653a2063616c6c6572206973206e6f7420746865206f776e65726044820152fd5b1561100c57565b60405162461bcd60e51b815260206004820152601c60248201527f4552433732313a20746f6b656e20616c7265616479206d696e746564000000006044820152606490fd5b60809060208152603260208201527f4552433732313a207472616e7366657220746f206e6f6e20455243373231526560408201527131b2b4bb32b91034b6b83632b6b2b73a32b960711b60608201520190565b9293919290803b156111b9576110f89460018060a01b039460405192839187630a85bd0160e11b9687855233600486015216602484015260448301526080606483015281806020998a956084830190610b18565b03916000988991165af1849181611179575b50611168575050503d600014611160573d61112481610c12565b906111326040519283610bf0565b81528091833d92013e5b8051918261115d5760405162461bcd60e51b815280610dcb60048201611051565b01fd5b50606061113c565b6001600160e01b0319161492509050565b9091508581813d83116111b2575b6111918183610bf0565b810103126102c357516001600160e01b0319811681036102c357903861110a565b503d611187565b505091505060019056fea2646970667358221220147bb9b451e362138498469ae1ff3048f2f2129e928cf9897d25b235ce4aaa6164736f6c63430008170033",
  "linkReferences": {},
  "deployedLinkReferences": {}
}