{
  "_format": "hh-sol-artifact-1",
  "contractName": "StoryProtocolToken",
  "sourceName": "contracts/ERC721.sol",
  "abi": [
    {
      "inputs": [
        {
          "internalType": "string",
          "name": "name_",
          "type": "string"
        },
        {
          "internalType": "string",
          "name": "symbol_",
          "type": "string"
        }
      ],
      "stateMutability": "nonpayable",
      "type": "constructor"
    },
    {
      "inputs": [
        {
          "internalType": "address",
          "name": "sender",
          "type": "address"
        },
        {
          "internalType": "uint256",
          "name": "tokenId",
          "type": "uint256"
        },
        {
          "internalType": "address",
          "name": "owner",
          "type": "address"
        }
      ],
      "name": "ERC721IncorrectOwner",
      "type": "error"
    },
    {
      "inputs": [
        {
          "internalType": "address",
          "name": "operator",
          "type": "address"
        },
        {
          "internalType": "uint256",
          "name": "tokenId",
          "type": "uint256"
        }
      ],
      "name": "ERC721InsufficientApproval",
      "type": "error"
    },
    {
      "inputs": [
        {
          "internalType": "address",
          "name": "approver",
          "type": "address"
        }
      ],
      "name": "ERC721InvalidApprover",
      "type": "error"
    },
    {
      "inputs": [
        {
          "internalType": "address",
          "name": "operator",
          "type": "address"
        }
      ],
      "name": "ERC721InvalidOperator",
      "type": "error"
    },
    {
      "inputs": [
        {
          "internalType": "address",
          "name": "owner",
          "type": "address"
        }
      ],
      "name": "ERC721InvalidOwner",
      "type": "error"
    },
    {
      "inputs": [
        {
          "internalType": "address",
          "name": "receiver",
          "type": "address"
        }
      ],
      "name": "ERC721InvalidReceiver",
      "type": "error"
    },
    {
      "inputs": [
        {
          "internalType": "address",
          "name": "sender",
          "type": "address"
        }
      ],
      "name": "ERC721InvalidSender",
      "type": "error"
    },
    {
      "inputs": [
        {
          "internalType": "uint256",
          "name": "tokenId",
          "type": "uint256"
        }
      ],
      "name": "ERC721NonexistentToken",
      "type": "error"
    },
    {
      "inputs": [
        {
          "internalType": "address",
          "name": "owner",
          "type": "address"
        }
      ],
      "name": "OwnableInvalidOwner",
      "type": "error"
    },
    {
      "inputs": [
        {
          "internalType": "address",
          "name": "account",
          "type": "address"
        }
      ],
      "name": "OwnableUnauthorizedAccount",
      "type": "error"
    },
    {
      "anonymous": false,
      "inputs": [
        {
          "indexed": true,
          "internalType": "address",
          "name": "owner",
          "type": "address"
        },
        {
          "indexed": true,
          "internalType": "address",
          "name": "approved",
          "type": "address"
        },
        {
          "indexed": true,
          "internalType": "uint256",
          "name": "tokenId",
          "type": "uint256"
        }
      ],
      "name": "Approval",
      "type": "event"
    },
    {
      "anonymous": false,
      "inputs": [
        {
          "indexed": true,
          "internalType": "address",
          "name": "owner",
          "type": "address"
        },
        {
          "indexed": true,
          "internalType": "address",
          "name": "operator",
          "type": "address"
        },
        {
          "indexed": false,
          "internalType": "bool",
          "name": "approved",
          "type": "bool"
        }
      ],
      "name": "ApprovalForAll",
      "type": "event"
    },
    {
      "anonymous": false,
      "inputs": [
        {
          "indexed": true,
          "internalType": "address",
          "name": "previousOwner",
          "type": "address"
        },
        {
          "indexed": true,
          "internalType": "address",
          "name": "newOwner",
          "type": "address"
        }
      ],
      "name": "OwnershipTransferred",
      "type": "event"
    },
    {
      "anonymous": false,
      "inputs": [
        {
          "indexed": true,
          "internalType": "address",
          "name": "from",
          "type": "address"
        },
        {
          "indexed": true,
          "internalType": "address",
          "name": "to",
          "type": "address"
        },
        {
          "indexed": true,
          "internalType": "uint256",
          "name": "tokenId",
          "type": "uint256"
        }
      ],
      "name": "Transfer",
      "type": "event"
    },
    {
      "inputs": [
        {
          "internalType": "address",
          "name": "to",
          "type": "address"
        },
        {
          "internalType": "uint256",
          "name": "tokenId",
          "type": "uint256"
        }
      ],
      "name": "approve",
      "outputs": [],
      "stateMutability": "nonpayable",
      "type": "function"
    },
    {
      "inputs": [
        {
          "internalType": "address",
          "name": "owner",
          "type": "address"
        }
      ],
      "name": "balanceOf",
      "outputs": [
        {
          "internalType": "uint256",
          "name": "",
          "type": "uint256"
        }
      ],
      "stateMutability": "view",
      "type": "function"
    },
    {
      "inputs": [
        {
          "internalType": "address",
          "name": "spg",
          "type": "address"
        },
        {
          "components": [
            {
              "internalType": "uint256",
              "name": "start",
              "type": "uint256"
            },
            {
              "internalType": "uint256",
              "name": "end",
              "type": "uint256"
            }
          ],
          "internalType": "struct SPG.MintSettings",
          "name": "mintSettings",
          "type": "tuple"
        }
      ],
      "name": "configureMint",
      "outputs": [],
      "stateMutability": "nonpayable",
      "type": "function"
    },
    {
      "inputs": [
        {
          "internalType": "uint256",
          "name": "tokenId",
          "type": "uint256"
        }
      ],
      "name": "getApproved",
      "outputs": [
        {
          "internalType": "address",
          "name": "",
          "type": "address"
        }
      ],
      "stateMutability": "view",
      "type": "function"
    },
    {
      "inputs": [
        {
          "internalType": "address",
          "name": "owner",
          "type": "address"
        },
        {
          "internalType": "address",
          "name": "operator",
          "type": "address"
        }
      ],
      "name": "isApprovedForAll",
      "outputs": [
        {
          "internalType": "bool",
          "name": "",
          "type": "bool"
        }
      ],
      "stateMutability": "view",
      "type": "function"
    },
    {
      "inputs": [
        {
          "internalType": "address",
          "name": "to",
          "type": "address"
        },
        {
          "internalType": "bytes",
          "name": "",
          "type": "bytes"
        }
      ],
      "name": "mint",
      "outputs": [
        {
          "internalType": "uint256",
          "name": "",
          "type": "uint256"
        }
      ],
      "stateMutability": "nonpayable",
      "type": "function"
    },
    {
      "inputs": [],
      "name": "name",
      "outputs": [
        {
          "internalType": "string",
          "name": "",
          "type": "string"
        }
      ],
      "stateMutability": "view",
      "type": "function"
    },
    {
      "inputs": [],
      "name": "owner",
      "outputs": [
        {
          "internalType": "address",
          "name": "",
          "type": "address"
        }
      ],
      "stateMutability": "view",
      "type": "function"
    },
    {
      "inputs": [
        {
          "internalType": "uint256",
          "name": "tokenId",
          "type": "uint256"
        }
      ],
      "name": "ownerOf",
      "outputs": [
        {
          "internalType": "address",
          "name": "",
          "type": "address"
        }
      ],
      "stateMutability": "view",
      "type": "function"
    },
    {
      "inputs": [],
      "name": "renounceOwnership",
      "outputs": [],
      "stateMutability": "nonpayable",
      "type": "function"
    },
    {
      "inputs": [
        {
          "internalType": "address",
          "name": "from",
          "type": "address"
        },
        {
          "internalType": "address",
          "name": "to",
          "type": "address"
        },
        {
          "internalType": "uint256",
          "name": "tokenId",
          "type": "uint256"
        }
      ],
      "name": "safeTransferFrom",
      "outputs": [],
      "stateMutability": "nonpayable",
      "type": "function"
    },
    {
      "inputs": [
        {
          "internalType": "address",
          "name": "from",
          "type": "address"
        },
        {
          "internalType": "address",
          "name": "to",
          "type": "address"
        },
        {
          "internalType": "uint256",
          "name": "tokenId",
          "type": "uint256"
        },
        {
          "internalType": "bytes",
          "name": "data",
          "type": "bytes"
        }
      ],
      "name": "safeTransferFrom",
      "outputs": [],
      "stateMutability": "nonpayable",
      "type": "function"
    },
    {
      "inputs": [
        {
          "internalType": "address",
          "name": "operator",
          "type": "address"
        },
        {
          "internalType": "bool",
          "name": "approved",
          "type": "bool"
        }
      ],
      "name": "setApprovalForAll",
      "outputs": [],
      "stateMutability": "nonpayable",
      "type": "function"
    },
    {
      "inputs": [
        {
          "internalType": "bytes4",
          "name": "interfaceId",
          "type": "bytes4"
        }
      ],
      "name": "supportsInterface",
      "outputs": [
        {
          "internalType": "bool",
          "name": "",
          "type": "bool"
        }
      ],
      "stateMutability": "view",
      "type": "function"
    },
    {
      "inputs": [],
      "name": "symbol",
      "outputs": [
        {
          "internalType": "string",
          "name": "",
          "type": "string"
        }
      ],
      "stateMutability": "view",
      "type": "function"
    },
    {
      "inputs": [
        {
          "internalType": "uint256",
          "name": "tokenId",
          "type": "uint256"
        }
      ],
      "name": "tokenURI",
      "outputs": [
        {
          "internalType": "string",
          "name": "",
          "type": "string"
        }
      ],
      "stateMutability": "view",
      "type": "function"
    },
    {
      "inputs": [
        {
          "internalType": "address",
          "name": "from",
          "type": "address"
        },
        {
          "internalType": "address",
          "name": "to",
          "type": "address"
        },
        {
          "internalType": "uint256",
          "name": "tokenId",
          "type": "uint256"
        }
      ],
      "name": "transferFrom",
      "outputs": [],
      "stateMutability": "nonpayable",
      "type": "function"
    },
    {
      "inputs": [
        {
          "internalType": "address",
          "name": "newOwner",
          "type": "address"
        }
      ],
      "name": "transferOwnership",
      "outputs": [],
      "stateMutability": "nonpayable",
      "type": "function"
    }
  ],
  "bytecode": "0x608060405234620005d45762001530803803806200001d81620005d9565b928339810190604081830312620005d45780516001600160401b0390818111620005d457836200004f91840162000615565b9160209384820151838111620005d4576200006b920162000615565b923315620005bb5760008054336001600160a01b0319821681178355919591906001600160a01b03167f8be0079c531659141344cd1fd0a4f28419497f9722a3daafe3b4186f6b6457e08780a383519183831162000315576001948554938685811c95168015620005b0575b838610146200059c57601f9485811162000554575b508083868211600114620004f2578991620004e6575b50600019600383901b1c191690871b1786555b82518581116200040e576002548781811c91168015620004db575b84821014620003ef5785811162000492575b5080838682116001146200042e57899162000422575b50600019600383901b1c191690871b176002555b8051908582116200040e576007548781811c9116801562000403575b84821014620003ef579081868493116200039b575b5083908683116001146200033557899262000329575b5050600019600383901b1c191690861b176007555b815193841162000315576008548581811c911680156200030a575b82821014620002f657838111620002ad575b5080928411600114620002435750928293918392869462000237575b50501b916000199060031b1c1916176008555b600a55604051610ea89081620006888239f35b01519250388062000211565b919083601f198116600888528488209488905b8883831062000292575050501062000278575b505050811b0160085562000224565b015160001960f88460031b161c1916905538808062000269565b85870151885590960195948501948793509081019062000256565b600887528187208480870160051c820192848810620002ec575b0160051c019086905b828110620002e0575050620001f5565b888155018690620002d0565b92508192620002c7565b634e487b7160e01b87526022600452602487fd5b90607f1690620001e3565b634e487b7160e01b86526041600452602486fd5b015190503880620001b3565b60078a52848a208994509190601f1984168b5b878282106200038457505084116200036a575b505050811b01600755620001c8565b015160001960f88460031b161c191690553880806200035b565b8385015186558c9790950194938401930162000348565b909150600789528389208680850160051c820192868610620003e5575b918a91869594930160051c01915b828110620003d65750506200019d565b8b81558594508a9101620003c6565b92508192620003b8565b634e487b7160e01b89526022600452602489fd5b90607f169062000188565b634e487b7160e01b88526041600452602488fd5b90508401513862000158565b60028a52848a2089935090601f1983168b5b878282106200047b575050831162000461575b5050811b016002556200016c565b86015160001960f88460031b161c19169055388062000453565b838a015185558c9690940193928301920162000440565b600289528389208680840160051c820192868510620004d1575b0160051c019088905b828110620004c557505062000142565b8a8155018890620004b5565b92508192620004ac565b90607f169062000130565b90508201513862000102565b888a52848a2089935090601f1983168b5b878282106200053d575050831162000523575b5050811b01865562000115565b84015160001960f88460031b161c19169055388062000516565b8388015185558c9690940193928301920162000503565b8789528389208680840160051c82019286851062000592575b0160051c019088905b82811062000586575050620000ec565b8a815501889062000576565b925081926200056d565b634e487b7160e01b88526022600452602488fd5b94607f1694620000d7565b604051631e4fbdf760e01b815260006004820152602490fd5b600080fd5b6040519190601f01601f191682016001600160401b03811183821017620005ff57604052565b634e487b7160e01b600052604160045260246000fd5b919080601f84011215620005d45782516001600160401b038111620005ff576020906200064b601f8201601f19168301620005d9565b92818452828287010111620005d45760005b8181106200067357508260009394955001015290565b85810183015184820184015282016200065d56fe6080604081815260048036101561001557600080fd5b600092833560e01c90816301ffc9a7146109545750806306fdde0314610884578063081812fc14610848578063095ea7b31461076657806323b872dd1461074e57806342842e0e146107255780636352211e146106f457806370a08231146106a2578063715018a6146106485780638da5cb5b1461062057806395d89b4114610504578063a22cb46514610467578063b510391f1461031b578063b69952e71461026e578063b88d4fde14610217578063c87b56dd146101c4578063e985e9c5146101725763f2fde38b146100e957600080fd5b3461016e57602036600319011261016e57610102610a00565b9061010b610e46565b6001600160a01b0391821692831561015857505082546001600160a01b0319811683178455167f8be0079c531659141344cd1fd0a4f28419497f9722a3daafe3b4186f6b6457e08380a380f35b51631e4fbdf760e01b8152908101849052602490fd5b8280fd5b5050346101c057806003193601126101c05760ff81602093610192610a00565b61019a610a1b565b6001600160a01b0391821683526006875283832091168252855220549151911615158152f35b5080fd5b509190346101c05760203660031901126101c0576101e56102139335610e0b565b508181516101f281610a66565b528051916101ff83610a66565b8252519182916020835260208301906109c0565b0390f35b8382346101c05760803660031901126101c057610232610a00565b61023a610a1b565b9060643567ffffffffffffffff811161026a576102679361025d91369101610ad6565b9160443591610cbc565b80f35b8480fd5b503461016e57606036600319011261016e57610288610a00565b826023193601126103175761029b610e46565b6001600160a01b0316156102c65750600a548252600960205281206024358155600160443591015580f35b6020608492519162461bcd60e51b8352820152602660248201527f53504720616464726573732063616e6e6f7420626520746865207a65726f206160448201526564647265737360d01b6064820152fd5b8380fd5b508290346101c057826003193601126101c057610336610a00565b9160243567ffffffffffffffff81116101c0576103569036908401610ad6565b50600a54926001840180941161045457600a8490556001600160a01b0390811690811561043d57848352600360205285832054168015159185918361040a575b8185526020868152888620805460010190558386526003905287852080546001600160a01b031916831790557fddf252ad1be2c89b69c2b068fc378daa952ba7f163c4a11628f55a4df523b3ef8580a46103f4576020838551908152f35b83516339e3563760e11b81529182015260249150fd5b600083815260056020526040902080546001600160a01b0319169055808552856020528785206000198154019055610396565b8551633250574960e11b8152808501849052602490fd5b506011602492634e487b7160e01b835252fd5b50903461016e578060031936011261016e57610481610a00565b906024359182151580930361026a576001600160a01b03169283156104ef5750338452600660205280842083855260205280842060ff1981541660ff8416179055519081527f17307eab39ab6107e8899845ad3d59bd9653f200f220920489ca2b5937696c3160203392a380f35b836024925191630b61174360e31b8352820152fd5b50913461061d578060031936011261061d57815191816002549260018460011c9160018616958615610613575b6020968785108114610600578899509688969785829a5291826000146105d957505060011461057d575b505050610213929161056e910385610a98565b519282849384528301906109c0565b9190869350600283527f405787fa12a823e0f2b7631cc41b3ba8828b3321ca811111fa75cd3aa3bb5ace5b8284106105c1575050508201018161056e61021361055b565b8054848a0186015288955087949093019281016105a8565b60ff19168782015293151560051b8601909301935084925061056e9150610213905061055b565b634e487b7160e01b835260228a52602483fd5b92607f1692610531565b80fd5b5050346101c057816003193601126101c057905490516001600160a01b039091168152602090f35b833461061d578060031936011261061d57610661610e46565b80546001600160a01b03198116825581906001600160a01b03167f8be0079c531659141344cd1fd0a4f28419497f9722a3daafe3b4186f6b6457e08280a380f35b50913461061d57602036600319011261061d576001600160a01b036106c5610a00565b1680156106de5781526020928352819020549051908152f35b5090516322718ad960e21b815291820152602490fd5b50913461061d57602036600319011261061d575061071460209235610e0b565b90516001600160a01b039091168152f35b5050346101c0576102679061073936610a31565b9192519261074684610a66565b858452610cbc565b833461061d5761026761076036610a31565b91610b1d565b50903461016e578060031936011261016e57610780610a00565b916024359061078e82610e0b565b9033151580610835575b8061080c575b6107f557506001600160a01b039384169382918591167f8c5be1e5ebec7d5bd14f71427d1e84f3dd0314c0f7b2291e5b200ac8c7c3b9258780a483526005602052822080546001600160a01b031916909117905580f35b60249084519063a9fbf51f60e01b82523390820152fd5b506001600160a01b03821686526006602090815284872033885290528386205460ff161561079e565b506001600160a01b038216331415610798565b503461016e57602036600319011261016e57916020923561086881610e0b565b508152600583528190205490516001600160a01b039091168152f35b50913461061d578060031936011261061d5781519181600192600154938460011c916001861695861561094a575b6020968785108114610600578899509688969785829a5291826000146105d95750506001146108ee57505050610213929161056e910385610a98565b9190869350600183527fb10e2d527612073b26eecdfd717e6a320cf44b4afac2b0732d9fcbe2b7fa0cf65b828410610932575050508201018161056e61021361055b565b8054848a018601528895508794909301928101610919565b92607f16926108b2565b9250503461016e57602036600319011261016e573563ffffffff60e01b811680910361016e57602092506380ac58cd60e01b81149081156109af575b811561099e575b5015158152f35b6301ffc9a760e01b14905038610997565b635b5e139f60e01b81149150610990565b919082519283825260005b8481106109ec575050826000602080949584010152601f8019910116010190565b6020818301810151848301820152016109cb565b600435906001600160a01b0382168203610a1657565b600080fd5b602435906001600160a01b0382168203610a1657565b6060906003190112610a16576001600160a01b03906004358281168103610a1657916024359081168103610a16579060443590565b6020810190811067ffffffffffffffff821117610a8257604052565b634e487b7160e01b600052604160045260246000fd5b90601f8019910116810190811067ffffffffffffffff821117610a8257604052565b67ffffffffffffffff8111610a8257601f01601f191660200190565b81601f82011215610a1657803590610aed82610aba565b92610afb6040519485610a98565b82845260208383010111610a1657816000926020809301838601378301015290565b6001600160a01b039182169290918315610ca357600092828452826020956003875260409684888820541696879133151580610c0d575b509060037fddf252ad1be2c89b69c2b068fc378daa952ba7f163c4a11628f55a4df523b3ef9284610bda575b858352600481528b8320805460010190558683525289812080546001600160a01b0319168517905580a41692838303610bb95750505050565b6064945051926364283d7b60e01b8452600484015260248301526044820152fd5b600087815260056020526040902080546001600160a01b0319169055848352600481528b83208054600019019055610b80565b91939450915080610c62575b15610c2957859291879138610b54565b878688610c46576024915190637e27328960e01b82526004820152fd5b604491519063177e802f60e01b82523360048301526024820152fd5b503387148015610c87575b80610c195750858252600581523385898420541614610c19565b5086825260068152878220338352815260ff8883205416610c6d565b604051633250574960e11b815260006004820152602490fd5b610cc7838383610b1d565b813b610cd4575b50505050565b604051630a85bd0160e11b8082523360048301526001600160a01b03928316602483015260448201949094526080606482015260209592909116939092908390610d229060848301906109c0565b039285816000958187895af1849181610dcb575b50610d96575050503d600014610d8e573d610d5081610aba565b90610d5e6040519283610a98565b81528091843d92013e5b80519283610d8957604051633250574960e11b815260048101849052602490fd5b019050fd5b506060610d68565b919450915063ffffffff60e01b1603610db3575038808080610cce565b60249060405190633250574960e11b82526004820152fd5b9091508681813d8311610e04575b610de38183610a98565b8101031261026a57516001600160e01b03198116810361026a579038610d36565b503d610dd9565b6000818152600360205260409020546001600160a01b0316908115610e2e575090565b60249060405190637e27328960e01b82526004820152fd5b6000546001600160a01b03163303610e5a57565b60405163118cdaa760e01b8152336004820152602490fdfea264697066735822122092528e6a53b88e110db9fafa45384c8f6d9c2b00eca53a9fac46e8e5ad1965ae64736f6c63430008170033",
  "linkReferences": {},
  "deployedLinkReferences": {}
}