{"contracts/ERC721.sol":{"StoryProtocolToken":{"abi":[{"inputs":[{"internalType":"string","name":"name_","type":"string"},{"internalType":"string","name":"symbol_","type":"string"}],"stateMutability":"nonpayable","type":"constructor"},{"anonymous":false,"inputs":[{"indexed":true,"internalType":"address","name":"owner","type":"address"},{"indexed":true,"internalType":"address","name":"approved","type":"address"},{"indexed":true,"internalType":"uint256","name":"tokenId","type":"uint256"}],"name":"Approval","type":"event"},{"anonymous":false,"inputs":[{"indexed":true,"internalType":"address","name":"owner","type":"address"},{"indexed":true,"internalType":"address","name":"operator","type":"address"},{"indexed":false,"internalType":"bool","name":"approved","type":"bool"}],"name":"ApprovalForAll","type":"event"},{"anonymous":false,"inputs":[{"indexed":true,"internalType":"address","name":"previousOwner","type":"address"},{"indexed":true,"internalType":"address","name":"newOwner","type":"address"}],"name":"OwnershipTransferred","type":"event"},{"anonymous":false,"inputs":[{"indexed":true,"internalType":"address","name":"from","type":"address"},{"indexed":true,"internalType":"address","name":"to","type":"address"},{"indexed":true,"internalType":"uint256","name":"tokenId","type":"uint256"}],"name":"Transfer","type":"event"},{"inputs":[{"internalType":"address","name":"to","type":"address"},{"internalType":"uint256","name":"tokenId","type":"uint256"}],"name":"approve","outputs":[],"stateMutability":"nonpayable","type":"function"},{"inputs":[{"internalType":"address","name":"owner","type":"address"}],"name":"balanceOf","outputs":[{"internalType":"uint256","name":"","type":"uint256"}],"stateMutability":"view","type":"function"},{"inputs":[{"internalType":"address","name":"spg","type":"address"},{"components":[{"internalType":"uint256","name":"start","type":"uint256"},{"internalType":"uint256","name":"end","type":"uint256"}],"internalType":"struct SPG.MintSettings","name":"mintSettings","type":"tuple"}],"name":"configureMint","outputs":[],"stateMutability":"nonpayable","type":"function"},{"inputs":[{"internalType":"uint256","name":"tokenId","type":"uint256"}],"name":"getApproved","outputs":[{"internalType":"address","name":"","type":"address"}],"stateMutability":"view","type":"function"},{"inputs":[{"internalType":"address","name":"owner","type":"address"},{"internalType":"address","name":"operator","type":"address"}],"name":"isApprovedForAll","outputs":[{"internalType":"bool","name":"","type":"bool"}],"stateMutability":"view","type":"function"},{"inputs":[{"internalType":"address","name":"to","type":"address"},{"internalType":"bytes","name":"data","type":"bytes"}],"name":"mint","outputs":[{"internalType":"uint256","name":"","type":"uint256"}],"stateMutability":"nonpayable","type":"function"},{"inputs":[],"name":"name","outputs":[{"internalType":"string","name":"","type":"string"}],"stateMutability":"view","type":"function"},{"inputs":[],"name":"owner","outputs":[{"internalType":"address","name":"","type":"address"}],"stateMutability":"view","type":"function"},{"inputs":[{"internalType":"uint256","name":"tokenId","type":"uint256"}],"name":"ownerOf","outputs":[{"internalType":"address","name":"","type":"address"}],"stateMutability":"view","type":"function"},{"inputs":[],"name":"renounceOwnership","outputs":[],"stateMutability":"nonpayable","type":"function"},{"inputs":[{"internalType":"address","name":"from","type":"address"},{"internalType":"address","name":"to","type":"address"},{"internalType":"uint256","name":"tokenId","type":"uint256"}],"name":"safeTransferFrom","outputs":[],"stateMutability":"nonpayable","type":"function"},{"inputs":[{"internalType":"address","name":"from","type":"address"},{"internalType":"address","name":"to","type":"address"},{"internalType":"uint256","name":"tokenId","type":"uint256"},{"internalType":"bytes","name":"data","type":"bytes"}],"name":"safeTransferFrom","outputs":[],"stateMutability":"nonpayable","type":"function"},{"inputs":[{"internalType":"address","name":"operator","type":"address"},{"internalType":"bool","name":"approved","type":"bool"}],"name":"setApprovalForAll","outputs":[],"stateMutability":"nonpayable","type":"function"},{"inputs":[{"internalType":"bytes4","name":"interfaceId","type":"bytes4"}],"name":"supportsInterface","outputs":[{"internalType":"bool","name":"","type":"bool"}],"stateMutability":"view","type":"function"},{"inputs":[],"name":"symbol","outputs":[{"internalType":"string","name":"","type":"string"}],"stateMutability":"view","type":"function"},{"inputs":[{"internalType":"uint256","name":"tokenId","type":"uint256"}],"name":"tokenURI","outputs":[{"internalType":"string","name":"","type":"string"}],"stateMutability":"view","type":"function"},{"inputs":[{"internalType":"address","name":"from","type":"address"},{"internalType":"address","name":"to","type":"address"},{"internalType":"uint256","name":"tokenId","type":"uint256"}],"name":"transferFrom","outputs":[],"stateMutability":"nonpayable","type":"function"},{"inputs":[{"internalType":"address","name":"newOwner","type":"address"}],"name":"transferOwnership","outputs":[],"stateMutability":"nonpayable","type":"function"}],"evm":{"bytecode":{"linkReferences":{},"object":"608060405234620005b45762001861803803806200001d81620005b9565b928339810190604081830312620005b45780516001600160401b0390818111620005b457836200004f918401620005f5565b9160209384820151838111620005b4576200006b9201620005f5565b60008054336001600160a01b031982168117835591959291906001600160a01b03167f8be0079c531659141344cd1fd0a4f28419497f9722a3daafe3b4186f6b6457e08780a38351918383116200030e576001948554938685811c95168015620005a9575b838610146200059557601f948581116200054d575b508083868211600114620004eb578991620004df575b50600019600383901b1c191690871b1786555b825185811162000407576002548781811c91168015620004d4575b84821014620003e8578581116200048b575b508083868211600114620004275789916200041b575b50600019600383901b1c191690871b176002555b80519085821162000407576007548781811c91168015620003fc575b84821014620003e85790818684931162000394575b5083908683116001146200032e57899262000322575b5050600019600383901b1c191690861b176007555b81519384116200030e576008548581811c9116801562000303575b82821014620002ef57838111620002a6575b50809284116001146200023c5750928293918392869462000230575b50501b916000199060031b1c1916176008555b600a556040516111f99081620006688239f35b0151925038806200020a565b919083601f198116600888528488209488905b888383106200028b575050501062000271575b505050811b016008556200021d565b015160001960f88460031b161c1916905538808062000262565b8587015188559096019594850194879350908101906200024f565b600887528187208480870160051c820192848810620002e5575b0160051c019086905b828110620002d9575050620001ee565b888155018690620002c9565b92508192620002c0565b634e487b7160e01b87526022600452602487fd5b90607f1690620001dc565b634e487b7160e01b86526041600452602486fd5b015190503880620001ac565b60078a52848a208994509190601f1984168b5b878282106200037d575050841162000363575b505050811b01600755620001c1565b015160001960f88460031b161c1916905538808062000354565b8385015186558c9790950194938401930162000341565b909150600789528389208680850160051c820192868610620003de575b918a91869594930160051c01915b828110620003cf57505062000196565b8b81558594508a9101620003bf565b92508192620003b1565b634e487b7160e01b89526022600452602489fd5b90607f169062000181565b634e487b7160e01b88526041600452602488fd5b90508401513862000151565b60028a52848a2089935090601f1983168b5b878282106200047457505083116200045a575b5050811b0160025562000165565b86015160001960f88460031b161c1916905538806200044c565b838a015185558c9690940193928301920162000439565b600289528389208680840160051c820192868510620004ca575b0160051c019088905b828110620004be5750506200013b565b8a8155018890620004ae565b92508192620004a5565b90607f169062000129565b905082015138620000fb565b888a52848a2089935090601f1983168b5b878282106200053657505083116200051c575b5050811b0186556200010e565b84015160001960f88460031b161c1916905538806200050f565b8388015185558c96909401939283019201620004fc565b8789528389208680840160051c8201928685106200058b575b0160051c019088905b8281106200057f575050620000e5565b8a81550188906200056f565b9250819262000566565b634e487b7160e01b88526022600452602488fd5b94607f1694620000d0565b600080fd5b6040519190601f01601f191682016001600160401b03811183821017620005df57604052565b634e487b7160e01b600052604160045260246000fd5b919080601f84011215620005b45782516001600160401b038111620005df576020906200062b601f8201601f19168301620005b9565b92818452828287010111620005b45760005b8181106200065357508260009394955001015290565b85810183015184820184015282016200063d56fe6080604081815260048036101561001557600080fd5b600092833560e01c90816301ffc9a714610aac5750806306fdde03146109dc578063081812fc146109bc578063095ea7b31461084c57806323b872dd1461082257806342842e0e146107f95780636352211e146107c857806370a0823114610737578063715018a6146106dd5780638da5cb5b146106b557806395d89b4114610599578063a22cb465146104ce578063b510391f14610374578063b69952e7146102c7578063b88d4fde14610270578063c87b56dd14610200578063e985e9c5146101ae5763f2fde38b146100e957600080fd5b346101aa5760203660031901126101aa57610102610b58565b9061010b610fad565b6001600160a01b0391821692831561015857505082546001600160a01b0319811683178455167f8be0079c531659141344cd1fd0a4f28419497f9722a3daafe3b4186f6b6457e08380a380f35b906020608492519162461bcd60e51b8352820152602660248201527f4f776e61626c653a206e6577206f776e657220697320746865207a65726f206160448201526564647265737360d01b6064820152fd5b8280fd5b5050346101fc57806003193601126101fc5760ff816020936101ce610b58565b6101d6610b73565b6001600160a01b0391821683526006875283832091168252855220549151911615158152f35b5080fd5b509190346101fc5760203660031901126101fc5761023f61023a61026c9435600052600360205260018060a01b0360406000205416151590565b610d15565b81815161024b81610bbe565b5280519161025883610bbe565b825251918291602083526020830190610b18565b0390f35b8382346101fc5760803660031901126101fc5761028b610b58565b610293610b73565b9060643567ffffffffffffffff81116102c3576102c0936102b691369101610c2e565b9160443591610d87565b80f35b8480fd5b50346101aa5760603660031901126101aa576102e1610b58565b82602319360112610370576102f4610fad565b6001600160a01b03161561031f5750600a548252600960205281206024358155600160443591015580f35b6020608492519162461bcd60e51b8352820152602660248201527f53504720616464726573732063616e6e6f7420626520746865207a65726f206160448201526564647265737360d01b6064820152fd5b8380fd5b508290346101fc57826003193601126101fc5761038f610b58565b9060243567ffffffffffffffff8111610370576103af9036908301610c2e565b50600a5491600183018093116104bb57600a8390556001600160a01b0316908115610478579060209483926104026103fc85600052600360205260018060a01b0360406000205416151590565b15611005565b600084815260036020526040902054610425906001600160a01b031615156103fc565b8286528652808520805460010190558285526003865280852080546001600160a01b0319168317905551937fddf252ad1be2c89b69c2b068fc378daa952ba7f163c4a11628f55a4df523b3ef8180a48152f35b606490602086519162461bcd60e51b8352820152602060248201527f4552433732313a206d696e7420746f20746865207a65726f20616464726573736044820152fd5b634e487b7160e01b845260118252602484fd5b5090346101aa57806003193601126101aa576104e8610b58565b90602435918215158093036102c3576001600160a01b0316923384146105575750338452600660205280842083855260205280842060ff1981541660ff8416179055519081527f17307eab39ab6107e8899845ad3d59bd9653f200f220920489ca2b5937696c3160203392a380f35b6020606492519162461bcd60e51b8352820152601960248201527f4552433732313a20617070726f766520746f2063616c6c6572000000000000006044820152fd5b5091346106b257806003193601126106b257815191816002549260018460011c91600186169586156106a8575b6020968785108114610695578899509688969785829a52918260001461066e575050600114610612575b50505061026c9291610603910385610bf0565b51928284938452830190610b18565b9190869350600283527f405787fa12a823e0f2b7631cc41b3ba8828b3321ca811111fa75cd3aa3bb5ace5b828410610656575050508201018161060361026c6105f0565b8054848a01860152889550879490930192810161063d565b60ff19168782015293151560051b86019093019350849250610603915061026c90506105f0565b634e487b7160e01b835260228a52602483fd5b92607f16926105c6565b80fd5b5050346101fc57816003193601126101fc57905490516001600160a01b039091168152602090f35b83346106b257806003193601126106b2576106f6610fad565b80546001600160a01b03198116825581906001600160a01b03167f8be0079c531659141344cd1fd0a4f28419497f9722a3daafe3b4186f6b6457e08280a380f35b5091346106b25760203660031901126106b2576001600160a01b0361075a610b58565b1680156107735781526020928352819020549051908152f35b825162461bcd60e51b8152602081860152602960248201527f4552433732313a2061646472657373207a65726f206973206e6f7420612076616044820152683634b21037bbb732b960b91b6064820152608490fd5b5091346106b25760203660031901126106b257506107e860209235610d61565b90516001600160a01b039091168152f35b5050346101fc576102c09061080d36610b89565b9192519261081a84610bbe565b858452610d87565b83346106b2576102c061083436610b89565b916108476108428433610dcf565b610cb3565b610e97565b50346101aa57816003193601126101aa57610865610b58565b6024359290916001600160a01b039190828061088087610d61565b1694169380851461096f57803314908115610950575b50156108e857508385526005602052842080546001600160a01b031916831790556108c083610d61565b167f8c5be1e5ebec7d5bd14f71427d1e84f3dd0314c0f7b2291e5b200ac8c7c3b9258480a480f35b6020608492519162461bcd60e51b8352820152603d60248201527f4552433732313a20617070726f76652063616c6c6572206973206e6f7420746f60448201527f6b656e206f776e6572206f7220617070726f76656420666f7220616c6c0000006064820152fd5b90508652600660205281862033875260205260ff828720541638610896565b506020608492519162461bcd60e51b8352820152602160248201527f4552433732313a20617070726f76616c20746f2063757272656e74206f776e656044820152603960f91b6064820152fd5b5091346106b25760203660031901126106b257506107e860209235610c75565b5091346106b257806003193601126106b25781519181600192600154938460011c9160018616958615610aa2575b6020968785108114610695578899509688969785829a52918260001461066e575050600114610a465750505061026c9291610603910385610bf0565b9190869350600183527fb10e2d527612073b26eecdfd717e6a320cf44b4afac2b0732d9fcbe2b7fa0cf65b828410610a8a575050508201018161060361026c6105f0565b8054848a018601528895508794909301928101610a71565b92607f1692610a0a565b925050346101aa5760203660031901126101aa573563ffffffff60e01b81168091036101aa57602092506380ac58cd60e01b8114908115610b07575b8115610af6575b5015158152f35b6301ffc9a760e01b14905038610aef565b635b5e139f60e01b81149150610ae8565b919082519283825260005b848110610b44575050826000602080949584010152601f8019910116010190565b602081830181015184830182015201610b23565b600435906001600160a01b0382168203610b6e57565b600080fd5b602435906001600160a01b0382168203610b6e57565b6060906003190112610b6e576001600160a01b03906004358281168103610b6e57916024359081168103610b6e579060443590565b6020810190811067ffffffffffffffff821117610bda57604052565b634e487b7160e01b600052604160045260246000fd5b90601f8019910116810190811067ffffffffffffffff821117610bda57604052565b67ffffffffffffffff8111610bda57601f01601f191660200190565b81601f82011215610b6e57803590610c4582610c12565b92610c536040519485610bf0565b82845260208383010111610b6e57816000926020809301838601378301015290565b600081815260036020526040902054610c98906001600160a01b03161515610d15565b6000908152600560205260409020546001600160a01b031690565b15610cba57565b60405162461bcd60e51b815260206004820152602d60248201527f4552433732313a2063616c6c6572206973206e6f7420746f6b656e206f776e6560448201526c1c881bdc88185c1c1c9bdd9959609a1b6064820152608490fd5b15610d1c57565b60405162461bcd60e51b815260206004820152601860248201527f4552433732313a20696e76616c696420746f6b656e20494400000000000000006044820152606490fd5b6000908152600360205260409020546001600160a01b0316610d84811515610d15565b90565b90610dab939291610d9b6108428433610dcf565b610da6838383610e97565b6110a4565b15610db257565b60405162461bcd60e51b815280610dcb60048201611051565b0390fd5b906001600160a01b038080610de384610d61565b16931691838314938415610e16575b508315610e00575b50505090565b610e0c91929350610c75565b1614388080610dfa565b909350600052600660205260406000208260005260205260ff604060002054169238610df2565b15610e4457565b60405162461bcd60e51b815260206004820152602560248201527f4552433732313a207472616e736665722066726f6d20696e636f72726563742060448201526437bbb732b960d91b6064820152608490fd5b90610ebf91610ea584610d61565b6001600160a01b0393918416928492909183168414610e3d565b16918215610f5c5781610edc91610ed586610d61565b1614610e3d565b7fddf252ad1be2c89b69c2b068fc378daa952ba7f163c4a11628f55a4df523b3ef60008481526005602052604081206bffffffffffffffffffffffff60a01b9081815416905583825260046020526040822060001981540190558482526040822060018154019055858252600360205284604083209182541617905580a4565b60405162461bcd60e51b8152602060048201526024808201527f4552433732313a207472616e7366657220746f20746865207a65726f206164646044820152637265737360e01b6064820152608490fd5b6000546001600160a01b03163303610fc157565b606460405162461bcd60e51b815260206004820152602060248201527f4f776e61626c653a2063616c6c6572206973206e6f7420746865206f776e65726044820152fd5b1561100c57565b60405162461bcd60e51b815260206004820152601c60248201527f4552433732313a20746f6b656e20616c7265616479206d696e746564000000006044820152606490fd5b60809060208152603260208201527f4552433732313a207472616e7366657220746f206e6f6e20455243373231526560408201527131b2b4bb32b91034b6b83632b6b2b73a32b960711b60608201520190565b9293919290803b156111b9576110f89460018060a01b039460405192839187630a85bd0160e11b9687855233600486015216602484015260448301526080606483015281806020998a956084830190610b18565b03916000988991165af1849181611179575b50611168575050503d600014611160573d61112481610c12565b906111326040519283610bf0565b81528091833d92013e5b8051918261115d5760405162461bcd60e51b815280610dcb60048201611051565b01fd5b50606061113c565b6001600160e01b0319161492509050565b9091508581813d83116111b2575b6111918183610bf0565b810103126102c357516001600160e01b0319811681036102c357903861110a565b503d611187565b505091505060019056fea2646970667358221220147bb9b451e362138498469ae1ff3048f2f2129e928cf9897d25b235ce4aaa6164736f6c63430008170033","opcodes":"PUSH1 0x80 PUSH1 0x40 MSTORE CALLVALUE PUSH3 0x5B4 JUMPI PUSH3 0x1861 DUP1 CODESIZE SUB DUP1 PUSH3 0x1D DUP2 PUSH3 0x5B9 JUMP JUMPDEST SWAP3 DUP4 CODECOPY DUP2 ADD SWAP1 PUSH1 0x40 DUP2 DUP4 SUB SLT PUSH3 0x5B4 JUMPI DUP1 MLOAD PUSH1 0x1 PUSH1 0x1 PUSH1 0x40 SHL SUB SWAP1 DUP2 DUP2 GT PUSH3 0x5B4 JUMPI DUP4 PUSH3 0x4F SWAP2 DUP5 ADD PUSH3 0x5F5 JUMP JUMPDEST SWAP2 PUSH1 0x20 SWAP4 DUP5 DUP3 ADD MLOAD DUP4 DUP2 GT PUSH3 0x5B4 JUMPI PUSH3 0x6B SWAP3 ADD PUSH3 0x5F5 JUMP JUMPDEST PUSH1 0x0 DUP1 SLOAD CALLER PUSH1 0x1 PUSH1 0x1 PUSH1 0xA0 SHL SUB NOT DUP3 AND DUP2 OR DUP4 SSTORE SWAP2 SWAP6 SWAP3 SWAP2 SWAP1 PUSH1 0x1 PUSH1 0x1 PUSH1 0xA0 SHL SUB AND PUSH32 0x8BE0079C531659141344CD1FD0A4F28419497F9722A3DAAFE3B4186F6B6457E0 DUP8 DUP1 LOG3 DUP4 MLOAD SWAP2 DUP4 DUP4 GT PUSH3 0x30E JUMPI PUSH1 0x1 SWAP5 DUP6 SLOAD SWAP4 DUP7 DUP6 DUP2 SHR SWAP6 AND DUP1 ISZERO PUSH3 0x5A9 JUMPI JUMPDEST DUP4 DUP7 LT EQ PUSH3 0x595 JUMPI PUSH1 0x1F SWAP5 DUP6 DUP2 GT PUSH3 0x54D JUMPI JUMPDEST POP DUP1 DUP4 DUP7 DUP3 GT PUSH1 0x1 EQ PUSH3 0x4EB JUMPI DUP10 SWAP2 PUSH3 0x4DF JUMPI JUMPDEST POP PUSH1 0x0 NOT PUSH1 0x3 DUP4 SWAP1 SHL SHR NOT AND SWAP1 DUP8 SHL OR DUP7 SSTORE JUMPDEST DUP3 MLOAD DUP6 DUP2 GT PUSH3 0x407 JUMPI PUSH1 0x2 SLOAD DUP8 DUP2 DUP2 SHR SWAP2 AND DUP1 ISZERO PUSH3 0x4D4 JUMPI JUMPDEST DUP5 DUP3 LT EQ PUSH3 0x3E8 JUMPI DUP6 DUP2 GT PUSH3 0x48B JUMPI JUMPDEST POP DUP1 DUP4 DUP7 DUP3 GT PUSH1 0x1 EQ PUSH3 0x427 JUMPI DUP10 SWAP2 PUSH3 0x41B JUMPI JUMPDEST POP PUSH1 0x0 NOT PUSH1 0x3 DUP4 SWAP1 SHL SHR NOT AND SWAP1 DUP8 SHL OR PUSH1 0x2 SSTORE JUMPDEST DUP1 MLOAD SWAP1 DUP6 DUP3 GT PUSH3 0x407 JUMPI PUSH1 0x7 SLOAD DUP8 DUP2 DUP2 SHR SWAP2 AND DUP1 ISZERO PUSH3 0x3FC JUMPI JUMPDEST DUP5 DUP3 LT EQ PUSH3 0x3E8 JUMPI SWAP1 DUP2 DUP7 DUP5 SWAP4 GT PUSH3 0x394 JUMPI JUMPDEST POP DUP4 SWAP1 DUP7 DUP4 GT PUSH1 0x1 EQ PUSH3 0x32E JUMPI DUP10 SWAP3 PUSH3 0x322 JUMPI JUMPDEST POP POP PUSH1 0x0 NOT PUSH1 0x3 DUP4 SWAP1 SHL SHR NOT AND SWAP1 DUP7 SHL OR PUSH1 0x7 SSTORE JUMPDEST DUP2 MLOAD SWAP4 DUP5 GT PUSH3 0x30E JUMPI PUSH1 0x8 SLOAD DUP6 DUP2 DUP2 SHR SWAP2 AND DUP1 ISZERO PUSH3 0x303 JUMPI JUMPDEST DUP3 DUP3 LT EQ PUSH3 0x2EF JUMPI DUP4 DUP2 GT PUSH3 0x2A6 JUMPI JUMPDEST POP DUP1 SWAP3 DUP5 GT PUSH1 0x1 EQ PUSH3 0x23C JUMPI POP SWAP3 DUP3 SWAP4 SWAP2 DUP4 SWAP3 DUP7 SWAP5 PUSH3 0x230 JUMPI JUMPDEST POP POP SHL SWAP2 PUSH1 0x0 NOT SWAP1 PUSH1 0x3 SHL SHR NOT AND OR PUSH1 0x8 SSTORE JUMPDEST PUSH1 0xA SSTORE PUSH1 0x40 MLOAD PUSH2 0x11F9 SWAP1 DUP2 PUSH3 0x668 DUP3 CODECOPY RETURN JUMPDEST ADD MLOAD SWAP3 POP CODESIZE DUP1 PUSH3 0x20A JUMP JUMPDEST SWAP2 SWAP1 DUP4 PUSH1 0x1F NOT DUP2 AND PUSH1 0x8 DUP9 MSTORE DUP5 DUP9 KECCAK256 SWAP5 DUP9 SWAP1 JUMPDEST DUP9 DUP4 DUP4 LT PUSH3 0x28B JUMPI POP POP POP LT PUSH3 0x271 JUMPI JUMPDEST POP POP POP DUP2 SHL ADD PUSH1 0x8 SSTORE PUSH3 0x21D JUMP JUMPDEST ADD MLOAD PUSH1 0x0 NOT PUSH1 0xF8 DUP5 PUSH1 0x3 SHL AND SHR NOT AND SWAP1 SSTORE CODESIZE DUP1 DUP1 PUSH3 0x262 JUMP JUMPDEST DUP6 DUP8 ADD MLOAD DUP9 SSTORE SWAP1 SWAP7 ADD SWAP6 SWAP5 DUP6 ADD SWAP5 DUP8 SWAP4 POP SWAP1 DUP2 ADD SWAP1 PUSH3 0x24F JUMP JUMPDEST PUSH1 0x8 DUP8 MSTORE DUP2 DUP8 KECCAK256 DUP5 DUP1 DUP8 ADD PUSH1 0x5 SHR DUP3 ADD SWAP3 DUP5 DUP9 LT PUSH3 0x2E5 JUMPI JUMPDEST ADD PUSH1 0x5 SHR ADD SWAP1 DUP7 SWAP1 JUMPDEST DUP3 DUP2 LT PUSH3 0x2D9 JUMPI POP POP PUSH3 0x1EE JUMP JUMPDEST DUP9 DUP2 SSTORE ADD DUP7 SWAP1 PUSH3 0x2C9 JUMP JUMPDEST SWAP3 POP DUP2 SWAP3 PUSH3 0x2C0 JUMP JUMPDEST PUSH4 0x4E487B71 PUSH1 0xE0 SHL DUP8 MSTORE PUSH1 0x22 PUSH1 0x4 MSTORE PUSH1 0x24 DUP8 REVERT JUMPDEST SWAP1 PUSH1 0x7F AND SWAP1 PUSH3 0x1DC JUMP JUMPDEST PUSH4 0x4E487B71 PUSH1 0xE0 SHL DUP7 MSTORE PUSH1 0x41 PUSH1 0x4 MSTORE PUSH1 0x24 DUP7 REVERT JUMPDEST ADD MLOAD SWAP1 POP CODESIZE DUP1 PUSH3 0x1AC JUMP JUMPDEST PUSH1 0x7 DUP11 MSTORE DUP5 DUP11 KECCAK256 DUP10 SWAP5 POP SWAP2 SWAP1 PUSH1 0x1F NOT DUP5 AND DUP12 JUMPDEST DUP8 DUP3 DUP3 LT PUSH3 0x37D JUMPI POP POP DUP5 GT PUSH3 0x363 JUMPI JUMPDEST POP POP POP DUP2 SHL ADD PUSH1 0x7 SSTORE PUSH3 0x1C1 JUMP JUMPDEST ADD MLOAD PUSH1 0x0 NOT PUSH1 0xF8 DUP5 PUSH1 0x3 SHL AND SHR NOT AND SWAP1 SSTORE CODESIZE DUP1 DUP1 PUSH3 0x354 JUMP JUMPDEST DUP4 DUP6 ADD MLOAD DUP7 SSTORE DUP13 SWAP8 SWAP1 SWAP6 ADD SWAP5 SWAP4 DUP5 ADD SWAP4 ADD PUSH3 0x341 JUMP JUMPDEST SWAP1 SWAP2 POP PUSH1 0x7 DUP10 MSTORE DUP4 DUP10 KECCAK256 DUP7 DUP1 DUP6 ADD PUSH1 0x5 SHR DUP3 ADD SWAP3 DUP7 DUP7 LT PUSH3 0x3DE JUMPI JUMPDEST SWAP2 DUP11 SWAP2 DUP7 SWAP6 SWAP5 SWAP4 ADD PUSH1 0x5 SHR ADD SWAP2 JUMPDEST DUP3 DUP2 LT PUSH3 0x3CF JUMPI POP POP PUSH3 0x196 JUMP JUMPDEST DUP12 DUP2 SSTORE DUP6 SWAP5 POP DUP11 SWAP2 ADD PUSH3 0x3BF JUMP JUMPDEST SWAP3 POP DUP2 SWAP3 PUSH3 0x3B1 JUMP JUMPDEST PUSH4 0x4E487B71 PUSH1 0xE0 SHL DUP10 MSTORE PUSH1 0x22 PUSH1 0x4 MSTORE PUSH1 0x24 DUP10 REVERT JUMPDEST SWAP1 PUSH1 0x7F AND SWAP1 PUSH3 0x181 JUMP JUMPDEST PUSH4 0x4E487B71 PUSH1 0xE0 SHL DUP9 MSTORE PUSH1 0x41 PUSH1 0x4 MSTORE PUSH1 0x24 DUP9 REVERT JUMPDEST SWAP1 POP DUP5 ADD MLOAD CODESIZE PUSH3 0x151 JUMP JUMPDEST PUSH1 0x2 DUP11 MSTORE DUP5 DUP11 KECCAK256 DUP10 SWAP4 POP SWAP1 PUSH1 0x1F NOT DUP4 AND DUP12 JUMPDEST DUP8 DUP3 DUP3 LT PUSH3 0x474 JUMPI POP POP DUP4 GT PUSH3 0x45A JUMPI JUMPDEST POP POP DUP2 SHL ADD PUSH1 0x2 SSTORE PUSH3 0x165 JUMP JUMPDEST DUP7 ADD MLOAD PUSH1 0x0 NOT PUSH1 0xF8 DUP5 PUSH1 0x3 SHL AND SHR NOT AND SWAP1 SSTORE CODESIZE DUP1 PUSH3 0x44C JUMP JUMPDEST DUP4 DUP11 ADD MLOAD DUP6 SSTORE DUP13 SWAP7 SWAP1 SWAP5 ADD SWAP4 SWAP3 DUP4 ADD SWAP3 ADD PUSH3 0x439 JUMP JUMPDEST PUSH1 0x2 DUP10 MSTORE DUP4 DUP10 KECCAK256 DUP7 DUP1 DUP5 ADD PUSH1 0x5 SHR DUP3 ADD SWAP3 DUP7 DUP6 LT PUSH3 0x4CA JUMPI JUMPDEST ADD PUSH1 0x5 SHR ADD SWAP1 DUP9 SWAP1 JUMPDEST DUP3 DUP2 LT PUSH3 0x4BE JUMPI POP POP PUSH3 0x13B JUMP JUMPDEST DUP11 DUP2 SSTORE ADD DUP9 SWAP1 PUSH3 0x4AE JUMP JUMPDEST SWAP3 POP DUP2 SWAP3 PUSH3 0x4A5 JUMP JUMPDEST SWAP1 PUSH1 0x7F AND SWAP1 PUSH3 0x129 JUMP JUMPDEST SWAP1 POP DUP3 ADD MLOAD CODESIZE PUSH3 0xFB JUMP JUMPDEST DUP9 DUP11 MSTORE DUP5 DUP11 KECCAK256 DUP10 SWAP4 POP SWAP1 PUSH1 0x1F NOT DUP4 AND DUP12 JUMPDEST DUP8 DUP3 DUP3 LT PUSH3 0x536 JUMPI POP POP DUP4 GT PUSH3 0x51C JUMPI JUMPDEST POP POP DUP2 SHL ADD DUP7 SSTORE PUSH3 0x10E JUMP JUMPDEST DUP5 ADD MLOAD PUSH1 0x0 NOT PUSH1 0xF8 DUP5 PUSH1 0x3 SHL AND SHR NOT AND SWAP1 SSTORE CODESIZE DUP1 PUSH3 0x50F JUMP JUMPDEST DUP4 DUP9 ADD MLOAD DUP6 SSTORE DUP13 SWAP7 SWAP1 SWAP5 ADD SWAP4 SWAP3 DUP4 ADD SWAP3 ADD PUSH3 0x4FC JUMP JUMPDEST DUP8 DUP10 MSTORE DUP4 DUP10 KECCAK256 DUP7 DUP1 DUP5 ADD PUSH1 0x5 SHR DUP3 ADD SWAP3 DUP7 DUP6 LT PUSH3 0x58B JUMPI JUMPDEST ADD PUSH1 0x5 SHR ADD SWAP1 DUP9 SWAP1 JUMPDEST DUP3 DUP2 LT PUSH3 0x57F JUMPI POP POP PUSH3 0xE5 JUMP JUMPDEST DUP11 DUP2 SSTORE ADD DUP9 SWAP1 PUSH3 0x56F JUMP JUMPDEST SWAP3 POP DUP2 SWAP3 PUSH3 0x566 JUMP JUMPDEST PUSH4 0x4E487B71 PUSH1 0xE0 SHL DUP9 MSTORE PUSH1 0x22 PUSH1 0x4 MSTORE PUSH1 0x24 DUP9 REVERT JUMPDEST SWAP5 PUSH1 0x7F AND SWAP5 PUSH3 0xD0 JUMP JUMPDEST PUSH1 0x0 DUP1 REVERT JUMPDEST PUSH1 0x40 MLOAD SWAP2 SWAP1 PUSH1 0x1F ADD PUSH1 0x1F NOT AND DUP3 ADD PUSH1 0x1 PUSH1 0x1 PUSH1 0x40 SHL SUB DUP2 GT DUP4 DUP3 LT OR PUSH3 0x5DF JUMPI PUSH1 0x40 MSTORE JUMP JUMPDEST PUSH4 0x4E487B71 PUSH1 0xE0 SHL PUSH1 0x0 MSTORE PUSH1 0x41 PUSH1 0x4 MSTORE PUSH1 0x24 PUSH1 0x0 REVERT JUMPDEST SWAP2 SWAP1 DUP1 PUSH1 0x1F DUP5 ADD SLT ISZERO PUSH3 0x5B4 JUMPI DUP3 MLOAD PUSH1 0x1 PUSH1 0x1 PUSH1 0x40 SHL SUB DUP2 GT PUSH3 0x5DF JUMPI PUSH1 0x20 SWAP1 PUSH3 0x62B PUSH1 0x1F DUP3 ADD PUSH1 0x1F NOT AND DUP4 ADD PUSH3 0x5B9 JUMP JUMPDEST SWAP3 DUP2 DUP5 MSTORE DUP3 DUP3 DUP8 ADD ADD GT PUSH3 0x5B4 JUMPI PUSH1 0x0 JUMPDEST DUP2 DUP2 LT PUSH3 0x653 JUMPI POP DUP3 PUSH1 0x0 SWAP4 SWAP5 SWAP6 POP ADD ADD MSTORE SWAP1 JUMP JUMPDEST DUP6 DUP2 ADD DUP4 ADD MLOAD DUP5 DUP3 ADD DUP5 ADD MSTORE DUP3 ADD PUSH3 0x63D JUMP INVALID PUSH1 0x80 PUSH1 0x40 DUP2 DUP2 MSTORE PUSH1 0x4 DUP1 CALLDATASIZE LT ISZERO PUSH2 0x15 JUMPI PUSH1 0x0 DUP1 REVERT JUMPDEST PUSH1 0x0 SWAP3 DUP4 CALLDATALOAD PUSH1 0xE0 SHR SWAP1 DUP2 PUSH4 0x1FFC9A7 EQ PUSH2 0xAAC JUMPI POP DUP1 PUSH4 0x6FDDE03 EQ PUSH2 0x9DC JUMPI DUP1 PUSH4 0x81812FC EQ PUSH2 0x9BC JUMPI DUP1 PUSH4 0x95EA7B3 EQ PUSH2 0x84C JUMPI DUP1 PUSH4 0x23B872DD EQ PUSH2 0x822 JUMPI DUP1 PUSH4 0x42842E0E EQ PUSH2 0x7F9 JUMPI DUP1 PUSH4 0x6352211E EQ PUSH2 0x7C8 JUMPI DUP1 PUSH4 0x70A08231 EQ PUSH2 0x737 JUMPI DUP1 PUSH4 0x715018A6 EQ PUSH2 0x6DD JUMPI DUP1 PUSH4 0x8DA5CB5B EQ PUSH2 0x6B5 JUMPI DUP1 PUSH4 0x95D89B41 EQ PUSH2 0x599 JUMPI DUP1 PUSH4 0xA22CB465 EQ PUSH2 0x4CE JUMPI DUP1 PUSH4 0xB510391F EQ PUSH2 0x374 JUMPI DUP1 PUSH4 0xB69952E7 EQ PUSH2 0x2C7 JUMPI DUP1 PUSH4 0xB88D4FDE EQ PUSH2 0x270 JUMPI DUP1 PUSH4 0xC87B56DD EQ PUSH2 0x200 JUMPI DUP1 PUSH4 0xE985E9C5 EQ PUSH2 0x1AE JUMPI PUSH4 0xF2FDE38B EQ PUSH2 0xE9 JUMPI PUSH1 0x0 DUP1 REVERT JUMPDEST CALLVALUE PUSH2 0x1AA JUMPI PUSH1 0x20 CALLDATASIZE PUSH1 0x3 NOT ADD SLT PUSH2 0x1AA JUMPI PUSH2 0x102 PUSH2 0xB58 JUMP JUMPDEST SWAP1 PUSH2 0x10B PUSH2 0xFAD JUMP JUMPDEST PUSH1 0x1 PUSH1 0x1 PUSH1 0xA0 SHL SUB SWAP2 DUP3 AND SWAP3 DUP4 ISZERO PUSH2 0x158 JUMPI POP POP DUP3 SLOAD PUSH1 0x1 PUSH1 0x1 PUSH1 0xA0 SHL SUB NOT DUP2 AND DUP4 OR DUP5 SSTORE AND PUSH32 0x8BE0079C531659141344CD1FD0A4F28419497F9722A3DAAFE3B4186F6B6457E0 DUP4 DUP1 LOG3 DUP1 RETURN JUMPDEST SWAP1 PUSH1 0x20 PUSH1 0x84 SWAP3 MLOAD SWAP2 PUSH3 0x461BCD PUSH1 0xE5 SHL DUP4 MSTORE DUP3 ADD MSTORE PUSH1 0x26 PUSH1 0x24 DUP3 ADD MSTORE PUSH32 0x4F776E61626C653A206E6577206F776E657220697320746865207A65726F2061 PUSH1 0x44 DUP3 ADD MSTORE PUSH6 0x646472657373 PUSH1 0xD0 SHL PUSH1 0x64 DUP3 ADD MSTORE REVERT JUMPDEST DUP3 DUP1 REVERT JUMPDEST POP POP CALLVALUE PUSH2 0x1FC JUMPI DUP1 PUSH1 0x3 NOT CALLDATASIZE ADD SLT PUSH2 0x1FC JUMPI PUSH1 0xFF DUP2 PUSH1 0x20 SWAP4 PUSH2 0x1CE PUSH2 0xB58 JUMP JUMPDEST PUSH2 0x1D6 PUSH2 0xB73 JUMP JUMPDEST PUSH1 0x1 PUSH1 0x1 PUSH1 0xA0 SHL SUB SWAP2 DUP3 AND DUP4 MSTORE PUSH1 0x6 DUP8 MSTORE DUP4 DUP4 KECCAK256 SWAP2 AND DUP3 MSTORE DUP6 MSTORE KECCAK256 SLOAD SWAP2 MLOAD SWAP2 AND ISZERO ISZERO DUP2 MSTORE RETURN JUMPDEST POP DUP1 REVERT JUMPDEST POP SWAP2 SWAP1 CALLVALUE PUSH2 0x1FC JUMPI PUSH1 0x20 CALLDATASIZE PUSH1 0x3 NOT ADD SLT PUSH2 0x1FC JUMPI PUSH2 0x23F PUSH2 0x23A PUSH2 0x26C SWAP5 CALLDATALOAD PUSH1 0x0 MSTORE PUSH1 0x3 PUSH1 0x20 MSTORE PUSH1 0x1 DUP1 PUSH1 0xA0 SHL SUB PUSH1 0x40 PUSH1 0x0 KECCAK256 SLOAD AND ISZERO ISZERO SWAP1 JUMP JUMPDEST PUSH2 0xD15 JUMP JUMPDEST DUP2 DUP2 MLOAD PUSH2 0x24B DUP2 PUSH2 0xBBE JUMP JUMPDEST MSTORE DUP1 MLOAD SWAP2 PUSH2 0x258 DUP4 PUSH2 0xBBE JUMP JUMPDEST DUP3 MSTORE MLOAD SWAP2 DUP3 SWAP2 PUSH1 0x20 DUP4 MSTORE PUSH1 0x20 DUP4 ADD SWAP1 PUSH2 0xB18 JUMP JUMPDEST SUB SWAP1 RETURN JUMPDEST DUP4 DUP3 CALLVALUE PUSH2 0x1FC JUMPI PUSH1 0x80 CALLDATASIZE PUSH1 0x3 NOT ADD SLT PUSH2 0x1FC JUMPI PUSH2 0x28B PUSH2 0xB58 JUMP JUMPDEST PUSH2 0x293 PUSH2 0xB73 JUMP JUMPDEST SWAP1 PUSH1 0x64 CALLDATALOAD PUSH8 0xFFFFFFFFFFFFFFFF DUP2 GT PUSH2 0x2C3 JUMPI PUSH2 0x2C0 SWAP4 PUSH2 0x2B6 SWAP2 CALLDATASIZE SWAP2 ADD PUSH2 0xC2E JUMP JUMPDEST SWAP2 PUSH1 0x44 CALLDATALOAD SWAP2 PUSH2 0xD87 JUMP JUMPDEST DUP1 RETURN JUMPDEST DUP5 DUP1 REVERT JUMPDEST POP CALLVALUE PUSH2 0x1AA JUMPI PUSH1 0x60 CALLDATASIZE PUSH1 0x3 NOT ADD SLT PUSH2 0x1AA JUMPI PUSH2 0x2E1 PUSH2 0xB58 JUMP JUMPDEST DUP3 PUSH1 0x23 NOT CALLDATASIZE ADD SLT PUSH2 0x370 JUMPI PUSH2 0x2F4 PUSH2 0xFAD JUMP JUMPDEST PUSH1 0x1 PUSH1 0x1 PUSH1 0xA0 SHL SUB AND ISZERO PUSH2 0x31F JUMPI POP PUSH1 0xA SLOAD DUP3 MSTORE PUSH1 0x9 PUSH1 0x20 MSTORE DUP2 KECCAK256 PUSH1 0x24 CALLDATALOAD DUP2 SSTORE PUSH1 0x1 PUSH1 0x44 CALLDATALOAD SWAP2 ADD SSTORE DUP1 RETURN JUMPDEST PUSH1 0x20 PUSH1 0x84 SWAP3 MLOAD SWAP2 PUSH3 0x461BCD PUSH1 0xE5 SHL DUP4 MSTORE DUP3 ADD MSTORE PUSH1 0x26 PUSH1 0x24 DUP3 ADD MSTORE PUSH32 0x53504720616464726573732063616E6E6F7420626520746865207A65726F2061 PUSH1 0x44 DUP3 ADD MSTORE PUSH6 0x646472657373 PUSH1 0xD0 SHL PUSH1 0x64 DUP3 ADD MSTORE REVERT JUMPDEST DUP4 DUP1 REVERT JUMPDEST POP DUP3 SWAP1 CALLVALUE PUSH2 0x1FC JUMPI DUP3 PUSH1 0x3 NOT CALLDATASIZE ADD SLT PUSH2 0x1FC JUMPI PUSH2 0x38F PUSH2 0xB58 JUMP JUMPDEST SWAP1 PUSH1 0x24 CALLDATALOAD PUSH8 0xFFFFFFFFFFFFFFFF DUP2 GT PUSH2 0x370 JUMPI PUSH2 0x3AF SWAP1 CALLDATASIZE SWAP1 DUP4 ADD PUSH2 0xC2E JUMP JUMPDEST POP PUSH1 0xA SLOAD SWAP2 PUSH1 0x1 DUP4 ADD DUP1 SWAP4 GT PUSH2 0x4BB JUMPI PUSH1 0xA DUP4 SWAP1 SSTORE PUSH1 0x1 PUSH1 0x1 PUSH1 0xA0 SHL SUB AND SWAP1 DUP2 ISZERO PUSH2 0x478 JUMPI SWAP1 PUSH1 0x20 SWAP5 DUP4 SWAP3 PUSH2 0x402 PUSH2 0x3FC DUP6 PUSH1 0x0 MSTORE PUSH1 0x3 PUSH1 0x20 MSTORE PUSH1 0x1 DUP1 PUSH1 0xA0 SHL SUB PUSH1 0x40 PUSH1 0x0 KECCAK256 SLOAD AND ISZERO ISZERO SWAP1 JUMP JUMPDEST ISZERO PUSH2 0x1005 JUMP JUMPDEST PUSH1 0x0 DUP5 DUP2 MSTORE PUSH1 0x3 PUSH1 0x20 MSTORE PUSH1 0x40 SWAP1 KECCAK256 SLOAD PUSH2 0x425 SWAP1 PUSH1 0x1 PUSH1 0x1 PUSH1 0xA0 SHL SUB AND ISZERO ISZERO PUSH2 0x3FC JUMP JUMPDEST DUP3 DUP7 MSTORE DUP7 MSTORE DUP1 DUP6 KECCAK256 DUP1 SLOAD PUSH1 0x1 ADD SWAP1 SSTORE DUP3 DUP6 MSTORE PUSH1 0x3 DUP7 MSTORE DUP1 DUP6 KECCAK256 DUP1 SLOAD PUSH1 0x1 PUSH1 0x1 PUSH1 0xA0 SHL SUB NOT AND DUP4 OR SWAP1 SSTORE MLOAD SWAP4 PUSH32 0xDDF252AD1BE2C89B69C2B068FC378DAA952BA7F163C4A11628F55A4DF523B3EF DUP2 DUP1 LOG4 DUP2 MSTORE RETURN JUMPDEST PUSH1 0x64 SWAP1 PUSH1 0x20 DUP7 MLOAD SWAP2 PUSH3 0x461BCD PUSH1 0xE5 SHL DUP4 MSTORE DUP3 ADD MSTORE PUSH1 0x20 PUSH1 0x24 DUP3 ADD MSTORE PUSH32 0x4552433732313A206D696E7420746F20746865207A65726F2061646472657373 PUSH1 0x44 DUP3 ADD MSTORE REVERT JUMPDEST PUSH4 0x4E487B71 PUSH1 0xE0 SHL DUP5 MSTORE PUSH1 0x11 DUP3 MSTORE PUSH1 0x24 DUP5 REVERT JUMPDEST POP SWAP1 CALLVALUE PUSH2 0x1AA JUMPI DUP1 PUSH1 0x3 NOT CALLDATASIZE ADD SLT PUSH2 0x1AA JUMPI PUSH2 0x4E8 PUSH2 0xB58 JUMP JUMPDEST SWAP1 PUSH1 0x24 CALLDATALOAD SWAP2 DUP3 ISZERO ISZERO DUP1 SWAP4 SUB PUSH2 0x2C3 JUMPI PUSH1 0x1 PUSH1 0x1 PUSH1 0xA0 SHL SUB AND SWAP3 CALLER DUP5 EQ PUSH2 0x557 JUMPI POP CALLER DUP5 MSTORE PUSH1 0x6 PUSH1 0x20 MSTORE DUP1 DUP5 KECCAK256 DUP4 DUP6 MSTORE PUSH1 0x20 MSTORE DUP1 DUP5 KECCAK256 PUSH1 0xFF NOT DUP2 SLOAD AND PUSH1 0xFF DUP5 AND OR SWAP1 SSTORE MLOAD SWAP1 DUP2 MSTORE PUSH32 0x17307EAB39AB6107E8899845AD3D59BD9653F200F220920489CA2B5937696C31 PUSH1 0x20 CALLER SWAP3 LOG3 DUP1 RETURN JUMPDEST PUSH1 0x20 PUSH1 0x64 SWAP3 MLOAD SWAP2 PUSH3 0x461BCD PUSH1 0xE5 SHL DUP4 MSTORE DUP3 ADD MSTORE PUSH1 0x19 PUSH1 0x24 DUP3 ADD MSTORE PUSH32 0x4552433732313A20617070726F766520746F2063616C6C657200000000000000 PUSH1 0x44 DUP3 ADD MSTORE REVERT JUMPDEST POP SWAP2 CALLVALUE PUSH2 0x6B2 JUMPI DUP1 PUSH1 0x3 NOT CALLDATASIZE ADD SLT PUSH2 0x6B2 JUMPI DUP2 MLOAD SWAP2 DUP2 PUSH1 0x2 SLOAD SWAP3 PUSH1 0x1 DUP5 PUSH1 0x1 SHR SWAP2 PUSH1 0x1 DUP7 AND SWAP6 DUP7 ISZERO PUSH2 0x6A8 JUMPI JUMPDEST PUSH1 0x20 SWAP7 DUP8 DUP6 LT DUP2 EQ PUSH2 0x695 JUMPI DUP9 SWAP10 POP SWAP7 DUP9 SWAP7 SWAP8 DUP6 DUP3 SWAP11 MSTORE SWAP2 DUP3 PUSH1 0x0 EQ PUSH2 0x66E JUMPI POP POP PUSH1 0x1 EQ PUSH2 0x612 JUMPI JUMPDEST POP POP POP PUSH2 0x26C SWAP3 SWAP2 PUSH2 0x603 SWAP2 SUB DUP6 PUSH2 0xBF0 JUMP JUMPDEST MLOAD SWAP3 DUP3 DUP5 SWAP4 DUP5 MSTORE DUP4 ADD SWAP1 PUSH2 0xB18 JUMP JUMPDEST SWAP2 SWAP1 DUP7 SWAP4 POP PUSH1 0x2 DUP4 MSTORE PUSH32 0x405787FA12A823E0F2B7631CC41B3BA8828B3321CA811111FA75CD3AA3BB5ACE JUMPDEST DUP3 DUP5 LT PUSH2 0x656 JUMPI POP POP POP DUP3 ADD ADD DUP2 PUSH2 0x603 PUSH2 0x26C PUSH2 0x5F0 JUMP JUMPDEST DUP1 SLOAD DUP5 DUP11 ADD DUP7 ADD MSTORE DUP9 SWAP6 POP DUP8 SWAP5 SWAP1 SWAP4 ADD SWAP3 DUP2 ADD PUSH2 0x63D JUMP JUMPDEST PUSH1 0xFF NOT AND DUP8 DUP3 ADD MSTORE SWAP4 ISZERO ISZERO PUSH1 0x5 SHL DUP7 ADD SWAP1 SWAP4 ADD SWAP4 POP DUP5 SWAP3 POP PUSH2 0x603 SWAP2 POP PUSH2 0x26C SWAP1 POP PUSH2 0x5F0 JUMP JUMPDEST PUSH4 0x4E487B71 PUSH1 0xE0 SHL DUP4 MSTORE PUSH1 0x22 DUP11 MSTORE PUSH1 0x24 DUP4 REVERT JUMPDEST SWAP3 PUSH1 0x7F AND SWAP3 PUSH2 0x5C6 JUMP JUMPDEST DUP1 REVERT JUMPDEST POP POP CALLVALUE PUSH2 0x1FC JUMPI DUP2 PUSH1 0x3 NOT CALLDATASIZE ADD SLT PUSH2 0x1FC JUMPI SWAP1 SLOAD SWAP1 MLOAD PUSH1 0x1 PUSH1 0x1 PUSH1 0xA0 SHL SUB SWAP1 SWAP2 AND DUP2 MSTORE PUSH1 0x20 SWAP1 RETURN JUMPDEST DUP4 CALLVALUE PUSH2 0x6B2 JUMPI DUP1 PUSH1 0x3 NOT CALLDATASIZE ADD SLT PUSH2 0x6B2 JUMPI PUSH2 0x6F6 PUSH2 0xFAD JUMP JUMPDEST DUP1 SLOAD PUSH1 0x1 PUSH1 0x1 PUSH1 0xA0 SHL SUB NOT DUP2 AND DUP3 SSTORE DUP2 SWAP1 PUSH1 0x1 PUSH1 0x1 PUSH1 0xA0 SHL SUB AND PUSH32 0x8BE0079C531659141344CD1FD0A4F28419497F9722A3DAAFE3B4186F6B6457E0 DUP3 DUP1 LOG3 DUP1 RETURN JUMPDEST POP SWAP2 CALLVALUE PUSH2 0x6B2 JUMPI PUSH1 0x20 CALLDATASIZE PUSH1 0x3 NOT ADD SLT PUSH2 0x6B2 JUMPI PUSH1 0x1 PUSH1 0x1 PUSH1 0xA0 SHL SUB PUSH2 0x75A PUSH2 0xB58 JUMP JUMPDEST AND DUP1 ISZERO PUSH2 0x773 JUMPI DUP2 MSTORE PUSH1 0x20 SWAP3 DUP4 MSTORE DUP2 SWAP1 KECCAK256 SLOAD SWAP1 MLOAD SWAP1 DUP2 MSTORE RETURN JUMPDEST DUP3 MLOAD PUSH3 0x461BCD PUSH1 0xE5 SHL DUP2 MSTORE PUSH1 0x20 DUP2 DUP7 ADD MSTORE PUSH1 0x29 PUSH1 0x24 DUP3 ADD MSTORE PUSH32 0x4552433732313A2061646472657373207A65726F206973206E6F742061207661 PUSH1 0x44 DUP3 ADD MSTORE PUSH9 0x3634B21037BBB732B9 PUSH1 0xB9 SHL PUSH1 0x64 DUP3 ADD MSTORE PUSH1 0x84 SWAP1 REVERT JUMPDEST POP SWAP2 CALLVALUE PUSH2 0x6B2 JUMPI PUSH1 0x20 CALLDATASIZE PUSH1 0x3 NOT ADD SLT PUSH2 0x6B2 JUMPI POP PUSH2 0x7E8 PUSH1 0x20 SWAP3 CALLDATALOAD PUSH2 0xD61 JUMP JUMPDEST SWAP1 MLOAD PUSH1 0x1 PUSH1 0x1 PUSH1 0xA0 SHL SUB SWAP1 SWAP2 AND DUP2 MSTORE RETURN JUMPDEST POP POP CALLVALUE PUSH2 0x1FC JUMPI PUSH2 0x2C0 SWAP1 PUSH2 0x80D CALLDATASIZE PUSH2 0xB89 JUMP JUMPDEST SWAP2 SWAP3 MLOAD SWAP3 PUSH2 0x81A DUP5 PUSH2 0xBBE JUMP JUMPDEST DUP6 DUP5 MSTORE PUSH2 0xD87 JUMP JUMPDEST DUP4 CALLVALUE PUSH2 0x6B2 JUMPI PUSH2 0x2C0 PUSH2 0x834 CALLDATASIZE PUSH2 0xB89 JUMP JUMPDEST SWAP2 PUSH2 0x847 PUSH2 0x842 DUP5 CALLER PUSH2 0xDCF JUMP JUMPDEST PUSH2 0xCB3 JUMP JUMPDEST PUSH2 0xE97 JUMP JUMPDEST POP CALLVALUE PUSH2 0x1AA JUMPI DUP2 PUSH1 0x3 NOT CALLDATASIZE ADD SLT PUSH2 0x1AA JUMPI PUSH2 0x865 PUSH2 0xB58 JUMP JUMPDEST PUSH1 0x24 CALLDATALOAD SWAP3 SWAP1 SWAP2 PUSH1 0x1 PUSH1 0x1 PUSH1 0xA0 SHL SUB SWAP2 SWAP1 DUP3 DUP1 PUSH2 0x880 DUP8 PUSH2 0xD61 JUMP JUMPDEST AND SWAP5 AND SWAP4 DUP1 DUP6 EQ PUSH2 0x96F JUMPI DUP1 CALLER EQ SWAP1 DUP2 ISZERO PUSH2 0x950 JUMPI JUMPDEST POP ISZERO PUSH2 0x8E8 JUMPI POP DUP4 DUP6 MSTORE PUSH1 0x5 PUSH1 0x20 MSTORE DUP5 KECCAK256 DUP1 SLOAD PUSH1 0x1 PUSH1 0x1 PUSH1 0xA0 SHL SUB NOT AND DUP4 OR SWAP1 SSTORE PUSH2 0x8C0 DUP4 PUSH2 0xD61 JUMP JUMPDEST AND PUSH32 0x8C5BE1E5EBEC7D5BD14F71427D1E84F3DD0314C0F7B2291E5B200AC8C7C3B925 DUP5 DUP1 LOG4 DUP1 RETURN JUMPDEST PUSH1 0x20 PUSH1 0x84 SWAP3 MLOAD SWAP2 PUSH3 0x461BCD PUSH1 0xE5 SHL DUP4 MSTORE DUP3 ADD MSTORE PUSH1 0x3D PUSH1 0x24 DUP3 ADD MSTORE PUSH32 0x4552433732313A20617070726F76652063616C6C6572206973206E6F7420746F PUSH1 0x44 DUP3 ADD MSTORE PUSH32 0x6B656E206F776E6572206F7220617070726F76656420666F7220616C6C000000 PUSH1 0x64 DUP3 ADD MSTORE REVERT JUMPDEST SWAP1 POP DUP7 MSTORE PUSH1 0x6 PUSH1 0x20 MSTORE DUP2 DUP7 KECCAK256 CALLER DUP8 MSTORE PUSH1 0x20 MSTORE PUSH1 0xFF DUP3 DUP8 KECCAK256 SLOAD AND CODESIZE PUSH2 0x896 JUMP JUMPDEST POP PUSH1 0x20 PUSH1 0x84 SWAP3 MLOAD SWAP2 PUSH3 0x461BCD PUSH1 0xE5 SHL DUP4 MSTORE DUP3 ADD MSTORE PUSH1 0x21 PUSH1 0x24 DUP3 ADD MSTORE PUSH32 0x4552433732313A20617070726F76616C20746F2063757272656E74206F776E65 PUSH1 0x44 DUP3 ADD MSTORE PUSH1 0x39 PUSH1 0xF9 SHL PUSH1 0x64 DUP3 ADD MSTORE REVERT JUMPDEST POP SWAP2 CALLVALUE PUSH2 0x6B2 JUMPI PUSH1 0x20 CALLDATASIZE PUSH1 0x3 NOT ADD SLT PUSH2 0x6B2 JUMPI POP PUSH2 0x7E8 PUSH1 0x20 SWAP3 CALLDATALOAD PUSH2 0xC75 JUMP JUMPDEST POP SWAP2 CALLVALUE PUSH2 0x6B2 JUMPI DUP1 PUSH1 0x3 NOT CALLDATASIZE ADD SLT PUSH2 0x6B2 JUMPI DUP2 MLOAD SWAP2 DUP2 PUSH1 0x1 SWAP3 PUSH1 0x1 SLOAD SWAP4 DUP5 PUSH1 0x1 SHR SWAP2 PUSH1 0x1 DUP7 AND SWAP6 DUP7 ISZERO PUSH2 0xAA2 JUMPI JUMPDEST PUSH1 0x20 SWAP7 DUP8 DUP6 LT DUP2 EQ PUSH2 0x695 JUMPI DUP9 SWAP10 POP SWAP7 DUP9 SWAP7 SWAP8 DUP6 DUP3 SWAP11 MSTORE SWAP2 DUP3 PUSH1 0x0 EQ PUSH2 0x66E JUMPI POP POP PUSH1 0x1 EQ PUSH2 0xA46 JUMPI POP POP POP PUSH2 0x26C SWAP3 SWAP2 PUSH2 0x603 SWAP2 SUB DUP6 PUSH2 0xBF0 JUMP JUMPDEST SWAP2 SWAP1 DUP7 SWAP4 POP PUSH1 0x1 DUP4 MSTORE PUSH32 0xB10E2D527612073B26EECDFD717E6A320CF44B4AFAC2B0732D9FCBE2B7FA0CF6 JUMPDEST DUP3 DUP5 LT PUSH2 0xA8A JUMPI POP POP POP DUP3 ADD ADD DUP2 PUSH2 0x603 PUSH2 0x26C PUSH2 0x5F0 JUMP JUMPDEST DUP1 SLOAD DUP5 DUP11 ADD DUP7 ADD MSTORE DUP9 SWAP6 POP DUP8 SWAP5 SWAP1 SWAP4 ADD SWAP3 DUP2 ADD PUSH2 0xA71 JUMP JUMPDEST SWAP3 PUSH1 0x7F AND SWAP3 PUSH2 0xA0A JUMP JUMPDEST SWAP3 POP POP CALLVALUE PUSH2 0x1AA JUMPI PUSH1 0x20 CALLDATASIZE PUSH1 0x3 NOT ADD SLT PUSH2 0x1AA JUMPI CALLDATALOAD PUSH4 0xFFFFFFFF PUSH1 0xE0 SHL DUP2 AND DUP1 SWAP2 SUB PUSH2 0x1AA JUMPI PUSH1 0x20 SWAP3 POP PUSH4 0x80AC58CD PUSH1 0xE0 SHL DUP2 EQ SWAP1 DUP2 ISZERO PUSH2 0xB07 JUMPI JUMPDEST DUP2 ISZERO PUSH2 0xAF6 JUMPI JUMPDEST POP ISZERO ISZERO DUP2 MSTORE RETURN JUMPDEST PUSH4 0x1FFC9A7 PUSH1 0xE0 SHL EQ SWAP1 POP CODESIZE PUSH2 0xAEF JUMP JUMPDEST PUSH4 0x5B5E139F PUSH1 0xE0 SHL DUP2 EQ SWAP2 POP PUSH2 0xAE8 JUMP JUMPDEST SWAP2 SWAP1 DUP3 MLOAD SWAP3 DUP4 DUP3 MSTORE PUSH1 0x0 JUMPDEST DUP5 DUP2 LT PUSH2 0xB44 JUMPI POP POP DUP3 PUSH1 0x0 PUSH1 0x20 DUP1 SWAP5 SWAP6 DUP5 ADD ADD MSTORE PUSH1 0x1F DUP1 NOT SWAP2 ADD AND ADD ADD SWAP1 JUMP JUMPDEST PUSH1 0x20 DUP2 DUP4 ADD DUP2 ADD MLOAD DUP5 DUP4 ADD DUP3 ADD MSTORE ADD PUSH2 0xB23 JUMP JUMPDEST PUSH1 0x4 CALLDATALOAD SWAP1 PUSH1 0x1 PUSH1 0x1 PUSH1 0xA0 SHL SUB DUP3 AND DUP3 SUB PUSH2 0xB6E JUMPI JUMP JUMPDEST PUSH1 0x0 DUP1 REVERT JUMPDEST PUSH1 0x24 CALLDATALOAD SWAP1 PUSH1 0x1 PUSH1 0x1 PUSH1 0xA0 SHL SUB DUP3 AND DUP3 SUB PUSH2 0xB6E JUMPI JUMP JUMPDEST PUSH1 0x60 SWAP1 PUSH1 0x3 NOT ADD SLT PUSH2 0xB6E JUMPI PUSH1 0x1 PUSH1 0x1 PUSH1 0xA0 SHL SUB SWAP1 PUSH1 0x4 CALLDATALOAD DUP3 DUP2 AND DUP2 SUB PUSH2 0xB6E JUMPI SWAP2 PUSH1 0x24 CALLDATALOAD SWAP1 DUP2 AND DUP2 SUB PUSH2 0xB6E JUMPI SWAP1 PUSH1 0x44 CALLDATALOAD SWAP1 JUMP JUMPDEST PUSH1 0x20 DUP2 ADD SWAP1 DUP2 LT PUSH8 0xFFFFFFFFFFFFFFFF DUP3 GT OR PUSH2 0xBDA JUMPI PUSH1 0x40 MSTORE JUMP JUMPDEST PUSH4 0x4E487B71 PUSH1 0xE0 SHL PUSH1 0x0 MSTORE PUSH1 0x41 PUSH1 0x4 MSTORE PUSH1 0x24 PUSH1 0x0 REVERT JUMPDEST SWAP1 PUSH1 0x1F DUP1 NOT SWAP2 ADD AND DUP2 ADD SWAP1 DUP2 LT PUSH8 0xFFFFFFFFFFFFFFFF DUP3 GT OR PUSH2 0xBDA JUMPI PUSH1 0x40 MSTORE JUMP JUMPDEST PUSH8 0xFFFFFFFFFFFFFFFF DUP2 GT PUSH2 0xBDA JUMPI PUSH1 0x1F ADD PUSH1 0x1F NOT AND PUSH1 0x20 ADD SWAP1 JUMP JUMPDEST DUP2 PUSH1 0x1F DUP3 ADD SLT ISZERO PUSH2 0xB6E JUMPI DUP1 CALLDATALOAD SWAP1 PUSH2 0xC45 DUP3 PUSH2 0xC12 JUMP JUMPDEST SWAP3 PUSH2 0xC53 PUSH1 0x40 MLOAD SWAP5 DUP6 PUSH2 0xBF0 JUMP JUMPDEST DUP3 DUP5 MSTORE PUSH1 0x20 DUP4 DUP4 ADD ADD GT PUSH2 0xB6E JUMPI DUP2 PUSH1 0x0 SWAP3 PUSH1 0x20 DUP1 SWAP4 ADD DUP4 DUP7 ADD CALLDATACOPY DUP4 ADD ADD MSTORE SWAP1 JUMP JUMPDEST PUSH1 0x0 DUP2 DUP2 MSTORE PUSH1 0x3 PUSH1 0x20 MSTORE PUSH1 0x40 SWAP1 KECCAK256 SLOAD PUSH2 0xC98 SWAP1 PUSH1 0x1 PUSH1 0x1 PUSH1 0xA0 SHL SUB AND ISZERO ISZERO PUSH2 0xD15 JUMP JUMPDEST PUSH1 0x0 SWAP1 DUP2 MSTORE PUSH1 0x5 PUSH1 0x20 MSTORE PUSH1 0x40 SWAP1 KECCAK256 SLOAD PUSH1 0x1 PUSH1 0x1 PUSH1 0xA0 SHL SUB AND SWAP1 JUMP JUMPDEST ISZERO PUSH2 0xCBA JUMPI JUMP JUMPDEST PUSH1 0x40 MLOAD PUSH3 0x461BCD PUSH1 0xE5 SHL DUP2 MSTORE PUSH1 0x20 PUSH1 0x4 DUP3 ADD MSTORE PUSH1 0x2D PUSH1 0x24 DUP3 ADD MSTORE PUSH32 0x4552433732313A2063616C6C6572206973206E6F7420746F6B656E206F776E65 PUSH1 0x44 DUP3 ADD MSTORE PUSH13 0x1C881BDC88185C1C1C9BDD9959 PUSH1 0x9A SHL PUSH1 0x64 DUP3 ADD MSTORE PUSH1 0x84 SWAP1 REVERT JUMPDEST ISZERO PUSH2 0xD1C JUMPI JUMP JUMPDEST PUSH1 0x40 MLOAD PUSH3 0x461BCD PUSH1 0xE5 SHL DUP2 MSTORE PUSH1 0x20 PUSH1 0x4 DUP3 ADD MSTORE PUSH1 0x18 PUSH1 0x24 DUP3 ADD MSTORE PUSH32 0x4552433732313A20696E76616C696420746F6B656E2049440000000000000000 PUSH1 0x44 DUP3 ADD MSTORE PUSH1 0x64 SWAP1 REVERT JUMPDEST PUSH1 0x0 SWAP1 DUP2 MSTORE PUSH1 0x3 PUSH1 0x20 MSTORE PUSH1 0x40 SWAP1 KECCAK256 SLOAD PUSH1 0x1 PUSH1 0x1 PUSH1 0xA0 SHL SUB AND PUSH2 0xD84 DUP2 ISZERO ISZERO PUSH2 0xD15 JUMP JUMPDEST SWAP1 JUMP JUMPDEST SWAP1 PUSH2 0xDAB SWAP4 SWAP3 SWAP2 PUSH2 0xD9B PUSH2 0x842 DUP5 CALLER PUSH2 0xDCF JUMP JUMPDEST PUSH2 0xDA6 DUP4 DUP4 DUP4 PUSH2 0xE97 JUMP JUMPDEST PUSH2 0x10A4 JUMP JUMPDEST ISZERO PUSH2 0xDB2 JUMPI JUMP JUMPDEST PUSH1 0x40 MLOAD PUSH3 0x461BCD PUSH1 0xE5 SHL DUP2 MSTORE DUP1 PUSH2 0xDCB PUSH1 0x4 DUP3 ADD PUSH2 0x1051 JUMP JUMPDEST SUB SWAP1 REVERT JUMPDEST SWAP1 PUSH1 0x1 PUSH1 0x1 PUSH1 0xA0 SHL SUB DUP1 DUP1 PUSH2 0xDE3 DUP5 PUSH2 0xD61 JUMP JUMPDEST AND SWAP4 AND SWAP2 DUP4 DUP4 EQ SWAP4 DUP5 ISZERO PUSH2 0xE16 JUMPI JUMPDEST POP DUP4 ISZERO PUSH2 0xE00 JUMPI JUMPDEST POP POP POP SWAP1 JUMP JUMPDEST PUSH2 0xE0C SWAP2 SWAP3 SWAP4 POP PUSH2 0xC75 JUMP JUMPDEST AND EQ CODESIZE DUP1 DUP1 PUSH2 0xDFA JUMP JUMPDEST SWAP1 SWAP4 POP PUSH1 0x0 MSTORE PUSH1 0x6 PUSH1 0x20 MSTORE PUSH1 0x40 PUSH1 0x0 KECCAK256 DUP3 PUSH1 0x0 MSTORE PUSH1 0x20 MSTORE PUSH1 0xFF PUSH1 0x40 PUSH1 0x0 KECCAK256 SLOAD AND SWAP3 CODESIZE PUSH2 0xDF2 JUMP JUMPDEST ISZERO PUSH2 0xE44 JUMPI JUMP JUMPDEST PUSH1 0x40 MLOAD PUSH3 0x461BCD PUSH1 0xE5 SHL DUP2 MSTORE PUSH1 0x20 PUSH1 0x4 DUP3 ADD MSTORE PUSH1 0x25 PUSH1 0x24 DUP3 ADD MSTORE PUSH32 0x4552433732313A207472616E736665722066726F6D20696E636F727265637420 PUSH1 0x44 DUP3 ADD MSTORE PUSH5 0x37BBB732B9 PUSH1 0xD9 SHL PUSH1 0x64 DUP3 ADD MSTORE PUSH1 0x84 SWAP1 REVERT JUMPDEST SWAP1 PUSH2 0xEBF SWAP2 PUSH2 0xEA5 DUP5 PUSH2 0xD61 JUMP JUMPDEST PUSH1 0x1 PUSH1 0x1 PUSH1 0xA0 SHL SUB SWAP4 SWAP2 DUP5 AND SWAP3 DUP5 SWAP3 SWAP1 SWAP2 DUP4 AND DUP5 EQ PUSH2 0xE3D JUMP JUMPDEST AND SWAP2 DUP3 ISZERO PUSH2 0xF5C JUMPI DUP2 PUSH2 0xEDC SWAP2 PUSH2 0xED5 DUP7 PUSH2 0xD61 JUMP JUMPDEST AND EQ PUSH2 0xE3D JUMP JUMPDEST PUSH32 0xDDF252AD1BE2C89B69C2B068FC378DAA952BA7F163C4A11628F55A4DF523B3EF PUSH1 0x0 DUP5 DUP2 MSTORE PUSH1 0x5 PUSH1 0x20 MSTORE PUSH1 0x40 DUP2 KECCAK256 PUSH12 0xFFFFFFFFFFFFFFFFFFFFFFFF PUSH1 0xA0 SHL SWAP1 DUP2 DUP2 SLOAD AND SWAP1 SSTORE DUP4 DUP3 MSTORE PUSH1 0x4 PUSH1 0x20 MSTORE PUSH1 0x40 DUP3 KECCAK256 PUSH1 0x0 NOT DUP2 SLOAD ADD SWAP1 SSTORE DUP5 DUP3 MSTORE PUSH1 0x40 DUP3 KECCAK256 PUSH1 0x1 DUP2 SLOAD ADD SWAP1 SSTORE DUP6 DUP3 MSTORE PUSH1 0x3 PUSH1 0x20 MSTORE DUP5 PUSH1 0x40 DUP4 KECCAK256 SWAP2 DUP3 SLOAD AND OR SWAP1 SSTORE DUP1 LOG4 JUMP JUMPDEST PUSH1 0x40 MLOAD PUSH3 0x461BCD PUSH1 0xE5 SHL DUP2 MSTORE PUSH1 0x20 PUSH1 0x4 DUP3 ADD MSTORE PUSH1 0x24 DUP1 DUP3 ADD MSTORE PUSH32 0x4552433732313A207472616E7366657220746F20746865207A65726F20616464 PUSH1 0x44 DUP3 ADD MSTORE PUSH4 0x72657373 PUSH1 0xE0 SHL PUSH1 0x64 DUP3 ADD MSTORE PUSH1 0x84 SWAP1 REVERT JUMPDEST PUSH1 0x0 SLOAD PUSH1 0x1 PUSH1 0x1 PUSH1 0xA0 SHL SUB AND CALLER SUB PUSH2 0xFC1 JUMPI JUMP JUMPDEST PUSH1 0x64 PUSH1 0x40 MLOAD PUSH3 0x461BCD PUSH1 0xE5 SHL DUP2 MSTORE PUSH1 0x20 PUSH1 0x4 DUP3 ADD MSTORE PUSH1 0x20 PUSH1 0x24 DUP3 ADD MSTORE PUSH32 0x4F776E61626C653A2063616C6C6572206973206E6F7420746865206F776E6572 PUSH1 0x44 DUP3 ADD MSTORE REVERT JUMPDEST ISZERO PUSH2 0x100C JUMPI JUMP JUMPDEST PUSH1 0x40 MLOAD PUSH3 0x461BCD PUSH1 0xE5 SHL DUP2 MSTORE PUSH1 0x20 PUSH1 0x4 DUP3 ADD MSTORE PUSH1 0x1C PUSH1 0x24 DUP3 ADD MSTORE PUSH32 0x4552433732313A20746F6B656E20616C7265616479206D696E74656400000000 PUSH1 0x44 DUP3 ADD MSTORE PUSH1 0x64 SWAP1 REVERT JUMPDEST PUSH1 0x80 SWAP1 PUSH1 0x20 DUP2 MSTORE PUSH1 0x32 PUSH1 0x20 DUP3 ADD MSTORE PUSH32 0x4552433732313A207472616E7366657220746F206E6F6E204552433732315265 PUSH1 0x40 DUP3 ADD MSTORE PUSH18 0x31B2B4BB32B91034B6B83632B6B2B73A32B9 PUSH1 0x71 SHL PUSH1 0x60 DUP3 ADD MSTORE ADD SWAP1 JUMP JUMPDEST SWAP3 SWAP4 SWAP2 SWAP3 SWAP1 DUP1 EXTCODESIZE ISZERO PUSH2 0x11B9 JUMPI PUSH2 0x10F8 SWAP5 PUSH1 0x1 DUP1 PUSH1 0xA0 SHL SUB SWAP5 PUSH1 0x40 MLOAD SWAP3 DUP4 SWAP2 DUP8 PUSH4 0xA85BD01 PUSH1 0xE1 SHL SWAP7 DUP8 DUP6 MSTORE CALLER PUSH1 0x4 DUP7 ADD MSTORE AND PUSH1 0x24 DUP5 ADD MSTORE PUSH1 0x44 DUP4 ADD MSTORE PUSH1 0x80 PUSH1 0x64 DUP4 ADD MSTORE DUP2 DUP1 PUSH1 0x20 SWAP10 DUP11 SWAP6 PUSH1 0x84 DUP4 ADD SWAP1 PUSH2 0xB18 JUMP JUMPDEST SUB SWAP2 PUSH1 0x0 SWAP9 DUP10 SWAP2 AND GAS CALL DUP5 SWAP2 DUP2 PUSH2 0x1179 JUMPI JUMPDEST POP PUSH2 0x1168 JUMPI POP POP POP RETURNDATASIZE PUSH1 0x0 EQ PUSH2 0x1160 JUMPI RETURNDATASIZE PUSH2 0x1124 DUP2 PUSH2 0xC12 JUMP JUMPDEST SWAP1 PUSH2 0x1132 PUSH1 0x40 MLOAD SWAP3 DUP4 PUSH2 0xBF0 JUMP JUMPDEST DUP2 MSTORE DUP1 SWAP2 DUP4 RETURNDATASIZE SWAP3 ADD RETURNDATACOPY JUMPDEST DUP1 MLOAD SWAP2 DUP3 PUSH2 0x115D JUMPI PUSH1 0x40 MLOAD PUSH3 0x461BCD PUSH1 0xE5 SHL DUP2 MSTORE DUP1 PUSH2 0xDCB PUSH1 0x4 DUP3 ADD PUSH2 0x1051 JUMP JUMPDEST ADD REVERT JUMPDEST POP PUSH1 0x60 PUSH2 0x113C JUMP JUMPDEST PUSH1 0x1 PUSH1 0x1 PUSH1 0xE0 SHL SUB NOT AND EQ SWAP3 POP SWAP1 POP JUMP JUMPDEST SWAP1 SWAP2 POP DUP6 DUP2 DUP2 RETURNDATASIZE DUP4 GT PUSH2 0x11B2 JUMPI JUMPDEST PUSH2 0x1191 DUP2 DUP4 PUSH2 0xBF0 JUMP JUMPDEST DUP2 ADD SUB SLT PUSH2 0x2C3 JUMPI MLOAD PUSH1 0x1 PUSH1 0x1 PUSH1 0xE0 SHL SUB NOT DUP2 AND DUP2 SUB PUSH2 0x2C3 JUMPI SWAP1 CODESIZE PUSH2 0x110A JUMP JUMPDEST POP RETURNDATASIZE PUSH2 0x1187 JUMP JUMPDEST POP POP SWAP2 POP POP PUSH1 0x1 SWAP1 JUMP INVALID LOG2 PUSH5 0x6970667358 0x22 SLT KECCAK256 EQ PUSH28 0xB9B451E362138498469AE1FF3048F2F2129E928CF9897D25B235CE4A 0xAA PUSH2 0x6473 PUSH16 0x6C634300081700330000000000000000 "},"methodIdentifiers":{"approve(address,uint256)":"095ea7b3","balanceOf(address)":"70a08231","configureMint(address,(uint256,uint256))":"b69952e7","getApproved(uint256)":"081812fc","isApprovedForAll(address,address)":"e985e9c5","mint(address,bytes)":"b510391f","name()":"06fdde03","owner()":"8da5cb5b","ownerOf(uint256)":"6352211e","renounceOwnership()":"715018a6","safeTransferFrom(address,address,uint256)":"42842e0e","safeTransferFrom(address,address,uint256,bytes)":"b88d4fde","setApprovalForAll(address,bool)":"a22cb465","supportsInterface(bytes4)":"01ffc9a7","symbol()":"95d89b41","tokenURI(uint256)":"c87b56dd","transferFrom(address,address,uint256)":"23b872dd","transferOwnership(address)":"f2fde38b"}}}}}