{"contracts/Pantheon.sol":{"Pantheon":{"abi":[{"inputs":[{"internalType":"string","name":"uri_","type":"string"}],"stateMutability":"nonpayable","type":"constructor"},{"anonymous":false,"inputs":[{"indexed":true,"internalType":"uint256","name":"id","type":"uint256"},{"indexed":true,"internalType":"address","name":"contractAddress","type":"address"}],"name":"ERC404Created","type":"event"},{"anonymous":false,"inputs":[{"indexed":true,"internalType":"address","name":"previousOwner","type":"address"},{"indexed":true,"internalType":"address","name":"newOwner","type":"address"}],"name":"OwnershipTransferred","type":"event"},{"anonymous":false,"inputs":[{"indexed":false,"internalType":"string","name":"newURI","type":"string"}],"name":"URIUpdated","type":"event"},{"anonymous":false,"inputs":[{"indexed":true,"internalType":"address","name":"account","type":"address"},{"indexed":false,"internalType":"bool","name":"isWhitelisted","type":"bool"}],"name":"WhitelistChanged","type":"event"},{"inputs":[{"internalType":"string","name":"newURI","type":"string"}],"name":"_setURI","outputs":[],"stateMutability":"nonpayable","type":"function"},{"inputs":[{"internalType":"uint256","name":"id_","type":"uint256"},{"internalType":"address","name":"user","type":"address"},{"internalType":"string[]","name":"cids","type":"string[]"}],"name":"addCIDs","outputs":[],"stateMutability":"nonpayable","type":"function"},{"inputs":[{"internalType":"address","name":"account_","type":"address"}],"name":"addToWhitelist","outputs":[],"stateMutability":"nonpayable","type":"function"},{"inputs":[{"internalType":"string","name":"name_","type":"string"},{"internalType":"string","name":"symbol_","type":"string"},{"internalType":"uint8","name":"decimals_","type":"uint8"},{"internalType":"uint256","name":"maxTotalSupplyERC721_","type":"uint256"},{"internalType":"address","name":"initialMintRecipient_","type":"address"}],"name":"createERC404","outputs":[],"stateMutability":"nonpayable","type":"function"},{"inputs":[{"internalType":"uint256","name":"","type":"uint256"}],"name":"erc404Instances","outputs":[{"internalType":"contract ERC404Instance","name":"","type":"address"}],"stateMutability":"view","type":"function"},{"inputs":[{"internalType":"uint256","name":"id_","type":"uint256"},{"internalType":"address","name":"user","type":"address"}],"name":"getCIDs","outputs":[{"internalType":"string[]","name":"","type":"string[]"}],"stateMutability":"view","type":"function"},{"inputs":[{"internalType":"uint256","name":"id_","type":"uint256"},{"internalType":"address","name":"user","type":"address"}],"name":"getContribution","outputs":[{"internalType":"uint256","name":"","type":"uint256"}],"stateMutability":"view","type":"function"},{"inputs":[],"name":"id","outputs":[{"internalType":"uint256","name":"","type":"uint256"}],"stateMutability":"view","type":"function"},{"inputs":[{"internalType":"address","name":"account_","type":"address"}],"name":"isWhitelisted","outputs":[{"internalType":"bool","name":"","type":"bool"}],"stateMutability":"view","type":"function"},{"inputs":[],"name":"owner","outputs":[{"internalType":"address","name":"","type":"address"}],"stateMutability":"view","type":"function"},{"inputs":[{"internalType":"address","name":"account_","type":"address"}],"name":"removeFromWhitelist","outputs":[],"stateMutability":"nonpayable","type":"function"},{"inputs":[],"name":"renounceOwnership","outputs":[],"stateMutability":"nonpayable","type":"function"},{"inputs":[{"internalType":"address","name":"newOwner","type":"address"}],"name":"transferOwnership","outputs":[],"stateMutability":"nonpayable","type":"function"},{"inputs":[],"name":"uri","outputs":[{"internalType":"string","name":"","type":"string"}],"stateMutability":"view","type":"function"}],"evm":{"bytecode":{"linkReferences":{},"object":"60806040523480156200001157600080fd5b506040516200503e3803806200503e8339810160408190526200003491620000d5565b6200003f336200006f565b60026200004d828262000239565b5050336000908152600360205260409020805460ff1916600117905562000305565b600080546001600160a01b038381166001600160a01b0319831681178455604051919092169283917f8be0079c531659141344cd1fd0a4f28419497f9722a3daafe3b4186f6b6457e09190a35050565b634e487b7160e01b600052604160045260246000fd5b60006020808385031215620000e957600080fd5b82516001600160401b03808211156200010157600080fd5b818501915085601f8301126200011657600080fd5b8151818111156200012b576200012b620000bf565b604051601f8201601f19908116603f01168101908382118183101715620001565762000156620000bf565b8160405282815288868487010111156200016f57600080fd5b600093505b8284101562000193578484018601518185018701529285019262000174565b600086848301015280965050505050505092915050565b600181811c90821680620001bf57607f821691505b602082108103620001e057634e487b7160e01b600052602260045260246000fd5b50919050565b601f8211156200023457600081815260208120601f850160051c810160208610156200020f5750805b601f850160051c820191505b8181101562000230578281556001016200021b565b5050505b505050565b81516001600160401b03811115620002555762000255620000bf565b6200026d81620002668454620001aa565b84620001e6565b602080601f831160018114620002a557600084156200028c5750858301515b600019600386901b1c1916600185901b17855562000230565b600085815260208120601f198616915b82811015620002d657888601518255948401946001909101908401620002b5565b5085821015620002f55787850151600019600388901b60f8161c191681555b5050505050600190811b01905550565b614d2980620003156000396000f3fe60806040523480156200001157600080fd5b5060043610620000fd5760003560e01c8063e081dbf91162000097578063f2fde38b116200006e578063f2fde38b146200021d578063f392d4f51462000234578063f47efcff146200024b578063fe232f05146200027757600080fd5b8063e081dbf914620001d6578063e43252d714620001ed578063eac989f8146200020457600080fd5b8063715018a611620000d8578063715018a614620001765780638ab1d68114620001805780638da5cb5b1462000197578063af640d0f14620001bd57600080fd5b8063013afc5114620001025780633af32abf146200011b5780636264d1bc146200015f575b600080fd5b620001196200011336600462000a1c565b6200029d565b005b6200014a6200012c36600462000abd565b6001600160a01b031660009081526003602052604090205460ff1690565b60405190151581526020015b60405180910390f35b620001196200017036600462000b09565b6200035e565b6200011962000440565b620001196200019136600462000abd565b62000458565b6000546001600160a01b03165b6040516001600160a01b03909116815260200162000156565b620001c760015481565b60405190815260200162000156565b620001c7620001e736600462000be4565b62000522565b62000119620001fe36600462000abd565b620005ac565b6200020e62000672565b60405162000156919062000c67565b620001196200022e36600462000abd565b62000708565b620001196200024536600462000c7c565b62000787565b620001a46200025c36600462000cb5565b6004602052600090815260409020546001600160a01b031681565b6200028e6200028836600462000be4565b620007dc565b60405162000156919062000d2b565b600085858585856002604051620002b49062000920565b620002c59695949392919062000d7c565b604051809103906000f080158015620002e2573d6000803e3d6000fd5b506001805460009081526004602052604080822080546001600160a01b0319166001600160a01b0386169081179091559254905193945091927fabcd57e8b9dc17f2141b4c7680a14b6177905d608b88697f317f45b738eb6b0a9190a360018054906000620003518362000e5c565b9190505550505050505050565b3360009081526003602052604090205460ff16620003c35760405162461bcd60e51b815260206004820152601960248201527f43616c6c6572206973206e6f742077686974656c69737465640000000000000060448201526064015b60405180910390fd5b6000838152600460208190526040918290205491516312e01e4560e11b81526001600160a01b039092169182916325c03c8a916200040691879187910162000e84565b600060405180830381600087803b1580156200042157600080fd5b505af115801562000436573d6000803e3d6000fd5b5050505050505050565b6200044a62000874565b620004566000620008d0565b565b6200046262000874565b6001600160a01b038116620004cc5760405162461bcd60e51b815260206004820152602960248201527f43616e6e6f742072656d6f7665207a65726f20616464726573732066726f6d206044820152681dda1a5d195b1a5cdd60ba1b6064820152608401620003ba565b6001600160a01b0381166000818152600360209081526040808320805460ff19169055519182527fb840a1dbd8b09a3dc45161bba92dfb9aba643c0e44c085a447f839d1d02cf13b91015b60405180910390a250565b600082815260046020819052604080832054905163087bfdff60e21b81526001600160a01b038581169382019390935291169081906321eff7fc90602401602060405180830381865afa1580156200057e573d6000803e3d6000fd5b505050506040513d601f19601f82011682018060405250810190620005a4919062000eaa565b949350505050565b620005b662000874565b6001600160a01b0381166200061a5760405162461bcd60e51b8152602060048201526024808201527f43616e6e6f7420616464207a65726f206164647265737320746f2077686974656044820152631b1a5cdd60e21b6064820152608401620003ba565b6001600160a01b038116600081815260036020908152604091829020805460ff1916600190811790915591519182527fb840a1dbd8b09a3dc45161bba92dfb9aba643c0e44c085a447f839d1d02cf13b910162000517565b60028054620006819062000d40565b80601f0160208091040260200160405190810160405280929190818152602001828054620006af9062000d40565b8015620007005780601f10620006d45761010080835404028352916020019162000700565b820191906000526020600020905b815481529060010190602001808311620006e257829003601f168201915b505050505081565b6200071262000874565b6001600160a01b038116620007795760405162461bcd60e51b815260206004820152602660248201527f4f776e61626c653a206e6577206f776e657220697320746865207a65726f206160448201526564647265737360d01b6064820152608401620003ba565b6200078481620008d0565b50565b6200079162000874565b60026200079f828262000f17565b507fe3afa94108b5f5e82e5f6e539d161ff4b5402a85f696c67b9768ec3ae54ce36681604051620007d1919062000c67565b60405180910390a150565b6000828152600460208190526040918290205491516318d9f6a760e21b81526060926001600160a01b0316918291636367da9c916200082c918791016001600160a01b0391909116815260200190565b600060405180830381865afa1580156200084a573d6000803e3d6000fd5b505050506040513d6000823e601f3d908101601f19168201604052620005a4919081019062000fe4565b6000546001600160a01b03163314620004565760405162461bcd60e51b815260206004820181905260248201527f4f776e61626c653a2063616c6c6572206973206e6f7420746865206f776e65726044820152606401620003ba565b600080546001600160a01b038381166001600160a01b0319831681178455604051919092169283917f8be0079c531659141344cd1fd0a4f28419497f9722a3daafe3b4186f6b6457e09190a35050565b613c1180620010e383390190565b634e487b7160e01b600052604160045260246000fd5b604051601f8201601f1916810167ffffffffffffffff811182821017156200097057620009706200092e565b604052919050565b600067ffffffffffffffff8211156200099557620009956200092e565b50601f01601f191660200190565b600082601f830112620009b557600080fd5b8135620009cc620009c68262000978565b62000944565b818152846020838601011115620009e257600080fd5b816020850160208301376000918101602001919091529392505050565b80356001600160a01b038116811462000a1757600080fd5b919050565b600080600080600060a0868803121562000a3557600080fd5b853567ffffffffffffffff8082111562000a4e57600080fd5b62000a5c89838a01620009a3565b9650602088013591508082111562000a7357600080fd5b5062000a8288828901620009a3565b945050604086013560ff8116811462000a9a57600080fd5b92506060860135915062000ab160808701620009ff565b90509295509295909350565b60006020828403121562000ad057600080fd5b62000adb82620009ff565b9392505050565b600067ffffffffffffffff82111562000aff5762000aff6200092e565b5060051b60200190565b60008060006060848603121562000b1f57600080fd5b83359250602062000b32818601620009ff565b9250604085013567ffffffffffffffff8082111562000b5057600080fd5b818701915087601f83011262000b6557600080fd5b813562000b76620009c68262000ae2565b81815260059190911b8301840190848101908a83111562000b9657600080fd5b8585015b8381101562000bd35780358581111562000bb45760008081fd5b62000bc48d89838a0101620009a3565b84525091860191860162000b9a565b508096505050505050509250925092565b6000806040838503121562000bf857600080fd5b8235915062000c0a60208401620009ff565b90509250929050565b60005b8381101562000c3057818101518382015260200162000c16565b50506000910152565b6000815180845262000c5381602086016020860162000c13565b601f01601f19169290920160200192915050565b60208152600062000adb602083018462000c39565b60006020828403121562000c8f57600080fd5b813567ffffffffffffffff81111562000ca757600080fd5b620005a484828501620009a3565b60006020828403121562000cc857600080fd5b5035919050565b600082825180855260208086019550808260051b84010181860160005b8481101562000d1e57601f1986840301895262000d0b83835162000c39565b9884019892509083019060010162000cec565b5090979650505050505050565b60208152600062000adb602083018462000ccf565b600181811c9082168062000d5557607f821691505b60208210810362000d7657634e487b7160e01b600052602260045260246000fd5b50919050565b60c08152600062000d9160c083018962000c39565b60208382038185015262000da6828a62000c39565b60ff89166040860152606085018890526001600160a01b038716608086015284810360a0860152855490925060009062000de08162000d40565b8085526001828116801562000dfe576001811462000e195762000e49565b60ff1984168787015282151560051b87018601945062000e49565b896000528560002060005b8481101562000e4157815489820189015290830190870162000e24565b880187019550505b50929d9c50505050505050505050505050565b60006001820162000e7d57634e487b7160e01b600052601160045260246000fd5b5060010190565b6001600160a01b0383168152604060208201819052600090620005a49083018462000ccf565b60006020828403121562000ebd57600080fd5b5051919050565b601f82111562000f1257600081815260208120601f850160051c8101602086101562000eed5750805b601f850160051c820191505b8181101562000f0e5782815560010162000ef9565b5050505b505050565b815167ffffffffffffffff81111562000f345762000f346200092e565b62000f4c8162000f45845462000d40565b8462000ec4565b602080601f83116001811462000f84576000841562000f6b5750858301515b600019600386901b1c1916600185901b17855562000f0e565b600085815260208120601f198616915b8281101562000fb55788860151825594840194600190910190840162000f94565b508582101562000fd45787850151600019600388901b60f8161c191681555b5050505050600190811b01905550565b6000602080838503121562000ff857600080fd5b825167ffffffffffffffff808211156200101157600080fd5b818501915085601f8301126200102657600080fd5b815162001037620009c68262000ae2565b81815260059190911b830184019084810190888311156200105757600080fd5b8585015b83811015620010d557805185811115620010755760008081fd5b8601603f81018b13620010885760008081fd5b8781015160406200109d620009c68362000978565b8281528d82848601011115620010b35760008081fd5b620010c4838c830184870162000c13565b86525050509186019186016200105b565b509897505050505050505056fe6101006040523480156200001257600080fd5b5060405162003c1138038062003c11833981016040819052620000359162000cb8565b858585620000433362000100565b600362000051848262000e0f565b50600462000060838262000e0f565b5060128160ff16101562000087576040516398790fd560e01b815260040160405180910390fd5b60ff811660808190526200009d90600a62000fee565b60a0524660c052620000ae62000150565b60e05250600f9150620000c49050828262000e0f565b50620000d2826001620001ec565b8215620000f457620000f48260a05185620000ee919062001006565b62000262565b50505050505062001135565b600080546001600160a01b038381166001600160a01b0319831681178455604051919092169283917f8be0079c531659141344cd1fd0a4f28419497f9722a3daafe3b4186f6b6457e09190a35050565b60007f8b73c3c69bb8fe3d512ecc4cf759cc79239f7b179b0ffacaa9a75d522b39400f600360405162000184919062001020565b6040805191829003822060208301939093528101919091527fc89efdaa54c0f20c7adf612882df0950f5a951637e0307cdcb4c672f298b8bc660608201524660808201523060a082015260c00160405160208183030381529060405280519060200120905090565b6001600160a01b038216620002145760405163a41e3d3f60e01b815260040160405180910390fd5b80156200022c576200022682620002d2565b62000237565b62000237826200030a565b6001600160a01b03919091166000908152600d60205260409020805460ff1916911515919091179055565b6001600160a01b0382166200028a57604051634e46966960e11b815260040160405180910390fd5b600160ff1b816005546200029f91906200109e565b1115620002bf5760405163303b682f60e01b815260040160405180910390fd5b620002cd6000838362000393565b505050565b6001600160a01b0381166000908152600c6020526040812054905b81811015620002cd57620003018362000642565b600101620002ed565b60a05160009062000330836001600160a01b031660009081526007602052604090205490565b6200033c9190620010b4565b9050600062000360836001600160a01b03166000908152600c602052604090205490565b905060005b620003718284620010d7565b8110156200038d576200038484620006d7565b60010162000365565b50505050565b6001600160a01b03838116600090815260076020526040808220549285168252812054909190620003c6868686620007cd565b6000620003d3876200087f565b90506000620003e2876200087f565b9050818015620003ef5750805b620006345781156200046b57600060a051846200040d9190620010b4565b60a0516001600160a01b038a16600090815260076020526040902054620004359190620010b4565b620004419190620010d7565b905060005b8181101562000463576200045a89620006d7565b60010162000446565b505062000634565b8015620004d85760a0516001600160a01b03891660009081526007602052604081205490916200049b91620010b4565b60a051620004aa9087620010b4565b620004b69190620010d7565b905060005b818110156200046357620004cf8a62000642565b600101620004bb565b600060a05187620004ea9190620010b4565b905060005b818110156200057c576001600160a01b038a166000908152600c60205260408120546200051f90600190620010d7565b6001600160a01b038c166000908152600c602052604081208054929350909183908110620005515762000551620010ed565b90600052602060002001549050620005718c8c83620008b660201b60201c565b5050600101620004ef565b5060a0518190620005a28b6001600160a01b031660009081526007602052604090205490565b620005ae9190620010b4565b60a051620005bd9088620010b4565b620005c99190620010d7565b1115620005db57620005db8962000642565b8060a05185620005ec9190620010b4565b60a0516001600160a01b038b16600090815260076020526040902054620006149190620010b4565b620006209190620010d7565b111562000632576200063288620006d7565b505b506001979650505050505050565b6001600160a01b0381166200066a57604051636edaef2f60e11b815260040160405180910390fd5b6001600160a01b0381166000908152600c6020526040812080546200069290600190620010d7565b81548110620006a557620006a5620010ed565b90600052602060002001549050620006c682600083620008b660201b60201c565b620006d360018262000a92565b5050565b6001600160a01b038116620006ff57604051634e46966960e11b815260040160405180910390fd5b600062000720600154600160801b81046001600160801b0390811691161490565b620007395762000731600162000afd565b905062000788565b6006600081546200074a9062001103565b90915550600654600101620007725760405163303b682f60e01b815260040160405180910390fd5b6006546200078590600160ff1b6200109e565b90505b6000818152600b60205260409020546001600160a01b03168015620007c05760405163119b4fd360e11b815260040160405180910390fd5b620002cd818484620008b6565b6001600160a01b038316620007fc578060056000828254620007f091906200109e565b909155506200082c9050565b6001600160a01b0383166000908152600760205260408120805483929062000826908490620010d7565b90915550505b6001600160a01b038083166000818152600760205260409081902080548501905551909185169060008051602062003bf183398151915290620008729085815260200190565b60405180910390a3505050565b60006001600160a01b0382161580620008b057506001600160a01b0382166000908152600d602052604090205460ff165b92915050565b6001600160a01b03831615620009d057600081815260096020908152604080832080546001600160a01b03191690556001600160a01b0386168352600c909152812080546200090890600190620010d7565b815481106200091b576200091b620010ed565b906000526020600020015490508181146200098e576000828152600b602052604081205460a01c6001600160a01b0386166000908152600c602052604090208054919250839183908110620009745762000974620010ed565b6000918252602090912001556200098c828262000b6e565b505b6001600160a01b0384166000908152600c60205260409020805480620009b857620009b86200111f565b60019003818190600052602060002001600090559055505b6001600160a01b0382161562000a4d576000818152600b6020908152604080832080546001600160a01b0319166001600160a01b038716908101909155808452600c8352908320805460018181018355828652938520018590559252905462000a4791839162000a419190620010d7565b62000b6e565b62000a5d565b6000818152600b60205260408120555b80826001600160a01b0316846001600160a01b031660008051602062003bf183398151915260405160405180910390a4505050565b81546001600160801b038082166000190191600160801b900481169082160362000acf57604051638acb5f2760e01b815260040160405180910390fd5b6001600160801b0316600081815260018401602052604090209190915581546001600160801b031916179055565b80546000906001600160801b03600160801b820481169116810362000b35576040516375e52f4f60e01b815260040160405180910390fd5b600019016001600160801b039081166000818152600185016020526040812080549190558454909216600160801b909102179092555090565b6000828152600b60205260409020546001600160601b0382111562000ba657604051633f2cd0e360e21b815260040160405180910390fd5b6000928352600b60205260409092206001600160a01b039290921660a09190911b6001600160a01b031916019055565b634e487b7160e01b600052604160045260246000fd5b600082601f83011262000bfe57600080fd5b81516001600160401b038082111562000c1b5762000c1b62000bd6565b604051601f8301601f19908116603f0116810190828211818310171562000c465762000c4662000bd6565b8160405283815260209250868385880101111562000c6357600080fd5b600091505b8382101562000c87578582018301518183018401529082019062000c68565b600093810190920192909252949350505050565b80516001600160a01b038116811462000cb357600080fd5b919050565b60008060008060008060c0878903121562000cd257600080fd5b86516001600160401b038082111562000cea57600080fd5b62000cf88a838b0162000bec565b9750602089015191508082111562000d0f57600080fd5b62000d1d8a838b0162000bec565b96506040890151915060ff8216821462000d3657600080fd5b8195506060890151945062000d4e60808a0162000c9b565b935060a089015191508082111562000d6557600080fd5b5062000d7489828a0162000bec565b9150509295509295509295565b600181811c9082168062000d9657607f821691505b60208210810362000db757634e487b7160e01b600052602260045260246000fd5b50919050565b601f821115620002cd57600081815260208120601f850160051c8101602086101562000de65750805b601f850160051c820191505b8181101562000e075782815560010162000df2565b505050505050565b81516001600160401b0381111562000e2b5762000e2b62000bd6565b62000e438162000e3c845462000d81565b8462000dbd565b602080601f83116001811462000e7b576000841562000e625750858301515b600019600386901b1c1916600185901b17855562000e07565b600085815260208120601f198616915b8281101562000eac5788860151825594840194600190910190840162000e8b565b508582101562000ecb5787850151600019600388901b60f8161c191681555b5050505050600190811b01905550565b634e487b7160e01b600052601160045260246000fd5b600181815b8085111562000f3257816000190482111562000f165762000f1662000edb565b8085161562000f2457918102915b93841c939080029062000ef6565b509250929050565b60008262000f4b57506001620008b0565b8162000f5a57506000620008b0565b816001811462000f73576002811462000f7e5762000f9e565b6001915050620008b0565b60ff84111562000f925762000f9262000edb565b50506001821b620008b0565b5060208310610133831016604e8410600b841016171562000fc3575081810a620008b0565b62000fcf838362000ef1565b806000190482111562000fe65762000fe662000edb565b029392505050565b600062000fff60ff84168362000f3a565b9392505050565b8082028115828204841417620008b057620008b062000edb565b6000808354620010308162000d81565b600182811680156200104b5760018114620010615762001092565b60ff198416875282151583028701945062001092565b8760005260208060002060005b85811015620010895781548a8201529084019082016200106e565b50505082870194505b50929695505050505050565b80820180821115620008b057620008b062000edb565b600082620010d257634e487b7160e01b600052601260045260246000fd5b500490565b81810381811115620008b057620008b062000edb565b634e487b7160e01b600052603260045260246000fd5b60006001820162001118576200111862000edb565b5060010190565b634e487b7160e01b600052603160045260246000fd5b60805160a05160c05160e051612a2e620011c3600039600061094d0152600061091d0152600081816104e5015281816108a401528181611243015281816116f301528181611737015281816117b0015281816117da0152818161182e015281816118da015281816119270152818161196b015281816119920152611de8015260006103bb0152612a2e6000f3fe608060405234801561001057600080fd5b50600436106102745760003560e01c806389fb4c6611610151578063c6e672b9116100c3578063dd63769911610087578063dd63769914610608578063dfabc0331461061b578063e985e9c51461062e578063eac989f81461065c578063f2fde38b14610664578063f780bc1a1461067757600080fd5b8063c6e672b914610591578063c87b56dd146105a4578063d505accf146105b7578063d96ca0b9146105ca578063dd62ed3e146105dd57600080fd5b8063a22cb46511610115578063a22cb46514610507578063a9059cbb1461051a578063b1ab93171461052d578063b3f9ea341461054d578063b88d4fde14610576578063c5ab3ba61461058957600080fd5b806389fb4c66146104ac5780638a696e50146104b45780638da5cb5b146104c757806395d89b41146104d8578063976a8435146104e057600080fd5b8063313ce567116101ea5780636352211e116101ae5780636352211e146104265780636367da9c146104395780636e8f624b1461045957806370a0823114610464578063715018a6146104845780637ecebe001461048c57600080fd5b8063313ce567146103b65780633644e515146103ef57806342842e0e146103f75780634d9660721461040a5780634f02c4201461041d57600080fd5b806309674eb01161023c57806309674eb01461034157806309f0ef651461034957806318160ddd1461035c57806321eff7fc1461036557806323b872dd1461038e57806325c03c8a146103a157600080fd5b806301ffc9a71461027957806302519da3146102a157806306fdde03146102d8578063081812fc146102ed578063095ea7b31461032e575b600080fd5b61028c6102873660046121fd565b61068a565b60405190151581526020015b60405180910390f35b6102ca6102af366004612231565b6001600160a01b031660009081526007602052604090205490565b604051908152602001610298565b6102e06106c1565b604051610298919061229c565b6103166102fb3660046122af565b6009602052600090815260409020546001600160a01b031681565b6040516001600160a01b039091168152602001610298565b61028c61033c3660046122c8565b61074f565b6102ca610788565b61028c610357366004612231565b6107b2565b6102ca60055481565b6102ca610373366004612231565b6001600160a01b031660009081526010602052604090205490565b61028c61039c3660046122f2565b6107e4565b6103b46103af3660046123cd565b610821565b005b6103dd7f000000000000000000000000000000000000000000000000000000000000000081565b60405160ff9091168152602001610298565b6102ca610919565b6103b46104053660046122f2565b61096f565b61028c6104183660046122c8565b61098f565b6102ca60065481565b6103166104343660046122af565b610a1c565b61044c610447366004612231565b610a86565b60405161029891906124b9565b6102ca600160ff1b81565b6102ca610472366004612231565b60076020526000908152604090205481565b6103b4610b75565b6102ca61049a366004612231565b600e6020526000908152604090205481565b6005546102ca565b6103b46104c236600461252b565b610b89565b6000546001600160a01b0316610316565b6102e0610b96565b6102ca7f000000000000000000000000000000000000000000000000000000000000000081565b6103b4610515366004612546565b610ba3565b61028c6105283660046122c8565b610c36565b61054061053b366004612231565b610c6a565b6040516102989190612579565b6102ca61055b366004612231565b6001600160a01b03166000908152600c602052604090205490565b6103b46105843660046125bd565b610cd6565b6006546102ca565b6103b461059f366004612546565b610dc4565b6102e06105b23660046122af565b610dda565b6103b46105c5366004612639565b610e0e565b61028c6105d83660046122f2565b611051565b6102ca6105eb3660046126ac565b600860209081526000928352604080842090915290825290205481565b6103b46106163660046122f2565b611111565b6103b46106293660046122c8565b611272565b61028c61063c3660046126ac565b600a60209081526000928352604080842090915290825290205460ff1681565b6102e0611337565b6103b4610672366004612231565b611344565b6105406106853660046126d6565b6113bf565b60006001600160e01b0319821663caf91ff560e01b14806106bb57506001600160e01b031982166301ffc9a760e01b145b92915050565b600380546106ce906126f8565b80601f01602080910402602001604051908101604052809291908181526020018280546106fa906126f8565b80156107475780601f1061071c57610100808354040283529160200191610747565b820191906000526020600020905b81548152906001019060200180831161072a57829003601f168201915b505050505081565b600061075a8261145c565b1561076e576107698383611272565b61077f565b610778838361098f565b90506106bb565b50600192915050565b60006107ad6001546001600160801b03808216600160801b9092048116919091031690565b905090565b60006001600160a01b03821615806106bb5750506001600160a01b03166000908152600d602052604090205460ff1690565b60006107ef8261145c565b15610804576107ff848484611111565b610816565b61080f848484611051565b905061081a565b5060015b9392505050565b610829611475565b60005b815181101561089d576001600160a01b0383166000908152601060205260409020825183908390811061086157610861612732565b6020908102919091018101518254600181018455600093845291909220019061088a9082612796565b50806108958161286c565b91505061082c565b506108d4827f000000000000000000000000000000000000000000000000000000000000000083516108cf9190612885565b6114cf565b816001600160a01b03167f9db9873cd0c3e9e21710778297adb5b1a923b4c4663a32440d58dc743a5478da8260405161090d91906124b9565b60405180910390a25050565b60007f0000000000000000000000000000000000000000000000000000000000000000461461094a576107ad611534565b507f000000000000000000000000000000000000000000000000000000000000000090565b61098a83838360405180602001604052806000815250610cd6565b505050565b60006001600160a01b0383166109b857604051635461585f60e01b815260040160405180910390fd5b3360008181526008602090815260408083206001600160a01b03881680855290835292819020869055518581529192917f8c5be1e5ebec7d5bd14f71427d1e84f3dd0314c0f7b2291e5b200ac8c7c3b925910160405180910390a350600192915050565b6000818152600b60205260409020546001600160a01b0316610a3d8261145c565b610a5a576040516307ed98ed60e31b815260040160405180910390fd5b6001600160a01b038116610a815760405163c5723b5160e01b815260040160405180910390fd5b919050565b6001600160a01b0381166000908152601060209081526040808320805482518185028101850190935280835260609492939192909184015b82821015610b6a578382906000526020600020018054610add906126f8565b80601f0160208091040260200160405190810160405280929190818152602001828054610b09906126f8565b8015610b565780601f10610b2b57610100808354040283529160200191610b56565b820191906000526020600020905b815481529060010190602001808311610b3957829003601f168201915b505050505081526020019060010190610abe565b505050509050919050565b610b7d611475565b610b8760006115ce565b565b610b93338261161e565b50565b600480546106ce906126f8565b6001600160a01b038216610bca5760405163ccea9e6f60e01b815260040160405180910390fd5b336000818152600a602090815260408083206001600160a01b03871680855290835292819020805460ff191686151590811790915590519081529192917f17307eab39ab6107e8899845ad3d59bd9653f200f220920489ca2b5937696c31910160405180910390a35050565b60006001600160a01b038316610c5f57604051634e46966960e11b815260040160405180910390fd5b61081a33848461168d565b6001600160a01b0381166000908152600c6020908152604091829020805483518184028101840190945280845260609392830182828015610cca57602002820191906000526020600020905b815481526020019060010190808311610cb6575b50505050509050919050565b610cdf8261145c565b610cfc576040516307ed98ed60e31b815260040160405180910390fd5b610d078484846107e4565b506001600160a01b0383163b15801590610da05750604051630a85bd0160e11b808252906001600160a01b0385169063150b7a0290610d5090339089908890889060040161289c565b6020604051808303816000875af1158015610d6f573d6000803e3d6000fd5b505050506040513d601f19601f82011682018060405250810190610d9391906128d9565b6001600160e01b03191614155b15610dbe57604051633da6393160e01b815260040160405180910390fd5b50505050565b610dcc611475565b610dd6828261161e565b5050565b6060600f610de783611a03565b604051602001610df8929190612969565b6040516020818303038152906040529050919050565b42841015610e2f576040516305787bdf60e01b815260040160405180910390fd5b610e388561145c565b15610e56576040516303e7c1bd60e31b815260040160405180910390fd5b6001600160a01b038616610e7d57604051635461585f60e01b815260040160405180910390fd5b60006001610e89610919565b6001600160a01b038a81166000818152600e602090815260409182902080546001810190915582517f6e71edae12b1b97f4d1f60370fef10105fa2faae0126114a169c64845d6126c98184015280840194909452938d166060840152608083018c905260a083019390935260c08083018b90528151808403909101815260e08301909152805192019190912061190160f01b6101008301526101028201929092526101228101919091526101420160408051601f198184030181528282528051602091820120600084529083018083525260ff871690820152606081018590526080810184905260a0016020604051602081039080840390855afa158015610f95573d6000803e3d6000fd5b5050604051601f1901519150506001600160a01b0381161580610fca5750876001600160a01b0316816001600160a01b031614155b15610fe857604051632057875960e21b815260040160405180910390fd5b6001600160a01b0390811660009081526008602090815260408083208a8516808552908352928190208990555188815291928a16917f8c5be1e5ebec7d5bd14f71427d1e84f3dd0314c0f7b2291e5b200ac8c7c3b925910160405180910390a350505050505050565b60006001600160a01b03841661107a57604051636edaef2f60e11b815260040160405180910390fd5b6001600160a01b0383166110a157604051634e46966960e11b815260040160405180910390fd5b6001600160a01b038416600090815260086020908152604080832033845290915290205460001981146110fd576110d8838261298e565b6001600160a01b03861660009081526008602090815260408083203384529091529020555b61110885858561168d565b95945050505050565b6001600160a01b03831661113857604051636edaef2f60e11b815260040160405180910390fd5b6001600160a01b03821661115f57604051634e46966960e11b815260040160405180910390fd5b6000818152600b60205260409020546001600160a01b03848116911614611198576040516282b42960e81b815260040160405180910390fd5b336001600160a01b038416148015906111d557506001600160a01b0383166000908152600a6020908152604080832033845290915290205460ff16155b80156111f857506000818152600960205260409020546001600160a01b03163314155b15611215576040516282b42960e81b815260040160405180910390fd5b61121e826107b2565b1561123c57604051635ce7539760e01b815260040160405180910390fd5b61126783837f0000000000000000000000000000000000000000000000000000000000000000611a96565b61098a838383611b52565b6000818152600b60205260409020546001600160a01b03163381148015906112be57506001600160a01b0381166000908152600a6020908152604080832033845290915290205460ff16155b156112db576040516282b42960e81b815260040160405180910390fd5b60008281526009602052604080822080546001600160a01b0319166001600160a01b0387811691821790925591518593918516917f8c5be1e5ebec7d5bd14f71427d1e84f3dd0314c0f7b2291e5b200ac8c7c3b92591a4505050565b600f80546106ce906126f8565b61134c611475565b6001600160a01b0381166113b65760405162461bcd60e51b815260206004820152602660248201527f4f776e61626c653a206e6577206f776e657220697320746865207a65726f206160448201526564647265737360d01b60648201526084015b60405180910390fd5b610b93816115ce565b606060008267ffffffffffffffff8111156113dc576113dc61232e565b604051908082528060200260200182016040528015611405578160200160208202803683370190505b509050835b61141484866129a1565b81101561145457611426600182611d2a565b82611431878461298e565b8151811061144157611441612732565b602090810291909101015260010161140a565b509392505050565b6000600160ff1b821180156106bb575050600019141590565b6000546001600160a01b03163314610b875760405162461bcd60e51b815260206004820181905260248201527f4f776e61626c653a2063616c6c6572206973206e6f7420746865206f776e657260448201526064016113ad565b6001600160a01b0382166114f657604051634e46966960e11b815260040160405180910390fd5b600160ff1b8160055461150991906129a1565b11156115285760405163303b682f60e01b815260040160405180910390fd5b61098a6000838361168d565b60007f8b73c3c69bb8fe3d512ecc4cf759cc79239f7b179b0ffacaa9a75d522b39400f600360405161156691906129b4565b6040805191829003822060208301939093528101919091527fc89efdaa54c0f20c7adf612882df0950f5a951637e0307cdcb4c672f298b8bc660608201524660808201523060a082015260c00160405160208183030381529060405280519060200120905090565b600080546001600160a01b038381166001600160a01b0319831681178455604051919092169283917f8be0079c531659141344cd1fd0a4f28419497f9722a3daafe3b4186f6b6457e09190a35050565b6001600160a01b0382166116455760405163a41e3d3f60e01b815260040160405180910390fd5b80156116595761165482611d95565b611662565b61166282611dc9565b6001600160a01b03919091166000908152600d60205260409020805460ff1916911515919091179055565b6001600160a01b038381166000908152600760205260408082205492851682528120549091906116be868686611a96565b60006116c9876107b2565b905060006116d6876107b2565b90508180156116e25750805b6119f557811561178b5760006117187f0000000000000000000000000000000000000000000000000000000000000000856129c0565b6001600160a01b03891660009081526007602052604090205461175c907f0000000000000000000000000000000000000000000000000000000000000000906129c0565b611766919061298e565b905060005b818110156117845761177c89611e57565b60010161176b565b50506119f5565b8015611827576001600160a01b0388166000908152600760205260408120546117d5907f0000000000000000000000000000000000000000000000000000000000000000906129c0565b6117ff7f0000000000000000000000000000000000000000000000000000000000000000876129c0565b611809919061298e565b905060005b818110156117845761181f8a611f3f565b60010161180e565b60006118537f0000000000000000000000000000000000000000000000000000000000000000886129c0565b905060005b818110156118d6576001600160a01b038a166000908152600c60205260408120546118859060019061298e565b6001600160a01b038c166000908152600c6020526040812080549293509091839081106118b4576118b4612732565b906000526020600020015490506118cc8c8c83611b52565b5050600101611858565b50807f00000000000000000000000000000000000000000000000000000000000000006119188b6001600160a01b031660009081526007602052604090205490565b61192291906129c0565b61194c7f0000000000000000000000000000000000000000000000000000000000000000886129c0565b611956919061298e565b11156119655761196589611f3f565b806119907f0000000000000000000000000000000000000000000000000000000000000000866129c0565b7f00000000000000000000000000000000000000000000000000000000000000006119d08b6001600160a01b031660009081526007602052604090205490565b6119da91906129c0565b6119e4919061298e565b11156119f3576119f388611e57565b505b506001979650505050505050565b60606000611a1083611fc0565b600101905060008167ffffffffffffffff811115611a3057611a3061232e565b6040519080825280601f01601f191660200182016040528015611a5a576020820181803683370190505b5090508181016020015b600019016f181899199a1a9b1b9c1cb0b131b232b360811b600a86061a8153600a8504945084611a6457509392505050565b6001600160a01b038316611ac1578060056000828254611ab691906129a1565b90915550611aef9050565b6001600160a01b03831660009081526007602052604081208054839290611ae990849061298e565b90915550505b6001600160a01b03808316600081815260076020526040908190208054850190555190918516907fddf252ad1be2c89b69c2b068fc378daa952ba7f163c4a11628f55a4df523b3ef90611b459085815260200190565b60405180910390a3505050565b6001600160a01b03831615611c5d57600081815260096020908152604080832080546001600160a01b03191690556001600160a01b0386168352600c90915281208054611ba19060019061298e565b81548110611bb157611bb1612732565b90600052602060002001549050818114611c1e576000828152600b602052604081205460a01c6001600160a01b0386166000908152600c602052604090208054919250839183908110611c0657611c06612732565b600091825260209091200155611c1c8282612098565b505b6001600160a01b0384166000908152600c60205260409020805480611c4557611c456129e2565b60019003818190600052602060002001600090559055505b6001600160a01b03821615611cd4576000818152600b6020908152604080832080546001600160a01b0319166001600160a01b038716908101909155808452600c83529083208054600181810183558286529385200185905592529054611ccf918391611cca919061298e565b612098565b611ce4565b6000818152600b60205260408120555b80826001600160a01b0316846001600160a01b03167fddf252ad1be2c89b69c2b068fc378daa952ba7f163c4a11628f55a4df523b3ef60405160405180910390a4505050565b6000611d4e83546001600160801b03808216600160801b9092048116919091031690565b8210611d6d5760405163580821e760e01b815260040160405180910390fd5b5081546001600160801b03908116820116600090815260018301602052604090205492915050565b6001600160a01b0381166000908152600c6020526040812054905b8181101561098a57611dc183611f3f565b600101611db0565b6001600160a01b038116600090815260076020526040812054611e0d907f0000000000000000000000000000000000000000000000000000000000000000906129c0565b90506000611e30836001600160a01b03166000908152600c602052604090205490565b905060005b611e3f828461298e565b811015610dbe57611e4f84611e57565b600101611e35565b6001600160a01b038116611e7e57604051634e46966960e11b815260040160405180910390fd5b6000611e9e600154600160801b81046001600160801b0390811691161490565b611eb357611eac6001612104565b9050611efd565b600660008154611ec29061286c565b90915550600654600101611ee95760405163303b682f60e01b815260040160405180910390fd5b600654611efa90600160ff1b6129a1565b90505b6000818152600b60205260409020546001600160a01b03168015611f345760405163119b4fd360e11b815260040160405180910390fd5b61098a818484611b52565b6001600160a01b038116611f6657604051636edaef2f60e11b815260040160405180910390fd5b6001600160a01b0381166000908152600c602052604081208054611f8c9060019061298e565b81548110611f9c57611f9c612732565b90600052602060002001549050611fb582600083611b52565b610dd6600182612174565b60008072184f03e93ff9f4daa797ed6e38ed64bf6a1f0160401b8310611fff5772184f03e93ff9f4daa797ed6e38ed64bf6a1f0160401b830492506040015b6d04ee2d6d415b85acef8100000000831061202b576d04ee2d6d415b85acef8100000000830492506020015b662386f26fc10000831061204957662386f26fc10000830492506010015b6305f5e1008310612061576305f5e100830492506008015b612710831061207557612710830492506004015b60648310612087576064830492506002015b600a83106106bb5760010192915050565b6000828152600b60205260409020546bffffffffffffffffffffffff8211156120d457604051633f2cd0e360e21b815260040160405180910390fd5b6000928352600b60205260409092206001600160a01b039290921660a09190911b6001600160a01b031916019055565b80546000906001600160801b03600160801b820481169116810361213b576040516375e52f4f60e01b815260040160405180910390fd5b600019016001600160801b039081166000818152600185016020526040812080549190558454909216600160801b909102179092555090565b81546001600160801b038082166000190191600160801b90048116908216036121b057604051638acb5f2760e01b815260040160405180910390fd5b6001600160801b0316600081815260018401602052604090209190915581546fffffffffffffffffffffffffffffffff1916179055565b6001600160e01b031981168114610b9357600080fd5b60006020828403121561220f57600080fd5b813561081a816121e7565b80356001600160a01b0381168114610a8157600080fd5b60006020828403121561224357600080fd5b61081a8261221a565b60005b8381101561226757818101518382015260200161224f565b50506000910152565b6000815180845261228881602086016020860161224c565b601f01601f19169290920160200192915050565b60208152600061081a6020830184612270565b6000602082840312156122c157600080fd5b5035919050565b600080604083850312156122db57600080fd5b6122e48361221a565b946020939093013593505050565b60008060006060848603121561230757600080fd5b6123108461221a565b925061231e6020850161221a565b9150604084013590509250925092565b634e487b7160e01b600052604160045260246000fd5b604051601f8201601f1916810167ffffffffffffffff8111828210171561236d5761236d61232e565b604052919050565b600067ffffffffffffffff83111561238f5761238f61232e565b6123a2601f8401601f1916602001612344565b90508281528383830111156123b657600080fd5b828260208301376000602084830101529392505050565b60008060408084860312156123e157600080fd5b6123ea8461221a565b925060208085013567ffffffffffffffff8082111561240857600080fd5b818701915087601f83011261241c57600080fd5b81358181111561242e5761242e61232e565b8060051b61243d858201612344565b918252838101850191858101908b84111561245757600080fd5b86860192505b838310156124a7578235858111156124755760008081fd5b8601603f81018d136124875760008081fd5b6124978d898301358b8401612375565b835250918601919086019061245d565b80985050505050505050509250929050565b6000602080830181845280855180835260408601915060408160051b870101925083870160005b8281101561250e57603f198886030184526124fc858351612270565b945092850192908501906001016124e0565b5092979650505050505050565b80358015158114610a8157600080fd5b60006020828403121561253d57600080fd5b61081a8261251b565b6000806040838503121561255957600080fd5b6125628361221a565b91506125706020840161251b565b90509250929050565b6020808252825182820181905260009190848201906040850190845b818110156125b157835183529284019291840191600101612595565b50909695505050505050565b600080600080608085870312156125d357600080fd5b6125dc8561221a565b93506125ea6020860161221a565b925060408501359150606085013567ffffffffffffffff81111561260d57600080fd5b8501601f8101871361261e57600080fd5b61262d87823560208401612375565b91505092959194509250565b600080600080600080600060e0888a03121561265457600080fd5b61265d8861221a565b965061266b6020890161221a565b95506040880135945060608801359350608088013560ff8116811461268f57600080fd5b9699959850939692959460a0840135945060c09093013592915050565b600080604083850312156126bf57600080fd5b6126c88361221a565b91506125706020840161221a565b600080604083850312156126e957600080fd5b50508035926020909101359150565b600181811c9082168061270c57607f821691505b60208210810361272c57634e487b7160e01b600052602260045260246000fd5b50919050565b634e487b7160e01b600052603260045260246000fd5b601f82111561098a57600081815260208120601f850160051c8101602086101561276f5750805b601f850160051c820191505b8181101561278e5782815560010161277b565b505050505050565b815167ffffffffffffffff8111156127b0576127b061232e565b6127c4816127be84546126f8565b84612748565b602080601f8311600181146127f957600084156127e15750858301515b600019600386901b1c1916600185901b17855561278e565b600085815260208120601f198616915b8281101561282857888601518255948401946001909101908401612809565b50858210156128465787850151600019600388901b60f8161c191681555b5050505050600190811b01905550565b634e487b7160e01b600052601160045260246000fd5b60006001820161287e5761287e612856565b5060010190565b80820281158282048414176106bb576106bb612856565b6001600160a01b03858116825284166020820152604081018390526080606082018190526000906128cf90830184612270565b9695505050505050565b6000602082840312156128eb57600080fd5b815161081a816121e7565b60008154612903816126f8565b6001828116801561291b57600181146129305761295f565b60ff198416875282151583028701945061295f565b8560005260208060002060005b858110156129565781548a82015290840190820161293d565b50505082870194505b5050505092915050565b600061297582856128f6565b835161298581836020880161224c565b01949350505050565b818103818111156106bb576106bb612856565b808201808211156106bb576106bb612856565b600061081a82846128f6565b6000826129dd57634e487b7160e01b600052601260045260246000fd5b500490565b634e487b7160e01b600052603160045260246000fdfea26469706673582212207b45ce04da083ed79263392ebf2648ab4fb2c41bd23c005c5c14aee3eeb6f1e264736f6c63430008140033ddf252ad1be2c89b69c2b068fc378daa952ba7f163c4a11628f55a4df523b3efa26469706673582212208657a0872c8773a5aac803ccb6f695ebfe7bb9ff74cd539b04e40cb09b4e1fcc64736f6c63430008140033","opcodes":"PUSH1 0x80 PUSH1 0x40 MSTORE CALLVALUE DUP1 ISZERO PUSH3 0x11 JUMPI PUSH1 0x0 DUP1 REVERT JUMPDEST POP PUSH1 0x40 MLOAD PUSH3 0x503E CODESIZE SUB DUP1 PUSH3 0x503E DUP4 CODECOPY DUP2 ADD PUSH1 0x40 DUP2 SWAP1 MSTORE PUSH3 0x34 SWAP2 PUSH3 0xD5 JUMP JUMPDEST PUSH3 0x3F CALLER PUSH3 0x6F JUMP JUMPDEST PUSH1 0x2 PUSH3 0x4D DUP3 DUP3 PUSH3 0x239 JUMP JUMPDEST POP POP CALLER PUSH1 0x0 SWAP1 DUP2 MSTORE PUSH1 0x3 PUSH1 0x20 MSTORE PUSH1 0x40 SWAP1 KECCAK256 DUP1 SLOAD PUSH1 0xFF NOT AND PUSH1 0x1 OR SWAP1 SSTORE PUSH3 0x305 JUMP JUMPDEST PUSH1 0x0 DUP1 SLOAD PUSH1 0x1 PUSH1 0x1 PUSH1 0xA0 SHL SUB DUP4 DUP2 AND PUSH1 0x1 PUSH1 0x1 PUSH1 0xA0 SHL SUB NOT DUP4 AND DUP2 OR DUP5 SSTORE PUSH1 0x40 MLOAD SWAP2 SWAP1 SWAP3 AND SWAP3 DUP4 SWAP2 PUSH32 0x8BE0079C531659141344CD1FD0A4F28419497F9722A3DAAFE3B4186F6B6457E0 SWAP2 SWAP1 LOG3 POP POP JUMP JUMPDEST PUSH4 0x4E487B71 PUSH1 0xE0 SHL PUSH1 0x0 MSTORE PUSH1 0x41 PUSH1 0x4 MSTORE PUSH1 0x24 PUSH1 0x0 REVERT JUMPDEST PUSH1 0x0 PUSH1 0x20 DUP1 DUP4 DUP6 SUB SLT ISZERO PUSH3 0xE9 JUMPI PUSH1 0x0 DUP1 REVERT JUMPDEST DUP3 MLOAD PUSH1 0x1 PUSH1 0x1 PUSH1 0x40 SHL SUB DUP1 DUP3 GT ISZERO PUSH3 0x101 JUMPI PUSH1 0x0 DUP1 REVERT JUMPDEST DUP2 DUP6 ADD SWAP2 POP DUP6 PUSH1 0x1F DUP4 ADD SLT PUSH3 0x116 JUMPI PUSH1 0x0 DUP1 REVERT JUMPDEST DUP2 MLOAD DUP2 DUP2 GT ISZERO PUSH3 0x12B JUMPI PUSH3 0x12B PUSH3 0xBF JUMP JUMPDEST PUSH1 0x40 MLOAD PUSH1 0x1F DUP3 ADD PUSH1 0x1F NOT SWAP1 DUP2 AND PUSH1 0x3F ADD AND DUP2 ADD SWAP1 DUP4 DUP3 GT DUP2 DUP4 LT OR ISZERO PUSH3 0x156 JUMPI PUSH3 0x156 PUSH3 0xBF JUMP JUMPDEST DUP2 PUSH1 0x40 MSTORE DUP3 DUP2 MSTORE DUP9 DUP7 DUP5 DUP8 ADD ADD GT ISZERO PUSH3 0x16F JUMPI PUSH1 0x0 DUP1 REVERT JUMPDEST PUSH1 0x0 SWAP4 POP JUMPDEST DUP3 DUP5 LT ISZERO PUSH3 0x193 JUMPI DUP5 DUP5 ADD DUP7 ADD MLOAD DUP2 DUP6 ADD DUP8 ADD MSTORE SWAP3 DUP6 ADD SWAP3 PUSH3 0x174 JUMP JUMPDEST PUSH1 0x0 DUP7 DUP5 DUP4 ADD ADD MSTORE DUP1 SWAP7 POP POP POP POP POP POP POP SWAP3 SWAP2 POP POP JUMP JUMPDEST PUSH1 0x1 DUP2 DUP2 SHR SWAP1 DUP3 AND DUP1 PUSH3 0x1BF JUMPI PUSH1 0x7F DUP3 AND SWAP2 POP JUMPDEST PUSH1 0x20 DUP3 LT DUP2 SUB PUSH3 0x1E0 JUMPI PUSH4 0x4E487B71 PUSH1 0xE0 SHL PUSH1 0x0 MSTORE PUSH1 0x22 PUSH1 0x4 MSTORE PUSH1 0x24 PUSH1 0x0 REVERT JUMPDEST POP SWAP2 SWAP1 POP JUMP JUMPDEST PUSH1 0x1F DUP3 GT ISZERO PUSH3 0x234 JUMPI PUSH1 0x0 DUP2 DUP2 MSTORE PUSH1 0x20 DUP2 KECCAK256 PUSH1 0x1F DUP6 ADD PUSH1 0x5 SHR DUP2 ADD PUSH1 0x20 DUP7 LT ISZERO PUSH3 0x20F JUMPI POP DUP1 JUMPDEST PUSH1 0x1F DUP6 ADD PUSH1 0x5 SHR DUP3 ADD SWAP2 POP JUMPDEST DUP2 DUP2 LT ISZERO PUSH3 0x230 JUMPI DUP3 DUP2 SSTORE PUSH1 0x1 ADD PUSH3 0x21B JUMP JUMPDEST POP POP POP JUMPDEST POP POP POP JUMP JUMPDEST DUP2 MLOAD PUSH1 0x1 PUSH1 0x1 PUSH1 0x40 SHL SUB DUP2 GT ISZERO PUSH3 0x255 JUMPI PUSH3 0x255 PUSH3 0xBF JUMP JUMPDEST PUSH3 0x26D DUP2 PUSH3 0x266 DUP5 SLOAD PUSH3 0x1AA JUMP JUMPDEST DUP5 PUSH3 0x1E6 JUMP JUMPDEST PUSH1 0x20 DUP1 PUSH1 0x1F DUP4 GT PUSH1 0x1 DUP2 EQ PUSH3 0x2A5 JUMPI PUSH1 0x0 DUP5 ISZERO PUSH3 0x28C JUMPI POP DUP6 DUP4 ADD MLOAD JUMPDEST PUSH1 0x0 NOT PUSH1 0x3 DUP7 SWAP1 SHL SHR NOT AND PUSH1 0x1 DUP6 SWAP1 SHL OR DUP6 SSTORE PUSH3 0x230 JUMP JUMPDEST PUSH1 0x0 DUP6 DUP2 MSTORE PUSH1 0x20 DUP2 KECCAK256 PUSH1 0x1F NOT DUP7 AND SWAP2 JUMPDEST DUP3 DUP2 LT ISZERO PUSH3 0x2D6 JUMPI DUP9 DUP7 ADD MLOAD DUP3 SSTORE SWAP5 DUP5 ADD SWAP5 PUSH1 0x1 SWAP1 SWAP2 ADD SWAP1 DUP5 ADD PUSH3 0x2B5 JUMP JUMPDEST POP DUP6 DUP3 LT ISZERO PUSH3 0x2F5 JUMPI DUP8 DUP6 ADD MLOAD PUSH1 0x0 NOT PUSH1 0x3 DUP9 SWAP1 SHL PUSH1 0xF8 AND SHR NOT AND DUP2 SSTORE JUMPDEST POP POP POP POP POP PUSH1 0x1 SWAP1 DUP2 SHL ADD SWAP1 SSTORE POP JUMP JUMPDEST PUSH2 0x4D29 DUP1 PUSH3 0x315 PUSH1 0x0 CODECOPY PUSH1 0x0 RETURN INVALID PUSH1 0x80 PUSH1 0x40 MSTORE CALLVALUE DUP1 ISZERO PUSH3 0x11 JUMPI PUSH1 0x0 DUP1 REVERT JUMPDEST POP PUSH1 0x4 CALLDATASIZE LT PUSH3 0xFD JUMPI PUSH1 0x0 CALLDATALOAD PUSH1 0xE0 SHR DUP1 PUSH4 0xE081DBF9 GT PUSH3 0x97 JUMPI DUP1 PUSH4 0xF2FDE38B GT PUSH3 0x6E JUMPI DUP1 PUSH4 0xF2FDE38B EQ PUSH3 0x21D JUMPI DUP1 PUSH4 0xF392D4F5 EQ PUSH3 0x234 JUMPI DUP1 PUSH4 0xF47EFCFF EQ PUSH3 0x24B JUMPI DUP1 PUSH4 0xFE232F05 EQ PUSH3 0x277 JUMPI PUSH1 0x0 DUP1 REVERT JUMPDEST DUP1 PUSH4 0xE081DBF9 EQ PUSH3 0x1D6 JUMPI DUP1 PUSH4 0xE43252D7 EQ PUSH3 0x1ED JUMPI DUP1 PUSH4 0xEAC989F8 EQ PUSH3 0x204 JUMPI PUSH1 0x0 DUP1 REVERT JUMPDEST DUP1 PUSH4 0x715018A6 GT PUSH3 0xD8 JUMPI DUP1 PUSH4 0x715018A6 EQ PUSH3 0x176 JUMPI DUP1 PUSH4 0x8AB1D681 EQ PUSH3 0x180 JUMPI DUP1 PUSH4 0x8DA5CB5B EQ PUSH3 0x197 JUMPI DUP1 PUSH4 0xAF640D0F EQ PUSH3 0x1BD JUMPI PUSH1 0x0 DUP1 REVERT JUMPDEST DUP1 PUSH4 0x13AFC51 EQ PUSH3 0x102 JUMPI DUP1 PUSH4 0x3AF32ABF EQ PUSH3 0x11B JUMPI DUP1 PUSH4 0x6264D1BC EQ PUSH3 0x15F JUMPI JUMPDEST PUSH1 0x0 DUP1 REVERT JUMPDEST PUSH3 0x119 PUSH3 0x113 CALLDATASIZE PUSH1 0x4 PUSH3 0xA1C JUMP JUMPDEST PUSH3 0x29D JUMP JUMPDEST STOP JUMPDEST PUSH3 0x14A PUSH3 0x12C CALLDATASIZE PUSH1 0x4 PUSH3 0xABD JUMP JUMPDEST PUSH1 0x1 PUSH1 0x1 PUSH1 0xA0 SHL SUB AND PUSH1 0x0 SWAP1 DUP2 MSTORE PUSH1 0x3 PUSH1 0x20 MSTORE PUSH1 0x40 SWAP1 KECCAK256 SLOAD PUSH1 0xFF AND SWAP1 JUMP JUMPDEST PUSH1 0x40 MLOAD SWAP1 ISZERO ISZERO DUP2 MSTORE PUSH1 0x20 ADD JUMPDEST PUSH1 0x40 MLOAD DUP1 SWAP2 SUB SWAP1 RETURN JUMPDEST PUSH3 0x119 PUSH3 0x170 CALLDATASIZE PUSH1 0x4 PUSH3 0xB09 JUMP JUMPDEST PUSH3 0x35E JUMP JUMPDEST PUSH3 0x119 PUSH3 0x440 JUMP JUMPDEST PUSH3 0x119 PUSH3 0x191 CALLDATASIZE PUSH1 0x4 PUSH3 0xABD JUMP JUMPDEST PUSH3 0x458 JUMP JUMPDEST PUSH1 0x0 SLOAD PUSH1 0x1 PUSH1 0x1 PUSH1 0xA0 SHL SUB AND JUMPDEST PUSH1 0x40 MLOAD PUSH1 0x1 PUSH1 0x1 PUSH1 0xA0 SHL SUB SWAP1 SWAP2 AND DUP2 MSTORE PUSH1 0x20 ADD PUSH3 0x156 JUMP JUMPDEST PUSH3 0x1C7 PUSH1 0x1 SLOAD DUP2 JUMP JUMPDEST PUSH1 0x40 MLOAD SWAP1 DUP2 MSTORE PUSH1 0x20 ADD PUSH3 0x156 JUMP JUMPDEST PUSH3 0x1C7 PUSH3 0x1E7 CALLDATASIZE PUSH1 0x4 PUSH3 0xBE4 JUMP JUMPDEST PUSH3 0x522 JUMP JUMPDEST PUSH3 0x119 PUSH3 0x1FE CALLDATASIZE PUSH1 0x4 PUSH3 0xABD JUMP JUMPDEST PUSH3 0x5AC JUMP JUMPDEST PUSH3 0x20E PUSH3 0x672 JUMP JUMPDEST PUSH1 0x40 MLOAD PUSH3 0x156 SWAP2 SWAP1 PUSH3 0xC67 JUMP JUMPDEST PUSH3 0x119 PUSH3 0x22E CALLDATASIZE PUSH1 0x4 PUSH3 0xABD JUMP JUMPDEST PUSH3 0x708 JUMP JUMPDEST PUSH3 0x119 PUSH3 0x245 CALLDATASIZE PUSH1 0x4 PUSH3 0xC7C JUMP JUMPDEST PUSH3 0x787 JUMP JUMPDEST PUSH3 0x1A4 PUSH3 0x25C CALLDATASIZE PUSH1 0x4 PUSH3 0xCB5 JUMP JUMPDEST PUSH1 0x4 PUSH1 0x20 MSTORE PUSH1 0x0 SWAP1 DUP2 MSTORE PUSH1 0x40 SWAP1 KECCAK256 SLOAD PUSH1 0x1 PUSH1 0x1 PUSH1 0xA0 SHL SUB AND DUP2 JUMP JUMPDEST PUSH3 0x28E PUSH3 0x288 CALLDATASIZE PUSH1 0x4 PUSH3 0xBE4 JUMP JUMPDEST PUSH3 0x7DC JUMP JUMPDEST PUSH1 0x40 MLOAD PUSH3 0x156 SWAP2 SWAP1 PUSH3 0xD2B JUMP JUMPDEST PUSH1 0x0 DUP6 DUP6 DUP6 DUP6 DUP6 PUSH1 0x2 PUSH1 0x40 MLOAD PUSH3 0x2B4 SWAP1 PUSH3 0x920 JUMP JUMPDEST PUSH3 0x2C5 SWAP7 SWAP6 SWAP5 SWAP4 SWAP3 SWAP2 SWAP1 PUSH3 0xD7C JUMP JUMPDEST PUSH1 0x40 MLOAD DUP1 SWAP2 SUB SWAP1 PUSH1 0x0 CREATE DUP1 ISZERO DUP1 ISZERO PUSH3 0x2E2 JUMPI RETURNDATASIZE PUSH1 0x0 DUP1 RETURNDATACOPY RETURNDATASIZE PUSH1 0x0 REVERT JUMPDEST POP PUSH1 0x1 DUP1 SLOAD PUSH1 0x0 SWAP1 DUP2 MSTORE PUSH1 0x4 PUSH1 0x20 MSTORE PUSH1 0x40 DUP1 DUP3 KECCAK256 DUP1 SLOAD PUSH1 0x1 PUSH1 0x1 PUSH1 0xA0 SHL SUB NOT AND PUSH1 0x1 PUSH1 0x1 PUSH1 0xA0 SHL SUB DUP7 AND SWAP1 DUP2 OR SWAP1 SWAP2 SSTORE SWAP3 SLOAD SWAP1 MLOAD SWAP4 SWAP5 POP SWAP2 SWAP3 PUSH32 0xABCD57E8B9DC17F2141B4C7680A14B6177905D608B88697F317F45B738EB6B0A SWAP2 SWAP1 LOG3 PUSH1 0x1 DUP1 SLOAD SWAP1 PUSH1 0x0 PUSH3 0x351 DUP4 PUSH3 0xE5C JUMP JUMPDEST SWAP2 SWAP1 POP SSTORE POP POP POP POP POP POP POP JUMP JUMPDEST CALLER PUSH1 0x0 SWAP1 DUP2 MSTORE PUSH1 0x3 PUSH1 0x20 MSTORE PUSH1 0x40 SWAP1 KECCAK256 SLOAD PUSH1 0xFF AND PUSH3 0x3C3 JUMPI PUSH1 0x40 MLOAD PUSH3 0x461BCD PUSH1 0xE5 SHL DUP2 MSTORE PUSH1 0x20 PUSH1 0x4 DUP3 ADD MSTORE PUSH1 0x19 PUSH1 0x24 DUP3 ADD MSTORE PUSH32 0x43616C6C6572206973206E6F742077686974656C697374656400000000000000 PUSH1 0x44 DUP3 ADD MSTORE PUSH1 0x64 ADD JUMPDEST PUSH1 0x40 MLOAD DUP1 SWAP2 SUB SWAP1 REVERT JUMPDEST PUSH1 0x0 DUP4 DUP2 MSTORE PUSH1 0x4 PUSH1 0x20 DUP2 SWAP1 MSTORE PUSH1 0x40 SWAP2 DUP3 SWAP1 KECCAK256 SLOAD SWAP2 MLOAD PUSH4 0x12E01E45 PUSH1 0xE1 SHL DUP2 MSTORE PUSH1 0x1 PUSH1 0x1 PUSH1 0xA0 SHL SUB SWAP1 SWAP3 AND SWAP2 DUP3 SWAP2 PUSH4 0x25C03C8A SWAP2 PUSH3 0x406 SWAP2 DUP8 SWAP2 DUP8 SWAP2 ADD PUSH3 0xE84 JUMP JUMPDEST PUSH1 0x0 PUSH1 0x40 MLOAD DUP1 DUP4 SUB DUP2 PUSH1 0x0 DUP8 DUP1 EXTCODESIZE ISZERO DUP1 ISZERO PUSH3 0x421 JUMPI PUSH1 0x0 DUP1 REVERT JUMPDEST POP GAS CALL ISZERO DUP1 ISZERO PUSH3 0x436 JUMPI RETURNDATASIZE PUSH1 0x0 DUP1 RETURNDATACOPY RETURNDATASIZE PUSH1 0x0 REVERT JUMPDEST POP POP POP POP POP POP POP POP JUMP JUMPDEST PUSH3 0x44A PUSH3 0x874 JUMP JUMPDEST PUSH3 0x456 PUSH1 0x0 PUSH3 0x8D0 JUMP JUMPDEST JUMP JUMPDEST PUSH3 0x462 PUSH3 0x874 JUMP JUMPDEST PUSH1 0x1 PUSH1 0x1 PUSH1 0xA0 SHL SUB DUP2 AND PUSH3 0x4CC JUMPI PUSH1 0x40 MLOAD PUSH3 0x461BCD PUSH1 0xE5 SHL DUP2 MSTORE PUSH1 0x20 PUSH1 0x4 DUP3 ADD MSTORE PUSH1 0x29 PUSH1 0x24 DUP3 ADD MSTORE PUSH32 0x43616E6E6F742072656D6F7665207A65726F20616464726573732066726F6D20 PUSH1 0x44 DUP3 ADD MSTORE PUSH9 0x1DDA1A5D195B1A5CDD PUSH1 0xBA SHL PUSH1 0x64 DUP3 ADD MSTORE PUSH1 0x84 ADD PUSH3 0x3BA JUMP JUMPDEST PUSH1 0x1 PUSH1 0x1 PUSH1 0xA0 SHL SUB DUP2 AND PUSH1 0x0 DUP2 DUP2 MSTORE PUSH1 0x3 PUSH1 0x20 SWAP1 DUP2 MSTORE PUSH1 0x40 DUP1 DUP4 KECCAK256 DUP1 SLOAD PUSH1 0xFF NOT AND SWAP1 SSTORE MLOAD SWAP2 DUP3 MSTORE PUSH32 0xB840A1DBD8B09A3DC45161BBA92DFB9ABA643C0E44C085A447F839D1D02CF13B SWAP2 ADD JUMPDEST PUSH1 0x40 MLOAD DUP1 SWAP2 SUB SWAP1 LOG2 POP JUMP JUMPDEST PUSH1 0x0 DUP3 DUP2 MSTORE PUSH1 0x4 PUSH1 0x20 DUP2 SWAP1 MSTORE PUSH1 0x40 DUP1 DUP4 KECCAK256 SLOAD SWAP1 MLOAD PUSH4 0x87BFDFF PUSH1 0xE2 SHL DUP2 MSTORE PUSH1 0x1 PUSH1 0x1 PUSH1 0xA0 SHL SUB DUP6 DUP2 AND SWAP4 DUP3 ADD SWAP4 SWAP1 SWAP4 MSTORE SWAP2 AND SWAP1 DUP2 SWAP1 PUSH4 0x21EFF7FC SWAP1 PUSH1 0x24 ADD PUSH1 0x20 PUSH1 0x40 MLOAD DUP1 DUP4 SUB DUP2 DUP7 GAS STATICCALL ISZERO DUP1 ISZERO PUSH3 0x57E JUMPI RETURNDATASIZE PUSH1 0x0 DUP1 RETURNDATACOPY RETURNDATASIZE PUSH1 0x0 REVERT JUMPDEST POP POP POP POP PUSH1 0x40 MLOAD RETURNDATASIZE PUSH1 0x1F NOT PUSH1 0x1F DUP3 ADD AND DUP3 ADD DUP1 PUSH1 0x40 MSTORE POP DUP2 ADD SWAP1 PUSH3 0x5A4 SWAP2 SWAP1 PUSH3 0xEAA JUMP JUMPDEST SWAP5 SWAP4 POP POP POP POP JUMP JUMPDEST PUSH3 0x5B6 PUSH3 0x874 JUMP JUMPDEST PUSH1 0x1 PUSH1 0x1 PUSH1 0xA0 SHL SUB DUP2 AND PUSH3 0x61A JUMPI PUSH1 0x40 MLOAD PUSH3 0x461BCD PUSH1 0xE5 SHL DUP2 MSTORE PUSH1 0x20 PUSH1 0x4 DUP3 ADD MSTORE PUSH1 0x24 DUP1 DUP3 ADD MSTORE PUSH32 0x43616E6E6F7420616464207A65726F206164647265737320746F207768697465 PUSH1 0x44 DUP3 ADD MSTORE PUSH4 0x1B1A5CDD PUSH1 0xE2 SHL PUSH1 0x64 DUP3 ADD MSTORE PUSH1 0x84 ADD PUSH3 0x3BA JUMP JUMPDEST PUSH1 0x1 PUSH1 0x1 PUSH1 0xA0 SHL SUB DUP2 AND PUSH1 0x0 DUP2 DUP2 MSTORE PUSH1 0x3 PUSH1 0x20 SWAP1 DUP2 MSTORE PUSH1 0x40 SWAP2 DUP3 SWAP1 KECCAK256 DUP1 SLOAD PUSH1 0xFF NOT AND PUSH1 0x1 SWAP1 DUP2 OR SWAP1 SWAP2 SSTORE SWAP2 MLOAD SWAP2 DUP3 MSTORE PUSH32 0xB840A1DBD8B09A3DC45161BBA92DFB9ABA643C0E44C085A447F839D1D02CF13B SWAP2 ADD PUSH3 0x517 JUMP JUMPDEST PUSH1 0x2 DUP1 SLOAD PUSH3 0x681 SWAP1 PUSH3 0xD40 JUMP JUMPDEST DUP1 PUSH1 0x1F ADD PUSH1 0x20 DUP1 SWAP2 DIV MUL PUSH1 0x20 ADD PUSH1 0x40 MLOAD SWAP1 DUP2 ADD PUSH1 0x40 MSTORE DUP1 SWAP3 SWAP2 SWAP1 DUP2 DUP2 MSTORE PUSH1 0x20 ADD DUP3 DUP1 SLOAD PUSH3 0x6AF SWAP1 PUSH3 0xD40 JUMP JUMPDEST DUP1 ISZERO PUSH3 0x700 JUMPI DUP1 PUSH1 0x1F LT PUSH3 0x6D4 JUMPI PUSH2 0x100 DUP1 DUP4 SLOAD DIV MUL DUP4 MSTORE SWAP2 PUSH1 0x20 ADD SWAP2 PUSH3 0x700 JUMP JUMPDEST DUP3 ADD SWAP2 SWAP1 PUSH1 0x0 MSTORE PUSH1 0x20 PUSH1 0x0 KECCAK256 SWAP1 JUMPDEST DUP2 SLOAD DUP2 MSTORE SWAP1 PUSH1 0x1 ADD SWAP1 PUSH1 0x20 ADD DUP1 DUP4 GT PUSH3 0x6E2 JUMPI DUP3 SWAP1 SUB PUSH1 0x1F AND DUP3 ADD SWAP2 JUMPDEST POP POP POP POP POP DUP2 JUMP JUMPDEST PUSH3 0x712 PUSH3 0x874 JUMP JUMPDEST PUSH1 0x1 PUSH1 0x1 PUSH1 0xA0 SHL SUB DUP2 AND PUSH3 0x779 JUMPI PUSH1 0x40 MLOAD PUSH3 0x461BCD PUSH1 0xE5 SHL DUP2 MSTORE PUSH1 0x20 PUSH1 0x4 DUP3 ADD MSTORE PUSH1 0x26 PUSH1 0x24 DUP3 ADD MSTORE PUSH32 0x4F776E61626C653A206E6577206F776E657220697320746865207A65726F2061 PUSH1 0x44 DUP3 ADD MSTORE PUSH6 0x646472657373 PUSH1 0xD0 SHL PUSH1 0x64 DUP3 ADD MSTORE PUSH1 0x84 ADD PUSH3 0x3BA JUMP JUMPDEST PUSH3 0x784 DUP2 PUSH3 0x8D0 JUMP JUMPDEST POP JUMP JUMPDEST PUSH3 0x791 PUSH3 0x874 JUMP JUMPDEST PUSH1 0x2 PUSH3 0x79F DUP3 DUP3 PUSH3 0xF17 JUMP JUMPDEST POP PUSH32 0xE3AFA94108B5F5E82E5F6E539D161FF4B5402A85F696C67B9768EC3AE54CE366 DUP2 PUSH1 0x40 MLOAD PUSH3 0x7D1 SWAP2 SWAP1 PUSH3 0xC67 JUMP JUMPDEST PUSH1 0x40 MLOAD DUP1 SWAP2 SUB SWAP1 LOG1 POP JUMP JUMPDEST PUSH1 0x0 DUP3 DUP2 MSTORE PUSH1 0x4 PUSH1 0x20 DUP2 SWAP1 MSTORE PUSH1 0x40 SWAP2 DUP3 SWAP1 KECCAK256 SLOAD SWAP2 MLOAD PUSH4 0x18D9F6A7 PUSH1 0xE2 SHL DUP2 MSTORE PUSH1 0x60 SWAP3 PUSH1 0x1 PUSH1 0x1 PUSH1 0xA0 SHL SUB AND SWAP2 DUP3 SWAP2 PUSH4 0x6367DA9C SWAP2 PUSH3 0x82C SWAP2 DUP8 SWAP2 ADD PUSH1 0x1 PUSH1 0x1 PUSH1 0xA0 SHL SUB SWAP2 SWAP1 SWAP2 AND DUP2 MSTORE PUSH1 0x20 ADD SWAP1 JUMP JUMPDEST PUSH1 0x0 PUSH1 0x40 MLOAD DUP1 DUP4 SUB DUP2 DUP7 GAS STATICCALL ISZERO DUP1 ISZERO PUSH3 0x84A JUMPI RETURNDATASIZE PUSH1 0x0 DUP1 RETURNDATACOPY RETURNDATASIZE PUSH1 0x0 REVERT JUMPDEST POP POP POP POP PUSH1 0x40 MLOAD RETURNDATASIZE PUSH1 0x0 DUP3 RETURNDATACOPY PUSH1 0x1F RETURNDATASIZE SWAP1 DUP2 ADD PUSH1 0x1F NOT AND DUP3 ADD PUSH1 0x40 MSTORE PUSH3 0x5A4 SWAP2 SWAP1 DUP2 ADD SWAP1 PUSH3 0xFE4 JUMP JUMPDEST PUSH1 0x0 SLOAD PUSH1 0x1 PUSH1 0x1 PUSH1 0xA0 SHL SUB AND CALLER EQ PUSH3 0x456 JUMPI PUSH1 0x40 MLOAD PUSH3 0x461BCD PUSH1 0xE5 SHL DUP2 MSTORE PUSH1 0x20 PUSH1 0x4 DUP3 ADD DUP2 SWAP1 MSTORE PUSH1 0x24 DUP3 ADD MSTORE PUSH32 0x4F776E61626C653A2063616C6C6572206973206E6F7420746865206F776E6572 PUSH1 0x44 DUP3 ADD MSTORE PUSH1 0x64 ADD PUSH3 0x3BA JUMP JUMPDEST PUSH1 0x0 DUP1 SLOAD PUSH1 0x1 PUSH1 0x1 PUSH1 0xA0 SHL SUB DUP4 DUP2 AND PUSH1 0x1 PUSH1 0x1 PUSH1 0xA0 SHL SUB NOT DUP4 AND DUP2 OR DUP5 SSTORE PUSH1 0x40 MLOAD SWAP2 SWAP1 SWAP3 AND SWAP3 DUP4 SWAP2 PUSH32 0x8BE0079C531659141344CD1FD0A4F28419497F9722A3DAAFE3B4186F6B6457E0 SWAP2 SWAP1 LOG3 POP POP JUMP JUMPDEST PUSH2 0x3C11 DUP1 PUSH3 0x10E3 DUP4 CODECOPY ADD SWAP1 JUMP JUMPDEST PUSH4 0x4E487B71 PUSH1 0xE0 SHL PUSH1 0x0 MSTORE PUSH1 0x41 PUSH1 0x4 MSTORE PUSH1 0x24 PUSH1 0x0 REVERT JUMPDEST PUSH1 0x40 MLOAD PUSH1 0x1F DUP3 ADD PUSH1 0x1F NOT AND DUP2 ADD PUSH8 0xFFFFFFFFFFFFFFFF DUP2 GT DUP3 DUP3 LT OR ISZERO PUSH3 0x970 JUMPI PUSH3 0x970 PUSH3 0x92E JUMP JUMPDEST PUSH1 0x40 MSTORE SWAP2 SWAP1 POP JUMP JUMPDEST PUSH1 0x0 PUSH8 0xFFFFFFFFFFFFFFFF DUP3 GT ISZERO PUSH3 0x995 JUMPI PUSH3 0x995 PUSH3 0x92E JUMP JUMPDEST POP PUSH1 0x1F ADD PUSH1 0x1F NOT AND PUSH1 0x20 ADD SWAP1 JUMP JUMPDEST PUSH1 0x0 DUP3 PUSH1 0x1F DUP4 ADD SLT PUSH3 0x9B5 JUMPI PUSH1 0x0 DUP1 REVERT JUMPDEST DUP2 CALLDATALOAD PUSH3 0x9CC PUSH3 0x9C6 DUP3 PUSH3 0x978 JUMP JUMPDEST PUSH3 0x944 JUMP JUMPDEST DUP2 DUP2 MSTORE DUP5 PUSH1 0x20 DUP4 DUP7 ADD ADD GT ISZERO PUSH3 0x9E2 JUMPI PUSH1 0x0 DUP1 REVERT JUMPDEST DUP2 PUSH1 0x20 DUP6 ADD PUSH1 0x20 DUP4 ADD CALLDATACOPY PUSH1 0x0 SWAP2 DUP2 ADD PUSH1 0x20 ADD SWAP2 SWAP1 SWAP2 MSTORE SWAP4 SWAP3 POP POP POP JUMP JUMPDEST DUP1 CALLDATALOAD PUSH1 0x1 PUSH1 0x1 PUSH1 0xA0 SHL SUB DUP2 AND DUP2 EQ PUSH3 0xA17 JUMPI PUSH1 0x0 DUP1 REVERT JUMPDEST SWAP2 SWAP1 POP JUMP JUMPDEST PUSH1 0x0 DUP1 PUSH1 0x0 DUP1 PUSH1 0x0 PUSH1 0xA0 DUP7 DUP9 SUB SLT ISZERO PUSH3 0xA35 JUMPI PUSH1 0x0 DUP1 REVERT JUMPDEST DUP6 CALLDATALOAD PUSH8 0xFFFFFFFFFFFFFFFF DUP1 DUP3 GT ISZERO PUSH3 0xA4E JUMPI PUSH1 0x0 DUP1 REVERT JUMPDEST PUSH3 0xA5C DUP10 DUP4 DUP11 ADD PUSH3 0x9A3 JUMP JUMPDEST SWAP7 POP PUSH1 0x20 DUP9 ADD CALLDATALOAD SWAP2 POP DUP1 DUP3 GT ISZERO PUSH3 0xA73 JUMPI PUSH1 0x0 DUP1 REVERT JUMPDEST POP PUSH3 0xA82 DUP9 DUP3 DUP10 ADD PUSH3 0x9A3 JUMP JUMPDEST SWAP5 POP POP PUSH1 0x40 DUP7 ADD CALLDATALOAD PUSH1 0xFF DUP2 AND DUP2 EQ PUSH3 0xA9A JUMPI PUSH1 0x0 DUP1 REVERT JUMPDEST SWAP3 POP PUSH1 0x60 DUP7 ADD CALLDATALOAD SWAP2 POP PUSH3 0xAB1 PUSH1 0x80 DUP8 ADD PUSH3 0x9FF JUMP JUMPDEST SWAP1 POP SWAP3 SWAP6 POP SWAP3 SWAP6 SWAP1 SWAP4 POP JUMP JUMPDEST PUSH1 0x0 PUSH1 0x20 DUP3 DUP5 SUB SLT ISZERO PUSH3 0xAD0 JUMPI PUSH1 0x0 DUP1 REVERT JUMPDEST PUSH3 0xADB DUP3 PUSH3 0x9FF JUMP JUMPDEST SWAP4 SWAP3 POP POP POP JUMP JUMPDEST PUSH1 0x0 PUSH8 0xFFFFFFFFFFFFFFFF DUP3 GT ISZERO PUSH3 0xAFF JUMPI PUSH3 0xAFF PUSH3 0x92E JUMP JUMPDEST POP PUSH1 0x5 SHL PUSH1 0x20 ADD SWAP1 JUMP JUMPDEST PUSH1 0x0 DUP1 PUSH1 0x0 PUSH1 0x60 DUP5 DUP7 SUB SLT ISZERO PUSH3 0xB1F JUMPI PUSH1 0x0 DUP1 REVERT JUMPDEST DUP4 CALLDATALOAD SWAP3 POP PUSH1 0x20 PUSH3 0xB32 DUP2 DUP7 ADD PUSH3 0x9FF JUMP JUMPDEST SWAP3 POP PUSH1 0x40 DUP6 ADD CALLDATALOAD PUSH8 0xFFFFFFFFFFFFFFFF DUP1 DUP3 GT ISZERO PUSH3 0xB50 JUMPI PUSH1 0x0 DUP1 REVERT JUMPDEST DUP2 DUP8 ADD SWAP2 POP DUP8 PUSH1 0x1F DUP4 ADD SLT PUSH3 0xB65 JUMPI PUSH1 0x0 DUP1 REVERT JUMPDEST DUP2 CALLDATALOAD PUSH3 0xB76 PUSH3 0x9C6 DUP3 PUSH3 0xAE2 JUMP JUMPDEST DUP2 DUP2 MSTORE PUSH1 0x5 SWAP2 SWAP1 SWAP2 SHL DUP4 ADD DUP5 ADD SWAP1 DUP5 DUP2 ADD SWAP1 DUP11 DUP4 GT ISZERO PUSH3 0xB96 JUMPI PUSH1 0x0 DUP1 REVERT JUMPDEST DUP6 DUP6 ADD JUMPDEST DUP4 DUP2 LT ISZERO PUSH3 0xBD3 JUMPI DUP1 CALLDATALOAD DUP6 DUP2 GT ISZERO PUSH3 0xBB4 JUMPI PUSH1 0x0 DUP1 DUP2 REVERT JUMPDEST PUSH3 0xBC4 DUP14 DUP10 DUP4 DUP11 ADD ADD PUSH3 0x9A3 JUMP JUMPDEST DUP5 MSTORE POP SWAP2 DUP7 ADD SWAP2 DUP7 ADD PUSH3 0xB9A JUMP JUMPDEST POP DUP1 SWAP7 POP POP POP POP POP POP POP SWAP3 POP SWAP3 POP SWAP3 JUMP JUMPDEST PUSH1 0x0 DUP1 PUSH1 0x40 DUP4 DUP6 SUB SLT ISZERO PUSH3 0xBF8 JUMPI PUSH1 0x0 DUP1 REVERT JUMPDEST DUP3 CALLDATALOAD SWAP2 POP PUSH3 0xC0A PUSH1 0x20 DUP5 ADD PUSH3 0x9FF JUMP JUMPDEST SWAP1 POP SWAP3 POP SWAP3 SWAP1 POP JUMP JUMPDEST PUSH1 0x0 JUMPDEST DUP4 DUP2 LT ISZERO PUSH3 0xC30 JUMPI DUP2 DUP2 ADD MLOAD DUP4 DUP3 ADD MSTORE PUSH1 0x20 ADD PUSH3 0xC16 JUMP JUMPDEST POP POP PUSH1 0x0 SWAP2 ADD MSTORE JUMP JUMPDEST PUSH1 0x0 DUP2 MLOAD DUP1 DUP5 MSTORE PUSH3 0xC53 DUP2 PUSH1 0x20 DUP7 ADD PUSH1 0x20 DUP7 ADD PUSH3 0xC13 JUMP JUMPDEST PUSH1 0x1F ADD PUSH1 0x1F NOT AND SWAP3 SWAP1 SWAP3 ADD PUSH1 0x20 ADD SWAP3 SWAP2 POP POP JUMP JUMPDEST PUSH1 0x20 DUP2 MSTORE PUSH1 0x0 PUSH3 0xADB PUSH1 0x20 DUP4 ADD DUP5 PUSH3 0xC39 JUMP JUMPDEST PUSH1 0x0 PUSH1 0x20 DUP3 DUP5 SUB SLT ISZERO PUSH3 0xC8F JUMPI PUSH1 0x0 DUP1 REVERT JUMPDEST DUP2 CALLDATALOAD PUSH8 0xFFFFFFFFFFFFFFFF DUP2 GT ISZERO PUSH3 0xCA7 JUMPI PUSH1 0x0 DUP1 REVERT JUMPDEST PUSH3 0x5A4 DUP5 DUP3 DUP6 ADD PUSH3 0x9A3 JUMP JUMPDEST PUSH1 0x0 PUSH1 0x20 DUP3 DUP5 SUB SLT ISZERO PUSH3 0xCC8 JUMPI PUSH1 0x0 DUP1 REVERT JUMPDEST POP CALLDATALOAD SWAP2 SWAP1 POP JUMP JUMPDEST PUSH1 0x0 DUP3 DUP3 MLOAD DUP1 DUP6 MSTORE PUSH1 0x20 DUP1 DUP7 ADD SWAP6 POP DUP1 DUP3 PUSH1 0x5 SHL DUP5 ADD ADD DUP2 DUP7 ADD PUSH1 0x0 JUMPDEST DUP5 DUP2 LT ISZERO PUSH3 0xD1E JUMPI PUSH1 0x1F NOT DUP7 DUP5 SUB ADD DUP10 MSTORE PUSH3 0xD0B DUP4 DUP4 MLOAD PUSH3 0xC39 JUMP JUMPDEST SWAP9 DUP5 ADD SWAP9 SWAP3 POP SWAP1 DUP4 ADD SWAP1 PUSH1 0x1 ADD PUSH3 0xCEC JUMP JUMPDEST POP SWAP1 SWAP8 SWAP7 POP POP POP POP POP POP POP JUMP JUMPDEST PUSH1 0x20 DUP2 MSTORE PUSH1 0x0 PUSH3 0xADB PUSH1 0x20 DUP4 ADD DUP5 PUSH3 0xCCF JUMP JUMPDEST PUSH1 0x1 DUP2 DUP2 SHR SWAP1 DUP3 AND DUP1 PUSH3 0xD55 JUMPI PUSH1 0x7F DUP3 AND SWAP2 POP JUMPDEST PUSH1 0x20 DUP3 LT DUP2 SUB PUSH3 0xD76 JUMPI PUSH4 0x4E487B71 PUSH1 0xE0 SHL PUSH1 0x0 MSTORE PUSH1 0x22 PUSH1 0x4 MSTORE PUSH1 0x24 PUSH1 0x0 REVERT JUMPDEST POP SWAP2 SWAP1 POP JUMP JUMPDEST PUSH1 0xC0 DUP2 MSTORE PUSH1 0x0 PUSH3 0xD91 PUSH1 0xC0 DUP4 ADD DUP10 PUSH3 0xC39 JUMP JUMPDEST PUSH1 0x20 DUP4 DUP3 SUB DUP2 DUP6 ADD MSTORE PUSH3 0xDA6 DUP3 DUP11 PUSH3 0xC39 JUMP JUMPDEST PUSH1 0xFF DUP10 AND PUSH1 0x40 DUP7 ADD MSTORE PUSH1 0x60 DUP6 ADD DUP9 SWAP1 MSTORE PUSH1 0x1 PUSH1 0x1 PUSH1 0xA0 SHL SUB DUP8 AND PUSH1 0x80 DUP7 ADD MSTORE DUP5 DUP2 SUB PUSH1 0xA0 DUP7 ADD MSTORE DUP6 SLOAD SWAP1 SWAP3 POP PUSH1 0x0 SWAP1 PUSH3 0xDE0 DUP2 PUSH3 0xD40 JUMP JUMPDEST DUP1 DUP6 MSTORE PUSH1 0x1 DUP3 DUP2 AND DUP1 ISZERO PUSH3 0xDFE JUMPI PUSH1 0x1 DUP2 EQ PUSH3 0xE19 JUMPI PUSH3 0xE49 JUMP JUMPDEST PUSH1 0xFF NOT DUP5 AND DUP8 DUP8 ADD MSTORE DUP3 ISZERO ISZERO PUSH1 0x5 SHL DUP8 ADD DUP7 ADD SWAP5 POP PUSH3 0xE49 JUMP JUMPDEST DUP10 PUSH1 0x0 MSTORE DUP6 PUSH1 0x0 KECCAK256 PUSH1 0x0 JUMPDEST DUP5 DUP2 LT ISZERO PUSH3 0xE41 JUMPI DUP2 SLOAD DUP10 DUP3 ADD DUP10 ADD MSTORE SWAP1 DUP4 ADD SWAP1 DUP8 ADD PUSH3 0xE24 JUMP JUMPDEST DUP9 ADD DUP8 ADD SWAP6 POP POP JUMPDEST POP SWAP3 SWAP14 SWAP13 POP POP POP POP POP POP POP POP POP POP POP POP POP JUMP JUMPDEST PUSH1 0x0 PUSH1 0x1 DUP3 ADD PUSH3 0xE7D JUMPI PUSH4 0x4E487B71 PUSH1 0xE0 SHL PUSH1 0x0 MSTORE PUSH1 0x11 PUSH1 0x4 MSTORE PUSH1 0x24 PUSH1 0x0 REVERT JUMPDEST POP PUSH1 0x1 ADD SWAP1 JUMP JUMPDEST PUSH1 0x1 PUSH1 0x1 PUSH1 0xA0 SHL SUB DUP4 AND DUP2 MSTORE PUSH1 0x40 PUSH1 0x20 DUP3 ADD DUP2 SWAP1 MSTORE PUSH1 0x0 SWAP1 PUSH3 0x5A4 SWAP1 DUP4 ADD DUP5 PUSH3 0xCCF JUMP JUMPDEST PUSH1 0x0 PUSH1 0x20 DUP3 DUP5 SUB SLT ISZERO PUSH3 0xEBD JUMPI PUSH1 0x0 DUP1 REVERT JUMPDEST POP MLOAD SWAP2 SWAP1 POP JUMP JUMPDEST PUSH1 0x1F DUP3 GT ISZERO PUSH3 0xF12 JUMPI PUSH1 0x0 DUP2 DUP2 MSTORE PUSH1 0x20 DUP2 KECCAK256 PUSH1 0x1F DUP6 ADD PUSH1 0x5 SHR DUP2 ADD PUSH1 0x20 DUP7 LT ISZERO PUSH3 0xEED JUMPI POP DUP1 JUMPDEST PUSH1 0x1F DUP6 ADD PUSH1 0x5 SHR DUP3 ADD SWAP2 POP JUMPDEST DUP2 DUP2 LT ISZERO PUSH3 0xF0E JUMPI DUP3 DUP2 SSTORE PUSH1 0x1 ADD PUSH3 0xEF9 JUMP JUMPDEST POP POP POP JUMPDEST POP POP POP JUMP JUMPDEST DUP2 MLOAD PUSH8 0xFFFFFFFFFFFFFFFF DUP2 GT ISZERO PUSH3 0xF34 JUMPI PUSH3 0xF34 PUSH3 0x92E JUMP JUMPDEST PUSH3 0xF4C DUP2 PUSH3 0xF45 DUP5 SLOAD PUSH3 0xD40 JUMP JUMPDEST DUP5 PUSH3 0xEC4 JUMP JUMPDEST PUSH1 0x20 DUP1 PUSH1 0x1F DUP4 GT PUSH1 0x1 DUP2 EQ PUSH3 0xF84 JUMPI PUSH1 0x0 DUP5 ISZERO PUSH3 0xF6B JUMPI POP DUP6 DUP4 ADD MLOAD JUMPDEST PUSH1 0x0 NOT PUSH1 0x3 DUP7 SWAP1 SHL SHR NOT AND PUSH1 0x1 DUP6 SWAP1 SHL OR DUP6 SSTORE PUSH3 0xF0E JUMP JUMPDEST PUSH1 0x0 DUP6 DUP2 MSTORE PUSH1 0x20 DUP2 KECCAK256 PUSH1 0x1F NOT DUP7 AND SWAP2 JUMPDEST DUP3 DUP2 LT ISZERO PUSH3 0xFB5 JUMPI DUP9 DUP7 ADD MLOAD DUP3 SSTORE SWAP5 DUP5 ADD SWAP5 PUSH1 0x1 SWAP1 SWAP2 ADD SWAP1 DUP5 ADD PUSH3 0xF94 JUMP JUMPDEST POP DUP6 DUP3 LT ISZERO PUSH3 0xFD4 JUMPI DUP8 DUP6 ADD MLOAD PUSH1 0x0 NOT PUSH1 0x3 DUP9 SWAP1 SHL PUSH1 0xF8 AND SHR NOT AND DUP2 SSTORE JUMPDEST POP POP POP POP POP PUSH1 0x1 SWAP1 DUP2 SHL ADD SWAP1 SSTORE POP JUMP JUMPDEST PUSH1 0x0 PUSH1 0x20 DUP1 DUP4 DUP6 SUB SLT ISZERO PUSH3 0xFF8 JUMPI PUSH1 0x0 DUP1 REVERT JUMPDEST DUP3 MLOAD PUSH8 0xFFFFFFFFFFFFFFFF DUP1 DUP3 GT ISZERO PUSH3 0x1011 JUMPI PUSH1 0x0 DUP1 REVERT JUMPDEST DUP2 DUP6 ADD SWAP2 POP DUP6 PUSH1 0x1F DUP4 ADD SLT PUSH3 0x1026 JUMPI PUSH1 0x0 DUP1 REVERT JUMPDEST DUP2 MLOAD PUSH3 0x1037 PUSH3 0x9C6 DUP3 PUSH3 0xAE2 JUMP JUMPDEST DUP2 DUP2 MSTORE PUSH1 0x5 SWAP2 SWAP1 SWAP2 SHL DUP4 ADD DUP5 ADD SWAP1 DUP5 DUP2 ADD SWAP1 DUP9 DUP4 GT ISZERO PUSH3 0x1057 JUMPI PUSH1 0x0 DUP1 REVERT JUMPDEST DUP6 DUP6 ADD JUMPDEST DUP4 DUP2 LT ISZERO PUSH3 0x10D5 JUMPI DUP1 MLOAD DUP6 DUP2 GT ISZERO PUSH3 0x1075 JUMPI PUSH1 0x0 DUP1 DUP2 REVERT JUMPDEST DUP7 ADD PUSH1 0x3F DUP2 ADD DUP12 SGT PUSH3 0x1088 JUMPI PUSH1 0x0 DUP1 DUP2 REVERT JUMPDEST DUP8 DUP2 ADD MLOAD PUSH1 0x40 PUSH3 0x109D PUSH3 0x9C6 DUP4 PUSH3 0x978 JUMP JUMPDEST DUP3 DUP2 MSTORE DUP14 DUP3 DUP5 DUP7 ADD ADD GT ISZERO PUSH3 0x10B3 JUMPI PUSH1 0x0 DUP1 DUP2 REVERT JUMPDEST PUSH3 0x10C4 DUP4 DUP13 DUP4 ADD DUP5 DUP8 ADD PUSH3 0xC13 JUMP JUMPDEST DUP7 MSTORE POP POP POP SWAP2 DUP7 ADD SWAP2 DUP7 ADD PUSH3 0x105B JUMP JUMPDEST POP SWAP9 SWAP8 POP POP POP POP POP POP POP POP JUMP INVALID PUSH2 0x100 PUSH1 0x40 MSTORE CALLVALUE DUP1 ISZERO PUSH3 0x12 JUMPI PUSH1 0x0 DUP1 REVERT JUMPDEST POP PUSH1 0x40 MLOAD PUSH3 0x3C11 CODESIZE SUB DUP1 PUSH3 0x3C11 DUP4 CODECOPY DUP2 ADD PUSH1 0x40 DUP2 SWAP1 MSTORE PUSH3 0x35 SWAP2 PUSH3 0xCB8 JUMP JUMPDEST DUP6 DUP6 DUP6 PUSH3 0x43 CALLER PUSH3 0x100 JUMP JUMPDEST PUSH1 0x3 PUSH3 0x51 DUP5 DUP3 PUSH3 0xE0F JUMP JUMPDEST POP PUSH1 0x4 PUSH3 0x60 DUP4 DUP3 PUSH3 0xE0F JUMP JUMPDEST POP PUSH1 0x12 DUP2 PUSH1 0xFF AND LT ISZERO PUSH3 0x87 JUMPI PUSH1 0x40 MLOAD PUSH4 0x98790FD5 PUSH1 0xE0 SHL DUP2 MSTORE PUSH1 0x4 ADD PUSH1 0x40 MLOAD DUP1 SWAP2 SUB SWAP1 REVERT JUMPDEST PUSH1 0xFF DUP2 AND PUSH1 0x80 DUP2 SWAP1 MSTORE PUSH3 0x9D SWAP1 PUSH1 0xA PUSH3 0xFEE JUMP JUMPDEST PUSH1 0xA0 MSTORE CHAINID PUSH1 0xC0 MSTORE PUSH3 0xAE PUSH3 0x150 JUMP JUMPDEST PUSH1 0xE0 MSTORE POP PUSH1 0xF SWAP2 POP PUSH3 0xC4 SWAP1 POP DUP3 DUP3 PUSH3 0xE0F JUMP JUMPDEST POP PUSH3 0xD2 DUP3 PUSH1 0x1 PUSH3 0x1EC JUMP JUMPDEST DUP3 ISZERO PUSH3 0xF4 JUMPI PUSH3 0xF4 DUP3 PUSH1 0xA0 MLOAD DUP6 PUSH3 0xEE SWAP2 SWAP1 PUSH3 0x1006 JUMP JUMPDEST PUSH3 0x262 JUMP JUMPDEST POP POP POP POP POP POP PUSH3 0x1135 JUMP JUMPDEST PUSH1 0x0 DUP1 SLOAD PUSH1 0x1 PUSH1 0x1 PUSH1 0xA0 SHL SUB DUP4 DUP2 AND PUSH1 0x1 PUSH1 0x1 PUSH1 0xA0 SHL SUB NOT DUP4 AND DUP2 OR DUP5 SSTORE PUSH1 0x40 MLOAD SWAP2 SWAP1 SWAP3 AND SWAP3 DUP4 SWAP2 PUSH32 0x8BE0079C531659141344CD1FD0A4F28419497F9722A3DAAFE3B4186F6B6457E0 SWAP2 SWAP1 LOG3 POP POP JUMP JUMPDEST PUSH1 0x0 PUSH32 0x8B73C3C69BB8FE3D512ECC4CF759CC79239F7B179B0FFACAA9A75D522B39400F PUSH1 0x3 PUSH1 0x40 MLOAD PUSH3 0x184 SWAP2 SWAP1 PUSH3 0x1020 JUMP JUMPDEST PUSH1 0x40 DUP1 MLOAD SWAP2 DUP3 SWAP1 SUB DUP3 KECCAK256 PUSH1 0x20 DUP4 ADD SWAP4 SWAP1 SWAP4 MSTORE DUP2 ADD SWAP2 SWAP1 SWAP2 MSTORE PUSH32 0xC89EFDAA54C0F20C7ADF612882DF0950F5A951637E0307CDCB4C672F298B8BC6 PUSH1 0x60 DUP3 ADD MSTORE CHAINID PUSH1 0x80 DUP3 ADD MSTORE ADDRESS PUSH1 0xA0 DUP3 ADD MSTORE PUSH1 0xC0 ADD PUSH1 0x40 MLOAD PUSH1 0x20 DUP2 DUP4 SUB SUB DUP2 MSTORE SWAP1 PUSH1 0x40 MSTORE DUP1 MLOAD SWAP1 PUSH1 0x20 ADD KECCAK256 SWAP1 POP SWAP1 JUMP JUMPDEST PUSH1 0x1 PUSH1 0x1 PUSH1 0xA0 SHL SUB DUP3 AND PUSH3 0x214 JUMPI PUSH1 0x40 MLOAD PUSH4 0xA41E3D3F PUSH1 0xE0 SHL DUP2 MSTORE PUSH1 0x4 ADD PUSH1 0x40 MLOAD DUP1 SWAP2 SUB SWAP1 REVERT JUMPDEST DUP1 ISZERO PUSH3 0x22C JUMPI PUSH3 0x226 DUP3 PUSH3 0x2D2 JUMP JUMPDEST PUSH3 0x237 JUMP JUMPDEST PUSH3 0x237 DUP3 PUSH3 0x30A JUMP JUMPDEST PUSH1 0x1 PUSH1 0x1 PUSH1 0xA0 SHL SUB SWAP2 SWAP1 SWAP2 AND PUSH1 0x0 SWAP1 DUP2 MSTORE PUSH1 0xD PUSH1 0x20 MSTORE PUSH1 0x40 SWAP1 KECCAK256 DUP1 SLOAD PUSH1 0xFF NOT AND SWAP2 ISZERO ISZERO SWAP2 SWAP1 SWAP2 OR SWAP1 SSTORE JUMP JUMPDEST PUSH1 0x1 PUSH1 0x1 PUSH1 0xA0 SHL SUB DUP3 AND PUSH3 0x28A JUMPI PUSH1 0x40 MLOAD PUSH4 0x4E469669 PUSH1 0xE1 SHL DUP2 MSTORE PUSH1 0x4 ADD PUSH1 0x40 MLOAD DUP1 SWAP2 SUB SWAP1 REVERT JUMPDEST PUSH1 0x1 PUSH1 0xFF SHL DUP2 PUSH1 0x5 SLOAD PUSH3 0x29F SWAP2 SWAP1 PUSH3 0x109E JUMP JUMPDEST GT ISZERO PUSH3 0x2BF JUMPI PUSH1 0x40 MLOAD PUSH4 0x303B682F PUSH1 0xE0 SHL DUP2 MSTORE PUSH1 0x4 ADD PUSH1 0x40 MLOAD DUP1 SWAP2 SUB SWAP1 REVERT JUMPDEST PUSH3 0x2CD PUSH1 0x0 DUP4 DUP4 PUSH3 0x393 JUMP JUMPDEST POP POP POP JUMP JUMPDEST PUSH1 0x1 PUSH1 0x1 PUSH1 0xA0 SHL SUB DUP2 AND PUSH1 0x0 SWAP1 DUP2 MSTORE PUSH1 0xC PUSH1 0x20 MSTORE PUSH1 0x40 DUP2 KECCAK256 SLOAD SWAP1 JUMPDEST DUP2 DUP2 LT ISZERO PUSH3 0x2CD JUMPI PUSH3 0x301 DUP4 PUSH3 0x642 JUMP JUMPDEST PUSH1 0x1 ADD PUSH3 0x2ED JUMP JUMPDEST PUSH1 0xA0 MLOAD PUSH1 0x0 SWAP1 PUSH3 0x330 DUP4 PUSH1 0x1 PUSH1 0x1 PUSH1 0xA0 SHL SUB AND PUSH1 0x0 SWAP1 DUP2 MSTORE PUSH1 0x7 PUSH1 0x20 MSTORE PUSH1 0x40 SWAP1 KECCAK256 SLOAD SWAP1 JUMP JUMPDEST PUSH3 0x33C SWAP2 SWAP1 PUSH3 0x10B4 JUMP JUMPDEST SWAP1 POP PUSH1 0x0 PUSH3 0x360 DUP4 PUSH1 0x1 PUSH1 0x1 PUSH1 0xA0 SHL SUB AND PUSH1 0x0 SWAP1 DUP2 MSTORE PUSH1 0xC PUSH1 0x20 MSTORE PUSH1 0x40 SWAP1 KECCAK256 SLOAD SWAP1 JUMP JUMPDEST SWAP1 POP PUSH1 0x0 JUMPDEST PUSH3 0x371 DUP3 DUP5 PUSH3 0x10D7 JUMP JUMPDEST DUP2 LT ISZERO PUSH3 0x38D JUMPI PUSH3 0x384 DUP5 PUSH3 0x6D7 JUMP JUMPDEST PUSH1 0x1 ADD PUSH3 0x365 JUMP JUMPDEST POP POP POP POP JUMP JUMPDEST PUSH1 0x1 PUSH1 0x1 PUSH1 0xA0 SHL SUB DUP4 DUP2 AND PUSH1 0x0 SWAP1 DUP2 MSTORE PUSH1 0x7 PUSH1 0x20 MSTORE PUSH1 0x40 DUP1 DUP3 KECCAK256 SLOAD SWAP3 DUP6 AND DUP3 MSTORE DUP2 KECCAK256 SLOAD SWAP1 SWAP2 SWAP1 PUSH3 0x3C6 DUP7 DUP7 DUP7 PUSH3 0x7CD JUMP JUMPDEST PUSH1 0x0 PUSH3 0x3D3 DUP8 PUSH3 0x87F JUMP JUMPDEST SWAP1 POP PUSH1 0x0 PUSH3 0x3E2 DUP8 PUSH3 0x87F JUMP JUMPDEST SWAP1 POP DUP2 DUP1 ISZERO PUSH3 0x3EF JUMPI POP DUP1 JUMPDEST PUSH3 0x634 JUMPI DUP2 ISZERO PUSH3 0x46B JUMPI PUSH1 0x0 PUSH1 0xA0 MLOAD DUP5 PUSH3 0x40D SWAP2 SWAP1 PUSH3 0x10B4 JUMP JUMPDEST PUSH1 0xA0 MLOAD PUSH1 0x1 PUSH1 0x1 PUSH1 0xA0 SHL SUB DUP11 AND PUSH1 0x0 SWAP1 DUP2 MSTORE PUSH1 0x7 PUSH1 0x20 MSTORE PUSH1 0x40 SWAP1 KECCAK256 SLOAD PUSH3 0x435 SWAP2 SWAP1 PUSH3 0x10B4 JUMP JUMPDEST PUSH3 0x441 SWAP2 SWAP1 PUSH3 0x10D7 JUMP JUMPDEST SWAP1 POP PUSH1 0x0 JUMPDEST DUP2 DUP2 LT ISZERO PUSH3 0x463 JUMPI PUSH3 0x45A DUP10 PUSH3 0x6D7 JUMP JUMPDEST PUSH1 0x1 ADD PUSH3 0x446 JUMP JUMPDEST POP POP PUSH3 0x634 JUMP JUMPDEST DUP1 ISZERO PUSH3 0x4D8 JUMPI PUSH1 0xA0 MLOAD PUSH1 0x1 PUSH1 0x1 PUSH1 0xA0 SHL SUB DUP10 AND PUSH1 0x0 SWAP1 DUP2 MSTORE PUSH1 0x7 PUSH1 0x20 MSTORE PUSH1 0x40 DUP2 KECCAK256 SLOAD SWAP1 SWAP2 PUSH3 0x49B SWAP2 PUSH3 0x10B4 JUMP JUMPDEST PUSH1 0xA0 MLOAD PUSH3 0x4AA SWAP1 DUP8 PUSH3 0x10B4 JUMP JUMPDEST PUSH3 0x4B6 SWAP2 SWAP1 PUSH3 0x10D7 JUMP JUMPDEST SWAP1 POP PUSH1 0x0 JUMPDEST DUP2 DUP2 LT ISZERO PUSH3 0x463 JUMPI PUSH3 0x4CF DUP11 PUSH3 0x642 JUMP JUMPDEST PUSH1 0x1 ADD PUSH3 0x4BB JUMP JUMPDEST PUSH1 0x0 PUSH1 0xA0 MLOAD DUP8 PUSH3 0x4EA SWAP2 SWAP1 PUSH3 0x10B4 JUMP JUMPDEST SWAP1 POP PUSH1 0x0 JUMPDEST DUP2 DUP2 LT ISZERO PUSH3 0x57C JUMPI PUSH1 0x1 PUSH1 0x1 PUSH1 0xA0 SHL SUB DUP11 AND PUSH1 0x0 SWAP1 DUP2 MSTORE PUSH1 0xC PUSH1 0x20 MSTORE PUSH1 0x40 DUP2 KECCAK256 SLOAD PUSH3 0x51F SWAP1 PUSH1 0x1 SWAP1 PUSH3 0x10D7 JUMP JUMPDEST PUSH1 0x1 PUSH1 0x1 PUSH1 0xA0 SHL SUB DUP13 AND PUSH1 0x0 SWAP1 DUP2 MSTORE PUSH1 0xC PUSH1 0x20 MSTORE PUSH1 0x40 DUP2 KECCAK256 DUP1 SLOAD SWAP3 SWAP4 POP SWAP1 SWAP2 DUP4 SWAP1 DUP2 LT PUSH3 0x551 JUMPI PUSH3 0x551 PUSH3 0x10ED JUMP JUMPDEST SWAP1 PUSH1 0x0 MSTORE PUSH1 0x20 PUSH1 0x0 KECCAK256 ADD SLOAD SWAP1 POP PUSH3 0x571 DUP13 DUP13 DUP4 PUSH3 0x8B6 PUSH1 0x20 SHL PUSH1 0x20 SHR JUMP JUMPDEST POP POP PUSH1 0x1 ADD PUSH3 0x4EF JUMP JUMPDEST POP PUSH1 0xA0 MLOAD DUP2 SWAP1 PUSH3 0x5A2 DUP12 PUSH1 0x1 PUSH1 0x1 PUSH1 0xA0 SHL SUB AND PUSH1 0x0 SWAP1 DUP2 MSTORE PUSH1 0x7 PUSH1 0x20 MSTORE PUSH1 0x40 SWAP1 KECCAK256 SLOAD SWAP1 JUMP JUMPDEST PUSH3 0x5AE SWAP2 SWAP1 PUSH3 0x10B4 JUMP JUMPDEST PUSH1 0xA0 MLOAD PUSH3 0x5BD SWAP1 DUP9 PUSH3 0x10B4 JUMP JUMPDEST PUSH3 0x5C9 SWAP2 SWAP1 PUSH3 0x10D7 JUMP JUMPDEST GT ISZERO PUSH3 0x5DB JUMPI PUSH3 0x5DB DUP10 PUSH3 0x642 JUMP JUMPDEST DUP1 PUSH1 0xA0 MLOAD DUP6 PUSH3 0x5EC SWAP2 SWAP1 PUSH3 0x10B4 JUMP JUMPDEST PUSH1 0xA0 MLOAD PUSH1 0x1 PUSH1 0x1 PUSH1 0xA0 SHL SUB DUP12 AND PUSH1 0x0 SWAP1 DUP2 MSTORE PUSH1 0x7 PUSH1 0x20 MSTORE PUSH1 0x40 SWAP1 KECCAK256 SLOAD PUSH3 0x614 SWAP2 SWAP1 PUSH3 0x10B4 JUMP JUMPDEST PUSH3 0x620 SWAP2 SWAP1 PUSH3 0x10D7 JUMP JUMPDEST GT ISZERO PUSH3 0x632 JUMPI PUSH3 0x632 DUP9 PUSH3 0x6D7 JUMP JUMPDEST POP JUMPDEST POP PUSH1 0x1 SWAP8 SWAP7 POP POP POP POP POP POP POP JUMP JUMPDEST PUSH1 0x1 PUSH1 0x1 PUSH1 0xA0 SHL SUB DUP2 AND PUSH3 0x66A JUMPI PUSH1 0x40 MLOAD PUSH4 0x6EDAEF2F PUSH1 0xE1 SHL DUP2 MSTORE PUSH1 0x4 ADD PUSH1 0x40 MLOAD DUP1 SWAP2 SUB SWAP1 REVERT JUMPDEST PUSH1 0x1 PUSH1 0x1 PUSH1 0xA0 SHL SUB DUP2 AND PUSH1 0x0 SWAP1 DUP2 MSTORE PUSH1 0xC PUSH1 0x20 MSTORE PUSH1 0x40 DUP2 KECCAK256 DUP1 SLOAD PUSH3 0x692 SWAP1 PUSH1 0x1 SWAP1 PUSH3 0x10D7 JUMP JUMPDEST DUP2 SLOAD DUP2 LT PUSH3 0x6A5 JUMPI PUSH3 0x6A5 PUSH3 0x10ED JUMP JUMPDEST SWAP1 PUSH1 0x0 MSTORE PUSH1 0x20 PUSH1 0x0 KECCAK256 ADD SLOAD SWAP1 POP PUSH3 0x6C6 DUP3 PUSH1 0x0 DUP4 PUSH3 0x8B6 PUSH1 0x20 SHL PUSH1 0x20 SHR JUMP JUMPDEST PUSH3 0x6D3 PUSH1 0x1 DUP3 PUSH3 0xA92 JUMP JUMPDEST POP POP JUMP JUMPDEST PUSH1 0x1 PUSH1 0x1 PUSH1 0xA0 SHL SUB DUP2 AND PUSH3 0x6FF JUMPI PUSH1 0x40 MLOAD PUSH4 0x4E469669 PUSH1 0xE1 SHL DUP2 MSTORE PUSH1 0x4 ADD PUSH1 0x40 MLOAD DUP1 SWAP2 SUB SWAP1 REVERT JUMPDEST PUSH1 0x0 PUSH3 0x720 PUSH1 0x1 SLOAD PUSH1 0x1 PUSH1 0x80 SHL DUP2 DIV PUSH1 0x1 PUSH1 0x1 PUSH1 0x80 SHL SUB SWAP1 DUP2 AND SWAP2 AND EQ SWAP1 JUMP JUMPDEST PUSH3 0x739 JUMPI PUSH3 0x731 PUSH1 0x1 PUSH3 0xAFD JUMP JUMPDEST SWAP1 POP PUSH3 0x788 JUMP JUMPDEST PUSH1 0x6 PUSH1 0x0 DUP2 SLOAD PUSH3 0x74A SWAP1 PUSH3 0x1103 JUMP JUMPDEST SWAP1 SWAP2 SSTORE POP PUSH1 0x6 SLOAD PUSH1 0x1 ADD PUSH3 0x772 JUMPI PUSH1 0x40 MLOAD PUSH4 0x303B682F PUSH1 0xE0 SHL DUP2 MSTORE PUSH1 0x4 ADD PUSH1 0x40 MLOAD DUP1 SWAP2 SUB SWAP1 REVERT JUMPDEST PUSH1 0x6 SLOAD PUSH3 0x785 SWAP1 PUSH1 0x1 PUSH1 0xFF SHL PUSH3 0x109E JUMP JUMPDEST SWAP1 POP JUMPDEST PUSH1 0x0 DUP2 DUP2 MSTORE PUSH1 0xB PUSH1 0x20 MSTORE PUSH1 0x40 SWAP1 KECCAK256 SLOAD PUSH1 0x1 PUSH1 0x1 PUSH1 0xA0 SHL SUB AND DUP1 ISZERO PUSH3 0x7C0 JUMPI PUSH1 0x40 MLOAD PUSH4 0x119B4FD3 PUSH1 0xE1 SHL DUP2 MSTORE PUSH1 0x4 ADD PUSH1 0x40 MLOAD DUP1 SWAP2 SUB SWAP1 REVERT JUMPDEST PUSH3 0x2CD DUP2 DUP5 DUP5 PUSH3 0x8B6 JUMP JUMPDEST PUSH1 0x1 PUSH1 0x1 PUSH1 0xA0 SHL SUB DUP4 AND PUSH3 0x7FC JUMPI DUP1 PUSH1 0x5 PUSH1 0x0 DUP3 DUP3 SLOAD PUSH3 0x7F0 SWAP2 SWAP1 PUSH3 0x109E JUMP JUMPDEST SWAP1 SWAP2 SSTORE POP PUSH3 0x82C SWAP1 POP JUMP JUMPDEST PUSH1 0x1 PUSH1 0x1 PUSH1 0xA0 SHL SUB DUP4 AND PUSH1 0x0 SWAP1 DUP2 MSTORE PUSH1 0x7 PUSH1 0x20 MSTORE PUSH1 0x40 DUP2 KECCAK256 DUP1 SLOAD DUP4 SWAP3 SWAP1 PUSH3 0x826 SWAP1 DUP5 SWAP1 PUSH3 0x10D7 JUMP JUMPDEST SWAP1 SWAP2 SSTORE POP POP JUMPDEST PUSH1 0x1 PUSH1 0x1 PUSH1 0xA0 SHL SUB DUP1 DUP4 AND PUSH1 0x0 DUP2 DUP2 MSTORE PUSH1 0x7 PUSH1 0x20 MSTORE PUSH1 0x40 SWAP1 DUP2 SWAP1 KECCAK256 DUP1 SLOAD DUP6 ADD SWAP1 SSTORE MLOAD SWAP1 SWAP2 DUP6 AND SWAP1 PUSH1 0x0 DUP1 MLOAD PUSH1 0x20 PUSH3 0x3BF1 DUP4 CODECOPY DUP2 MLOAD SWAP2 MSTORE SWAP1 PUSH3 0x872 SWAP1 DUP6 DUP2 MSTORE PUSH1 0x20 ADD SWAP1 JUMP JUMPDEST PUSH1 0x40 MLOAD DUP1 SWAP2 SUB SWAP1 LOG3 POP POP POP JUMP JUMPDEST PUSH1 0x0 PUSH1 0x1 PUSH1 0x1 PUSH1 0xA0 SHL SUB DUP3 AND ISZERO DUP1 PUSH3 0x8B0 JUMPI POP PUSH1 0x1 PUSH1 0x1 PUSH1 0xA0 SHL SUB DUP3 AND PUSH1 0x0 SWAP1 DUP2 MSTORE PUSH1 0xD PUSH1 0x20 MSTORE PUSH1 0x40 SWAP1 KECCAK256 SLOAD PUSH1 0xFF AND JUMPDEST SWAP3 SWAP2 POP POP JUMP JUMPDEST PUSH1 0x1 PUSH1 0x1 PUSH1 0xA0 SHL SUB DUP4 AND ISZERO PUSH3 0x9D0 JUMPI PUSH1 0x0 DUP2 DUP2 MSTORE PUSH1 0x9 PUSH1 0x20 SWAP1 DUP2 MSTORE PUSH1 0x40 DUP1 DUP4 KECCAK256 DUP1 SLOAD PUSH1 0x1 PUSH1 0x1 PUSH1 0xA0 SHL SUB NOT AND SWAP1 SSTORE PUSH1 0x1 PUSH1 0x1 PUSH1 0xA0 SHL SUB DUP7 AND DUP4 MSTORE PUSH1 0xC SWAP1 SWAP2 MSTORE DUP2 KECCAK256 DUP1 SLOAD PUSH3 0x908 SWAP1 PUSH1 0x1 SWAP1 PUSH3 0x10D7 JUMP JUMPDEST DUP2 SLOAD DUP2 LT PUSH3 0x91B JUMPI PUSH3 0x91B PUSH3 0x10ED JUMP JUMPDEST SWAP1 PUSH1 0x0 MSTORE PUSH1 0x20 PUSH1 0x0 KECCAK256 ADD SLOAD SWAP1 POP DUP2 DUP2 EQ PUSH3 0x98E JUMPI PUSH1 0x0 DUP3 DUP2 MSTORE PUSH1 0xB PUSH1 0x20 MSTORE PUSH1 0x40 DUP2 KECCAK256 SLOAD PUSH1 0xA0 SHR PUSH1 0x1 PUSH1 0x1 PUSH1 0xA0 SHL SUB DUP7 AND PUSH1 0x0 SWAP1 DUP2 MSTORE PUSH1 0xC PUSH1 0x20 MSTORE PUSH1 0x40 SWAP1 KECCAK256 DUP1 SLOAD SWAP2 SWAP3 POP DUP4 SWAP2 DUP4 SWAP1 DUP2 LT PUSH3 0x974 JUMPI PUSH3 0x974 PUSH3 0x10ED JUMP JUMPDEST PUSH1 0x0 SWAP2 DUP3 MSTORE PUSH1 0x20 SWAP1 SWAP2 KECCAK256 ADD SSTORE PUSH3 0x98C DUP3 DUP3 PUSH3 0xB6E JUMP JUMPDEST POP JUMPDEST PUSH1 0x1 PUSH1 0x1 PUSH1 0xA0 SHL SUB DUP5 AND PUSH1 0x0 SWAP1 DUP2 MSTORE PUSH1 0xC PUSH1 0x20 MSTORE PUSH1 0x40 SWAP1 KECCAK256 DUP1 SLOAD DUP1 PUSH3 0x9B8 JUMPI PUSH3 0x9B8 PUSH3 0x111F JUMP JUMPDEST PUSH1 0x1 SWAP1 SUB DUP2 DUP2 SWAP1 PUSH1 0x0 MSTORE PUSH1 0x20 PUSH1 0x0 KECCAK256 ADD PUSH1 0x0 SWAP1 SSTORE SWAP1 SSTORE POP JUMPDEST PUSH1 0x1 PUSH1 0x1 PUSH1 0xA0 SHL SUB DUP3 AND ISZERO PUSH3 0xA4D JUMPI PUSH1 0x0 DUP2 DUP2 MSTORE PUSH1 0xB PUSH1 0x20 SWAP1 DUP2 MSTORE PUSH1 0x40 DUP1 DUP4 KECCAK256 DUP1 SLOAD PUSH1 0x1 PUSH1 0x1 PUSH1 0xA0 SHL SUB NOT AND PUSH1 0x1 PUSH1 0x1 PUSH1 0xA0 SHL SUB DUP8 AND SWAP1 DUP2 ADD SWAP1 SWAP2 SSTORE DUP1 DUP5 MSTORE PUSH1 0xC DUP4 MSTORE SWAP1 DUP4 KECCAK256 DUP1 SLOAD PUSH1 0x1 DUP2 DUP2 ADD DUP4 SSTORE DUP3 DUP7 MSTORE SWAP4 DUP6 KECCAK256 ADD DUP6 SWAP1 SSTORE SWAP3 MSTORE SWAP1 SLOAD PUSH3 0xA47 SWAP2 DUP4 SWAP2 PUSH3 0xA41 SWAP2 SWAP1 PUSH3 0x10D7 JUMP JUMPDEST PUSH3 0xB6E JUMP JUMPDEST PUSH3 0xA5D JUMP JUMPDEST PUSH1 0x0 DUP2 DUP2 MSTORE PUSH1 0xB PUSH1 0x20 MSTORE PUSH1 0x40 DUP2 KECCAK256 SSTORE JUMPDEST DUP1 DUP3 PUSH1 0x1 PUSH1 0x1 PUSH1 0xA0 SHL SUB AND DUP5 PUSH1 0x1 PUSH1 0x1 PUSH1 0xA0 SHL SUB AND PUSH1 0x0 DUP1 MLOAD PUSH1 0x20 PUSH3 0x3BF1 DUP4 CODECOPY DUP2 MLOAD SWAP2 MSTORE PUSH1 0x40 MLOAD PUSH1 0x40 MLOAD DUP1 SWAP2 SUB SWAP1 LOG4 POP POP POP JUMP JUMPDEST DUP2 SLOAD PUSH1 0x1 PUSH1 0x1 PUSH1 0x80 SHL SUB DUP1 DUP3 AND PUSH1 0x0 NOT ADD SWAP2 PUSH1 0x1 PUSH1 0x80 SHL SWAP1 DIV DUP2 AND SWAP1 DUP3 AND SUB PUSH3 0xACF JUMPI PUSH1 0x40 MLOAD PUSH4 0x8ACB5F27 PUSH1 0xE0 SHL DUP2 MSTORE PUSH1 0x4 ADD PUSH1 0x40 MLOAD DUP1 SWAP2 SUB SWAP1 REVERT JUMPDEST PUSH1 0x1 PUSH1 0x1 PUSH1 0x80 SHL SUB AND PUSH1 0x0 DUP2 DUP2 MSTORE PUSH1 0x1 DUP5 ADD PUSH1 0x20 MSTORE PUSH1 0x40 SWAP1 KECCAK256 SWAP2 SWAP1 SWAP2 SSTORE DUP2 SLOAD PUSH1 0x1 PUSH1 0x1 PUSH1 0x80 SHL SUB NOT AND OR SWAP1 SSTORE JUMP JUMPDEST DUP1 SLOAD PUSH1 0x0 SWAP1 PUSH1 0x1 PUSH1 0x1 PUSH1 0x80 SHL SUB PUSH1 0x1 PUSH1 0x80 SHL DUP3 DIV DUP2 AND SWAP2 AND DUP2 SUB PUSH3 0xB35 JUMPI PUSH1 0x40 MLOAD PUSH4 0x75E52F4F PUSH1 0xE0 SHL DUP2 MSTORE PUSH1 0x4 ADD PUSH1 0x40 MLOAD DUP1 SWAP2 SUB SWAP1 REVERT JUMPDEST PUSH1 0x0 NOT ADD PUSH1 0x1 PUSH1 0x1 PUSH1 0x80 SHL SUB SWAP1 DUP2 AND PUSH1 0x0 DUP2 DUP2 MSTORE PUSH1 0x1 DUP6 ADD PUSH1 0x20 MSTORE PUSH1 0x40 DUP2 KECCAK256 DUP1 SLOAD SWAP2 SWAP1 SSTORE DUP5 SLOAD SWAP1 SWAP3 AND PUSH1 0x1 PUSH1 0x80 SHL SWAP1 SWAP2 MUL OR SWAP1 SWAP3 SSTORE POP SWAP1 JUMP JUMPDEST PUSH1 0x0 DUP3 DUP2 MSTORE PUSH1 0xB PUSH1 0x20 MSTORE PUSH1 0x40 SWAP1 KECCAK256 SLOAD PUSH1 0x1 PUSH1 0x1 PUSH1 0x60 SHL SUB DUP3 GT ISZERO PUSH3 0xBA6 JUMPI PUSH1 0x40 MLOAD PUSH4 0x3F2CD0E3 PUSH1 0xE2 SHL DUP2 MSTORE PUSH1 0x4 ADD PUSH1 0x40 MLOAD DUP1 SWAP2 SUB SWAP1 REVERT JUMPDEST PUSH1 0x0 SWAP3 DUP4 MSTORE PUSH1 0xB PUSH1 0x20 MSTORE PUSH1 0x40 SWAP1 SWAP3 KECCAK256 PUSH1 0x1 PUSH1 0x1 PUSH1 0xA0 SHL SUB SWAP3 SWAP1 SWAP3 AND PUSH1 0xA0 SWAP2 SWAP1 SWAP2 SHL PUSH1 0x1 PUSH1 0x1 PUSH1 0xA0 SHL SUB NOT AND ADD SWAP1 SSTORE JUMP JUMPDEST PUSH4 0x4E487B71 PUSH1 0xE0 SHL PUSH1 0x0 MSTORE PUSH1 0x41 PUSH1 0x4 MSTORE PUSH1 0x24 PUSH1 0x0 REVERT JUMPDEST PUSH1 0x0 DUP3 PUSH1 0x1F DUP4 ADD SLT PUSH3 0xBFE JUMPI PUSH1 0x0 DUP1 REVERT JUMPDEST DUP2 MLOAD PUSH1 0x1 PUSH1 0x1 PUSH1 0x40 SHL SUB DUP1 DUP3 GT ISZERO PUSH3 0xC1B JUMPI PUSH3 0xC1B PUSH3 0xBD6 JUMP JUMPDEST PUSH1 0x40 MLOAD PUSH1 0x1F DUP4 ADD PUSH1 0x1F NOT SWAP1 DUP2 AND PUSH1 0x3F ADD AND DUP2 ADD SWAP1 DUP3 DUP3 GT DUP2 DUP4 LT OR ISZERO PUSH3 0xC46 JUMPI PUSH3 0xC46 PUSH3 0xBD6 JUMP JUMPDEST DUP2 PUSH1 0x40 MSTORE DUP4 DUP2 MSTORE PUSH1 0x20 SWAP3 POP DUP7 DUP4 DUP6 DUP9 ADD ADD GT ISZERO PUSH3 0xC63 JUMPI PUSH1 0x0 DUP1 REVERT JUMPDEST PUSH1 0x0 SWAP2 POP JUMPDEST DUP4 DUP3 LT ISZERO PUSH3 0xC87 JUMPI DUP6 DUP3 ADD DUP4 ADD MLOAD DUP2 DUP4 ADD DUP5 ADD MSTORE SWAP1 DUP3 ADD SWAP1 PUSH3 0xC68 JUMP JUMPDEST PUSH1 0x0 SWAP4 DUP2 ADD SWAP1 SWAP3 ADD SWAP3 SWAP1 SWAP3 MSTORE SWAP5 SWAP4 POP POP POP POP JUMP JUMPDEST DUP1 MLOAD PUSH1 0x1 PUSH1 0x1 PUSH1 0xA0 SHL SUB DUP2 AND DUP2 EQ PUSH3 0xCB3 JUMPI PUSH1 0x0 DUP1 REVERT JUMPDEST SWAP2 SWAP1 POP JUMP JUMPDEST PUSH1 0x0 DUP1 PUSH1 0x0 DUP1 PUSH1 0x0 DUP1 PUSH1 0xC0 DUP8 DUP10 SUB SLT ISZERO PUSH3 0xCD2 JUMPI PUSH1 0x0 DUP1 REVERT JUMPDEST DUP7 MLOAD PUSH1 0x1 PUSH1 0x1 PUSH1 0x40 SHL SUB DUP1 DUP3 GT ISZERO PUSH3 0xCEA JUMPI PUSH1 0x0 DUP1 REVERT JUMPDEST PUSH3 0xCF8 DUP11 DUP4 DUP12 ADD PUSH3 0xBEC JUMP JUMPDEST SWAP8 POP PUSH1 0x20 DUP10 ADD MLOAD SWAP2 POP DUP1 DUP3 GT ISZERO PUSH3 0xD0F JUMPI PUSH1 0x0 DUP1 REVERT JUMPDEST PUSH3 0xD1D DUP11 DUP4 DUP12 ADD PUSH3 0xBEC JUMP JUMPDEST SWAP7 POP PUSH1 0x40 DUP10 ADD MLOAD SWAP2 POP PUSH1 0xFF DUP3 AND DUP3 EQ PUSH3 0xD36 JUMPI PUSH1 0x0 DUP1 REVERT JUMPDEST DUP2 SWAP6 POP PUSH1 0x60 DUP10 ADD MLOAD SWAP5 POP PUSH3 0xD4E PUSH1 0x80 DUP11 ADD PUSH3 0xC9B JUMP JUMPDEST SWAP4 POP PUSH1 0xA0 DUP10 ADD MLOAD SWAP2 POP DUP1 DUP3 GT ISZERO PUSH3 0xD65 JUMPI PUSH1 0x0 DUP1 REVERT JUMPDEST POP PUSH3 0xD74 DUP10 DUP3 DUP11 ADD PUSH3 0xBEC JUMP JUMPDEST SWAP2 POP POP SWAP3 SWAP6 POP SWAP3 SWAP6 POP SWAP3 SWAP6 JUMP JUMPDEST PUSH1 0x1 DUP2 DUP2 SHR SWAP1 DUP3 AND DUP1 PUSH3 0xD96 JUMPI PUSH1 0x7F DUP3 AND SWAP2 POP JUMPDEST PUSH1 0x20 DUP3 LT DUP2 SUB PUSH3 0xDB7 JUMPI PUSH4 0x4E487B71 PUSH1 0xE0 SHL PUSH1 0x0 MSTORE PUSH1 0x22 PUSH1 0x4 MSTORE PUSH1 0x24 PUSH1 0x0 REVERT JUMPDEST POP SWAP2 SWAP1 POP JUMP JUMPDEST PUSH1 0x1F DUP3 GT ISZERO PUSH3 0x2CD JUMPI PUSH1 0x0 DUP2 DUP2 MSTORE PUSH1 0x20 DUP2 KECCAK256 PUSH1 0x1F DUP6 ADD PUSH1 0x5 SHR DUP2 ADD PUSH1 0x20 DUP7 LT ISZERO PUSH3 0xDE6 JUMPI POP DUP1 JUMPDEST PUSH1 0x1F DUP6 ADD PUSH1 0x5 SHR DUP3 ADD SWAP2 POP JUMPDEST DUP2 DUP2 LT ISZERO PUSH3 0xE07 JUMPI DUP3 DUP2 SSTORE PUSH1 0x1 ADD PUSH3 0xDF2 JUMP JUMPDEST POP POP POP POP POP POP JUMP JUMPDEST DUP2 MLOAD PUSH1 0x1 PUSH1 0x1 PUSH1 0x40 SHL SUB DUP2 GT ISZERO PUSH3 0xE2B JUMPI PUSH3 0xE2B PUSH3 0xBD6 JUMP JUMPDEST PUSH3 0xE43 DUP2 PUSH3 0xE3C DUP5 SLOAD PUSH3 0xD81 JUMP JUMPDEST DUP5 PUSH3 0xDBD JUMP JUMPDEST PUSH1 0x20 DUP1 PUSH1 0x1F DUP4 GT PUSH1 0x1 DUP2 EQ PUSH3 0xE7B JUMPI PUSH1 0x0 DUP5 ISZERO PUSH3 0xE62 JUMPI POP DUP6 DUP4 ADD MLOAD JUMPDEST PUSH1 0x0 NOT PUSH1 0x3 DUP7 SWAP1 SHL SHR NOT AND PUSH1 0x1 DUP6 SWAP1 SHL OR DUP6 SSTORE PUSH3 0xE07 JUMP JUMPDEST PUSH1 0x0 DUP6 DUP2 MSTORE PUSH1 0x20 DUP2 KECCAK256 PUSH1 0x1F NOT DUP7 AND SWAP2 JUMPDEST DUP3 DUP2 LT ISZERO PUSH3 0xEAC JUMPI DUP9 DUP7 ADD MLOAD DUP3 SSTORE SWAP5 DUP5 ADD SWAP5 PUSH1 0x1 SWAP1 SWAP2 ADD SWAP1 DUP5 ADD PUSH3 0xE8B JUMP JUMPDEST POP DUP6 DUP3 LT ISZERO PUSH3 0xECB JUMPI DUP8 DUP6 ADD MLOAD PUSH1 0x0 NOT PUSH1 0x3 DUP9 SWAP1 SHL PUSH1 0xF8 AND SHR NOT AND DUP2 SSTORE JUMPDEST POP POP POP POP POP PUSH1 0x1 SWAP1 DUP2 SHL ADD SWAP1 SSTORE POP JUMP JUMPDEST PUSH4 0x4E487B71 PUSH1 0xE0 SHL PUSH1 0x0 MSTORE PUSH1 0x11 PUSH1 0x4 MSTORE PUSH1 0x24 PUSH1 0x0 REVERT JUMPDEST PUSH1 0x1 DUP2 DUP2 JUMPDEST DUP1 DUP6 GT ISZERO PUSH3 0xF32 JUMPI DUP2 PUSH1 0x0 NOT DIV DUP3 GT ISZERO PUSH3 0xF16 JUMPI PUSH3 0xF16 PUSH3 0xEDB JUMP JUMPDEST DUP1 DUP6 AND ISZERO PUSH3 0xF24 JUMPI SWAP2 DUP2 MUL SWAP2 JUMPDEST SWAP4 DUP5 SHR SWAP4 SWAP1 DUP1 MUL SWAP1 PUSH3 0xEF6 JUMP JUMPDEST POP SWAP3 POP SWAP3 SWAP1 POP JUMP JUMPDEST PUSH1 0x0 DUP3 PUSH3 0xF4B JUMPI POP PUSH1 0x1 PUSH3 0x8B0 JUMP JUMPDEST DUP2 PUSH3 0xF5A JUMPI POP PUSH1 0x0 PUSH3 0x8B0 JUMP JUMPDEST DUP2 PUSH1 0x1 DUP2 EQ PUSH3 0xF73 JUMPI PUSH1 0x2 DUP2 EQ PUSH3 0xF7E JUMPI PUSH3 0xF9E JUMP JUMPDEST PUSH1 0x1 SWAP2 POP POP PUSH3 0x8B0 JUMP JUMPDEST PUSH1 0xFF DUP5 GT ISZERO PUSH3 0xF92 JUMPI PUSH3 0xF92 PUSH3 0xEDB JUMP JUMPDEST POP POP PUSH1 0x1 DUP3 SHL PUSH3 0x8B0 JUMP JUMPDEST POP PUSH1 0x20 DUP4 LT PUSH2 0x133 DUP4 LT AND PUSH1 0x4E DUP5 LT PUSH1 0xB DUP5 LT AND OR ISZERO PUSH3 0xFC3 JUMPI POP DUP2 DUP2 EXP PUSH3 0x8B0 JUMP JUMPDEST PUSH3 0xFCF DUP4 DUP4 PUSH3 0xEF1 JUMP JUMPDEST DUP1 PUSH1 0x0 NOT DIV DUP3 GT ISZERO PUSH3 0xFE6 JUMPI PUSH3 0xFE6 PUSH3 0xEDB JUMP JUMPDEST MUL SWAP4 SWAP3 POP POP POP JUMP JUMPDEST PUSH1 0x0 PUSH3 0xFFF PUSH1 0xFF DUP5 AND DUP4 PUSH3 0xF3A JUMP JUMPDEST SWAP4 SWAP3 POP POP POP JUMP JUMPDEST DUP1 DUP3 MUL DUP2 ISZERO DUP3 DUP3 DIV DUP5 EQ OR PUSH3 0x8B0 JUMPI PUSH3 0x8B0 PUSH3 0xEDB JUMP JUMPDEST PUSH1 0x0 DUP1 DUP4 SLOAD PUSH3 0x1030 DUP2 PUSH3 0xD81 JUMP JUMPDEST PUSH1 0x1 DUP3 DUP2 AND DUP1 ISZERO PUSH3 0x104B JUMPI PUSH1 0x1 DUP2 EQ PUSH3 0x1061 JUMPI PUSH3 0x1092 JUMP JUMPDEST PUSH1 0xFF NOT DUP5 AND DUP8 MSTORE DUP3 ISZERO ISZERO DUP4 MUL DUP8 ADD SWAP5 POP PUSH3 0x1092 JUMP JUMPDEST DUP8 PUSH1 0x0 MSTORE PUSH1 0x20 DUP1 PUSH1 0x0 KECCAK256 PUSH1 0x0 JUMPDEST DUP6 DUP2 LT ISZERO PUSH3 0x1089 JUMPI DUP2 SLOAD DUP11 DUP3 ADD MSTORE SWAP1 DUP5 ADD SWAP1 DUP3 ADD PUSH3 0x106E JUMP JUMPDEST POP POP POP DUP3 DUP8 ADD SWAP5 POP JUMPDEST POP SWAP3 SWAP7 SWAP6 POP POP POP POP POP POP JUMP JUMPDEST DUP1 DUP3 ADD DUP1 DUP3 GT ISZERO PUSH3 0x8B0 JUMPI PUSH3 0x8B0 PUSH3 0xEDB JUMP JUMPDEST PUSH1 0x0 DUP3 PUSH3 0x10D2 JUMPI PUSH4 0x4E487B71 PUSH1 0xE0 SHL PUSH1 0x0 MSTORE PUSH1 0x12 PUSH1 0x4 MSTORE PUSH1 0x24 PUSH1 0x0 REVERT JUMPDEST POP DIV SWAP1 JUMP JUMPDEST DUP2 DUP2 SUB DUP2 DUP2 GT ISZERO PUSH3 0x8B0 JUMPI PUSH3 0x8B0 PUSH3 0xEDB JUMP JUMPDEST PUSH4 0x4E487B71 PUSH1 0xE0 SHL PUSH1 0x0 MSTORE PUSH1 0x32 PUSH1 0x4 MSTORE PUSH1 0x24 PUSH1 0x0 REVERT JUMPDEST PUSH1 0x0 PUSH1 0x1 DUP3 ADD PUSH3 0x1118 JUMPI PUSH3 0x1118 PUSH3 0xEDB JUMP JUMPDEST POP PUSH1 0x1 ADD SWAP1 JUMP JUMPDEST PUSH4 0x4E487B71 PUSH1 0xE0 SHL PUSH1 0x0 MSTORE PUSH1 0x31 PUSH1 0x4 MSTORE PUSH1 0x24 PUSH1 0x0 REVERT JUMPDEST PUSH1 0x80 MLOAD PUSH1 0xA0 MLOAD PUSH1 0xC0 MLOAD PUSH1 0xE0 MLOAD PUSH2 0x2A2E PUSH3 0x11C3 PUSH1 0x0 CODECOPY PUSH1 0x0 PUSH2 0x94D ADD MSTORE PUSH1 0x0 PUSH2 0x91D ADD MSTORE PUSH1 0x0 DUP2 DUP2 PUSH2 0x4E5 ADD MSTORE DUP2 DUP2 PUSH2 0x8A4 ADD MSTORE DUP2 DUP2 PUSH2 0x1243 ADD MSTORE DUP2 DUP2 PUSH2 0x16F3 ADD MSTORE DUP2 DUP2 PUSH2 0x1737 ADD MSTORE DUP2 DUP2 PUSH2 0x17B0 ADD MSTORE DUP2 DUP2 PUSH2 0x17DA ADD MSTORE DUP2 DUP2 PUSH2 0x182E ADD MSTORE DUP2 DUP2 PUSH2 0x18DA ADD MSTORE DUP2 DUP2 PUSH2 0x1927 ADD MSTORE DUP2 DUP2 PUSH2 0x196B ADD MSTORE DUP2 DUP2 PUSH2 0x1992 ADD MSTORE PUSH2 0x1DE8 ADD MSTORE PUSH1 0x0 PUSH2 0x3BB ADD MSTORE PUSH2 0x2A2E PUSH1 0x0 RETURN INVALID PUSH1 0x80 PUSH1 0x40 MSTORE CALLVALUE DUP1 ISZERO PUSH2 0x10 JUMPI PUSH1 0x0 DUP1 REVERT JUMPDEST POP PUSH1 0x4 CALLDATASIZE LT PUSH2 0x274 JUMPI PUSH1 0x0 CALLDATALOAD PUSH1 0xE0 SHR DUP1 PUSH4 0x89FB4C66 GT PUSH2 0x151 JUMPI DUP1 PUSH4 0xC6E672B9 GT PUSH2 0xC3 JUMPI DUP1 PUSH4 0xDD637699 GT PUSH2 0x87 JUMPI DUP1 PUSH4 0xDD637699 EQ PUSH2 0x608 JUMPI DUP1 PUSH4 0xDFABC033 EQ PUSH2 0x61B JUMPI DUP1 PUSH4 0xE985E9C5 EQ PUSH2 0x62E JUMPI DUP1 PUSH4 0xEAC989F8 EQ PUSH2 0x65C JUMPI DUP1 PUSH4 0xF2FDE38B EQ PUSH2 0x664 JUMPI DUP1 PUSH4 0xF780BC1A EQ PUSH2 0x677 JUMPI PUSH1 0x0 DUP1 REVERT JUMPDEST DUP1 PUSH4 0xC6E672B9 EQ PUSH2 0x591 JUMPI DUP1 PUSH4 0xC87B56DD EQ PUSH2 0x5A4 JUMPI DUP1 PUSH4 0xD505ACCF EQ PUSH2 0x5B7 JUMPI DUP1 PUSH4 0xD96CA0B9 EQ PUSH2 0x5CA JUMPI DUP1 PUSH4 0xDD62ED3E EQ PUSH2 0x5DD JUMPI PUSH1 0x0 DUP1 REVERT JUMPDEST DUP1 PUSH4 0xA22CB465 GT PUSH2 0x115 JUMPI DUP1 PUSH4 0xA22CB465 EQ PUSH2 0x507 JUMPI DUP1 PUSH4 0xA9059CBB EQ PUSH2 0x51A JUMPI DUP1 PUSH4 0xB1AB9317 EQ PUSH2 0x52D JUMPI DUP1 PUSH4 0xB3F9EA34 EQ PUSH2 0x54D JUMPI DUP1 PUSH4 0xB88D4FDE EQ PUSH2 0x576 JUMPI DUP1 PUSH4 0xC5AB3BA6 EQ PUSH2 0x589 JUMPI PUSH1 0x0 DUP1 REVERT JUMPDEST DUP1 PUSH4 0x89FB4C66 EQ PUSH2 0x4AC JUMPI DUP1 PUSH4 0x8A696E50 EQ PUSH2 0x4B4 JUMPI DUP1 PUSH4 0x8DA5CB5B EQ PUSH2 0x4C7 JUMPI DUP1 PUSH4 0x95D89B41 EQ PUSH2 0x4D8 JUMPI DUP1 PUSH4 0x976A8435 EQ PUSH2 0x4E0 JUMPI PUSH1 0x0 DUP1 REVERT JUMPDEST DUP1 PUSH4 0x313CE567 GT PUSH2 0x1EA JUMPI DUP1 PUSH4 0x6352211E GT PUSH2 0x1AE JUMPI DUP1 PUSH4 0x6352211E EQ PUSH2 0x426 JUMPI DUP1 PUSH4 0x6367DA9C EQ PUSH2 0x439 JUMPI DUP1 PUSH4 0x6E8F624B EQ PUSH2 0x459 JUMPI DUP1 PUSH4 0x70A08231 EQ PUSH2 0x464 JUMPI DUP1 PUSH4 0x715018A6 EQ PUSH2 0x484 JUMPI DUP1 PUSH4 0x7ECEBE00 EQ PUSH2 0x48C JUMPI PUSH1 0x0 DUP1 REVERT JUMPDEST DUP1 PUSH4 0x313CE567 EQ PUSH2 0x3B6 JUMPI DUP1 PUSH4 0x3644E515 EQ PUSH2 0x3EF JUMPI DUP1 PUSH4 0x42842E0E EQ PUSH2 0x3F7 JUMPI DUP1 PUSH4 0x4D966072 EQ PUSH2 0x40A JUMPI DUP1 PUSH4 0x4F02C420 EQ PUSH2 0x41D JUMPI PUSH1 0x0 DUP1 REVERT JUMPDEST DUP1 PUSH4 0x9674EB0 GT PUSH2 0x23C JUMPI DUP1 PUSH4 0x9674EB0 EQ PUSH2 0x341 JUMPI DUP1 PUSH4 0x9F0EF65 EQ PUSH2 0x349 JUMPI DUP1 PUSH4 0x18160DDD EQ PUSH2 0x35C JUMPI DUP1 PUSH4 0x21EFF7FC EQ PUSH2 0x365 JUMPI DUP1 PUSH4 0x23B872DD EQ PUSH2 0x38E JUMPI DUP1 PUSH4 0x25C03C8A EQ PUSH2 0x3A1 JUMPI PUSH1 0x0 DUP1 REVERT JUMPDEST DUP1 PUSH4 0x1FFC9A7 EQ PUSH2 0x279 JUMPI DUP1 PUSH4 0x2519DA3 EQ PUSH2 0x2A1 JUMPI DUP1 PUSH4 0x6FDDE03 EQ PUSH2 0x2D8 JUMPI DUP1 PUSH4 0x81812FC EQ PUSH2 0x2ED JUMPI DUP1 PUSH4 0x95EA7B3 EQ PUSH2 0x32E JUMPI JUMPDEST PUSH1 0x0 DUP1 REVERT JUMPDEST PUSH2 0x28C PUSH2 0x287 CALLDATASIZE PUSH1 0x4 PUSH2 0x21FD JUMP JUMPDEST PUSH2 0x68A JUMP JUMPDEST PUSH1 0x40 MLOAD SWAP1 ISZERO ISZERO DUP2 MSTORE PUSH1 0x20 ADD JUMPDEST PUSH1 0x40 MLOAD DUP1 SWAP2 SUB SWAP1 RETURN JUMPDEST PUSH2 0x2CA PUSH2 0x2AF CALLDATASIZE PUSH1 0x4 PUSH2 0x2231 JUMP JUMPDEST PUSH1 0x1 PUSH1 0x1 PUSH1 0xA0 SHL SUB AND PUSH1 0x0 SWAP1 DUP2 MSTORE PUSH1 0x7 PUSH1 0x20 MSTORE PUSH1 0x40 SWAP1 KECCAK256 SLOAD SWAP1 JUMP JUMPDEST PUSH1 0x40 MLOAD SWAP1 DUP2 MSTORE PUSH1 0x20 ADD PUSH2 0x298 JUMP JUMPDEST PUSH2 0x2E0 PUSH2 0x6C1 JUMP JUMPDEST PUSH1 0x40 MLOAD PUSH2 0x298 SWAP2 SWAP1 PUSH2 0x229C JUMP JUMPDEST PUSH2 0x316 PUSH2 0x2FB CALLDATASIZE PUSH1 0x4 PUSH2 0x22AF JUMP JUMPDEST PUSH1 0x9 PUSH1 0x20 MSTORE PUSH1 0x0 SWAP1 DUP2 MSTORE PUSH1 0x40 SWAP1 KECCAK256 SLOAD PUSH1 0x1 PUSH1 0x1 PUSH1 0xA0 SHL SUB AND DUP2 JUMP JUMPDEST PUSH1 0x40 MLOAD PUSH1 0x1 PUSH1 0x1 PUSH1 0xA0 SHL SUB SWAP1 SWAP2 AND DUP2 MSTORE PUSH1 0x20 ADD PUSH2 0x298 JUMP JUMPDEST PUSH2 0x28C PUSH2 0x33C CALLDATASIZE PUSH1 0x4 PUSH2 0x22C8 JUMP JUMPDEST PUSH2 0x74F JUMP JUMPDEST PUSH2 0x2CA PUSH2 0x788 JUMP JUMPDEST PUSH2 0x28C PUSH2 0x357 CALLDATASIZE PUSH1 0x4 PUSH2 0x2231 JUMP JUMPDEST PUSH2 0x7B2 JUMP JUMPDEST PUSH2 0x2CA PUSH1 0x5 SLOAD DUP2 JUMP JUMPDEST PUSH2 0x2CA PUSH2 0x373 CALLDATASIZE PUSH1 0x4 PUSH2 0x2231 JUMP JUMPDEST PUSH1 0x1 PUSH1 0x1 PUSH1 0xA0 SHL SUB AND PUSH1 0x0 SWAP1 DUP2 MSTORE PUSH1 0x10 PUSH1 0x20 MSTORE PUSH1 0x40 SWAP1 KECCAK256 SLOAD SWAP1 JUMP JUMPDEST PUSH2 0x28C PUSH2 0x39C CALLDATASIZE PUSH1 0x4 PUSH2 0x22F2 JUMP JUMPDEST PUSH2 0x7E4 JUMP JUMPDEST PUSH2 0x3B4 PUSH2 0x3AF CALLDATASIZE PUSH1 0x4 PUSH2 0x23CD JUMP JUMPDEST PUSH2 0x821 JUMP JUMPDEST STOP JUMPDEST PUSH2 0x3DD PUSH32 0x0 DUP2 JUMP JUMPDEST PUSH1 0x40 MLOAD PUSH1 0xFF SWAP1 SWAP2 AND DUP2 MSTORE PUSH1 0x20 ADD PUSH2 0x298 JUMP JUMPDEST PUSH2 0x2CA PUSH2 0x919 JUMP JUMPDEST PUSH2 0x3B4 PUSH2 0x405 CALLDATASIZE PUSH1 0x4 PUSH2 0x22F2 JUMP JUMPDEST PUSH2 0x96F JUMP JUMPDEST PUSH2 0x28C PUSH2 0x418 CALLDATASIZE PUSH1 0x4 PUSH2 0x22C8 JUMP JUMPDEST PUSH2 0x98F JUMP JUMPDEST PUSH2 0x2CA PUSH1 0x6 SLOAD DUP2 JUMP JUMPDEST PUSH2 0x316 PUSH2 0x434 CALLDATASIZE PUSH1 0x4 PUSH2 0x22AF JUMP JUMPDEST PUSH2 0xA1C JUMP JUMPDEST PUSH2 0x44C PUSH2 0x447 CALLDATASIZE PUSH1 0x4 PUSH2 0x2231 JUMP JUMPDEST PUSH2 0xA86 JUMP JUMPDEST PUSH1 0x40 MLOAD PUSH2 0x298 SWAP2 SWAP1 PUSH2 0x24B9 JUMP JUMPDEST PUSH2 0x2CA PUSH1 0x1 PUSH1 0xFF SHL DUP2 JUMP JUMPDEST PUSH2 0x2CA PUSH2 0x472 CALLDATASIZE PUSH1 0x4 PUSH2 0x2231 JUMP JUMPDEST PUSH1 0x7 PUSH1 0x20 MSTORE PUSH1 0x0 SWAP1 DUP2 MSTORE PUSH1 0x40 SWAP1 KECCAK256 SLOAD DUP2 JUMP JUMPDEST PUSH2 0x3B4 PUSH2 0xB75 JUMP JUMPDEST PUSH2 0x2CA PUSH2 0x49A CALLDATASIZE PUSH1 0x4 PUSH2 0x2231 JUMP JUMPDEST PUSH1 0xE PUSH1 0x20 MSTORE PUSH1 0x0 SWAP1 DUP2 MSTORE PUSH1 0x40 SWAP1 KECCAK256 SLOAD DUP2 JUMP JUMPDEST PUSH1 0x5 SLOAD PUSH2 0x2CA JUMP JUMPDEST PUSH2 0x3B4 PUSH2 0x4C2 CALLDATASIZE PUSH1 0x4 PUSH2 0x252B JUMP JUMPDEST PUSH2 0xB89 JUMP JUMPDEST PUSH1 0x0 SLOAD PUSH1 0x1 PUSH1 0x1 PUSH1 0xA0 SHL SUB AND PUSH2 0x316 JUMP JUMPDEST PUSH2 0x2E0 PUSH2 0xB96 JUMP JUMPDEST PUSH2 0x2CA PUSH32 0x0 DUP2 JUMP JUMPDEST PUSH2 0x3B4 PUSH2 0x515 CALLDATASIZE PUSH1 0x4 PUSH2 0x2546 JUMP JUMPDEST PUSH2 0xBA3 JUMP JUMPDEST PUSH2 0x28C PUSH2 0x528 CALLDATASIZE PUSH1 0x4 PUSH2 0x22C8 JUMP JUMPDEST PUSH2 0xC36 JUMP JUMPDEST PUSH2 0x540 PUSH2 0x53B CALLDATASIZE PUSH1 0x4 PUSH2 0x2231 JUMP JUMPDEST PUSH2 0xC6A JUMP JUMPDEST PUSH1 0x40 MLOAD PUSH2 0x298 SWAP2 SWAP1 PUSH2 0x2579 JUMP JUMPDEST PUSH2 0x2CA PUSH2 0x55B CALLDATASIZE PUSH1 0x4 PUSH2 0x2231 JUMP JUMPDEST PUSH1 0x1 PUSH1 0x1 PUSH1 0xA0 SHL SUB AND PUSH1 0x0 SWAP1 DUP2 MSTORE PUSH1 0xC PUSH1 0x20 MSTORE PUSH1 0x40 SWAP1 KECCAK256 SLOAD SWAP1 JUMP JUMPDEST PUSH2 0x3B4 PUSH2 0x584 CALLDATASIZE PUSH1 0x4 PUSH2 0x25BD JUMP JUMPDEST PUSH2 0xCD6 JUMP JUMPDEST PUSH1 0x6 SLOAD PUSH2 0x2CA JUMP JUMPDEST PUSH2 0x3B4 PUSH2 0x59F CALLDATASIZE PUSH1 0x4 PUSH2 0x2546 JUMP JUMPDEST PUSH2 0xDC4 JUMP JUMPDEST PUSH2 0x2E0 PUSH2 0x5B2 CALLDATASIZE PUSH1 0x4 PUSH2 0x22AF JUMP JUMPDEST PUSH2 0xDDA JUMP JUMPDEST PUSH2 0x3B4 PUSH2 0x5C5 CALLDATASIZE PUSH1 0x4 PUSH2 0x2639 JUMP JUMPDEST PUSH2 0xE0E JUMP JUMPDEST PUSH2 0x28C PUSH2 0x5D8 CALLDATASIZE PUSH1 0x4 PUSH2 0x22F2 JUMP JUMPDEST PUSH2 0x1051 JUMP JUMPDEST PUSH2 0x2CA PUSH2 0x5EB CALLDATASIZE PUSH1 0x4 PUSH2 0x26AC JUMP JUMPDEST PUSH1 0x8 PUSH1 0x20 SWAP1 DUP2 MSTORE PUSH1 0x0 SWAP3 DUP4 MSTORE PUSH1 0x40 DUP1 DUP5 KECCAK256 SWAP1 SWAP2 MSTORE SWAP1 DUP3 MSTORE SWAP1 KECCAK256 SLOAD DUP2 JUMP JUMPDEST PUSH2 0x3B4 PUSH2 0x616 CALLDATASIZE PUSH1 0x4 PUSH2 0x22F2 JUMP JUMPDEST PUSH2 0x1111 JUMP JUMPDEST PUSH2 0x3B4 PUSH2 0x629 CALLDATASIZE PUSH1 0x4 PUSH2 0x22C8 JUMP JUMPDEST PUSH2 0x1272 JUMP JUMPDEST PUSH2 0x28C PUSH2 0x63C CALLDATASIZE PUSH1 0x4 PUSH2 0x26AC JUMP JUMPDEST PUSH1 0xA PUSH1 0x20 SWAP1 DUP2 MSTORE PUSH1 0x0 SWAP3 DUP4 MSTORE PUSH1 0x40 DUP1 DUP5 KECCAK256 SWAP1 SWAP2 MSTORE SWAP1 DUP3 MSTORE SWAP1 KECCAK256 SLOAD PUSH1 0xFF AND DUP2 JUMP JUMPDEST PUSH2 0x2E0 PUSH2 0x1337 JUMP JUMPDEST PUSH2 0x3B4 PUSH2 0x672 CALLDATASIZE PUSH1 0x4 PUSH2 0x2231 JUMP JUMPDEST PUSH2 0x1344 JUMP JUMPDEST PUSH2 0x540 PUSH2 0x685 CALLDATASIZE PUSH1 0x4 PUSH2 0x26D6 JUMP JUMPDEST PUSH2 0x13BF JUMP JUMPDEST PUSH1 0x0 PUSH1 0x1 PUSH1 0x1 PUSH1 0xE0 SHL SUB NOT DUP3 AND PUSH4 0xCAF91FF5 PUSH1 0xE0 SHL EQ DUP1 PUSH2 0x6BB JUMPI POP PUSH1 0x1 PUSH1 0x1 PUSH1 0xE0 SHL SUB NOT DUP3 AND PUSH4 0x1FFC9A7 PUSH1 0xE0 SHL EQ JUMPDEST SWAP3 SWAP2 POP POP JUMP JUMPDEST PUSH1 0x3 DUP1 SLOAD PUSH2 0x6CE SWAP1 PUSH2 0x26F8 JUMP JUMPDEST DUP1 PUSH1 0x1F ADD PUSH1 0x20 DUP1 SWAP2 DIV MUL PUSH1 0x20 ADD PUSH1 0x40 MLOAD SWAP1 DUP2 ADD PUSH1 0x40 MSTORE DUP1 SWAP3 SWAP2 SWAP1 DUP2 DUP2 MSTORE PUSH1 0x20 ADD DUP3 DUP1 SLOAD PUSH2 0x6FA SWAP1 PUSH2 0x26F8 JUMP JUMPDEST DUP1 ISZERO PUSH2 0x747 JUMPI DUP1 PUSH1 0x1F LT PUSH2 0x71C JUMPI PUSH2 0x100 DUP1 DUP4 SLOAD DIV MUL DUP4 MSTORE SWAP2 PUSH1 0x20 ADD SWAP2 PUSH2 0x747 JUMP JUMPDEST DUP3 ADD SWAP2 SWAP1 PUSH1 0x0 MSTORE PUSH1 0x20 PUSH1 0x0 KECCAK256 SWAP1 JUMPDEST DUP2 SLOAD DUP2 MSTORE SWAP1 PUSH1 0x1 ADD SWAP1 PUSH1 0x20 ADD DUP1 DUP4 GT PUSH2 0x72A JUMPI DUP3 SWAP1 SUB PUSH1 0x1F AND DUP3 ADD SWAP2 JUMPDEST POP POP POP POP POP DUP2 JUMP JUMPDEST PUSH1 0x0 PUSH2 0x75A DUP3 PUSH2 0x145C JUMP JUMPDEST ISZERO PUSH2 0x76E JUMPI PUSH2 0x769 DUP4 DUP4 PUSH2 0x1272 JUMP JUMPDEST PUSH2 0x77F JUMP JUMPDEST PUSH2 0x778 DUP4 DUP4 PUSH2 0x98F JUMP JUMPDEST SWAP1 POP PUSH2 0x6BB JUMP JUMPDEST POP PUSH1 0x1 SWAP3 SWAP2 POP POP JUMP JUMPDEST PUSH1 0x0 PUSH2 0x7AD PUSH1 0x1 SLOAD PUSH1 0x1 PUSH1 0x1 PUSH1 0x80 SHL SUB DUP1 DUP3 AND PUSH1 0x1 PUSH1 0x80 SHL SWAP1 SWAP3 DIV DUP2 AND SWAP2 SWAP1 SWAP2 SUB AND SWAP1 JUMP JUMPDEST SWAP1 POP SWAP1 JUMP JUMPDEST PUSH1 0x0 PUSH1 0x1 PUSH1 0x1 PUSH1 0xA0 SHL SUB DUP3 AND ISZERO DUP1 PUSH2 0x6BB JUMPI POP POP PUSH1 0x1 PUSH1 0x1 PUSH1 0xA0 SHL SUB AND PUSH1 0x0 SWAP1 DUP2 MSTORE PUSH1 0xD PUSH1 0x20 MSTORE PUSH1 0x40 SWAP1 KECCAK256 SLOAD PUSH1 0xFF AND SWAP1 JUMP JUMPDEST PUSH1 0x0 PUSH2 0x7EF DUP3 PUSH2 0x145C JUMP JUMPDEST ISZERO PUSH2 0x804 JUMPI PUSH2 0x7FF DUP5 DUP5 DUP5 PUSH2 0x1111 JUMP JUMPDEST PUSH2 0x816 JUMP JUMPDEST PUSH2 0x80F DUP5 DUP5 DUP5 PUSH2 0x1051 JUMP JUMPDEST SWAP1 POP PUSH2 0x81A JUMP JUMPDEST POP PUSH1 0x1 JUMPDEST SWAP4 SWAP3 POP POP POP JUMP JUMPDEST PUSH2 0x829 PUSH2 0x1475 JUMP JUMPDEST PUSH1 0x0 JUMPDEST DUP2 MLOAD DUP2 LT ISZERO PUSH2 0x89D JUMPI PUSH1 0x1 PUSH1 0x1 PUSH1 0xA0 SHL SUB DUP4 AND PUSH1 0x0 SWAP1 DUP2 MSTORE PUSH1 0x10 PUSH1 0x20 MSTORE PUSH1 0x40 SWAP1 KECCAK256 DUP3 MLOAD DUP4 SWAP1 DUP4 SWAP1 DUP2 LT PUSH2 0x861 JUMPI PUSH2 0x861 PUSH2 0x2732 JUMP JUMPDEST PUSH1 0x20 SWAP1 DUP2 MUL SWAP2 SWAP1 SWAP2 ADD DUP2 ADD MLOAD DUP3 SLOAD PUSH1 0x1 DUP2 ADD DUP5 SSTORE PUSH1 0x0 SWAP4 DUP5 MSTORE SWAP2 SWAP1 SWAP3 KECCAK256 ADD SWAP1 PUSH2 0x88A SWAP1 DUP3 PUSH2 0x2796 JUMP JUMPDEST POP DUP1 PUSH2 0x895 DUP2 PUSH2 0x286C JUMP JUMPDEST SWAP2 POP POP PUSH2 0x82C JUMP JUMPDEST POP PUSH2 0x8D4 DUP3 PUSH32 0x0 DUP4 MLOAD PUSH2 0x8CF SWAP2 SWAP1 PUSH2 0x2885 JUMP JUMPDEST PUSH2 0x14CF JUMP JUMPDEST DUP2 PUSH1 0x1 PUSH1 0x1 PUSH1 0xA0 SHL SUB AND PUSH32 0x9DB9873CD0C3E9E21710778297ADB5B1A923B4C4663A32440D58DC743A5478DA DUP3 PUSH1 0x40 MLOAD PUSH2 0x90D SWAP2 SWAP1 PUSH2 0x24B9 JUMP JUMPDEST PUSH1 0x40 MLOAD DUP1 SWAP2 SUB SWAP1 LOG2 POP POP JUMP JUMPDEST PUSH1 0x0 PUSH32 0x0 CHAINID EQ PUSH2 0x94A JUMPI PUSH2 0x7AD PUSH2 0x1534 JUMP JUMPDEST POP PUSH32 0x0 SWAP1 JUMP JUMPDEST PUSH2 0x98A DUP4 DUP4 DUP4 PUSH1 0x40 MLOAD DUP1 PUSH1 0x20 ADD PUSH1 0x40 MSTORE DUP1 PUSH1 0x0 DUP2 MSTORE POP PUSH2 0xCD6 JUMP JUMPDEST POP POP POP JUMP JUMPDEST PUSH1 0x0 PUSH1 0x1 PUSH1 0x1 PUSH1 0xA0 SHL SUB DUP4 AND PUSH2 0x9B8 JUMPI PUSH1 0x40 MLOAD PUSH4 0x5461585F PUSH1 0xE0 SHL DUP2 MSTORE PUSH1 0x4 ADD PUSH1 0x40 MLOAD DUP1 SWAP2 SUB SWAP1 REVERT JUMPDEST CALLER PUSH1 0x0 DUP2 DUP2 MSTORE PUSH1 0x8 PUSH1 0x20 SWAP1 DUP2 MSTORE PUSH1 0x40 DUP1 DUP4 KECCAK256 PUSH1 0x1 PUSH1 0x1 PUSH1 0xA0 SHL SUB DUP9 AND DUP1 DUP6 MSTORE SWAP1 DUP4 MSTORE SWAP3 DUP2 SWAP1 KECCAK256 DUP7 SWAP1 SSTORE MLOAD DUP6 DUP2 MSTORE SWAP2 SWAP3 SWAP2 PUSH32 0x8C5BE1E5EBEC7D5BD14F71427D1E84F3DD0314C0F7B2291E5B200AC8C7C3B925 SWAP2 ADD PUSH1 0x40 MLOAD DUP1 SWAP2 SUB SWAP1 LOG3 POP PUSH1 0x1 SWAP3 SWAP2 POP POP JUMP JUMPDEST PUSH1 0x0 DUP2 DUP2 MSTORE PUSH1 0xB PUSH1 0x20 MSTORE PUSH1 0x40 SWAP1 KECCAK256 SLOAD PUSH1 0x1 PUSH1 0x1 PUSH1 0xA0 SHL SUB AND PUSH2 0xA3D DUP3 PUSH2 0x145C JUMP JUMPDEST PUSH2 0xA5A JUMPI PUSH1 0x40 MLOAD PUSH4 0x7ED98ED PUSH1 0xE3 SHL DUP2 MSTORE PUSH1 0x4 ADD PUSH1 0x40 MLOAD DUP1 SWAP2 SUB SWAP1 REVERT JUMPDEST PUSH1 0x1 PUSH1 0x1 PUSH1 0xA0 SHL SUB DUP2 AND PUSH2 0xA81 JUMPI PUSH1 0x40 MLOAD PUSH4 0xC5723B51 PUSH1 0xE0 SHL DUP2 MSTORE PUSH1 0x4 ADD PUSH1 0x40 MLOAD DUP1 SWAP2 SUB SWAP1 REVERT JUMPDEST SWAP2 SWAP1 POP JUMP JUMPDEST PUSH1 0x1 PUSH1 0x1 PUSH1 0xA0 SHL SUB DUP2 AND PUSH1 0x0 SWAP1 DUP2 MSTORE PUSH1 0x10 PUSH1 0x20 SWAP1 DUP2 MSTORE PUSH1 0x40 DUP1 DUP4 KECCAK256 DUP1 SLOAD DUP3 MLOAD DUP2 DUP6 MUL DUP2 ADD DUP6 ADD SWAP1 SWAP4 MSTORE DUP1 DUP4 MSTORE PUSH1 0x60 SWAP5 SWAP3 SWAP4 SWAP2 SWAP3 SWAP1 SWAP2 DUP5 ADD JUMPDEST DUP3 DUP3 LT ISZERO PUSH2 0xB6A JUMPI DUP4 DUP3 SWAP1 PUSH1 0x0 MSTORE PUSH1 0x20 PUSH1 0x0 KECCAK256 ADD DUP1 SLOAD PUSH2 0xADD SWAP1 PUSH2 0x26F8 JUMP JUMPDEST DUP1 PUSH1 0x1F ADD PUSH1 0x20 DUP1 SWAP2 DIV MUL PUSH1 0x20 ADD PUSH1 0x40 MLOAD SWAP1 DUP2 ADD PUSH1 0x40 MSTORE DUP1 SWAP3 SWAP2 SWAP1 DUP2 DUP2 MSTORE PUSH1 0x20 ADD DUP3 DUP1 SLOAD PUSH2 0xB09 SWAP1 PUSH2 0x26F8 JUMP JUMPDEST DUP1 ISZERO PUSH2 0xB56 JUMPI DUP1 PUSH1 0x1F LT PUSH2 0xB2B JUMPI PUSH2 0x100 DUP1 DUP4 SLOAD DIV MUL DUP4 MSTORE SWAP2 PUSH1 0x20 ADD SWAP2 PUSH2 0xB56 JUMP JUMPDEST DUP3 ADD SWAP2 SWAP1 PUSH1 0x0 MSTORE PUSH1 0x20 PUSH1 0x0 KECCAK256 SWAP1 JUMPDEST DUP2 SLOAD DUP2 MSTORE SWAP1 PUSH1 0x1 ADD SWAP1 PUSH1 0x20 ADD DUP1 DUP4 GT PUSH2 0xB39 JUMPI DUP3 SWAP1 SUB PUSH1 0x1F AND DUP3 ADD SWAP2 JUMPDEST POP POP POP POP POP DUP2 MSTORE PUSH1 0x20 ADD SWAP1 PUSH1 0x1 ADD SWAP1 PUSH2 0xABE JUMP JUMPDEST POP POP POP POP SWAP1 POP SWAP2 SWAP1 POP JUMP JUMPDEST PUSH2 0xB7D PUSH2 0x1475 JUMP JUMPDEST PUSH2 0xB87 PUSH1 0x0 PUSH2 0x15CE JUMP JUMPDEST JUMP JUMPDEST PUSH2 0xB93 CALLER DUP3 PUSH2 0x161E JUMP JUMPDEST POP JUMP JUMPDEST PUSH1 0x4 DUP1 SLOAD PUSH2 0x6CE SWAP1 PUSH2 0x26F8 JUMP JUMPDEST PUSH1 0x1 PUSH1 0x1 PUSH1 0xA0 SHL SUB DUP3 AND PUSH2 0xBCA JUMPI PUSH1 0x40 MLOAD PUSH4 0xCCEA9E6F PUSH1 0xE0 SHL DUP2 MSTORE PUSH1 0x4 ADD PUSH1 0x40 MLOAD DUP1 SWAP2 SUB SWAP1 REVERT JUMPDEST CALLER PUSH1 0x0 DUP2 DUP2 MSTORE PUSH1 0xA PUSH1 0x20 SWAP1 DUP2 MSTORE PUSH1 0x40 DUP1 DUP4 KECCAK256 PUSH1 0x1 PUSH1 0x1 PUSH1 0xA0 SHL SUB DUP8 AND DUP1 DUP6 MSTORE SWAP1 DUP4 MSTORE SWAP3 DUP2 SWAP1 KECCAK256 DUP1 SLOAD PUSH1 0xFF NOT AND DUP7 ISZERO ISZERO SWAP1 DUP2 OR SWAP1 SWAP2 SSTORE SWAP1 MLOAD SWAP1 DUP2 MSTORE SWAP2 SWAP3 SWAP2 PUSH32 0x17307EAB39AB6107E8899845AD3D59BD9653F200F220920489CA2B5937696C31 SWAP2 ADD PUSH1 0x40 MLOAD DUP1 SWAP2 SUB SWAP1 LOG3 POP POP JUMP JUMPDEST PUSH1 0x0 PUSH1 0x1 PUSH1 0x1 PUSH1 0xA0 SHL SUB DUP4 AND PUSH2 0xC5F JUMPI PUSH1 0x40 MLOAD PUSH4 0x4E469669 PUSH1 0xE1 SHL DUP2 MSTORE PUSH1 0x4 ADD PUSH1 0x40 MLOAD DUP1 SWAP2 SUB SWAP1 REVERT JUMPDEST PUSH2 0x81A CALLER DUP5 DUP5 PUSH2 0x168D JUMP JUMPDEST PUSH1 0x1 PUSH1 0x1 PUSH1 0xA0 SHL SUB DUP2 AND PUSH1 0x0 SWAP1 DUP2 MSTORE PUSH1 0xC PUSH1 0x20 SWAP1 DUP2 MSTORE PUSH1 0x40 SWAP2 DUP3 SWAP1 KECCAK256 DUP1 SLOAD DUP4 MLOAD DUP2 DUP5 MUL DUP2 ADD DUP5 ADD SWAP1 SWAP5 MSTORE DUP1 DUP5 MSTORE PUSH1 0x60 SWAP4 SWAP3 DUP4 ADD DUP3 DUP3 DUP1 ISZERO PUSH2 0xCCA JUMPI PUSH1 0x20 MUL DUP3 ADD SWAP2 SWAP1 PUSH1 0x0 MSTORE PUSH1 0x20 PUSH1 0x0 KECCAK256 SWAP1 JUMPDEST DUP2 SLOAD DUP2 MSTORE PUSH1 0x20 ADD SWAP1 PUSH1 0x1 ADD SWAP1 DUP1 DUP4 GT PUSH2 0xCB6 JUMPI JUMPDEST POP POP POP POP POP SWAP1 POP SWAP2 SWAP1 POP JUMP JUMPDEST PUSH2 0xCDF DUP3 PUSH2 0x145C JUMP JUMPDEST PUSH2 0xCFC JUMPI PUSH1 0x40 MLOAD PUSH4 0x7ED98ED PUSH1 0xE3 SHL DUP2 MSTORE PUSH1 0x4 ADD PUSH1 0x40 MLOAD DUP1 SWAP2 SUB SWAP1 REVERT JUMPDEST PUSH2 0xD07 DUP5 DUP5 DUP5 PUSH2 0x7E4 JUMP JUMPDEST POP PUSH1 0x1 PUSH1 0x1 PUSH1 0xA0 SHL SUB DUP4 AND EXTCODESIZE ISZERO DUP1 ISZERO SWAP1 PUSH2 0xDA0 JUMPI POP PUSH1 0x40 MLOAD PUSH4 0xA85BD01 PUSH1 0xE1 SHL DUP1 DUP3 MSTORE SWAP1 PUSH1 0x1 PUSH1 0x1 PUSH1 0xA0 SHL SUB DUP6 AND SWAP1 PUSH4 0x150B7A02 SWAP1 PUSH2 0xD50 SWAP1 CALLER SWAP1 DUP10 SWAP1 DUP9 SWAP1 DUP9 SWAP1 PUSH1 0x4 ADD PUSH2 0x289C JUMP JUMPDEST PUSH1 0x20 PUSH1 0x40 MLOAD DUP1 DUP4 SUB DUP2 PUSH1 0x0 DUP8 GAS CALL ISZERO DUP1 ISZERO PUSH2 0xD6F JUMPI RETURNDATASIZE PUSH1 0x0 DUP1 RETURNDATACOPY RETURNDATASIZE PUSH1 0x0 REVERT JUMPDEST POP POP POP POP PUSH1 0x40 MLOAD RETURNDATASIZE PUSH1 0x1F NOT PUSH1 0x1F DUP3 ADD AND DUP3 ADD DUP1 PUSH1 0x40 MSTORE POP DUP2 ADD SWAP1 PUSH2 0xD93 SWAP2 SWAP1 PUSH2 0x28D9 JUMP JUMPDEST PUSH1 0x1 PUSH1 0x1 PUSH1 0xE0 SHL SUB NOT AND EQ ISZERO JUMPDEST ISZERO PUSH2 0xDBE JUMPI PUSH1 0x40 MLOAD PUSH4 0x3DA63931 PUSH1 0xE0 SHL DUP2 MSTORE PUSH1 0x4 ADD PUSH1 0x40 MLOAD DUP1 SWAP2 SUB SWAP1 REVERT JUMPDEST POP POP POP POP JUMP JUMPDEST PUSH2 0xDCC PUSH2 0x1475 JUMP JUMPDEST PUSH2 0xDD6 DUP3 DUP3 PUSH2 0x161E JUMP JUMPDEST POP POP JUMP JUMPDEST PUSH1 0x60 PUSH1 0xF PUSH2 0xDE7 DUP4 PUSH2 0x1A03 JUMP JUMPDEST PUSH1 0x40 MLOAD PUSH1 0x20 ADD PUSH2 0xDF8 SWAP3 SWAP2 SWAP1 PUSH2 0x2969 JUMP JUMPDEST PUSH1 0x40 MLOAD PUSH1 0x20 DUP2 DUP4 SUB SUB DUP2 MSTORE SWAP1 PUSH1 0x40 MSTORE SWAP1 POP SWAP2 SWAP1 POP JUMP JUMPDEST TIMESTAMP DUP5 LT ISZERO PUSH2 0xE2F JUMPI PUSH1 0x40 MLOAD PUSH4 0x5787BDF PUSH1 0xE0 SHL DUP2 MSTORE PUSH1 0x4 ADD PUSH1 0x40 MLOAD DUP1 SWAP2 SUB SWAP1 REVERT JUMPDEST PUSH2 0xE38 DUP6 PUSH2 0x145C JUMP JUMPDEST ISZERO PUSH2 0xE56 JUMPI PUSH1 0x40 MLOAD PUSH4 0x3E7C1BD PUSH1 0xE3 SHL DUP2 MSTORE PUSH1 0x4 ADD PUSH1 0x40 MLOAD DUP1 SWAP2 SUB SWAP1 REVERT JUMPDEST PUSH1 0x1 PUSH1 0x1 PUSH1 0xA0 SHL SUB DUP7 AND PUSH2 0xE7D JUMPI PUSH1 0x40 MLOAD PUSH4 0x5461585F PUSH1 0xE0 SHL DUP2 MSTORE PUSH1 0x4 ADD PUSH1 0x40 MLOAD DUP1 SWAP2 SUB SWAP1 REVERT JUMPDEST PUSH1 0x0 PUSH1 0x1 PUSH2 0xE89 PUSH2 0x919 JUMP JUMPDEST PUSH1 0x1 PUSH1 0x1 PUSH1 0xA0 SHL SUB DUP11 DUP2 AND PUSH1 0x0 DUP2 DUP2 MSTORE PUSH1 0xE PUSH1 0x20 SWAP1 DUP2 MSTORE PUSH1 0x40 SWAP2 DUP3 SWAP1 KECCAK256 DUP1 SLOAD PUSH1 0x1 DUP2 ADD SWAP1 SWAP2 SSTORE DUP3 MLOAD PUSH32 0x6E71EDAE12B1B97F4D1F60370FEF10105FA2FAAE0126114A169C64845D6126C9 DUP2 DUP5 ADD MSTORE DUP1 DUP5 ADD SWAP5 SWAP1 SWAP5 MSTORE SWAP4 DUP14 AND PUSH1 0x60 DUP5 ADD MSTORE PUSH1 0x80 DUP4 ADD DUP13 SWAP1 MSTORE PUSH1 0xA0 DUP4 ADD SWAP4 SWAP1 SWAP4 MSTORE PUSH1 0xC0 DUP1 DUP4 ADD DUP12 SWAP1 MSTORE DUP2 MLOAD DUP1 DUP5 SUB SWAP1 SWAP2 ADD DUP2 MSTORE PUSH1 0xE0 DUP4 ADD SWAP1 SWAP2 MSTORE DUP1 MLOAD SWAP3 ADD SWAP2 SWAP1 SWAP2 KECCAK256 PUSH2 0x1901 PUSH1 0xF0 SHL PUSH2 0x100 DUP4 ADD MSTORE PUSH2 0x102 DUP3 ADD SWAP3 SWAP1 SWAP3 MSTORE PUSH2 0x122 DUP2 ADD SWAP2 SWAP1 SWAP2 MSTORE PUSH2 0x142 ADD PUSH1 0x40 DUP1 MLOAD PUSH1 0x1F NOT DUP2 DUP5 SUB ADD DUP2 MSTORE DUP3 DUP3 MSTORE DUP1 MLOAD PUSH1 0x20 SWAP2 DUP3 ADD KECCAK256 PUSH1 0x0 DUP5 MSTORE SWAP1 DUP4 ADD DUP1 DUP4 MSTORE MSTORE PUSH1 0xFF DUP8 AND SWAP1 DUP3 ADD MSTORE PUSH1 0x60 DUP2 ADD DUP6 SWAP1 MSTORE PUSH1 0x80 DUP2 ADD DUP5 SWAP1 MSTORE PUSH1 0xA0 ADD PUSH1 0x20 PUSH1 0x40 MLOAD PUSH1 0x20 DUP2 SUB SWAP1 DUP1 DUP5 SUB SWAP1 DUP6 GAS STATICCALL ISZERO DUP1 ISZERO PUSH2 0xF95 JUMPI RETURNDATASIZE PUSH1 0x0 DUP1 RETURNDATACOPY RETURNDATASIZE PUSH1 0x0 REVERT JUMPDEST POP POP PUSH1 0x40 MLOAD PUSH1 0x1F NOT ADD MLOAD SWAP2 POP POP PUSH1 0x1 PUSH1 0x1 PUSH1 0xA0 SHL SUB DUP2 AND ISZERO DUP1 PUSH2 0xFCA JUMPI POP DUP8 PUSH1 0x1 PUSH1 0x1 PUSH1 0xA0 SHL SUB AND DUP2 PUSH1 0x1 PUSH1 0x1 PUSH1 0xA0 SHL SUB AND EQ ISZERO JUMPDEST ISZERO PUSH2 0xFE8 JUMPI PUSH1 0x40 MLOAD PUSH4 0x20578759 PUSH1 0xE2 SHL DUP2 MSTORE PUSH1 0x4 ADD PUSH1 0x40 MLOAD DUP1 SWAP2 SUB SWAP1 REVERT JUMPDEST PUSH1 0x1 PUSH1 0x1 PUSH1 0xA0 SHL SUB SWAP1 DUP2 AND PUSH1 0x0 SWAP1 DUP2 MSTORE PUSH1 0x8 PUSH1 0x20 SWAP1 DUP2 MSTORE PUSH1 0x40 DUP1 DUP4 KECCAK256 DUP11 DUP6 AND DUP1 DUP6 MSTORE SWAP1 DUP4 MSTORE SWAP3 DUP2 SWAP1 KECCAK256 DUP10 SWAP1 SSTORE MLOAD DUP9 DUP2 MSTORE SWAP2 SWAP3 DUP11 AND SWAP2 PUSH32 0x8C5BE1E5EBEC7D5BD14F71427D1E84F3DD0314C0F7B2291E5B200AC8C7C3B925 SWAP2 ADD PUSH1 0x40 MLOAD DUP1 SWAP2 SUB SWAP1 LOG3 POP POP POP POP POP POP POP JUMP JUMPDEST PUSH1 0x0 PUSH1 0x1 PUSH1 0x1 PUSH1 0xA0 SHL SUB DUP5 AND PUSH2 0x107A JUMPI PUSH1 0x40 MLOAD PUSH4 0x6EDAEF2F PUSH1 0xE1 SHL DUP2 MSTORE PUSH1 0x4 ADD PUSH1 0x40 MLOAD DUP1 SWAP2 SUB SWAP1 REVERT JUMPDEST PUSH1 0x1 PUSH1 0x1 PUSH1 0xA0 SHL SUB DUP4 AND PUSH2 0x10A1 JUMPI PUSH1 0x40 MLOAD PUSH4 0x4E469669 PUSH1 0xE1 SHL DUP2 MSTORE PUSH1 0x4 ADD PUSH1 0x40 MLOAD DUP1 SWAP2 SUB SWAP1 REVERT JUMPDEST PUSH1 0x1 PUSH1 0x1 PUSH1 0xA0 SHL SUB DUP5 AND PUSH1 0x0 SWAP1 DUP2 MSTORE PUSH1 0x8 PUSH1 0x20 SWAP1 DUP2 MSTORE PUSH1 0x40 DUP1 DUP4 KECCAK256 CALLER DUP5 MSTORE SWAP1 SWAP2 MSTORE SWAP1 KECCAK256 SLOAD PUSH1 0x0 NOT DUP2 EQ PUSH2 0x10FD JUMPI PUSH2 0x10D8 DUP4 DUP3 PUSH2 0x298E JUMP JUMPDEST PUSH1 0x1 PUSH1 0x1 PUSH1 0xA0 SHL SUB DUP7 AND PUSH1 0x0 SWAP1 DUP2 MSTORE PUSH1 0x8 PUSH1 0x20 SWAP1 DUP2 MSTORE PUSH1 0x40 DUP1 DUP4 KECCAK256 CALLER DUP5 MSTORE SWAP1 SWAP2 MSTORE SWAP1 KECCAK256 SSTORE JUMPDEST PUSH2 0x1108 DUP6 DUP6 DUP6 PUSH2 0x168D JUMP JUMPDEST SWAP6 SWAP5 POP POP POP POP POP JUMP JUMPDEST PUSH1 0x1 PUSH1 0x1 PUSH1 0xA0 SHL SUB DUP4 AND PUSH2 0x1138 JUMPI PUSH1 0x40 MLOAD PUSH4 0x6EDAEF2F PUSH1 0xE1 SHL DUP2 MSTORE PUSH1 0x4 ADD PUSH1 0x40 MLOAD DUP1 SWAP2 SUB SWAP1 REVERT JUMPDEST PUSH1 0x1 PUSH1 0x1 PUSH1 0xA0 SHL SUB DUP3 AND PUSH2 0x115F JUMPI PUSH1 0x40 MLOAD PUSH4 0x4E469669 PUSH1 0xE1 SHL DUP2 MSTORE PUSH1 0x4 ADD PUSH1 0x40 MLOAD DUP1 SWAP2 SUB SWAP1 REVERT JUMPDEST PUSH1 0x0 DUP2 DUP2 MSTORE PUSH1 0xB PUSH1 0x20 MSTORE PUSH1 0x40 SWAP1 KECCAK256 SLOAD PUSH1 0x1 PUSH1 0x1 PUSH1 0xA0 SHL SUB DUP5 DUP2 AND SWAP2 AND EQ PUSH2 0x1198 JUMPI PUSH1 0x40 MLOAD PUSH3 0x82B429 PUSH1 0xE8 SHL DUP2 MSTORE PUSH1 0x4 ADD PUSH1 0x40 MLOAD DUP1 SWAP2 SUB SWAP1 REVERT JUMPDEST CALLER PUSH1 0x1 PUSH1 0x1 PUSH1 0xA0 SHL SUB DUP5 AND EQ DUP1 ISZERO SWAP1 PUSH2 0x11D5 JUMPI POP PUSH1 0x1 PUSH1 0x1 PUSH1 0xA0 SHL SUB DUP4 AND PUSH1 0x0 SWAP1 DUP2 MSTORE PUSH1 0xA PUSH1 0x20 SWAP1 DUP2 MSTORE PUSH1 0x40 DUP1 DUP4 KECCAK256 CALLER DUP5 MSTORE SWAP1 SWAP2 MSTORE SWAP1 KECCAK256 SLOAD PUSH1 0xFF AND ISZERO JUMPDEST DUP1 ISZERO PUSH2 0x11F8 JUMPI POP PUSH1 0x0 DUP2 DUP2 MSTORE PUSH1 0x9 PUSH1 0x20 MSTORE PUSH1 0x40 SWAP1 KECCAK256 SLOAD PUSH1 0x1 PUSH1 0x1 PUSH1 0xA0 SHL SUB AND CALLER EQ ISZERO JUMPDEST ISZERO PUSH2 0x1215 JUMPI PUSH1 0x40 MLOAD PUSH3 0x82B429 PUSH1 0xE8 SHL DUP2 MSTORE PUSH1 0x4 ADD PUSH1 0x40 MLOAD DUP1 SWAP2 SUB SWAP1 REVERT JUMPDEST PUSH2 0x121E DUP3 PUSH2 0x7B2 JUMP JUMPDEST ISZERO PUSH2 0x123C JUMPI PUSH1 0x40 MLOAD PUSH4 0x5CE75397 PUSH1 0xE0 SHL DUP2 MSTORE PUSH1 0x4 ADD PUSH1 0x40 MLOAD DUP1 SWAP2 SUB SWAP1 REVERT JUMPDEST PUSH2 0x1267 DUP4 DUP4 PUSH32 0x0 PUSH2 0x1A96 JUMP JUMPDEST PUSH2 0x98A DUP4 DUP4 DUP4 PUSH2 0x1B52 JUMP JUMPDEST PUSH1 0x0 DUP2 DUP2 MSTORE PUSH1 0xB PUSH1 0x20 MSTORE PUSH1 0x40 SWAP1 KECCAK256 SLOAD PUSH1 0x1 PUSH1 0x1 PUSH1 0xA0 SHL SUB AND CALLER DUP2 EQ DUP1 ISZERO SWAP1 PUSH2 0x12BE JUMPI POP PUSH1 0x1 PUSH1 0x1 PUSH1 0xA0 SHL SUB DUP2 AND PUSH1 0x0 SWAP1 DUP2 MSTORE PUSH1 0xA PUSH1 0x20 SWAP1 DUP2 MSTORE PUSH1 0x40 DUP1 DUP4 KECCAK256 CALLER DUP5 MSTORE SWAP1 SWAP2 MSTORE SWAP1 KECCAK256 SLOAD PUSH1 0xFF AND ISZERO JUMPDEST ISZERO PUSH2 0x12DB JUMPI PUSH1 0x40 MLOAD PUSH3 0x82B429 PUSH1 0xE8 SHL DUP2 MSTORE PUSH1 0x4 ADD PUSH1 0x40 MLOAD DUP1 SWAP2 SUB SWAP1 REVERT JUMPDEST PUSH1 0x0 DUP3 DUP2 MSTORE PUSH1 0x9 PUSH1 0x20 MSTORE PUSH1 0x40 DUP1 DUP3 KECCAK256 DUP1 SLOAD PUSH1 0x1 PUSH1 0x1 PUSH1 0xA0 SHL SUB NOT AND PUSH1 0x1 PUSH1 0x1 PUSH1 0xA0 SHL SUB DUP8 DUP2 AND SWAP2 DUP3 OR SWAP1 SWAP3 SSTORE SWAP2 MLOAD DUP6 SWAP4 SWAP2 DUP6 AND SWAP2 PUSH32 0x8C5BE1E5EBEC7D5BD14F71427D1E84F3DD0314C0F7B2291E5B200AC8C7C3B925 SWAP2 LOG4 POP POP POP JUMP JUMPDEST PUSH1 0xF DUP1 SLOAD PUSH2 0x6CE SWAP1 PUSH2 0x26F8 JUMP JUMPDEST PUSH2 0x134C PUSH2 0x1475 JUMP JUMPDEST PUSH1 0x1 PUSH1 0x1 PUSH1 0xA0 SHL SUB DUP2 AND PUSH2 0x13B6 JUMPI PUSH1 0x40 MLOAD PUSH3 0x461BCD PUSH1 0xE5 SHL DUP2 MSTORE PUSH1 0x20 PUSH1 0x4 DUP3 ADD MSTORE PUSH1 0x26 PUSH1 0x24 DUP3 ADD MSTORE PUSH32 0x4F776E61626C653A206E6577206F776E657220697320746865207A65726F2061 PUSH1 0x44 DUP3 ADD MSTORE PUSH6 0x646472657373 PUSH1 0xD0 SHL PUSH1 0x64 DUP3 ADD MSTORE PUSH1 0x84 ADD JUMPDEST PUSH1 0x40 MLOAD DUP1 SWAP2 SUB SWAP1 REVERT JUMPDEST PUSH2 0xB93 DUP2 PUSH2 0x15CE JUMP JUMPDEST PUSH1 0x60 PUSH1 0x0 DUP3 PUSH8 0xFFFFFFFFFFFFFFFF DUP2 GT ISZERO PUSH2 0x13DC JUMPI PUSH2 0x13DC PUSH2 0x232E JUMP JUMPDEST PUSH1 0x40 MLOAD SWAP1 DUP1 DUP3 MSTORE DUP1 PUSH1 0x20 MUL PUSH1 0x20 ADD DUP3 ADD PUSH1 0x40 MSTORE DUP1 ISZERO PUSH2 0x1405 JUMPI DUP2 PUSH1 0x20 ADD PUSH1 0x20 DUP3 MUL DUP1 CALLDATASIZE DUP4 CALLDATACOPY ADD SWAP1 POP JUMPDEST POP SWAP1 POP DUP4 JUMPDEST PUSH2 0x1414 DUP5 DUP7 PUSH2 0x29A1 JUMP JUMPDEST DUP2 LT ISZERO PUSH2 0x1454 JUMPI PUSH2 0x1426 PUSH1 0x1 DUP3 PUSH2 0x1D2A JUMP JUMPDEST DUP3 PUSH2 0x1431 DUP8 DUP5 PUSH2 0x298E JUMP JUMPDEST DUP2 MLOAD DUP2 LT PUSH2 0x1441 JUMPI PUSH2 0x1441 PUSH2 0x2732 JUMP JUMPDEST PUSH1 0x20 SWAP1 DUP2 MUL SWAP2 SWAP1 SWAP2 ADD ADD MSTORE PUSH1 0x1 ADD PUSH2 0x140A JUMP JUMPDEST POP SWAP4 SWAP3 POP POP POP JUMP JUMPDEST PUSH1 0x0 PUSH1 0x1 PUSH1 0xFF SHL DUP3 GT DUP1 ISZERO PUSH2 0x6BB JUMPI POP POP PUSH1 0x0 NOT EQ ISZERO SWAP1 JUMP JUMPDEST PUSH1 0x0 SLOAD PUSH1 0x1 PUSH1 0x1 PUSH1 0xA0 SHL SUB AND CALLER EQ PUSH2 0xB87 JUMPI PUSH1 0x40 MLOAD PUSH3 0x461BCD PUSH1 0xE5 SHL DUP2 MSTORE PUSH1 0x20 PUSH1 0x4 DUP3 ADD DUP2 SWAP1 MSTORE PUSH1 0x24 DUP3 ADD MSTORE PUSH32 0x4F776E61626C653A2063616C6C6572206973206E6F7420746865206F776E6572 PUSH1 0x44 DUP3 ADD MSTORE PUSH1 0x64 ADD PUSH2 0x13AD JUMP JUMPDEST PUSH1 0x1 PUSH1 0x1 PUSH1 0xA0 SHL SUB DUP3 AND PUSH2 0x14F6 JUMPI PUSH1 0x40 MLOAD PUSH4 0x4E469669 PUSH1 0xE1 SHL DUP2 MSTORE PUSH1 0x4 ADD PUSH1 0x40 MLOAD DUP1 SWAP2 SUB SWAP1 REVERT JUMPDEST PUSH1 0x1 PUSH1 0xFF SHL DUP2 PUSH1 0x5 SLOAD PUSH2 0x1509 SWAP2 SWAP1 PUSH2 0x29A1 JUMP JUMPDEST GT ISZERO PUSH2 0x1528 JUMPI PUSH1 0x40 MLOAD PUSH4 0x303B682F PUSH1 0xE0 SHL DUP2 MSTORE PUSH1 0x4 ADD PUSH1 0x40 MLOAD DUP1 SWAP2 SUB SWAP1 REVERT JUMPDEST PUSH2 0x98A PUSH1 0x0 DUP4 DUP4 PUSH2 0x168D JUMP JUMPDEST PUSH1 0x0 PUSH32 0x8B73C3C69BB8FE3D512ECC4CF759CC79239F7B179B0FFACAA9A75D522B39400F PUSH1 0x3 PUSH1 0x40 MLOAD PUSH2 0x1566 SWAP2 SWAP1 PUSH2 0x29B4 JUMP JUMPDEST PUSH1 0x40 DUP1 MLOAD SWAP2 DUP3 SWAP1 SUB DUP3 KECCAK256 PUSH1 0x20 DUP4 ADD SWAP4 SWAP1 SWAP4 MSTORE DUP2 ADD SWAP2 SWAP1 SWAP2 MSTORE PUSH32 0xC89EFDAA54C0F20C7ADF612882DF0950F5A951637E0307CDCB4C672F298B8BC6 PUSH1 0x60 DUP3 ADD MSTORE CHAINID PUSH1 0x80 DUP3 ADD MSTORE ADDRESS PUSH1 0xA0 DUP3 ADD MSTORE PUSH1 0xC0 ADD PUSH1 0x40 MLOAD PUSH1 0x20 DUP2 DUP4 SUB SUB DUP2 MSTORE SWAP1 PUSH1 0x40 MSTORE DUP1 MLOAD SWAP1 PUSH1 0x20 ADD KECCAK256 SWAP1 POP SWAP1 JUMP JUMPDEST PUSH1 0x0 DUP1 SLOAD PUSH1 0x1 PUSH1 0x1 PUSH1 0xA0 SHL SUB DUP4 DUP2 AND PUSH1 0x1 PUSH1 0x1 PUSH1 0xA0 SHL SUB NOT DUP4 AND DUP2 OR DUP5 SSTORE PUSH1 0x40 MLOAD SWAP2 SWAP1 SWAP3 AND SWAP3 DUP4 SWAP2 PUSH32 0x8BE0079C531659141344CD1FD0A4F28419497F9722A3DAAFE3B4186F6B6457E0 SWAP2 SWAP1 LOG3 POP POP JUMP JUMPDEST PUSH1 0x1 PUSH1 0x1 PUSH1 0xA0 SHL SUB DUP3 AND PUSH2 0x1645 JUMPI PUSH1 0x40 MLOAD PUSH4 0xA41E3D3F PUSH1 0xE0 SHL DUP2 MSTORE PUSH1 0x4 ADD PUSH1 0x40 MLOAD DUP1 SWAP2 SUB SWAP1 REVERT JUMPDEST DUP1 ISZERO PUSH2 0x1659 JUMPI PUSH2 0x1654 DUP3 PUSH2 0x1D95 JUMP JUMPDEST PUSH2 0x1662 JUMP JUMPDEST PUSH2 0x1662 DUP3 PUSH2 0x1DC9 JUMP JUMPDEST PUSH1 0x1 PUSH1 0x1 PUSH1 0xA0 SHL SUB SWAP2 SWAP1 SWAP2 AND PUSH1 0x0 SWAP1 DUP2 MSTORE PUSH1 0xD PUSH1 0x20 MSTORE PUSH1 0x40 SWAP1 KECCAK256 DUP1 SLOAD PUSH1 0xFF NOT AND SWAP2 ISZERO ISZERO SWAP2 SWAP1 SWAP2 OR SWAP1 SSTORE JUMP JUMPDEST PUSH1 0x1 PUSH1 0x1 PUSH1 0xA0 SHL SUB DUP4 DUP2 AND PUSH1 0x0 SWAP1 DUP2 MSTORE PUSH1 0x7 PUSH1 0x20 MSTORE PUSH1 0x40 DUP1 DUP3 KECCAK256 SLOAD SWAP3 DUP6 AND DUP3 MSTORE DUP2 KECCAK256 SLOAD SWAP1 SWAP2 SWAP1 PUSH2 0x16BE DUP7 DUP7 DUP7 PUSH2 0x1A96 JUMP JUMPDEST PUSH1 0x0 PUSH2 0x16C9 DUP8 PUSH2 0x7B2 JUMP JUMPDEST SWAP1 POP PUSH1 0x0 PUSH2 0x16D6 DUP8 PUSH2 0x7B2 JUMP JUMPDEST SWAP1 POP DUP2 DUP1 ISZERO PUSH2 0x16E2 JUMPI POP DUP1 JUMPDEST PUSH2 0x19F5 JUMPI DUP2 ISZERO PUSH2 0x178B JUMPI PUSH1 0x0 PUSH2 0x1718 PUSH32 0x0 DUP6 PUSH2 0x29C0 JUMP JUMPDEST PUSH1 0x1 PUSH1 0x1 PUSH1 0xA0 SHL SUB DUP10 AND PUSH1 0x0 SWAP1 DUP2 MSTORE PUSH1 0x7 PUSH1 0x20 MSTORE PUSH1 0x40 SWAP1 KECCAK256 SLOAD PUSH2 0x175C SWAP1 PUSH32 0x0 SWAP1 PUSH2 0x29C0 JUMP JUMPDEST PUSH2 0x1766 SWAP2 SWAP1 PUSH2 0x298E JUMP JUMPDEST SWAP1 POP PUSH1 0x0 JUMPDEST DUP2 DUP2 LT ISZERO PUSH2 0x1784 JUMPI PUSH2 0x177C DUP10 PUSH2 0x1E57 JUMP JUMPDEST PUSH1 0x1 ADD PUSH2 0x176B JUMP JUMPDEST POP POP PUSH2 0x19F5 JUMP JUMPDEST DUP1 ISZERO PUSH2 0x1827 JUMPI PUSH1 0x1 PUSH1 0x1 PUSH1 0xA0 SHL SUB DUP9 AND PUSH1 0x0 SWAP1 DUP2 MSTORE PUSH1 0x7 PUSH1 0x20 MSTORE PUSH1 0x40 DUP2 KECCAK256 SLOAD PUSH2 0x17D5 SWAP1 PUSH32 0x0 SWAP1 PUSH2 0x29C0 JUMP JUMPDEST PUSH2 0x17FF PUSH32 0x0 DUP8 PUSH2 0x29C0 JUMP JUMPDEST PUSH2 0x1809 SWAP2 SWAP1 PUSH2 0x298E JUMP JUMPDEST SWAP1 POP PUSH1 0x0 JUMPDEST DUP2 DUP2 LT ISZERO PUSH2 0x1784 JUMPI PUSH2 0x181F DUP11 PUSH2 0x1F3F JUMP JUMPDEST PUSH1 0x1 ADD PUSH2 0x180E JUMP JUMPDEST PUSH1 0x0 PUSH2 0x1853 PUSH32 0x0 DUP9 PUSH2 0x29C0 JUMP JUMPDEST SWAP1 POP PUSH1 0x0 JUMPDEST DUP2 DUP2 LT ISZERO PUSH2 0x18D6 JUMPI PUSH1 0x1 PUSH1 0x1 PUSH1 0xA0 SHL SUB DUP11 AND PUSH1 0x0 SWAP1 DUP2 MSTORE PUSH1 0xC PUSH1 0x20 MSTORE PUSH1 0x40 DUP2 KECCAK256 SLOAD PUSH2 0x1885 SWAP1 PUSH1 0x1 SWAP1 PUSH2 0x298E JUMP JUMPDEST PUSH1 0x1 PUSH1 0x1 PUSH1 0xA0 SHL SUB DUP13 AND PUSH1 0x0 SWAP1 DUP2 MSTORE PUSH1 0xC PUSH1 0x20 MSTORE PUSH1 0x40 DUP2 KECCAK256 DUP1 SLOAD SWAP3 SWAP4 POP SWAP1 SWAP2 DUP4 SWAP1 DUP2 LT PUSH2 0x18B4 JUMPI PUSH2 0x18B4 PUSH2 0x2732 JUMP JUMPDEST SWAP1 PUSH1 0x0 MSTORE PUSH1 0x20 PUSH1 0x0 KECCAK256 ADD SLOAD SWAP1 POP PUSH2 0x18CC DUP13 DUP13 DUP4 PUSH2 0x1B52 JUMP JUMPDEST POP POP PUSH1 0x1 ADD PUSH2 0x1858 JUMP JUMPDEST POP DUP1 PUSH32 0x0 PUSH2 0x1918 DUP12 PUSH1 0x1 PUSH1 0x1 PUSH1 0xA0 SHL SUB AND PUSH1 0x0 SWAP1 DUP2 MSTORE PUSH1 0x7 PUSH1 0x20 MSTORE PUSH1 0x40 SWAP1 KECCAK256 SLOAD SWAP1 JUMP JUMPDEST PUSH2 0x1922 SWAP2 SWAP1 PUSH2 0x29C0 JUMP JUMPDEST PUSH2 0x194C PUSH32 0x0 DUP9 PUSH2 0x29C0 JUMP JUMPDEST PUSH2 0x1956 SWAP2 SWAP1 PUSH2 0x298E JUMP JUMPDEST GT ISZERO PUSH2 0x1965 JUMPI PUSH2 0x1965 DUP10 PUSH2 0x1F3F JUMP JUMPDEST DUP1 PUSH2 0x1990 PUSH32 0x0 DUP7 PUSH2 0x29C0 JUMP JUMPDEST PUSH32 0x0 PUSH2 0x19D0 DUP12 PUSH1 0x1 PUSH1 0x1 PUSH1 0xA0 SHL SUB AND PUSH1 0x0 SWAP1 DUP2 MSTORE PUSH1 0x7 PUSH1 0x20 MSTORE PUSH1 0x40 SWAP1 KECCAK256 SLOAD SWAP1 JUMP JUMPDEST PUSH2 0x19DA SWAP2 SWAP1 PUSH2 0x29C0 JUMP JUMPDEST PUSH2 0x19E4 SWAP2 SWAP1 PUSH2 0x298E JUMP JUMPDEST GT ISZERO PUSH2 0x19F3 JUMPI PUSH2 0x19F3 DUP9 PUSH2 0x1E57 JUMP JUMPDEST POP JUMPDEST POP PUSH1 0x1 SWAP8 SWAP7 POP POP POP POP POP POP POP JUMP JUMPDEST PUSH1 0x60 PUSH1 0x0 PUSH2 0x1A10 DUP4 PUSH2 0x1FC0 JUMP JUMPDEST PUSH1 0x1 ADD SWAP1 POP PUSH1 0x0 DUP2 PUSH8 0xFFFFFFFFFFFFFFFF DUP2 GT ISZERO PUSH2 0x1A30 JUMPI PUSH2 0x1A30 PUSH2 0x232E JUMP JUMPDEST PUSH1 0x40 MLOAD SWAP1 DUP1 DUP3 MSTORE DUP1 PUSH1 0x1F ADD PUSH1 0x1F NOT AND PUSH1 0x20 ADD DUP3 ADD PUSH1 0x40 MSTORE DUP1 ISZERO PUSH2 0x1A5A JUMPI PUSH1 0x20 DUP3 ADD DUP2 DUP1 CALLDATASIZE DUP4 CALLDATACOPY ADD SWAP1 POP JUMPDEST POP SWAP1 POP DUP2 DUP2 ADD PUSH1 0x20 ADD JUMPDEST PUSH1 0x0 NOT ADD PUSH16 0x181899199A1A9B1B9C1CB0B131B232B3 PUSH1 0x81 SHL PUSH1 0xA DUP7 MOD BYTE DUP2 MSTORE8 PUSH1 0xA DUP6 DIV SWAP5 POP DUP5 PUSH2 0x1A64 JUMPI POP SWAP4 SWAP3 POP POP POP JUMP JUMPDEST PUSH1 0x1 PUSH1 0x1 PUSH1 0xA0 SHL SUB DUP4 AND PUSH2 0x1AC1 JUMPI DUP1 PUSH1 0x5 PUSH1 0x0 DUP3 DUP3 SLOAD PUSH2 0x1AB6 SWAP2 SWAP1 PUSH2 0x29A1 JUMP JUMPDEST SWAP1 SWAP2 SSTORE POP PUSH2 0x1AEF SWAP1 POP JUMP JUMPDEST PUSH1 0x1 PUSH1 0x1 PUSH1 0xA0 SHL SUB DUP4 AND PUSH1 0x0 SWAP1 DUP2 MSTORE PUSH1 0x7 PUSH1 0x20 MSTORE PUSH1 0x40 DUP2 KECCAK256 DUP1 SLOAD DUP4 SWAP3 SWAP1 PUSH2 0x1AE9 SWAP1 DUP5 SWAP1 PUSH2 0x298E JUMP JUMPDEST SWAP1 SWAP2 SSTORE POP POP JUMPDEST PUSH1 0x1 PUSH1 0x1 PUSH1 0xA0 SHL SUB DUP1 DUP4 AND PUSH1 0x0 DUP2 DUP2 MSTORE PUSH1 0x7 PUSH1 0x20 MSTORE PUSH1 0x40 SWAP1 DUP2 SWAP1 KECCAK256 DUP1 SLOAD DUP6 ADD SWAP1 SSTORE MLOAD SWAP1 SWAP2 DUP6 AND SWAP1 PUSH32 0xDDF252AD1BE2C89B69C2B068FC378DAA952BA7F163C4A11628F55A4DF523B3EF SWAP1 PUSH2 0x1B45 SWAP1 DUP6 DUP2 MSTORE PUSH1 0x20 ADD SWAP1 JUMP JUMPDEST PUSH1 0x40 MLOAD DUP1 SWAP2 SUB SWAP1 LOG3 POP POP POP JUMP JUMPDEST PUSH1 0x1 PUSH1 0x1 PUSH1 0xA0 SHL SUB DUP4 AND ISZERO PUSH2 0x1C5D JUMPI PUSH1 0x0 DUP2 DUP2 MSTORE PUSH1 0x9 PUSH1 0x20 SWAP1 DUP2 MSTORE PUSH1 0x40 DUP1 DUP4 KECCAK256 DUP1 SLOAD PUSH1 0x1 PUSH1 0x1 PUSH1 0xA0 SHL SUB NOT AND SWAP1 SSTORE PUSH1 0x1 PUSH1 0x1 PUSH1 0xA0 SHL SUB DUP7 AND DUP4 MSTORE PUSH1 0xC SWAP1 SWAP2 MSTORE DUP2 KECCAK256 DUP1 SLOAD PUSH2 0x1BA1 SWAP1 PUSH1 0x1 SWAP1 PUSH2 0x298E JUMP JUMPDEST DUP2 SLOAD DUP2 LT PUSH2 0x1BB1 JUMPI PUSH2 0x1BB1 PUSH2 0x2732 JUMP JUMPDEST SWAP1 PUSH1 0x0 MSTORE PUSH1 0x20 PUSH1 0x0 KECCAK256 ADD SLOAD SWAP1 POP DUP2 DUP2 EQ PUSH2 0x1C1E JUMPI PUSH1 0x0 DUP3 DUP2 MSTORE PUSH1 0xB PUSH1 0x20 MSTORE PUSH1 0x40 DUP2 KECCAK256 SLOAD PUSH1 0xA0 SHR PUSH1 0x1 PUSH1 0x1 PUSH1 0xA0 SHL SUB DUP7 AND PUSH1 0x0 SWAP1 DUP2 MSTORE PUSH1 0xC PUSH1 0x20 MSTORE PUSH1 0x40 SWAP1 KECCAK256 DUP1 SLOAD SWAP2 SWAP3 POP DUP4 SWAP2 DUP4 SWAP1 DUP2 LT PUSH2 0x1C06 JUMPI PUSH2 0x1C06 PUSH2 0x2732 JUMP JUMPDEST PUSH1 0x0 SWAP2 DUP3 MSTORE PUSH1 0x20 SWAP1 SWAP2 KECCAK256 ADD SSTORE PUSH2 0x1C1C DUP3 DUP3 PUSH2 0x2098 JUMP JUMPDEST POP JUMPDEST PUSH1 0x1 PUSH1 0x1 PUSH1 0xA0 SHL SUB DUP5 AND PUSH1 0x0 SWAP1 DUP2 MSTORE PUSH1 0xC PUSH1 0x20 MSTORE PUSH1 0x40 SWAP1 KECCAK256 DUP1 SLOAD DUP1 PUSH2 0x1C45 JUMPI PUSH2 0x1C45 PUSH2 0x29E2 JUMP JUMPDEST PUSH1 0x1 SWAP1 SUB DUP2 DUP2 SWAP1 PUSH1 0x0 MSTORE PUSH1 0x20 PUSH1 0x0 KECCAK256 ADD PUSH1 0x0 SWAP1 SSTORE SWAP1 SSTORE POP JUMPDEST PUSH1 0x1 PUSH1 0x1 PUSH1 0xA0 SHL SUB DUP3 AND ISZERO PUSH2 0x1CD4 JUMPI PUSH1 0x0 DUP2 DUP2 MSTORE PUSH1 0xB PUSH1 0x20 SWAP1 DUP2 MSTORE PUSH1 0x40 DUP1 DUP4 KECCAK256 DUP1 SLOAD PUSH1 0x1 PUSH1 0x1 PUSH1 0xA0 SHL SUB NOT AND PUSH1 0x1 PUSH1 0x1 PUSH1 0xA0 SHL SUB DUP8 AND SWAP1 DUP2 ADD SWAP1 SWAP2 SSTORE DUP1 DUP5 MSTORE PUSH1 0xC DUP4 MSTORE SWAP1 DUP4 KECCAK256 DUP1 SLOAD PUSH1 0x1 DUP2 DUP2 ADD DUP4 SSTORE DUP3 DUP7 MSTORE SWAP4 DUP6 KECCAK256 ADD DUP6 SWAP1 SSTORE SWAP3 MSTORE SWAP1 SLOAD PUSH2 0x1CCF SWAP2 DUP4 SWAP2 PUSH2 0x1CCA SWAP2 SWAP1 PUSH2 0x298E JUMP JUMPDEST PUSH2 0x2098 JUMP JUMPDEST PUSH2 0x1CE4 JUMP JUMPDEST PUSH1 0x0 DUP2 DUP2 MSTORE PUSH1 0xB PUSH1 0x20 MSTORE PUSH1 0x40 DUP2 KECCAK256 SSTORE JUMPDEST DUP1 DUP3 PUSH1 0x1 PUSH1 0x1 PUSH1 0xA0 SHL SUB AND DUP5 PUSH1 0x1 PUSH1 0x1 PUSH1 0xA0 SHL SUB AND PUSH32 0xDDF252AD1BE2C89B69C2B068FC378DAA952BA7F163C4A11628F55A4DF523B3EF PUSH1 0x40 MLOAD PUSH1 0x40 MLOAD DUP1 SWAP2 SUB SWAP1 LOG4 POP POP POP JUMP JUMPDEST PUSH1 0x0 PUSH2 0x1D4E DUP4 SLOAD PUSH1 0x1 PUSH1 0x1 PUSH1 0x80 SHL SUB DUP1 DUP3 AND PUSH1 0x1 PUSH1 0x80 SHL SWAP1 SWAP3 DIV DUP2 AND SWAP2 SWAP1 SWAP2 SUB AND SWAP1 JUMP JUMPDEST DUP3 LT PUSH2 0x1D6D JUMPI PUSH1 0x40 MLOAD PUSH4 0x580821E7 PUSH1 0xE0 SHL DUP2 MSTORE PUSH1 0x4 ADD PUSH1 0x40 MLOAD DUP1 SWAP2 SUB SWAP1 REVERT JUMPDEST POP DUP2 SLOAD PUSH1 0x1 PUSH1 0x1 PUSH1 0x80 SHL SUB SWAP1 DUP2 AND DUP3 ADD AND PUSH1 0x0 SWAP1 DUP2 MSTORE PUSH1 0x1 DUP4 ADD PUSH1 0x20 MSTORE PUSH1 0x40 SWAP1 KECCAK256 SLOAD SWAP3 SWAP2 POP POP JUMP JUMPDEST PUSH1 0x1 PUSH1 0x1 PUSH1 0xA0 SHL SUB DUP2 AND PUSH1 0x0 SWAP1 DUP2 MSTORE PUSH1 0xC PUSH1 0x20 MSTORE PUSH1 0x40 DUP2 KECCAK256 SLOAD SWAP1 JUMPDEST DUP2 DUP2 LT ISZERO PUSH2 0x98A JUMPI PUSH2 0x1DC1 DUP4 PUSH2 0x1F3F JUMP JUMPDEST PUSH1 0x1 ADD PUSH2 0x1DB0 JUMP JUMPDEST PUSH1 0x1 PUSH1 0x1 PUSH1 0xA0 SHL SUB DUP2 AND PUSH1 0x0 SWAP1 DUP2 MSTORE PUSH1 0x7 PUSH1 0x20 MSTORE PUSH1 0x40 DUP2 KECCAK256 SLOAD PUSH2 0x1E0D SWAP1 PUSH32 0x0 SWAP1 PUSH2 0x29C0 JUMP JUMPDEST SWAP1 POP PUSH1 0x0 PUSH2 0x1E30 DUP4 PUSH1 0x1 PUSH1 0x1 PUSH1 0xA0 SHL SUB AND PUSH1 0x0 SWAP1 DUP2 MSTORE PUSH1 0xC PUSH1 0x20 MSTORE PUSH1 0x40 SWAP1 KECCAK256 SLOAD SWAP1 JUMP JUMPDEST SWAP1 POP PUSH1 0x0 JUMPDEST PUSH2 0x1E3F DUP3 DUP5 PUSH2 0x298E JUMP JUMPDEST DUP2 LT ISZERO PUSH2 0xDBE JUMPI PUSH2 0x1E4F DUP5 PUSH2 0x1E57 JUMP JUMPDEST PUSH1 0x1 ADD PUSH2 0x1E35 JUMP JUMPDEST PUSH1 0x1 PUSH1 0x1 PUSH1 0xA0 SHL SUB DUP2 AND PUSH2 0x1E7E JUMPI PUSH1 0x40 MLOAD PUSH4 0x4E469669 PUSH1 0xE1 SHL DUP2 MSTORE PUSH1 0x4 ADD PUSH1 0x40 MLOAD DUP1 SWAP2 SUB SWAP1 REVERT JUMPDEST PUSH1 0x0 PUSH2 0x1E9E PUSH1 0x1 SLOAD PUSH1 0x1 PUSH1 0x80 SHL DUP2 DIV PUSH1 0x1 PUSH1 0x1 PUSH1 0x80 SHL SUB SWAP1 DUP2 AND SWAP2 AND EQ SWAP1 JUMP JUMPDEST PUSH2 0x1EB3 JUMPI PUSH2 0x1EAC PUSH1 0x1 PUSH2 0x2104 JUMP JUMPDEST SWAP1 POP PUSH2 0x1EFD JUMP JUMPDEST PUSH1 0x6 PUSH1 0x0 DUP2 SLOAD PUSH2 0x1EC2 SWAP1 PUSH2 0x286C JUMP JUMPDEST SWAP1 SWAP2 SSTORE POP PUSH1 0x6 SLOAD PUSH1 0x1 ADD PUSH2 0x1EE9 JUMPI PUSH1 0x40 MLOAD PUSH4 0x303B682F PUSH1 0xE0 SHL DUP2 MSTORE PUSH1 0x4 ADD PUSH1 0x40 MLOAD DUP1 SWAP2 SUB SWAP1 REVERT JUMPDEST PUSH1 0x6 SLOAD PUSH2 0x1EFA SWAP1 PUSH1 0x1 PUSH1 0xFF SHL PUSH2 0x29A1 JUMP JUMPDEST SWAP1 POP JUMPDEST PUSH1 0x0 DUP2 DUP2 MSTORE PUSH1 0xB PUSH1 0x20 MSTORE PUSH1 0x40 SWAP1 KECCAK256 SLOAD PUSH1 0x1 PUSH1 0x1 PUSH1 0xA0 SHL SUB AND DUP1 ISZERO PUSH2 0x1F34 JUMPI PUSH1 0x40 MLOAD PUSH4 0x119B4FD3 PUSH1 0xE1 SHL DUP2 MSTORE PUSH1 0x4 ADD PUSH1 0x40 MLOAD DUP1 SWAP2 SUB SWAP1 REVERT JUMPDEST PUSH2 0x98A DUP2 DUP5 DUP5 PUSH2 0x1B52 JUMP JUMPDEST PUSH1 0x1 PUSH1 0x1 PUSH1 0xA0 SHL SUB DUP2 AND PUSH2 0x1F66 JUMPI PUSH1 0x40 MLOAD PUSH4 0x6EDAEF2F PUSH1 0xE1 SHL DUP2 MSTORE PUSH1 0x4 ADD PUSH1 0x40 MLOAD DUP1 SWAP2 SUB SWAP1 REVERT JUMPDEST PUSH1 0x1 PUSH1 0x1 PUSH1 0xA0 SHL SUB DUP2 AND PUSH1 0x0 SWAP1 DUP2 MSTORE PUSH1 0xC PUSH1 0x20 MSTORE PUSH1 0x40 DUP2 KECCAK256 DUP1 SLOAD PUSH2 0x1F8C SWAP1 PUSH1 0x1 SWAP1 PUSH2 0x298E JUMP JUMPDEST DUP2 SLOAD DUP2 LT PUSH2 0x1F9C JUMPI PUSH2 0x1F9C PUSH2 0x2732 JUMP JUMPDEST SWAP1 PUSH1 0x0 MSTORE PUSH1 0x20 PUSH1 0x0 KECCAK256 ADD SLOAD SWAP1 POP PUSH2 0x1FB5 DUP3 PUSH1 0x0 DUP4 PUSH2 0x1B52 JUMP JUMPDEST PUSH2 0xDD6 PUSH1 0x1 DUP3 PUSH2 0x2174 JUMP JUMPDEST PUSH1 0x0 DUP1 PUSH19 0x184F03E93FF9F4DAA797ED6E38ED64BF6A1F01 PUSH1 0x40 SHL DUP4 LT PUSH2 0x1FFF JUMPI PUSH19 0x184F03E93FF9F4DAA797ED6E38ED64BF6A1F01 PUSH1 0x40 SHL DUP4 DIV SWAP3 POP PUSH1 0x40 ADD JUMPDEST PUSH14 0x4EE2D6D415B85ACEF8100000000 DUP4 LT PUSH2 0x202B JUMPI PUSH14 0x4EE2D6D415B85ACEF8100000000 DUP4 DIV SWAP3 POP PUSH1 0x20 ADD JUMPDEST PUSH7 0x2386F26FC10000 DUP4 LT PUSH2 0x2049 JUMPI PUSH7 0x2386F26FC10000 DUP4 DIV SWAP3 POP PUSH1 0x10 ADD JUMPDEST PUSH4 0x5F5E100 DUP4 LT PUSH2 0x2061 JUMPI PUSH4 0x5F5E100 DUP4 DIV SWAP3 POP PUSH1 0x8 ADD JUMPDEST PUSH2 0x2710 DUP4 LT PUSH2 0x2075 JUMPI PUSH2 0x2710 DUP4 DIV SWAP3 POP PUSH1 0x4 ADD JUMPDEST PUSH1 0x64 DUP4 LT PUSH2 0x2087 JUMPI PUSH1 0x64 DUP4 DIV SWAP3 POP PUSH1 0x2 ADD JUMPDEST PUSH1 0xA DUP4 LT PUSH2 0x6BB JUMPI PUSH1 0x1 ADD SWAP3 SWAP2 POP POP JUMP JUMPDEST PUSH1 0x0 DUP3 DUP2 MSTORE PUSH1 0xB PUSH1 0x20 MSTORE PUSH1 0x40 SWAP1 KECCAK256 SLOAD PUSH12 0xFFFFFFFFFFFFFFFFFFFFFFFF DUP3 GT ISZERO PUSH2 0x20D4 JUMPI PUSH1 0x40 MLOAD PUSH4 0x3F2CD0E3 PUSH1 0xE2 SHL DUP2 MSTORE PUSH1 0x4 ADD PUSH1 0x40 MLOAD DUP1 SWAP2 SUB SWAP1 REVERT JUMPDEST PUSH1 0x0 SWAP3 DUP4 MSTORE PUSH1 0xB PUSH1 0x20 MSTORE PUSH1 0x40 SWAP1 SWAP3 KECCAK256 PUSH1 0x1 PUSH1 0x1 PUSH1 0xA0 SHL SUB SWAP3 SWAP1 SWAP3 AND PUSH1 0xA0 SWAP2 SWAP1 SWAP2 SHL PUSH1 0x1 PUSH1 0x1 PUSH1 0xA0 SHL SUB NOT AND ADD SWAP1 SSTORE JUMP JUMPDEST DUP1 SLOAD PUSH1 0x0 SWAP1 PUSH1 0x1 PUSH1 0x1 PUSH1 0x80 SHL SUB PUSH1 0x1 PUSH1 0x80 SHL DUP3 DIV DUP2 AND SWAP2 AND DUP2 SUB PUSH2 0x213B JUMPI PUSH1 0x40 MLOAD PUSH4 0x75E52F4F PUSH1 0xE0 SHL DUP2 MSTORE PUSH1 0x4 ADD PUSH1 0x40 MLOAD DUP1 SWAP2 SUB SWAP1 REVERT JUMPDEST PUSH1 0x0 NOT ADD PUSH1 0x1 PUSH1 0x1 PUSH1 0x80 SHL SUB SWAP1 DUP2 AND PUSH1 0x0 DUP2 DUP2 MSTORE PUSH1 0x1 DUP6 ADD PUSH1 0x20 MSTORE PUSH1 0x40 DUP2 KECCAK256 DUP1 SLOAD SWAP2 SWAP1 SSTORE DUP5 SLOAD SWAP1 SWAP3 AND PUSH1 0x1 PUSH1 0x80 SHL SWAP1 SWAP2 MUL OR SWAP1 SWAP3 SSTORE POP SWAP1 JUMP JUMPDEST DUP2 SLOAD PUSH1 0x1 PUSH1 0x1 PUSH1 0x80 SHL SUB DUP1 DUP3 AND PUSH1 0x0 NOT ADD SWAP2 PUSH1 0x1 PUSH1 0x80 SHL SWAP1 DIV DUP2 AND SWAP1 DUP3 AND SUB PUSH2 0x21B0 JUMPI PUSH1 0x40 MLOAD PUSH4 0x8ACB5F27 PUSH1 0xE0 SHL DUP2 MSTORE PUSH1 0x4 ADD PUSH1 0x40 MLOAD DUP1 SWAP2 SUB SWAP1 REVERT JUMPDEST PUSH1 0x1 PUSH1 0x1 PUSH1 0x80 SHL SUB AND PUSH1 0x0 DUP2 DUP2 MSTORE PUSH1 0x1 DUP5 ADD PUSH1 0x20 MSTORE PUSH1 0x40 SWAP1 KECCAK256 SWAP2 SWAP1 SWAP2 SSTORE DUP2 SLOAD PUSH16 0xFFFFFFFFFFFFFFFFFFFFFFFFFFFFFFFF NOT AND OR SWAP1 SSTORE JUMP JUMPDEST PUSH1 0x1 PUSH1 0x1 PUSH1 0xE0 SHL SUB NOT DUP2 AND DUP2 EQ PUSH2 0xB93 JUMPI PUSH1 0x0 DUP1 REVERT JUMPDEST PUSH1 0x0 PUSH1 0x20 DUP3 DUP5 SUB SLT ISZERO PUSH2 0x220F JUMPI PUSH1 0x0 DUP1 REVERT JUMPDEST DUP2 CALLDATALOAD PUSH2 0x81A DUP2 PUSH2 0x21E7 JUMP JUMPDEST DUP1 CALLDATALOAD PUSH1 0x1 PUSH1 0x1 PUSH1 0xA0 SHL SUB DUP2 AND DUP2 EQ PUSH2 0xA81 JUMPI PUSH1 0x0 DUP1 REVERT JUMPDEST PUSH1 0x0 PUSH1 0x20 DUP3 DUP5 SUB SLT ISZERO PUSH2 0x2243 JUMPI PUSH1 0x0 DUP1 REVERT JUMPDEST PUSH2 0x81A DUP3 PUSH2 0x221A JUMP JUMPDEST PUSH1 0x0 JUMPDEST DUP4 DUP2 LT ISZERO PUSH2 0x2267 JUMPI DUP2 DUP2 ADD MLOAD DUP4 DUP3 ADD MSTORE PUSH1 0x20 ADD PUSH2 0x224F JUMP JUMPDEST POP POP PUSH1 0x0 SWAP2 ADD MSTORE JUMP JUMPDEST PUSH1 0x0 DUP2 MLOAD DUP1 DUP5 MSTORE PUSH2 0x2288 DUP2 PUSH1 0x20 DUP7 ADD PUSH1 0x20 DUP7 ADD PUSH2 0x224C JUMP JUMPDEST PUSH1 0x1F ADD PUSH1 0x1F NOT AND SWAP3 SWAP1 SWAP3 ADD PUSH1 0x20 ADD SWAP3 SWAP2 POP POP JUMP JUMPDEST PUSH1 0x20 DUP2 MSTORE PUSH1 0x0 PUSH2 0x81A PUSH1 0x20 DUP4 ADD DUP5 PUSH2 0x2270 JUMP JUMPDEST PUSH1 0x0 PUSH1 0x20 DUP3 DUP5 SUB SLT ISZERO PUSH2 0x22C1 JUMPI PUSH1 0x0 DUP1 REVERT JUMPDEST POP CALLDATALOAD SWAP2 SWAP1 POP JUMP JUMPDEST PUSH1 0x0 DUP1 PUSH1 0x40 DUP4 DUP6 SUB SLT ISZERO PUSH2 0x22DB JUMPI PUSH1 0x0 DUP1 REVERT JUMPDEST PUSH2 0x22E4 DUP4 PUSH2 0x221A JUMP JUMPDEST SWAP5 PUSH1 0x20 SWAP4 SWAP1 SWAP4 ADD CALLDATALOAD SWAP4 POP POP POP JUMP JUMPDEST PUSH1 0x0 DUP1 PUSH1 0x0 PUSH1 0x60 DUP5 DUP7 SUB SLT ISZERO PUSH2 0x2307 JUMPI PUSH1 0x0 DUP1 REVERT JUMPDEST PUSH2 0x2310 DUP5 PUSH2 0x221A JUMP JUMPDEST SWAP3 POP PUSH2 0x231E PUSH1 0x20 DUP6 ADD PUSH2 0x221A JUMP JUMPDEST SWAP2 POP PUSH1 0x40 DUP5 ADD CALLDATALOAD SWAP1 POP SWAP3 POP SWAP3 POP SWAP3 JUMP JUMPDEST PUSH4 0x4E487B71 PUSH1 0xE0 SHL PUSH1 0x0 MSTORE PUSH1 0x41 PUSH1 0x4 MSTORE PUSH1 0x24 PUSH1 0x0 REVERT JUMPDEST PUSH1 0x40 MLOAD PUSH1 0x1F DUP3 ADD PUSH1 0x1F NOT AND DUP2 ADD PUSH8 0xFFFFFFFFFFFFFFFF DUP2 GT DUP3 DUP3 LT OR ISZERO PUSH2 0x236D JUMPI PUSH2 0x236D PUSH2 0x232E JUMP JUMPDEST PUSH1 0x40 MSTORE SWAP2 SWAP1 POP JUMP JUMPDEST PUSH1 0x0 PUSH8 0xFFFFFFFFFFFFFFFF DUP4 GT ISZERO PUSH2 0x238F JUMPI PUSH2 0x238F PUSH2 0x232E JUMP JUMPDEST PUSH2 0x23A2 PUSH1 0x1F DUP5 ADD PUSH1 0x1F NOT AND PUSH1 0x20 ADD PUSH2 0x2344 JUMP JUMPDEST SWAP1 POP DUP3 DUP2 MSTORE DUP4 DUP4 DUP4 ADD GT ISZERO PUSH2 0x23B6 JUMPI PUSH1 0x0 DUP1 REVERT JUMPDEST DUP3 DUP3 PUSH1 0x20 DUP4 ADD CALLDATACOPY PUSH1 0x0 PUSH1 0x20 DUP5 DUP4 ADD ADD MSTORE SWAP4 SWAP3 POP POP POP JUMP JUMPDEST PUSH1 0x0 DUP1 PUSH1 0x40 DUP1 DUP5 DUP7 SUB SLT ISZERO PUSH2 0x23E1 JUMPI PUSH1 0x0 DUP1 REVERT JUMPDEST PUSH2 0x23EA DUP5 PUSH2 0x221A JUMP JUMPDEST SWAP3 POP PUSH1 0x20 DUP1 DUP6 ADD CALLDATALOAD PUSH8 0xFFFFFFFFFFFFFFFF DUP1 DUP3 GT ISZERO PUSH2 0x2408 JUMPI PUSH1 0x0 DUP1 REVERT JUMPDEST DUP2 DUP8 ADD SWAP2 POP DUP8 PUSH1 0x1F DUP4 ADD SLT PUSH2 0x241C JUMPI PUSH1 0x0 DUP1 REVERT JUMPDEST DUP2 CALLDATALOAD DUP2 DUP2 GT ISZERO PUSH2 0x242E JUMPI PUSH2 0x242E PUSH2 0x232E JUMP JUMPDEST DUP1 PUSH1 0x5 SHL PUSH2 0x243D DUP6 DUP3 ADD PUSH2 0x2344 JUMP JUMPDEST SWAP2 DUP3 MSTORE DUP4 DUP2 ADD DUP6 ADD SWAP2 DUP6 DUP2 ADD SWAP1 DUP12 DUP5 GT ISZERO PUSH2 0x2457 JUMPI PUSH1 0x0 DUP1 REVERT JUMPDEST DUP7 DUP7 ADD SWAP3 POP JUMPDEST DUP4 DUP4 LT ISZERO PUSH2 0x24A7 JUMPI DUP3 CALLDATALOAD DUP6 DUP2 GT ISZERO PUSH2 0x2475 JUMPI PUSH1 0x0 DUP1 DUP2 REVERT JUMPDEST DUP7 ADD PUSH1 0x3F DUP2 ADD DUP14 SGT PUSH2 0x2487 JUMPI PUSH1 0x0 DUP1 DUP2 REVERT JUMPDEST PUSH2 0x2497 DUP14 DUP10 DUP4 ADD CALLDATALOAD DUP12 DUP5 ADD PUSH2 0x2375 JUMP JUMPDEST DUP4 MSTORE POP SWAP2 DUP7 ADD SWAP2 SWAP1 DUP7 ADD SWAP1 PUSH2 0x245D JUMP JUMPDEST DUP1 SWAP9 POP POP POP POP POP POP POP POP POP SWAP3 POP SWAP3 SWAP1 POP JUMP JUMPDEST PUSH1 0x0 PUSH1 0x20 DUP1 DUP4 ADD DUP2 DUP5 MSTORE DUP1 DUP6 MLOAD DUP1 DUP4 MSTORE PUSH1 0x40 DUP7 ADD SWAP2 POP PUSH1 0x40 DUP2 PUSH1 0x5 SHL DUP8 ADD ADD SWAP3 POP DUP4 DUP8 ADD PUSH1 0x0 JUMPDEST DUP3 DUP2 LT ISZERO PUSH2 0x250E JUMPI PUSH1 0x3F NOT DUP9 DUP7 SUB ADD DUP5 MSTORE PUSH2 0x24FC DUP6 DUP4 MLOAD PUSH2 0x2270 JUMP JUMPDEST SWAP5 POP SWAP3 DUP6 ADD SWAP3 SWAP1 DUP6 ADD SWAP1 PUSH1 0x1 ADD PUSH2 0x24E0 JUMP JUMPDEST POP SWAP3 SWAP8 SWAP7 POP POP POP POP POP POP POP JUMP JUMPDEST DUP1 CALLDATALOAD DUP1 ISZERO ISZERO DUP2 EQ PUSH2 0xA81 JUMPI PUSH1 0x0 DUP1 REVERT JUMPDEST PUSH1 0x0 PUSH1 0x20 DUP3 DUP5 SUB SLT ISZERO PUSH2 0x253D JUMPI PUSH1 0x0 DUP1 REVERT JUMPDEST PUSH2 0x81A DUP3 PUSH2 0x251B JUMP JUMPDEST PUSH1 0x0 DUP1 PUSH1 0x40 DUP4 DUP6 SUB SLT ISZERO PUSH2 0x2559 JUMPI PUSH1 0x0 DUP1 REVERT JUMPDEST PUSH2 0x2562 DUP4 PUSH2 0x221A JUMP JUMPDEST SWAP2 POP PUSH2 0x2570 PUSH1 0x20 DUP5 ADD PUSH2 0x251B JUMP JUMPDEST SWAP1 POP SWAP3 POP SWAP3 SWAP1 POP JUMP JUMPDEST PUSH1 0x20 DUP1 DUP3 MSTORE DUP3 MLOAD DUP3 DUP3 ADD DUP2 SWAP1 MSTORE PUSH1 0x0 SWAP2 SWAP1 DUP5 DUP3 ADD SWAP1 PUSH1 0x40 DUP6 ADD SWAP1 DUP5 JUMPDEST DUP2 DUP2 LT ISZERO PUSH2 0x25B1 JUMPI DUP4 MLOAD DUP4 MSTORE SWAP3 DUP5 ADD SWAP3 SWAP2 DUP5 ADD SWAP2 PUSH1 0x1 ADD PUSH2 0x2595 JUMP JUMPDEST POP SWAP1 SWAP7 SWAP6 POP POP POP POP POP POP JUMP JUMPDEST PUSH1 0x0 DUP1 PUSH1 0x0 DUP1 PUSH1 0x80 DUP6 DUP8 SUB SLT ISZERO PUSH2 0x25D3 JUMPI PUSH1 0x0 DUP1 REVERT JUMPDEST PUSH2 0x25DC DUP6 PUSH2 0x221A JUMP JUMPDEST SWAP4 POP PUSH2 0x25EA PUSH1 0x20 DUP7 ADD PUSH2 0x221A JUMP JUMPDEST SWAP3 POP PUSH1 0x40 DUP6 ADD CALLDATALOAD SWAP2 POP PUSH1 0x60 DUP6 ADD CALLDATALOAD PUSH8 0xFFFFFFFFFFFFFFFF DUP2 GT ISZERO PUSH2 0x260D JUMPI PUSH1 0x0 DUP1 REVERT JUMPDEST DUP6 ADD PUSH1 0x1F DUP2 ADD DUP8 SGT PUSH2 0x261E JUMPI PUSH1 0x0 DUP1 REVERT JUMPDEST PUSH2 0x262D DUP8 DUP3 CALLDATALOAD PUSH1 0x20 DUP5 ADD PUSH2 0x2375 JUMP JUMPDEST SWAP2 POP POP SWAP3 SWAP6 SWAP2 SWAP5 POP SWAP3 POP JUMP JUMPDEST PUSH1 0x0 DUP1 PUSH1 0x0 DUP1 PUSH1 0x0 DUP1 PUSH1 0x0 PUSH1 0xE0 DUP9 DUP11 SUB SLT ISZERO PUSH2 0x2654 JUMPI PUSH1 0x0 DUP1 REVERT JUMPDEST PUSH2 0x265D DUP9 PUSH2 0x221A JUMP JUMPDEST SWAP7 POP PUSH2 0x266B PUSH1 0x20 DUP10 ADD PUSH2 0x221A JUMP JUMPDEST SWAP6 POP PUSH1 0x40 DUP9 ADD CALLDATALOAD SWAP5 POP PUSH1 0x60 DUP9 ADD CALLDATALOAD SWAP4 POP PUSH1 0x80 DUP9 ADD CALLDATALOAD PUSH1 0xFF DUP2 AND DUP2 EQ PUSH2 0x268F JUMPI PUSH1 0x0 DUP1 REVERT JUMPDEST SWAP7 SWAP10 SWAP6 SWAP9 POP SWAP4 SWAP7 SWAP3 SWAP6 SWAP5 PUSH1 0xA0 DUP5 ADD CALLDATALOAD SWAP5 POP PUSH1 0xC0 SWAP1 SWAP4 ADD CALLDATALOAD SWAP3 SWAP2 POP POP JUMP JUMPDEST PUSH1 0x0 DUP1 PUSH1 0x40 DUP4 DUP6 SUB SLT ISZERO PUSH2 0x26BF JUMPI PUSH1 0x0 DUP1 REVERT JUMPDEST PUSH2 0x26C8 DUP4 PUSH2 0x221A JUMP JUMPDEST SWAP2 POP PUSH2 0x2570 PUSH1 0x20 DUP5 ADD PUSH2 0x221A JUMP JUMPDEST PUSH1 0x0 DUP1 PUSH1 0x40 DUP4 DUP6 SUB SLT ISZERO PUSH2 0x26E9 JUMPI PUSH1 0x0 DUP1 REVERT JUMPDEST POP POP DUP1 CALLDATALOAD SWAP3 PUSH1 0x20 SWAP1 SWAP2 ADD CALLDATALOAD SWAP2 POP JUMP JUMPDEST PUSH1 0x1 DUP2 DUP2 SHR SWAP1 DUP3 AND DUP1 PUSH2 0x270C JUMPI PUSH1 0x7F DUP3 AND SWAP2 POP JUMPDEST PUSH1 0x20 DUP3 LT DUP2 SUB PUSH2 0x272C JUMPI PUSH4 0x4E487B71 PUSH1 0xE0 SHL PUSH1 0x0 MSTORE PUSH1 0x22 PUSH1 0x4 MSTORE PUSH1 0x24 PUSH1 0x0 REVERT JUMPDEST POP SWAP2 SWAP1 POP JUMP JUMPDEST PUSH4 0x4E487B71 PUSH1 0xE0 SHL PUSH1 0x0 MSTORE PUSH1 0x32 PUSH1 0x4 MSTORE PUSH1 0x24 PUSH1 0x0 REVERT JUMPDEST PUSH1 0x1F DUP3 GT ISZERO PUSH2 0x98A JUMPI PUSH1 0x0 DUP2 DUP2 MSTORE PUSH1 0x20 DUP2 KECCAK256 PUSH1 0x1F DUP6 ADD PUSH1 0x5 SHR DUP2 ADD PUSH1 0x20 DUP7 LT ISZERO PUSH2 0x276F JUMPI POP DUP1 JUMPDEST PUSH1 0x1F DUP6 ADD PUSH1 0x5 SHR DUP3 ADD SWAP2 POP JUMPDEST DUP2 DUP2 LT ISZERO PUSH2 0x278E JUMPI DUP3 DUP2 SSTORE PUSH1 0x1 ADD PUSH2 0x277B JUMP JUMPDEST POP POP POP POP POP POP JUMP JUMPDEST DUP2 MLOAD PUSH8 0xFFFFFFFFFFFFFFFF DUP2 GT ISZERO PUSH2 0x27B0 JUMPI PUSH2 0x27B0 PUSH2 0x232E JUMP JUMPDEST PUSH2 0x27C4 DUP2 PUSH2 0x27BE DUP5 SLOAD PUSH2 0x26F8 JUMP JUMPDEST DUP5 PUSH2 0x2748 JUMP JUMPDEST PUSH1 0x20 DUP1 PUSH1 0x1F DUP4 GT PUSH1 0x1 DUP2 EQ PUSH2 0x27F9 JUMPI PUSH1 0x0 DUP5 ISZERO PUSH2 0x27E1 JUMPI POP DUP6 DUP4 ADD MLOAD JUMPDEST PUSH1 0x0 NOT PUSH1 0x3 DUP7 SWAP1 SHL SHR NOT AND PUSH1 0x1 DUP6 SWAP1 SHL OR DUP6 SSTORE PUSH2 0x278E JUMP JUMPDEST PUSH1 0x0 DUP6 DUP2 MSTORE PUSH1 0x20 DUP2 KECCAK256 PUSH1 0x1F NOT DUP7 AND SWAP2 JUMPDEST DUP3 DUP2 LT ISZERO PUSH2 0x2828 JUMPI DUP9 DUP7 ADD MLOAD DUP3 SSTORE SWAP5 DUP5 ADD SWAP5 PUSH1 0x1 SWAP1 SWAP2 ADD SWAP1 DUP5 ADD PUSH2 0x2809 JUMP JUMPDEST POP DUP6 DUP3 LT ISZERO PUSH2 0x2846 JUMPI DUP8 DUP6 ADD MLOAD PUSH1 0x0 NOT PUSH1 0x3 DUP9 SWAP1 SHL PUSH1 0xF8 AND SHR NOT AND DUP2 SSTORE JUMPDEST POP POP POP POP POP PUSH1 0x1 SWAP1 DUP2 SHL ADD SWAP1 SSTORE POP JUMP JUMPDEST PUSH4 0x4E487B71 PUSH1 0xE0 SHL PUSH1 0x0 MSTORE PUSH1 0x11 PUSH1 0x4 MSTORE PUSH1 0x24 PUSH1 0x0 REVERT JUMPDEST PUSH1 0x0 PUSH1 0x1 DUP3 ADD PUSH2 0x287E JUMPI PUSH2 0x287E PUSH2 0x2856 JUMP JUMPDEST POP PUSH1 0x1 ADD SWAP1 JUMP JUMPDEST DUP1 DUP3 MUL DUP2 ISZERO DUP3 DUP3 DIV DUP5 EQ OR PUSH2 0x6BB JUMPI PUSH2 0x6BB PUSH2 0x2856 JUMP JUMPDEST PUSH1 0x1 PUSH1 0x1 PUSH1 0xA0 SHL SUB DUP6 DUP2 AND DUP3 MSTORE DUP5 AND PUSH1 0x20 DUP3 ADD MSTORE PUSH1 0x40 DUP2 ADD DUP4 SWAP1 MSTORE PUSH1 0x80 PUSH1 0x60 DUP3 ADD DUP2 SWAP1 MSTORE PUSH1 0x0 SWAP1 PUSH2 0x28CF SWAP1 DUP4 ADD DUP5 PUSH2 0x2270 JUMP JUMPDEST SWAP7 SWAP6 POP POP POP POP POP POP JUMP JUMPDEST PUSH1 0x0 PUSH1 0x20 DUP3 DUP5 SUB SLT ISZERO PUSH2 0x28EB JUMPI PUSH1 0x0 DUP1 REVERT JUMPDEST DUP2 MLOAD PUSH2 0x81A DUP2 PUSH2 0x21E7 JUMP JUMPDEST PUSH1 0x0 DUP2 SLOAD PUSH2 0x2903 DUP2 PUSH2 0x26F8 JUMP JUMPDEST PUSH1 0x1 DUP3 DUP2 AND DUP1 ISZERO PUSH2 0x291B JUMPI PUSH1 0x1 DUP2 EQ PUSH2 0x2930 JUMPI PUSH2 0x295F JUMP JUMPDEST PUSH1 0xFF NOT DUP5 AND DUP8 MSTORE DUP3 ISZERO ISZERO DUP4 MUL DUP8 ADD SWAP5 POP PUSH2 0x295F JUMP JUMPDEST DUP6 PUSH1 0x0 MSTORE PUSH1 0x20 DUP1 PUSH1 0x0 KECCAK256 PUSH1 0x0 JUMPDEST DUP6 DUP2 LT ISZERO PUSH2 0x2956 JUMPI DUP2 SLOAD DUP11 DUP3 ADD MSTORE SWAP1 DUP5 ADD SWAP1 DUP3 ADD PUSH2 0x293D JUMP JUMPDEST POP POP POP DUP3 DUP8 ADD SWAP5 POP JUMPDEST POP POP POP POP SWAP3 SWAP2 POP POP JUMP JUMPDEST PUSH1 0x0 PUSH2 0x2975 DUP3 DUP6 PUSH2 0x28F6 JUMP JUMPDEST DUP4 MLOAD PUSH2 0x2985 DUP2 DUP4 PUSH1 0x20 DUP9 ADD PUSH2 0x224C JUMP JUMPDEST ADD SWAP5 SWAP4 POP POP POP POP JUMP JUMPDEST DUP2 DUP2 SUB DUP2 DUP2 GT ISZERO PUSH2 0x6BB JUMPI PUSH2 0x6BB PUSH2 0x2856 JUMP JUMPDEST DUP1 DUP3 ADD DUP1 DUP3 GT ISZERO PUSH2 0x6BB JUMPI PUSH2 0x6BB PUSH2 0x2856 JUMP JUMPDEST PUSH1 0x0 PUSH2 0x81A DUP3 DUP5 PUSH2 0x28F6 JUMP JUMPDEST PUSH1 0x0 DUP3 PUSH2 0x29DD JUMPI PUSH4 0x4E487B71 PUSH1 0xE0 SHL PUSH1 0x0 MSTORE PUSH1 0x12 PUSH1 0x4 MSTORE PUSH1 0x24 PUSH1 0x0 REVERT JUMPDEST POP DIV SWAP1 JUMP JUMPDEST PUSH4 0x4E487B71 PUSH1 0xE0 SHL PUSH1 0x0 MSTORE PUSH1 0x31 PUSH1 0x4 MSTORE PUSH1 0x24 PUSH1 0x0 REVERT INVALID LOG2 PUSH5 0x6970667358 0x22 SLT KECCAK256 PUSH28 0x45CE04DA083ED79263392EBF2648AB4FB2C41BD23C005C5C14AEE3EE 0xB6 CALL 0xE2 PUSH5 0x736F6C6343 STOP ADDMOD EQ STOP CALLER 0xDD CALLCODE MSTORE 0xAD SHL 0xE2 0xC8 SWAP12 PUSH10 0xC2B068FC378DAA952BA7 CALL PUSH4 0xC4A11628 CREATE2 GAS 0x4D CREATE2 0x23 0xB3 0xEF LOG2 PUSH5 0x6970667358 0x22 SLT KECCAK256 DUP7 JUMPI LOG0 DUP8 0x2C DUP8 PUSH20 0xA5AAC803CCB6F695EBFE7BB9FF74CD539B04E40C 0xB0 SWAP12 0x4E 0x1F 0xCC PUSH5 0x736F6C6343 STOP ADDMOD EQ STOP CALLER "},"methodIdentifiers":{"_setURI(string)":"f392d4f5","addCIDs(uint256,address,string[])":"6264d1bc","addToWhitelist(address)":"e43252d7","createERC404(string,string,uint8,uint256,address)":"013afc51","erc404Instances(uint256)":"f47efcff","getCIDs(uint256,address)":"fe232f05","getContribution(uint256,address)":"e081dbf9","id()":"af640d0f","isWhitelisted(address)":"3af32abf","owner()":"8da5cb5b","removeFromWhitelist(address)":"8ab1d681","renounceOwnership()":"715018a6","transferOwnership(address)":"f2fde38b","uri()":"eac989f8"}}}}}