{"contracts/ERC404Instance.sol":{"ERC404Instance":{"abi":[{"inputs":[{"internalType":"string","name":"name_","type":"string"},{"internalType":"string","name":"symbol_","type":"string"},{"internalType":"uint8","name":"decimals_","type":"uint8"},{"internalType":"uint256","name":"maxTotalSupplyERC721_","type":"uint256"},{"internalType":"address","name":"initialMintRecipient_","type":"address"},{"internalType":"string","name":"uri_","type":"string"}],"stateMutability":"nonpayable","type":"constructor"},{"inputs":[],"name":"AlreadyExists","type":"error"},{"inputs":[],"name":"DecimalsTooLow","type":"error"},{"inputs":[],"name":"InsufficientAllowance","type":"error"},{"inputs":[],"name":"InvalidApproval","type":"error"},{"inputs":[],"name":"InvalidExemption","type":"error"},{"inputs":[],"name":"InvalidOperator","type":"error"},{"inputs":[],"name":"InvalidRecipient","type":"error"},{"inputs":[],"name":"InvalidSender","type":"error"},{"inputs":[],"name":"InvalidSigner","type":"error"},{"inputs":[],"name":"InvalidSpender","type":"error"},{"inputs":[],"name":"InvalidTokenId","type":"error"},{"inputs":[],"name":"MintLimitReached","type":"error"},{"inputs":[],"name":"NotFound","type":"error"},{"inputs":[],"name":"OwnedIndexOverflow","type":"error"},{"inputs":[],"name":"PermitDeadlineExpired","type":"error"},{"inputs":[],"name":"QueueEmpty","type":"error"},{"inputs":[],"name":"QueueFull","type":"error"},{"inputs":[],"name":"QueueOutOfBounds","type":"error"},{"inputs":[],"name":"RecipientIsERC721TransferExempt","type":"error"},{"inputs":[],"name":"Unauthorized","type":"error"},{"inputs":[],"name":"UnsafeRecipient","type":"error"},{"anonymous":false,"inputs":[{"indexed":true,"internalType":"address","name":"owner","type":"address"},{"indexed":true,"internalType":"address","name":"spender","type":"address"},{"indexed":false,"internalType":"uint256","name":"value","type":"uint256"}],"name":"Approval","type":"event"},{"anonymous":false,"inputs":[{"indexed":true,"internalType":"address","name":"owner","type":"address"},{"indexed":true,"internalType":"address","name":"spender","type":"address"},{"indexed":true,"internalType":"uint256","name":"id","type":"uint256"}],"name":"Approval","type":"event"},{"anonymous":false,"inputs":[{"indexed":true,"internalType":"address","name":"owner","type":"address"},{"indexed":true,"internalType":"address","name":"operator","type":"address"},{"indexed":false,"internalType":"bool","name":"approved","type":"bool"}],"name":"ApprovalForAll","type":"event"},{"anonymous":false,"inputs":[{"indexed":true,"internalType":"address","name":"user","type":"address"},{"indexed":false,"internalType":"string[]","name":"cids","type":"string[]"}],"name":"CIDsAdded","type":"event"},{"anonymous":false,"inputs":[{"indexed":true,"internalType":"address","name":"previousOwner","type":"address"},{"indexed":true,"internalType":"address","name":"newOwner","type":"address"}],"name":"OwnershipTransferred","type":"event"},{"anonymous":false,"inputs":[{"indexed":true,"internalType":"address","name":"from","type":"address"},{"indexed":true,"internalType":"address","name":"to","type":"address"},{"indexed":false,"internalType":"uint256","name":"amount","type":"uint256"}],"name":"Transfer","type":"event"},{"anonymous":false,"inputs":[{"indexed":true,"internalType":"address","name":"from","type":"address"},{"indexed":true,"internalType":"address","name":"to","type":"address"},{"indexed":true,"internalType":"uint256","name":"id","type":"uint256"}],"name":"Transfer","type":"event"},{"inputs":[],"name":"DOMAIN_SEPARATOR","outputs":[{"internalType":"bytes32","name":"","type":"bytes32"}],"stateMutability":"view","type":"function"},{"inputs":[],"name":"ID_ENCODING_PREFIX","outputs":[{"internalType":"uint256","name":"","type":"uint256"}],"stateMutability":"view","type":"function"},{"inputs":[{"internalType":"address","name":"user","type":"address"},{"internalType":"string[]","name":"cids","type":"string[]"}],"name":"addCIDs","outputs":[],"stateMutability":"nonpayable","type":"function"},{"inputs":[{"internalType":"address","name":"","type":"address"},{"internalType":"address","name":"","type":"address"}],"name":"allowance","outputs":[{"internalType":"uint256","name":"","type":"uint256"}],"stateMutability":"view","type":"function"},{"inputs":[{"internalType":"address","name":"spender_","type":"address"},{"internalType":"uint256","name":"valueOrId_","type":"uint256"}],"name":"approve","outputs":[{"internalType":"bool","name":"","type":"bool"}],"stateMutability":"nonpayable","type":"function"},{"inputs":[{"internalType":"address","name":"","type":"address"}],"name":"balanceOf","outputs":[{"internalType":"uint256","name":"","type":"uint256"}],"stateMutability":"view","type":"function"},{"inputs":[],"name":"decimals","outputs":[{"internalType":"uint8","name":"","type":"uint8"}],"stateMutability":"view","type":"function"},{"inputs":[{"internalType":"address","name":"spender_","type":"address"},{"internalType":"uint256","name":"value_","type":"uint256"}],"name":"erc20Approve","outputs":[{"internalType":"bool","name":"","type":"bool"}],"stateMutability":"nonpayable","type":"function"},{"inputs":[{"internalType":"address","name":"owner_","type":"address"}],"name":"erc20BalanceOf","outputs":[{"internalType":"uint256","name":"","type":"uint256"}],"stateMutability":"view","type":"function"},{"inputs":[],"name":"erc20TotalSupply","outputs":[{"internalType":"uint256","name":"","type":"uint256"}],"stateMutability":"view","type":"function"},{"inputs":[{"internalType":"address","name":"from_","type":"address"},{"internalType":"address","name":"to_","type":"address"},{"internalType":"uint256","name":"value_","type":"uint256"}],"name":"erc20TransferFrom","outputs":[{"internalType":"bool","name":"","type":"bool"}],"stateMutability":"nonpayable","type":"function"},{"inputs":[{"internalType":"address","name":"spender_","type":"address"},{"internalType":"uint256","name":"id_","type":"uint256"}],"name":"erc721Approve","outputs":[],"stateMutability":"nonpayable","type":"function"},{"inputs":[{"internalType":"address","name":"owner_","type":"address"}],"name":"erc721BalanceOf","outputs":[{"internalType":"uint256","name":"","type":"uint256"}],"stateMutability":"view","type":"function"},{"inputs":[],"name":"erc721TotalSupply","outputs":[{"internalType":"uint256","name":"","type":"uint256"}],"stateMutability":"view","type":"function"},{"inputs":[{"internalType":"address","name":"target_","type":"address"}],"name":"erc721TransferExempt","outputs":[{"internalType":"bool","name":"","type":"bool"}],"stateMutability":"view","type":"function"},{"inputs":[{"internalType":"address","name":"from_","type":"address"},{"internalType":"address","name":"to_","type":"address"},{"internalType":"uint256","name":"id_","type":"uint256"}],"name":"erc721TransferFrom","outputs":[],"stateMutability":"nonpayable","type":"function"},{"inputs":[{"internalType":"uint256","name":"","type":"uint256"}],"name":"getApproved","outputs":[{"internalType":"address","name":"","type":"address"}],"stateMutability":"view","type":"function"},{"inputs":[{"internalType":"address","name":"user","type":"address"}],"name":"getCIDs","outputs":[{"internalType":"string[]","name":"","type":"string[]"}],"stateMutability":"view","type":"function"},{"inputs":[{"internalType":"address","name":"user","type":"address"}],"name":"getContribution","outputs":[{"internalType":"uint256","name":"","type":"uint256"}],"stateMutability":"view","type":"function"},{"inputs":[],"name":"getERC721QueueLength","outputs":[{"internalType":"uint256","name":"","type":"uint256"}],"stateMutability":"view","type":"function"},{"inputs":[{"internalType":"uint256","name":"start_","type":"uint256"},{"internalType":"uint256","name":"count_","type":"uint256"}],"name":"getERC721TokensInQueue","outputs":[{"internalType":"uint256[]","name":"","type":"uint256[]"}],"stateMutability":"view","type":"function"},{"inputs":[{"internalType":"address","name":"","type":"address"},{"internalType":"address","name":"","type":"address"}],"name":"isApprovedForAll","outputs":[{"internalType":"bool","name":"","type":"bool"}],"stateMutability":"view","type":"function"},{"inputs":[],"name":"minted","outputs":[{"internalType":"uint256","name":"","type":"uint256"}],"stateMutability":"view","type":"function"},{"inputs":[],"name":"name","outputs":[{"internalType":"string","name":"","type":"string"}],"stateMutability":"view","type":"function"},{"inputs":[{"internalType":"address","name":"","type":"address"}],"name":"nonces","outputs":[{"internalType":"uint256","name":"","type":"uint256"}],"stateMutability":"view","type":"function"},{"inputs":[{"internalType":"address","name":"owner_","type":"address"}],"name":"owned","outputs":[{"internalType":"uint256[]","name":"","type":"uint256[]"}],"stateMutability":"view","type":"function"},{"inputs":[],"name":"owner","outputs":[{"internalType":"address","name":"","type":"address"}],"stateMutability":"view","type":"function"},{"inputs":[{"internalType":"uint256","name":"id_","type":"uint256"}],"name":"ownerOf","outputs":[{"internalType":"address","name":"erc721Owner","type":"address"}],"stateMutability":"view","type":"function"},{"inputs":[{"internalType":"address","name":"owner_","type":"address"},{"internalType":"address","name":"spender_","type":"address"},{"internalType":"uint256","name":"value_","type":"uint256"},{"internalType":"uint256","name":"deadline_","type":"uint256"},{"internalType":"uint8","name":"v_","type":"uint8"},{"internalType":"bytes32","name":"r_","type":"bytes32"},{"internalType":"bytes32","name":"s_","type":"bytes32"}],"name":"permit","outputs":[],"stateMutability":"nonpayable","type":"function"},{"inputs":[],"name":"renounceOwnership","outputs":[],"stateMutability":"nonpayable","type":"function"},{"inputs":[{"internalType":"address","name":"from_","type":"address"},{"internalType":"address","name":"to_","type":"address"},{"internalType":"uint256","name":"id_","type":"uint256"}],"name":"safeTransferFrom","outputs":[],"stateMutability":"nonpayable","type":"function"},{"inputs":[{"internalType":"address","name":"from_","type":"address"},{"internalType":"address","name":"to_","type":"address"},{"internalType":"uint256","name":"id_","type":"uint256"},{"internalType":"bytes","name":"data_","type":"bytes"}],"name":"safeTransferFrom","outputs":[],"stateMutability":"nonpayable","type":"function"},{"inputs":[{"internalType":"address","name":"operator_","type":"address"},{"internalType":"bool","name":"approved_","type":"bool"}],"name":"setApprovalForAll","outputs":[],"stateMutability":"nonpayable","type":"function"},{"inputs":[{"internalType":"address","name":"account_","type":"address"},{"internalType":"bool","name":"value_","type":"bool"}],"name":"setERC721TransferExempt","outputs":[],"stateMutability":"nonpayable","type":"function"},{"inputs":[{"internalType":"bool","name":"state_","type":"bool"}],"name":"setSelfERC721TransferExempt","outputs":[],"stateMutability":"nonpayable","type":"function"},{"inputs":[{"internalType":"bytes4","name":"interfaceId","type":"bytes4"}],"name":"supportsInterface","outputs":[{"internalType":"bool","name":"","type":"bool"}],"stateMutability":"view","type":"function"},{"inputs":[],"name":"symbol","outputs":[{"internalType":"string","name":"","type":"string"}],"stateMutability":"view","type":"function"},{"inputs":[{"internalType":"uint256","name":"id_","type":"uint256"}],"name":"tokenURI","outputs":[{"internalType":"string","name":"","type":"string"}],"stateMutability":"view","type":"function"},{"inputs":[],"name":"totalSupply","outputs":[{"internalType":"uint256","name":"","type":"uint256"}],"stateMutability":"view","type":"function"},{"inputs":[{"internalType":"address","name":"to_","type":"address"},{"internalType":"uint256","name":"value_","type":"uint256"}],"name":"transfer","outputs":[{"internalType":"bool","name":"","type":"bool"}],"stateMutability":"nonpayable","type":"function"},{"inputs":[{"internalType":"address","name":"from_","type":"address"},{"internalType":"address","name":"to_","type":"address"},{"internalType":"uint256","name":"valueOrId_","type":"uint256"}],"name":"transferFrom","outputs":[{"internalType":"bool","name":"","type":"bool"}],"stateMutability":"nonpayable","type":"function"},{"inputs":[{"internalType":"address","name":"newOwner","type":"address"}],"name":"transferOwnership","outputs":[],"stateMutability":"nonpayable","type":"function"},{"inputs":[],"name":"units","outputs":[{"internalType":"uint256","name":"","type":"uint256"}],"stateMutability":"view","type":"function"},{"inputs":[],"name":"uri","outputs":[{"internalType":"string","name":"","type":"string"}],"stateMutability":"view","type":"function"}],"evm":{"bytecode":{"linkReferences":{},"object":"610100806040523462000c62576200381c803803809162000021828562000c67565b8339810160c08282031262000c625781516001600160401b03811162000c6257816200004f91840162000c8b565b60208301519092906001600160401b03811162000c6257826200007491830162000c8b565b60408201519060ff8216820362000c625760608301516080840151949093906001600160a01b038616860362000c625760a08201516001600160401b03811162000c6257620000c4920162000c8b565b60008054336001600160a01b0319821681178355929792916001600160a01b03909116907f8be0079c531659141344cd1fd0a4f28419497f9722a3daafe3b4186f6b6457e09080a38051906001600160401b0382116200065c5781906200012d60035462000d01565b601f811162000bfe575b50602090601f831160011462000b805760009262000b74575b50508160011b916000199060031b1c1916176003555b8051906001600160401b0382116200065c5781906200018760045462000d01565b601f811162000aff575b50602090601f831160011462000a705760009262000a64575b50508160011b916000199060031b1c1916176004555b601260ff82161062000a525780608052604d60ff821611620006465760ff16600a0a60a0524660c052604051600354816000620001fd8362000d01565b808352926001811690811562000a315750600114620009de575b620002259250038262000c67565b6020815191012060405160208101917f8b73c3c69bb8fe3d512ecc4cf759cc79239f7b179b0ffacaa9a75d522b39400f835260408201527fc89efdaa54c0f20c7adf612882df0950f5a951637e0307cdcb4c672f298b8bc660608201524660808201523060a082015260a0815260c0810181811060018060401b038211176200065c5760405251902060e05282516001600160401b0381116200065c57620002cf600f5462000d01565b601f811162000985575b506020601f82116001146200090c578192939460009262000900575b50508160011b916000199060031b1c191617600f555b6001600160a01b03821615620008ee576001600160a01b0382166000908152600c6020526040812054905b818110620006f45750506001600160a01b0382166000908152600d60205260409020805460ff1916600117905580158015620003cb575b6040516129be908162000dfe823960805181611146015260a051818181610cb60152818161138e01528181611eaf015281816120d0015281816121fe0152818161227801526122db015260c05181611a43015260e05181611a6a0152f35b60a051808302928304141715620006465760055490600160ff1b620003f1828462000d3e565b11620006d057600760205260018060a01b0383166000526200041a816040600020549362000d3e565b6005556001600160a01b03831660008181526007602090815260408083208054860190555193845291929091600080516020620037dc83398151915291a36001600160a01b0382166000908152600d602052604090205460ff161562000482575b806200036d565b6007602052620004aa6200049f60406000205460a0519062000d4c565b9160a0519062000d4c565b8103908111620006465760005b818110620004c657506200047b565b6001600160a01b03831615620006e257600154608081901c6001600160801b03909116146200069657600154608081901c6001600160801b03821614620006845760001960809190911c016001600160801b0381166000908152600260205260408120805492919055600180546001600160801b031660809290921b6001600160801b031916919091179055905b6000828152600b60205260409020546001600160a01b0316918262000672576000818152600b6020908152604080832080546001600160a01b0319166001600160a01b038a169081019091558352600c90915290208054680100000000000000008110156200065c57620005d481620005ed936001869401815562000d6d565b90919082549060031b91821b91600019901b1916179055565b6001600160a01b0385166000908152600c60205260409020546000198101939084116200064657620006226001948362000d9c565b838060a01b03861690600080516020620037dc833981519152600080a401620004b7565b634e487b7160e01b600052601160045260246000fd5b634e487b7160e01b600052604160045260246000fd5b60405163119b4fd360e11b8152600490fd5b6040516375e52f4f60e01b8152600490fd5b60068054906000199081831462000646576001830180915514620006d0576001600160ff1b0101600160ff1b811062000646579062000554565b60405163303b682f60e01b8152600490fd5b604051634e46966960e11b8152600490fd5b6001600160a01b03841615620008dc576001600160a01b0384166000908152600c60205260409020805460001981019081116200064657620007369162000d6d565b905460039190911b1c600081815260096020908152604080832080546001600160a01b03191690556001600160a01b0388168352600c90915290208054919291906000198201821062000646576200079391600019019062000d6d565b90549060031b1c82810362000891575b506001600160a01b0385166000908152600c60205260409020805480156200087b576000190190620007d6828262000d6d565b8154906000199060031b1b191690555581600052600b6020526000604081205581600060018060a01b038716600080516020620037dc8339815191528280a46001546001600160801b0380821660001901169060801c811462000869576001600160801b038116600090815260026020526040902092909255600180546001600160801b03191690921782550162000336565b604051638acb5f2760e01b8152600490fd5b634e487b7160e01b600052603160045260246000fd5b620008d59083600052600b60205260406000205460a01c9060018060a01b038816600052600c602052620008cf81620005d484604060002062000d6d565b62000d9c565b38620007a3565b604051636edaef2f60e11b8152600490fd5b60405163a41e3d3f60e01b8152600490fd5b015190503880620002f5565b600f6000908152600080516020620037fc8339815191529190601f198416905b8181106200096c5750958360019596971062000952575b505050811b01600f556200030b565b015160001960f88460031b161c1916905538808062000943565b9192602060018192868b0151815501940192016200092c565b600f600052600080516020620037fc833981519152601f830160051c81019160208410620009d3575b601f0160051c01905b818110620009c65750620002d9565b60008155600101620009b7565b9091508190620009ae565b50600360009081529091600080516020620037bc8339815191525b81831062000a14575050906020620002259282010162000217565b6020919350806001915483858801015201910190918392620009f9565b602092506200022594915060ff191682840152151560051b82010162000217565b6040516398790fd560e01b8152600490fd5b015190503880620001aa565b6004600090815293507f8a35acfbc15ff81a39ae7d344fd709f28e8600b4aa8c65c6b64bfe7fe36bd19b91905b601f198416851062000ae3576001945083601f1981161062000ac9575b505050811b01600455620001c0565b015160001960f88460031b161c1916905538808062000aba565b8181015183556020948501946001909301929091019062000a9d565b60046000529091507f8a35acfbc15ff81a39ae7d344fd709f28e8600b4aa8c65c6b64bfe7fe36bd19b601f840160051c8101916020851062000b69575b90601f859493920160051c01905b81811062000b59575062000191565b6000815584935060010162000b4a565b909150819062000b3c565b01519050388062000150565b600360009081529350600080516020620037bc83398151915291905b601f198416851062000be2576001945083601f1981161062000bc8575b505050811b0160035562000166565b015160001960f88460031b161c1916905538808062000bb9565b8181015183556020948501946001909301929091019062000b9c565b6003600052909150600080516020620037bc833981519152601f840160051c8101916020851062000c57575b90601f859493920160051c01905b81811062000c47575062000137565b6000815584935060010162000c38565b909150819062000c2a565b600080fd5b601f909101601f19168101906001600160401b038211908210176200065c57604052565b919080601f8401121562000c625782516001600160401b0381116200065c576020906040519262000cc683601f19601f850116018562000c67565b81845282828701011162000c625760005b81811062000ced57508260009394955001015290565b858101830151848201840152820162000cd7565b90600182811c9216801562000d33575b602083101462000d1d57565b634e487b7160e01b600052602260045260246000fd5b91607f169162000d11565b919082018092116200064657565b811562000d57570490565b634e487b7160e01b600052601260045260246000fd5b805482101562000d865760005260206000200190600090565b634e487b7160e01b600052603260045260246000fd5b6000818152600b602052604090205491906001600160601b03821162000deb576000908152600b602052604090206001600160a01b039290921660a09190911b6001600160a01b031916019055565b604051633f2cd0e360e21b8152600490fdfe608060408181526004918236101561001657600080fd5b600090813560e01c90816301ffc9a7146116d75750806302519da314610eb657806306fdde0314611625578063081812fc146115f2578063095ea7b3146115c957806309674eb01461159957806309f0ef651461157357806318160ddd14610e0557806321eff7fc1461153b57806323b872dd1461151f57806325c03c8a1461116a578063313ce5671461112c5780633644e5151461110857806342842e0e146110ba5780634d966072146110915780634f02c42014610a7a5780636352211e146110165780636367da9c14610f0d5780636e8f624b14610eee57806370a0823114610eb6578063715018a614610e5c5780637ecebe0014610e2457806389fb4c6614610e055780638a696e5014610dde5780638da5cb5b14610db657806395d89b4114610cd9578063976a843514610c9e578063a22cb46514610c01578063a9059cbb14610bb8578063b1ab931714610b36578063b3f9ea3414610afe578063b88d4fde14610a99578063c5ab3ba614610a7a578063c6e672b914610a48578063c87b56dd146107f0578063d505accf146105c3578063d96ca0b91461059e578063dd62ed3e14610555578063dd6376991461053d578063dfabc03314610515578063e985e9c5146104c3578063eac989f8146103da578063f2fde38b146103135763f780bc1a1461020857600080fd5b34610310578160031936011261031057508135906024356102288161184b565b9261023583519485611796565b818452601f196102448361184b565b0136602086013780946102686001546001600160801b03908181169060801c031690565b926001600160801b039160019485928460015416935b610294575b8751806102908b82611929565b0390f35b6102a281879a99989a611feb565b8a101561030757818a10156102f757888a6102db8780849e9d9b9c9d168801166001600160801b03166000526002602052604060002090565b546102ef6102e98a84611d89565b8d6119fc565b52019961027e565b865163580821e760e01b81528390fd5b86979850610283565b80fd5b5091346103d65760203660031901126103d65761032e61172b565b90610337611ff8565b6001600160a01b0391821692831561038457505082546001600160a01b0319811683178455167f8be0079c531659141344cd1fd0a4f28419497f9722a3daafe3b4186f6b6457e08380a380f35b906020608492519162461bcd60e51b8352820152602660248201527f4f776e61626c653a206e6577206f776e657220697320746865207a65726f206160448201526564647265737360d01b6064820152fd5b8280fd5b50346103105780600319360112610310578151918282600f546103fc8161175c565b908184526020956001918760018216918260001461049c575050600114610440575b5050506102909291610431910385611796565b519282849384528301906117f1565b9190869350600f83527f8d1108e10bcb7c27dddfc02ed9d693a074039d026cf4ea4240b40f7d581ac8025b828410610484575050508201018161043161029061041e565b8054848a01860152889550879490930192810161046b565b60ff19168782015293151560051b860190930193508492506104319150610290905061041e565b50903461051157806003193601126105115760ff816020936104e361172b565b6104eb611746565b6001600160a01b039182168352600a875283832091168252855220549151911615158152f35b5080fd5b509034610511573660031901126103105761053a61053161172b565b60243590611f49565b80f35b50346103105761053a61054f36611816565b91611e45565b5090346105115780600319360112610511578060209261057361172b565b61057b611746565b6001600160a01b0391821683526008865283832091168252845220549051908152f35b509034610511576020906105ba6105b436611816565b91611dac565b90519015158152f35b5090346105115760e0366003190112610511576105de61172b565b906105e7611746565b604435606435926084359260ff84168094036107ec574285106107dc57600160ff1b8311806107d0575b6107c0576001600160a01b039081169586156107b05781610630611a3e565b911695868952602095600e8752848a2092835493600185019055855192888401947f6e71edae12b1b97f4d1f60370fef10105fa2faae0126114a169c64845d6126c986528a888601528b606086015288608086015260a085015260c084015260c0835260e0830167ffffffffffffffff948482108683111761079c578188528451902061010085019261190160f01b8452610102860152610122850152604281526101608401948186109086111761078957848752519020835261018082015260a4356101a082015260c4356101c0909101528780528490889060809060015afa1561077f5786511680158015610775575b610765578652600883528086208587528352808620829055519081527f8c5be1e5ebec7d5bd14f71427d1e84f3dd0314c0f7b2291e5b200ac8c7c3b9259190a380f35b8151632057875960e21b81528890fd5b5084811415610722565b81513d88823e3d90fd5b634e487b7160e01b8c5260418d5260248cfd5b50634e487b7160e01b8c5260418d5260248cfd5b8251635461585f60e01b81528990fd5b81516303e7c1bd60e31b81528890fd5b50600019831415610611565b81516305787bdf60e01b81528890fd5b8680fd5b509190346103d65760209182600319360112610a4457803590819480917a184f03e93ff9f4daa797ed6e38ed64bf6a1f01000000000000000080851015610a37575b506d04ee2d6d415b85acef810000000080881015610a29575b50662386f26fc1000080881015610a1a575b506305f5e10080881015610a0b575b50612710808810156109fc575b505060648610156109ec575b600a809610156109e2575b60019160018101966108b96108a489611863565b986108b188519a8b611796565b808a52611863565b94846021898b0194601f198099013687378b0101905b6109b3575b505050845196879383600f54916108ea8361175c565b928a60018216918260001461098c57505060011461092c575b505050918061091f6104319593610290989795519384916117ce565b0103908101865285611796565b8993949550600f82527f8d1108e10bcb7c27dddfc02ed9d693a074039d026cf4ea4240b40f7d581ac8025b8383106109725750505084010191908061091f610290610903565b80549783018501979097528a968a94909201918101610957565b60ff1916898201528415159094028801909301955083925061091f91506102909050610903565b600019019082906f181899199a1a9b1b9c1cb0b131b232b360811b8282061a8353049085826108cf57506108d4565b9060010190610890565b9094606460029104950190610885565b90919296049501903880610879565b6008919397049601913861086c565b6010919397049601913861085d565b86919397049601913861084b565b8404965084925038610832565b8380fd5b509034610511573660031901126103105761053a610a6461172b565b610a6c61191a565b90610a75611ff8565b612050565b5090346105115781600319360112610511576020906006549051908152f35b50823461051157608036600319011261051157610ab461172b565b610abc611746565b9060643567ffffffffffffffff8111610afa5736602382011215610afa5761053a93816024610af09336930135910161187f565b9160443591611c56565b8480fd5b5090346105115760203660031901126105115760209181906001600160a01b03610b2661172b565b168152600c845220549051908152f35b5090346105115760209060206003193601126103d6576001600160a01b03610b5c61172b565b168352600c60205280832092815180936020865492838152019583526020832092905b828210610ba1576102908686610b97828b0383611796565b5191829182611929565b835487529586019560019384019390910190610b7f565b503461031057816003193601126103105750610bd261172b565b916001600160a01b03831615610bf357506105ba6020926024359033612174565b9051634e46966960e11b8152fd5b509190346103d657806003193601126103d657610c1c61172b565b90610c2561191a565b6001600160a01b03909216928315610c905750338452600a602052808420838552602052610c61828286209060ff801983541691151516179055565b5190151581527f17307eab39ab6107e8899845ad3d59bd9653f200f220920489ca2b5937696c3160203392a380f35b905163ccea9e6f60e01b8152fd5b509034610511578160031936011261051157602090517f00000000000000000000000000000000000000000000000000000000000000008152f35b509190346103d657826003193601126103d6578051838194908454610cfd8161175c565b9182855260209660019288600182169182600014610d8c575050600114610d31575b858861029089610431848a0385611796565b815286935091907f8a35acfbc15ff81a39ae7d344fd709f28e8600b4aa8c65c6b64bfe7fe36bd19b5b828410610d74575050508201018161043161029038610d1f565b8054848a018601528895508794909301928101610d5a565b60ff19168882015294151560051b8701909401945085935061043192506102909150389050610d1f565b509034610511578160031936011261051157905490516001600160a01b039091168152602090f35b508234610511576020366003190112610511573580151581036105115761053a9033612050565b5090346105115781600319360112610511576020906005549051908152f35b5090346105115760203660031901126105115760209181906001600160a01b03610e4c61172b565b168152600e845220549051908152f35b5034610310578060031936011261031057610e75611ff8565b80546001600160a01b03198116825581906001600160a01b03167f8be0079c531659141344cd1fd0a4f28419497f9722a3daafe3b4186f6b6457e08280a380f35b5090346105115760203660031901126105115760209181906001600160a01b03610ede61172b565b1681526007845220549051908152f35b50903461051157816003193601126105115751600160ff1b8152602090f35b50903461051157602090816003193601126103d65782906001600160a01b03610f3461172b565b1682526010835280822091825490610f4b8261184b565b93610f5884519586611796565b82855281528481209481908086015b848310610f7b5785518061029089826118b6565b85518285928a5492610f8c8461175c565b808252600194808616908115610ffa5750600114610fc2575b50610fb4816001960382611796565b815201980192019196610f67565b8c8952838920955088905b808210610fe35750810183019450610fb4610fa5565b865483830186015295850195879490910190610fcd565b60ff19168584015250151560051b810183019450610fb4610fa5565b509034610511576020366003190112610511578235808352600b60205291819020546001600160a01b031691600160ff1b81119081611084575b5015611075578115611066576020925051908152f35b5163c5723b5160e01b81529050fd5b516307ed98ed60e31b81529050fd5b6000191415905038611050565b5090346105115780600319360112610511576020906105ba6110b161172b565b60243590611be7565b509034610511576110ca36611816565b91835193602085019085821067ffffffffffffffff8311176110f55761053a96975052858452611c56565b634e487b7160e01b875260418852602487fd5b509034610511578160031936011261051157602090611125611a3e565b9051908152f35b5090346105115781600319360112610511576020905160ff7f0000000000000000000000000000000000000000000000000000000000000000168152f35b50823461051157826003193601126105115761118461172b565b91602480359067ffffffffffffffff9283831161031057366023840112156103105782850135926111b48461184b565b976111c18151998a611796565b848952602091828a018560059760051b8301019136831161151b57868101915b8383106114e057505050506111f4611ff8565b6001600160a01b038816835b8a5181101561138257818552601084528285209061121e818d6119fc565b51918054600160401b8110156113705761123f906001928382018155611a26565b91909161135f578351908b821161134d5761125a835461175c565b94601f9586811161130b575b50889583116001146112a357829160019683928c94611298575b50501b916000199060031b1c19161790555b01611200565b015192503880611280565b90929394601f19831691858b52898b20928b5b8b8282106112f75750509084600198979695949392106112de575b505050811b019055611292565b015160001960f88460031b161c191690558f80806112d1565b8385015186559487019493840193016112b6565b848b52898b208d88808701821c8301938d8810611344575b01901c019083905b828110611339575050611266565b8c815501839061132b565b93508293611323565b634e487b7160e01b895260418d528989fd5b634e487b7160e01b8852878c528888fd5b634e487b7160e01b885260418c528888fd5b5092938789918b9485517f000000000000000000000000000000000000000000000000000000000000000092838202918083048514901517156114cf575087156114bf5760055493600160ff1b6113d98387611feb565b116114b1575088600080516020612969833981519152838a9360078252848452611407818b86205499611feb565b600555848452600782528984208181540190558951908152a36114298461199e565b15611467575b87877f9db9873cd0c3e9e21710778297adb5b1a923b4c4663a32440d58dc743a5478da611461898951918291826118b6565b0390a280f35b61148f9291600761148992898b525261148381878b2054612154565b92612154565b90611d89565b90855b82811061149f578061142f565b6001906114ab836127cf565b01611492565b865163303b682f60e01b8152fd5b8551634e46966960e11b81528490fd5b634e487b7160e01b8a526011855289fd5b82358a81116115175782013660438201121561151757869161150c8392369060448d820135910161187f565b8152019201916111e1565b8780fd5b8580fd5b509034610511576020906105ba61153536611816565b916119ca565b5090346105115760203660031901126105115760209181906001600160a01b0361156361172b565b1681526010845220549051908152f35b509034610511576020366003190112610511576020906105ba61159461172b565b61199e565b5090346105115781600319360112610511576020906111256001546001600160801b03908181169060801c031690565b5090346105115780600319360112610511576020906105ba6115e961172b565b60243590611965565b5091346103d65760203660031901126103d65735825260096020908152918190205490516001600160a01b039091168152f35b503461031057806003193601126103105781519182826003546116478161175c565b908184526020956001918760018216918260001461049c57505060011461167b575050506102909291610431910385611796565b9190869350600383527fc2575a0e9e593c00f959f8c92f12db2869c3395a3b0502d05e2516446f71f85b5b8284106116bf575050508201018161043161029061041e565b8054848a0186015288955087949093019281016116a6565b905083346103d65760203660031901126103d6573563ffffffff60e01b81168091036103d6576020925063caf91ff560e01b811490811561171a575b5015158152f35b6301ffc9a760e01b14905083611713565b600435906001600160a01b038216820361174157565b600080fd5b602435906001600160a01b038216820361174157565b90600182811c9216801561178c575b602083101461177657565b634e487b7160e01b600052602260045260246000fd5b91607f169161176b565b90601f8019910116810190811067ffffffffffffffff8211176117b857604052565b634e487b7160e01b600052604160045260246000fd5b60005b8381106117e15750506000910152565b81810151838201526020016117d1565b9060209161180a815180928185528580860191016117ce565b601f01601f1916010190565b6060906003190112611741576001600160a01b0390600435828116810361174157916024359081168103611741579060443590565b67ffffffffffffffff81116117b85760051b60200190565b67ffffffffffffffff81116117b857601f01601f191660200190565b92919261188b82611863565b916118996040519384611796565b829481845281830111611741578281602093846000960137010152565b6020808201906020835283518092526040830192602060408460051b8301019501936000915b8483106118ec5750505050505090565b909192939495848061190a600193603f198682030187528a516117f1565b98019301930191949392906118dc565b60243590811515820361174157565b602090602060408183019282815285518094520193019160005b828110611951575050505090565b835185529381019392810192600101611943565b90600160ff1b811180611992575b156119865761198191611f49565b600190565b61198f91611be7565b90565b50600019811415611973565b6001600160a01b031680159081156119b4575090565b9050600052600d60205260ff6040600020541690565b9190600160ff1b8211806119f0575b156119e75761198192611e45565b61198f92611dac565b506000198214156119d9565b8051821015611a105760209160051b010190565b634e487b7160e01b600052603260045260246000fd5b8054821015611a105760005260206000200190600090565b6000467f000000000000000000000000000000000000000000000000000000000000000003611a8c57507f000000000000000000000000000000000000000000000000000000000000000090565b6040516003548291611a9d8261175c565b808252816020948582019460019087600182169182600014611bc9575050600114611b6f575b50611ad092500382611796565b51902091604051918201927f8b73c3c69bb8fe3d512ecc4cf759cc79239f7b179b0ffacaa9a75d522b39400f845260408301527fc89efdaa54c0f20c7adf612882df0950f5a951637e0307cdcb4c672f298b8bc660608301524660808301523060a083015260a0825260c082019082821067ffffffffffffffff831117611b5b575060405251902090565b634e487b7160e01b81526041600452602490fd5b6003885286915087907fc2575a0e9e593c00f959f8c92f12db2869c3395a3b0502d05e2516446f71f85b5b858310611bb1575050611ad0935082010138611ac3565b80548388018501528694508893909201918101611b9a565b60ff19168852611ad095151560051b8501019250389150611ac39050565b6001600160a01b0316908115611c4457336000526008602052604060002082600052602052806040600020556040519081527f8c5be1e5ebec7d5bd14f71427d1e84f3dd0314c0f7b2291e5b200ac8c7c3b92560203392a3600190565b604051635461585f60e01b8152600490fd5b919092600160ff1b821180611d7d575b15611d6b57611c768285856119ca565b50833b15159384611c9e575b50505050611c8c57565b604051633da6393160e01b8152600490fd5b611ce89394509060209160018060a01b039360405180968194829388630a85bd0160e11b9b8c865233600487015216602485015260448401526080606484015260848301906117f1565b03916000958691165af1918215611d5e578192611d17575b50506001600160e01b031916141538808080611c82565b9091506020813d602011611d56575b81611d3360209383611796565b810103126105115751906001600160e01b03198216820361031057503880611d00565b3d9150611d26565b50604051903d90823e3d90fd5b6040516307ed98ed60e31b8152600490fd5b50600019821415611c66565b91908203918211611d9657565b634e487b7160e01b600052601160045260246000fd5b6001600160a01b03808216939291908415611e3357821615611e215761198f9383600082815260086020526040812033825260205260408120546000198103611df9575b50505050612174565b604092611e0591611d89565b9281526008602052818120338252602052205538838180611df0565b604051634e46966960e11b8152600490fd5b604051636edaef2f60e11b8152600490fd5b6001600160a01b03939291908481168015611e335785831615611e2157600095848752600b6020526040968188822054168303611f39578790833314159384611f15575b5083611efd575b505050611eed57611ea08261199e565b611edc57611eda939450611ed57f000000000000000000000000000000000000000000000000000000000000000083836123e8565b612459565b565b8451635ce7539760e01b8152600490fd5b84516282b42960e81b8152600490fd5b86815260096020522054163314159050388681611e90565b915080935052600a6020528682203383526020528660ff8184205416159238611e89565b87516282b42960e81b8152600490fd5b6000828152600b60205260408120546001600160a01b03908116913383141580611fca575b611fb9577f8c5be1e5ebec7d5bd14f71427d1e84f3dd0314c0f7b2291e5b200ac8c7c3b92591858252600960205260408220941693846001600160601b0360a01b82541617905580a4565b6040516282b42960e81b8152600490fd5b50828152600a6020526040812033825260205260ff60408220541615611f6e565b91908201809211611d9657565b6000546001600160a01b0316330361200c57565b606460405162461bcd60e51b815260206004820152602060248201527f4f776e61626c653a2063616c6c6572206973206e6f7420746865206f776e65726044820152fd5b91906001600160a01b03831680156121425781156120ba5780600052600c60205260406000205460005b8181106120a8575050611eda9293505b600052600d60205260406000209060ff801983541691151516179055565b6001906120b487612644565b0161207a565b91908260005260076020526120f56040600020547f000000000000000000000000000000000000000000000000000000000000000090612154565b9280600052600c60205260406000205460005b6121128287611d89565b8110156121325790600161211292612129896127cf565b01909150612108565b505090919350611eda925061208a565b60405163a41e3d3f60e01b8152600490fd5b811561215e570490565b634e487b7160e01b600052601260045260246000fd5b919060018060a01b039182841660009481865260209060078252604092838820549686169687895284892054956121ac8189866123e8565b6121b58461199e565b6121be8961199e565b9080806123e1575b156121dd575b505050505050505050505050600190565b156122545750505050509060076114899261222495968852528520546114837f00000000000000000000000000000000000000000000000000000000000000008092612154565b915b828110612242575050505b3880808080808080808080806121cc565b60019061224e836127cf565b01612226565b98909196929793986000146122cd5750505050916114899160076122aa959461229e7f00000000000000000000000000000000000000000000000000000000000000008095612154565b95895252862054612154565b915b8281106122bb57505050612231565b6001906122c783612644565b016122ac565b9196979095612301999493997f00000000000000000000000000000000000000000000000000000000000000008098612154565b988991865b83811061237f57509488969294611489989488966123446007956123316123559f9e6114839c612154565b9088528686526114898a8a8a2054612154565b11612370575b508352522054612154565b11612361575b50612231565b61236a906127cf565b3861235b565b61237990612644565b3861234a565b90918093508752600c808752888820549060001982019182116123cd578d6123b5600194936123c393888d528b528c8c20611a26565b90549060031b1c9087612459565b01908a9291612306565b634e487b7160e01b89526011600452602489fd5b50816121c6565b6001600160a01b0390811691600080516020612969833981519152916020918461243a5761241886600554611feb565b6005555b169384600052600782526040600020818154019055604051908152a3565b84600052600783526040600020612452878254611d89565b905561241c565b6001600160a01b039081169182612552575b1690811561253d576000838152600b60205260408120836001600160601b0360a01b825416019055828152600c60205260408120805490600160401b821015612529576124c282879260016124db95018155611a26565b90919082549060031b91821b91600019901b1916179055565b828152600c60205260408120546000198101919082116125155750612500908461290d565b600080516020612969833981519152600080a4565b634e487b7160e01b81526011600452602490fd5b634e487b7160e01b83526041600452602483fd5b82600052600b60205260006040812055612500565b60008481526009602052604081206001600160601b0360a01b8154169055838152600c60205260408120805460001991828201918211612630579061259691611a26565b90549060031b1c8681036125f7575b50848252600c602052604082209182549081156125e3575001906125dd6125cc8383611a26565b8154906000199060031b1b19169055565b5561246b565b634e487b7160e01b81526031600452602490fd5b61262a90878452600b602052604084205460a01c90878552600c602052612625816124c28460408920611a26565b61290d565b386125a5565b634e487b7160e01b84526011600452602484fd5b6001600160a01b03168015611e33576000818152602090600c825260409081812093845460001995868201918211612630579061268091611a26565b90549060031b1c93848352600981528383206001600160601b0360a01b8154169055818352600c81528383208054908782019182116127bb57906126c391611a26565b90549060031b1c85810361278b575b50818352600c8152838320805480156127775791600b91888896959401906126fd6125cc8383611a26565b558484525281848120556000805160206129698339815191528280a4600154926001600160801b039081851601169260801c83146127675750612753826001600160801b03166000526002602052604060002090565b556001600160801b03196001541617600155565b51638acb5f2760e01b8152600490fd5b634e487b7160e01b85526031600452602485fd5b6127b590868552600b83528585205460a01c90848652600c8452612625816124c2848a8a20611a26565b386126d2565b634e487b7160e01b85526011600452602485fd5b6001600160a01b0381811615611e21576001546001600160801b0390600090608081901c908316146128af5750600154818160801c9116811461289d5760001901818116916000612851612836856001600160801b03166000526002602052604060002090565b54946001600160801b03166000526002602052604060002090565b55600154916001600160801b03199060801b16911617600155905b81600052600b60205260406000205416918261288b57611eda92612459565b60405163119b4fd360e11b8152600490fd5b6040516375e52f4f60e01b8152600490fd5b90506006546000198082146128f9576001820180600655146128e7576001600160ff1b010190600160ff1b821061251557509061286c565b60405163303b682f60e01b8152600490fd5b634e487b7160e01b83526011600452602483fd5b9081600052600b602052604060002054916001600160601b03821161295657600052600b6020526001600160601b0360a01b9060a01b169060018060a01b031601604060002055565b604051633f2cd0e360e21b8152600490fdfeddf252ad1be2c89b69c2b068fc378daa952ba7f163c4a11628f55a4df523b3efa2646970667358221220e49500b15ad0f1c02ee4c746b053cb20f7ab134ba9cdd2e06d5e74a3fa1c768564736f6c63430008170033c2575a0e9e593c00f959f8c92f12db2869c3395a3b0502d05e2516446f71f85bddf252ad1be2c89b69c2b068fc378daa952ba7f163c4a11628f55a4df523b3ef8d1108e10bcb7c27dddfc02ed9d693a074039d026cf4ea4240b40f7d581ac802","opcodes":"PUSH2 0x100 DUP1 PUSH1 0x40 MSTORE CALLVALUE PUSH3 0xC62 JUMPI PUSH3 0x381C DUP1 CODESIZE SUB DUP1 SWAP2 PUSH3 0x21 DUP3 DUP6 PUSH3 0xC67 JUMP JUMPDEST DUP4 CODECOPY DUP2 ADD PUSH1 0xC0 DUP3 DUP3 SUB SLT PUSH3 0xC62 JUMPI DUP2 MLOAD PUSH1 0x1 PUSH1 0x1 PUSH1 0x40 SHL SUB DUP2 GT PUSH3 0xC62 JUMPI DUP2 PUSH3 0x4F SWAP2 DUP5 ADD PUSH3 0xC8B JUMP JUMPDEST PUSH1 0x20 DUP4 ADD MLOAD SWAP1 SWAP3 SWAP1 PUSH1 0x1 PUSH1 0x1 PUSH1 0x40 SHL SUB DUP2 GT PUSH3 0xC62 JUMPI DUP3 PUSH3 0x74 SWAP2 DUP4 ADD PUSH3 0xC8B JUMP JUMPDEST PUSH1 0x40 DUP3 ADD MLOAD SWAP1 PUSH1 0xFF DUP3 AND DUP3 SUB PUSH3 0xC62 JUMPI PUSH1 0x60 DUP4 ADD MLOAD PUSH1 0x80 DUP5 ADD MLOAD SWAP5 SWAP1 SWAP4 SWAP1 PUSH1 0x1 PUSH1 0x1 PUSH1 0xA0 SHL SUB DUP7 AND DUP7 SUB PUSH3 0xC62 JUMPI PUSH1 0xA0 DUP3 ADD MLOAD PUSH1 0x1 PUSH1 0x1 PUSH1 0x40 SHL SUB DUP2 GT PUSH3 0xC62 JUMPI PUSH3 0xC4 SWAP3 ADD PUSH3 0xC8B JUMP JUMPDEST PUSH1 0x0 DUP1 SLOAD CALLER PUSH1 0x1 PUSH1 0x1 PUSH1 0xA0 SHL SUB NOT DUP3 AND DUP2 OR DUP4 SSTORE SWAP3 SWAP8 SWAP3 SWAP2 PUSH1 0x1 PUSH1 0x1 PUSH1 0xA0 SHL SUB SWAP1 SWAP2 AND SWAP1 PUSH32 0x8BE0079C531659141344CD1FD0A4F28419497F9722A3DAAFE3B4186F6B6457E0 SWAP1 DUP1 LOG3 DUP1 MLOAD SWAP1 PUSH1 0x1 PUSH1 0x1 PUSH1 0x40 SHL SUB DUP3 GT PUSH3 0x65C JUMPI DUP2 SWAP1 PUSH3 0x12D PUSH1 0x3 SLOAD PUSH3 0xD01 JUMP JUMPDEST PUSH1 0x1F DUP2 GT PUSH3 0xBFE JUMPI JUMPDEST POP PUSH1 0x20 SWAP1 PUSH1 0x1F DUP4 GT PUSH1 0x1 EQ PUSH3 0xB80 JUMPI PUSH1 0x0 SWAP3 PUSH3 0xB74 JUMPI JUMPDEST POP POP DUP2 PUSH1 0x1 SHL SWAP2 PUSH1 0x0 NOT SWAP1 PUSH1 0x3 SHL SHR NOT AND OR PUSH1 0x3 SSTORE JUMPDEST DUP1 MLOAD SWAP1 PUSH1 0x1 PUSH1 0x1 PUSH1 0x40 SHL SUB DUP3 GT PUSH3 0x65C JUMPI DUP2 SWAP1 PUSH3 0x187 PUSH1 0x4 SLOAD PUSH3 0xD01 JUMP JUMPDEST PUSH1 0x1F DUP2 GT PUSH3 0xAFF JUMPI JUMPDEST POP PUSH1 0x20 SWAP1 PUSH1 0x1F DUP4 GT PUSH1 0x1 EQ PUSH3 0xA70 JUMPI PUSH1 0x0 SWAP3 PUSH3 0xA64 JUMPI JUMPDEST POP POP DUP2 PUSH1 0x1 SHL SWAP2 PUSH1 0x0 NOT SWAP1 PUSH1 0x3 SHL SHR NOT AND OR PUSH1 0x4 SSTORE JUMPDEST PUSH1 0x12 PUSH1 0xFF DUP3 AND LT PUSH3 0xA52 JUMPI DUP1 PUSH1 0x80 MSTORE PUSH1 0x4D PUSH1 0xFF DUP3 AND GT PUSH3 0x646 JUMPI PUSH1 0xFF AND PUSH1 0xA EXP PUSH1 0xA0 MSTORE CHAINID PUSH1 0xC0 MSTORE PUSH1 0x40 MLOAD PUSH1 0x3 SLOAD DUP2 PUSH1 0x0 PUSH3 0x1FD DUP4 PUSH3 0xD01 JUMP JUMPDEST DUP1 DUP4 MSTORE SWAP3 PUSH1 0x1 DUP2 AND SWAP1 DUP2 ISZERO PUSH3 0xA31 JUMPI POP PUSH1 0x1 EQ PUSH3 0x9DE JUMPI JUMPDEST PUSH3 0x225 SWAP3 POP SUB DUP3 PUSH3 0xC67 JUMP JUMPDEST PUSH1 0x20 DUP2 MLOAD SWAP2 ADD KECCAK256 PUSH1 0x40 MLOAD PUSH1 0x20 DUP2 ADD SWAP2 PUSH32 0x8B73C3C69BB8FE3D512ECC4CF759CC79239F7B179B0FFACAA9A75D522B39400F DUP4 MSTORE PUSH1 0x40 DUP3 ADD MSTORE PUSH32 0xC89EFDAA54C0F20C7ADF612882DF0950F5A951637E0307CDCB4C672F298B8BC6 PUSH1 0x60 DUP3 ADD MSTORE CHAINID PUSH1 0x80 DUP3 ADD MSTORE ADDRESS PUSH1 0xA0 DUP3 ADD MSTORE PUSH1 0xA0 DUP2 MSTORE PUSH1 0xC0 DUP2 ADD DUP2 DUP2 LT PUSH1 0x1 DUP1 PUSH1 0x40 SHL SUB DUP3 GT OR PUSH3 0x65C JUMPI PUSH1 0x40 MSTORE MLOAD SWAP1 KECCAK256 PUSH1 0xE0 MSTORE DUP3 MLOAD PUSH1 0x1 PUSH1 0x1 PUSH1 0x40 SHL SUB DUP2 GT PUSH3 0x65C JUMPI PUSH3 0x2CF PUSH1 0xF SLOAD PUSH3 0xD01 JUMP JUMPDEST PUSH1 0x1F DUP2 GT PUSH3 0x985 JUMPI JUMPDEST POP PUSH1 0x20 PUSH1 0x1F DUP3 GT PUSH1 0x1 EQ PUSH3 0x90C JUMPI DUP2 SWAP3 SWAP4 SWAP5 PUSH1 0x0 SWAP3 PUSH3 0x900 JUMPI JUMPDEST POP POP DUP2 PUSH1 0x1 SHL SWAP2 PUSH1 0x0 NOT SWAP1 PUSH1 0x3 SHL SHR NOT AND OR PUSH1 0xF SSTORE JUMPDEST PUSH1 0x1 PUSH1 0x1 PUSH1 0xA0 SHL SUB DUP3 AND ISZERO PUSH3 0x8EE JUMPI PUSH1 0x1 PUSH1 0x1 PUSH1 0xA0 SHL SUB DUP3 AND PUSH1 0x0 SWAP1 DUP2 MSTORE PUSH1 0xC PUSH1 0x20 MSTORE PUSH1 0x40 DUP2 KECCAK256 SLOAD SWAP1 JUMPDEST DUP2 DUP2 LT PUSH3 0x6F4 JUMPI POP POP PUSH1 0x1 PUSH1 0x1 PUSH1 0xA0 SHL SUB DUP3 AND PUSH1 0x0 SWAP1 DUP2 MSTORE PUSH1 0xD PUSH1 0x20 MSTORE PUSH1 0x40 SWAP1 KECCAK256 DUP1 SLOAD PUSH1 0xFF NOT AND PUSH1 0x1 OR SWAP1 SSTORE DUP1 ISZERO DUP1 ISZERO PUSH3 0x3CB JUMPI JUMPDEST PUSH1 0x40 MLOAD PUSH2 0x29BE SWAP1 DUP2 PUSH3 0xDFE DUP3 CODECOPY PUSH1 0x80 MLOAD DUP2 PUSH2 0x1146 ADD MSTORE PUSH1 0xA0 MLOAD DUP2 DUP2 DUP2 PUSH2 0xCB6 ADD MSTORE DUP2 DUP2 PUSH2 0x138E ADD MSTORE DUP2 DUP2 PUSH2 0x1EAF ADD MSTORE DUP2 DUP2 PUSH2 0x20D0 ADD MSTORE DUP2 DUP2 PUSH2 0x21FE ADD MSTORE DUP2 DUP2 PUSH2 0x2278 ADD MSTORE PUSH2 0x22DB ADD MSTORE PUSH1 0xC0 MLOAD DUP2 PUSH2 0x1A43 ADD MSTORE PUSH1 0xE0 MLOAD DUP2 PUSH2 0x1A6A ADD MSTORE RETURN JUMPDEST PUSH1 0xA0 MLOAD DUP1 DUP4 MUL SWAP3 DUP4 DIV EQ OR ISZERO PUSH3 0x646 JUMPI PUSH1 0x5 SLOAD SWAP1 PUSH1 0x1 PUSH1 0xFF SHL PUSH3 0x3F1 DUP3 DUP5 PUSH3 0xD3E JUMP JUMPDEST GT PUSH3 0x6D0 JUMPI PUSH1 0x7 PUSH1 0x20 MSTORE PUSH1 0x1 DUP1 PUSH1 0xA0 SHL SUB DUP4 AND PUSH1 0x0 MSTORE PUSH3 0x41A DUP2 PUSH1 0x40 PUSH1 0x0 KECCAK256 SLOAD SWAP4 PUSH3 0xD3E JUMP JUMPDEST PUSH1 0x5 SSTORE PUSH1 0x1 PUSH1 0x1 PUSH1 0xA0 SHL SUB DUP4 AND PUSH1 0x0 DUP2 DUP2 MSTORE PUSH1 0x7 PUSH1 0x20 SWAP1 DUP2 MSTORE PUSH1 0x40 DUP1 DUP4 KECCAK256 DUP1 SLOAD DUP7 ADD SWAP1 SSTORE MLOAD SWAP4 DUP5 MSTORE SWAP2 SWAP3 SWAP1 SWAP2 PUSH1 0x0 DUP1 MLOAD PUSH1 0x20 PUSH3 0x37DC DUP4 CODECOPY DUP2 MLOAD SWAP2 MSTORE SWAP2 LOG3 PUSH1 0x1 PUSH1 0x1 PUSH1 0xA0 SHL SUB DUP3 AND PUSH1 0x0 SWAP1 DUP2 MSTORE PUSH1 0xD PUSH1 0x20 MSTORE PUSH1 0x40 SWAP1 KECCAK256 SLOAD PUSH1 0xFF AND ISZERO PUSH3 0x482 JUMPI JUMPDEST DUP1 PUSH3 0x36D JUMP JUMPDEST PUSH1 0x7 PUSH1 0x20 MSTORE PUSH3 0x4AA PUSH3 0x49F PUSH1 0x40 PUSH1 0x0 KECCAK256 SLOAD PUSH1 0xA0 MLOAD SWAP1 PUSH3 0xD4C JUMP JUMPDEST SWAP2 PUSH1 0xA0 MLOAD SWAP1 PUSH3 0xD4C JUMP JUMPDEST DUP2 SUB SWAP1 DUP2 GT PUSH3 0x646 JUMPI PUSH1 0x0 JUMPDEST DUP2 DUP2 LT PUSH3 0x4C6 JUMPI POP PUSH3 0x47B JUMP JUMPDEST PUSH1 0x1 PUSH1 0x1 PUSH1 0xA0 SHL SUB DUP4 AND ISZERO PUSH3 0x6E2 JUMPI PUSH1 0x1 SLOAD PUSH1 0x80 DUP2 SWAP1 SHR PUSH1 0x1 PUSH1 0x1 PUSH1 0x80 SHL SUB SWAP1 SWAP2 AND EQ PUSH3 0x696 JUMPI PUSH1 0x1 SLOAD PUSH1 0x80 DUP2 SWAP1 SHR PUSH1 0x1 PUSH1 0x1 PUSH1 0x80 SHL SUB DUP3 AND EQ PUSH3 0x684 JUMPI PUSH1 0x0 NOT PUSH1 0x80 SWAP2 SWAP1 SWAP2 SHR ADD PUSH1 0x1 PUSH1 0x1 PUSH1 0x80 SHL SUB DUP2 AND PUSH1 0x0 SWAP1 DUP2 MSTORE PUSH1 0x2 PUSH1 0x20 MSTORE PUSH1 0x40 DUP2 KECCAK256 DUP1 SLOAD SWAP3 SWAP2 SWAP1 SSTORE PUSH1 0x1 DUP1 SLOAD PUSH1 0x1 PUSH1 0x1 PUSH1 0x80 SHL SUB AND PUSH1 0x80 SWAP3 SWAP1 SWAP3 SHL PUSH1 0x1 PUSH1 0x1 PUSH1 0x80 SHL SUB NOT AND SWAP2 SWAP1 SWAP2 OR SWAP1 SSTORE SWAP1 JUMPDEST PUSH1 0x0 DUP3 DUP2 MSTORE PUSH1 0xB PUSH1 0x20 MSTORE PUSH1 0x40 SWAP1 KECCAK256 SLOAD PUSH1 0x1 PUSH1 0x1 PUSH1 0xA0 SHL SUB AND SWAP2 DUP3 PUSH3 0x672 JUMPI PUSH1 0x0 DUP2 DUP2 MSTORE PUSH1 0xB PUSH1 0x20 SWAP1 DUP2 MSTORE PUSH1 0x40 DUP1 DUP4 KECCAK256 DUP1 SLOAD PUSH1 0x1 PUSH1 0x1 PUSH1 0xA0 SHL SUB NOT AND PUSH1 0x1 PUSH1 0x1 PUSH1 0xA0 SHL SUB DUP11 AND SWAP1 DUP2 ADD SWAP1 SWAP2 SSTORE DUP4 MSTORE PUSH1 0xC SWAP1 SWAP2 MSTORE SWAP1 KECCAK256 DUP1 SLOAD PUSH9 0x10000000000000000 DUP2 LT ISZERO PUSH3 0x65C JUMPI PUSH3 0x5D4 DUP2 PUSH3 0x5ED SWAP4 PUSH1 0x1 DUP7 SWAP5 ADD DUP2 SSTORE PUSH3 0xD6D JUMP JUMPDEST SWAP1 SWAP2 SWAP1 DUP3 SLOAD SWAP1 PUSH1 0x3 SHL SWAP2 DUP3 SHL SWAP2 PUSH1 0x0 NOT SWAP1 SHL NOT AND OR SWAP1 SSTORE JUMP JUMPDEST PUSH1 0x1 PUSH1 0x1 PUSH1 0xA0 SHL SUB DUP6 AND PUSH1 0x0 SWAP1 DUP2 MSTORE PUSH1 0xC PUSH1 0x20 MSTORE PUSH1 0x40 SWAP1 KECCAK256 SLOAD PUSH1 0x0 NOT DUP2 ADD SWAP4 SWAP1 DUP5 GT PUSH3 0x646 JUMPI PUSH3 0x622 PUSH1 0x1 SWAP5 DUP4 PUSH3 0xD9C JUMP JUMPDEST DUP4 DUP1 PUSH1 0xA0 SHL SUB DUP7 AND SWAP1 PUSH1 0x0 DUP1 MLOAD PUSH1 0x20 PUSH3 0x37DC DUP4 CODECOPY DUP2 MLOAD SWAP2 MSTORE PUSH1 0x0 DUP1 LOG4 ADD PUSH3 0x4B7 JUMP JUMPDEST PUSH4 0x4E487B71 PUSH1 0xE0 SHL PUSH1 0x0 MSTORE PUSH1 0x11 PUSH1 0x4 MSTORE PUSH1 0x24 PUSH1 0x0 REVERT JUMPDEST PUSH4 0x4E487B71 PUSH1 0xE0 SHL PUSH1 0x0 MSTORE PUSH1 0x41 PUSH1 0x4 MSTORE PUSH1 0x24 PUSH1 0x0 REVERT JUMPDEST PUSH1 0x40 MLOAD PUSH4 0x119B4FD3 PUSH1 0xE1 SHL DUP2 MSTORE PUSH1 0x4 SWAP1 REVERT JUMPDEST PUSH1 0x40 MLOAD PUSH4 0x75E52F4F PUSH1 0xE0 SHL DUP2 MSTORE PUSH1 0x4 SWAP1 REVERT JUMPDEST PUSH1 0x6 DUP1 SLOAD SWAP1 PUSH1 0x0 NOT SWAP1 DUP2 DUP4 EQ PUSH3 0x646 JUMPI PUSH1 0x1 DUP4 ADD DUP1 SWAP2 SSTORE EQ PUSH3 0x6D0 JUMPI PUSH1 0x1 PUSH1 0x1 PUSH1 0xFF SHL ADD ADD PUSH1 0x1 PUSH1 0xFF SHL DUP2 LT PUSH3 0x646 JUMPI SWAP1 PUSH3 0x554 JUMP JUMPDEST PUSH1 0x40 MLOAD PUSH4 0x303B682F PUSH1 0xE0 SHL DUP2 MSTORE PUSH1 0x4 SWAP1 REVERT JUMPDEST PUSH1 0x40 MLOAD PUSH4 0x4E469669 PUSH1 0xE1 SHL DUP2 MSTORE PUSH1 0x4 SWAP1 REVERT JUMPDEST PUSH1 0x1 PUSH1 0x1 PUSH1 0xA0 SHL SUB DUP5 AND ISZERO PUSH3 0x8DC JUMPI PUSH1 0x1 PUSH1 0x1 PUSH1 0xA0 SHL SUB DUP5 AND PUSH1 0x0 SWAP1 DUP2 MSTORE PUSH1 0xC PUSH1 0x20 MSTORE PUSH1 0x40 SWAP1 KECCAK256 DUP1 SLOAD PUSH1 0x0 NOT DUP2 ADD SWAP1 DUP2 GT PUSH3 0x646 JUMPI PUSH3 0x736 SWAP2 PUSH3 0xD6D JUMP JUMPDEST SWAP1 SLOAD PUSH1 0x3 SWAP2 SWAP1 SWAP2 SHL SHR PUSH1 0x0 DUP2 DUP2 MSTORE PUSH1 0x9 PUSH1 0x20 SWAP1 DUP2 MSTORE PUSH1 0x40 DUP1 DUP4 KECCAK256 DUP1 SLOAD PUSH1 0x1 PUSH1 0x1 PUSH1 0xA0 SHL SUB NOT AND SWAP1 SSTORE PUSH1 0x1 PUSH1 0x1 PUSH1 0xA0 SHL SUB DUP9 AND DUP4 MSTORE PUSH1 0xC SWAP1 SWAP2 MSTORE SWAP1 KECCAK256 DUP1 SLOAD SWAP2 SWAP3 SWAP2 SWAP1 PUSH1 0x0 NOT DUP3 ADD DUP3 LT PUSH3 0x646 JUMPI PUSH3 0x793 SWAP2 PUSH1 0x0 NOT ADD SWAP1 PUSH3 0xD6D JUMP JUMPDEST SWAP1 SLOAD SWAP1 PUSH1 0x3 SHL SHR DUP3 DUP2 SUB PUSH3 0x891 JUMPI JUMPDEST POP PUSH1 0x1 PUSH1 0x1 PUSH1 0xA0 SHL SUB DUP6 AND PUSH1 0x0 SWAP1 DUP2 MSTORE PUSH1 0xC PUSH1 0x20 MSTORE PUSH1 0x40 SWAP1 KECCAK256 DUP1 SLOAD DUP1 ISZERO PUSH3 0x87B JUMPI PUSH1 0x0 NOT ADD SWAP1 PUSH3 0x7D6 DUP3 DUP3 PUSH3 0xD6D JUMP JUMPDEST DUP2 SLOAD SWAP1 PUSH1 0x0 NOT SWAP1 PUSH1 0x3 SHL SHL NOT AND SWAP1 SSTORE SSTORE DUP2 PUSH1 0x0 MSTORE PUSH1 0xB PUSH1 0x20 MSTORE PUSH1 0x0 PUSH1 0x40 DUP2 KECCAK256 SSTORE DUP2 PUSH1 0x0 PUSH1 0x1 DUP1 PUSH1 0xA0 SHL SUB DUP8 AND PUSH1 0x0 DUP1 MLOAD PUSH1 0x20 PUSH3 0x37DC DUP4 CODECOPY DUP2 MLOAD SWAP2 MSTORE DUP3 DUP1 LOG4 PUSH1 0x1 SLOAD PUSH1 0x1 PUSH1 0x1 PUSH1 0x80 SHL SUB DUP1 DUP3 AND PUSH1 0x0 NOT ADD AND SWAP1 PUSH1 0x80 SHR DUP2 EQ PUSH3 0x869 JUMPI PUSH1 0x1 PUSH1 0x1 PUSH1 0x80 SHL SUB DUP2 AND PUSH1 0x0 SWAP1 DUP2 MSTORE PUSH1 0x2 PUSH1 0x20 MSTORE PUSH1 0x40 SWAP1 KECCAK256 SWAP3 SWAP1 SWAP3 SSTORE PUSH1 0x1 DUP1 SLOAD PUSH1 0x1 PUSH1 0x1 PUSH1 0x80 SHL SUB NOT AND SWAP1 SWAP3 OR DUP3 SSTORE ADD PUSH3 0x336 JUMP JUMPDEST PUSH1 0x40 MLOAD PUSH4 0x8ACB5F27 PUSH1 0xE0 SHL DUP2 MSTORE PUSH1 0x4 SWAP1 REVERT JUMPDEST PUSH4 0x4E487B71 PUSH1 0xE0 SHL PUSH1 0x0 MSTORE PUSH1 0x31 PUSH1 0x4 MSTORE PUSH1 0x24 PUSH1 0x0 REVERT JUMPDEST PUSH3 0x8D5 SWAP1 DUP4 PUSH1 0x0 MSTORE PUSH1 0xB PUSH1 0x20 MSTORE PUSH1 0x40 PUSH1 0x0 KECCAK256 SLOAD PUSH1 0xA0 SHR SWAP1 PUSH1 0x1 DUP1 PUSH1 0xA0 SHL SUB DUP9 AND PUSH1 0x0 MSTORE PUSH1 0xC PUSH1 0x20 MSTORE PUSH3 0x8CF DUP2 PUSH3 0x5D4 DUP5 PUSH1 0x40 PUSH1 0x0 KECCAK256 PUSH3 0xD6D JUMP JUMPDEST PUSH3 0xD9C JUMP JUMPDEST CODESIZE PUSH3 0x7A3 JUMP JUMPDEST PUSH1 0x40 MLOAD PUSH4 0x6EDAEF2F PUSH1 0xE1 SHL DUP2 MSTORE PUSH1 0x4 SWAP1 REVERT JUMPDEST PUSH1 0x40 MLOAD PUSH4 0xA41E3D3F PUSH1 0xE0 SHL DUP2 MSTORE PUSH1 0x4 SWAP1 REVERT JUMPDEST ADD MLOAD SWAP1 POP CODESIZE DUP1 PUSH3 0x2F5 JUMP JUMPDEST PUSH1 0xF PUSH1 0x0 SWAP1 DUP2 MSTORE PUSH1 0x0 DUP1 MLOAD PUSH1 0x20 PUSH3 0x37FC DUP4 CODECOPY DUP2 MLOAD SWAP2 MSTORE SWAP2 SWAP1 PUSH1 0x1F NOT DUP5 AND SWAP1 JUMPDEST DUP2 DUP2 LT PUSH3 0x96C JUMPI POP SWAP6 DUP4 PUSH1 0x1 SWAP6 SWAP7 SWAP8 LT PUSH3 0x952 JUMPI JUMPDEST POP POP POP DUP2 SHL ADD PUSH1 0xF SSTORE PUSH3 0x30B JUMP JUMPDEST ADD MLOAD PUSH1 0x0 NOT PUSH1 0xF8 DUP5 PUSH1 0x3 SHL AND SHR NOT AND SWAP1 SSTORE CODESIZE DUP1 DUP1 PUSH3 0x943 JUMP JUMPDEST SWAP2 SWAP3 PUSH1 0x20 PUSH1 0x1 DUP2 SWAP3 DUP7 DUP12 ADD MLOAD DUP2 SSTORE ADD SWAP5 ADD SWAP3 ADD PUSH3 0x92C JUMP JUMPDEST PUSH1 0xF PUSH1 0x0 MSTORE PUSH1 0x0 DUP1 MLOAD PUSH1 0x20 PUSH3 0x37FC DUP4 CODECOPY DUP2 MLOAD SWAP2 MSTORE PUSH1 0x1F DUP4 ADD PUSH1 0x5 SHR DUP2 ADD SWAP2 PUSH1 0x20 DUP5 LT PUSH3 0x9D3 JUMPI JUMPDEST PUSH1 0x1F ADD PUSH1 0x5 SHR ADD SWAP1 JUMPDEST DUP2 DUP2 LT PUSH3 0x9C6 JUMPI POP PUSH3 0x2D9 JUMP JUMPDEST PUSH1 0x0 DUP2 SSTORE PUSH1 0x1 ADD PUSH3 0x9B7 JUMP JUMPDEST SWAP1 SWAP2 POP DUP2 SWAP1 PUSH3 0x9AE JUMP JUMPDEST POP PUSH1 0x3 PUSH1 0x0 SWAP1 DUP2 MSTORE SWAP1 SWAP2 PUSH1 0x0 DUP1 MLOAD PUSH1 0x20 PUSH3 0x37BC DUP4 CODECOPY DUP2 MLOAD SWAP2 MSTORE JUMPDEST DUP2 DUP4 LT PUSH3 0xA14 JUMPI POP POP SWAP1 PUSH1 0x20 PUSH3 0x225 SWAP3 DUP3 ADD ADD PUSH3 0x217 JUMP JUMPDEST PUSH1 0x20 SWAP2 SWAP4 POP DUP1 PUSH1 0x1 SWAP2 SLOAD DUP4 DUP6 DUP9 ADD ADD MSTORE ADD SWAP2 ADD SWAP1 SWAP2 DUP4 SWAP3 PUSH3 0x9F9 JUMP JUMPDEST PUSH1 0x20 SWAP3 POP PUSH3 0x225 SWAP5 SWAP2 POP PUSH1 0xFF NOT AND DUP3 DUP5 ADD MSTORE ISZERO ISZERO PUSH1 0x5 SHL DUP3 ADD ADD PUSH3 0x217 JUMP JUMPDEST PUSH1 0x40 MLOAD PUSH4 0x98790FD5 PUSH1 0xE0 SHL DUP2 MSTORE PUSH1 0x4 SWAP1 REVERT JUMPDEST ADD MLOAD SWAP1 POP CODESIZE DUP1 PUSH3 0x1AA JUMP JUMPDEST PUSH1 0x4 PUSH1 0x0 SWAP1 DUP2 MSTORE SWAP4 POP PUSH32 0x8A35ACFBC15FF81A39AE7D344FD709F28E8600B4AA8C65C6B64BFE7FE36BD19B SWAP2 SWAP1 JUMPDEST PUSH1 0x1F NOT DUP5 AND DUP6 LT PUSH3 0xAE3 JUMPI PUSH1 0x1 SWAP5 POP DUP4 PUSH1 0x1F NOT DUP2 AND LT PUSH3 0xAC9 JUMPI JUMPDEST POP POP POP DUP2 SHL ADD PUSH1 0x4 SSTORE PUSH3 0x1C0 JUMP JUMPDEST ADD MLOAD PUSH1 0x0 NOT PUSH1 0xF8 DUP5 PUSH1 0x3 SHL AND SHR NOT AND SWAP1 SSTORE CODESIZE DUP1 DUP1 PUSH3 0xABA JUMP JUMPDEST DUP2 DUP2 ADD MLOAD DUP4 SSTORE PUSH1 0x20 SWAP5 DUP6 ADD SWAP5 PUSH1 0x1 SWAP1 SWAP4 ADD SWAP3 SWAP1 SWAP2 ADD SWAP1 PUSH3 0xA9D JUMP JUMPDEST PUSH1 0x4 PUSH1 0x0 MSTORE SWAP1 SWAP2 POP PUSH32 0x8A35ACFBC15FF81A39AE7D344FD709F28E8600B4AA8C65C6B64BFE7FE36BD19B PUSH1 0x1F DUP5 ADD PUSH1 0x5 SHR DUP2 ADD SWAP2 PUSH1 0x20 DUP6 LT PUSH3 0xB69 JUMPI JUMPDEST SWAP1 PUSH1 0x1F DUP6 SWAP5 SWAP4 SWAP3 ADD PUSH1 0x5 SHR ADD SWAP1 JUMPDEST DUP2 DUP2 LT PUSH3 0xB59 JUMPI POP PUSH3 0x191 JUMP JUMPDEST PUSH1 0x0 DUP2 SSTORE DUP5 SWAP4 POP PUSH1 0x1 ADD PUSH3 0xB4A JUMP JUMPDEST SWAP1 SWAP2 POP DUP2 SWAP1 PUSH3 0xB3C JUMP JUMPDEST ADD MLOAD SWAP1 POP CODESIZE DUP1 PUSH3 0x150 JUMP JUMPDEST PUSH1 0x3 PUSH1 0x0 SWAP1 DUP2 MSTORE SWAP4 POP PUSH1 0x0 DUP1 MLOAD PUSH1 0x20 PUSH3 0x37BC DUP4 CODECOPY DUP2 MLOAD SWAP2 MSTORE SWAP2 SWAP1 JUMPDEST PUSH1 0x1F NOT DUP5 AND DUP6 LT PUSH3 0xBE2 JUMPI PUSH1 0x1 SWAP5 POP DUP4 PUSH1 0x1F NOT DUP2 AND LT PUSH3 0xBC8 JUMPI JUMPDEST POP POP POP DUP2 SHL ADD PUSH1 0x3 SSTORE PUSH3 0x166 JUMP JUMPDEST ADD MLOAD PUSH1 0x0 NOT PUSH1 0xF8 DUP5 PUSH1 0x3 SHL AND SHR NOT AND SWAP1 SSTORE CODESIZE DUP1 DUP1 PUSH3 0xBB9 JUMP JUMPDEST DUP2 DUP2 ADD MLOAD DUP4 SSTORE PUSH1 0x20 SWAP5 DUP6 ADD SWAP5 PUSH1 0x1 SWAP1 SWAP4 ADD SWAP3 SWAP1 SWAP2 ADD SWAP1 PUSH3 0xB9C JUMP JUMPDEST PUSH1 0x3 PUSH1 0x0 MSTORE SWAP1 SWAP2 POP PUSH1 0x0 DUP1 MLOAD PUSH1 0x20 PUSH3 0x37BC DUP4 CODECOPY DUP2 MLOAD SWAP2 MSTORE PUSH1 0x1F DUP5 ADD PUSH1 0x5 SHR DUP2 ADD SWAP2 PUSH1 0x20 DUP6 LT PUSH3 0xC57 JUMPI JUMPDEST SWAP1 PUSH1 0x1F DUP6 SWAP5 SWAP4 SWAP3 ADD PUSH1 0x5 SHR ADD SWAP1 JUMPDEST DUP2 DUP2 LT PUSH3 0xC47 JUMPI POP PUSH3 0x137 JUMP JUMPDEST PUSH1 0x0 DUP2 SSTORE DUP5 SWAP4 POP PUSH1 0x1 ADD PUSH3 0xC38 JUMP JUMPDEST SWAP1 SWAP2 POP DUP2 SWAP1 PUSH3 0xC2A JUMP JUMPDEST PUSH1 0x0 DUP1 REVERT JUMPDEST PUSH1 0x1F SWAP1 SWAP2 ADD PUSH1 0x1F NOT AND DUP2 ADD SWAP1 PUSH1 0x1 PUSH1 0x1 PUSH1 0x40 SHL SUB DUP3 GT SWAP1 DUP3 LT OR PUSH3 0x65C JUMPI PUSH1 0x40 MSTORE JUMP JUMPDEST SWAP2 SWAP1 DUP1 PUSH1 0x1F DUP5 ADD SLT ISZERO PUSH3 0xC62 JUMPI DUP3 MLOAD PUSH1 0x1 PUSH1 0x1 PUSH1 0x40 SHL SUB DUP2 GT PUSH3 0x65C JUMPI PUSH1 0x20 SWAP1 PUSH1 0x40 MLOAD SWAP3 PUSH3 0xCC6 DUP4 PUSH1 0x1F NOT PUSH1 0x1F DUP6 ADD AND ADD DUP6 PUSH3 0xC67 JUMP JUMPDEST DUP2 DUP5 MSTORE DUP3 DUP3 DUP8 ADD ADD GT PUSH3 0xC62 JUMPI PUSH1 0x0 JUMPDEST DUP2 DUP2 LT PUSH3 0xCED JUMPI POP DUP3 PUSH1 0x0 SWAP4 SWAP5 SWAP6 POP ADD ADD MSTORE SWAP1 JUMP JUMPDEST DUP6 DUP2 ADD DUP4 ADD MLOAD DUP5 DUP3 ADD DUP5 ADD MSTORE DUP3 ADD PUSH3 0xCD7 JUMP JUMPDEST SWAP1 PUSH1 0x1 DUP3 DUP2 SHR SWAP3 AND DUP1 ISZERO PUSH3 0xD33 JUMPI JUMPDEST PUSH1 0x20 DUP4 LT EQ PUSH3 0xD1D JUMPI JUMP JUMPDEST PUSH4 0x4E487B71 PUSH1 0xE0 SHL PUSH1 0x0 MSTORE PUSH1 0x22 PUSH1 0x4 MSTORE PUSH1 0x24 PUSH1 0x0 REVERT JUMPDEST SWAP2 PUSH1 0x7F AND SWAP2 PUSH3 0xD11 JUMP JUMPDEST SWAP2 SWAP1 DUP3 ADD DUP1 SWAP3 GT PUSH3 0x646 JUMPI JUMP JUMPDEST DUP2 ISZERO PUSH3 0xD57 JUMPI DIV SWAP1 JUMP JUMPDEST PUSH4 0x4E487B71 PUSH1 0xE0 SHL PUSH1 0x0 MSTORE PUSH1 0x12 PUSH1 0x4 MSTORE PUSH1 0x24 PUSH1 0x0 REVERT JUMPDEST DUP1 SLOAD DUP3 LT ISZERO PUSH3 0xD86 JUMPI PUSH1 0x0 MSTORE PUSH1 0x20 PUSH1 0x0 KECCAK256 ADD SWAP1 PUSH1 0x0 SWAP1 JUMP JUMPDEST PUSH4 0x4E487B71 PUSH1 0xE0 SHL PUSH1 0x0 MSTORE PUSH1 0x32 PUSH1 0x4 MSTORE PUSH1 0x24 PUSH1 0x0 REVERT JUMPDEST PUSH1 0x0 DUP2 DUP2 MSTORE PUSH1 0xB PUSH1 0x20 MSTORE PUSH1 0x40 SWAP1 KECCAK256 SLOAD SWAP2 SWAP1 PUSH1 0x1 PUSH1 0x1 PUSH1 0x60 SHL SUB DUP3 GT PUSH3 0xDEB JUMPI PUSH1 0x0 SWAP1 DUP2 MSTORE PUSH1 0xB PUSH1 0x20 MSTORE PUSH1 0x40 SWAP1 KECCAK256 PUSH1 0x1 PUSH1 0x1 PUSH1 0xA0 SHL SUB SWAP3 SWAP1 SWAP3 AND PUSH1 0xA0 SWAP2 SWAP1 SWAP2 SHL PUSH1 0x1 PUSH1 0x1 PUSH1 0xA0 SHL SUB NOT AND ADD SWAP1 SSTORE JUMP JUMPDEST PUSH1 0x40 MLOAD PUSH4 0x3F2CD0E3 PUSH1 0xE2 SHL DUP2 MSTORE PUSH1 0x4 SWAP1 REVERT INVALID PUSH1 0x80 PUSH1 0x40 DUP2 DUP2 MSTORE PUSH1 0x4 SWAP2 DUP3 CALLDATASIZE LT ISZERO PUSH2 0x16 JUMPI PUSH1 0x0 DUP1 REVERT JUMPDEST PUSH1 0x0 SWAP1 DUP2 CALLDATALOAD PUSH1 0xE0 SHR SWAP1 DUP2 PUSH4 0x1FFC9A7 EQ PUSH2 0x16D7 JUMPI POP DUP1 PUSH4 0x2519DA3 EQ PUSH2 0xEB6 JUMPI DUP1 PUSH4 0x6FDDE03 EQ PUSH2 0x1625 JUMPI DUP1 PUSH4 0x81812FC EQ PUSH2 0x15F2 JUMPI DUP1 PUSH4 0x95EA7B3 EQ PUSH2 0x15C9 JUMPI DUP1 PUSH4 0x9674EB0 EQ PUSH2 0x1599 JUMPI DUP1 PUSH4 0x9F0EF65 EQ PUSH2 0x1573 JUMPI DUP1 PUSH4 0x18160DDD EQ PUSH2 0xE05 JUMPI DUP1 PUSH4 0x21EFF7FC EQ PUSH2 0x153B JUMPI DUP1 PUSH4 0x23B872DD EQ PUSH2 0x151F JUMPI DUP1 PUSH4 0x25C03C8A EQ PUSH2 0x116A JUMPI DUP1 PUSH4 0x313CE567 EQ PUSH2 0x112C JUMPI DUP1 PUSH4 0x3644E515 EQ PUSH2 0x1108 JUMPI DUP1 PUSH4 0x42842E0E EQ PUSH2 0x10BA JUMPI DUP1 PUSH4 0x4D966072 EQ PUSH2 0x1091 JUMPI DUP1 PUSH4 0x4F02C420 EQ PUSH2 0xA7A JUMPI DUP1 PUSH4 0x6352211E EQ PUSH2 0x1016 JUMPI DUP1 PUSH4 0x6367DA9C EQ PUSH2 0xF0D JUMPI DUP1 PUSH4 0x6E8F624B EQ PUSH2 0xEEE JUMPI DUP1 PUSH4 0x70A08231 EQ PUSH2 0xEB6 JUMPI DUP1 PUSH4 0x715018A6 EQ PUSH2 0xE5C JUMPI DUP1 PUSH4 0x7ECEBE00 EQ PUSH2 0xE24 JUMPI DUP1 PUSH4 0x89FB4C66 EQ PUSH2 0xE05 JUMPI DUP1 PUSH4 0x8A696E50 EQ PUSH2 0xDDE JUMPI DUP1 PUSH4 0x8DA5CB5B EQ PUSH2 0xDB6 JUMPI DUP1 PUSH4 0x95D89B41 EQ PUSH2 0xCD9 JUMPI DUP1 PUSH4 0x976A8435 EQ PUSH2 0xC9E JUMPI DUP1 PUSH4 0xA22CB465 EQ PUSH2 0xC01 JUMPI DUP1 PUSH4 0xA9059CBB EQ PUSH2 0xBB8 JUMPI DUP1 PUSH4 0xB1AB9317 EQ PUSH2 0xB36 JUMPI DUP1 PUSH4 0xB3F9EA34 EQ PUSH2 0xAFE JUMPI DUP1 PUSH4 0xB88D4FDE EQ PUSH2 0xA99 JUMPI DUP1 PUSH4 0xC5AB3BA6 EQ PUSH2 0xA7A JUMPI DUP1 PUSH4 0xC6E672B9 EQ PUSH2 0xA48 JUMPI DUP1 PUSH4 0xC87B56DD EQ PUSH2 0x7F0 JUMPI DUP1 PUSH4 0xD505ACCF EQ PUSH2 0x5C3 JUMPI DUP1 PUSH4 0xD96CA0B9 EQ PUSH2 0x59E JUMPI DUP1 PUSH4 0xDD62ED3E EQ PUSH2 0x555 JUMPI DUP1 PUSH4 0xDD637699 EQ PUSH2 0x53D JUMPI DUP1 PUSH4 0xDFABC033 EQ PUSH2 0x515 JUMPI DUP1 PUSH4 0xE985E9C5 EQ PUSH2 0x4C3 JUMPI DUP1 PUSH4 0xEAC989F8 EQ PUSH2 0x3DA JUMPI DUP1 PUSH4 0xF2FDE38B EQ PUSH2 0x313 JUMPI PUSH4 0xF780BC1A EQ PUSH2 0x208 JUMPI PUSH1 0x0 DUP1 REVERT JUMPDEST CALLVALUE PUSH2 0x310 JUMPI DUP2 PUSH1 0x3 NOT CALLDATASIZE ADD SLT PUSH2 0x310 JUMPI POP DUP2 CALLDATALOAD SWAP1 PUSH1 0x24 CALLDATALOAD PUSH2 0x228 DUP2 PUSH2 0x184B JUMP JUMPDEST SWAP3 PUSH2 0x235 DUP4 MLOAD SWAP5 DUP6 PUSH2 0x1796 JUMP JUMPDEST DUP2 DUP5 MSTORE PUSH1 0x1F NOT PUSH2 0x244 DUP4 PUSH2 0x184B JUMP JUMPDEST ADD CALLDATASIZE PUSH1 0x20 DUP7 ADD CALLDATACOPY DUP1 SWAP5 PUSH2 0x268 PUSH1 0x1 SLOAD PUSH1 0x1 PUSH1 0x1 PUSH1 0x80 SHL SUB SWAP1 DUP2 DUP2 AND SWAP1 PUSH1 0x80 SHR SUB AND SWAP1 JUMP JUMPDEST SWAP3 PUSH1 0x1 PUSH1 0x1 PUSH1 0x80 SHL SUB SWAP2 PUSH1 0x1 SWAP5 DUP6 SWAP3 DUP5 PUSH1 0x1 SLOAD AND SWAP4 JUMPDEST PUSH2 0x294 JUMPI JUMPDEST DUP8 MLOAD DUP1 PUSH2 0x290 DUP12 DUP3 PUSH2 0x1929 JUMP JUMPDEST SUB SWAP1 RETURN JUMPDEST PUSH2 0x2A2 DUP2 DUP8 SWAP11 SWAP10 SWAP9 SWAP11 PUSH2 0x1FEB JUMP JUMPDEST DUP11 LT ISZERO PUSH2 0x307 JUMPI DUP2 DUP11 LT ISZERO PUSH2 0x2F7 JUMPI DUP9 DUP11 PUSH2 0x2DB DUP8 DUP1 DUP5 SWAP15 SWAP14 SWAP12 SWAP13 SWAP14 AND DUP9 ADD AND PUSH1 0x1 PUSH1 0x1 PUSH1 0x80 SHL SUB AND PUSH1 0x0 MSTORE PUSH1 0x2 PUSH1 0x20 MSTORE PUSH1 0x40 PUSH1 0x0 KECCAK256 SWAP1 JUMP JUMPDEST SLOAD PUSH2 0x2EF PUSH2 0x2E9 DUP11 DUP5 PUSH2 0x1D89 JUMP JUMPDEST DUP14 PUSH2 0x19FC JUMP JUMPDEST MSTORE ADD SWAP10 PUSH2 0x27E JUMP JUMPDEST DUP7 MLOAD PUSH4 0x580821E7 PUSH1 0xE0 SHL DUP2 MSTORE DUP4 SWAP1 REVERT JUMPDEST DUP7 SWAP8 SWAP9 POP PUSH2 0x283 JUMP JUMPDEST DUP1 REVERT JUMPDEST POP SWAP2 CALLVALUE PUSH2 0x3D6 JUMPI PUSH1 0x20 CALLDATASIZE PUSH1 0x3 NOT ADD SLT PUSH2 0x3D6 JUMPI PUSH2 0x32E PUSH2 0x172B JUMP JUMPDEST SWAP1 PUSH2 0x337 PUSH2 0x1FF8 JUMP JUMPDEST PUSH1 0x1 PUSH1 0x1 PUSH1 0xA0 SHL SUB SWAP2 DUP3 AND SWAP3 DUP4 ISZERO PUSH2 0x384 JUMPI POP POP DUP3 SLOAD PUSH1 0x1 PUSH1 0x1 PUSH1 0xA0 SHL SUB NOT DUP2 AND DUP4 OR DUP5 SSTORE AND PUSH32 0x8BE0079C531659141344CD1FD0A4F28419497F9722A3DAAFE3B4186F6B6457E0 DUP4 DUP1 LOG3 DUP1 RETURN JUMPDEST SWAP1 PUSH1 0x20 PUSH1 0x84 SWAP3 MLOAD SWAP2 PUSH3 0x461BCD PUSH1 0xE5 SHL DUP4 MSTORE DUP3 ADD MSTORE PUSH1 0x26 PUSH1 0x24 DUP3 ADD MSTORE PUSH32 0x4F776E61626C653A206E6577206F776E657220697320746865207A65726F2061 PUSH1 0x44 DUP3 ADD MSTORE PUSH6 0x646472657373 PUSH1 0xD0 SHL PUSH1 0x64 DUP3 ADD MSTORE REVERT JUMPDEST DUP3 DUP1 REVERT JUMPDEST POP CALLVALUE PUSH2 0x310 JUMPI DUP1 PUSH1 0x3 NOT CALLDATASIZE ADD SLT PUSH2 0x310 JUMPI DUP2 MLOAD SWAP2 DUP3 DUP3 PUSH1 0xF SLOAD PUSH2 0x3FC DUP2 PUSH2 0x175C JUMP JUMPDEST SWAP1 DUP2 DUP5 MSTORE PUSH1 0x20 SWAP6 PUSH1 0x1 SWAP2 DUP8 PUSH1 0x1 DUP3 AND SWAP2 DUP3 PUSH1 0x0 EQ PUSH2 0x49C JUMPI POP POP PUSH1 0x1 EQ PUSH2 0x440 JUMPI JUMPDEST POP POP POP PUSH2 0x290 SWAP3 SWAP2 PUSH2 0x431 SWAP2 SUB DUP6 PUSH2 0x1796 JUMP JUMPDEST MLOAD SWAP3 DUP3 DUP5 SWAP4 DUP5 MSTORE DUP4 ADD SWAP1 PUSH2 0x17F1 JUMP JUMPDEST SWAP2 SWAP1 DUP7 SWAP4 POP PUSH1 0xF DUP4 MSTORE PUSH32 0x8D1108E10BCB7C27DDDFC02ED9D693A074039D026CF4EA4240B40F7D581AC802 JUMPDEST DUP3 DUP5 LT PUSH2 0x484 JUMPI POP POP POP DUP3 ADD ADD DUP2 PUSH2 0x431 PUSH2 0x290 PUSH2 0x41E JUMP JUMPDEST DUP1 SLOAD DUP5 DUP11 ADD DUP7 ADD MSTORE DUP9 SWAP6 POP DUP8 SWAP5 SWAP1 SWAP4 ADD SWAP3 DUP2 ADD PUSH2 0x46B JUMP JUMPDEST PUSH1 0xFF NOT AND DUP8 DUP3 ADD MSTORE SWAP4 ISZERO ISZERO PUSH1 0x5 SHL DUP7 ADD SWAP1 SWAP4 ADD SWAP4 POP DUP5 SWAP3 POP PUSH2 0x431 SWAP2 POP PUSH2 0x290 SWAP1 POP PUSH2 0x41E JUMP JUMPDEST POP SWAP1 CALLVALUE PUSH2 0x511 JUMPI DUP1 PUSH1 0x3 NOT CALLDATASIZE ADD SLT PUSH2 0x511 JUMPI PUSH1 0xFF DUP2 PUSH1 0x20 SWAP4 PUSH2 0x4E3 PUSH2 0x172B JUMP JUMPDEST PUSH2 0x4EB PUSH2 0x1746 JUMP JUMPDEST PUSH1 0x1 PUSH1 0x1 PUSH1 0xA0 SHL SUB SWAP2 DUP3 AND DUP4 MSTORE PUSH1 0xA DUP8 MSTORE DUP4 DUP4 KECCAK256 SWAP2 AND DUP3 MSTORE DUP6 MSTORE KECCAK256 SLOAD SWAP2 MLOAD SWAP2 AND ISZERO ISZERO DUP2 MSTORE RETURN JUMPDEST POP DUP1 REVERT JUMPDEST POP SWAP1 CALLVALUE PUSH2 0x511 JUMPI CALLDATASIZE PUSH1 0x3 NOT ADD SLT PUSH2 0x310 JUMPI PUSH2 0x53A PUSH2 0x531 PUSH2 0x172B JUMP JUMPDEST PUSH1 0x24 CALLDATALOAD SWAP1 PUSH2 0x1F49 JUMP JUMPDEST DUP1 RETURN JUMPDEST POP CALLVALUE PUSH2 0x310 JUMPI PUSH2 0x53A PUSH2 0x54F CALLDATASIZE PUSH2 0x1816 JUMP JUMPDEST SWAP2 PUSH2 0x1E45 JUMP JUMPDEST POP SWAP1 CALLVALUE PUSH2 0x511 JUMPI DUP1 PUSH1 0x3 NOT CALLDATASIZE ADD SLT PUSH2 0x511 JUMPI DUP1 PUSH1 0x20 SWAP3 PUSH2 0x573 PUSH2 0x172B JUMP JUMPDEST PUSH2 0x57B PUSH2 0x1746 JUMP JUMPDEST PUSH1 0x1 PUSH1 0x1 PUSH1 0xA0 SHL SUB SWAP2 DUP3 AND DUP4 MSTORE PUSH1 0x8 DUP7 MSTORE DUP4 DUP4 KECCAK256 SWAP2 AND DUP3 MSTORE DUP5 MSTORE KECCAK256 SLOAD SWAP1 MLOAD SWAP1 DUP2 MSTORE RETURN JUMPDEST POP SWAP1 CALLVALUE PUSH2 0x511 JUMPI PUSH1 0x20 SWAP1 PUSH2 0x5BA PUSH2 0x5B4 CALLDATASIZE PUSH2 0x1816 JUMP JUMPDEST SWAP2 PUSH2 0x1DAC JUMP JUMPDEST SWAP1 MLOAD SWAP1 ISZERO ISZERO DUP2 MSTORE RETURN JUMPDEST POP SWAP1 CALLVALUE PUSH2 0x511 JUMPI PUSH1 0xE0 CALLDATASIZE PUSH1 0x3 NOT ADD SLT PUSH2 0x511 JUMPI PUSH2 0x5DE PUSH2 0x172B JUMP JUMPDEST SWAP1 PUSH2 0x5E7 PUSH2 0x1746 JUMP JUMPDEST PUSH1 0x44 CALLDATALOAD PUSH1 0x64 CALLDATALOAD SWAP3 PUSH1 0x84 CALLDATALOAD SWAP3 PUSH1 0xFF DUP5 AND DUP1 SWAP5 SUB PUSH2 0x7EC JUMPI TIMESTAMP DUP6 LT PUSH2 0x7DC JUMPI PUSH1 0x1 PUSH1 0xFF SHL DUP4 GT DUP1 PUSH2 0x7D0 JUMPI JUMPDEST PUSH2 0x7C0 JUMPI PUSH1 0x1 PUSH1 0x1 PUSH1 0xA0 SHL SUB SWAP1 DUP2 AND SWAP6 DUP7 ISZERO PUSH2 0x7B0 JUMPI DUP2 PUSH2 0x630 PUSH2 0x1A3E JUMP JUMPDEST SWAP2 AND SWAP6 DUP7 DUP10 MSTORE PUSH1 0x20 SWAP6 PUSH1 0xE DUP8 MSTORE DUP5 DUP11 KECCAK256 SWAP3 DUP4 SLOAD SWAP4 PUSH1 0x1 DUP6 ADD SWAP1 SSTORE DUP6 MLOAD SWAP3 DUP9 DUP5 ADD SWAP5 PUSH32 0x6E71EDAE12B1B97F4D1F60370FEF10105FA2FAAE0126114A169C64845D6126C9 DUP7 MSTORE DUP11 DUP9 DUP7 ADD MSTORE DUP12 PUSH1 0x60 DUP7 ADD MSTORE DUP9 PUSH1 0x80 DUP7 ADD MSTORE PUSH1 0xA0 DUP6 ADD MSTORE PUSH1 0xC0 DUP5 ADD MSTORE PUSH1 0xC0 DUP4 MSTORE PUSH1 0xE0 DUP4 ADD PUSH8 0xFFFFFFFFFFFFFFFF SWAP5 DUP5 DUP3 LT DUP7 DUP4 GT OR PUSH2 0x79C JUMPI DUP2 DUP9 MSTORE DUP5 MLOAD SWAP1 KECCAK256 PUSH2 0x100 DUP6 ADD SWAP3 PUSH2 0x1901 PUSH1 0xF0 SHL DUP5 MSTORE PUSH2 0x102 DUP7 ADD MSTORE PUSH2 0x122 DUP6 ADD MSTORE PUSH1 0x42 DUP2 MSTORE PUSH2 0x160 DUP5 ADD SWAP5 DUP2 DUP7 LT SWAP1 DUP7 GT OR PUSH2 0x789 JUMPI DUP5 DUP8 MSTORE MLOAD SWAP1 KECCAK256 DUP4 MSTORE PUSH2 0x180 DUP3 ADD MSTORE PUSH1 0xA4 CALLDATALOAD PUSH2 0x1A0 DUP3 ADD MSTORE PUSH1 0xC4 CALLDATALOAD PUSH2 0x1C0 SWAP1 SWAP2 ADD MSTORE DUP8 DUP1 MSTORE DUP5 SWAP1 DUP9 SWAP1 PUSH1 0x80 SWAP1 PUSH1 0x1 GAS STATICCALL ISZERO PUSH2 0x77F JUMPI DUP7 MLOAD AND DUP1 ISZERO DUP1 ISZERO PUSH2 0x775 JUMPI JUMPDEST PUSH2 0x765 JUMPI DUP7 MSTORE PUSH1 0x8 DUP4 MSTORE DUP1 DUP7 KECCAK256 DUP6 DUP8 MSTORE DUP4 MSTORE DUP1 DUP7 KECCAK256 DUP3 SWAP1 SSTORE MLOAD SWAP1 DUP2 MSTORE PUSH32 0x8C5BE1E5EBEC7D5BD14F71427D1E84F3DD0314C0F7B2291E5B200AC8C7C3B925 SWAP2 SWAP1 LOG3 DUP1 RETURN JUMPDEST DUP2 MLOAD PUSH4 0x20578759 PUSH1 0xE2 SHL DUP2 MSTORE DUP9 SWAP1 REVERT JUMPDEST POP DUP5 DUP2 EQ ISZERO PUSH2 0x722 JUMP JUMPDEST DUP2 MLOAD RETURNDATASIZE DUP9 DUP3 RETURNDATACOPY RETURNDATASIZE SWAP1 REVERT JUMPDEST PUSH4 0x4E487B71 PUSH1 0xE0 SHL DUP13 MSTORE PUSH1 0x41 DUP14 MSTORE PUSH1 0x24 DUP13 REVERT JUMPDEST POP PUSH4 0x4E487B71 PUSH1 0xE0 SHL DUP13 MSTORE PUSH1 0x41 DUP14 MSTORE PUSH1 0x24 DUP13 REVERT JUMPDEST DUP3 MLOAD PUSH4 0x5461585F PUSH1 0xE0 SHL DUP2 MSTORE DUP10 SWAP1 REVERT JUMPDEST DUP2 MLOAD PUSH4 0x3E7C1BD PUSH1 0xE3 SHL DUP2 MSTORE DUP9 SWAP1 REVERT JUMPDEST POP PUSH1 0x0 NOT DUP4 EQ ISZERO PUSH2 0x611 JUMP JUMPDEST DUP2 MLOAD PUSH4 0x5787BDF PUSH1 0xE0 SHL DUP2 MSTORE DUP9 SWAP1 REVERT JUMPDEST DUP7 DUP1 REVERT JUMPDEST POP SWAP2 SWAP1 CALLVALUE PUSH2 0x3D6 JUMPI PUSH1 0x20 SWAP2 DUP3 PUSH1 0x3 NOT CALLDATASIZE ADD SLT PUSH2 0xA44 JUMPI DUP1 CALLDATALOAD SWAP1 DUP2 SWAP5 DUP1 SWAP2 PUSH27 0x184F03E93FF9F4DAA797ED6E38ED64BF6A1F010000000000000000 DUP1 DUP6 LT ISZERO PUSH2 0xA37 JUMPI JUMPDEST POP PUSH14 0x4EE2D6D415B85ACEF8100000000 DUP1 DUP9 LT ISZERO PUSH2 0xA29 JUMPI JUMPDEST POP PUSH7 0x2386F26FC10000 DUP1 DUP9 LT ISZERO PUSH2 0xA1A JUMPI JUMPDEST POP PUSH4 0x5F5E100 DUP1 DUP9 LT ISZERO PUSH2 0xA0B JUMPI JUMPDEST POP PUSH2 0x2710 DUP1 DUP9 LT ISZERO PUSH2 0x9FC JUMPI JUMPDEST POP POP PUSH1 0x64 DUP7 LT ISZERO PUSH2 0x9EC JUMPI JUMPDEST PUSH1 0xA DUP1 SWAP7 LT ISZERO PUSH2 0x9E2 JUMPI JUMPDEST PUSH1 0x1 SWAP2 PUSH1 0x1 DUP2 ADD SWAP7 PUSH2 0x8B9 PUSH2 0x8A4 DUP10 PUSH2 0x1863 JUMP JUMPDEST SWAP9 PUSH2 0x8B1 DUP9 MLOAD SWAP11 DUP12 PUSH2 0x1796 JUMP JUMPDEST DUP1 DUP11 MSTORE PUSH2 0x1863 JUMP JUMPDEST SWAP5 DUP5 PUSH1 0x21 DUP10 DUP12 ADD SWAP5 PUSH1 0x1F NOT DUP1 SWAP10 ADD CALLDATASIZE DUP8 CALLDATACOPY DUP12 ADD ADD SWAP1 JUMPDEST PUSH2 0x9B3 JUMPI JUMPDEST POP POP POP DUP5 MLOAD SWAP7 DUP8 SWAP4 DUP4 PUSH1 0xF SLOAD SWAP2 PUSH2 0x8EA DUP4 PUSH2 0x175C JUMP JUMPDEST SWAP3 DUP11 PUSH1 0x1 DUP3 AND SWAP2 DUP3 PUSH1 0x0 EQ PUSH2 0x98C JUMPI POP POP PUSH1 0x1 EQ PUSH2 0x92C JUMPI JUMPDEST POP POP POP SWAP2 DUP1 PUSH2 0x91F PUSH2 0x431 SWAP6 SWAP4 PUSH2 0x290 SWAP9 SWAP8 SWAP6 MLOAD SWAP4 DUP5 SWAP2 PUSH2 0x17CE JUMP JUMPDEST ADD SUB SWAP1 DUP2 ADD DUP7 MSTORE DUP6 PUSH2 0x1796 JUMP JUMPDEST DUP10 SWAP4 SWAP5 SWAP6 POP PUSH1 0xF DUP3 MSTORE PUSH32 0x8D1108E10BCB7C27DDDFC02ED9D693A074039D026CF4EA4240B40F7D581AC802 JUMPDEST DUP4 DUP4 LT PUSH2 0x972 JUMPI POP POP POP DUP5 ADD ADD SWAP2 SWAP1 DUP1 PUSH2 0x91F PUSH2 0x290 PUSH2 0x903 JUMP JUMPDEST DUP1 SLOAD SWAP8 DUP4 ADD DUP6 ADD SWAP8 SWAP1 SWAP8 MSTORE DUP11 SWAP7 DUP11 SWAP5 SWAP1 SWAP3 ADD SWAP2 DUP2 ADD PUSH2 0x957 JUMP JUMPDEST PUSH1 0xFF NOT AND DUP10 DUP3 ADD MSTORE DUP5 ISZERO ISZERO SWAP1 SWAP5 MUL DUP9 ADD SWAP1 SWAP4 ADD SWAP6 POP DUP4 SWAP3 POP PUSH2 0x91F SWAP2 POP PUSH2 0x290 SWAP1 POP PUSH2 0x903 JUMP JUMPDEST PUSH1 0x0 NOT ADD SWAP1 DUP3 SWAP1 PUSH16 0x181899199A1A9B1B9C1CB0B131B232B3 PUSH1 0x81 SHL DUP3 DUP3 MOD BYTE DUP4 MSTORE8 DIV SWAP1 DUP6 DUP3 PUSH2 0x8CF JUMPI POP PUSH2 0x8D4 JUMP JUMPDEST SWAP1 PUSH1 0x1 ADD SWAP1 PUSH2 0x890 JUMP JUMPDEST SWAP1 SWAP5 PUSH1 0x64 PUSH1 0x2 SWAP2 DIV SWAP6 ADD SWAP1 PUSH2 0x885 JUMP JUMPDEST SWAP1 SWAP2 SWAP3 SWAP7 DIV SWAP6 ADD SWAP1 CODESIZE DUP1 PUSH2 0x879 JUMP JUMPDEST PUSH1 0x8 SWAP2 SWAP4 SWAP8 DIV SWAP7 ADD SWAP2 CODESIZE PUSH2 0x86C JUMP JUMPDEST PUSH1 0x10 SWAP2 SWAP4 SWAP8 DIV SWAP7 ADD SWAP2 CODESIZE PUSH2 0x85D JUMP JUMPDEST DUP7 SWAP2 SWAP4 SWAP8 DIV SWAP7 ADD SWAP2 CODESIZE PUSH2 0x84B JUMP JUMPDEST DUP5 DIV SWAP7 POP DUP5 SWAP3 POP CODESIZE PUSH2 0x832 JUMP JUMPDEST DUP4 DUP1 REVERT JUMPDEST POP SWAP1 CALLVALUE PUSH2 0x511 JUMPI CALLDATASIZE PUSH1 0x3 NOT ADD SLT PUSH2 0x310 JUMPI PUSH2 0x53A PUSH2 0xA64 PUSH2 0x172B JUMP JUMPDEST PUSH2 0xA6C PUSH2 0x191A JUMP JUMPDEST SWAP1 PUSH2 0xA75 PUSH2 0x1FF8 JUMP JUMPDEST PUSH2 0x2050 JUMP JUMPDEST POP SWAP1 CALLVALUE PUSH2 0x511 JUMPI DUP2 PUSH1 0x3 NOT CALLDATASIZE ADD SLT PUSH2 0x511 JUMPI PUSH1 0x20 SWAP1 PUSH1 0x6 SLOAD SWAP1 MLOAD SWAP1 DUP2 MSTORE RETURN JUMPDEST POP DUP3 CALLVALUE PUSH2 0x511 JUMPI PUSH1 0x80 CALLDATASIZE PUSH1 0x3 NOT ADD SLT PUSH2 0x511 JUMPI PUSH2 0xAB4 PUSH2 0x172B JUMP JUMPDEST PUSH2 0xABC PUSH2 0x1746 JUMP JUMPDEST SWAP1 PUSH1 0x64 CALLDATALOAD PUSH8 0xFFFFFFFFFFFFFFFF DUP2 GT PUSH2 0xAFA JUMPI CALLDATASIZE PUSH1 0x23 DUP3 ADD SLT ISZERO PUSH2 0xAFA JUMPI PUSH2 0x53A SWAP4 DUP2 PUSH1 0x24 PUSH2 0xAF0 SWAP4 CALLDATASIZE SWAP4 ADD CALLDATALOAD SWAP2 ADD PUSH2 0x187F JUMP JUMPDEST SWAP2 PUSH1 0x44 CALLDATALOAD SWAP2 PUSH2 0x1C56 JUMP JUMPDEST DUP5 DUP1 REVERT JUMPDEST POP SWAP1 CALLVALUE PUSH2 0x511 JUMPI PUSH1 0x20 CALLDATASIZE PUSH1 0x3 NOT ADD SLT PUSH2 0x511 JUMPI PUSH1 0x20 SWAP2 DUP2 SWAP1 PUSH1 0x1 PUSH1 0x1 PUSH1 0xA0 SHL SUB PUSH2 0xB26 PUSH2 0x172B JUMP JUMPDEST AND DUP2 MSTORE PUSH1 0xC DUP5 MSTORE KECCAK256 SLOAD SWAP1 MLOAD SWAP1 DUP2 MSTORE RETURN JUMPDEST POP SWAP1 CALLVALUE PUSH2 0x511 JUMPI PUSH1 0x20 SWAP1 PUSH1 0x20 PUSH1 0x3 NOT CALLDATASIZE ADD SLT PUSH2 0x3D6 JUMPI PUSH1 0x1 PUSH1 0x1 PUSH1 0xA0 SHL SUB PUSH2 0xB5C PUSH2 0x172B JUMP JUMPDEST AND DUP4 MSTORE PUSH1 0xC PUSH1 0x20 MSTORE DUP1 DUP4 KECCAK256 SWAP3 DUP2 MLOAD DUP1 SWAP4 PUSH1 0x20 DUP7 SLOAD SWAP3 DUP4 DUP2 MSTORE ADD SWAP6 DUP4 MSTORE PUSH1 0x20 DUP4 KECCAK256 SWAP3 SWAP1 JUMPDEST DUP3 DUP3 LT PUSH2 0xBA1 JUMPI PUSH2 0x290 DUP7 DUP7 PUSH2 0xB97 DUP3 DUP12 SUB DUP4 PUSH2 0x1796 JUMP JUMPDEST MLOAD SWAP2 DUP3 SWAP2 DUP3 PUSH2 0x1929 JUMP JUMPDEST DUP4 SLOAD DUP8 MSTORE SWAP6 DUP7 ADD SWAP6 PUSH1 0x1 SWAP4 DUP5 ADD SWAP4 SWAP1 SWAP2 ADD SWAP1 PUSH2 0xB7F JUMP JUMPDEST POP CALLVALUE PUSH2 0x310 JUMPI DUP2 PUSH1 0x3 NOT CALLDATASIZE ADD SLT PUSH2 0x310 JUMPI POP PUSH2 0xBD2 PUSH2 0x172B JUMP JUMPDEST SWAP2 PUSH1 0x1 PUSH1 0x1 PUSH1 0xA0 SHL SUB DUP4 AND ISZERO PUSH2 0xBF3 JUMPI POP PUSH2 0x5BA PUSH1 0x20 SWAP3 PUSH1 0x24 CALLDATALOAD SWAP1 CALLER PUSH2 0x2174 JUMP JUMPDEST SWAP1 MLOAD PUSH4 0x4E469669 PUSH1 0xE1 SHL DUP2 MSTORE REVERT JUMPDEST POP SWAP2 SWAP1 CALLVALUE PUSH2 0x3D6 JUMPI DUP1 PUSH1 0x3 NOT CALLDATASIZE ADD SLT PUSH2 0x3D6 JUMPI PUSH2 0xC1C PUSH2 0x172B JUMP JUMPDEST SWAP1 PUSH2 0xC25 PUSH2 0x191A JUMP JUMPDEST PUSH1 0x1 PUSH1 0x1 PUSH1 0xA0 SHL SUB SWAP1 SWAP3 AND SWAP3 DUP4 ISZERO PUSH2 0xC90 JUMPI POP CALLER DUP5 MSTORE PUSH1 0xA PUSH1 0x20 MSTORE DUP1 DUP5 KECCAK256 DUP4 DUP6 MSTORE PUSH1 0x20 MSTORE PUSH2 0xC61 DUP3 DUP3 DUP7 KECCAK256 SWAP1 PUSH1 0xFF DUP1 NOT DUP4 SLOAD AND SWAP2 ISZERO ISZERO AND OR SWAP1 SSTORE JUMP JUMPDEST MLOAD SWAP1 ISZERO ISZERO DUP2 MSTORE PUSH32 0x17307EAB39AB6107E8899845AD3D59BD9653F200F220920489CA2B5937696C31 PUSH1 0x20 CALLER SWAP3 LOG3 DUP1 RETURN JUMPDEST SWAP1 MLOAD PUSH4 0xCCEA9E6F PUSH1 0xE0 SHL DUP2 MSTORE REVERT JUMPDEST POP SWAP1 CALLVALUE PUSH2 0x511 JUMPI DUP2 PUSH1 0x3 NOT CALLDATASIZE ADD SLT PUSH2 0x511 JUMPI PUSH1 0x20 SWAP1 MLOAD PUSH32 0x0 DUP2 MSTORE RETURN JUMPDEST POP SWAP2 SWAP1 CALLVALUE PUSH2 0x3D6 JUMPI DUP3 PUSH1 0x3 NOT CALLDATASIZE ADD SLT PUSH2 0x3D6 JUMPI DUP1 MLOAD DUP4 DUP2 SWAP5 SWAP1 DUP5 SLOAD PUSH2 0xCFD DUP2 PUSH2 0x175C JUMP JUMPDEST SWAP2 DUP3 DUP6 MSTORE PUSH1 0x20 SWAP7 PUSH1 0x1 SWAP3 DUP9 PUSH1 0x1 DUP3 AND SWAP2 DUP3 PUSH1 0x0 EQ PUSH2 0xD8C JUMPI POP POP PUSH1 0x1 EQ PUSH2 0xD31 JUMPI JUMPDEST DUP6 DUP9 PUSH2 0x290 DUP10 PUSH2 0x431 DUP5 DUP11 SUB DUP6 PUSH2 0x1796 JUMP JUMPDEST DUP2 MSTORE DUP7 SWAP4 POP SWAP2 SWAP1 PUSH32 0x8A35ACFBC15FF81A39AE7D344FD709F28E8600B4AA8C65C6B64BFE7FE36BD19B JUMPDEST DUP3 DUP5 LT PUSH2 0xD74 JUMPI POP POP POP DUP3 ADD ADD DUP2 PUSH2 0x431 PUSH2 0x290 CODESIZE PUSH2 0xD1F JUMP JUMPDEST DUP1 SLOAD DUP5 DUP11 ADD DUP7 ADD MSTORE DUP9 SWAP6 POP DUP8 SWAP5 SWAP1 SWAP4 ADD SWAP3 DUP2 ADD PUSH2 0xD5A JUMP JUMPDEST PUSH1 0xFF NOT AND DUP9 DUP3 ADD MSTORE SWAP5 ISZERO ISZERO PUSH1 0x5 SHL DUP8 ADD SWAP1 SWAP5 ADD SWAP5 POP DUP6 SWAP4 POP PUSH2 0x431 SWAP3 POP PUSH2 0x290 SWAP2 POP CODESIZE SWAP1 POP PUSH2 0xD1F JUMP JUMPDEST POP SWAP1 CALLVALUE PUSH2 0x511 JUMPI DUP2 PUSH1 0x3 NOT CALLDATASIZE ADD SLT PUSH2 0x511 JUMPI SWAP1 SLOAD SWAP1 MLOAD PUSH1 0x1 PUSH1 0x1 PUSH1 0xA0 SHL SUB SWAP1 SWAP2 AND DUP2 MSTORE PUSH1 0x20 SWAP1 RETURN JUMPDEST POP DUP3 CALLVALUE PUSH2 0x511 JUMPI PUSH1 0x20 CALLDATASIZE PUSH1 0x3 NOT ADD SLT PUSH2 0x511 JUMPI CALLDATALOAD DUP1 ISZERO ISZERO DUP2 SUB PUSH2 0x511 JUMPI PUSH2 0x53A SWAP1 CALLER PUSH2 0x2050 JUMP JUMPDEST POP SWAP1 CALLVALUE PUSH2 0x511 JUMPI DUP2 PUSH1 0x3 NOT CALLDATASIZE ADD SLT PUSH2 0x511 JUMPI PUSH1 0x20 SWAP1 PUSH1 0x5 SLOAD SWAP1 MLOAD SWAP1 DUP2 MSTORE RETURN JUMPDEST POP SWAP1 CALLVALUE PUSH2 0x511 JUMPI PUSH1 0x20 CALLDATASIZE PUSH1 0x3 NOT ADD SLT PUSH2 0x511 JUMPI PUSH1 0x20 SWAP2 DUP2 SWAP1 PUSH1 0x1 PUSH1 0x1 PUSH1 0xA0 SHL SUB PUSH2 0xE4C PUSH2 0x172B JUMP JUMPDEST AND DUP2 MSTORE PUSH1 0xE DUP5 MSTORE KECCAK256 SLOAD SWAP1 MLOAD SWAP1 DUP2 MSTORE RETURN JUMPDEST POP CALLVALUE PUSH2 0x310 JUMPI DUP1 PUSH1 0x3 NOT CALLDATASIZE ADD SLT PUSH2 0x310 JUMPI PUSH2 0xE75 PUSH2 0x1FF8 JUMP JUMPDEST DUP1 SLOAD PUSH1 0x1 PUSH1 0x1 PUSH1 0xA0 SHL SUB NOT DUP2 AND DUP3 SSTORE DUP2 SWAP1 PUSH1 0x1 PUSH1 0x1 PUSH1 0xA0 SHL SUB AND PUSH32 0x8BE0079C531659141344CD1FD0A4F28419497F9722A3DAAFE3B4186F6B6457E0 DUP3 DUP1 LOG3 DUP1 RETURN JUMPDEST POP SWAP1 CALLVALUE PUSH2 0x511 JUMPI PUSH1 0x20 CALLDATASIZE PUSH1 0x3 NOT ADD SLT PUSH2 0x511 JUMPI PUSH1 0x20 SWAP2 DUP2 SWAP1 PUSH1 0x1 PUSH1 0x1 PUSH1 0xA0 SHL SUB PUSH2 0xEDE PUSH2 0x172B JUMP JUMPDEST AND DUP2 MSTORE PUSH1 0x7 DUP5 MSTORE KECCAK256 SLOAD SWAP1 MLOAD SWAP1 DUP2 MSTORE RETURN JUMPDEST POP SWAP1 CALLVALUE PUSH2 0x511 JUMPI DUP2 PUSH1 0x3 NOT CALLDATASIZE ADD SLT PUSH2 0x511 JUMPI MLOAD PUSH1 0x1 PUSH1 0xFF SHL DUP2 MSTORE PUSH1 0x20 SWAP1 RETURN JUMPDEST POP SWAP1 CALLVALUE PUSH2 0x511 JUMPI PUSH1 0x20 SWAP1 DUP2 PUSH1 0x3 NOT CALLDATASIZE ADD SLT PUSH2 0x3D6 JUMPI DUP3 SWAP1 PUSH1 0x1 PUSH1 0x1 PUSH1 0xA0 SHL SUB PUSH2 0xF34 PUSH2 0x172B JUMP JUMPDEST AND DUP3 MSTORE PUSH1 0x10 DUP4 MSTORE DUP1 DUP3 KECCAK256 SWAP2 DUP3 SLOAD SWAP1 PUSH2 0xF4B DUP3 PUSH2 0x184B JUMP JUMPDEST SWAP4 PUSH2 0xF58 DUP5 MLOAD SWAP6 DUP7 PUSH2 0x1796 JUMP JUMPDEST DUP3 DUP6 MSTORE DUP2 MSTORE DUP5 DUP2 KECCAK256 SWAP5 DUP2 SWAP1 DUP1 DUP7 ADD JUMPDEST DUP5 DUP4 LT PUSH2 0xF7B JUMPI DUP6 MLOAD DUP1 PUSH2 0x290 DUP10 DUP3 PUSH2 0x18B6 JUMP JUMPDEST DUP6 MLOAD DUP3 DUP6 SWAP3 DUP11 SLOAD SWAP3 PUSH2 0xF8C DUP5 PUSH2 0x175C JUMP JUMPDEST DUP1 DUP3 MSTORE PUSH1 0x1 SWAP5 DUP1 DUP7 AND SWAP1 DUP2 ISZERO PUSH2 0xFFA JUMPI POP PUSH1 0x1 EQ PUSH2 0xFC2 JUMPI JUMPDEST POP PUSH2 0xFB4 DUP2 PUSH1 0x1 SWAP7 SUB DUP3 PUSH2 0x1796 JUMP JUMPDEST DUP2 MSTORE ADD SWAP9 ADD SWAP3 ADD SWAP2 SWAP7 PUSH2 0xF67 JUMP JUMPDEST DUP13 DUP10 MSTORE DUP4 DUP10 KECCAK256 SWAP6 POP DUP9 SWAP1 JUMPDEST DUP1 DUP3 LT PUSH2 0xFE3 JUMPI POP DUP2 ADD DUP4 ADD SWAP5 POP PUSH2 0xFB4 PUSH2 0xFA5 JUMP JUMPDEST DUP7 SLOAD DUP4 DUP4 ADD DUP7 ADD MSTORE SWAP6 DUP6 ADD SWAP6 DUP8 SWAP5 SWAP1 SWAP2 ADD SWAP1 PUSH2 0xFCD JUMP JUMPDEST PUSH1 0xFF NOT AND DUP6 DUP5 ADD MSTORE POP ISZERO ISZERO PUSH1 0x5 SHL DUP2 ADD DUP4 ADD SWAP5 POP PUSH2 0xFB4 PUSH2 0xFA5 JUMP JUMPDEST POP SWAP1 CALLVALUE PUSH2 0x511 JUMPI PUSH1 0x20 CALLDATASIZE PUSH1 0x3 NOT ADD SLT PUSH2 0x511 JUMPI DUP3 CALLDATALOAD DUP1 DUP4 MSTORE PUSH1 0xB PUSH1 0x20 MSTORE SWAP2 DUP2 SWAP1 KECCAK256 SLOAD PUSH1 0x1 PUSH1 0x1 PUSH1 0xA0 SHL SUB AND SWAP2 PUSH1 0x1 PUSH1 0xFF SHL DUP2 GT SWAP1 DUP2 PUSH2 0x1084 JUMPI JUMPDEST POP ISZERO PUSH2 0x1075 JUMPI DUP2 ISZERO PUSH2 0x1066 JUMPI PUSH1 0x20 SWAP3 POP MLOAD SWAP1 DUP2 MSTORE RETURN JUMPDEST MLOAD PUSH4 0xC5723B51 PUSH1 0xE0 SHL DUP2 MSTORE SWAP1 POP REVERT JUMPDEST MLOAD PUSH4 0x7ED98ED PUSH1 0xE3 SHL DUP2 MSTORE SWAP1 POP REVERT JUMPDEST PUSH1 0x0 NOT EQ ISZERO SWAP1 POP CODESIZE PUSH2 0x1050 JUMP JUMPDEST POP SWAP1 CALLVALUE PUSH2 0x511 JUMPI DUP1 PUSH1 0x3 NOT CALLDATASIZE ADD SLT PUSH2 0x511 JUMPI PUSH1 0x20 SWAP1 PUSH2 0x5BA PUSH2 0x10B1 PUSH2 0x172B JUMP JUMPDEST PUSH1 0x24 CALLDATALOAD SWAP1 PUSH2 0x1BE7 JUMP JUMPDEST POP SWAP1 CALLVALUE PUSH2 0x511 JUMPI PUSH2 0x10CA CALLDATASIZE PUSH2 0x1816 JUMP JUMPDEST SWAP2 DUP4 MLOAD SWAP4 PUSH1 0x20 DUP6 ADD SWAP1 DUP6 DUP3 LT PUSH8 0xFFFFFFFFFFFFFFFF DUP4 GT OR PUSH2 0x10F5 JUMPI PUSH2 0x53A SWAP7 SWAP8 POP MSTORE DUP6 DUP5 MSTORE PUSH2 0x1C56 JUMP JUMPDEST PUSH4 0x4E487B71 PUSH1 0xE0 SHL DUP8 MSTORE PUSH1 0x41 DUP9 MSTORE PUSH1 0x24 DUP8 REVERT JUMPDEST POP SWAP1 CALLVALUE PUSH2 0x511 JUMPI DUP2 PUSH1 0x3 NOT CALLDATASIZE ADD SLT PUSH2 0x511 JUMPI PUSH1 0x20 SWAP1 PUSH2 0x1125 PUSH2 0x1A3E JUMP JUMPDEST SWAP1 MLOAD SWAP1 DUP2 MSTORE RETURN JUMPDEST POP SWAP1 CALLVALUE PUSH2 0x511 JUMPI DUP2 PUSH1 0x3 NOT CALLDATASIZE ADD SLT PUSH2 0x511 JUMPI PUSH1 0x20 SWAP1 MLOAD PUSH1 0xFF PUSH32 0x0 AND DUP2 MSTORE RETURN JUMPDEST POP DUP3 CALLVALUE PUSH2 0x511 JUMPI DUP3 PUSH1 0x3 NOT CALLDATASIZE ADD SLT PUSH2 0x511 JUMPI PUSH2 0x1184 PUSH2 0x172B JUMP JUMPDEST SWAP2 PUSH1 0x24 DUP1 CALLDATALOAD SWAP1 PUSH8 0xFFFFFFFFFFFFFFFF SWAP3 DUP4 DUP4 GT PUSH2 0x310 JUMPI CALLDATASIZE PUSH1 0x23 DUP5 ADD SLT ISZERO PUSH2 0x310 JUMPI DUP3 DUP6 ADD CALLDATALOAD SWAP3 PUSH2 0x11B4 DUP5 PUSH2 0x184B JUMP JUMPDEST SWAP8 PUSH2 0x11C1 DUP2 MLOAD SWAP10 DUP11 PUSH2 0x1796 JUMP JUMPDEST DUP5 DUP10 MSTORE PUSH1 0x20 SWAP2 DUP3 DUP11 ADD DUP6 PUSH1 0x5 SWAP8 PUSH1 0x5 SHL DUP4 ADD ADD SWAP2 CALLDATASIZE DUP4 GT PUSH2 0x151B JUMPI DUP7 DUP2 ADD SWAP2 JUMPDEST DUP4 DUP4 LT PUSH2 0x14E0 JUMPI POP POP POP POP PUSH2 0x11F4 PUSH2 0x1FF8 JUMP JUMPDEST PUSH1 0x1 PUSH1 0x1 PUSH1 0xA0 SHL SUB DUP9 AND DUP4 JUMPDEST DUP11 MLOAD DUP2 LT ISZERO PUSH2 0x1382 JUMPI DUP2 DUP6 MSTORE PUSH1 0x10 DUP5 MSTORE DUP3 DUP6 KECCAK256 SWAP1 PUSH2 0x121E DUP2 DUP14 PUSH2 0x19FC JUMP JUMPDEST MLOAD SWAP2 DUP1 SLOAD PUSH1 0x1 PUSH1 0x40 SHL DUP2 LT ISZERO PUSH2 0x1370 JUMPI PUSH2 0x123F SWAP1 PUSH1 0x1 SWAP3 DUP4 DUP3 ADD DUP2 SSTORE PUSH2 0x1A26 JUMP JUMPDEST SWAP2 SWAP1 SWAP2 PUSH2 0x135F JUMPI DUP4 MLOAD SWAP1 DUP12 DUP3 GT PUSH2 0x134D JUMPI PUSH2 0x125A DUP4 SLOAD PUSH2 0x175C JUMP JUMPDEST SWAP5 PUSH1 0x1F SWAP6 DUP7 DUP2 GT PUSH2 0x130B JUMPI JUMPDEST POP DUP9 SWAP6 DUP4 GT PUSH1 0x1 EQ PUSH2 0x12A3 JUMPI DUP3 SWAP2 PUSH1 0x1 SWAP7 DUP4 SWAP3 DUP13 SWAP5 PUSH2 0x1298 JUMPI JUMPDEST POP POP SHL SWAP2 PUSH1 0x0 NOT SWAP1 PUSH1 0x3 SHL SHR NOT AND OR SWAP1 SSTORE JUMPDEST ADD PUSH2 0x1200 JUMP JUMPDEST ADD MLOAD SWAP3 POP CODESIZE DUP1 PUSH2 0x1280 JUMP JUMPDEST SWAP1 SWAP3 SWAP4 SWAP5 PUSH1 0x1F NOT DUP4 AND SWAP2 DUP6 DUP12 MSTORE DUP10 DUP12 KECCAK256 SWAP3 DUP12 JUMPDEST DUP12 DUP3 DUP3 LT PUSH2 0x12F7 JUMPI POP POP SWAP1 DUP5 PUSH1 0x1 SWAP9 SWAP8 SWAP7 SWAP6 SWAP5 SWAP4 SWAP3 LT PUSH2 0x12DE JUMPI JUMPDEST POP POP POP DUP2 SHL ADD SWAP1 SSTORE PUSH2 0x1292 JUMP JUMPDEST ADD MLOAD PUSH1 0x0 NOT PUSH1 0xF8 DUP5 PUSH1 0x3 SHL AND SHR NOT AND SWAP1 SSTORE DUP16 DUP1 DUP1 PUSH2 0x12D1 JUMP JUMPDEST DUP4 DUP6 ADD MLOAD DUP7 SSTORE SWAP5 DUP8 ADD SWAP5 SWAP4 DUP5 ADD SWAP4 ADD PUSH2 0x12B6 JUMP JUMPDEST DUP5 DUP12 MSTORE DUP10 DUP12 KECCAK256 DUP14 DUP9 DUP1 DUP8 ADD DUP3 SHR DUP4 ADD SWAP4 DUP14 DUP9 LT PUSH2 0x1344 JUMPI JUMPDEST ADD SWAP1 SHR ADD SWAP1 DUP4 SWAP1 JUMPDEST DUP3 DUP2 LT PUSH2 0x1339 JUMPI POP POP PUSH2 0x1266 JUMP JUMPDEST DUP13 DUP2 SSTORE ADD DUP4 SWAP1 PUSH2 0x132B JUMP JUMPDEST SWAP4 POP DUP3 SWAP4 PUSH2 0x1323 JUMP JUMPDEST PUSH4 0x4E487B71 PUSH1 0xE0 SHL DUP10 MSTORE PUSH1 0x41 DUP14 MSTORE DUP10 DUP10 REVERT JUMPDEST PUSH4 0x4E487B71 PUSH1 0xE0 SHL DUP9 MSTORE DUP8 DUP13 MSTORE DUP9 DUP9 REVERT JUMPDEST PUSH4 0x4E487B71 PUSH1 0xE0 SHL DUP9 MSTORE PUSH1 0x41 DUP13 MSTORE DUP9 DUP9 REVERT JUMPDEST POP SWAP3 SWAP4 DUP8 DUP10 SWAP2 DUP12 SWAP5 DUP6 MLOAD PUSH32 0x0 SWAP3 DUP4 DUP3 MUL SWAP2 DUP1 DUP4 DIV DUP6 EQ SWAP1 ISZERO OR ISZERO PUSH2 0x14CF JUMPI POP DUP8 ISZERO PUSH2 0x14BF JUMPI PUSH1 0x5 SLOAD SWAP4 PUSH1 0x1 PUSH1 0xFF SHL PUSH2 0x13D9 DUP4 DUP8 PUSH2 0x1FEB JUMP JUMPDEST GT PUSH2 0x14B1 JUMPI POP DUP9 PUSH1 0x0 DUP1 MLOAD PUSH1 0x20 PUSH2 0x2969 DUP4 CODECOPY DUP2 MLOAD SWAP2 MSTORE DUP4 DUP11 SWAP4 PUSH1 0x7 DUP3 MSTORE DUP5 DUP5 MSTORE PUSH2 0x1407 DUP2 DUP12 DUP7 KECCAK256 SLOAD SWAP10 PUSH2 0x1FEB JUMP JUMPDEST PUSH1 0x5 SSTORE DUP5 DUP5 MSTORE PUSH1 0x7 DUP3 MSTORE DUP10 DUP5 KECCAK256 DUP2 DUP2 SLOAD ADD SWAP1 SSTORE DUP10 MLOAD SWAP1 DUP2 MSTORE LOG3 PUSH2 0x1429 DUP5 PUSH2 0x199E JUMP JUMPDEST ISZERO PUSH2 0x1467 JUMPI JUMPDEST DUP8 DUP8 PUSH32 0x9DB9873CD0C3E9E21710778297ADB5B1A923B4C4663A32440D58DC743A5478DA PUSH2 0x1461 DUP10 DUP10 MLOAD SWAP2 DUP3 SWAP2 DUP3 PUSH2 0x18B6 JUMP JUMPDEST SUB SWAP1 LOG2 DUP1 RETURN JUMPDEST PUSH2 0x148F SWAP3 SWAP2 PUSH1 0x7 PUSH2 0x1489 SWAP3 DUP10 DUP12 MSTORE MSTORE PUSH2 0x1483 DUP2 DUP8 DUP12 KECCAK256 SLOAD PUSH2 0x2154 JUMP JUMPDEST SWAP3 PUSH2 0x2154 JUMP JUMPDEST SWAP1 PUSH2 0x1D89 JUMP JUMPDEST SWAP1 DUP6 JUMPDEST DUP3 DUP2 LT PUSH2 0x149F JUMPI DUP1 PUSH2 0x142F JUMP JUMPDEST PUSH1 0x1 SWAP1 PUSH2 0x14AB DUP4 PUSH2 0x27CF JUMP JUMPDEST ADD PUSH2 0x1492 JUMP JUMPDEST DUP7 MLOAD PUSH4 0x303B682F PUSH1 0xE0 SHL DUP2 MSTORE REVERT JUMPDEST DUP6 MLOAD PUSH4 0x4E469669 PUSH1 0xE1 SHL DUP2 MSTORE DUP5 SWAP1 REVERT JUMPDEST PUSH4 0x4E487B71 PUSH1 0xE0 SHL DUP11 MSTORE PUSH1 0x11 DUP6 MSTORE DUP10 REVERT JUMPDEST DUP3 CALLDATALOAD DUP11 DUP2 GT PUSH2 0x1517 JUMPI DUP3 ADD CALLDATASIZE PUSH1 0x43 DUP3 ADD SLT ISZERO PUSH2 0x1517 JUMPI DUP7 SWAP2 PUSH2 0x150C DUP4 SWAP3 CALLDATASIZE SWAP1 PUSH1 0x44 DUP14 DUP3 ADD CALLDATALOAD SWAP2 ADD PUSH2 0x187F JUMP JUMPDEST DUP2 MSTORE ADD SWAP3 ADD SWAP2 PUSH2 0x11E1 JUMP JUMPDEST DUP8 DUP1 REVERT JUMPDEST DUP6 DUP1 REVERT JUMPDEST POP SWAP1 CALLVALUE PUSH2 0x511 JUMPI PUSH1 0x20 SWAP1 PUSH2 0x5BA PUSH2 0x1535 CALLDATASIZE PUSH2 0x1816 JUMP JUMPDEST SWAP2 PUSH2 0x19CA JUMP JUMPDEST POP SWAP1 CALLVALUE PUSH2 0x511 JUMPI PUSH1 0x20 CALLDATASIZE PUSH1 0x3 NOT ADD SLT PUSH2 0x511 JUMPI PUSH1 0x20 SWAP2 DUP2 SWAP1 PUSH1 0x1 PUSH1 0x1 PUSH1 0xA0 SHL SUB PUSH2 0x1563 PUSH2 0x172B JUMP JUMPDEST AND DUP2 MSTORE PUSH1 0x10 DUP5 MSTORE KECCAK256 SLOAD SWAP1 MLOAD SWAP1 DUP2 MSTORE RETURN JUMPDEST POP SWAP1 CALLVALUE PUSH2 0x511 JUMPI PUSH1 0x20 CALLDATASIZE PUSH1 0x3 NOT ADD SLT PUSH2 0x511 JUMPI PUSH1 0x20 SWAP1 PUSH2 0x5BA PUSH2 0x1594 PUSH2 0x172B JUMP JUMPDEST PUSH2 0x199E JUMP JUMPDEST POP SWAP1 CALLVALUE PUSH2 0x511 JUMPI DUP2 PUSH1 0x3 NOT CALLDATASIZE ADD SLT PUSH2 0x511 JUMPI PUSH1 0x20 SWAP1 PUSH2 0x1125 PUSH1 0x1 SLOAD PUSH1 0x1 PUSH1 0x1 PUSH1 0x80 SHL SUB SWAP1 DUP2 DUP2 AND SWAP1 PUSH1 0x80 SHR SUB AND SWAP1 JUMP JUMPDEST POP SWAP1 CALLVALUE PUSH2 0x511 JUMPI DUP1 PUSH1 0x3 NOT CALLDATASIZE ADD SLT PUSH2 0x511 JUMPI PUSH1 0x20 SWAP1 PUSH2 0x5BA PUSH2 0x15E9 PUSH2 0x172B JUMP JUMPDEST PUSH1 0x24 CALLDATALOAD SWAP1 PUSH2 0x1965 JUMP JUMPDEST POP SWAP2 CALLVALUE PUSH2 0x3D6 JUMPI PUSH1 0x20 CALLDATASIZE PUSH1 0x3 NOT ADD SLT PUSH2 0x3D6 JUMPI CALLDATALOAD DUP3 MSTORE PUSH1 0x9 PUSH1 0x20 SWAP1 DUP2 MSTORE SWAP2 DUP2 SWAP1 KECCAK256 SLOAD SWAP1 MLOAD PUSH1 0x1 PUSH1 0x1 PUSH1 0xA0 SHL SUB SWAP1 SWAP2 AND DUP2 MSTORE RETURN JUMPDEST POP CALLVALUE PUSH2 0x310 JUMPI DUP1 PUSH1 0x3 NOT CALLDATASIZE ADD SLT PUSH2 0x310 JUMPI DUP2 MLOAD SWAP2 DUP3 DUP3 PUSH1 0x3 SLOAD PUSH2 0x1647 DUP2 PUSH2 0x175C JUMP JUMPDEST SWAP1 DUP2 DUP5 MSTORE PUSH1 0x20 SWAP6 PUSH1 0x1 SWAP2 DUP8 PUSH1 0x1 DUP3 AND SWAP2 DUP3 PUSH1 0x0 EQ PUSH2 0x49C JUMPI POP POP PUSH1 0x1 EQ PUSH2 0x167B JUMPI POP POP POP PUSH2 0x290 SWAP3 SWAP2 PUSH2 0x431 SWAP2 SUB DUP6 PUSH2 0x1796 JUMP JUMPDEST SWAP2 SWAP1 DUP7 SWAP4 POP PUSH1 0x3 DUP4 MSTORE PUSH32 0xC2575A0E9E593C00F959F8C92F12DB2869C3395A3B0502D05E2516446F71F85B JUMPDEST DUP3 DUP5 LT PUSH2 0x16BF JUMPI POP POP POP DUP3 ADD ADD DUP2 PUSH2 0x431 PUSH2 0x290 PUSH2 0x41E JUMP JUMPDEST DUP1 SLOAD DUP5 DUP11 ADD DUP7 ADD MSTORE DUP9 SWAP6 POP DUP8 SWAP5 SWAP1 SWAP4 ADD SWAP3 DUP2 ADD PUSH2 0x16A6 JUMP JUMPDEST SWAP1 POP DUP4 CALLVALUE PUSH2 0x3D6 JUMPI PUSH1 0x20 CALLDATASIZE PUSH1 0x3 NOT ADD SLT PUSH2 0x3D6 JUMPI CALLDATALOAD PUSH4 0xFFFFFFFF PUSH1 0xE0 SHL DUP2 AND DUP1 SWAP2 SUB PUSH2 0x3D6 JUMPI PUSH1 0x20 SWAP3 POP PUSH4 0xCAF91FF5 PUSH1 0xE0 SHL DUP2 EQ SWAP1 DUP2 ISZERO PUSH2 0x171A JUMPI JUMPDEST POP ISZERO ISZERO DUP2 MSTORE RETURN JUMPDEST PUSH4 0x1FFC9A7 PUSH1 0xE0 SHL EQ SWAP1 POP DUP4 PUSH2 0x1713 JUMP JUMPDEST PUSH1 0x4 CALLDATALOAD SWAP1 PUSH1 0x1 PUSH1 0x1 PUSH1 0xA0 SHL SUB DUP3 AND DUP3 SUB PUSH2 0x1741 JUMPI JUMP JUMPDEST PUSH1 0x0 DUP1 REVERT JUMPDEST PUSH1 0x24 CALLDATALOAD SWAP1 PUSH1 0x1 PUSH1 0x1 PUSH1 0xA0 SHL SUB DUP3 AND DUP3 SUB PUSH2 0x1741 JUMPI JUMP JUMPDEST SWAP1 PUSH1 0x1 DUP3 DUP2 SHR SWAP3 AND DUP1 ISZERO PUSH2 0x178C JUMPI JUMPDEST PUSH1 0x20 DUP4 LT EQ PUSH2 0x1776 JUMPI JUMP JUMPDEST PUSH4 0x4E487B71 PUSH1 0xE0 SHL PUSH1 0x0 MSTORE PUSH1 0x22 PUSH1 0x4 MSTORE PUSH1 0x24 PUSH1 0x0 REVERT JUMPDEST SWAP2 PUSH1 0x7F AND SWAP2 PUSH2 0x176B JUMP JUMPDEST SWAP1 PUSH1 0x1F DUP1 NOT SWAP2 ADD AND DUP2 ADD SWAP1 DUP2 LT PUSH8 0xFFFFFFFFFFFFFFFF DUP3 GT OR PUSH2 0x17B8 JUMPI PUSH1 0x40 MSTORE JUMP JUMPDEST PUSH4 0x4E487B71 PUSH1 0xE0 SHL PUSH1 0x0 MSTORE PUSH1 0x41 PUSH1 0x4 MSTORE PUSH1 0x24 PUSH1 0x0 REVERT JUMPDEST PUSH1 0x0 JUMPDEST DUP4 DUP2 LT PUSH2 0x17E1 JUMPI POP POP PUSH1 0x0 SWAP2 ADD MSTORE JUMP JUMPDEST DUP2 DUP2 ADD MLOAD DUP4 DUP3 ADD MSTORE PUSH1 0x20 ADD PUSH2 0x17D1 JUMP JUMPDEST SWAP1 PUSH1 0x20 SWAP2 PUSH2 0x180A DUP2 MLOAD DUP1 SWAP3 DUP2 DUP6 MSTORE DUP6 DUP1 DUP7 ADD SWAP2 ADD PUSH2 0x17CE JUMP JUMPDEST PUSH1 0x1F ADD PUSH1 0x1F NOT AND ADD ADD SWAP1 JUMP JUMPDEST PUSH1 0x60 SWAP1 PUSH1 0x3 NOT ADD SLT PUSH2 0x1741 JUMPI PUSH1 0x1 PUSH1 0x1 PUSH1 0xA0 SHL SUB SWAP1 PUSH1 0x4 CALLDATALOAD DUP3 DUP2 AND DUP2 SUB PUSH2 0x1741 JUMPI SWAP2 PUSH1 0x24 CALLDATALOAD SWAP1 DUP2 AND DUP2 SUB PUSH2 0x1741 JUMPI SWAP1 PUSH1 0x44 CALLDATALOAD SWAP1 JUMP JUMPDEST PUSH8 0xFFFFFFFFFFFFFFFF DUP2 GT PUSH2 0x17B8 JUMPI PUSH1 0x5 SHL PUSH1 0x20 ADD SWAP1 JUMP JUMPDEST PUSH8 0xFFFFFFFFFFFFFFFF DUP2 GT PUSH2 0x17B8 JUMPI PUSH1 0x1F ADD PUSH1 0x1F NOT AND PUSH1 0x20 ADD SWAP1 JUMP JUMPDEST SWAP3 SWAP2 SWAP3 PUSH2 0x188B DUP3 PUSH2 0x1863 JUMP JUMPDEST SWAP2 PUSH2 0x1899 PUSH1 0x40 MLOAD SWAP4 DUP5 PUSH2 0x1796 JUMP JUMPDEST DUP3 SWAP5 DUP2 DUP5 MSTORE DUP2 DUP4 ADD GT PUSH2 0x1741 JUMPI DUP3 DUP2 PUSH1 0x20 SWAP4 DUP5 PUSH1 0x0 SWAP7 ADD CALLDATACOPY ADD ADD MSTORE JUMP JUMPDEST PUSH1 0x20 DUP1 DUP3 ADD SWAP1 PUSH1 0x20 DUP4 MSTORE DUP4 MLOAD DUP1 SWAP3 MSTORE PUSH1 0x40 DUP4 ADD SWAP3 PUSH1 0x20 PUSH1 0x40 DUP5 PUSH1 0x5 SHL DUP4 ADD ADD SWAP6 ADD SWAP4 PUSH1 0x0 SWAP2 JUMPDEST DUP5 DUP4 LT PUSH2 0x18EC JUMPI POP POP POP POP POP POP SWAP1 JUMP JUMPDEST SWAP1 SWAP2 SWAP3 SWAP4 SWAP5 SWAP6 DUP5 DUP1 PUSH2 0x190A PUSH1 0x1 SWAP4 PUSH1 0x3F NOT DUP7 DUP3 SUB ADD DUP8 MSTORE DUP11 MLOAD PUSH2 0x17F1 JUMP JUMPDEST SWAP9 ADD SWAP4 ADD SWAP4 ADD SWAP2 SWAP5 SWAP4 SWAP3 SWAP1 PUSH2 0x18DC JUMP JUMPDEST PUSH1 0x24 CALLDATALOAD SWAP1 DUP2 ISZERO ISZERO DUP3 SUB PUSH2 0x1741 JUMPI JUMP JUMPDEST PUSH1 0x20 SWAP1 PUSH1 0x20 PUSH1 0x40 DUP2 DUP4 ADD SWAP3 DUP3 DUP2 MSTORE DUP6 MLOAD DUP1 SWAP5 MSTORE ADD SWAP4 ADD SWAP2 PUSH1 0x0 JUMPDEST DUP3 DUP2 LT PUSH2 0x1951 JUMPI POP POP POP POP SWAP1 JUMP JUMPDEST DUP4 MLOAD DUP6 MSTORE SWAP4 DUP2 ADD SWAP4 SWAP3 DUP2 ADD SWAP3 PUSH1 0x1 ADD PUSH2 0x1943 JUMP JUMPDEST SWAP1 PUSH1 0x1 PUSH1 0xFF SHL DUP2 GT DUP1 PUSH2 0x1992 JUMPI JUMPDEST ISZERO PUSH2 0x1986 JUMPI PUSH2 0x1981 SWAP2 PUSH2 0x1F49 JUMP JUMPDEST PUSH1 0x1 SWAP1 JUMP JUMPDEST PUSH2 0x198F SWAP2 PUSH2 0x1BE7 JUMP JUMPDEST SWAP1 JUMP JUMPDEST POP PUSH1 0x0 NOT DUP2 EQ ISZERO PUSH2 0x1973 JUMP JUMPDEST PUSH1 0x1 PUSH1 0x1 PUSH1 0xA0 SHL SUB AND DUP1 ISZERO SWAP1 DUP2 ISZERO PUSH2 0x19B4 JUMPI POP SWAP1 JUMP JUMPDEST SWAP1 POP PUSH1 0x0 MSTORE PUSH1 0xD PUSH1 0x20 MSTORE PUSH1 0xFF PUSH1 0x40 PUSH1 0x0 KECCAK256 SLOAD AND SWAP1 JUMP JUMPDEST SWAP2 SWAP1 PUSH1 0x1 PUSH1 0xFF SHL DUP3 GT DUP1 PUSH2 0x19F0 JUMPI JUMPDEST ISZERO PUSH2 0x19E7 JUMPI PUSH2 0x1981 SWAP3 PUSH2 0x1E45 JUMP JUMPDEST PUSH2 0x198F SWAP3 PUSH2 0x1DAC JUMP JUMPDEST POP PUSH1 0x0 NOT DUP3 EQ ISZERO PUSH2 0x19D9 JUMP JUMPDEST DUP1 MLOAD DUP3 LT ISZERO PUSH2 0x1A10 JUMPI PUSH1 0x20 SWAP2 PUSH1 0x5 SHL ADD ADD SWAP1 JUMP JUMPDEST PUSH4 0x4E487B71 PUSH1 0xE0 SHL PUSH1 0x0 MSTORE PUSH1 0x32 PUSH1 0x4 MSTORE PUSH1 0x24 PUSH1 0x0 REVERT JUMPDEST DUP1 SLOAD DUP3 LT ISZERO PUSH2 0x1A10 JUMPI PUSH1 0x0 MSTORE PUSH1 0x20 PUSH1 0x0 KECCAK256 ADD SWAP1 PUSH1 0x0 SWAP1 JUMP JUMPDEST PUSH1 0x0 CHAINID PUSH32 0x0 SUB PUSH2 0x1A8C JUMPI POP PUSH32 0x0 SWAP1 JUMP JUMPDEST PUSH1 0x40 MLOAD PUSH1 0x3 SLOAD DUP3 SWAP2 PUSH2 0x1A9D DUP3 PUSH2 0x175C JUMP JUMPDEST DUP1 DUP3 MSTORE DUP2 PUSH1 0x20 SWAP5 DUP6 DUP3 ADD SWAP5 PUSH1 0x1 SWAP1 DUP8 PUSH1 0x1 DUP3 AND SWAP2 DUP3 PUSH1 0x0 EQ PUSH2 0x1BC9 JUMPI POP POP PUSH1 0x1 EQ PUSH2 0x1B6F JUMPI JUMPDEST POP PUSH2 0x1AD0 SWAP3 POP SUB DUP3 PUSH2 0x1796 JUMP JUMPDEST MLOAD SWAP1 KECCAK256 SWAP2 PUSH1 0x40 MLOAD SWAP2 DUP3 ADD SWAP3 PUSH32 0x8B73C3C69BB8FE3D512ECC4CF759CC79239F7B179B0FFACAA9A75D522B39400F DUP5 MSTORE PUSH1 0x40 DUP4 ADD MSTORE PUSH32 0xC89EFDAA54C0F20C7ADF612882DF0950F5A951637E0307CDCB4C672F298B8BC6 PUSH1 0x60 DUP4 ADD MSTORE CHAINID PUSH1 0x80 DUP4 ADD MSTORE ADDRESS PUSH1 0xA0 DUP4 ADD MSTORE PUSH1 0xA0 DUP3 MSTORE PUSH1 0xC0 DUP3 ADD SWAP1 DUP3 DUP3 LT PUSH8 0xFFFFFFFFFFFFFFFF DUP4 GT OR PUSH2 0x1B5B JUMPI POP PUSH1 0x40 MSTORE MLOAD SWAP1 KECCAK256 SWAP1 JUMP JUMPDEST PUSH4 0x4E487B71 PUSH1 0xE0 SHL DUP2 MSTORE PUSH1 0x41 PUSH1 0x4 MSTORE PUSH1 0x24 SWAP1 REVERT JUMPDEST PUSH1 0x3 DUP9 MSTORE DUP7 SWAP2 POP DUP8 SWAP1 PUSH32 0xC2575A0E9E593C00F959F8C92F12DB2869C3395A3B0502D05E2516446F71F85B JUMPDEST DUP6 DUP4 LT PUSH2 0x1BB1 JUMPI POP POP PUSH2 0x1AD0 SWAP4 POP DUP3 ADD ADD CODESIZE PUSH2 0x1AC3 JUMP JUMPDEST DUP1 SLOAD DUP4 DUP9 ADD DUP6 ADD MSTORE DUP7 SWAP5 POP DUP9 SWAP4 SWAP1 SWAP3 ADD SWAP2 DUP2 ADD PUSH2 0x1B9A JUMP JUMPDEST PUSH1 0xFF NOT AND DUP9 MSTORE PUSH2 0x1AD0 SWAP6 ISZERO ISZERO PUSH1 0x5 SHL DUP6 ADD ADD SWAP3 POP CODESIZE SWAP2 POP PUSH2 0x1AC3 SWAP1 POP JUMP JUMPDEST PUSH1 0x1 PUSH1 0x1 PUSH1 0xA0 SHL SUB AND SWAP1 DUP2 ISZERO PUSH2 0x1C44 JUMPI CALLER PUSH1 0x0 MSTORE PUSH1 0x8 PUSH1 0x20 MSTORE PUSH1 0x40 PUSH1 0x0 KECCAK256 DUP3 PUSH1 0x0 MSTORE PUSH1 0x20 MSTORE DUP1 PUSH1 0x40 PUSH1 0x0 KECCAK256 SSTORE PUSH1 0x40 MLOAD SWAP1 DUP2 MSTORE PUSH32 0x8C5BE1E5EBEC7D5BD14F71427D1E84F3DD0314C0F7B2291E5B200AC8C7C3B925 PUSH1 0x20 CALLER SWAP3 LOG3 PUSH1 0x1 SWAP1 JUMP JUMPDEST PUSH1 0x40 MLOAD PUSH4 0x5461585F PUSH1 0xE0 SHL DUP2 MSTORE PUSH1 0x4 SWAP1 REVERT JUMPDEST SWAP2 SWAP1 SWAP3 PUSH1 0x1 PUSH1 0xFF SHL DUP3 GT DUP1 PUSH2 0x1D7D JUMPI JUMPDEST ISZERO PUSH2 0x1D6B JUMPI PUSH2 0x1C76 DUP3 DUP6 DUP6 PUSH2 0x19CA JUMP JUMPDEST POP DUP4 EXTCODESIZE ISZERO ISZERO SWAP4 DUP5 PUSH2 0x1C9E JUMPI JUMPDEST POP POP POP POP PUSH2 0x1C8C JUMPI JUMP JUMPDEST PUSH1 0x40 MLOAD PUSH4 0x3DA63931 PUSH1 0xE0 SHL DUP2 MSTORE PUSH1 0x4 SWAP1 REVERT JUMPDEST PUSH2 0x1CE8 SWAP4 SWAP5 POP SWAP1 PUSH1 0x20 SWAP2 PUSH1 0x1 DUP1 PUSH1 0xA0 SHL SUB SWAP4 PUSH1 0x40 MLOAD DUP1 SWAP7 DUP2 SWAP5 DUP3 SWAP4 DUP9 PUSH4 0xA85BD01 PUSH1 0xE1 SHL SWAP12 DUP13 DUP7 MSTORE CALLER PUSH1 0x4 DUP8 ADD MSTORE AND PUSH1 0x24 DUP6 ADD MSTORE PUSH1 0x44 DUP5 ADD MSTORE PUSH1 0x80 PUSH1 0x64 DUP5 ADD MSTORE PUSH1 0x84 DUP4 ADD SWAP1 PUSH2 0x17F1 JUMP JUMPDEST SUB SWAP2 PUSH1 0x0 SWAP6 DUP7 SWAP2 AND GAS CALL SWAP2 DUP3 ISZERO PUSH2 0x1D5E JUMPI DUP2 SWAP3 PUSH2 0x1D17 JUMPI JUMPDEST POP POP PUSH1 0x1 PUSH1 0x1 PUSH1 0xE0 SHL SUB NOT AND EQ ISZERO CODESIZE DUP1 DUP1 DUP1 PUSH2 0x1C82 JUMP JUMPDEST SWAP1 SWAP2 POP PUSH1 0x20 DUP2 RETURNDATASIZE PUSH1 0x20 GT PUSH2 0x1D56 JUMPI JUMPDEST DUP2 PUSH2 0x1D33 PUSH1 0x20 SWAP4 DUP4 PUSH2 0x1796 JUMP JUMPDEST DUP2 ADD SUB SLT PUSH2 0x511 JUMPI MLOAD SWAP1 PUSH1 0x1 PUSH1 0x1 PUSH1 0xE0 SHL SUB NOT DUP3 AND DUP3 SUB PUSH2 0x310 JUMPI POP CODESIZE DUP1 PUSH2 0x1D00 JUMP JUMPDEST RETURNDATASIZE SWAP2 POP PUSH2 0x1D26 JUMP JUMPDEST POP PUSH1 0x40 MLOAD SWAP1 RETURNDATASIZE SWAP1 DUP3 RETURNDATACOPY RETURNDATASIZE SWAP1 REVERT JUMPDEST PUSH1 0x40 MLOAD PUSH4 0x7ED98ED PUSH1 0xE3 SHL DUP2 MSTORE PUSH1 0x4 SWAP1 REVERT JUMPDEST POP PUSH1 0x0 NOT DUP3 EQ ISZERO PUSH2 0x1C66 JUMP JUMPDEST SWAP2 SWAP1 DUP3 SUB SWAP2 DUP3 GT PUSH2 0x1D96 JUMPI JUMP JUMPDEST PUSH4 0x4E487B71 PUSH1 0xE0 SHL PUSH1 0x0 MSTORE PUSH1 0x11 PUSH1 0x4 MSTORE PUSH1 0x24 PUSH1 0x0 REVERT JUMPDEST PUSH1 0x1 PUSH1 0x1 PUSH1 0xA0 SHL SUB DUP1 DUP3 AND SWAP4 SWAP3 SWAP2 SWAP1 DUP5 ISZERO PUSH2 0x1E33 JUMPI DUP3 AND ISZERO PUSH2 0x1E21 JUMPI PUSH2 0x198F SWAP4 DUP4 PUSH1 0x0 DUP3 DUP2 MSTORE PUSH1 0x8 PUSH1 0x20 MSTORE PUSH1 0x40 DUP2 KECCAK256 CALLER DUP3 MSTORE PUSH1 0x20 MSTORE PUSH1 0x40 DUP2 KECCAK256 SLOAD PUSH1 0x0 NOT DUP2 SUB PUSH2 0x1DF9 JUMPI JUMPDEST POP POP POP POP PUSH2 0x2174 JUMP JUMPDEST PUSH1 0x40 SWAP3 PUSH2 0x1E05 SWAP2 PUSH2 0x1D89 JUMP JUMPDEST SWAP3 DUP2 MSTORE PUSH1 0x8 PUSH1 0x20 MSTORE DUP2 DUP2 KECCAK256 CALLER DUP3 MSTORE PUSH1 0x20 MSTORE KECCAK256 SSTORE CODESIZE DUP4 DUP2 DUP1 PUSH2 0x1DF0 JUMP JUMPDEST PUSH1 0x40 MLOAD PUSH4 0x4E469669 PUSH1 0xE1 SHL DUP2 MSTORE PUSH1 0x4 SWAP1 REVERT JUMPDEST PUSH1 0x40 MLOAD PUSH4 0x6EDAEF2F PUSH1 0xE1 SHL DUP2 MSTORE PUSH1 0x4 SWAP1 REVERT JUMPDEST PUSH1 0x1 PUSH1 0x1 PUSH1 0xA0 SHL SUB SWAP4 SWAP3 SWAP2 SWAP1 DUP5 DUP2 AND DUP1 ISZERO PUSH2 0x1E33 JUMPI DUP6 DUP4 AND ISZERO PUSH2 0x1E21 JUMPI PUSH1 0x0 SWAP6 DUP5 DUP8 MSTORE PUSH1 0xB PUSH1 0x20 MSTORE PUSH1 0x40 SWAP7 DUP2 DUP9 DUP3 KECCAK256 SLOAD AND DUP4 SUB PUSH2 0x1F39 JUMPI DUP8 SWAP1 DUP4 CALLER EQ ISZERO SWAP4 DUP5 PUSH2 0x1F15 JUMPI JUMPDEST POP DUP4 PUSH2 0x1EFD JUMPI JUMPDEST POP POP POP PUSH2 0x1EED JUMPI PUSH2 0x1EA0 DUP3 PUSH2 0x199E JUMP JUMPDEST PUSH2 0x1EDC JUMPI PUSH2 0x1EDA SWAP4 SWAP5 POP PUSH2 0x1ED5 PUSH32 0x0 DUP4 DUP4 PUSH2 0x23E8 JUMP JUMPDEST PUSH2 0x2459 JUMP JUMPDEST JUMP JUMPDEST DUP5 MLOAD PUSH4 0x5CE75397 PUSH1 0xE0 SHL DUP2 MSTORE PUSH1 0x4 SWAP1 REVERT JUMPDEST DUP5 MLOAD PUSH3 0x82B429 PUSH1 0xE8 SHL DUP2 MSTORE PUSH1 0x4 SWAP1 REVERT JUMPDEST DUP7 DUP2 MSTORE PUSH1 0x9 PUSH1 0x20 MSTORE KECCAK256 SLOAD AND CALLER EQ ISZERO SWAP1 POP CODESIZE DUP7 DUP2 PUSH2 0x1E90 JUMP JUMPDEST SWAP2 POP DUP1 SWAP4 POP MSTORE PUSH1 0xA PUSH1 0x20 MSTORE DUP7 DUP3 KECCAK256 CALLER DUP4 MSTORE PUSH1 0x20 MSTORE DUP7 PUSH1 0xFF DUP2 DUP5 KECCAK256 SLOAD AND ISZERO SWAP3 CODESIZE PUSH2 0x1E89 JUMP JUMPDEST DUP8 MLOAD PUSH3 0x82B429 PUSH1 0xE8 SHL DUP2 MSTORE PUSH1 0x4 SWAP1 REVERT JUMPDEST PUSH1 0x0 DUP3 DUP2 MSTORE PUSH1 0xB PUSH1 0x20 MSTORE PUSH1 0x40 DUP2 KECCAK256 SLOAD PUSH1 0x1 PUSH1 0x1 PUSH1 0xA0 SHL SUB SWAP1 DUP2 AND SWAP2 CALLER DUP4 EQ ISZERO DUP1 PUSH2 0x1FCA JUMPI JUMPDEST PUSH2 0x1FB9 JUMPI PUSH32 0x8C5BE1E5EBEC7D5BD14F71427D1E84F3DD0314C0F7B2291E5B200AC8C7C3B925 SWAP2 DUP6 DUP3 MSTORE PUSH1 0x9 PUSH1 0x20 MSTORE PUSH1 0x40 DUP3 KECCAK256 SWAP5 AND SWAP4 DUP5 PUSH1 0x1 PUSH1 0x1 PUSH1 0x60 SHL SUB PUSH1 0xA0 SHL DUP3 SLOAD AND OR SWAP1 SSTORE DUP1 LOG4 JUMP JUMPDEST PUSH1 0x40 MLOAD PUSH3 0x82B429 PUSH1 0xE8 SHL DUP2 MSTORE PUSH1 0x4 SWAP1 REVERT JUMPDEST POP DUP3 DUP2 MSTORE PUSH1 0xA PUSH1 0x20 MSTORE PUSH1 0x40 DUP2 KECCAK256 CALLER DUP3 MSTORE PUSH1 0x20 MSTORE PUSH1 0xFF PUSH1 0x40 DUP3 KECCAK256 SLOAD AND ISZERO PUSH2 0x1F6E JUMP JUMPDEST SWAP2 SWAP1 DUP3 ADD DUP1 SWAP3 GT PUSH2 0x1D96 JUMPI JUMP JUMPDEST PUSH1 0x0 SLOAD PUSH1 0x1 PUSH1 0x1 PUSH1 0xA0 SHL SUB AND CALLER SUB PUSH2 0x200C JUMPI JUMP JUMPDEST PUSH1 0x64 PUSH1 0x40 MLOAD PUSH3 0x461BCD PUSH1 0xE5 SHL DUP2 MSTORE PUSH1 0x20 PUSH1 0x4 DUP3 ADD MSTORE PUSH1 0x20 PUSH1 0x24 DUP3 ADD MSTORE PUSH32 0x4F776E61626C653A2063616C6C6572206973206E6F7420746865206F776E6572 PUSH1 0x44 DUP3 ADD MSTORE REVERT JUMPDEST SWAP2 SWAP1 PUSH1 0x1 PUSH1 0x1 PUSH1 0xA0 SHL SUB DUP4 AND DUP1 ISZERO PUSH2 0x2142 JUMPI DUP2 ISZERO PUSH2 0x20BA JUMPI DUP1 PUSH1 0x0 MSTORE PUSH1 0xC PUSH1 0x20 MSTORE PUSH1 0x40 PUSH1 0x0 KECCAK256 SLOAD PUSH1 0x0 JUMPDEST DUP2 DUP2 LT PUSH2 0x20A8 JUMPI POP POP PUSH2 0x1EDA SWAP3 SWAP4 POP JUMPDEST PUSH1 0x0 MSTORE PUSH1 0xD PUSH1 0x20 MSTORE PUSH1 0x40 PUSH1 0x0 KECCAK256 SWAP1 PUSH1 0xFF DUP1 NOT DUP4 SLOAD AND SWAP2 ISZERO ISZERO AND OR SWAP1 SSTORE JUMP JUMPDEST PUSH1 0x1 SWAP1 PUSH2 0x20B4 DUP8 PUSH2 0x2644 JUMP JUMPDEST ADD PUSH2 0x207A JUMP JUMPDEST SWAP2 SWAP1 DUP3 PUSH1 0x0 MSTORE PUSH1 0x7 PUSH1 0x20 MSTORE PUSH2 0x20F5 PUSH1 0x40 PUSH1 0x0 KECCAK256 SLOAD PUSH32 0x0 SWAP1 PUSH2 0x2154 JUMP JUMPDEST SWAP3 DUP1 PUSH1 0x0 MSTORE PUSH1 0xC PUSH1 0x20 MSTORE PUSH1 0x40 PUSH1 0x0 KECCAK256 SLOAD PUSH1 0x0 JUMPDEST PUSH2 0x2112 DUP3 DUP8 PUSH2 0x1D89 JUMP JUMPDEST DUP2 LT ISZERO PUSH2 0x2132 JUMPI SWAP1 PUSH1 0x1 PUSH2 0x2112 SWAP3 PUSH2 0x2129 DUP10 PUSH2 0x27CF JUMP JUMPDEST ADD SWAP1 SWAP2 POP PUSH2 0x2108 JUMP JUMPDEST POP POP SWAP1 SWAP2 SWAP4 POP PUSH2 0x1EDA SWAP3 POP PUSH2 0x208A JUMP JUMPDEST PUSH1 0x40 MLOAD PUSH4 0xA41E3D3F PUSH1 0xE0 SHL DUP2 MSTORE PUSH1 0x4 SWAP1 REVERT JUMPDEST DUP2 ISZERO PUSH2 0x215E JUMPI DIV SWAP1 JUMP JUMPDEST PUSH4 0x4E487B71 PUSH1 0xE0 SHL PUSH1 0x0 MSTORE PUSH1 0x12 PUSH1 0x4 MSTORE PUSH1 0x24 PUSH1 0x0 REVERT JUMPDEST SWAP2 SWAP1 PUSH1 0x1 DUP1 PUSH1 0xA0 SHL SUB SWAP2 DUP3 DUP5 AND PUSH1 0x0 SWAP5 DUP2 DUP7 MSTORE PUSH1 0x20 SWAP1 PUSH1 0x7 DUP3 MSTORE PUSH1 0x40 SWAP3 DUP4 DUP9 KECCAK256 SLOAD SWAP7 DUP7 AND SWAP7 DUP8 DUP10 MSTORE DUP5 DUP10 KECCAK256 SLOAD SWAP6 PUSH2 0x21AC DUP2 DUP10 DUP7 PUSH2 0x23E8 JUMP JUMPDEST PUSH2 0x21B5 DUP5 PUSH2 0x199E JUMP JUMPDEST PUSH2 0x21BE DUP10 PUSH2 0x199E JUMP JUMPDEST SWAP1 DUP1 DUP1 PUSH2 0x23E1 JUMPI JUMPDEST ISZERO PUSH2 0x21DD JUMPI JUMPDEST POP POP POP POP POP POP POP POP POP POP POP POP PUSH1 0x1 SWAP1 JUMP JUMPDEST ISZERO PUSH2 0x2254 JUMPI POP POP POP POP POP SWAP1 PUSH1 0x7 PUSH2 0x1489 SWAP3 PUSH2 0x2224 SWAP6 SWAP7 DUP9 MSTORE MSTORE DUP6 KECCAK256 SLOAD PUSH2 0x1483 PUSH32 0x0 DUP1 SWAP3 PUSH2 0x2154 JUMP JUMPDEST SWAP2 JUMPDEST DUP3 DUP2 LT PUSH2 0x2242 JUMPI POP POP POP JUMPDEST CODESIZE DUP1 DUP1 DUP1 DUP1 DUP1 DUP1 DUP1 DUP1 DUP1 DUP1 DUP1 PUSH2 0x21CC JUMP JUMPDEST PUSH1 0x1 SWAP1 PUSH2 0x224E DUP4 PUSH2 0x27CF JUMP JUMPDEST ADD PUSH2 0x2226 JUMP JUMPDEST SWAP9 SWAP1 SWAP2 SWAP7 SWAP3 SWAP8 SWAP4 SWAP9 PUSH1 0x0 EQ PUSH2 0x22CD JUMPI POP POP POP POP SWAP2 PUSH2 0x1489 SWAP2 PUSH1 0x7 PUSH2 0x22AA SWAP6 SWAP5 PUSH2 0x229E PUSH32 0x0 DUP1 SWAP6 PUSH2 0x2154 JUMP JUMPDEST SWAP6 DUP10 MSTORE MSTORE DUP7 KECCAK256 SLOAD PUSH2 0x2154 JUMP JUMPDEST SWAP2 JUMPDEST DUP3 DUP2 LT PUSH2 0x22BB JUMPI POP POP POP PUSH2 0x2231 JUMP JUMPDEST PUSH1 0x1 SWAP1 PUSH2 0x22C7 DUP4 PUSH2 0x2644 JUMP JUMPDEST ADD PUSH2 0x22AC JUMP JUMPDEST SWAP2 SWAP7 SWAP8 SWAP1 SWAP6 PUSH2 0x2301 SWAP10 SWAP5 SWAP4 SWAP10 PUSH32 0x0 DUP1 SWAP9 PUSH2 0x2154 JUMP JUMPDEST SWAP9 DUP10 SWAP2 DUP7 JUMPDEST DUP4 DUP2 LT PUSH2 0x237F JUMPI POP SWAP5 DUP9 SWAP7 SWAP3 SWAP5 PUSH2 0x1489 SWAP9 SWAP5 DUP9 SWAP7 PUSH2 0x2344 PUSH1 0x7 SWAP6 PUSH2 0x2331 PUSH2 0x2355 SWAP16 SWAP15 PUSH2 0x1483 SWAP13 PUSH2 0x2154 JUMP JUMPDEST SWAP1 DUP9 MSTORE DUP7 DUP7 MSTORE PUSH2 0x1489 DUP11 DUP11 DUP11 KECCAK256 SLOAD PUSH2 0x2154 JUMP JUMPDEST GT PUSH2 0x2370 JUMPI JUMPDEST POP DUP4 MSTORE MSTORE KECCAK256 SLOAD PUSH2 0x2154 JUMP JUMPDEST GT PUSH2 0x2361 JUMPI JUMPDEST POP PUSH2 0x2231 JUMP JUMPDEST PUSH2 0x236A SWAP1 PUSH2 0x27CF JUMP JUMPDEST CODESIZE PUSH2 0x235B JUMP JUMPDEST PUSH2 0x2379 SWAP1 PUSH2 0x2644 JUMP JUMPDEST CODESIZE PUSH2 0x234A JUMP JUMPDEST SWAP1 SWAP2 DUP1 SWAP4 POP DUP8 MSTORE PUSH1 0xC DUP1 DUP8 MSTORE DUP9 DUP9 KECCAK256 SLOAD SWAP1 PUSH1 0x0 NOT DUP3 ADD SWAP2 DUP3 GT PUSH2 0x23CD JUMPI DUP14 PUSH2 0x23B5 PUSH1 0x1 SWAP5 SWAP4 PUSH2 0x23C3 SWAP4 DUP9 DUP14 MSTORE DUP12 MSTORE DUP13 DUP13 KECCAK256 PUSH2 0x1A26 JUMP JUMPDEST SWAP1 SLOAD SWAP1 PUSH1 0x3 SHL SHR SWAP1 DUP8 PUSH2 0x2459 JUMP JUMPDEST ADD SWAP1 DUP11 SWAP3 SWAP2 PUSH2 0x2306 JUMP JUMPDEST PUSH4 0x4E487B71 PUSH1 0xE0 SHL DUP10 MSTORE PUSH1 0x11 PUSH1 0x4 MSTORE PUSH1 0x24 DUP10 REVERT JUMPDEST POP DUP2 PUSH2 0x21C6 JUMP JUMPDEST PUSH1 0x1 PUSH1 0x1 PUSH1 0xA0 SHL SUB SWAP1 DUP2 AND SWAP2 PUSH1 0x0 DUP1 MLOAD PUSH1 0x20 PUSH2 0x2969 DUP4 CODECOPY DUP2 MLOAD SWAP2 MSTORE SWAP2 PUSH1 0x20 SWAP2 DUP5 PUSH2 0x243A JUMPI PUSH2 0x2418 DUP7 PUSH1 0x5 SLOAD PUSH2 0x1FEB JUMP JUMPDEST PUSH1 0x5 SSTORE JUMPDEST AND SWAP4 DUP5 PUSH1 0x0 MSTORE PUSH1 0x7 DUP3 MSTORE PUSH1 0x40 PUSH1 0x0 KECCAK256 DUP2 DUP2 SLOAD ADD SWAP1 SSTORE PUSH1 0x40 MLOAD SWAP1 DUP2 MSTORE LOG3 JUMP JUMPDEST DUP5 PUSH1 0x0 MSTORE PUSH1 0x7 DUP4 MSTORE PUSH1 0x40 PUSH1 0x0 KECCAK256 PUSH2 0x2452 DUP8 DUP3 SLOAD PUSH2 0x1D89 JUMP JUMPDEST SWAP1 SSTORE PUSH2 0x241C JUMP JUMPDEST PUSH1 0x1 PUSH1 0x1 PUSH1 0xA0 SHL SUB SWAP1 DUP2 AND SWAP2 DUP3 PUSH2 0x2552 JUMPI JUMPDEST AND SWAP1 DUP2 ISZERO PUSH2 0x253D JUMPI PUSH1 0x0 DUP4 DUP2 MSTORE PUSH1 0xB PUSH1 0x20 MSTORE PUSH1 0x40 DUP2 KECCAK256 DUP4 PUSH1 0x1 PUSH1 0x1 PUSH1 0x60 SHL SUB PUSH1 0xA0 SHL DUP3 SLOAD AND ADD SWAP1 SSTORE DUP3 DUP2 MSTORE PUSH1 0xC PUSH1 0x20 MSTORE PUSH1 0x40 DUP2 KECCAK256 DUP1 SLOAD SWAP1 PUSH1 0x1 PUSH1 0x40 SHL DUP3 LT ISZERO PUSH2 0x2529 JUMPI PUSH2 0x24C2 DUP3 DUP8 SWAP3 PUSH1 0x1 PUSH2 0x24DB SWAP6 ADD DUP2 SSTORE PUSH2 0x1A26 JUMP JUMPDEST SWAP1 SWAP2 SWAP1 DUP3 SLOAD SWAP1 PUSH1 0x3 SHL SWAP2 DUP3 SHL SWAP2 PUSH1 0x0 NOT SWAP1 SHL NOT AND OR SWAP1 SSTORE JUMP JUMPDEST DUP3 DUP2 MSTORE PUSH1 0xC PUSH1 0x20 MSTORE PUSH1 0x40 DUP2 KECCAK256 SLOAD PUSH1 0x0 NOT DUP2 ADD SWAP2 SWAP1 DUP3 GT PUSH2 0x2515 JUMPI POP PUSH2 0x2500 SWAP1 DUP5 PUSH2 0x290D JUMP JUMPDEST PUSH1 0x0 DUP1 MLOAD PUSH1 0x20 PUSH2 0x2969 DUP4 CODECOPY DUP2 MLOAD SWAP2 MSTORE PUSH1 0x0 DUP1 LOG4 JUMP JUMPDEST PUSH4 0x4E487B71 PUSH1 0xE0 SHL DUP2 MSTORE PUSH1 0x11 PUSH1 0x4 MSTORE PUSH1 0x24 SWAP1 REVERT JUMPDEST PUSH4 0x4E487B71 PUSH1 0xE0 SHL DUP4 MSTORE PUSH1 0x41 PUSH1 0x4 MSTORE PUSH1 0x24 DUP4 REVERT JUMPDEST DUP3 PUSH1 0x0 MSTORE PUSH1 0xB PUSH1 0x20 MSTORE PUSH1 0x0 PUSH1 0x40 DUP2 KECCAK256 SSTORE PUSH2 0x2500 JUMP JUMPDEST PUSH1 0x0 DUP5 DUP2 MSTORE PUSH1 0x9 PUSH1 0x20 MSTORE PUSH1 0x40 DUP2 KECCAK256 PUSH1 0x1 PUSH1 0x1 PUSH1 0x60 SHL SUB PUSH1 0xA0 SHL DUP2 SLOAD AND SWAP1 SSTORE DUP4 DUP2 MSTORE PUSH1 0xC PUSH1 0x20 MSTORE PUSH1 0x40 DUP2 KECCAK256 DUP1 SLOAD PUSH1 0x0 NOT SWAP2 DUP3 DUP3 ADD SWAP2 DUP3 GT PUSH2 0x2630 JUMPI SWAP1 PUSH2 0x2596 SWAP2 PUSH2 0x1A26 JUMP JUMPDEST SWAP1 SLOAD SWAP1 PUSH1 0x3 SHL SHR DUP7 DUP2 SUB PUSH2 0x25F7 JUMPI JUMPDEST POP DUP5 DUP3 MSTORE PUSH1 0xC PUSH1 0x20 MSTORE PUSH1 0x40 DUP3 KECCAK256 SWAP2 DUP3 SLOAD SWAP1 DUP2 ISZERO PUSH2 0x25E3 JUMPI POP ADD SWAP1 PUSH2 0x25DD PUSH2 0x25CC DUP4 DUP4 PUSH2 0x1A26 JUMP JUMPDEST DUP2 SLOAD SWAP1 PUSH1 0x0 NOT SWAP1 PUSH1 0x3 SHL SHL NOT AND SWAP1 SSTORE JUMP JUMPDEST SSTORE PUSH2 0x246B JUMP JUMPDEST PUSH4 0x4E487B71 PUSH1 0xE0 SHL DUP2 MSTORE PUSH1 0x31 PUSH1 0x4 MSTORE PUSH1 0x24 SWAP1 REVERT JUMPDEST PUSH2 0x262A SWAP1 DUP8 DUP5 MSTORE PUSH1 0xB PUSH1 0x20 MSTORE PUSH1 0x40 DUP5 KECCAK256 SLOAD PUSH1 0xA0 SHR SWAP1 DUP8 DUP6 MSTORE PUSH1 0xC PUSH1 0x20 MSTORE PUSH2 0x2625 DUP2 PUSH2 0x24C2 DUP5 PUSH1 0x40 DUP10 KECCAK256 PUSH2 0x1A26 JUMP JUMPDEST PUSH2 0x290D JUMP JUMPDEST CODESIZE PUSH2 0x25A5 JUMP JUMPDEST PUSH4 0x4E487B71 PUSH1 0xE0 SHL DUP5 MSTORE PUSH1 0x11 PUSH1 0x4 MSTORE PUSH1 0x24 DUP5 REVERT JUMPDEST PUSH1 0x1 PUSH1 0x1 PUSH1 0xA0 SHL SUB AND DUP1 ISZERO PUSH2 0x1E33 JUMPI PUSH1 0x0 DUP2 DUP2 MSTORE PUSH1 0x20 SWAP1 PUSH1 0xC DUP3 MSTORE PUSH1 0x40 SWAP1 DUP2 DUP2 KECCAK256 SWAP4 DUP5 SLOAD PUSH1 0x0 NOT SWAP6 DUP7 DUP3 ADD SWAP2 DUP3 GT PUSH2 0x2630 JUMPI SWAP1 PUSH2 0x2680 SWAP2 PUSH2 0x1A26 JUMP JUMPDEST SWAP1 SLOAD SWAP1 PUSH1 0x3 SHL SHR SWAP4 DUP5 DUP4 MSTORE PUSH1 0x9 DUP2 MSTORE DUP4 DUP4 KECCAK256 PUSH1 0x1 PUSH1 0x1 PUSH1 0x60 SHL SUB PUSH1 0xA0 SHL DUP2 SLOAD AND SWAP1 SSTORE DUP2 DUP4 MSTORE PUSH1 0xC DUP2 MSTORE DUP4 DUP4 KECCAK256 DUP1 SLOAD SWAP1 DUP8 DUP3 ADD SWAP2 DUP3 GT PUSH2 0x27BB JUMPI SWAP1 PUSH2 0x26C3 SWAP2 PUSH2 0x1A26 JUMP JUMPDEST SWAP1 SLOAD SWAP1 PUSH1 0x3 SHL SHR DUP6 DUP2 SUB PUSH2 0x278B JUMPI JUMPDEST POP DUP2 DUP4 MSTORE PUSH1 0xC DUP2 MSTORE DUP4 DUP4 KECCAK256 DUP1 SLOAD DUP1 ISZERO PUSH2 0x2777 JUMPI SWAP2 PUSH1 0xB SWAP2 DUP9 DUP9 SWAP7 SWAP6 SWAP5 ADD SWAP1 PUSH2 0x26FD PUSH2 0x25CC DUP4 DUP4 PUSH2 0x1A26 JUMP JUMPDEST SSTORE DUP5 DUP5 MSTORE MSTORE DUP2 DUP5 DUP2 KECCAK256 SSTORE PUSH1 0x0 DUP1 MLOAD PUSH1 0x20 PUSH2 0x2969 DUP4 CODECOPY DUP2 MLOAD SWAP2 MSTORE DUP3 DUP1 LOG4 PUSH1 0x1 SLOAD SWAP3 PUSH1 0x1 PUSH1 0x1 PUSH1 0x80 SHL SUB SWAP1 DUP2 DUP6 AND ADD AND SWAP3 PUSH1 0x80 SHR DUP4 EQ PUSH2 0x2767 JUMPI POP PUSH2 0x2753 DUP3 PUSH1 0x1 PUSH1 0x1 PUSH1 0x80 SHL SUB AND PUSH1 0x0 MSTORE PUSH1 0x2 PUSH1 0x20 MSTORE PUSH1 0x40 PUSH1 0x0 KECCAK256 SWAP1 JUMP JUMPDEST SSTORE PUSH1 0x1 PUSH1 0x1 PUSH1 0x80 SHL SUB NOT PUSH1 0x1 SLOAD AND OR PUSH1 0x1 SSTORE JUMP JUMPDEST MLOAD PUSH4 0x8ACB5F27 PUSH1 0xE0 SHL DUP2 MSTORE PUSH1 0x4 SWAP1 REVERT JUMPDEST PUSH4 0x4E487B71 PUSH1 0xE0 SHL DUP6 MSTORE PUSH1 0x31 PUSH1 0x4 MSTORE PUSH1 0x24 DUP6 REVERT JUMPDEST PUSH2 0x27B5 SWAP1 DUP7 DUP6 MSTORE PUSH1 0xB DUP4 MSTORE DUP6 DUP6 KECCAK256 SLOAD PUSH1 0xA0 SHR SWAP1 DUP5 DUP7 MSTORE PUSH1 0xC DUP5 MSTORE PUSH2 0x2625 DUP2 PUSH2 0x24C2 DUP5 DUP11 DUP11 KECCAK256 PUSH2 0x1A26 JUMP JUMPDEST CODESIZE PUSH2 0x26D2 JUMP JUMPDEST PUSH4 0x4E487B71 PUSH1 0xE0 SHL DUP6 MSTORE PUSH1 0x11 PUSH1 0x4 MSTORE PUSH1 0x24 DUP6 REVERT JUMPDEST PUSH1 0x1 PUSH1 0x1 PUSH1 0xA0 SHL SUB DUP2 DUP2 AND ISZERO PUSH2 0x1E21 JUMPI PUSH1 0x1 SLOAD PUSH1 0x1 PUSH1 0x1 PUSH1 0x80 SHL SUB SWAP1 PUSH1 0x0 SWAP1 PUSH1 0x80 DUP2 SWAP1 SHR SWAP1 DUP4 AND EQ PUSH2 0x28AF JUMPI POP PUSH1 0x1 SLOAD DUP2 DUP2 PUSH1 0x80 SHR SWAP2 AND DUP2 EQ PUSH2 0x289D JUMPI PUSH1 0x0 NOT ADD DUP2 DUP2 AND SWAP2 PUSH1 0x0 PUSH2 0x2851 PUSH2 0x2836 DUP6 PUSH1 0x1 PUSH1 0x1 PUSH1 0x80 SHL SUB AND PUSH1 0x0 MSTORE PUSH1 0x2 PUSH1 0x20 MSTORE PUSH1 0x40 PUSH1 0x0 KECCAK256 SWAP1 JUMP JUMPDEST SLOAD SWAP5 PUSH1 0x1 PUSH1 0x1 PUSH1 0x80 SHL SUB AND PUSH1 0x0 MSTORE PUSH1 0x2 PUSH1 0x20 MSTORE PUSH1 0x40 PUSH1 0x0 KECCAK256 SWAP1 JUMP JUMPDEST SSTORE PUSH1 0x1 SLOAD SWAP2 PUSH1 0x1 PUSH1 0x1 PUSH1 0x80 SHL SUB NOT SWAP1 PUSH1 0x80 SHL AND SWAP2 AND OR PUSH1 0x1 SSTORE SWAP1 JUMPDEST DUP2 PUSH1 0x0 MSTORE PUSH1 0xB PUSH1 0x20 MSTORE PUSH1 0x40 PUSH1 0x0 KECCAK256 SLOAD AND SWAP2 DUP3 PUSH2 0x288B JUMPI PUSH2 0x1EDA SWAP3 PUSH2 0x2459 JUMP JUMPDEST PUSH1 0x40 MLOAD PUSH4 0x119B4FD3 PUSH1 0xE1 SHL DUP2 MSTORE PUSH1 0x4 SWAP1 REVERT JUMPDEST PUSH1 0x40 MLOAD PUSH4 0x75E52F4F PUSH1 0xE0 SHL DUP2 MSTORE PUSH1 0x4 SWAP1 REVERT JUMPDEST SWAP1 POP PUSH1 0x6 SLOAD PUSH1 0x0 NOT DUP1 DUP3 EQ PUSH2 0x28F9 JUMPI PUSH1 0x1 DUP3 ADD DUP1 PUSH1 0x6 SSTORE EQ PUSH2 0x28E7 JUMPI PUSH1 0x1 PUSH1 0x1 PUSH1 0xFF SHL ADD ADD SWAP1 PUSH1 0x1 PUSH1 0xFF SHL DUP3 LT PUSH2 0x2515 JUMPI POP SWAP1 PUSH2 0x286C JUMP JUMPDEST PUSH1 0x40 MLOAD PUSH4 0x303B682F PUSH1 0xE0 SHL DUP2 MSTORE PUSH1 0x4 SWAP1 REVERT JUMPDEST PUSH4 0x4E487B71 PUSH1 0xE0 SHL DUP4 MSTORE PUSH1 0x11 PUSH1 0x4 MSTORE PUSH1 0x24 DUP4 REVERT JUMPDEST SWAP1 DUP2 PUSH1 0x0 MSTORE PUSH1 0xB PUSH1 0x20 MSTORE PUSH1 0x40 PUSH1 0x0 KECCAK256 SLOAD SWAP2 PUSH1 0x1 PUSH1 0x1 PUSH1 0x60 SHL SUB DUP3 GT PUSH2 0x2956 JUMPI PUSH1 0x0 MSTORE PUSH1 0xB PUSH1 0x20 MSTORE PUSH1 0x1 PUSH1 0x1 PUSH1 0x60 SHL SUB PUSH1 0xA0 SHL SWAP1 PUSH1 0xA0 SHL AND SWAP1 PUSH1 0x1 DUP1 PUSH1 0xA0 SHL SUB AND ADD PUSH1 0x40 PUSH1 0x0 KECCAK256 SSTORE JUMP JUMPDEST PUSH1 0x40 MLOAD PUSH4 0x3F2CD0E3 PUSH1 0xE2 SHL DUP2 MSTORE PUSH1 0x4 SWAP1 REVERT INVALID 0xDD CALLCODE MSTORE 0xAD SHL 0xE2 0xC8 SWAP12 PUSH10 0xC2B068FC378DAA952BA7 CALL PUSH4 0xC4A11628 CREATE2 GAS 0x4D CREATE2 0x23 0xB3 0xEF LOG2 PUSH5 0x6970667358 0x22 SLT KECCAK256 0xE4 SWAP6 STOP 0xB1 GAS 0xD0 CALL 0xC0 0x2E 0xE4 0xC7 CHAINID 0xB0 MSTORE8 0xCB KECCAK256 0xF7 0xAB SGT 0x4B 0xA9 0xCD 0xD2 0xE0 PUSH14 0x5E74A3FA1C768564736F6C634300 ADDMOD OR STOP CALLER 0xC2 JUMPI GAS 0xE SWAP15 MSIZE EXTCODECOPY STOP 0xF9 MSIZE 0xF8 0xC9 0x2F SLT 0xDB 0x28 PUSH10 0xC3395A3B0502D05E2516 PREVRANDAO PUSH16 0x71F85BDDF252AD1BE2C89B69C2B068FC CALLDATACOPY DUP14 0xAA SWAP6 0x2B 0xA7 CALL PUSH4 0xC4A11628 CREATE2 GAS 0x4D CREATE2 0x23 0xB3 0xEF DUP14 GT ADDMOD 0xE1 SIGNEXTEND 0xCB PUSH29 0x27DDDFC02ED9D693A074039D026CF4EA4240B40F7D581AC80200000000 "},"methodIdentifiers":{"DOMAIN_SEPARATOR()":"3644e515","ID_ENCODING_PREFIX()":"6e8f624b","addCIDs(address,string[])":"25c03c8a","allowance(address,address)":"dd62ed3e","approve(address,uint256)":"095ea7b3","balanceOf(address)":"70a08231","decimals()":"313ce567","erc20Approve(address,uint256)":"4d966072","erc20BalanceOf(address)":"02519da3","erc20TotalSupply()":"89fb4c66","erc20TransferFrom(address,address,uint256)":"d96ca0b9","erc721Approve(address,uint256)":"dfabc033","erc721BalanceOf(address)":"b3f9ea34","erc721TotalSupply()":"c5ab3ba6","erc721TransferExempt(address)":"09f0ef65","erc721TransferFrom(address,address,uint256)":"dd637699","getApproved(uint256)":"081812fc","getCIDs(address)":"6367da9c","getContribution(address)":"21eff7fc","getERC721QueueLength()":"09674eb0","getERC721TokensInQueue(uint256,uint256)":"f780bc1a","isApprovedForAll(address,address)":"e985e9c5","minted()":"4f02c420","name()":"06fdde03","nonces(address)":"7ecebe00","owned(address)":"b1ab9317","owner()":"8da5cb5b","ownerOf(uint256)":"6352211e","permit(address,address,uint256,uint256,uint8,bytes32,bytes32)":"d505accf","renounceOwnership()":"715018a6","safeTransferFrom(address,address,uint256)":"42842e0e","safeTransferFrom(address,address,uint256,bytes)":"b88d4fde","setApprovalForAll(address,bool)":"a22cb465","setERC721TransferExempt(address,bool)":"c6e672b9","setSelfERC721TransferExempt(bool)":"8a696e50","supportsInterface(bytes4)":"01ffc9a7","symbol()":"95d89b41","tokenURI(uint256)":"c87b56dd","totalSupply()":"18160ddd","transfer(address,uint256)":"a9059cbb","transferFrom(address,address,uint256)":"23b872dd","transferOwnership(address)":"f2fde38b","units()":"976a8435","uri()":"eac989f8"}}}}}