{"contracts/Pantheon.sol":{"Pantheon":{"abi":[{"inputs":[{"internalType":"string","name":"uri_","type":"string"}],"stateMutability":"nonpayable","type":"constructor"},{"anonymous":false,"inputs":[{"indexed":true,"internalType":"uint256","name":"id","type":"uint256"},{"indexed":true,"internalType":"address","name":"contractAddress","type":"address"}],"name":"ERC404Created","type":"event"},{"anonymous":false,"inputs":[{"indexed":true,"internalType":"address","name":"previousOwner","type":"address"},{"indexed":true,"internalType":"address","name":"newOwner","type":"address"}],"name":"OwnershipTransferred","type":"event"},{"anonymous":false,"inputs":[{"indexed":false,"internalType":"string","name":"newURI","type":"string"}],"name":"URIUpdated","type":"event"},{"anonymous":false,"inputs":[{"indexed":true,"internalType":"address","name":"account","type":"address"},{"indexed":false,"internalType":"bool","name":"isWhitelisted","type":"bool"}],"name":"WhitelistChanged","type":"event"},{"inputs":[{"internalType":"string","name":"newURI","type":"string"}],"name":"_setURI","outputs":[],"stateMutability":"nonpayable","type":"function"},{"inputs":[{"internalType":"address","name":"account_","type":"address"}],"name":"addToWhitelist","outputs":[],"stateMutability":"nonpayable","type":"function"},{"inputs":[{"internalType":"string","name":"name_","type":"string"},{"internalType":"string","name":"symbol_","type":"string"},{"internalType":"uint8","name":"decimals_","type":"uint8"},{"internalType":"uint256","name":"maxTotalSupplyERC721_","type":"uint256"},{"internalType":"address","name":"initialMintRecipient_","type":"address"}],"name":"createERC404","outputs":[],"stateMutability":"nonpayable","type":"function"},{"inputs":[{"internalType":"uint256","name":"","type":"uint256"}],"name":"erc404Instances","outputs":[{"internalType":"address","name":"","type":"address"}],"stateMutability":"view","type":"function"},{"inputs":[],"name":"id","outputs":[{"internalType":"uint256","name":"","type":"uint256"}],"stateMutability":"view","type":"function"},{"inputs":[{"internalType":"address","name":"account_","type":"address"}],"name":"isWhitelisted","outputs":[{"internalType":"bool","name":"","type":"bool"}],"stateMutability":"view","type":"function"},{"inputs":[],"name":"owner","outputs":[{"internalType":"address","name":"","type":"address"}],"stateMutability":"view","type":"function"},{"inputs":[{"internalType":"address","name":"account_","type":"address"}],"name":"removeFromWhitelist","outputs":[],"stateMutability":"nonpayable","type":"function"},{"inputs":[],"name":"renounceOwnership","outputs":[],"stateMutability":"nonpayable","type":"function"},{"inputs":[{"internalType":"uint256","name":"id_","type":"uint256"}],"name":"tokenURI","outputs":[{"internalType":"string","name":"","type":"string"}],"stateMutability":"view","type":"function"},{"inputs":[{"internalType":"address","name":"newOwner","type":"address"}],"name":"transferOwnership","outputs":[],"stateMutability":"nonpayable","type":"function"},{"inputs":[],"name":"uri","outputs":[{"internalType":"string","name":"","type":"string"}],"stateMutability":"view","type":"function"}],"evm":{"bytecode":{"linkReferences":{},"object":"60806040523480156200001157600080fd5b50604051620047b2380380620047b28339810160408190526200003491620000bb565b6200003f3362000055565b60026200004d82826200021f565b5050620002eb565b600080546001600160a01b038381166001600160a01b0319831681178455604051919092169283917f8be0079c531659141344cd1fd0a4f28419497f9722a3daafe3b4186f6b6457e09190a35050565b634e487b7160e01b600052604160045260246000fd5b60006020808385031215620000cf57600080fd5b82516001600160401b0380821115620000e757600080fd5b818501915085601f830112620000fc57600080fd5b815181811115620001115762000111620000a5565b604051601f8201601f19908116603f011681019083821181831017156200013c576200013c620000a5565b8160405282815288868487010111156200015557600080fd5b600093505b828410156200017957848401860151818501870152928501926200015a565b600086848301015280965050505050505092915050565b600181811c90821680620001a557607f821691505b602082108103620001c657634e487b7160e01b600052602260045260246000fd5b50919050565b601f8211156200021a57600081815260208120601f850160051c81016020861015620001f55750805b601f850160051c820191505b81811015620002165782815560010162000201565b5050505b505050565b81516001600160401b038111156200023b576200023b620000a5565b62000253816200024c845462000190565b84620001cc565b602080601f8311600181146200028b5760008415620002725750858301515b600019600386901b1c1916600185901b17855562000216565b600085815260208120601f198616915b82811015620002bc578886015182559484019460019091019084016200029b565b5085821015620002db5787850151600019600388901b60f8161c191681555b5050505050600190811b01905550565b6144b780620002fb6000396000f3fe60806040523480156200001157600080fd5b5060043610620000c35760003560e01c8063c87b56dd116200007a578063c87b56dd1462000185578063e43252d714620001ab578063eac989f814620001c2578063f2fde38b14620001cc578063f392d4f514620001e3578063f47efcff14620001fa57600080fd5b8063013afc5114620000c85780633af32abf14620000e1578063715018a614620001255780638ab1d681146200012f5780638da5cb5b1462000146578063af640d0f146200016c575b600080fd5b620000df620000d93660046200093b565b62000226565b005b62000110620000f2366004620009dc565b6001600160a01b031660009081526003602052604090205460ff1690565b60405190151581526020015b60405180910390f35b620000df620002f1565b620000df62000140366004620009dc565b62000309565b6000546001600160a01b03165b6040516001600160a01b0390911681526020016200011c565b6200017660015481565b6040519081526020016200011c565b6200019c6200019636600462000a01565b620003d7565b6040516200011c919062000a6f565b620000df620001bc366004620009dc565b6200040f565b6200019c620004d5565b620000df620001dd366004620009dc565b6200056b565b620000df620001f436600462000a84565b620005ea565b620001536200020b36600462000a01565b6004602052600090815260409020546001600160a01b031681565b620002306200063f565b600085858585856002604051620002479062000865565b620002589695949392919062000b01565b604051809103906000f08015801562000275573d6000803e3d6000fd5b506001805460009081526004602052604080822080546001600160a01b0319166001600160a01b0386169081179091559254905193945091927fabcd57e8b9dc17f2141b4c7680a14b6177905d608b88697f317f45b738eb6b0a9190a360018054906000620002e48362000be1565b9190505550505050505050565b620002fb6200063f565b6200030760006200069b565b565b620003136200063f565b6001600160a01b038116620003815760405162461bcd60e51b815260206004820152602960248201527f43616e6e6f742072656d6f7665207a65726f20616464726573732066726f6d206044820152681dda1a5d195b1a5cdd60ba1b60648201526084015b60405180910390fd5b6001600160a01b0381166000818152600360209081526040808320805460ff19169055519182527fb840a1dbd8b09a3dc45161bba92dfb9aba643c0e44c085a447f839d1d02cf13b91015b60405180910390a250565b60606002620003e683620006eb565b604051602001620003f992919062000c09565b6040516020818303038152906040529050919050565b620004196200063f565b6001600160a01b0381166200047d5760405162461bcd60e51b8152602060048201526024808201527f43616e6e6f7420616464207a65726f206164647265737320746f2077686974656044820152631b1a5cdd60e21b606482015260840162000378565b6001600160a01b038116600081815260036020908152604091829020805460ff1916600190811790915591519182527fb840a1dbd8b09a3dc45161bba92dfb9aba643c0e44c085a447f839d1d02cf13b9101620003cc565b60028054620004e49062000ac5565b80601f0160208091040260200160405190810160405280929190818152602001828054620005129062000ac5565b8015620005635780601f10620005375761010080835404028352916020019162000563565b820191906000526020600020905b8154815290600101906020018083116200054557829003601f168201915b505050505081565b620005756200063f565b6001600160a01b038116620005dc5760405162461bcd60e51b815260206004820152602660248201527f4f776e61626c653a206e6577206f776e657220697320746865207a65726f206160448201526564647265737360d01b606482015260840162000378565b620005e7816200069b565b50565b620005f46200063f565b600262000602828262000ced565b507fe3afa94108b5f5e82e5f6e539d161ff4b5402a85f696c67b9768ec3ae54ce3668160405162000634919062000a6f565b60405180910390a150565b6000546001600160a01b03163314620003075760405162461bcd60e51b815260206004820181905260248201527f4f776e61626c653a2063616c6c6572206973206e6f7420746865206f776e6572604482015260640162000378565b600080546001600160a01b038381166001600160a01b0319831681178455604051919092169283917f8be0079c531659141344cd1fd0a4f28419497f9722a3daafe3b4186f6b6457e09190a35050565b60606000620006fa8362000785565b600101905060008167ffffffffffffffff8111156200071d576200071d62000873565b6040519080825280601f01601f19166020018201604052801562000748576020820181803683370190505b5090508181016020015b600019016f181899199a1a9b1b9c1cb0b131b232b360811b600a86061a8153600a85049450846200075257509392505050565b60008072184f03e93ff9f4daa797ed6e38ed64bf6a1f0160401b8310620007c55772184f03e93ff9f4daa797ed6e38ed64bf6a1f0160401b830492506040015b6d04ee2d6d415b85acef81000000008310620007f2576d04ee2d6d415b85acef8100000000830492506020015b662386f26fc1000083106200081157662386f26fc10000830492506010015b6305f5e10083106200082a576305f5e100830492506008015b61271083106200083f57612710830492506004015b6064831062000852576064830492506002015b600a83106200085f576001015b92915050565b6136c78062000dbb83390190565b634e487b7160e01b600052604160045260246000fd5b600082601f8301126200089b57600080fd5b813567ffffffffffffffff80821115620008b957620008b962000873565b604051601f8301601f19908116603f01168101908282118183101715620008e457620008e462000873565b81604052838152866020858801011115620008fe57600080fd5b836020870160208301376000602085830101528094505050505092915050565b80356001600160a01b03811681146200093657600080fd5b919050565b600080600080600060a086880312156200095457600080fd5b853567ffffffffffffffff808211156200096d57600080fd5b6200097b89838a0162000889565b965060208801359150808211156200099257600080fd5b50620009a18882890162000889565b945050604086013560ff81168114620009b957600080fd5b925060608601359150620009d0608087016200091e565b90509295509295909350565b600060208284031215620009ef57600080fd5b620009fa826200091e565b9392505050565b60006020828403121562000a1457600080fd5b5035919050565b60005b8381101562000a3857818101518382015260200162000a1e565b50506000910152565b6000815180845262000a5b81602086016020860162000a1b565b601f01601f19169290920160200192915050565b602081526000620009fa602083018462000a41565b60006020828403121562000a9757600080fd5b813567ffffffffffffffff81111562000aaf57600080fd5b62000abd8482850162000889565b949350505050565b600181811c9082168062000ada57607f821691505b60208210810362000afb57634e487b7160e01b600052602260045260246000fd5b50919050565b60c08152600062000b1660c083018962000a41565b60208382038185015262000b2b828a62000a41565b60ff89166040860152606085018890526001600160a01b038716608086015284810360a0860152855490925060009062000b658162000ac5565b8085526001828116801562000b83576001811462000b9e5762000bce565b60ff1984168787015282151560051b87018601945062000bce565b896000528560002060005b8481101562000bc657815489820189015290830190870162000ba9565b880187019550505b50929d9c50505050505050505050505050565b60006001820162000c0257634e487b7160e01b600052601160045260246000fd5b5060010190565b600080845462000c198162000ac5565b6001828116801562000c34576001811462000c4a5762000c7b565b60ff198416875282151583028701945062000c7b565b8860005260208060002060005b8581101562000c725781548a82015290840190820162000c57565b50505082870194505b50505050835162000c9181836020880162000a1b565b01949350505050565b601f82111562000ce857600081815260208120601f850160051c8101602086101562000cc35750805b601f850160051c820191505b8181101562000ce45782815560010162000ccf565b5050505b505050565b815167ffffffffffffffff81111562000d0a5762000d0a62000873565b62000d228162000d1b845462000ac5565b8462000c9a565b602080601f83116001811462000d5a576000841562000d415750858301515b600019600386901b1c1916600185901b17855562000ce4565b600085815260208120601f198616915b8281101562000d8b5788860151825594840194600190910190840162000d6a565b508582101562000daa5787850151600019600388901b60f8161c191681555b5050505050600190811b0190555056fe6101006040523480156200001257600080fd5b50604051620036c7380380620036c7833981016040819052620000359162000cb1565b8585856200004333620000f9565b600362000051848262000e08565b50600462000060838262000e08565b5060128160ff16101562000087576040516398790fd560e01b815260040160405180910390fd5b60ff811660808190526200009d90600a62000fe7565b60a0524660c052620000ae62000149565b60e05250600f9150620000c49050828262000e08565b50620000d2826001620001e5565b620000ed8260a05185620000e7919062000fff565b6200025b565b5050505050506200112e565b600080546001600160a01b038381166001600160a01b0319831681178455604051919092169283917f8be0079c531659141344cd1fd0a4f28419497f9722a3daafe3b4186f6b6457e09190a35050565b60007f8b73c3c69bb8fe3d512ecc4cf759cc79239f7b179b0ffacaa9a75d522b39400f60036040516200017d919062001019565b6040805191829003822060208301939093528101919091527fc89efdaa54c0f20c7adf612882df0950f5a951637e0307cdcb4c672f298b8bc660608201524660808201523060a082015260c00160405160208183030381529060405280519060200120905090565b6001600160a01b0382166200020d5760405163a41e3d3f60e01b815260040160405180910390fd5b801562000225576200021f82620002cb565b62000230565b620002308262000303565b6001600160a01b03919091166000908152600d60205260409020805460ff1916911515919091179055565b6001600160a01b0382166200028357604051634e46966960e11b815260040160405180910390fd5b600160ff1b8160055462000298919062001097565b1115620002b85760405163303b682f60e01b815260040160405180910390fd5b620002c6600083836200038c565b505050565b6001600160a01b0381166000908152600c6020526040812054905b81811015620002c657620002fa836200063b565b600101620002e6565b60a05160009062000329836001600160a01b031660009081526007602052604090205490565b620003359190620010ad565b9050600062000359836001600160a01b03166000908152600c602052604090205490565b905060005b6200036a8284620010d0565b81101562000386576200037d84620006d0565b6001016200035e565b50505050565b6001600160a01b03838116600090815260076020526040808220549285168252812054909190620003bf868686620007c6565b6000620003cc8762000878565b90506000620003db8762000878565b9050818015620003e85750805b6200062d5781156200046457600060a05184620004069190620010ad565b60a0516001600160a01b038a166000908152600760205260409020546200042e9190620010ad565b6200043a9190620010d0565b905060005b818110156200045c576200045389620006d0565b6001016200043f565b50506200062d565b8015620004d15760a0516001600160a01b03891660009081526007602052604081205490916200049491620010ad565b60a051620004a39087620010ad565b620004af9190620010d0565b905060005b818110156200045c57620004c88a6200063b565b600101620004b4565b600060a05187620004e39190620010ad565b905060005b8181101562000575576001600160a01b038a166000908152600c60205260408120546200051890600190620010d0565b6001600160a01b038c166000908152600c6020526040812080549293509091839081106200054a576200054a620010e6565b906000526020600020015490506200056a8c8c83620008af60201b60201c565b5050600101620004e8565b5060a05181906200059b8b6001600160a01b031660009081526007602052604090205490565b620005a79190620010ad565b60a051620005b69088620010ad565b620005c29190620010d0565b1115620005d457620005d4896200063b565b8060a05185620005e59190620010ad565b60a0516001600160a01b038b166000908152600760205260409020546200060d9190620010ad565b620006199190620010d0565b11156200062b576200062b88620006d0565b505b506001979650505050505050565b6001600160a01b0381166200066357604051636edaef2f60e11b815260040160405180910390fd5b6001600160a01b0381166000908152600c6020526040812080546200068b90600190620010d0565b815481106200069e576200069e620010e6565b90600052602060002001549050620006bf82600083620008af60201b60201c565b620006cc60018262000a8b565b5050565b6001600160a01b038116620006f857604051634e46966960e11b815260040160405180910390fd5b600062000719600154600160801b81046001600160801b0390811691161490565b62000732576200072a600162000af6565b905062000781565b6006600081546200074390620010fc565b909155506006546001016200076b5760405163303b682f60e01b815260040160405180910390fd5b6006546200077e90600160ff1b62001097565b90505b6000818152600b60205260409020546001600160a01b03168015620007b95760405163119b4fd360e11b815260040160405180910390fd5b620002c6818484620008af565b6001600160a01b038316620007f5578060056000828254620007e9919062001097565b90915550620008259050565b6001600160a01b038316600090815260076020526040812080548392906200081f908490620010d0565b90915550505b6001600160a01b0380831660008181526007602052604090819020805485019055519091851690600080516020620036a7833981519152906200086b9085815260200190565b60405180910390a3505050565b60006001600160a01b0382161580620008a957506001600160a01b0382166000908152600d602052604090205460ff165b92915050565b6001600160a01b03831615620009c957600081815260096020908152604080832080546001600160a01b03191690556001600160a01b0386168352600c909152812080546200090190600190620010d0565b81548110620009145762000914620010e6565b9060005260206000200154905081811462000987576000828152600b602052604081205460a01c6001600160a01b0386166000908152600c6020526040902080549192508391839081106200096d576200096d620010e6565b60009182526020909120015562000985828262000b67565b505b6001600160a01b0384166000908152600c60205260409020805480620009b157620009b162001118565b60019003818190600052602060002001600090559055505b6001600160a01b0382161562000a46576000818152600b6020908152604080832080546001600160a01b0319166001600160a01b038716908101909155808452600c8352908320805460018181018355828652938520018590559252905462000a4091839162000a3a9190620010d0565b62000b67565b62000a56565b6000818152600b60205260408120555b80826001600160a01b0316846001600160a01b0316600080516020620036a783398151915260405160405180910390a4505050565b81546001600160801b038082166000190191600160801b900481169082160362000ac857604051638acb5f2760e01b815260040160405180910390fd5b6001600160801b0316600081815260018401602052604090209190915581546001600160801b031916179055565b80546000906001600160801b03600160801b820481169116810362000b2e576040516375e52f4f60e01b815260040160405180910390fd5b600019016001600160801b039081166000818152600185016020526040812080549190558454909216600160801b909102179092555090565b6000828152600b60205260409020546001600160601b0382111562000b9f57604051633f2cd0e360e21b815260040160405180910390fd5b6000928352600b60205260409092206001600160a01b039290921660a09190911b6001600160a01b031916019055565b634e487b7160e01b600052604160045260246000fd5b600082601f83011262000bf757600080fd5b81516001600160401b038082111562000c145762000c1462000bcf565b604051601f8301601f19908116603f0116810190828211818310171562000c3f5762000c3f62000bcf565b8160405283815260209250868385880101111562000c5c57600080fd5b600091505b8382101562000c80578582018301518183018401529082019062000c61565b600093810190920192909252949350505050565b80516001600160a01b038116811462000cac57600080fd5b919050565b60008060008060008060c0878903121562000ccb57600080fd5b86516001600160401b038082111562000ce357600080fd5b62000cf18a838b0162000be5565b9750602089015191508082111562000d0857600080fd5b62000d168a838b0162000be5565b96506040890151915060ff8216821462000d2f57600080fd5b8195506060890151945062000d4760808a0162000c94565b935060a089015191508082111562000d5e57600080fd5b5062000d6d89828a0162000be5565b9150509295509295509295565b600181811c9082168062000d8f57607f821691505b60208210810362000db057634e487b7160e01b600052602260045260246000fd5b50919050565b601f821115620002c657600081815260208120601f850160051c8101602086101562000ddf5750805b601f850160051c820191505b8181101562000e005782815560010162000deb565b505050505050565b81516001600160401b0381111562000e245762000e2462000bcf565b62000e3c8162000e35845462000d7a565b8462000db6565b602080601f83116001811462000e74576000841562000e5b5750858301515b600019600386901b1c1916600185901b17855562000e00565b600085815260208120601f198616915b8281101562000ea55788860151825594840194600190910190840162000e84565b508582101562000ec45787850151600019600388901b60f8161c191681555b5050505050600190811b01905550565b634e487b7160e01b600052601160045260246000fd5b600181815b8085111562000f2b57816000190482111562000f0f5762000f0f62000ed4565b8085161562000f1d57918102915b93841c939080029062000eef565b509250929050565b60008262000f4457506001620008a9565b8162000f5357506000620008a9565b816001811462000f6c576002811462000f775762000f97565b6001915050620008a9565b60ff84111562000f8b5762000f8b62000ed4565b50506001821b620008a9565b5060208310610133831016604e8410600b841016171562000fbc575081810a620008a9565b62000fc8838362000eea565b806000190482111562000fdf5762000fdf62000ed4565b029392505050565b600062000ff860ff84168362000f33565b9392505050565b8082028115828204841417620008a957620008a962000ed4565b6000808354620010298162000d7a565b600182811680156200104457600181146200105a576200108b565b60ff19841687528215158302870194506200108b565b8760005260208060002060005b85811015620010825781548a82015290840190820162001067565b50505082870194505b50929695505050505050565b80820180821115620008a957620008a962000ed4565b600082620010cb57634e487b7160e01b600052601260045260246000fd5b500490565b81810381811115620008a957620008a962000ed4565b634e487b7160e01b600052603260045260246000fd5b60006001820162001111576200111162000ed4565b5060010190565b634e487b7160e01b600052603160045260246000fd5b60805160a05160c05160e0516124f2620011b560003960006107d8015260006107a801526000818161046801528181610fdf0152818161142a0152818161146e015281816114e70152818161151101528181611565015281816116110152818161165e015281816116a2015281816116c90152611b1f0152600061035c01526124f26000f3fe608060405234801561001057600080fd5b50600436106102535760003560e01c80638a696e5011610146578063c6e672b9116100c3578063dd63769911610087578063dd6376991461058b578063dfabc0331461059e578063e985e9c5146105b1578063eac989f8146105df578063f2fde38b146105e7578063f780bc1a146105fa57600080fd5b8063c6e672b914610514578063c87b56dd14610527578063d505accf1461053a578063d96ca0b91461054d578063dd62ed3e1461056057600080fd5b8063a9059cbb1161010a578063a9059cbb1461049d578063b1ab9317146104b0578063b3f9ea34146104d0578063b88d4fde146104f9578063c5ab3ba61461050c57600080fd5b80638a696e50146104375780638da5cb5b1461044a57806395d89b411461045b578063976a843514610463578063a22cb4651461048a57600080fd5b80633644e515116101d45780636e8f624b116101985780636e8f624b146103dc57806370a08231146103e7578063715018a6146104075780637ecebe001461040f57806389fb4c661461042f57600080fd5b80633644e5151461039057806342842e0e146103985780634d966072146103ad5780634f02c420146103c05780636352211e146103c957600080fd5b806309674eb01161021b57806309674eb01461032057806309f0ef651461032857806318160ddd1461033b57806323b872dd14610344578063313ce5671461035757600080fd5b806301ffc9a71461025857806302519da31461028057806306fdde03146102b7578063081812fc146102cc578063095ea7b31461030d575b600080fd5b61026b610266366004611f34565b61060d565b60405190151581526020015b60405180910390f35b6102a961028e366004611f68565b6001600160a01b031660009081526007602052604090205490565b604051908152602001610277565b6102bf610644565b6040516102779190611fd3565b6102f56102da366004611fe6565b6009602052600090815260409020546001600160a01b031681565b6040516001600160a01b039091168152602001610277565b61026b61031b366004611fff565b6106d2565b6102a961070b565b61026b610336366004611f68565b610735565b6102a960055481565b61026b610352366004612029565b610767565b61037e7f000000000000000000000000000000000000000000000000000000000000000081565b60405160ff9091168152602001610277565b6102a96107a4565b6103ab6103a6366004612029565b6107fa565b005b61026b6103bb366004611fff565b61081a565b6102a960065481565b6102f56103d7366004611fe6565b6108a7565b6102a9600160ff1b81565b6102a96103f5366004611f68565b60076020526000908152604090205481565b6103ab610911565b6102a961041d366004611f68565b600e6020526000908152604090205481565b6005546102a9565b6103ab610445366004612075565b610925565b6000546001600160a01b03166102f5565b6102bf610932565b6102a97f000000000000000000000000000000000000000000000000000000000000000081565b6103ab610498366004612090565b61093f565b61026b6104ab366004611fff565b6109d2565b6104c36104be366004611f68565b610a06565b60405161027791906120c3565b6102a96104de366004611f68565b6001600160a01b03166000908152600c602052604090205490565b6103ab61050736600461211d565b610a72565b6006546102a9565b6103ab610522366004612090565b610b60565b6102bf610535366004611fe6565b610b76565b6103ab6105483660046121f9565b610baa565b61026b61055b366004612029565b610ded565b6102a961056e36600461226c565b600860209081526000928352604080842090915290825290205481565b6103ab610599366004612029565b610ead565b6103ab6105ac366004611fff565b61100e565b61026b6105bf36600461226c565b600a60209081526000928352604080842090915290825290205460ff1681565b6102bf6110d3565b6103ab6105f5366004611f68565b6110e0565b6104c3610608366004612296565b61115b565b60006001600160e01b0319821663caf91ff560e01b148061063e57506001600160e01b031982166301ffc9a760e01b145b92915050565b60038054610651906122b8565b80601f016020809104026020016040519081016040528092919081815260200182805461067d906122b8565b80156106ca5780601f1061069f576101008083540402835291602001916106ca565b820191906000526020600020905b8154815290600101906020018083116106ad57829003601f168201915b505050505081565b60006106dd826111f8565b156106f1576106ec838361100e565b610702565b6106fb838361081a565b905061063e565b50600192915050565b60006107306001546001600160801b03808216600160801b9092048116919091031690565b905090565b60006001600160a01b038216158061063e5750506001600160a01b03166000908152600d602052604090205460ff1690565b6000610772826111f8565b1561078757610782848484610ead565b610799565b610792848484610ded565b905061079d565b5060015b9392505050565b60007f000000000000000000000000000000000000000000000000000000000000000046146107d557610730611211565b507f000000000000000000000000000000000000000000000000000000000000000090565b61081583838360405180602001604052806000815250610a72565b505050565b60006001600160a01b03831661084357604051635461585f60e01b815260040160405180910390fd5b3360008181526008602090815260408083206001600160a01b03881680855290835292819020869055518581529192917f8c5be1e5ebec7d5bd14f71427d1e84f3dd0314c0f7b2291e5b200ac8c7c3b925910160405180910390a350600192915050565b6000818152600b60205260409020546001600160a01b03166108c8826111f8565b6108e5576040516307ed98ed60e31b815260040160405180910390fd5b6001600160a01b03811661090c5760405163c5723b5160e01b815260040160405180910390fd5b919050565b6109196112ab565b6109236000611305565b565b61092f3382611355565b50565b60048054610651906122b8565b6001600160a01b0382166109665760405163ccea9e6f60e01b815260040160405180910390fd5b336000818152600a602090815260408083206001600160a01b03871680855290835292819020805460ff191686151590811790915590519081529192917f17307eab39ab6107e8899845ad3d59bd9653f200f220920489ca2b5937696c31910160405180910390a35050565b60006001600160a01b0383166109fb57604051634e46966960e11b815260040160405180910390fd5b61079d3384846113c4565b6001600160a01b0381166000908152600c6020908152604091829020805483518184028101840190945280845260609392830182828015610a6657602002820191906000526020600020905b815481526020019060010190808311610a52575b50505050509050919050565b610a7b826111f8565b610a98576040516307ed98ed60e31b815260040160405180910390fd5b610aa3848484610767565b506001600160a01b0383163b15801590610b3c5750604051630a85bd0160e11b808252906001600160a01b0385169063150b7a0290610aec9033908990889088906004016122f2565b6020604051808303816000875af1158015610b0b573d6000803e3d6000fd5b505050506040513d601f19601f82011682018060405250810190610b2f919061232f565b6001600160e01b03191614155b15610b5a57604051633da6393160e01b815260040160405180910390fd5b50505050565b610b686112ab565b610b728282611355565b5050565b6060600f610b838361173a565b604051602001610b949291906123e8565b6040516020818303038152906040529050919050565b42841015610bcb576040516305787bdf60e01b815260040160405180910390fd5b610bd4856111f8565b15610bf2576040516303e7c1bd60e31b815260040160405180910390fd5b6001600160a01b038616610c1957604051635461585f60e01b815260040160405180910390fd5b60006001610c256107a4565b6001600160a01b038a81166000818152600e602090815260409182902080546001810190915582517f6e71edae12b1b97f4d1f60370fef10105fa2faae0126114a169c64845d6126c98184015280840194909452938d166060840152608083018c905260a083019390935260c08083018b90528151808403909101815260e08301909152805192019190912061190160f01b6101008301526101028201929092526101228101919091526101420160408051601f198184030181528282528051602091820120600084529083018083525260ff871690820152606081018590526080810184905260a0016020604051602081039080840390855afa158015610d31573d6000803e3d6000fd5b5050604051601f1901519150506001600160a01b0381161580610d665750876001600160a01b0316816001600160a01b031614155b15610d8457604051632057875960e21b815260040160405180910390fd5b6001600160a01b0390811660009081526008602090815260408083208a8516808552908352928190208990555188815291928a16917f8c5be1e5ebec7d5bd14f71427d1e84f3dd0314c0f7b2291e5b200ac8c7c3b925910160405180910390a350505050505050565b60006001600160a01b038416610e1657604051636edaef2f60e11b815260040160405180910390fd5b6001600160a01b038316610e3d57604051634e46966960e11b815260040160405180910390fd5b6001600160a01b03841660009081526008602090815260408083203384529091529020546000198114610e9957610e748382612423565b6001600160a01b03861660009081526008602090815260408083203384529091529020555b610ea48585856113c4565b95945050505050565b6001600160a01b038316610ed457604051636edaef2f60e11b815260040160405180910390fd5b6001600160a01b038216610efb57604051634e46966960e11b815260040160405180910390fd5b6000818152600b60205260409020546001600160a01b03848116911614610f34576040516282b42960e81b815260040160405180910390fd5b336001600160a01b03841614801590610f7157506001600160a01b0383166000908152600a6020908152604080832033845290915290205460ff16155b8015610f9457506000818152600960205260409020546001600160a01b03163314155b15610fb1576040516282b42960e81b815260040160405180910390fd5b610fba82610735565b15610fd857604051635ce7539760e01b815260040160405180910390fd5b61100383837f00000000000000000000000000000000000000000000000000000000000000006117cd565b610815838383611889565b6000818152600b60205260409020546001600160a01b031633811480159061105a57506001600160a01b0381166000908152600a6020908152604080832033845290915290205460ff16155b15611077576040516282b42960e81b815260040160405180910390fd5b60008281526009602052604080822080546001600160a01b0319166001600160a01b0387811691821790925591518593918516917f8c5be1e5ebec7d5bd14f71427d1e84f3dd0314c0f7b2291e5b200ac8c7c3b92591a4505050565b600f8054610651906122b8565b6110e86112ab565b6001600160a01b0381166111525760405162461bcd60e51b815260206004820152602660248201527f4f776e61626c653a206e6577206f776e657220697320746865207a65726f206160448201526564647265737360d01b60648201526084015b60405180910390fd5b61092f81611305565b606060008267ffffffffffffffff81111561117857611178612107565b6040519080825280602002602001820160405280156111a1578160200160208202803683370190505b509050835b6111b08486612436565b8110156111f0576111c2600182611a61565b826111cd8784612423565b815181106111dd576111dd612449565b60209081029190910101526001016111a6565b509392505050565b6000600160ff1b8211801561063e575050600019141590565b60007f8b73c3c69bb8fe3d512ecc4cf759cc79239f7b179b0ffacaa9a75d522b39400f6003604051611243919061245f565b6040805191829003822060208301939093528101919091527fc89efdaa54c0f20c7adf612882df0950f5a951637e0307cdcb4c672f298b8bc660608201524660808201523060a082015260c00160405160208183030381529060405280519060200120905090565b6000546001600160a01b031633146109235760405162461bcd60e51b815260206004820181905260248201527f4f776e61626c653a2063616c6c6572206973206e6f7420746865206f776e65726044820152606401611149565b600080546001600160a01b038381166001600160a01b0319831681178455604051919092169283917f8be0079c531659141344cd1fd0a4f28419497f9722a3daafe3b4186f6b6457e09190a35050565b6001600160a01b03821661137c5760405163a41e3d3f60e01b815260040160405180910390fd5b80156113905761138b82611acc565b611399565b61139982611b00565b6001600160a01b03919091166000908152600d60205260409020805460ff1916911515919091179055565b6001600160a01b038381166000908152600760205260408082205492851682528120549091906113f58686866117cd565b600061140087610735565b9050600061140d87610735565b90508180156114195750805b61172c5781156114c257600061144f7f00000000000000000000000000000000000000000000000000000000000000008561246b565b6001600160a01b038916600090815260076020526040902054611493907f00000000000000000000000000000000000000000000000000000000000000009061246b565b61149d9190612423565b905060005b818110156114bb576114b389611b8e565b6001016114a2565b505061172c565b801561155e576001600160a01b03881660009081526007602052604081205461150c907f00000000000000000000000000000000000000000000000000000000000000009061246b565b6115367f00000000000000000000000000000000000000000000000000000000000000008761246b565b6115409190612423565b905060005b818110156114bb576115568a611c76565b600101611545565b600061158a7f00000000000000000000000000000000000000000000000000000000000000008861246b565b905060005b8181101561160d576001600160a01b038a166000908152600c60205260408120546115bc90600190612423565b6001600160a01b038c166000908152600c6020526040812080549293509091839081106115eb576115eb612449565b906000526020600020015490506116038c8c83611889565b505060010161158f565b50807f000000000000000000000000000000000000000000000000000000000000000061164f8b6001600160a01b031660009081526007602052604090205490565b611659919061246b565b6116837f00000000000000000000000000000000000000000000000000000000000000008861246b565b61168d9190612423565b111561169c5761169c89611c76565b806116c77f00000000000000000000000000000000000000000000000000000000000000008661246b565b7f00000000000000000000000000000000000000000000000000000000000000006117078b6001600160a01b031660009081526007602052604090205490565b611711919061246b565b61171b9190612423565b111561172a5761172a88611b8e565b505b506001979650505050505050565b6060600061174783611cf7565b600101905060008167ffffffffffffffff81111561176757611767612107565b6040519080825280601f01601f191660200182016040528015611791576020820181803683370190505b5090508181016020015b600019016f181899199a1a9b1b9c1cb0b131b232b360811b600a86061a8153600a850494508461179b57509392505050565b6001600160a01b0383166117f85780600560008282546117ed9190612436565b909155506118269050565b6001600160a01b03831660009081526007602052604081208054839290611820908490612423565b90915550505b6001600160a01b03808316600081815260076020526040908190208054850190555190918516907fddf252ad1be2c89b69c2b068fc378daa952ba7f163c4a11628f55a4df523b3ef9061187c9085815260200190565b60405180910390a3505050565b6001600160a01b0383161561199457600081815260096020908152604080832080546001600160a01b03191690556001600160a01b0386168352600c909152812080546118d890600190612423565b815481106118e8576118e8612449565b90600052602060002001549050818114611955576000828152600b602052604081205460a01c6001600160a01b0386166000908152600c60205260409020805491925083918390811061193d5761193d612449565b6000918252602090912001556119538282611dcf565b505b6001600160a01b0384166000908152600c6020526040902080548061197c5761197c61248d565b60019003818190600052602060002001600090559055505b6001600160a01b03821615611a0b576000818152600b6020908152604080832080546001600160a01b0319166001600160a01b038716908101909155808452600c83529083208054600181810183558286529385200185905592529054611a06918391611a019190612423565b611dcf565b611a1b565b6000818152600b60205260408120555b80826001600160a01b0316846001600160a01b03167fddf252ad1be2c89b69c2b068fc378daa952ba7f163c4a11628f55a4df523b3ef60405160405180910390a4505050565b6000611a8583546001600160801b03808216600160801b9092048116919091031690565b8210611aa45760405163580821e760e01b815260040160405180910390fd5b5081546001600160801b03908116820116600090815260018301602052604090205492915050565b6001600160a01b0381166000908152600c6020526040812054905b8181101561081557611af883611c76565b600101611ae7565b6001600160a01b038116600090815260076020526040812054611b44907f00000000000000000000000000000000000000000000000000000000000000009061246b565b90506000611b67836001600160a01b03166000908152600c602052604090205490565b905060005b611b768284612423565b811015610b5a57611b8684611b8e565b600101611b6c565b6001600160a01b038116611bb557604051634e46966960e11b815260040160405180910390fd5b6000611bd5600154600160801b81046001600160801b0390811691161490565b611bea57611be36001611e3b565b9050611c34565b600660008154611bf9906124a3565b90915550600654600101611c205760405163303b682f60e01b815260040160405180910390fd5b600654611c3190600160ff1b612436565b90505b6000818152600b60205260409020546001600160a01b03168015611c6b5760405163119b4fd360e11b815260040160405180910390fd5b610815818484611889565b6001600160a01b038116611c9d57604051636edaef2f60e11b815260040160405180910390fd5b6001600160a01b0381166000908152600c602052604081208054611cc390600190612423565b81548110611cd357611cd3612449565b90600052602060002001549050611cec82600083611889565b610b72600182611eab565b60008072184f03e93ff9f4daa797ed6e38ed64bf6a1f0160401b8310611d365772184f03e93ff9f4daa797ed6e38ed64bf6a1f0160401b830492506040015b6d04ee2d6d415b85acef81000000008310611d62576d04ee2d6d415b85acef8100000000830492506020015b662386f26fc100008310611d8057662386f26fc10000830492506010015b6305f5e1008310611d98576305f5e100830492506008015b6127108310611dac57612710830492506004015b60648310611dbe576064830492506002015b600a831061063e5760010192915050565b6000828152600b60205260409020546bffffffffffffffffffffffff821115611e0b57604051633f2cd0e360e21b815260040160405180910390fd5b6000928352600b60205260409092206001600160a01b039290921660a09190911b6001600160a01b031916019055565b80546000906001600160801b03600160801b8204811691168103611e72576040516375e52f4f60e01b815260040160405180910390fd5b600019016001600160801b039081166000818152600185016020526040812080549190558454909216600160801b909102179092555090565b81546001600160801b038082166000190191600160801b9004811690821603611ee757604051638acb5f2760e01b815260040160405180910390fd5b6001600160801b0316600081815260018401602052604090209190915581546fffffffffffffffffffffffffffffffff1916179055565b6001600160e01b03198116811461092f57600080fd5b600060208284031215611f4657600080fd5b813561079d81611f1e565b80356001600160a01b038116811461090c57600080fd5b600060208284031215611f7a57600080fd5b61079d82611f51565b60005b83811015611f9e578181015183820152602001611f86565b50506000910152565b60008151808452611fbf816020860160208601611f83565b601f01601f19169290920160200192915050565b60208152600061079d6020830184611fa7565b600060208284031215611ff857600080fd5b5035919050565b6000806040838503121561201257600080fd5b61201b83611f51565b946020939093013593505050565b60008060006060848603121561203e57600080fd5b61204784611f51565b925061205560208501611f51565b9150604084013590509250925092565b8035801515811461090c57600080fd5b60006020828403121561208757600080fd5b61079d82612065565b600080604083850312156120a357600080fd5b6120ac83611f51565b91506120ba60208401612065565b90509250929050565b6020808252825182820181905260009190848201906040850190845b818110156120fb578351835292840192918401916001016120df565b50909695505050505050565b634e487b7160e01b600052604160045260246000fd5b6000806000806080858703121561213357600080fd5b61213c85611f51565b935061214a60208601611f51565b925060408501359150606085013567ffffffffffffffff8082111561216e57600080fd5b818701915087601f83011261218257600080fd5b81358181111561219457612194612107565b604051601f8201601f19908116603f011681019083821181831017156121bc576121bc612107565b816040528281528a60208487010111156121d557600080fd5b82602086016020830137600060208483010152809550505050505092959194509250565b600080600080600080600060e0888a03121561221457600080fd5b61221d88611f51565b965061222b60208901611f51565b95506040880135945060608801359350608088013560ff8116811461224f57600080fd5b9699959850939692959460a0840135945060c09093013592915050565b6000806040838503121561227f57600080fd5b61228883611f51565b91506120ba60208401611f51565b600080604083850312156122a957600080fd5b50508035926020909101359150565b600181811c908216806122cc57607f821691505b6020821081036122ec57634e487b7160e01b600052602260045260246000fd5b50919050565b6001600160a01b038581168252841660208201526040810183905260806060820181905260009061232590830184611fa7565b9695505050505050565b60006020828403121561234157600080fd5b815161079d81611f1e565b8054600090600181811c908083168061236657607f831692505b6020808410820361238757634e487b7160e01b600052602260045260246000fd5b81801561239b57600181146123b0576123dc565b60ff19861689528415158502890196506123dc565b876000528160002060005b868110156123d45781548b8201529085019083016123bb565b505084890196505b50505050505092915050565b60006123f4828561234c565b8351612404818360208801611f83565b01949350505050565b634e487b7160e01b600052601160045260246000fd5b8181038181111561063e5761063e61240d565b8082018082111561063e5761063e61240d565b634e487b7160e01b600052603260045260246000fd5b600061079d828461234c565b60008261248857634e487b7160e01b600052601260045260246000fd5b500490565b634e487b7160e01b600052603160045260246000fd5b6000600182016124b5576124b561240d565b506001019056fea264697066735822122017c186d910c287396251372e0af639c527693ef367e39f2b69b311066e07196764736f6c63430008140033ddf252ad1be2c89b69c2b068fc378daa952ba7f163c4a11628f55a4df523b3efa2646970667358221220f0a6937c8d1accea28d2b82e8acad7de976d8f8ae8ffd020cb28436b5ce9067264736f6c63430008140033","opcodes":"PUSH1 0x80 PUSH1 0x40 MSTORE CALLVALUE DUP1 ISZERO PUSH3 0x11 JUMPI PUSH1 0x0 DUP1 REVERT JUMPDEST POP PUSH1 0x40 MLOAD PUSH3 0x47B2 CODESIZE SUB DUP1 PUSH3 0x47B2 DUP4 CODECOPY DUP2 ADD PUSH1 0x40 DUP2 SWAP1 MSTORE PUSH3 0x34 SWAP2 PUSH3 0xBB JUMP JUMPDEST PUSH3 0x3F CALLER PUSH3 0x55 JUMP JUMPDEST PUSH1 0x2 PUSH3 0x4D DUP3 DUP3 PUSH3 0x21F JUMP JUMPDEST POP POP PUSH3 0x2EB JUMP JUMPDEST PUSH1 0x0 DUP1 SLOAD PUSH1 0x1 PUSH1 0x1 PUSH1 0xA0 SHL SUB DUP4 DUP2 AND PUSH1 0x1 PUSH1 0x1 PUSH1 0xA0 SHL SUB NOT DUP4 AND DUP2 OR DUP5 SSTORE PUSH1 0x40 MLOAD SWAP2 SWAP1 SWAP3 AND SWAP3 DUP4 SWAP2 PUSH32 0x8BE0079C531659141344CD1FD0A4F28419497F9722A3DAAFE3B4186F6B6457E0 SWAP2 SWAP1 LOG3 POP POP JUMP JUMPDEST PUSH4 0x4E487B71 PUSH1 0xE0 SHL PUSH1 0x0 MSTORE PUSH1 0x41 PUSH1 0x4 MSTORE PUSH1 0x24 PUSH1 0x0 REVERT JUMPDEST PUSH1 0x0 PUSH1 0x20 DUP1 DUP4 DUP6 SUB SLT ISZERO PUSH3 0xCF JUMPI PUSH1 0x0 DUP1 REVERT JUMPDEST DUP3 MLOAD PUSH1 0x1 PUSH1 0x1 PUSH1 0x40 SHL SUB DUP1 DUP3 GT ISZERO PUSH3 0xE7 JUMPI PUSH1 0x0 DUP1 REVERT JUMPDEST DUP2 DUP6 ADD SWAP2 POP DUP6 PUSH1 0x1F DUP4 ADD SLT PUSH3 0xFC JUMPI PUSH1 0x0 DUP1 REVERT JUMPDEST DUP2 MLOAD DUP2 DUP2 GT ISZERO PUSH3 0x111 JUMPI PUSH3 0x111 PUSH3 0xA5 JUMP JUMPDEST PUSH1 0x40 MLOAD PUSH1 0x1F DUP3 ADD PUSH1 0x1F NOT SWAP1 DUP2 AND PUSH1 0x3F ADD AND DUP2 ADD SWAP1 DUP4 DUP3 GT DUP2 DUP4 LT OR ISZERO PUSH3 0x13C JUMPI PUSH3 0x13C PUSH3 0xA5 JUMP JUMPDEST DUP2 PUSH1 0x40 MSTORE DUP3 DUP2 MSTORE DUP9 DUP7 DUP5 DUP8 ADD ADD GT ISZERO PUSH3 0x155 JUMPI PUSH1 0x0 DUP1 REVERT JUMPDEST PUSH1 0x0 SWAP4 POP JUMPDEST DUP3 DUP5 LT ISZERO PUSH3 0x179 JUMPI DUP5 DUP5 ADD DUP7 ADD MLOAD DUP2 DUP6 ADD DUP8 ADD MSTORE SWAP3 DUP6 ADD SWAP3 PUSH3 0x15A JUMP JUMPDEST PUSH1 0x0 DUP7 DUP5 DUP4 ADD ADD MSTORE DUP1 SWAP7 POP POP POP POP POP POP POP SWAP3 SWAP2 POP POP JUMP JUMPDEST PUSH1 0x1 DUP2 DUP2 SHR SWAP1 DUP3 AND DUP1 PUSH3 0x1A5 JUMPI PUSH1 0x7F DUP3 AND SWAP2 POP JUMPDEST PUSH1 0x20 DUP3 LT DUP2 SUB PUSH3 0x1C6 JUMPI PUSH4 0x4E487B71 PUSH1 0xE0 SHL PUSH1 0x0 MSTORE PUSH1 0x22 PUSH1 0x4 MSTORE PUSH1 0x24 PUSH1 0x0 REVERT JUMPDEST POP SWAP2 SWAP1 POP JUMP JUMPDEST PUSH1 0x1F DUP3 GT ISZERO PUSH3 0x21A JUMPI PUSH1 0x0 DUP2 DUP2 MSTORE PUSH1 0x20 DUP2 KECCAK256 PUSH1 0x1F DUP6 ADD PUSH1 0x5 SHR DUP2 ADD PUSH1 0x20 DUP7 LT ISZERO PUSH3 0x1F5 JUMPI POP DUP1 JUMPDEST PUSH1 0x1F DUP6 ADD PUSH1 0x5 SHR DUP3 ADD SWAP2 POP JUMPDEST DUP2 DUP2 LT ISZERO PUSH3 0x216 JUMPI DUP3 DUP2 SSTORE PUSH1 0x1 ADD PUSH3 0x201 JUMP JUMPDEST POP POP POP JUMPDEST POP POP POP JUMP JUMPDEST DUP2 MLOAD PUSH1 0x1 PUSH1 0x1 PUSH1 0x40 SHL SUB DUP2 GT ISZERO PUSH3 0x23B JUMPI PUSH3 0x23B PUSH3 0xA5 JUMP JUMPDEST PUSH3 0x253 DUP2 PUSH3 0x24C DUP5 SLOAD PUSH3 0x190 JUMP JUMPDEST DUP5 PUSH3 0x1CC JUMP JUMPDEST PUSH1 0x20 DUP1 PUSH1 0x1F DUP4 GT PUSH1 0x1 DUP2 EQ PUSH3 0x28B JUMPI PUSH1 0x0 DUP5 ISZERO PUSH3 0x272 JUMPI POP DUP6 DUP4 ADD MLOAD JUMPDEST PUSH1 0x0 NOT PUSH1 0x3 DUP7 SWAP1 SHL SHR NOT AND PUSH1 0x1 DUP6 SWAP1 SHL OR DUP6 SSTORE PUSH3 0x216 JUMP JUMPDEST PUSH1 0x0 DUP6 DUP2 MSTORE PUSH1 0x20 DUP2 KECCAK256 PUSH1 0x1F NOT DUP7 AND SWAP2 JUMPDEST DUP3 DUP2 LT ISZERO PUSH3 0x2BC JUMPI DUP9 DUP7 ADD MLOAD DUP3 SSTORE SWAP5 DUP5 ADD SWAP5 PUSH1 0x1 SWAP1 SWAP2 ADD SWAP1 DUP5 ADD PUSH3 0x29B JUMP JUMPDEST POP DUP6 DUP3 LT ISZERO PUSH3 0x2DB JUMPI DUP8 DUP6 ADD MLOAD PUSH1 0x0 NOT PUSH1 0x3 DUP9 SWAP1 SHL PUSH1 0xF8 AND SHR NOT AND DUP2 SSTORE JUMPDEST POP POP POP POP POP PUSH1 0x1 SWAP1 DUP2 SHL ADD SWAP1 SSTORE POP JUMP JUMPDEST PUSH2 0x44B7 DUP1 PUSH3 0x2FB PUSH1 0x0 CODECOPY PUSH1 0x0 RETURN INVALID PUSH1 0x80 PUSH1 0x40 MSTORE CALLVALUE DUP1 ISZERO PUSH3 0x11 JUMPI PUSH1 0x0 DUP1 REVERT JUMPDEST POP PUSH1 0x4 CALLDATASIZE LT PUSH3 0xC3 JUMPI PUSH1 0x0 CALLDATALOAD PUSH1 0xE0 SHR DUP1 PUSH4 0xC87B56DD GT PUSH3 0x7A JUMPI DUP1 PUSH4 0xC87B56DD EQ PUSH3 0x185 JUMPI DUP1 PUSH4 0xE43252D7 EQ PUSH3 0x1AB JUMPI DUP1 PUSH4 0xEAC989F8 EQ PUSH3 0x1C2 JUMPI DUP1 PUSH4 0xF2FDE38B EQ PUSH3 0x1CC JUMPI DUP1 PUSH4 0xF392D4F5 EQ PUSH3 0x1E3 JUMPI DUP1 PUSH4 0xF47EFCFF EQ PUSH3 0x1FA JUMPI PUSH1 0x0 DUP1 REVERT JUMPDEST DUP1 PUSH4 0x13AFC51 EQ PUSH3 0xC8 JUMPI DUP1 PUSH4 0x3AF32ABF EQ PUSH3 0xE1 JUMPI DUP1 PUSH4 0x715018A6 EQ PUSH3 0x125 JUMPI DUP1 PUSH4 0x8AB1D681 EQ PUSH3 0x12F JUMPI DUP1 PUSH4 0x8DA5CB5B EQ PUSH3 0x146 JUMPI DUP1 PUSH4 0xAF640D0F EQ PUSH3 0x16C JUMPI JUMPDEST PUSH1 0x0 DUP1 REVERT JUMPDEST PUSH3 0xDF PUSH3 0xD9 CALLDATASIZE PUSH1 0x4 PUSH3 0x93B JUMP JUMPDEST PUSH3 0x226 JUMP JUMPDEST STOP JUMPDEST PUSH3 0x110 PUSH3 0xF2 CALLDATASIZE PUSH1 0x4 PUSH3 0x9DC JUMP JUMPDEST PUSH1 0x1 PUSH1 0x1 PUSH1 0xA0 SHL SUB AND PUSH1 0x0 SWAP1 DUP2 MSTORE PUSH1 0x3 PUSH1 0x20 MSTORE PUSH1 0x40 SWAP1 KECCAK256 SLOAD PUSH1 0xFF AND SWAP1 JUMP JUMPDEST PUSH1 0x40 MLOAD SWAP1 ISZERO ISZERO DUP2 MSTORE PUSH1 0x20 ADD JUMPDEST PUSH1 0x40 MLOAD DUP1 SWAP2 SUB SWAP1 RETURN JUMPDEST PUSH3 0xDF PUSH3 0x2F1 JUMP JUMPDEST PUSH3 0xDF PUSH3 0x140 CALLDATASIZE PUSH1 0x4 PUSH3 0x9DC JUMP JUMPDEST PUSH3 0x309 JUMP JUMPDEST PUSH1 0x0 SLOAD PUSH1 0x1 PUSH1 0x1 PUSH1 0xA0 SHL SUB AND JUMPDEST PUSH1 0x40 MLOAD PUSH1 0x1 PUSH1 0x1 PUSH1 0xA0 SHL SUB SWAP1 SWAP2 AND DUP2 MSTORE PUSH1 0x20 ADD PUSH3 0x11C JUMP JUMPDEST PUSH3 0x176 PUSH1 0x1 SLOAD DUP2 JUMP JUMPDEST PUSH1 0x40 MLOAD SWAP1 DUP2 MSTORE PUSH1 0x20 ADD PUSH3 0x11C JUMP JUMPDEST PUSH3 0x19C PUSH3 0x196 CALLDATASIZE PUSH1 0x4 PUSH3 0xA01 JUMP JUMPDEST PUSH3 0x3D7 JUMP JUMPDEST PUSH1 0x40 MLOAD PUSH3 0x11C SWAP2 SWAP1 PUSH3 0xA6F JUMP JUMPDEST PUSH3 0xDF PUSH3 0x1BC CALLDATASIZE PUSH1 0x4 PUSH3 0x9DC JUMP JUMPDEST PUSH3 0x40F JUMP JUMPDEST PUSH3 0x19C PUSH3 0x4D5 JUMP JUMPDEST PUSH3 0xDF PUSH3 0x1DD CALLDATASIZE PUSH1 0x4 PUSH3 0x9DC JUMP JUMPDEST PUSH3 0x56B JUMP JUMPDEST PUSH3 0xDF PUSH3 0x1F4 CALLDATASIZE PUSH1 0x4 PUSH3 0xA84 JUMP JUMPDEST PUSH3 0x5EA JUMP JUMPDEST PUSH3 0x153 PUSH3 0x20B CALLDATASIZE PUSH1 0x4 PUSH3 0xA01 JUMP JUMPDEST PUSH1 0x4 PUSH1 0x20 MSTORE PUSH1 0x0 SWAP1 DUP2 MSTORE PUSH1 0x40 SWAP1 KECCAK256 SLOAD PUSH1 0x1 PUSH1 0x1 PUSH1 0xA0 SHL SUB AND DUP2 JUMP JUMPDEST PUSH3 0x230 PUSH3 0x63F JUMP JUMPDEST PUSH1 0x0 DUP6 DUP6 DUP6 DUP6 DUP6 PUSH1 0x2 PUSH1 0x40 MLOAD PUSH3 0x247 SWAP1 PUSH3 0x865 JUMP JUMPDEST PUSH3 0x258 SWAP7 SWAP6 SWAP5 SWAP4 SWAP3 SWAP2 SWAP1 PUSH3 0xB01 JUMP JUMPDEST PUSH1 0x40 MLOAD DUP1 SWAP2 SUB SWAP1 PUSH1 0x0 CREATE DUP1 ISZERO DUP1 ISZERO PUSH3 0x275 JUMPI RETURNDATASIZE PUSH1 0x0 DUP1 RETURNDATACOPY RETURNDATASIZE PUSH1 0x0 REVERT JUMPDEST POP PUSH1 0x1 DUP1 SLOAD PUSH1 0x0 SWAP1 DUP2 MSTORE PUSH1 0x4 PUSH1 0x20 MSTORE PUSH1 0x40 DUP1 DUP3 KECCAK256 DUP1 SLOAD PUSH1 0x1 PUSH1 0x1 PUSH1 0xA0 SHL SUB NOT AND PUSH1 0x1 PUSH1 0x1 PUSH1 0xA0 SHL SUB DUP7 AND SWAP1 DUP2 OR SWAP1 SWAP2 SSTORE SWAP3 SLOAD SWAP1 MLOAD SWAP4 SWAP5 POP SWAP2 SWAP3 PUSH32 0xABCD57E8B9DC17F2141B4C7680A14B6177905D608B88697F317F45B738EB6B0A SWAP2 SWAP1 LOG3 PUSH1 0x1 DUP1 SLOAD SWAP1 PUSH1 0x0 PUSH3 0x2E4 DUP4 PUSH3 0xBE1 JUMP JUMPDEST SWAP2 SWAP1 POP SSTORE POP POP POP POP POP POP POP JUMP JUMPDEST PUSH3 0x2FB PUSH3 0x63F JUMP JUMPDEST PUSH3 0x307 PUSH1 0x0 PUSH3 0x69B JUMP JUMPDEST JUMP JUMPDEST PUSH3 0x313 PUSH3 0x63F JUMP JUMPDEST PUSH1 0x1 PUSH1 0x1 PUSH1 0xA0 SHL SUB DUP2 AND PUSH3 0x381 JUMPI PUSH1 0x40 MLOAD PUSH3 0x461BCD PUSH1 0xE5 SHL DUP2 MSTORE PUSH1 0x20 PUSH1 0x4 DUP3 ADD MSTORE PUSH1 0x29 PUSH1 0x24 DUP3 ADD MSTORE PUSH32 0x43616E6E6F742072656D6F7665207A65726F20616464726573732066726F6D20 PUSH1 0x44 DUP3 ADD MSTORE PUSH9 0x1DDA1A5D195B1A5CDD PUSH1 0xBA SHL PUSH1 0x64 DUP3 ADD MSTORE PUSH1 0x84 ADD JUMPDEST PUSH1 0x40 MLOAD DUP1 SWAP2 SUB SWAP1 REVERT JUMPDEST PUSH1 0x1 PUSH1 0x1 PUSH1 0xA0 SHL SUB DUP2 AND PUSH1 0x0 DUP2 DUP2 MSTORE PUSH1 0x3 PUSH1 0x20 SWAP1 DUP2 MSTORE PUSH1 0x40 DUP1 DUP4 KECCAK256 DUP1 SLOAD PUSH1 0xFF NOT AND SWAP1 SSTORE MLOAD SWAP2 DUP3 MSTORE PUSH32 0xB840A1DBD8B09A3DC45161BBA92DFB9ABA643C0E44C085A447F839D1D02CF13B SWAP2 ADD JUMPDEST PUSH1 0x40 MLOAD DUP1 SWAP2 SUB SWAP1 LOG2 POP JUMP JUMPDEST PUSH1 0x60 PUSH1 0x2 PUSH3 0x3E6 DUP4 PUSH3 0x6EB JUMP JUMPDEST PUSH1 0x40 MLOAD PUSH1 0x20 ADD PUSH3 0x3F9 SWAP3 SWAP2 SWAP1 PUSH3 0xC09 JUMP JUMPDEST PUSH1 0x40 MLOAD PUSH1 0x20 DUP2 DUP4 SUB SUB DUP2 MSTORE SWAP1 PUSH1 0x40 MSTORE SWAP1 POP SWAP2 SWAP1 POP JUMP JUMPDEST PUSH3 0x419 PUSH3 0x63F JUMP JUMPDEST PUSH1 0x1 PUSH1 0x1 PUSH1 0xA0 SHL SUB DUP2 AND PUSH3 0x47D JUMPI PUSH1 0x40 MLOAD PUSH3 0x461BCD PUSH1 0xE5 SHL DUP2 MSTORE PUSH1 0x20 PUSH1 0x4 DUP3 ADD MSTORE PUSH1 0x24 DUP1 DUP3 ADD MSTORE PUSH32 0x43616E6E6F7420616464207A65726F206164647265737320746F207768697465 PUSH1 0x44 DUP3 ADD MSTORE PUSH4 0x1B1A5CDD PUSH1 0xE2 SHL PUSH1 0x64 DUP3 ADD MSTORE PUSH1 0x84 ADD PUSH3 0x378 JUMP JUMPDEST PUSH1 0x1 PUSH1 0x1 PUSH1 0xA0 SHL SUB DUP2 AND PUSH1 0x0 DUP2 DUP2 MSTORE PUSH1 0x3 PUSH1 0x20 SWAP1 DUP2 MSTORE PUSH1 0x40 SWAP2 DUP3 SWAP1 KECCAK256 DUP1 SLOAD PUSH1 0xFF NOT AND PUSH1 0x1 SWAP1 DUP2 OR SWAP1 SWAP2 SSTORE SWAP2 MLOAD SWAP2 DUP3 MSTORE PUSH32 0xB840A1DBD8B09A3DC45161BBA92DFB9ABA643C0E44C085A447F839D1D02CF13B SWAP2 ADD PUSH3 0x3CC JUMP JUMPDEST PUSH1 0x2 DUP1 SLOAD PUSH3 0x4E4 SWAP1 PUSH3 0xAC5 JUMP JUMPDEST DUP1 PUSH1 0x1F ADD PUSH1 0x20 DUP1 SWAP2 DIV MUL PUSH1 0x20 ADD PUSH1 0x40 MLOAD SWAP1 DUP2 ADD PUSH1 0x40 MSTORE DUP1 SWAP3 SWAP2 SWAP1 DUP2 DUP2 MSTORE PUSH1 0x20 ADD DUP3 DUP1 SLOAD PUSH3 0x512 SWAP1 PUSH3 0xAC5 JUMP JUMPDEST DUP1 ISZERO PUSH3 0x563 JUMPI DUP1 PUSH1 0x1F LT PUSH3 0x537 JUMPI PUSH2 0x100 DUP1 DUP4 SLOAD DIV MUL DUP4 MSTORE SWAP2 PUSH1 0x20 ADD SWAP2 PUSH3 0x563 JUMP JUMPDEST DUP3 ADD SWAP2 SWAP1 PUSH1 0x0 MSTORE PUSH1 0x20 PUSH1 0x0 KECCAK256 SWAP1 JUMPDEST DUP2 SLOAD DUP2 MSTORE SWAP1 PUSH1 0x1 ADD SWAP1 PUSH1 0x20 ADD DUP1 DUP4 GT PUSH3 0x545 JUMPI DUP3 SWAP1 SUB PUSH1 0x1F AND DUP3 ADD SWAP2 JUMPDEST POP POP POP POP POP DUP2 JUMP JUMPDEST PUSH3 0x575 PUSH3 0x63F JUMP JUMPDEST PUSH1 0x1 PUSH1 0x1 PUSH1 0xA0 SHL SUB DUP2 AND PUSH3 0x5DC JUMPI PUSH1 0x40 MLOAD PUSH3 0x461BCD PUSH1 0xE5 SHL DUP2 MSTORE PUSH1 0x20 PUSH1 0x4 DUP3 ADD MSTORE PUSH1 0x26 PUSH1 0x24 DUP3 ADD MSTORE PUSH32 0x4F776E61626C653A206E6577206F776E657220697320746865207A65726F2061 PUSH1 0x44 DUP3 ADD MSTORE PUSH6 0x646472657373 PUSH1 0xD0 SHL PUSH1 0x64 DUP3 ADD MSTORE PUSH1 0x84 ADD PUSH3 0x378 JUMP JUMPDEST PUSH3 0x5E7 DUP2 PUSH3 0x69B JUMP JUMPDEST POP JUMP JUMPDEST PUSH3 0x5F4 PUSH3 0x63F JUMP JUMPDEST PUSH1 0x2 PUSH3 0x602 DUP3 DUP3 PUSH3 0xCED JUMP JUMPDEST POP PUSH32 0xE3AFA94108B5F5E82E5F6E539D161FF4B5402A85F696C67B9768EC3AE54CE366 DUP2 PUSH1 0x40 MLOAD PUSH3 0x634 SWAP2 SWAP1 PUSH3 0xA6F JUMP JUMPDEST PUSH1 0x40 MLOAD DUP1 SWAP2 SUB SWAP1 LOG1 POP JUMP JUMPDEST PUSH1 0x0 SLOAD PUSH1 0x1 PUSH1 0x1 PUSH1 0xA0 SHL SUB AND CALLER EQ PUSH3 0x307 JUMPI PUSH1 0x40 MLOAD PUSH3 0x461BCD PUSH1 0xE5 SHL DUP2 MSTORE PUSH1 0x20 PUSH1 0x4 DUP3 ADD DUP2 SWAP1 MSTORE PUSH1 0x24 DUP3 ADD MSTORE PUSH32 0x4F776E61626C653A2063616C6C6572206973206E6F7420746865206F776E6572 PUSH1 0x44 DUP3 ADD MSTORE PUSH1 0x64 ADD PUSH3 0x378 JUMP JUMPDEST PUSH1 0x0 DUP1 SLOAD PUSH1 0x1 PUSH1 0x1 PUSH1 0xA0 SHL SUB DUP4 DUP2 AND PUSH1 0x1 PUSH1 0x1 PUSH1 0xA0 SHL SUB NOT DUP4 AND DUP2 OR DUP5 SSTORE PUSH1 0x40 MLOAD SWAP2 SWAP1 SWAP3 AND SWAP3 DUP4 SWAP2 PUSH32 0x8BE0079C531659141344CD1FD0A4F28419497F9722A3DAAFE3B4186F6B6457E0 SWAP2 SWAP1 LOG3 POP POP JUMP JUMPDEST PUSH1 0x60 PUSH1 0x0 PUSH3 0x6FA DUP4 PUSH3 0x785 JUMP JUMPDEST PUSH1 0x1 ADD SWAP1 POP PUSH1 0x0 DUP2 PUSH8 0xFFFFFFFFFFFFFFFF DUP2 GT ISZERO PUSH3 0x71D JUMPI PUSH3 0x71D PUSH3 0x873 JUMP JUMPDEST PUSH1 0x40 MLOAD SWAP1 DUP1 DUP3 MSTORE DUP1 PUSH1 0x1F ADD PUSH1 0x1F NOT AND PUSH1 0x20 ADD DUP3 ADD PUSH1 0x40 MSTORE DUP1 ISZERO PUSH3 0x748 JUMPI PUSH1 0x20 DUP3 ADD DUP2 DUP1 CALLDATASIZE DUP4 CALLDATACOPY ADD SWAP1 POP JUMPDEST POP SWAP1 POP DUP2 DUP2 ADD PUSH1 0x20 ADD JUMPDEST PUSH1 0x0 NOT ADD PUSH16 0x181899199A1A9B1B9C1CB0B131B232B3 PUSH1 0x81 SHL PUSH1 0xA DUP7 MOD BYTE DUP2 MSTORE8 PUSH1 0xA DUP6 DIV SWAP5 POP DUP5 PUSH3 0x752 JUMPI POP SWAP4 SWAP3 POP POP POP JUMP JUMPDEST PUSH1 0x0 DUP1 PUSH19 0x184F03E93FF9F4DAA797ED6E38ED64BF6A1F01 PUSH1 0x40 SHL DUP4 LT PUSH3 0x7C5 JUMPI PUSH19 0x184F03E93FF9F4DAA797ED6E38ED64BF6A1F01 PUSH1 0x40 SHL DUP4 DIV SWAP3 POP PUSH1 0x40 ADD JUMPDEST PUSH14 0x4EE2D6D415B85ACEF8100000000 DUP4 LT PUSH3 0x7F2 JUMPI PUSH14 0x4EE2D6D415B85ACEF8100000000 DUP4 DIV SWAP3 POP PUSH1 0x20 ADD JUMPDEST PUSH7 0x2386F26FC10000 DUP4 LT PUSH3 0x811 JUMPI PUSH7 0x2386F26FC10000 DUP4 DIV SWAP3 POP PUSH1 0x10 ADD JUMPDEST PUSH4 0x5F5E100 DUP4 LT PUSH3 0x82A JUMPI PUSH4 0x5F5E100 DUP4 DIV SWAP3 POP PUSH1 0x8 ADD JUMPDEST PUSH2 0x2710 DUP4 LT PUSH3 0x83F JUMPI PUSH2 0x2710 DUP4 DIV SWAP3 POP PUSH1 0x4 ADD JUMPDEST PUSH1 0x64 DUP4 LT PUSH3 0x852 JUMPI PUSH1 0x64 DUP4 DIV SWAP3 POP PUSH1 0x2 ADD JUMPDEST PUSH1 0xA DUP4 LT PUSH3 0x85F JUMPI PUSH1 0x1 ADD JUMPDEST SWAP3 SWAP2 POP POP JUMP JUMPDEST PUSH2 0x36C7 DUP1 PUSH3 0xDBB DUP4 CODECOPY ADD SWAP1 JUMP JUMPDEST PUSH4 0x4E487B71 PUSH1 0xE0 SHL PUSH1 0x0 MSTORE PUSH1 0x41 PUSH1 0x4 MSTORE PUSH1 0x24 PUSH1 0x0 REVERT JUMPDEST PUSH1 0x0 DUP3 PUSH1 0x1F DUP4 ADD SLT PUSH3 0x89B JUMPI PUSH1 0x0 DUP1 REVERT JUMPDEST DUP2 CALLDATALOAD PUSH8 0xFFFFFFFFFFFFFFFF DUP1 DUP3 GT ISZERO PUSH3 0x8B9 JUMPI PUSH3 0x8B9 PUSH3 0x873 JUMP JUMPDEST PUSH1 0x40 MLOAD PUSH1 0x1F DUP4 ADD PUSH1 0x1F NOT SWAP1 DUP2 AND PUSH1 0x3F ADD AND DUP2 ADD SWAP1 DUP3 DUP3 GT DUP2 DUP4 LT OR ISZERO PUSH3 0x8E4 JUMPI PUSH3 0x8E4 PUSH3 0x873 JUMP JUMPDEST DUP2 PUSH1 0x40 MSTORE DUP4 DUP2 MSTORE DUP7 PUSH1 0x20 DUP6 DUP9 ADD ADD GT ISZERO PUSH3 0x8FE JUMPI PUSH1 0x0 DUP1 REVERT JUMPDEST DUP4 PUSH1 0x20 DUP8 ADD PUSH1 0x20 DUP4 ADD CALLDATACOPY PUSH1 0x0 PUSH1 0x20 DUP6 DUP4 ADD ADD MSTORE DUP1 SWAP5 POP POP POP POP POP SWAP3 SWAP2 POP POP JUMP JUMPDEST DUP1 CALLDATALOAD PUSH1 0x1 PUSH1 0x1 PUSH1 0xA0 SHL SUB DUP2 AND DUP2 EQ PUSH3 0x936 JUMPI PUSH1 0x0 DUP1 REVERT JUMPDEST SWAP2 SWAP1 POP JUMP JUMPDEST PUSH1 0x0 DUP1 PUSH1 0x0 DUP1 PUSH1 0x0 PUSH1 0xA0 DUP7 DUP9 SUB SLT ISZERO PUSH3 0x954 JUMPI PUSH1 0x0 DUP1 REVERT JUMPDEST DUP6 CALLDATALOAD PUSH8 0xFFFFFFFFFFFFFFFF DUP1 DUP3 GT ISZERO PUSH3 0x96D JUMPI PUSH1 0x0 DUP1 REVERT JUMPDEST PUSH3 0x97B DUP10 DUP4 DUP11 ADD PUSH3 0x889 JUMP JUMPDEST SWAP7 POP PUSH1 0x20 DUP9 ADD CALLDATALOAD SWAP2 POP DUP1 DUP3 GT ISZERO PUSH3 0x992 JUMPI PUSH1 0x0 DUP1 REVERT JUMPDEST POP PUSH3 0x9A1 DUP9 DUP3 DUP10 ADD PUSH3 0x889 JUMP JUMPDEST SWAP5 POP POP PUSH1 0x40 DUP7 ADD CALLDATALOAD PUSH1 0xFF DUP2 AND DUP2 EQ PUSH3 0x9B9 JUMPI PUSH1 0x0 DUP1 REVERT JUMPDEST SWAP3 POP PUSH1 0x60 DUP7 ADD CALLDATALOAD SWAP2 POP PUSH3 0x9D0 PUSH1 0x80 DUP8 ADD PUSH3 0x91E JUMP JUMPDEST SWAP1 POP SWAP3 SWAP6 POP SWAP3 SWAP6 SWAP1 SWAP4 POP JUMP JUMPDEST PUSH1 0x0 PUSH1 0x20 DUP3 DUP5 SUB SLT ISZERO PUSH3 0x9EF JUMPI PUSH1 0x0 DUP1 REVERT JUMPDEST PUSH3 0x9FA DUP3 PUSH3 0x91E JUMP JUMPDEST SWAP4 SWAP3 POP POP POP JUMP JUMPDEST PUSH1 0x0 PUSH1 0x20 DUP3 DUP5 SUB SLT ISZERO PUSH3 0xA14 JUMPI PUSH1 0x0 DUP1 REVERT JUMPDEST POP CALLDATALOAD SWAP2 SWAP1 POP JUMP JUMPDEST PUSH1 0x0 JUMPDEST DUP4 DUP2 LT ISZERO PUSH3 0xA38 JUMPI DUP2 DUP2 ADD MLOAD DUP4 DUP3 ADD MSTORE PUSH1 0x20 ADD PUSH3 0xA1E JUMP JUMPDEST POP POP PUSH1 0x0 SWAP2 ADD MSTORE JUMP JUMPDEST PUSH1 0x0 DUP2 MLOAD DUP1 DUP5 MSTORE PUSH3 0xA5B DUP2 PUSH1 0x20 DUP7 ADD PUSH1 0x20 DUP7 ADD PUSH3 0xA1B JUMP JUMPDEST PUSH1 0x1F ADD PUSH1 0x1F NOT AND SWAP3 SWAP1 SWAP3 ADD PUSH1 0x20 ADD SWAP3 SWAP2 POP POP JUMP JUMPDEST PUSH1 0x20 DUP2 MSTORE PUSH1 0x0 PUSH3 0x9FA PUSH1 0x20 DUP4 ADD DUP5 PUSH3 0xA41 JUMP JUMPDEST PUSH1 0x0 PUSH1 0x20 DUP3 DUP5 SUB SLT ISZERO PUSH3 0xA97 JUMPI PUSH1 0x0 DUP1 REVERT JUMPDEST DUP2 CALLDATALOAD PUSH8 0xFFFFFFFFFFFFFFFF DUP2 GT ISZERO PUSH3 0xAAF JUMPI PUSH1 0x0 DUP1 REVERT JUMPDEST PUSH3 0xABD DUP5 DUP3 DUP6 ADD PUSH3 0x889 JUMP JUMPDEST SWAP5 SWAP4 POP POP POP POP JUMP JUMPDEST PUSH1 0x1 DUP2 DUP2 SHR SWAP1 DUP3 AND DUP1 PUSH3 0xADA JUMPI PUSH1 0x7F DUP3 AND SWAP2 POP JUMPDEST PUSH1 0x20 DUP3 LT DUP2 SUB PUSH3 0xAFB JUMPI PUSH4 0x4E487B71 PUSH1 0xE0 SHL PUSH1 0x0 MSTORE PUSH1 0x22 PUSH1 0x4 MSTORE PUSH1 0x24 PUSH1 0x0 REVERT JUMPDEST POP SWAP2 SWAP1 POP JUMP JUMPDEST PUSH1 0xC0 DUP2 MSTORE PUSH1 0x0 PUSH3 0xB16 PUSH1 0xC0 DUP4 ADD DUP10 PUSH3 0xA41 JUMP JUMPDEST PUSH1 0x20 DUP4 DUP3 SUB DUP2 DUP6 ADD MSTORE PUSH3 0xB2B DUP3 DUP11 PUSH3 0xA41 JUMP JUMPDEST PUSH1 0xFF DUP10 AND PUSH1 0x40 DUP7 ADD MSTORE PUSH1 0x60 DUP6 ADD DUP9 SWAP1 MSTORE PUSH1 0x1 PUSH1 0x1 PUSH1 0xA0 SHL SUB DUP8 AND PUSH1 0x80 DUP7 ADD MSTORE DUP5 DUP2 SUB PUSH1 0xA0 DUP7 ADD MSTORE DUP6 SLOAD SWAP1 SWAP3 POP PUSH1 0x0 SWAP1 PUSH3 0xB65 DUP2 PUSH3 0xAC5 JUMP JUMPDEST DUP1 DUP6 MSTORE PUSH1 0x1 DUP3 DUP2 AND DUP1 ISZERO PUSH3 0xB83 JUMPI PUSH1 0x1 DUP2 EQ PUSH3 0xB9E JUMPI PUSH3 0xBCE JUMP JUMPDEST PUSH1 0xFF NOT DUP5 AND DUP8 DUP8 ADD MSTORE DUP3 ISZERO ISZERO PUSH1 0x5 SHL DUP8 ADD DUP7 ADD SWAP5 POP PUSH3 0xBCE JUMP JUMPDEST DUP10 PUSH1 0x0 MSTORE DUP6 PUSH1 0x0 KECCAK256 PUSH1 0x0 JUMPDEST DUP5 DUP2 LT ISZERO PUSH3 0xBC6 JUMPI DUP2 SLOAD DUP10 DUP3 ADD DUP10 ADD MSTORE SWAP1 DUP4 ADD SWAP1 DUP8 ADD PUSH3 0xBA9 JUMP JUMPDEST DUP9 ADD DUP8 ADD SWAP6 POP POP JUMPDEST POP SWAP3 SWAP14 SWAP13 POP POP POP POP POP POP POP POP POP POP POP POP POP JUMP JUMPDEST PUSH1 0x0 PUSH1 0x1 DUP3 ADD PUSH3 0xC02 JUMPI PUSH4 0x4E487B71 PUSH1 0xE0 SHL PUSH1 0x0 MSTORE PUSH1 0x11 PUSH1 0x4 MSTORE PUSH1 0x24 PUSH1 0x0 REVERT JUMPDEST POP PUSH1 0x1 ADD SWAP1 JUMP JUMPDEST PUSH1 0x0 DUP1 DUP5 SLOAD PUSH3 0xC19 DUP2 PUSH3 0xAC5 JUMP JUMPDEST PUSH1 0x1 DUP3 DUP2 AND DUP1 ISZERO PUSH3 0xC34 JUMPI PUSH1 0x1 DUP2 EQ PUSH3 0xC4A JUMPI PUSH3 0xC7B JUMP JUMPDEST PUSH1 0xFF NOT DUP5 AND DUP8 MSTORE DUP3 ISZERO ISZERO DUP4 MUL DUP8 ADD SWAP5 POP PUSH3 0xC7B JUMP JUMPDEST DUP9 PUSH1 0x0 MSTORE PUSH1 0x20 DUP1 PUSH1 0x0 KECCAK256 PUSH1 0x0 JUMPDEST DUP6 DUP2 LT ISZERO PUSH3 0xC72 JUMPI DUP2 SLOAD DUP11 DUP3 ADD MSTORE SWAP1 DUP5 ADD SWAP1 DUP3 ADD PUSH3 0xC57 JUMP JUMPDEST POP POP POP DUP3 DUP8 ADD SWAP5 POP JUMPDEST POP POP POP POP DUP4 MLOAD PUSH3 0xC91 DUP2 DUP4 PUSH1 0x20 DUP9 ADD PUSH3 0xA1B JUMP JUMPDEST ADD SWAP5 SWAP4 POP POP POP POP JUMP JUMPDEST PUSH1 0x1F DUP3 GT ISZERO PUSH3 0xCE8 JUMPI PUSH1 0x0 DUP2 DUP2 MSTORE PUSH1 0x20 DUP2 KECCAK256 PUSH1 0x1F DUP6 ADD PUSH1 0x5 SHR DUP2 ADD PUSH1 0x20 DUP7 LT ISZERO PUSH3 0xCC3 JUMPI POP DUP1 JUMPDEST PUSH1 0x1F DUP6 ADD PUSH1 0x5 SHR DUP3 ADD SWAP2 POP JUMPDEST DUP2 DUP2 LT ISZERO PUSH3 0xCE4 JUMPI DUP3 DUP2 SSTORE PUSH1 0x1 ADD PUSH3 0xCCF JUMP JUMPDEST POP POP POP JUMPDEST POP POP POP JUMP JUMPDEST DUP2 MLOAD PUSH8 0xFFFFFFFFFFFFFFFF DUP2 GT ISZERO PUSH3 0xD0A JUMPI PUSH3 0xD0A PUSH3 0x873 JUMP JUMPDEST PUSH3 0xD22 DUP2 PUSH3 0xD1B DUP5 SLOAD PUSH3 0xAC5 JUMP JUMPDEST DUP5 PUSH3 0xC9A JUMP JUMPDEST PUSH1 0x20 DUP1 PUSH1 0x1F DUP4 GT PUSH1 0x1 DUP2 EQ PUSH3 0xD5A JUMPI PUSH1 0x0 DUP5 ISZERO PUSH3 0xD41 JUMPI POP DUP6 DUP4 ADD MLOAD JUMPDEST PUSH1 0x0 NOT PUSH1 0x3 DUP7 SWAP1 SHL SHR NOT AND PUSH1 0x1 DUP6 SWAP1 SHL OR DUP6 SSTORE PUSH3 0xCE4 JUMP JUMPDEST PUSH1 0x0 DUP6 DUP2 MSTORE PUSH1 0x20 DUP2 KECCAK256 PUSH1 0x1F NOT DUP7 AND SWAP2 JUMPDEST DUP3 DUP2 LT ISZERO PUSH3 0xD8B JUMPI DUP9 DUP7 ADD MLOAD DUP3 SSTORE SWAP5 DUP5 ADD SWAP5 PUSH1 0x1 SWAP1 SWAP2 ADD SWAP1 DUP5 ADD PUSH3 0xD6A JUMP JUMPDEST POP DUP6 DUP3 LT ISZERO PUSH3 0xDAA JUMPI DUP8 DUP6 ADD MLOAD PUSH1 0x0 NOT PUSH1 0x3 DUP9 SWAP1 SHL PUSH1 0xF8 AND SHR NOT AND DUP2 SSTORE JUMPDEST POP POP POP POP POP PUSH1 0x1 SWAP1 DUP2 SHL ADD SWAP1 SSTORE POP JUMP INVALID PUSH2 0x100 PUSH1 0x40 MSTORE CALLVALUE DUP1 ISZERO PUSH3 0x12 JUMPI PUSH1 0x0 DUP1 REVERT JUMPDEST POP PUSH1 0x40 MLOAD PUSH3 0x36C7 CODESIZE SUB DUP1 PUSH3 0x36C7 DUP4 CODECOPY DUP2 ADD PUSH1 0x40 DUP2 SWAP1 MSTORE PUSH3 0x35 SWAP2 PUSH3 0xCB1 JUMP JUMPDEST DUP6 DUP6 DUP6 PUSH3 0x43 CALLER PUSH3 0xF9 JUMP JUMPDEST PUSH1 0x3 PUSH3 0x51 DUP5 DUP3 PUSH3 0xE08 JUMP JUMPDEST POP PUSH1 0x4 PUSH3 0x60 DUP4 DUP3 PUSH3 0xE08 JUMP JUMPDEST POP PUSH1 0x12 DUP2 PUSH1 0xFF AND LT ISZERO PUSH3 0x87 JUMPI PUSH1 0x40 MLOAD PUSH4 0x98790FD5 PUSH1 0xE0 SHL DUP2 MSTORE PUSH1 0x4 ADD PUSH1 0x40 MLOAD DUP1 SWAP2 SUB SWAP1 REVERT JUMPDEST PUSH1 0xFF DUP2 AND PUSH1 0x80 DUP2 SWAP1 MSTORE PUSH3 0x9D SWAP1 PUSH1 0xA PUSH3 0xFE7 JUMP JUMPDEST PUSH1 0xA0 MSTORE CHAINID PUSH1 0xC0 MSTORE PUSH3 0xAE PUSH3 0x149 JUMP JUMPDEST PUSH1 0xE0 MSTORE POP PUSH1 0xF SWAP2 POP PUSH3 0xC4 SWAP1 POP DUP3 DUP3 PUSH3 0xE08 JUMP JUMPDEST POP PUSH3 0xD2 DUP3 PUSH1 0x1 PUSH3 0x1E5 JUMP JUMPDEST PUSH3 0xED DUP3 PUSH1 0xA0 MLOAD DUP6 PUSH3 0xE7 SWAP2 SWAP1 PUSH3 0xFFF JUMP JUMPDEST PUSH3 0x25B JUMP JUMPDEST POP POP POP POP POP POP PUSH3 0x112E JUMP JUMPDEST PUSH1 0x0 DUP1 SLOAD PUSH1 0x1 PUSH1 0x1 PUSH1 0xA0 SHL SUB DUP4 DUP2 AND PUSH1 0x1 PUSH1 0x1 PUSH1 0xA0 SHL SUB NOT DUP4 AND DUP2 OR DUP5 SSTORE PUSH1 0x40 MLOAD SWAP2 SWAP1 SWAP3 AND SWAP3 DUP4 SWAP2 PUSH32 0x8BE0079C531659141344CD1FD0A4F28419497F9722A3DAAFE3B4186F6B6457E0 SWAP2 SWAP1 LOG3 POP POP JUMP JUMPDEST PUSH1 0x0 PUSH32 0x8B73C3C69BB8FE3D512ECC4CF759CC79239F7B179B0FFACAA9A75D522B39400F PUSH1 0x3 PUSH1 0x40 MLOAD PUSH3 0x17D SWAP2 SWAP1 PUSH3 0x1019 JUMP JUMPDEST PUSH1 0x40 DUP1 MLOAD SWAP2 DUP3 SWAP1 SUB DUP3 KECCAK256 PUSH1 0x20 DUP4 ADD SWAP4 SWAP1 SWAP4 MSTORE DUP2 ADD SWAP2 SWAP1 SWAP2 MSTORE PUSH32 0xC89EFDAA54C0F20C7ADF612882DF0950F5A951637E0307CDCB4C672F298B8BC6 PUSH1 0x60 DUP3 ADD MSTORE CHAINID PUSH1 0x80 DUP3 ADD MSTORE ADDRESS PUSH1 0xA0 DUP3 ADD MSTORE PUSH1 0xC0 ADD PUSH1 0x40 MLOAD PUSH1 0x20 DUP2 DUP4 SUB SUB DUP2 MSTORE SWAP1 PUSH1 0x40 MSTORE DUP1 MLOAD SWAP1 PUSH1 0x20 ADD KECCAK256 SWAP1 POP SWAP1 JUMP JUMPDEST PUSH1 0x1 PUSH1 0x1 PUSH1 0xA0 SHL SUB DUP3 AND PUSH3 0x20D JUMPI PUSH1 0x40 MLOAD PUSH4 0xA41E3D3F PUSH1 0xE0 SHL DUP2 MSTORE PUSH1 0x4 ADD PUSH1 0x40 MLOAD DUP1 SWAP2 SUB SWAP1 REVERT JUMPDEST DUP1 ISZERO PUSH3 0x225 JUMPI PUSH3 0x21F DUP3 PUSH3 0x2CB JUMP JUMPDEST PUSH3 0x230 JUMP JUMPDEST PUSH3 0x230 DUP3 PUSH3 0x303 JUMP JUMPDEST PUSH1 0x1 PUSH1 0x1 PUSH1 0xA0 SHL SUB SWAP2 SWAP1 SWAP2 AND PUSH1 0x0 SWAP1 DUP2 MSTORE PUSH1 0xD PUSH1 0x20 MSTORE PUSH1 0x40 SWAP1 KECCAK256 DUP1 SLOAD PUSH1 0xFF NOT AND SWAP2 ISZERO ISZERO SWAP2 SWAP1 SWAP2 OR SWAP1 SSTORE JUMP JUMPDEST PUSH1 0x1 PUSH1 0x1 PUSH1 0xA0 SHL SUB DUP3 AND PUSH3 0x283 JUMPI PUSH1 0x40 MLOAD PUSH4 0x4E469669 PUSH1 0xE1 SHL DUP2 MSTORE PUSH1 0x4 ADD PUSH1 0x40 MLOAD DUP1 SWAP2 SUB SWAP1 REVERT JUMPDEST PUSH1 0x1 PUSH1 0xFF SHL DUP2 PUSH1 0x5 SLOAD PUSH3 0x298 SWAP2 SWAP1 PUSH3 0x1097 JUMP JUMPDEST GT ISZERO PUSH3 0x2B8 JUMPI PUSH1 0x40 MLOAD PUSH4 0x303B682F PUSH1 0xE0 SHL DUP2 MSTORE PUSH1 0x4 ADD PUSH1 0x40 MLOAD DUP1 SWAP2 SUB SWAP1 REVERT JUMPDEST PUSH3 0x2C6 PUSH1 0x0 DUP4 DUP4 PUSH3 0x38C JUMP JUMPDEST POP POP POP JUMP JUMPDEST PUSH1 0x1 PUSH1 0x1 PUSH1 0xA0 SHL SUB DUP2 AND PUSH1 0x0 SWAP1 DUP2 MSTORE PUSH1 0xC PUSH1 0x20 MSTORE PUSH1 0x40 DUP2 KECCAK256 SLOAD SWAP1 JUMPDEST DUP2 DUP2 LT ISZERO PUSH3 0x2C6 JUMPI PUSH3 0x2FA DUP4 PUSH3 0x63B JUMP JUMPDEST PUSH1 0x1 ADD PUSH3 0x2E6 JUMP JUMPDEST PUSH1 0xA0 MLOAD PUSH1 0x0 SWAP1 PUSH3 0x329 DUP4 PUSH1 0x1 PUSH1 0x1 PUSH1 0xA0 SHL SUB AND PUSH1 0x0 SWAP1 DUP2 MSTORE PUSH1 0x7 PUSH1 0x20 MSTORE PUSH1 0x40 SWAP1 KECCAK256 SLOAD SWAP1 JUMP JUMPDEST PUSH3 0x335 SWAP2 SWAP1 PUSH3 0x10AD JUMP JUMPDEST SWAP1 POP PUSH1 0x0 PUSH3 0x359 DUP4 PUSH1 0x1 PUSH1 0x1 PUSH1 0xA0 SHL SUB AND PUSH1 0x0 SWAP1 DUP2 MSTORE PUSH1 0xC PUSH1 0x20 MSTORE PUSH1 0x40 SWAP1 KECCAK256 SLOAD SWAP1 JUMP JUMPDEST SWAP1 POP PUSH1 0x0 JUMPDEST PUSH3 0x36A DUP3 DUP5 PUSH3 0x10D0 JUMP JUMPDEST DUP2 LT ISZERO PUSH3 0x386 JUMPI PUSH3 0x37D DUP5 PUSH3 0x6D0 JUMP JUMPDEST PUSH1 0x1 ADD PUSH3 0x35E JUMP JUMPDEST POP POP POP POP JUMP JUMPDEST PUSH1 0x1 PUSH1 0x1 PUSH1 0xA0 SHL SUB DUP4 DUP2 AND PUSH1 0x0 SWAP1 DUP2 MSTORE PUSH1 0x7 PUSH1 0x20 MSTORE PUSH1 0x40 DUP1 DUP3 KECCAK256 SLOAD SWAP3 DUP6 AND DUP3 MSTORE DUP2 KECCAK256 SLOAD SWAP1 SWAP2 SWAP1 PUSH3 0x3BF DUP7 DUP7 DUP7 PUSH3 0x7C6 JUMP JUMPDEST PUSH1 0x0 PUSH3 0x3CC DUP8 PUSH3 0x878 JUMP JUMPDEST SWAP1 POP PUSH1 0x0 PUSH3 0x3DB DUP8 PUSH3 0x878 JUMP JUMPDEST SWAP1 POP DUP2 DUP1 ISZERO PUSH3 0x3E8 JUMPI POP DUP1 JUMPDEST PUSH3 0x62D JUMPI DUP2 ISZERO PUSH3 0x464 JUMPI PUSH1 0x0 PUSH1 0xA0 MLOAD DUP5 PUSH3 0x406 SWAP2 SWAP1 PUSH3 0x10AD JUMP JUMPDEST PUSH1 0xA0 MLOAD PUSH1 0x1 PUSH1 0x1 PUSH1 0xA0 SHL SUB DUP11 AND PUSH1 0x0 SWAP1 DUP2 MSTORE PUSH1 0x7 PUSH1 0x20 MSTORE PUSH1 0x40 SWAP1 KECCAK256 SLOAD PUSH3 0x42E SWAP2 SWAP1 PUSH3 0x10AD JUMP JUMPDEST PUSH3 0x43A SWAP2 SWAP1 PUSH3 0x10D0 JUMP JUMPDEST SWAP1 POP PUSH1 0x0 JUMPDEST DUP2 DUP2 LT ISZERO PUSH3 0x45C JUMPI PUSH3 0x453 DUP10 PUSH3 0x6D0 JUMP JUMPDEST PUSH1 0x1 ADD PUSH3 0x43F JUMP JUMPDEST POP POP PUSH3 0x62D JUMP JUMPDEST DUP1 ISZERO PUSH3 0x4D1 JUMPI PUSH1 0xA0 MLOAD PUSH1 0x1 PUSH1 0x1 PUSH1 0xA0 SHL SUB DUP10 AND PUSH1 0x0 SWAP1 DUP2 MSTORE PUSH1 0x7 PUSH1 0x20 MSTORE PUSH1 0x40 DUP2 KECCAK256 SLOAD SWAP1 SWAP2 PUSH3 0x494 SWAP2 PUSH3 0x10AD JUMP JUMPDEST PUSH1 0xA0 MLOAD PUSH3 0x4A3 SWAP1 DUP8 PUSH3 0x10AD JUMP JUMPDEST PUSH3 0x4AF SWAP2 SWAP1 PUSH3 0x10D0 JUMP JUMPDEST SWAP1 POP PUSH1 0x0 JUMPDEST DUP2 DUP2 LT ISZERO PUSH3 0x45C JUMPI PUSH3 0x4C8 DUP11 PUSH3 0x63B JUMP JUMPDEST PUSH1 0x1 ADD PUSH3 0x4B4 JUMP JUMPDEST PUSH1 0x0 PUSH1 0xA0 MLOAD DUP8 PUSH3 0x4E3 SWAP2 SWAP1 PUSH3 0x10AD JUMP JUMPDEST SWAP1 POP PUSH1 0x0 JUMPDEST DUP2 DUP2 LT ISZERO PUSH3 0x575 JUMPI PUSH1 0x1 PUSH1 0x1 PUSH1 0xA0 SHL SUB DUP11 AND PUSH1 0x0 SWAP1 DUP2 MSTORE PUSH1 0xC PUSH1 0x20 MSTORE PUSH1 0x40 DUP2 KECCAK256 SLOAD PUSH3 0x518 SWAP1 PUSH1 0x1 SWAP1 PUSH3 0x10D0 JUMP JUMPDEST PUSH1 0x1 PUSH1 0x1 PUSH1 0xA0 SHL SUB DUP13 AND PUSH1 0x0 SWAP1 DUP2 MSTORE PUSH1 0xC PUSH1 0x20 MSTORE PUSH1 0x40 DUP2 KECCAK256 DUP1 SLOAD SWAP3 SWAP4 POP SWAP1 SWAP2 DUP4 SWAP1 DUP2 LT PUSH3 0x54A JUMPI PUSH3 0x54A PUSH3 0x10E6 JUMP JUMPDEST SWAP1 PUSH1 0x0 MSTORE PUSH1 0x20 PUSH1 0x0 KECCAK256 ADD SLOAD SWAP1 POP PUSH3 0x56A DUP13 DUP13 DUP4 PUSH3 0x8AF PUSH1 0x20 SHL PUSH1 0x20 SHR JUMP JUMPDEST POP POP PUSH1 0x1 ADD PUSH3 0x4E8 JUMP JUMPDEST POP PUSH1 0xA0 MLOAD DUP2 SWAP1 PUSH3 0x59B DUP12 PUSH1 0x1 PUSH1 0x1 PUSH1 0xA0 SHL SUB AND PUSH1 0x0 SWAP1 DUP2 MSTORE PUSH1 0x7 PUSH1 0x20 MSTORE PUSH1 0x40 SWAP1 KECCAK256 SLOAD SWAP1 JUMP JUMPDEST PUSH3 0x5A7 SWAP2 SWAP1 PUSH3 0x10AD JUMP JUMPDEST PUSH1 0xA0 MLOAD PUSH3 0x5B6 SWAP1 DUP9 PUSH3 0x10AD JUMP JUMPDEST PUSH3 0x5C2 SWAP2 SWAP1 PUSH3 0x10D0 JUMP JUMPDEST GT ISZERO PUSH3 0x5D4 JUMPI PUSH3 0x5D4 DUP10 PUSH3 0x63B JUMP JUMPDEST DUP1 PUSH1 0xA0 MLOAD DUP6 PUSH3 0x5E5 SWAP2 SWAP1 PUSH3 0x10AD JUMP JUMPDEST PUSH1 0xA0 MLOAD PUSH1 0x1 PUSH1 0x1 PUSH1 0xA0 SHL SUB DUP12 AND PUSH1 0x0 SWAP1 DUP2 MSTORE PUSH1 0x7 PUSH1 0x20 MSTORE PUSH1 0x40 SWAP1 KECCAK256 SLOAD PUSH3 0x60D SWAP2 SWAP1 PUSH3 0x10AD JUMP JUMPDEST PUSH3 0x619 SWAP2 SWAP1 PUSH3 0x10D0 JUMP JUMPDEST GT ISZERO PUSH3 0x62B JUMPI PUSH3 0x62B DUP9 PUSH3 0x6D0 JUMP JUMPDEST POP JUMPDEST POP PUSH1 0x1 SWAP8 SWAP7 POP POP POP POP POP POP POP JUMP JUMPDEST PUSH1 0x1 PUSH1 0x1 PUSH1 0xA0 SHL SUB DUP2 AND PUSH3 0x663 JUMPI PUSH1 0x40 MLOAD PUSH4 0x6EDAEF2F PUSH1 0xE1 SHL DUP2 MSTORE PUSH1 0x4 ADD PUSH1 0x40 MLOAD DUP1 SWAP2 SUB SWAP1 REVERT JUMPDEST PUSH1 0x1 PUSH1 0x1 PUSH1 0xA0 SHL SUB DUP2 AND PUSH1 0x0 SWAP1 DUP2 MSTORE PUSH1 0xC PUSH1 0x20 MSTORE PUSH1 0x40 DUP2 KECCAK256 DUP1 SLOAD PUSH3 0x68B SWAP1 PUSH1 0x1 SWAP1 PUSH3 0x10D0 JUMP JUMPDEST DUP2 SLOAD DUP2 LT PUSH3 0x69E JUMPI PUSH3 0x69E PUSH3 0x10E6 JUMP JUMPDEST SWAP1 PUSH1 0x0 MSTORE PUSH1 0x20 PUSH1 0x0 KECCAK256 ADD SLOAD SWAP1 POP PUSH3 0x6BF DUP3 PUSH1 0x0 DUP4 PUSH3 0x8AF PUSH1 0x20 SHL PUSH1 0x20 SHR JUMP JUMPDEST PUSH3 0x6CC PUSH1 0x1 DUP3 PUSH3 0xA8B JUMP JUMPDEST POP POP JUMP JUMPDEST PUSH1 0x1 PUSH1 0x1 PUSH1 0xA0 SHL SUB DUP2 AND PUSH3 0x6F8 JUMPI PUSH1 0x40 MLOAD PUSH4 0x4E469669 PUSH1 0xE1 SHL DUP2 MSTORE PUSH1 0x4 ADD PUSH1 0x40 MLOAD DUP1 SWAP2 SUB SWAP1 REVERT JUMPDEST PUSH1 0x0 PUSH3 0x719 PUSH1 0x1 SLOAD PUSH1 0x1 PUSH1 0x80 SHL DUP2 DIV PUSH1 0x1 PUSH1 0x1 PUSH1 0x80 SHL SUB SWAP1 DUP2 AND SWAP2 AND EQ SWAP1 JUMP JUMPDEST PUSH3 0x732 JUMPI PUSH3 0x72A PUSH1 0x1 PUSH3 0xAF6 JUMP JUMPDEST SWAP1 POP PUSH3 0x781 JUMP JUMPDEST PUSH1 0x6 PUSH1 0x0 DUP2 SLOAD PUSH3 0x743 SWAP1 PUSH3 0x10FC JUMP JUMPDEST SWAP1 SWAP2 SSTORE POP PUSH1 0x6 SLOAD PUSH1 0x1 ADD PUSH3 0x76B JUMPI PUSH1 0x40 MLOAD PUSH4 0x303B682F PUSH1 0xE0 SHL DUP2 MSTORE PUSH1 0x4 ADD PUSH1 0x40 MLOAD DUP1 SWAP2 SUB SWAP1 REVERT JUMPDEST PUSH1 0x6 SLOAD PUSH3 0x77E SWAP1 PUSH1 0x1 PUSH1 0xFF SHL PUSH3 0x1097 JUMP JUMPDEST SWAP1 POP JUMPDEST PUSH1 0x0 DUP2 DUP2 MSTORE PUSH1 0xB PUSH1 0x20 MSTORE PUSH1 0x40 SWAP1 KECCAK256 SLOAD PUSH1 0x1 PUSH1 0x1 PUSH1 0xA0 SHL SUB AND DUP1 ISZERO PUSH3 0x7B9 JUMPI PUSH1 0x40 MLOAD PUSH4 0x119B4FD3 PUSH1 0xE1 SHL DUP2 MSTORE PUSH1 0x4 ADD PUSH1 0x40 MLOAD DUP1 SWAP2 SUB SWAP1 REVERT JUMPDEST PUSH3 0x2C6 DUP2 DUP5 DUP5 PUSH3 0x8AF JUMP JUMPDEST PUSH1 0x1 PUSH1 0x1 PUSH1 0xA0 SHL SUB DUP4 AND PUSH3 0x7F5 JUMPI DUP1 PUSH1 0x5 PUSH1 0x0 DUP3 DUP3 SLOAD PUSH3 0x7E9 SWAP2 SWAP1 PUSH3 0x1097 JUMP JUMPDEST SWAP1 SWAP2 SSTORE POP PUSH3 0x825 SWAP1 POP JUMP JUMPDEST PUSH1 0x1 PUSH1 0x1 PUSH1 0xA0 SHL SUB DUP4 AND PUSH1 0x0 SWAP1 DUP2 MSTORE PUSH1 0x7 PUSH1 0x20 MSTORE PUSH1 0x40 DUP2 KECCAK256 DUP1 SLOAD DUP4 SWAP3 SWAP1 PUSH3 0x81F SWAP1 DUP5 SWAP1 PUSH3 0x10D0 JUMP JUMPDEST SWAP1 SWAP2 SSTORE POP POP JUMPDEST PUSH1 0x1 PUSH1 0x1 PUSH1 0xA0 SHL SUB DUP1 DUP4 AND PUSH1 0x0 DUP2 DUP2 MSTORE PUSH1 0x7 PUSH1 0x20 MSTORE PUSH1 0x40 SWAP1 DUP2 SWAP1 KECCAK256 DUP1 SLOAD DUP6 ADD SWAP1 SSTORE MLOAD SWAP1 SWAP2 DUP6 AND SWAP1 PUSH1 0x0 DUP1 MLOAD PUSH1 0x20 PUSH3 0x36A7 DUP4 CODECOPY DUP2 MLOAD SWAP2 MSTORE SWAP1 PUSH3 0x86B SWAP1 DUP6 DUP2 MSTORE PUSH1 0x20 ADD SWAP1 JUMP JUMPDEST PUSH1 0x40 MLOAD DUP1 SWAP2 SUB SWAP1 LOG3 POP POP POP JUMP JUMPDEST PUSH1 0x0 PUSH1 0x1 PUSH1 0x1 PUSH1 0xA0 SHL SUB DUP3 AND ISZERO DUP1 PUSH3 0x8A9 JUMPI POP PUSH1 0x1 PUSH1 0x1 PUSH1 0xA0 SHL SUB DUP3 AND PUSH1 0x0 SWAP1 DUP2 MSTORE PUSH1 0xD PUSH1 0x20 MSTORE PUSH1 0x40 SWAP1 KECCAK256 SLOAD PUSH1 0xFF AND JUMPDEST SWAP3 SWAP2 POP POP JUMP JUMPDEST PUSH1 0x1 PUSH1 0x1 PUSH1 0xA0 SHL SUB DUP4 AND ISZERO PUSH3 0x9C9 JUMPI PUSH1 0x0 DUP2 DUP2 MSTORE PUSH1 0x9 PUSH1 0x20 SWAP1 DUP2 MSTORE PUSH1 0x40 DUP1 DUP4 KECCAK256 DUP1 SLOAD PUSH1 0x1 PUSH1 0x1 PUSH1 0xA0 SHL SUB NOT AND SWAP1 SSTORE PUSH1 0x1 PUSH1 0x1 PUSH1 0xA0 SHL SUB DUP7 AND DUP4 MSTORE PUSH1 0xC SWAP1 SWAP2 MSTORE DUP2 KECCAK256 DUP1 SLOAD PUSH3 0x901 SWAP1 PUSH1 0x1 SWAP1 PUSH3 0x10D0 JUMP JUMPDEST DUP2 SLOAD DUP2 LT PUSH3 0x914 JUMPI PUSH3 0x914 PUSH3 0x10E6 JUMP JUMPDEST SWAP1 PUSH1 0x0 MSTORE PUSH1 0x20 PUSH1 0x0 KECCAK256 ADD SLOAD SWAP1 POP DUP2 DUP2 EQ PUSH3 0x987 JUMPI PUSH1 0x0 DUP3 DUP2 MSTORE PUSH1 0xB PUSH1 0x20 MSTORE PUSH1 0x40 DUP2 KECCAK256 SLOAD PUSH1 0xA0 SHR PUSH1 0x1 PUSH1 0x1 PUSH1 0xA0 SHL SUB DUP7 AND PUSH1 0x0 SWAP1 DUP2 MSTORE PUSH1 0xC PUSH1 0x20 MSTORE PUSH1 0x40 SWAP1 KECCAK256 DUP1 SLOAD SWAP2 SWAP3 POP DUP4 SWAP2 DUP4 SWAP1 DUP2 LT PUSH3 0x96D JUMPI PUSH3 0x96D PUSH3 0x10E6 JUMP JUMPDEST PUSH1 0x0 SWAP2 DUP3 MSTORE PUSH1 0x20 SWAP1 SWAP2 KECCAK256 ADD SSTORE PUSH3 0x985 DUP3 DUP3 PUSH3 0xB67 JUMP JUMPDEST POP JUMPDEST PUSH1 0x1 PUSH1 0x1 PUSH1 0xA0 SHL SUB DUP5 AND PUSH1 0x0 SWAP1 DUP2 MSTORE PUSH1 0xC PUSH1 0x20 MSTORE PUSH1 0x40 SWAP1 KECCAK256 DUP1 SLOAD DUP1 PUSH3 0x9B1 JUMPI PUSH3 0x9B1 PUSH3 0x1118 JUMP JUMPDEST PUSH1 0x1 SWAP1 SUB DUP2 DUP2 SWAP1 PUSH1 0x0 MSTORE PUSH1 0x20 PUSH1 0x0 KECCAK256 ADD PUSH1 0x0 SWAP1 SSTORE SWAP1 SSTORE POP JUMPDEST PUSH1 0x1 PUSH1 0x1 PUSH1 0xA0 SHL SUB DUP3 AND ISZERO PUSH3 0xA46 JUMPI PUSH1 0x0 DUP2 DUP2 MSTORE PUSH1 0xB PUSH1 0x20 SWAP1 DUP2 MSTORE PUSH1 0x40 DUP1 DUP4 KECCAK256 DUP1 SLOAD PUSH1 0x1 PUSH1 0x1 PUSH1 0xA0 SHL SUB NOT AND PUSH1 0x1 PUSH1 0x1 PUSH1 0xA0 SHL SUB DUP8 AND SWAP1 DUP2 ADD SWAP1 SWAP2 SSTORE DUP1 DUP5 MSTORE PUSH1 0xC DUP4 MSTORE SWAP1 DUP4 KECCAK256 DUP1 SLOAD PUSH1 0x1 DUP2 DUP2 ADD DUP4 SSTORE DUP3 DUP7 MSTORE SWAP4 DUP6 KECCAK256 ADD DUP6 SWAP1 SSTORE SWAP3 MSTORE SWAP1 SLOAD PUSH3 0xA40 SWAP2 DUP4 SWAP2 PUSH3 0xA3A SWAP2 SWAP1 PUSH3 0x10D0 JUMP JUMPDEST PUSH3 0xB67 JUMP JUMPDEST PUSH3 0xA56 JUMP JUMPDEST PUSH1 0x0 DUP2 DUP2 MSTORE PUSH1 0xB PUSH1 0x20 MSTORE PUSH1 0x40 DUP2 KECCAK256 SSTORE JUMPDEST DUP1 DUP3 PUSH1 0x1 PUSH1 0x1 PUSH1 0xA0 SHL SUB AND DUP5 PUSH1 0x1 PUSH1 0x1 PUSH1 0xA0 SHL SUB AND PUSH1 0x0 DUP1 MLOAD PUSH1 0x20 PUSH3 0x36A7 DUP4 CODECOPY DUP2 MLOAD SWAP2 MSTORE PUSH1 0x40 MLOAD PUSH1 0x40 MLOAD DUP1 SWAP2 SUB SWAP1 LOG4 POP POP POP JUMP JUMPDEST DUP2 SLOAD PUSH1 0x1 PUSH1 0x1 PUSH1 0x80 SHL SUB DUP1 DUP3 AND PUSH1 0x0 NOT ADD SWAP2 PUSH1 0x1 PUSH1 0x80 SHL SWAP1 DIV DUP2 AND SWAP1 DUP3 AND SUB PUSH3 0xAC8 JUMPI PUSH1 0x40 MLOAD PUSH4 0x8ACB5F27 PUSH1 0xE0 SHL DUP2 MSTORE PUSH1 0x4 ADD PUSH1 0x40 MLOAD DUP1 SWAP2 SUB SWAP1 REVERT JUMPDEST PUSH1 0x1 PUSH1 0x1 PUSH1 0x80 SHL SUB AND PUSH1 0x0 DUP2 DUP2 MSTORE PUSH1 0x1 DUP5 ADD PUSH1 0x20 MSTORE PUSH1 0x40 SWAP1 KECCAK256 SWAP2 SWAP1 SWAP2 SSTORE DUP2 SLOAD PUSH1 0x1 PUSH1 0x1 PUSH1 0x80 SHL SUB NOT AND OR SWAP1 SSTORE JUMP JUMPDEST DUP1 SLOAD PUSH1 0x0 SWAP1 PUSH1 0x1 PUSH1 0x1 PUSH1 0x80 SHL SUB PUSH1 0x1 PUSH1 0x80 SHL DUP3 DIV DUP2 AND SWAP2 AND DUP2 SUB PUSH3 0xB2E JUMPI PUSH1 0x40 MLOAD PUSH4 0x75E52F4F PUSH1 0xE0 SHL DUP2 MSTORE PUSH1 0x4 ADD PUSH1 0x40 MLOAD DUP1 SWAP2 SUB SWAP1 REVERT JUMPDEST PUSH1 0x0 NOT ADD PUSH1 0x1 PUSH1 0x1 PUSH1 0x80 SHL SUB SWAP1 DUP2 AND PUSH1 0x0 DUP2 DUP2 MSTORE PUSH1 0x1 DUP6 ADD PUSH1 0x20 MSTORE PUSH1 0x40 DUP2 KECCAK256 DUP1 SLOAD SWAP2 SWAP1 SSTORE DUP5 SLOAD SWAP1 SWAP3 AND PUSH1 0x1 PUSH1 0x80 SHL SWAP1 SWAP2 MUL OR SWAP1 SWAP3 SSTORE POP SWAP1 JUMP JUMPDEST PUSH1 0x0 DUP3 DUP2 MSTORE PUSH1 0xB PUSH1 0x20 MSTORE PUSH1 0x40 SWAP1 KECCAK256 SLOAD PUSH1 0x1 PUSH1 0x1 PUSH1 0x60 SHL SUB DUP3 GT ISZERO PUSH3 0xB9F JUMPI PUSH1 0x40 MLOAD PUSH4 0x3F2CD0E3 PUSH1 0xE2 SHL DUP2 MSTORE PUSH1 0x4 ADD PUSH1 0x40 MLOAD DUP1 SWAP2 SUB SWAP1 REVERT JUMPDEST PUSH1 0x0 SWAP3 DUP4 MSTORE PUSH1 0xB PUSH1 0x20 MSTORE PUSH1 0x40 SWAP1 SWAP3 KECCAK256 PUSH1 0x1 PUSH1 0x1 PUSH1 0xA0 SHL SUB SWAP3 SWAP1 SWAP3 AND PUSH1 0xA0 SWAP2 SWAP1 SWAP2 SHL PUSH1 0x1 PUSH1 0x1 PUSH1 0xA0 SHL SUB NOT AND ADD SWAP1 SSTORE JUMP JUMPDEST PUSH4 0x4E487B71 PUSH1 0xE0 SHL PUSH1 0x0 MSTORE PUSH1 0x41 PUSH1 0x4 MSTORE PUSH1 0x24 PUSH1 0x0 REVERT JUMPDEST PUSH1 0x0 DUP3 PUSH1 0x1F DUP4 ADD SLT PUSH3 0xBF7 JUMPI PUSH1 0x0 DUP1 REVERT JUMPDEST DUP2 MLOAD PUSH1 0x1 PUSH1 0x1 PUSH1 0x40 SHL SUB DUP1 DUP3 GT ISZERO PUSH3 0xC14 JUMPI PUSH3 0xC14 PUSH3 0xBCF JUMP JUMPDEST PUSH1 0x40 MLOAD PUSH1 0x1F DUP4 ADD PUSH1 0x1F NOT SWAP1 DUP2 AND PUSH1 0x3F ADD AND DUP2 ADD SWAP1 DUP3 DUP3 GT DUP2 DUP4 LT OR ISZERO PUSH3 0xC3F JUMPI PUSH3 0xC3F PUSH3 0xBCF JUMP JUMPDEST DUP2 PUSH1 0x40 MSTORE DUP4 DUP2 MSTORE PUSH1 0x20 SWAP3 POP DUP7 DUP4 DUP6 DUP9 ADD ADD GT ISZERO PUSH3 0xC5C JUMPI PUSH1 0x0 DUP1 REVERT JUMPDEST PUSH1 0x0 SWAP2 POP JUMPDEST DUP4 DUP3 LT ISZERO PUSH3 0xC80 JUMPI DUP6 DUP3 ADD DUP4 ADD MLOAD DUP2 DUP4 ADD DUP5 ADD MSTORE SWAP1 DUP3 ADD SWAP1 PUSH3 0xC61 JUMP JUMPDEST PUSH1 0x0 SWAP4 DUP2 ADD SWAP1 SWAP3 ADD SWAP3 SWAP1 SWAP3 MSTORE SWAP5 SWAP4 POP POP POP POP JUMP JUMPDEST DUP1 MLOAD PUSH1 0x1 PUSH1 0x1 PUSH1 0xA0 SHL SUB DUP2 AND DUP2 EQ PUSH3 0xCAC JUMPI PUSH1 0x0 DUP1 REVERT JUMPDEST SWAP2 SWAP1 POP JUMP JUMPDEST PUSH1 0x0 DUP1 PUSH1 0x0 DUP1 PUSH1 0x0 DUP1 PUSH1 0xC0 DUP8 DUP10 SUB SLT ISZERO PUSH3 0xCCB JUMPI PUSH1 0x0 DUP1 REVERT JUMPDEST DUP7 MLOAD PUSH1 0x1 PUSH1 0x1 PUSH1 0x40 SHL SUB DUP1 DUP3 GT ISZERO PUSH3 0xCE3 JUMPI PUSH1 0x0 DUP1 REVERT JUMPDEST PUSH3 0xCF1 DUP11 DUP4 DUP12 ADD PUSH3 0xBE5 JUMP JUMPDEST SWAP8 POP PUSH1 0x20 DUP10 ADD MLOAD SWAP2 POP DUP1 DUP3 GT ISZERO PUSH3 0xD08 JUMPI PUSH1 0x0 DUP1 REVERT JUMPDEST PUSH3 0xD16 DUP11 DUP4 DUP12 ADD PUSH3 0xBE5 JUMP JUMPDEST SWAP7 POP PUSH1 0x40 DUP10 ADD MLOAD SWAP2 POP PUSH1 0xFF DUP3 AND DUP3 EQ PUSH3 0xD2F JUMPI PUSH1 0x0 DUP1 REVERT JUMPDEST DUP2 SWAP6 POP PUSH1 0x60 DUP10 ADD MLOAD SWAP5 POP PUSH3 0xD47 PUSH1 0x80 DUP11 ADD PUSH3 0xC94 JUMP JUMPDEST SWAP4 POP PUSH1 0xA0 DUP10 ADD MLOAD SWAP2 POP DUP1 DUP3 GT ISZERO PUSH3 0xD5E JUMPI PUSH1 0x0 DUP1 REVERT JUMPDEST POP PUSH3 0xD6D DUP10 DUP3 DUP11 ADD PUSH3 0xBE5 JUMP JUMPDEST SWAP2 POP POP SWAP3 SWAP6 POP SWAP3 SWAP6 POP SWAP3 SWAP6 JUMP JUMPDEST PUSH1 0x1 DUP2 DUP2 SHR SWAP1 DUP3 AND DUP1 PUSH3 0xD8F JUMPI PUSH1 0x7F DUP3 AND SWAP2 POP JUMPDEST PUSH1 0x20 DUP3 LT DUP2 SUB PUSH3 0xDB0 JUMPI PUSH4 0x4E487B71 PUSH1 0xE0 SHL PUSH1 0x0 MSTORE PUSH1 0x22 PUSH1 0x4 MSTORE PUSH1 0x24 PUSH1 0x0 REVERT JUMPDEST POP SWAP2 SWAP1 POP JUMP JUMPDEST PUSH1 0x1F DUP3 GT ISZERO PUSH3 0x2C6 JUMPI PUSH1 0x0 DUP2 DUP2 MSTORE PUSH1 0x20 DUP2 KECCAK256 PUSH1 0x1F DUP6 ADD PUSH1 0x5 SHR DUP2 ADD PUSH1 0x20 DUP7 LT ISZERO PUSH3 0xDDF JUMPI POP DUP1 JUMPDEST PUSH1 0x1F DUP6 ADD PUSH1 0x5 SHR DUP3 ADD SWAP2 POP JUMPDEST DUP2 DUP2 LT ISZERO PUSH3 0xE00 JUMPI DUP3 DUP2 SSTORE PUSH1 0x1 ADD PUSH3 0xDEB JUMP JUMPDEST POP POP POP POP POP POP JUMP JUMPDEST DUP2 MLOAD PUSH1 0x1 PUSH1 0x1 PUSH1 0x40 SHL SUB DUP2 GT ISZERO PUSH3 0xE24 JUMPI PUSH3 0xE24 PUSH3 0xBCF JUMP JUMPDEST PUSH3 0xE3C DUP2 PUSH3 0xE35 DUP5 SLOAD PUSH3 0xD7A JUMP JUMPDEST DUP5 PUSH3 0xDB6 JUMP JUMPDEST PUSH1 0x20 DUP1 PUSH1 0x1F DUP4 GT PUSH1 0x1 DUP2 EQ PUSH3 0xE74 JUMPI PUSH1 0x0 DUP5 ISZERO PUSH3 0xE5B JUMPI POP DUP6 DUP4 ADD MLOAD JUMPDEST PUSH1 0x0 NOT PUSH1 0x3 DUP7 SWAP1 SHL SHR NOT AND PUSH1 0x1 DUP6 SWAP1 SHL OR DUP6 SSTORE PUSH3 0xE00 JUMP JUMPDEST PUSH1 0x0 DUP6 DUP2 MSTORE PUSH1 0x20 DUP2 KECCAK256 PUSH1 0x1F NOT DUP7 AND SWAP2 JUMPDEST DUP3 DUP2 LT ISZERO PUSH3 0xEA5 JUMPI DUP9 DUP7 ADD MLOAD DUP3 SSTORE SWAP5 DUP5 ADD SWAP5 PUSH1 0x1 SWAP1 SWAP2 ADD SWAP1 DUP5 ADD PUSH3 0xE84 JUMP JUMPDEST POP DUP6 DUP3 LT ISZERO PUSH3 0xEC4 JUMPI DUP8 DUP6 ADD MLOAD PUSH1 0x0 NOT PUSH1 0x3 DUP9 SWAP1 SHL PUSH1 0xF8 AND SHR NOT AND DUP2 SSTORE JUMPDEST POP POP POP POP POP PUSH1 0x1 SWAP1 DUP2 SHL ADD SWAP1 SSTORE POP JUMP JUMPDEST PUSH4 0x4E487B71 PUSH1 0xE0 SHL PUSH1 0x0 MSTORE PUSH1 0x11 PUSH1 0x4 MSTORE PUSH1 0x24 PUSH1 0x0 REVERT JUMPDEST PUSH1 0x1 DUP2 DUP2 JUMPDEST DUP1 DUP6 GT ISZERO PUSH3 0xF2B JUMPI DUP2 PUSH1 0x0 NOT DIV DUP3 GT ISZERO PUSH3 0xF0F JUMPI PUSH3 0xF0F PUSH3 0xED4 JUMP JUMPDEST DUP1 DUP6 AND ISZERO PUSH3 0xF1D JUMPI SWAP2 DUP2 MUL SWAP2 JUMPDEST SWAP4 DUP5 SHR SWAP4 SWAP1 DUP1 MUL SWAP1 PUSH3 0xEEF JUMP JUMPDEST POP SWAP3 POP SWAP3 SWAP1 POP JUMP JUMPDEST PUSH1 0x0 DUP3 PUSH3 0xF44 JUMPI POP PUSH1 0x1 PUSH3 0x8A9 JUMP JUMPDEST DUP2 PUSH3 0xF53 JUMPI POP PUSH1 0x0 PUSH3 0x8A9 JUMP JUMPDEST DUP2 PUSH1 0x1 DUP2 EQ PUSH3 0xF6C JUMPI PUSH1 0x2 DUP2 EQ PUSH3 0xF77 JUMPI PUSH3 0xF97 JUMP JUMPDEST PUSH1 0x1 SWAP2 POP POP PUSH3 0x8A9 JUMP JUMPDEST PUSH1 0xFF DUP5 GT ISZERO PUSH3 0xF8B JUMPI PUSH3 0xF8B PUSH3 0xED4 JUMP JUMPDEST POP POP PUSH1 0x1 DUP3 SHL PUSH3 0x8A9 JUMP JUMPDEST POP PUSH1 0x20 DUP4 LT PUSH2 0x133 DUP4 LT AND PUSH1 0x4E DUP5 LT PUSH1 0xB DUP5 LT AND OR ISZERO PUSH3 0xFBC JUMPI POP DUP2 DUP2 EXP PUSH3 0x8A9 JUMP JUMPDEST PUSH3 0xFC8 DUP4 DUP4 PUSH3 0xEEA JUMP JUMPDEST DUP1 PUSH1 0x0 NOT DIV DUP3 GT ISZERO PUSH3 0xFDF JUMPI PUSH3 0xFDF PUSH3 0xED4 JUMP JUMPDEST MUL SWAP4 SWAP3 POP POP POP JUMP JUMPDEST PUSH1 0x0 PUSH3 0xFF8 PUSH1 0xFF DUP5 AND DUP4 PUSH3 0xF33 JUMP JUMPDEST SWAP4 SWAP3 POP POP POP JUMP JUMPDEST DUP1 DUP3 MUL DUP2 ISZERO DUP3 DUP3 DIV DUP5 EQ OR PUSH3 0x8A9 JUMPI PUSH3 0x8A9 PUSH3 0xED4 JUMP JUMPDEST PUSH1 0x0 DUP1 DUP4 SLOAD PUSH3 0x1029 DUP2 PUSH3 0xD7A JUMP JUMPDEST PUSH1 0x1 DUP3 DUP2 AND DUP1 ISZERO PUSH3 0x1044 JUMPI PUSH1 0x1 DUP2 EQ PUSH3 0x105A JUMPI PUSH3 0x108B JUMP JUMPDEST PUSH1 0xFF NOT DUP5 AND DUP8 MSTORE DUP3 ISZERO ISZERO DUP4 MUL DUP8 ADD SWAP5 POP PUSH3 0x108B JUMP JUMPDEST DUP8 PUSH1 0x0 MSTORE PUSH1 0x20 DUP1 PUSH1 0x0 KECCAK256 PUSH1 0x0 JUMPDEST DUP6 DUP2 LT ISZERO PUSH3 0x1082 JUMPI DUP2 SLOAD DUP11 DUP3 ADD MSTORE SWAP1 DUP5 ADD SWAP1 DUP3 ADD PUSH3 0x1067 JUMP JUMPDEST POP POP POP DUP3 DUP8 ADD SWAP5 POP JUMPDEST POP SWAP3 SWAP7 SWAP6 POP POP POP POP POP POP JUMP JUMPDEST DUP1 DUP3 ADD DUP1 DUP3 GT ISZERO PUSH3 0x8A9 JUMPI PUSH3 0x8A9 PUSH3 0xED4 JUMP JUMPDEST PUSH1 0x0 DUP3 PUSH3 0x10CB JUMPI PUSH4 0x4E487B71 PUSH1 0xE0 SHL PUSH1 0x0 MSTORE PUSH1 0x12 PUSH1 0x4 MSTORE PUSH1 0x24 PUSH1 0x0 REVERT JUMPDEST POP DIV SWAP1 JUMP JUMPDEST DUP2 DUP2 SUB DUP2 DUP2 GT ISZERO PUSH3 0x8A9 JUMPI PUSH3 0x8A9 PUSH3 0xED4 JUMP JUMPDEST PUSH4 0x4E487B71 PUSH1 0xE0 SHL PUSH1 0x0 MSTORE PUSH1 0x32 PUSH1 0x4 MSTORE PUSH1 0x24 PUSH1 0x0 REVERT JUMPDEST PUSH1 0x0 PUSH1 0x1 DUP3 ADD PUSH3 0x1111 JUMPI PUSH3 0x1111 PUSH3 0xED4 JUMP JUMPDEST POP PUSH1 0x1 ADD SWAP1 JUMP JUMPDEST PUSH4 0x4E487B71 PUSH1 0xE0 SHL PUSH1 0x0 MSTORE PUSH1 0x31 PUSH1 0x4 MSTORE PUSH1 0x24 PUSH1 0x0 REVERT JUMPDEST PUSH1 0x80 MLOAD PUSH1 0xA0 MLOAD PUSH1 0xC0 MLOAD PUSH1 0xE0 MLOAD PUSH2 0x24F2 PUSH3 0x11B5 PUSH1 0x0 CODECOPY PUSH1 0x0 PUSH2 0x7D8 ADD MSTORE PUSH1 0x0 PUSH2 0x7A8 ADD MSTORE PUSH1 0x0 DUP2 DUP2 PUSH2 0x468 ADD MSTORE DUP2 DUP2 PUSH2 0xFDF ADD MSTORE DUP2 DUP2 PUSH2 0x142A ADD MSTORE DUP2 DUP2 PUSH2 0x146E ADD MSTORE DUP2 DUP2 PUSH2 0x14E7 ADD MSTORE DUP2 DUP2 PUSH2 0x1511 ADD MSTORE DUP2 DUP2 PUSH2 0x1565 ADD MSTORE DUP2 DUP2 PUSH2 0x1611 ADD MSTORE DUP2 DUP2 PUSH2 0x165E ADD MSTORE DUP2 DUP2 PUSH2 0x16A2 ADD MSTORE DUP2 DUP2 PUSH2 0x16C9 ADD MSTORE PUSH2 0x1B1F ADD MSTORE PUSH1 0x0 PUSH2 0x35C ADD MSTORE PUSH2 0x24F2 PUSH1 0x0 RETURN INVALID PUSH1 0x80 PUSH1 0x40 MSTORE CALLVALUE DUP1 ISZERO PUSH2 0x10 JUMPI PUSH1 0x0 DUP1 REVERT JUMPDEST POP PUSH1 0x4 CALLDATASIZE LT PUSH2 0x253 JUMPI PUSH1 0x0 CALLDATALOAD PUSH1 0xE0 SHR DUP1 PUSH4 0x8A696E50 GT PUSH2 0x146 JUMPI DUP1 PUSH4 0xC6E672B9 GT PUSH2 0xC3 JUMPI DUP1 PUSH4 0xDD637699 GT PUSH2 0x87 JUMPI DUP1 PUSH4 0xDD637699 EQ PUSH2 0x58B JUMPI DUP1 PUSH4 0xDFABC033 EQ PUSH2 0x59E JUMPI DUP1 PUSH4 0xE985E9C5 EQ PUSH2 0x5B1 JUMPI DUP1 PUSH4 0xEAC989F8 EQ PUSH2 0x5DF JUMPI DUP1 PUSH4 0xF2FDE38B EQ PUSH2 0x5E7 JUMPI DUP1 PUSH4 0xF780BC1A EQ PUSH2 0x5FA JUMPI PUSH1 0x0 DUP1 REVERT JUMPDEST DUP1 PUSH4 0xC6E672B9 EQ PUSH2 0x514 JUMPI DUP1 PUSH4 0xC87B56DD EQ PUSH2 0x527 JUMPI DUP1 PUSH4 0xD505ACCF EQ PUSH2 0x53A JUMPI DUP1 PUSH4 0xD96CA0B9 EQ PUSH2 0x54D JUMPI DUP1 PUSH4 0xDD62ED3E EQ PUSH2 0x560 JUMPI PUSH1 0x0 DUP1 REVERT JUMPDEST DUP1 PUSH4 0xA9059CBB GT PUSH2 0x10A JUMPI DUP1 PUSH4 0xA9059CBB EQ PUSH2 0x49D JUMPI DUP1 PUSH4 0xB1AB9317 EQ PUSH2 0x4B0 JUMPI DUP1 PUSH4 0xB3F9EA34 EQ PUSH2 0x4D0 JUMPI DUP1 PUSH4 0xB88D4FDE EQ PUSH2 0x4F9 JUMPI DUP1 PUSH4 0xC5AB3BA6 EQ PUSH2 0x50C JUMPI PUSH1 0x0 DUP1 REVERT JUMPDEST DUP1 PUSH4 0x8A696E50 EQ PUSH2 0x437 JUMPI DUP1 PUSH4 0x8DA5CB5B EQ PUSH2 0x44A JUMPI DUP1 PUSH4 0x95D89B41 EQ PUSH2 0x45B JUMPI DUP1 PUSH4 0x976A8435 EQ PUSH2 0x463 JUMPI DUP1 PUSH4 0xA22CB465 EQ PUSH2 0x48A JUMPI PUSH1 0x0 DUP1 REVERT JUMPDEST DUP1 PUSH4 0x3644E515 GT PUSH2 0x1D4 JUMPI DUP1 PUSH4 0x6E8F624B GT PUSH2 0x198 JUMPI DUP1 PUSH4 0x6E8F624B EQ PUSH2 0x3DC JUMPI DUP1 PUSH4 0x70A08231 EQ PUSH2 0x3E7 JUMPI DUP1 PUSH4 0x715018A6 EQ PUSH2 0x407 JUMPI DUP1 PUSH4 0x7ECEBE00 EQ PUSH2 0x40F JUMPI DUP1 PUSH4 0x89FB4C66 EQ PUSH2 0x42F JUMPI PUSH1 0x0 DUP1 REVERT JUMPDEST DUP1 PUSH4 0x3644E515 EQ PUSH2 0x390 JUMPI DUP1 PUSH4 0x42842E0E EQ PUSH2 0x398 JUMPI DUP1 PUSH4 0x4D966072 EQ PUSH2 0x3AD JUMPI DUP1 PUSH4 0x4F02C420 EQ PUSH2 0x3C0 JUMPI DUP1 PUSH4 0x6352211E EQ PUSH2 0x3C9 JUMPI PUSH1 0x0 DUP1 REVERT JUMPDEST DUP1 PUSH4 0x9674EB0 GT PUSH2 0x21B JUMPI DUP1 PUSH4 0x9674EB0 EQ PUSH2 0x320 JUMPI DUP1 PUSH4 0x9F0EF65 EQ PUSH2 0x328 JUMPI DUP1 PUSH4 0x18160DDD EQ PUSH2 0x33B JUMPI DUP1 PUSH4 0x23B872DD EQ PUSH2 0x344 JUMPI DUP1 PUSH4 0x313CE567 EQ PUSH2 0x357 JUMPI PUSH1 0x0 DUP1 REVERT JUMPDEST DUP1 PUSH4 0x1FFC9A7 EQ PUSH2 0x258 JUMPI DUP1 PUSH4 0x2519DA3 EQ PUSH2 0x280 JUMPI DUP1 PUSH4 0x6FDDE03 EQ PUSH2 0x2B7 JUMPI DUP1 PUSH4 0x81812FC EQ PUSH2 0x2CC JUMPI DUP1 PUSH4 0x95EA7B3 EQ PUSH2 0x30D JUMPI JUMPDEST PUSH1 0x0 DUP1 REVERT JUMPDEST PUSH2 0x26B PUSH2 0x266 CALLDATASIZE PUSH1 0x4 PUSH2 0x1F34 JUMP JUMPDEST PUSH2 0x60D JUMP JUMPDEST PUSH1 0x40 MLOAD SWAP1 ISZERO ISZERO DUP2 MSTORE PUSH1 0x20 ADD JUMPDEST PUSH1 0x40 MLOAD DUP1 SWAP2 SUB SWAP1 RETURN JUMPDEST PUSH2 0x2A9 PUSH2 0x28E CALLDATASIZE PUSH1 0x4 PUSH2 0x1F68 JUMP JUMPDEST PUSH1 0x1 PUSH1 0x1 PUSH1 0xA0 SHL SUB AND PUSH1 0x0 SWAP1 DUP2 MSTORE PUSH1 0x7 PUSH1 0x20 MSTORE PUSH1 0x40 SWAP1 KECCAK256 SLOAD SWAP1 JUMP JUMPDEST PUSH1 0x40 MLOAD SWAP1 DUP2 MSTORE PUSH1 0x20 ADD PUSH2 0x277 JUMP JUMPDEST PUSH2 0x2BF PUSH2 0x644 JUMP JUMPDEST PUSH1 0x40 MLOAD PUSH2 0x277 SWAP2 SWAP1 PUSH2 0x1FD3 JUMP JUMPDEST PUSH2 0x2F5 PUSH2 0x2DA CALLDATASIZE PUSH1 0x4 PUSH2 0x1FE6 JUMP JUMPDEST PUSH1 0x9 PUSH1 0x20 MSTORE PUSH1 0x0 SWAP1 DUP2 MSTORE PUSH1 0x40 SWAP1 KECCAK256 SLOAD PUSH1 0x1 PUSH1 0x1 PUSH1 0xA0 SHL SUB AND DUP2 JUMP JUMPDEST PUSH1 0x40 MLOAD PUSH1 0x1 PUSH1 0x1 PUSH1 0xA0 SHL SUB SWAP1 SWAP2 AND DUP2 MSTORE PUSH1 0x20 ADD PUSH2 0x277 JUMP JUMPDEST PUSH2 0x26B PUSH2 0x31B CALLDATASIZE PUSH1 0x4 PUSH2 0x1FFF JUMP JUMPDEST PUSH2 0x6D2 JUMP JUMPDEST PUSH2 0x2A9 PUSH2 0x70B JUMP JUMPDEST PUSH2 0x26B PUSH2 0x336 CALLDATASIZE PUSH1 0x4 PUSH2 0x1F68 JUMP JUMPDEST PUSH2 0x735 JUMP JUMPDEST PUSH2 0x2A9 PUSH1 0x5 SLOAD DUP2 JUMP JUMPDEST PUSH2 0x26B PUSH2 0x352 CALLDATASIZE PUSH1 0x4 PUSH2 0x2029 JUMP JUMPDEST PUSH2 0x767 JUMP JUMPDEST PUSH2 0x37E PUSH32 0x0 DUP2 JUMP JUMPDEST PUSH1 0x40 MLOAD PUSH1 0xFF SWAP1 SWAP2 AND DUP2 MSTORE PUSH1 0x20 ADD PUSH2 0x277 JUMP JUMPDEST PUSH2 0x2A9 PUSH2 0x7A4 JUMP JUMPDEST PUSH2 0x3AB PUSH2 0x3A6 CALLDATASIZE PUSH1 0x4 PUSH2 0x2029 JUMP JUMPDEST PUSH2 0x7FA JUMP JUMPDEST STOP JUMPDEST PUSH2 0x26B PUSH2 0x3BB CALLDATASIZE PUSH1 0x4 PUSH2 0x1FFF JUMP JUMPDEST PUSH2 0x81A JUMP JUMPDEST PUSH2 0x2A9 PUSH1 0x6 SLOAD DUP2 JUMP JUMPDEST PUSH2 0x2F5 PUSH2 0x3D7 CALLDATASIZE PUSH1 0x4 PUSH2 0x1FE6 JUMP JUMPDEST PUSH2 0x8A7 JUMP JUMPDEST PUSH2 0x2A9 PUSH1 0x1 PUSH1 0xFF SHL DUP2 JUMP JUMPDEST PUSH2 0x2A9 PUSH2 0x3F5 CALLDATASIZE PUSH1 0x4 PUSH2 0x1F68 JUMP JUMPDEST PUSH1 0x7 PUSH1 0x20 MSTORE PUSH1 0x0 SWAP1 DUP2 MSTORE PUSH1 0x40 SWAP1 KECCAK256 SLOAD DUP2 JUMP JUMPDEST PUSH2 0x3AB PUSH2 0x911 JUMP JUMPDEST PUSH2 0x2A9 PUSH2 0x41D CALLDATASIZE PUSH1 0x4 PUSH2 0x1F68 JUMP JUMPDEST PUSH1 0xE PUSH1 0x20 MSTORE PUSH1 0x0 SWAP1 DUP2 MSTORE PUSH1 0x40 SWAP1 KECCAK256 SLOAD DUP2 JUMP JUMPDEST PUSH1 0x5 SLOAD PUSH2 0x2A9 JUMP JUMPDEST PUSH2 0x3AB PUSH2 0x445 CALLDATASIZE PUSH1 0x4 PUSH2 0x2075 JUMP JUMPDEST PUSH2 0x925 JUMP JUMPDEST PUSH1 0x0 SLOAD PUSH1 0x1 PUSH1 0x1 PUSH1 0xA0 SHL SUB AND PUSH2 0x2F5 JUMP JUMPDEST PUSH2 0x2BF PUSH2 0x932 JUMP JUMPDEST PUSH2 0x2A9 PUSH32 0x0 DUP2 JUMP JUMPDEST PUSH2 0x3AB PUSH2 0x498 CALLDATASIZE PUSH1 0x4 PUSH2 0x2090 JUMP JUMPDEST PUSH2 0x93F JUMP JUMPDEST PUSH2 0x26B PUSH2 0x4AB CALLDATASIZE PUSH1 0x4 PUSH2 0x1FFF JUMP JUMPDEST PUSH2 0x9D2 JUMP JUMPDEST PUSH2 0x4C3 PUSH2 0x4BE CALLDATASIZE PUSH1 0x4 PUSH2 0x1F68 JUMP JUMPDEST PUSH2 0xA06 JUMP JUMPDEST PUSH1 0x40 MLOAD PUSH2 0x277 SWAP2 SWAP1 PUSH2 0x20C3 JUMP JUMPDEST PUSH2 0x2A9 PUSH2 0x4DE CALLDATASIZE PUSH1 0x4 PUSH2 0x1F68 JUMP JUMPDEST PUSH1 0x1 PUSH1 0x1 PUSH1 0xA0 SHL SUB AND PUSH1 0x0 SWAP1 DUP2 MSTORE PUSH1 0xC PUSH1 0x20 MSTORE PUSH1 0x40 SWAP1 KECCAK256 SLOAD SWAP1 JUMP JUMPDEST PUSH2 0x3AB PUSH2 0x507 CALLDATASIZE PUSH1 0x4 PUSH2 0x211D JUMP JUMPDEST PUSH2 0xA72 JUMP JUMPDEST PUSH1 0x6 SLOAD PUSH2 0x2A9 JUMP JUMPDEST PUSH2 0x3AB PUSH2 0x522 CALLDATASIZE PUSH1 0x4 PUSH2 0x2090 JUMP JUMPDEST PUSH2 0xB60 JUMP JUMPDEST PUSH2 0x2BF PUSH2 0x535 CALLDATASIZE PUSH1 0x4 PUSH2 0x1FE6 JUMP JUMPDEST PUSH2 0xB76 JUMP JUMPDEST PUSH2 0x3AB PUSH2 0x548 CALLDATASIZE PUSH1 0x4 PUSH2 0x21F9 JUMP JUMPDEST PUSH2 0xBAA JUMP JUMPDEST PUSH2 0x26B PUSH2 0x55B CALLDATASIZE PUSH1 0x4 PUSH2 0x2029 JUMP JUMPDEST PUSH2 0xDED JUMP JUMPDEST PUSH2 0x2A9 PUSH2 0x56E CALLDATASIZE PUSH1 0x4 PUSH2 0x226C JUMP JUMPDEST PUSH1 0x8 PUSH1 0x20 SWAP1 DUP2 MSTORE PUSH1 0x0 SWAP3 DUP4 MSTORE PUSH1 0x40 DUP1 DUP5 KECCAK256 SWAP1 SWAP2 MSTORE SWAP1 DUP3 MSTORE SWAP1 KECCAK256 SLOAD DUP2 JUMP JUMPDEST PUSH2 0x3AB PUSH2 0x599 CALLDATASIZE PUSH1 0x4 PUSH2 0x2029 JUMP JUMPDEST PUSH2 0xEAD JUMP JUMPDEST PUSH2 0x3AB PUSH2 0x5AC CALLDATASIZE PUSH1 0x4 PUSH2 0x1FFF JUMP JUMPDEST PUSH2 0x100E JUMP JUMPDEST PUSH2 0x26B PUSH2 0x5BF CALLDATASIZE PUSH1 0x4 PUSH2 0x226C JUMP JUMPDEST PUSH1 0xA PUSH1 0x20 SWAP1 DUP2 MSTORE PUSH1 0x0 SWAP3 DUP4 MSTORE PUSH1 0x40 DUP1 DUP5 KECCAK256 SWAP1 SWAP2 MSTORE SWAP1 DUP3 MSTORE SWAP1 KECCAK256 SLOAD PUSH1 0xFF AND DUP2 JUMP JUMPDEST PUSH2 0x2BF PUSH2 0x10D3 JUMP JUMPDEST PUSH2 0x3AB PUSH2 0x5F5 CALLDATASIZE PUSH1 0x4 PUSH2 0x1F68 JUMP JUMPDEST PUSH2 0x10E0 JUMP JUMPDEST PUSH2 0x4C3 PUSH2 0x608 CALLDATASIZE PUSH1 0x4 PUSH2 0x2296 JUMP JUMPDEST PUSH2 0x115B JUMP JUMPDEST PUSH1 0x0 PUSH1 0x1 PUSH1 0x1 PUSH1 0xE0 SHL SUB NOT DUP3 AND PUSH4 0xCAF91FF5 PUSH1 0xE0 SHL EQ DUP1 PUSH2 0x63E JUMPI POP PUSH1 0x1 PUSH1 0x1 PUSH1 0xE0 SHL SUB NOT DUP3 AND PUSH4 0x1FFC9A7 PUSH1 0xE0 SHL EQ JUMPDEST SWAP3 SWAP2 POP POP JUMP JUMPDEST PUSH1 0x3 DUP1 SLOAD PUSH2 0x651 SWAP1 PUSH2 0x22B8 JUMP JUMPDEST DUP1 PUSH1 0x1F ADD PUSH1 0x20 DUP1 SWAP2 DIV MUL PUSH1 0x20 ADD PUSH1 0x40 MLOAD SWAP1 DUP2 ADD PUSH1 0x40 MSTORE DUP1 SWAP3 SWAP2 SWAP1 DUP2 DUP2 MSTORE PUSH1 0x20 ADD DUP3 DUP1 SLOAD PUSH2 0x67D SWAP1 PUSH2 0x22B8 JUMP JUMPDEST DUP1 ISZERO PUSH2 0x6CA JUMPI DUP1 PUSH1 0x1F LT PUSH2 0x69F JUMPI PUSH2 0x100 DUP1 DUP4 SLOAD DIV MUL DUP4 MSTORE SWAP2 PUSH1 0x20 ADD SWAP2 PUSH2 0x6CA JUMP JUMPDEST DUP3 ADD SWAP2 SWAP1 PUSH1 0x0 MSTORE PUSH1 0x20 PUSH1 0x0 KECCAK256 SWAP1 JUMPDEST DUP2 SLOAD DUP2 MSTORE SWAP1 PUSH1 0x1 ADD SWAP1 PUSH1 0x20 ADD DUP1 DUP4 GT PUSH2 0x6AD JUMPI DUP3 SWAP1 SUB PUSH1 0x1F AND DUP3 ADD SWAP2 JUMPDEST POP POP POP POP POP DUP2 JUMP JUMPDEST PUSH1 0x0 PUSH2 0x6DD DUP3 PUSH2 0x11F8 JUMP JUMPDEST ISZERO PUSH2 0x6F1 JUMPI PUSH2 0x6EC DUP4 DUP4 PUSH2 0x100E JUMP JUMPDEST PUSH2 0x702 JUMP JUMPDEST PUSH2 0x6FB DUP4 DUP4 PUSH2 0x81A JUMP JUMPDEST SWAP1 POP PUSH2 0x63E JUMP JUMPDEST POP PUSH1 0x1 SWAP3 SWAP2 POP POP JUMP JUMPDEST PUSH1 0x0 PUSH2 0x730 PUSH1 0x1 SLOAD PUSH1 0x1 PUSH1 0x1 PUSH1 0x80 SHL SUB DUP1 DUP3 AND PUSH1 0x1 PUSH1 0x80 SHL SWAP1 SWAP3 DIV DUP2 AND SWAP2 SWAP1 SWAP2 SUB AND SWAP1 JUMP JUMPDEST SWAP1 POP SWAP1 JUMP JUMPDEST PUSH1 0x0 PUSH1 0x1 PUSH1 0x1 PUSH1 0xA0 SHL SUB DUP3 AND ISZERO DUP1 PUSH2 0x63E JUMPI POP POP PUSH1 0x1 PUSH1 0x1 PUSH1 0xA0 SHL SUB AND PUSH1 0x0 SWAP1 DUP2 MSTORE PUSH1 0xD PUSH1 0x20 MSTORE PUSH1 0x40 SWAP1 KECCAK256 SLOAD PUSH1 0xFF AND SWAP1 JUMP JUMPDEST PUSH1 0x0 PUSH2 0x772 DUP3 PUSH2 0x11F8 JUMP JUMPDEST ISZERO PUSH2 0x787 JUMPI PUSH2 0x782 DUP5 DUP5 DUP5 PUSH2 0xEAD JUMP JUMPDEST PUSH2 0x799 JUMP JUMPDEST PUSH2 0x792 DUP5 DUP5 DUP5 PUSH2 0xDED JUMP JUMPDEST SWAP1 POP PUSH2 0x79D JUMP JUMPDEST POP PUSH1 0x1 JUMPDEST SWAP4 SWAP3 POP POP POP JUMP JUMPDEST PUSH1 0x0 PUSH32 0x0 CHAINID EQ PUSH2 0x7D5 JUMPI PUSH2 0x730 PUSH2 0x1211 JUMP JUMPDEST POP PUSH32 0x0 SWAP1 JUMP JUMPDEST PUSH2 0x815 DUP4 DUP4 DUP4 PUSH1 0x40 MLOAD DUP1 PUSH1 0x20 ADD PUSH1 0x40 MSTORE DUP1 PUSH1 0x0 DUP2 MSTORE POP PUSH2 0xA72 JUMP JUMPDEST POP POP POP JUMP JUMPDEST PUSH1 0x0 PUSH1 0x1 PUSH1 0x1 PUSH1 0xA0 SHL SUB DUP4 AND PUSH2 0x843 JUMPI PUSH1 0x40 MLOAD PUSH4 0x5461585F PUSH1 0xE0 SHL DUP2 MSTORE PUSH1 0x4 ADD PUSH1 0x40 MLOAD DUP1 SWAP2 SUB SWAP1 REVERT JUMPDEST CALLER PUSH1 0x0 DUP2 DUP2 MSTORE PUSH1 0x8 PUSH1 0x20 SWAP1 DUP2 MSTORE PUSH1 0x40 DUP1 DUP4 KECCAK256 PUSH1 0x1 PUSH1 0x1 PUSH1 0xA0 SHL SUB DUP9 AND DUP1 DUP6 MSTORE SWAP1 DUP4 MSTORE SWAP3 DUP2 SWAP1 KECCAK256 DUP7 SWAP1 SSTORE MLOAD DUP6 DUP2 MSTORE SWAP2 SWAP3 SWAP2 PUSH32 0x8C5BE1E5EBEC7D5BD14F71427D1E84F3DD0314C0F7B2291E5B200AC8C7C3B925 SWAP2 ADD PUSH1 0x40 MLOAD DUP1 SWAP2 SUB SWAP1 LOG3 POP PUSH1 0x1 SWAP3 SWAP2 POP POP JUMP JUMPDEST PUSH1 0x0 DUP2 DUP2 MSTORE PUSH1 0xB PUSH1 0x20 MSTORE PUSH1 0x40 SWAP1 KECCAK256 SLOAD PUSH1 0x1 PUSH1 0x1 PUSH1 0xA0 SHL SUB AND PUSH2 0x8C8 DUP3 PUSH2 0x11F8 JUMP JUMPDEST PUSH2 0x8E5 JUMPI PUSH1 0x40 MLOAD PUSH4 0x7ED98ED PUSH1 0xE3 SHL DUP2 MSTORE PUSH1 0x4 ADD PUSH1 0x40 MLOAD DUP1 SWAP2 SUB SWAP1 REVERT JUMPDEST PUSH1 0x1 PUSH1 0x1 PUSH1 0xA0 SHL SUB DUP2 AND PUSH2 0x90C JUMPI PUSH1 0x40 MLOAD PUSH4 0xC5723B51 PUSH1 0xE0 SHL DUP2 MSTORE PUSH1 0x4 ADD PUSH1 0x40 MLOAD DUP1 SWAP2 SUB SWAP1 REVERT JUMPDEST SWAP2 SWAP1 POP JUMP JUMPDEST PUSH2 0x919 PUSH2 0x12AB JUMP JUMPDEST PUSH2 0x923 PUSH1 0x0 PUSH2 0x1305 JUMP JUMPDEST JUMP JUMPDEST PUSH2 0x92F CALLER DUP3 PUSH2 0x1355 JUMP JUMPDEST POP JUMP JUMPDEST PUSH1 0x4 DUP1 SLOAD PUSH2 0x651 SWAP1 PUSH2 0x22B8 JUMP JUMPDEST PUSH1 0x1 PUSH1 0x1 PUSH1 0xA0 SHL SUB DUP3 AND PUSH2 0x966 JUMPI PUSH1 0x40 MLOAD PUSH4 0xCCEA9E6F PUSH1 0xE0 SHL DUP2 MSTORE PUSH1 0x4 ADD PUSH1 0x40 MLOAD DUP1 SWAP2 SUB SWAP1 REVERT JUMPDEST CALLER PUSH1 0x0 DUP2 DUP2 MSTORE PUSH1 0xA PUSH1 0x20 SWAP1 DUP2 MSTORE PUSH1 0x40 DUP1 DUP4 KECCAK256 PUSH1 0x1 PUSH1 0x1 PUSH1 0xA0 SHL SUB DUP8 AND DUP1 DUP6 MSTORE SWAP1 DUP4 MSTORE SWAP3 DUP2 SWAP1 KECCAK256 DUP1 SLOAD PUSH1 0xFF NOT AND DUP7 ISZERO ISZERO SWAP1 DUP2 OR SWAP1 SWAP2 SSTORE SWAP1 MLOAD SWAP1 DUP2 MSTORE SWAP2 SWAP3 SWAP2 PUSH32 0x17307EAB39AB6107E8899845AD3D59BD9653F200F220920489CA2B5937696C31 SWAP2 ADD PUSH1 0x40 MLOAD DUP1 SWAP2 SUB SWAP1 LOG3 POP POP JUMP JUMPDEST PUSH1 0x0 PUSH1 0x1 PUSH1 0x1 PUSH1 0xA0 SHL SUB DUP4 AND PUSH2 0x9FB JUMPI PUSH1 0x40 MLOAD PUSH4 0x4E469669 PUSH1 0xE1 SHL DUP2 MSTORE PUSH1 0x4 ADD PUSH1 0x40 MLOAD DUP1 SWAP2 SUB SWAP1 REVERT JUMPDEST PUSH2 0x79D CALLER DUP5 DUP5 PUSH2 0x13C4 JUMP JUMPDEST PUSH1 0x1 PUSH1 0x1 PUSH1 0xA0 SHL SUB DUP2 AND PUSH1 0x0 SWAP1 DUP2 MSTORE PUSH1 0xC PUSH1 0x20 SWAP1 DUP2 MSTORE PUSH1 0x40 SWAP2 DUP3 SWAP1 KECCAK256 DUP1 SLOAD DUP4 MLOAD DUP2 DUP5 MUL DUP2 ADD DUP5 ADD SWAP1 SWAP5 MSTORE DUP1 DUP5 MSTORE PUSH1 0x60 SWAP4 SWAP3 DUP4 ADD DUP3 DUP3 DUP1 ISZERO PUSH2 0xA66 JUMPI PUSH1 0x20 MUL DUP3 ADD SWAP2 SWAP1 PUSH1 0x0 MSTORE PUSH1 0x20 PUSH1 0x0 KECCAK256 SWAP1 JUMPDEST DUP2 SLOAD DUP2 MSTORE PUSH1 0x20 ADD SWAP1 PUSH1 0x1 ADD SWAP1 DUP1 DUP4 GT PUSH2 0xA52 JUMPI JUMPDEST POP POP POP POP POP SWAP1 POP SWAP2 SWAP1 POP JUMP JUMPDEST PUSH2 0xA7B DUP3 PUSH2 0x11F8 JUMP JUMPDEST PUSH2 0xA98 JUMPI PUSH1 0x40 MLOAD PUSH4 0x7ED98ED PUSH1 0xE3 SHL DUP2 MSTORE PUSH1 0x4 ADD PUSH1 0x40 MLOAD DUP1 SWAP2 SUB SWAP1 REVERT JUMPDEST PUSH2 0xAA3 DUP5 DUP5 DUP5 PUSH2 0x767 JUMP JUMPDEST POP PUSH1 0x1 PUSH1 0x1 PUSH1 0xA0 SHL SUB DUP4 AND EXTCODESIZE ISZERO DUP1 ISZERO SWAP1 PUSH2 0xB3C JUMPI POP PUSH1 0x40 MLOAD PUSH4 0xA85BD01 PUSH1 0xE1 SHL DUP1 DUP3 MSTORE SWAP1 PUSH1 0x1 PUSH1 0x1 PUSH1 0xA0 SHL SUB DUP6 AND SWAP1 PUSH4 0x150B7A02 SWAP1 PUSH2 0xAEC SWAP1 CALLER SWAP1 DUP10 SWAP1 DUP9 SWAP1 DUP9 SWAP1 PUSH1 0x4 ADD PUSH2 0x22F2 JUMP JUMPDEST PUSH1 0x20 PUSH1 0x40 MLOAD DUP1 DUP4 SUB DUP2 PUSH1 0x0 DUP8 GAS CALL ISZERO DUP1 ISZERO PUSH2 0xB0B JUMPI RETURNDATASIZE PUSH1 0x0 DUP1 RETURNDATACOPY RETURNDATASIZE PUSH1 0x0 REVERT JUMPDEST POP POP POP POP PUSH1 0x40 MLOAD RETURNDATASIZE PUSH1 0x1F NOT PUSH1 0x1F DUP3 ADD AND DUP3 ADD DUP1 PUSH1 0x40 MSTORE POP DUP2 ADD SWAP1 PUSH2 0xB2F SWAP2 SWAP1 PUSH2 0x232F JUMP JUMPDEST PUSH1 0x1 PUSH1 0x1 PUSH1 0xE0 SHL SUB NOT AND EQ ISZERO JUMPDEST ISZERO PUSH2 0xB5A JUMPI PUSH1 0x40 MLOAD PUSH4 0x3DA63931 PUSH1 0xE0 SHL DUP2 MSTORE PUSH1 0x4 ADD PUSH1 0x40 MLOAD DUP1 SWAP2 SUB SWAP1 REVERT JUMPDEST POP POP POP POP JUMP JUMPDEST PUSH2 0xB68 PUSH2 0x12AB JUMP JUMPDEST PUSH2 0xB72 DUP3 DUP3 PUSH2 0x1355 JUMP JUMPDEST POP POP JUMP JUMPDEST PUSH1 0x60 PUSH1 0xF PUSH2 0xB83 DUP4 PUSH2 0x173A JUMP JUMPDEST PUSH1 0x40 MLOAD PUSH1 0x20 ADD PUSH2 0xB94 SWAP3 SWAP2 SWAP1 PUSH2 0x23E8 JUMP JUMPDEST PUSH1 0x40 MLOAD PUSH1 0x20 DUP2 DUP4 SUB SUB DUP2 MSTORE SWAP1 PUSH1 0x40 MSTORE SWAP1 POP SWAP2 SWAP1 POP JUMP JUMPDEST TIMESTAMP DUP5 LT ISZERO PUSH2 0xBCB JUMPI PUSH1 0x40 MLOAD PUSH4 0x5787BDF PUSH1 0xE0 SHL DUP2 MSTORE PUSH1 0x4 ADD PUSH1 0x40 MLOAD DUP1 SWAP2 SUB SWAP1 REVERT JUMPDEST PUSH2 0xBD4 DUP6 PUSH2 0x11F8 JUMP JUMPDEST ISZERO PUSH2 0xBF2 JUMPI PUSH1 0x40 MLOAD PUSH4 0x3E7C1BD PUSH1 0xE3 SHL DUP2 MSTORE PUSH1 0x4 ADD PUSH1 0x40 MLOAD DUP1 SWAP2 SUB SWAP1 REVERT JUMPDEST PUSH1 0x1 PUSH1 0x1 PUSH1 0xA0 SHL SUB DUP7 AND PUSH2 0xC19 JUMPI PUSH1 0x40 MLOAD PUSH4 0x5461585F PUSH1 0xE0 SHL DUP2 MSTORE PUSH1 0x4 ADD PUSH1 0x40 MLOAD DUP1 SWAP2 SUB SWAP1 REVERT JUMPDEST PUSH1 0x0 PUSH1 0x1 PUSH2 0xC25 PUSH2 0x7A4 JUMP JUMPDEST PUSH1 0x1 PUSH1 0x1 PUSH1 0xA0 SHL SUB DUP11 DUP2 AND PUSH1 0x0 DUP2 DUP2 MSTORE PUSH1 0xE PUSH1 0x20 SWAP1 DUP2 MSTORE PUSH1 0x40 SWAP2 DUP3 SWAP1 KECCAK256 DUP1 SLOAD PUSH1 0x1 DUP2 ADD SWAP1 SWAP2 SSTORE DUP3 MLOAD PUSH32 0x6E71EDAE12B1B97F4D1F60370FEF10105FA2FAAE0126114A169C64845D6126C9 DUP2 DUP5 ADD MSTORE DUP1 DUP5 ADD SWAP5 SWAP1 SWAP5 MSTORE SWAP4 DUP14 AND PUSH1 0x60 DUP5 ADD MSTORE PUSH1 0x80 DUP4 ADD DUP13 SWAP1 MSTORE PUSH1 0xA0 DUP4 ADD SWAP4 SWAP1 SWAP4 MSTORE PUSH1 0xC0 DUP1 DUP4 ADD DUP12 SWAP1 MSTORE DUP2 MLOAD DUP1 DUP5 SUB SWAP1 SWAP2 ADD DUP2 MSTORE PUSH1 0xE0 DUP4 ADD SWAP1 SWAP2 MSTORE DUP1 MLOAD SWAP3 ADD SWAP2 SWAP1 SWAP2 KECCAK256 PUSH2 0x1901 PUSH1 0xF0 SHL PUSH2 0x100 DUP4 ADD MSTORE PUSH2 0x102 DUP3 ADD SWAP3 SWAP1 SWAP3 MSTORE PUSH2 0x122 DUP2 ADD SWAP2 SWAP1 SWAP2 MSTORE PUSH2 0x142 ADD PUSH1 0x40 DUP1 MLOAD PUSH1 0x1F NOT DUP2 DUP5 SUB ADD DUP2 MSTORE DUP3 DUP3 MSTORE DUP1 MLOAD PUSH1 0x20 SWAP2 DUP3 ADD KECCAK256 PUSH1 0x0 DUP5 MSTORE SWAP1 DUP4 ADD DUP1 DUP4 MSTORE MSTORE PUSH1 0xFF DUP8 AND SWAP1 DUP3 ADD MSTORE PUSH1 0x60 DUP2 ADD DUP6 SWAP1 MSTORE PUSH1 0x80 DUP2 ADD DUP5 SWAP1 MSTORE PUSH1 0xA0 ADD PUSH1 0x20 PUSH1 0x40 MLOAD PUSH1 0x20 DUP2 SUB SWAP1 DUP1 DUP5 SUB SWAP1 DUP6 GAS STATICCALL ISZERO DUP1 ISZERO PUSH2 0xD31 JUMPI RETURNDATASIZE PUSH1 0x0 DUP1 RETURNDATACOPY RETURNDATASIZE PUSH1 0x0 REVERT JUMPDEST POP POP PUSH1 0x40 MLOAD PUSH1 0x1F NOT ADD MLOAD SWAP2 POP POP PUSH1 0x1 PUSH1 0x1 PUSH1 0xA0 SHL SUB DUP2 AND ISZERO DUP1 PUSH2 0xD66 JUMPI POP DUP8 PUSH1 0x1 PUSH1 0x1 PUSH1 0xA0 SHL SUB AND DUP2 PUSH1 0x1 PUSH1 0x1 PUSH1 0xA0 SHL SUB AND EQ ISZERO JUMPDEST ISZERO PUSH2 0xD84 JUMPI PUSH1 0x40 MLOAD PUSH4 0x20578759 PUSH1 0xE2 SHL DUP2 MSTORE PUSH1 0x4 ADD PUSH1 0x40 MLOAD DUP1 SWAP2 SUB SWAP1 REVERT JUMPDEST PUSH1 0x1 PUSH1 0x1 PUSH1 0xA0 SHL SUB SWAP1 DUP2 AND PUSH1 0x0 SWAP1 DUP2 MSTORE PUSH1 0x8 PUSH1 0x20 SWAP1 DUP2 MSTORE PUSH1 0x40 DUP1 DUP4 KECCAK256 DUP11 DUP6 AND DUP1 DUP6 MSTORE SWAP1 DUP4 MSTORE SWAP3 DUP2 SWAP1 KECCAK256 DUP10 SWAP1 SSTORE MLOAD DUP9 DUP2 MSTORE SWAP2 SWAP3 DUP11 AND SWAP2 PUSH32 0x8C5BE1E5EBEC7D5BD14F71427D1E84F3DD0314C0F7B2291E5B200AC8C7C3B925 SWAP2 ADD PUSH1 0x40 MLOAD DUP1 SWAP2 SUB SWAP1 LOG3 POP POP POP POP POP POP POP JUMP JUMPDEST PUSH1 0x0 PUSH1 0x1 PUSH1 0x1 PUSH1 0xA0 SHL SUB DUP5 AND PUSH2 0xE16 JUMPI PUSH1 0x40 MLOAD PUSH4 0x6EDAEF2F PUSH1 0xE1 SHL DUP2 MSTORE PUSH1 0x4 ADD PUSH1 0x40 MLOAD DUP1 SWAP2 SUB SWAP1 REVERT JUMPDEST PUSH1 0x1 PUSH1 0x1 PUSH1 0xA0 SHL SUB DUP4 AND PUSH2 0xE3D JUMPI PUSH1 0x40 MLOAD PUSH4 0x4E469669 PUSH1 0xE1 SHL DUP2 MSTORE PUSH1 0x4 ADD PUSH1 0x40 MLOAD DUP1 SWAP2 SUB SWAP1 REVERT JUMPDEST PUSH1 0x1 PUSH1 0x1 PUSH1 0xA0 SHL SUB DUP5 AND PUSH1 0x0 SWAP1 DUP2 MSTORE PUSH1 0x8 PUSH1 0x20 SWAP1 DUP2 MSTORE PUSH1 0x40 DUP1 DUP4 KECCAK256 CALLER DUP5 MSTORE SWAP1 SWAP2 MSTORE SWAP1 KECCAK256 SLOAD PUSH1 0x0 NOT DUP2 EQ PUSH2 0xE99 JUMPI PUSH2 0xE74 DUP4 DUP3 PUSH2 0x2423 JUMP JUMPDEST PUSH1 0x1 PUSH1 0x1 PUSH1 0xA0 SHL SUB DUP7 AND PUSH1 0x0 SWAP1 DUP2 MSTORE PUSH1 0x8 PUSH1 0x20 SWAP1 DUP2 MSTORE PUSH1 0x40 DUP1 DUP4 KECCAK256 CALLER DUP5 MSTORE SWAP1 SWAP2 MSTORE SWAP1 KECCAK256 SSTORE JUMPDEST PUSH2 0xEA4 DUP6 DUP6 DUP6 PUSH2 0x13C4 JUMP JUMPDEST SWAP6 SWAP5 POP POP POP POP POP JUMP JUMPDEST PUSH1 0x1 PUSH1 0x1 PUSH1 0xA0 SHL SUB DUP4 AND PUSH2 0xED4 JUMPI PUSH1 0x40 MLOAD PUSH4 0x6EDAEF2F PUSH1 0xE1 SHL DUP2 MSTORE PUSH1 0x4 ADD PUSH1 0x40 MLOAD DUP1 SWAP2 SUB SWAP1 REVERT JUMPDEST PUSH1 0x1 PUSH1 0x1 PUSH1 0xA0 SHL SUB DUP3 AND PUSH2 0xEFB JUMPI PUSH1 0x40 MLOAD PUSH4 0x4E469669 PUSH1 0xE1 SHL DUP2 MSTORE PUSH1 0x4 ADD PUSH1 0x40 MLOAD DUP1 SWAP2 SUB SWAP1 REVERT JUMPDEST PUSH1 0x0 DUP2 DUP2 MSTORE PUSH1 0xB PUSH1 0x20 MSTORE PUSH1 0x40 SWAP1 KECCAK256 SLOAD PUSH1 0x1 PUSH1 0x1 PUSH1 0xA0 SHL SUB DUP5 DUP2 AND SWAP2 AND EQ PUSH2 0xF34 JUMPI PUSH1 0x40 MLOAD PUSH3 0x82B429 PUSH1 0xE8 SHL DUP2 MSTORE PUSH1 0x4 ADD PUSH1 0x40 MLOAD DUP1 SWAP2 SUB SWAP1 REVERT JUMPDEST CALLER PUSH1 0x1 PUSH1 0x1 PUSH1 0xA0 SHL SUB DUP5 AND EQ DUP1 ISZERO SWAP1 PUSH2 0xF71 JUMPI POP PUSH1 0x1 PUSH1 0x1 PUSH1 0xA0 SHL SUB DUP4 AND PUSH1 0x0 SWAP1 DUP2 MSTORE PUSH1 0xA PUSH1 0x20 SWAP1 DUP2 MSTORE PUSH1 0x40 DUP1 DUP4 KECCAK256 CALLER DUP5 MSTORE SWAP1 SWAP2 MSTORE SWAP1 KECCAK256 SLOAD PUSH1 0xFF AND ISZERO JUMPDEST DUP1 ISZERO PUSH2 0xF94 JUMPI POP PUSH1 0x0 DUP2 DUP2 MSTORE PUSH1 0x9 PUSH1 0x20 MSTORE PUSH1 0x40 SWAP1 KECCAK256 SLOAD PUSH1 0x1 PUSH1 0x1 PUSH1 0xA0 SHL SUB AND CALLER EQ ISZERO JUMPDEST ISZERO PUSH2 0xFB1 JUMPI PUSH1 0x40 MLOAD PUSH3 0x82B429 PUSH1 0xE8 SHL DUP2 MSTORE PUSH1 0x4 ADD PUSH1 0x40 MLOAD DUP1 SWAP2 SUB SWAP1 REVERT JUMPDEST PUSH2 0xFBA DUP3 PUSH2 0x735 JUMP JUMPDEST ISZERO PUSH2 0xFD8 JUMPI PUSH1 0x40 MLOAD PUSH4 0x5CE75397 PUSH1 0xE0 SHL DUP2 MSTORE PUSH1 0x4 ADD PUSH1 0x40 MLOAD DUP1 SWAP2 SUB SWAP1 REVERT JUMPDEST PUSH2 0x1003 DUP4 DUP4 PUSH32 0x0 PUSH2 0x17CD JUMP JUMPDEST PUSH2 0x815 DUP4 DUP4 DUP4 PUSH2 0x1889 JUMP JUMPDEST PUSH1 0x0 DUP2 DUP2 MSTORE PUSH1 0xB PUSH1 0x20 MSTORE PUSH1 0x40 SWAP1 KECCAK256 SLOAD PUSH1 0x1 PUSH1 0x1 PUSH1 0xA0 SHL SUB AND CALLER DUP2 EQ DUP1 ISZERO SWAP1 PUSH2 0x105A JUMPI POP PUSH1 0x1 PUSH1 0x1 PUSH1 0xA0 SHL SUB DUP2 AND PUSH1 0x0 SWAP1 DUP2 MSTORE PUSH1 0xA PUSH1 0x20 SWAP1 DUP2 MSTORE PUSH1 0x40 DUP1 DUP4 KECCAK256 CALLER DUP5 MSTORE SWAP1 SWAP2 MSTORE SWAP1 KECCAK256 SLOAD PUSH1 0xFF AND ISZERO JUMPDEST ISZERO PUSH2 0x1077 JUMPI PUSH1 0x40 MLOAD PUSH3 0x82B429 PUSH1 0xE8 SHL DUP2 MSTORE PUSH1 0x4 ADD PUSH1 0x40 MLOAD DUP1 SWAP2 SUB SWAP1 REVERT JUMPDEST PUSH1 0x0 DUP3 DUP2 MSTORE PUSH1 0x9 PUSH1 0x20 MSTORE PUSH1 0x40 DUP1 DUP3 KECCAK256 DUP1 SLOAD PUSH1 0x1 PUSH1 0x1 PUSH1 0xA0 SHL SUB NOT AND PUSH1 0x1 PUSH1 0x1 PUSH1 0xA0 SHL SUB DUP8 DUP2 AND SWAP2 DUP3 OR SWAP1 SWAP3 SSTORE SWAP2 MLOAD DUP6 SWAP4 SWAP2 DUP6 AND SWAP2 PUSH32 0x8C5BE1E5EBEC7D5BD14F71427D1E84F3DD0314C0F7B2291E5B200AC8C7C3B925 SWAP2 LOG4 POP POP POP JUMP JUMPDEST PUSH1 0xF DUP1 SLOAD PUSH2 0x651 SWAP1 PUSH2 0x22B8 JUMP JUMPDEST PUSH2 0x10E8 PUSH2 0x12AB JUMP JUMPDEST PUSH1 0x1 PUSH1 0x1 PUSH1 0xA0 SHL SUB DUP2 AND PUSH2 0x1152 JUMPI PUSH1 0x40 MLOAD PUSH3 0x461BCD PUSH1 0xE5 SHL DUP2 MSTORE PUSH1 0x20 PUSH1 0x4 DUP3 ADD MSTORE PUSH1 0x26 PUSH1 0x24 DUP3 ADD MSTORE PUSH32 0x4F776E61626C653A206E6577206F776E657220697320746865207A65726F2061 PUSH1 0x44 DUP3 ADD MSTORE PUSH6 0x646472657373 PUSH1 0xD0 SHL PUSH1 0x64 DUP3 ADD MSTORE PUSH1 0x84 ADD JUMPDEST PUSH1 0x40 MLOAD DUP1 SWAP2 SUB SWAP1 REVERT JUMPDEST PUSH2 0x92F DUP2 PUSH2 0x1305 JUMP JUMPDEST PUSH1 0x60 PUSH1 0x0 DUP3 PUSH8 0xFFFFFFFFFFFFFFFF DUP2 GT ISZERO PUSH2 0x1178 JUMPI PUSH2 0x1178 PUSH2 0x2107 JUMP JUMPDEST PUSH1 0x40 MLOAD SWAP1 DUP1 DUP3 MSTORE DUP1 PUSH1 0x20 MUL PUSH1 0x20 ADD DUP3 ADD PUSH1 0x40 MSTORE DUP1 ISZERO PUSH2 0x11A1 JUMPI DUP2 PUSH1 0x20 ADD PUSH1 0x20 DUP3 MUL DUP1 CALLDATASIZE DUP4 CALLDATACOPY ADD SWAP1 POP JUMPDEST POP SWAP1 POP DUP4 JUMPDEST PUSH2 0x11B0 DUP5 DUP7 PUSH2 0x2436 JUMP JUMPDEST DUP2 LT ISZERO PUSH2 0x11F0 JUMPI PUSH2 0x11C2 PUSH1 0x1 DUP3 PUSH2 0x1A61 JUMP JUMPDEST DUP3 PUSH2 0x11CD DUP8 DUP5 PUSH2 0x2423 JUMP JUMPDEST DUP2 MLOAD DUP2 LT PUSH2 0x11DD JUMPI PUSH2 0x11DD PUSH2 0x2449 JUMP JUMPDEST PUSH1 0x20 SWAP1 DUP2 MUL SWAP2 SWAP1 SWAP2 ADD ADD MSTORE PUSH1 0x1 ADD PUSH2 0x11A6 JUMP JUMPDEST POP SWAP4 SWAP3 POP POP POP JUMP JUMPDEST PUSH1 0x0 PUSH1 0x1 PUSH1 0xFF SHL DUP3 GT DUP1 ISZERO PUSH2 0x63E JUMPI POP POP PUSH1 0x0 NOT EQ ISZERO SWAP1 JUMP JUMPDEST PUSH1 0x0 PUSH32 0x8B73C3C69BB8FE3D512ECC4CF759CC79239F7B179B0FFACAA9A75D522B39400F PUSH1 0x3 PUSH1 0x40 MLOAD PUSH2 0x1243 SWAP2 SWAP1 PUSH2 0x245F JUMP JUMPDEST PUSH1 0x40 DUP1 MLOAD SWAP2 DUP3 SWAP1 SUB DUP3 KECCAK256 PUSH1 0x20 DUP4 ADD SWAP4 SWAP1 SWAP4 MSTORE DUP2 ADD SWAP2 SWAP1 SWAP2 MSTORE PUSH32 0xC89EFDAA54C0F20C7ADF612882DF0950F5A951637E0307CDCB4C672F298B8BC6 PUSH1 0x60 DUP3 ADD MSTORE CHAINID PUSH1 0x80 DUP3 ADD MSTORE ADDRESS PUSH1 0xA0 DUP3 ADD MSTORE PUSH1 0xC0 ADD PUSH1 0x40 MLOAD PUSH1 0x20 DUP2 DUP4 SUB SUB DUP2 MSTORE SWAP1 PUSH1 0x40 MSTORE DUP1 MLOAD SWAP1 PUSH1 0x20 ADD KECCAK256 SWAP1 POP SWAP1 JUMP JUMPDEST PUSH1 0x0 SLOAD PUSH1 0x1 PUSH1 0x1 PUSH1 0xA0 SHL SUB AND CALLER EQ PUSH2 0x923 JUMPI PUSH1 0x40 MLOAD PUSH3 0x461BCD PUSH1 0xE5 SHL DUP2 MSTORE PUSH1 0x20 PUSH1 0x4 DUP3 ADD DUP2 SWAP1 MSTORE PUSH1 0x24 DUP3 ADD MSTORE PUSH32 0x4F776E61626C653A2063616C6C6572206973206E6F7420746865206F776E6572 PUSH1 0x44 DUP3 ADD MSTORE PUSH1 0x64 ADD PUSH2 0x1149 JUMP JUMPDEST PUSH1 0x0 DUP1 SLOAD PUSH1 0x1 PUSH1 0x1 PUSH1 0xA0 SHL SUB DUP4 DUP2 AND PUSH1 0x1 PUSH1 0x1 PUSH1 0xA0 SHL SUB NOT DUP4 AND DUP2 OR DUP5 SSTORE PUSH1 0x40 MLOAD SWAP2 SWAP1 SWAP3 AND SWAP3 DUP4 SWAP2 PUSH32 0x8BE0079C531659141344CD1FD0A4F28419497F9722A3DAAFE3B4186F6B6457E0 SWAP2 SWAP1 LOG3 POP POP JUMP JUMPDEST PUSH1 0x1 PUSH1 0x1 PUSH1 0xA0 SHL SUB DUP3 AND PUSH2 0x137C JUMPI PUSH1 0x40 MLOAD PUSH4 0xA41E3D3F PUSH1 0xE0 SHL DUP2 MSTORE PUSH1 0x4 ADD PUSH1 0x40 MLOAD DUP1 SWAP2 SUB SWAP1 REVERT JUMPDEST DUP1 ISZERO PUSH2 0x1390 JUMPI PUSH2 0x138B DUP3 PUSH2 0x1ACC JUMP JUMPDEST PUSH2 0x1399 JUMP JUMPDEST PUSH2 0x1399 DUP3 PUSH2 0x1B00 JUMP JUMPDEST PUSH1 0x1 PUSH1 0x1 PUSH1 0xA0 SHL SUB SWAP2 SWAP1 SWAP2 AND PUSH1 0x0 SWAP1 DUP2 MSTORE PUSH1 0xD PUSH1 0x20 MSTORE PUSH1 0x40 SWAP1 KECCAK256 DUP1 SLOAD PUSH1 0xFF NOT AND SWAP2 ISZERO ISZERO SWAP2 SWAP1 SWAP2 OR SWAP1 SSTORE JUMP JUMPDEST PUSH1 0x1 PUSH1 0x1 PUSH1 0xA0 SHL SUB DUP4 DUP2 AND PUSH1 0x0 SWAP1 DUP2 MSTORE PUSH1 0x7 PUSH1 0x20 MSTORE PUSH1 0x40 DUP1 DUP3 KECCAK256 SLOAD SWAP3 DUP6 AND DUP3 MSTORE DUP2 KECCAK256 SLOAD SWAP1 SWAP2 SWAP1 PUSH2 0x13F5 DUP7 DUP7 DUP7 PUSH2 0x17CD JUMP JUMPDEST PUSH1 0x0 PUSH2 0x1400 DUP8 PUSH2 0x735 JUMP JUMPDEST SWAP1 POP PUSH1 0x0 PUSH2 0x140D DUP8 PUSH2 0x735 JUMP JUMPDEST SWAP1 POP DUP2 DUP1 ISZERO PUSH2 0x1419 JUMPI POP DUP1 JUMPDEST PUSH2 0x172C JUMPI DUP2 ISZERO PUSH2 0x14C2 JUMPI PUSH1 0x0 PUSH2 0x144F PUSH32 0x0 DUP6 PUSH2 0x246B JUMP JUMPDEST PUSH1 0x1 PUSH1 0x1 PUSH1 0xA0 SHL SUB DUP10 AND PUSH1 0x0 SWAP1 DUP2 MSTORE PUSH1 0x7 PUSH1 0x20 MSTORE PUSH1 0x40 SWAP1 KECCAK256 SLOAD PUSH2 0x1493 SWAP1 PUSH32 0x0 SWAP1 PUSH2 0x246B JUMP JUMPDEST PUSH2 0x149D SWAP2 SWAP1 PUSH2 0x2423 JUMP JUMPDEST SWAP1 POP PUSH1 0x0 JUMPDEST DUP2 DUP2 LT ISZERO PUSH2 0x14BB JUMPI PUSH2 0x14B3 DUP10 PUSH2 0x1B8E JUMP JUMPDEST PUSH1 0x1 ADD PUSH2 0x14A2 JUMP JUMPDEST POP POP PUSH2 0x172C JUMP JUMPDEST DUP1 ISZERO PUSH2 0x155E JUMPI PUSH1 0x1 PUSH1 0x1 PUSH1 0xA0 SHL SUB DUP9 AND PUSH1 0x0 SWAP1 DUP2 MSTORE PUSH1 0x7 PUSH1 0x20 MSTORE PUSH1 0x40 DUP2 KECCAK256 SLOAD PUSH2 0x150C SWAP1 PUSH32 0x0 SWAP1 PUSH2 0x246B JUMP JUMPDEST PUSH2 0x1536 PUSH32 0x0 DUP8 PUSH2 0x246B JUMP JUMPDEST PUSH2 0x1540 SWAP2 SWAP1 PUSH2 0x2423 JUMP JUMPDEST SWAP1 POP PUSH1 0x0 JUMPDEST DUP2 DUP2 LT ISZERO PUSH2 0x14BB JUMPI PUSH2 0x1556 DUP11 PUSH2 0x1C76 JUMP JUMPDEST PUSH1 0x1 ADD PUSH2 0x1545 JUMP JUMPDEST PUSH1 0x0 PUSH2 0x158A PUSH32 0x0 DUP9 PUSH2 0x246B JUMP JUMPDEST SWAP1 POP PUSH1 0x0 JUMPDEST DUP2 DUP2 LT ISZERO PUSH2 0x160D JUMPI PUSH1 0x1 PUSH1 0x1 PUSH1 0xA0 SHL SUB DUP11 AND PUSH1 0x0 SWAP1 DUP2 MSTORE PUSH1 0xC PUSH1 0x20 MSTORE PUSH1 0x40 DUP2 KECCAK256 SLOAD PUSH2 0x15BC SWAP1 PUSH1 0x1 SWAP1 PUSH2 0x2423 JUMP JUMPDEST PUSH1 0x1 PUSH1 0x1 PUSH1 0xA0 SHL SUB DUP13 AND PUSH1 0x0 SWAP1 DUP2 MSTORE PUSH1 0xC PUSH1 0x20 MSTORE PUSH1 0x40 DUP2 KECCAK256 DUP1 SLOAD SWAP3 SWAP4 POP SWAP1 SWAP2 DUP4 SWAP1 DUP2 LT PUSH2 0x15EB JUMPI PUSH2 0x15EB PUSH2 0x2449 JUMP JUMPDEST SWAP1 PUSH1 0x0 MSTORE PUSH1 0x20 PUSH1 0x0 KECCAK256 ADD SLOAD SWAP1 POP PUSH2 0x1603 DUP13 DUP13 DUP4 PUSH2 0x1889 JUMP JUMPDEST POP POP PUSH1 0x1 ADD PUSH2 0x158F JUMP JUMPDEST POP DUP1 PUSH32 0x0 PUSH2 0x164F DUP12 PUSH1 0x1 PUSH1 0x1 PUSH1 0xA0 SHL SUB AND PUSH1 0x0 SWAP1 DUP2 MSTORE PUSH1 0x7 PUSH1 0x20 MSTORE PUSH1 0x40 SWAP1 KECCAK256 SLOAD SWAP1 JUMP JUMPDEST PUSH2 0x1659 SWAP2 SWAP1 PUSH2 0x246B JUMP JUMPDEST PUSH2 0x1683 PUSH32 0x0 DUP9 PUSH2 0x246B JUMP JUMPDEST PUSH2 0x168D SWAP2 SWAP1 PUSH2 0x2423 JUMP JUMPDEST GT ISZERO PUSH2 0x169C JUMPI PUSH2 0x169C DUP10 PUSH2 0x1C76 JUMP JUMPDEST DUP1 PUSH2 0x16C7 PUSH32 0x0 DUP7 PUSH2 0x246B JUMP JUMPDEST PUSH32 0x0 PUSH2 0x1707 DUP12 PUSH1 0x1 PUSH1 0x1 PUSH1 0xA0 SHL SUB AND PUSH1 0x0 SWAP1 DUP2 MSTORE PUSH1 0x7 PUSH1 0x20 MSTORE PUSH1 0x40 SWAP1 KECCAK256 SLOAD SWAP1 JUMP JUMPDEST PUSH2 0x1711 SWAP2 SWAP1 PUSH2 0x246B JUMP JUMPDEST PUSH2 0x171B SWAP2 SWAP1 PUSH2 0x2423 JUMP JUMPDEST GT ISZERO PUSH2 0x172A JUMPI PUSH2 0x172A DUP9 PUSH2 0x1B8E JUMP JUMPDEST POP JUMPDEST POP PUSH1 0x1 SWAP8 SWAP7 POP POP POP POP POP POP POP JUMP JUMPDEST PUSH1 0x60 PUSH1 0x0 PUSH2 0x1747 DUP4 PUSH2 0x1CF7 JUMP JUMPDEST PUSH1 0x1 ADD SWAP1 POP PUSH1 0x0 DUP2 PUSH8 0xFFFFFFFFFFFFFFFF DUP2 GT ISZERO PUSH2 0x1767 JUMPI PUSH2 0x1767 PUSH2 0x2107 JUMP JUMPDEST PUSH1 0x40 MLOAD SWAP1 DUP1 DUP3 MSTORE DUP1 PUSH1 0x1F ADD PUSH1 0x1F NOT AND PUSH1 0x20 ADD DUP3 ADD PUSH1 0x40 MSTORE DUP1 ISZERO PUSH2 0x1791 JUMPI PUSH1 0x20 DUP3 ADD DUP2 DUP1 CALLDATASIZE DUP4 CALLDATACOPY ADD SWAP1 POP JUMPDEST POP SWAP1 POP DUP2 DUP2 ADD PUSH1 0x20 ADD JUMPDEST PUSH1 0x0 NOT ADD PUSH16 0x181899199A1A9B1B9C1CB0B131B232B3 PUSH1 0x81 SHL PUSH1 0xA DUP7 MOD BYTE DUP2 MSTORE8 PUSH1 0xA DUP6 DIV SWAP5 POP DUP5 PUSH2 0x179B JUMPI POP SWAP4 SWAP3 POP POP POP JUMP JUMPDEST PUSH1 0x1 PUSH1 0x1 PUSH1 0xA0 SHL SUB DUP4 AND PUSH2 0x17F8 JUMPI DUP1 PUSH1 0x5 PUSH1 0x0 DUP3 DUP3 SLOAD PUSH2 0x17ED SWAP2 SWAP1 PUSH2 0x2436 JUMP JUMPDEST SWAP1 SWAP2 SSTORE POP PUSH2 0x1826 SWAP1 POP JUMP JUMPDEST PUSH1 0x1 PUSH1 0x1 PUSH1 0xA0 SHL SUB DUP4 AND PUSH1 0x0 SWAP1 DUP2 MSTORE PUSH1 0x7 PUSH1 0x20 MSTORE PUSH1 0x40 DUP2 KECCAK256 DUP1 SLOAD DUP4 SWAP3 SWAP1 PUSH2 0x1820 SWAP1 DUP5 SWAP1 PUSH2 0x2423 JUMP JUMPDEST SWAP1 SWAP2 SSTORE POP POP JUMPDEST PUSH1 0x1 PUSH1 0x1 PUSH1 0xA0 SHL SUB DUP1 DUP4 AND PUSH1 0x0 DUP2 DUP2 MSTORE PUSH1 0x7 PUSH1 0x20 MSTORE PUSH1 0x40 SWAP1 DUP2 SWAP1 KECCAK256 DUP1 SLOAD DUP6 ADD SWAP1 SSTORE MLOAD SWAP1 SWAP2 DUP6 AND SWAP1 PUSH32 0xDDF252AD1BE2C89B69C2B068FC378DAA952BA7F163C4A11628F55A4DF523B3EF SWAP1 PUSH2 0x187C SWAP1 DUP6 DUP2 MSTORE PUSH1 0x20 ADD SWAP1 JUMP JUMPDEST PUSH1 0x40 MLOAD DUP1 SWAP2 SUB SWAP1 LOG3 POP POP POP JUMP JUMPDEST PUSH1 0x1 PUSH1 0x1 PUSH1 0xA0 SHL SUB DUP4 AND ISZERO PUSH2 0x1994 JUMPI PUSH1 0x0 DUP2 DUP2 MSTORE PUSH1 0x9 PUSH1 0x20 SWAP1 DUP2 MSTORE PUSH1 0x40 DUP1 DUP4 KECCAK256 DUP1 SLOAD PUSH1 0x1 PUSH1 0x1 PUSH1 0xA0 SHL SUB NOT AND SWAP1 SSTORE PUSH1 0x1 PUSH1 0x1 PUSH1 0xA0 SHL SUB DUP7 AND DUP4 MSTORE PUSH1 0xC SWAP1 SWAP2 MSTORE DUP2 KECCAK256 DUP1 SLOAD PUSH2 0x18D8 SWAP1 PUSH1 0x1 SWAP1 PUSH2 0x2423 JUMP JUMPDEST DUP2 SLOAD DUP2 LT PUSH2 0x18E8 JUMPI PUSH2 0x18E8 PUSH2 0x2449 JUMP JUMPDEST SWAP1 PUSH1 0x0 MSTORE PUSH1 0x20 PUSH1 0x0 KECCAK256 ADD SLOAD SWAP1 POP DUP2 DUP2 EQ PUSH2 0x1955 JUMPI PUSH1 0x0 DUP3 DUP2 MSTORE PUSH1 0xB PUSH1 0x20 MSTORE PUSH1 0x40 DUP2 KECCAK256 SLOAD PUSH1 0xA0 SHR PUSH1 0x1 PUSH1 0x1 PUSH1 0xA0 SHL SUB DUP7 AND PUSH1 0x0 SWAP1 DUP2 MSTORE PUSH1 0xC PUSH1 0x20 MSTORE PUSH1 0x40 SWAP1 KECCAK256 DUP1 SLOAD SWAP2 SWAP3 POP DUP4 SWAP2 DUP4 SWAP1 DUP2 LT PUSH2 0x193D JUMPI PUSH2 0x193D PUSH2 0x2449 JUMP JUMPDEST PUSH1 0x0 SWAP2 DUP3 MSTORE PUSH1 0x20 SWAP1 SWAP2 KECCAK256 ADD SSTORE PUSH2 0x1953 DUP3 DUP3 PUSH2 0x1DCF JUMP JUMPDEST POP JUMPDEST PUSH1 0x1 PUSH1 0x1 PUSH1 0xA0 SHL SUB DUP5 AND PUSH1 0x0 SWAP1 DUP2 MSTORE PUSH1 0xC PUSH1 0x20 MSTORE PUSH1 0x40 SWAP1 KECCAK256 DUP1 SLOAD DUP1 PUSH2 0x197C JUMPI PUSH2 0x197C PUSH2 0x248D JUMP JUMPDEST PUSH1 0x1 SWAP1 SUB DUP2 DUP2 SWAP1 PUSH1 0x0 MSTORE PUSH1 0x20 PUSH1 0x0 KECCAK256 ADD PUSH1 0x0 SWAP1 SSTORE SWAP1 SSTORE POP JUMPDEST PUSH1 0x1 PUSH1 0x1 PUSH1 0xA0 SHL SUB DUP3 AND ISZERO PUSH2 0x1A0B JUMPI PUSH1 0x0 DUP2 DUP2 MSTORE PUSH1 0xB PUSH1 0x20 SWAP1 DUP2 MSTORE PUSH1 0x40 DUP1 DUP4 KECCAK256 DUP1 SLOAD PUSH1 0x1 PUSH1 0x1 PUSH1 0xA0 SHL SUB NOT AND PUSH1 0x1 PUSH1 0x1 PUSH1 0xA0 SHL SUB DUP8 AND SWAP1 DUP2 ADD SWAP1 SWAP2 SSTORE DUP1 DUP5 MSTORE PUSH1 0xC DUP4 MSTORE SWAP1 DUP4 KECCAK256 DUP1 SLOAD PUSH1 0x1 DUP2 DUP2 ADD DUP4 SSTORE DUP3 DUP7 MSTORE SWAP4 DUP6 KECCAK256 ADD DUP6 SWAP1 SSTORE SWAP3 MSTORE SWAP1 SLOAD PUSH2 0x1A06 SWAP2 DUP4 SWAP2 PUSH2 0x1A01 SWAP2 SWAP1 PUSH2 0x2423 JUMP JUMPDEST PUSH2 0x1DCF JUMP JUMPDEST PUSH2 0x1A1B JUMP JUMPDEST PUSH1 0x0 DUP2 DUP2 MSTORE PUSH1 0xB PUSH1 0x20 MSTORE PUSH1 0x40 DUP2 KECCAK256 SSTORE JUMPDEST DUP1 DUP3 PUSH1 0x1 PUSH1 0x1 PUSH1 0xA0 SHL SUB AND DUP5 PUSH1 0x1 PUSH1 0x1 PUSH1 0xA0 SHL SUB AND PUSH32 0xDDF252AD1BE2C89B69C2B068FC378DAA952BA7F163C4A11628F55A4DF523B3EF PUSH1 0x40 MLOAD PUSH1 0x40 MLOAD DUP1 SWAP2 SUB SWAP1 LOG4 POP POP POP JUMP JUMPDEST PUSH1 0x0 PUSH2 0x1A85 DUP4 SLOAD PUSH1 0x1 PUSH1 0x1 PUSH1 0x80 SHL SUB DUP1 DUP3 AND PUSH1 0x1 PUSH1 0x80 SHL SWAP1 SWAP3 DIV DUP2 AND SWAP2 SWAP1 SWAP2 SUB AND SWAP1 JUMP JUMPDEST DUP3 LT PUSH2 0x1AA4 JUMPI PUSH1 0x40 MLOAD PUSH4 0x580821E7 PUSH1 0xE0 SHL DUP2 MSTORE PUSH1 0x4 ADD PUSH1 0x40 MLOAD DUP1 SWAP2 SUB SWAP1 REVERT JUMPDEST POP DUP2 SLOAD PUSH1 0x1 PUSH1 0x1 PUSH1 0x80 SHL SUB SWAP1 DUP2 AND DUP3 ADD AND PUSH1 0x0 SWAP1 DUP2 MSTORE PUSH1 0x1 DUP4 ADD PUSH1 0x20 MSTORE PUSH1 0x40 SWAP1 KECCAK256 SLOAD SWAP3 SWAP2 POP POP JUMP JUMPDEST PUSH1 0x1 PUSH1 0x1 PUSH1 0xA0 SHL SUB DUP2 AND PUSH1 0x0 SWAP1 DUP2 MSTORE PUSH1 0xC PUSH1 0x20 MSTORE PUSH1 0x40 DUP2 KECCAK256 SLOAD SWAP1 JUMPDEST DUP2 DUP2 LT ISZERO PUSH2 0x815 JUMPI PUSH2 0x1AF8 DUP4 PUSH2 0x1C76 JUMP JUMPDEST PUSH1 0x1 ADD PUSH2 0x1AE7 JUMP JUMPDEST PUSH1 0x1 PUSH1 0x1 PUSH1 0xA0 SHL SUB DUP2 AND PUSH1 0x0 SWAP1 DUP2 MSTORE PUSH1 0x7 PUSH1 0x20 MSTORE PUSH1 0x40 DUP2 KECCAK256 SLOAD PUSH2 0x1B44 SWAP1 PUSH32 0x0 SWAP1 PUSH2 0x246B JUMP JUMPDEST SWAP1 POP PUSH1 0x0 PUSH2 0x1B67 DUP4 PUSH1 0x1 PUSH1 0x1 PUSH1 0xA0 SHL SUB AND PUSH1 0x0 SWAP1 DUP2 MSTORE PUSH1 0xC PUSH1 0x20 MSTORE PUSH1 0x40 SWAP1 KECCAK256 SLOAD SWAP1 JUMP JUMPDEST SWAP1 POP PUSH1 0x0 JUMPDEST PUSH2 0x1B76 DUP3 DUP5 PUSH2 0x2423 JUMP JUMPDEST DUP2 LT ISZERO PUSH2 0xB5A JUMPI PUSH2 0x1B86 DUP5 PUSH2 0x1B8E JUMP JUMPDEST PUSH1 0x1 ADD PUSH2 0x1B6C JUMP JUMPDEST PUSH1 0x1 PUSH1 0x1 PUSH1 0xA0 SHL SUB DUP2 AND PUSH2 0x1BB5 JUMPI PUSH1 0x40 MLOAD PUSH4 0x4E469669 PUSH1 0xE1 SHL DUP2 MSTORE PUSH1 0x4 ADD PUSH1 0x40 MLOAD DUP1 SWAP2 SUB SWAP1 REVERT JUMPDEST PUSH1 0x0 PUSH2 0x1BD5 PUSH1 0x1 SLOAD PUSH1 0x1 PUSH1 0x80 SHL DUP2 DIV PUSH1 0x1 PUSH1 0x1 PUSH1 0x80 SHL SUB SWAP1 DUP2 AND SWAP2 AND EQ SWAP1 JUMP JUMPDEST PUSH2 0x1BEA JUMPI PUSH2 0x1BE3 PUSH1 0x1 PUSH2 0x1E3B JUMP JUMPDEST SWAP1 POP PUSH2 0x1C34 JUMP JUMPDEST PUSH1 0x6 PUSH1 0x0 DUP2 SLOAD PUSH2 0x1BF9 SWAP1 PUSH2 0x24A3 JUMP JUMPDEST SWAP1 SWAP2 SSTORE POP PUSH1 0x6 SLOAD PUSH1 0x1 ADD PUSH2 0x1C20 JUMPI PUSH1 0x40 MLOAD PUSH4 0x303B682F PUSH1 0xE0 SHL DUP2 MSTORE PUSH1 0x4 ADD PUSH1 0x40 MLOAD DUP1 SWAP2 SUB SWAP1 REVERT JUMPDEST PUSH1 0x6 SLOAD PUSH2 0x1C31 SWAP1 PUSH1 0x1 PUSH1 0xFF SHL PUSH2 0x2436 JUMP JUMPDEST SWAP1 POP JUMPDEST PUSH1 0x0 DUP2 DUP2 MSTORE PUSH1 0xB PUSH1 0x20 MSTORE PUSH1 0x40 SWAP1 KECCAK256 SLOAD PUSH1 0x1 PUSH1 0x1 PUSH1 0xA0 SHL SUB AND DUP1 ISZERO PUSH2 0x1C6B JUMPI PUSH1 0x40 MLOAD PUSH4 0x119B4FD3 PUSH1 0xE1 SHL DUP2 MSTORE PUSH1 0x4 ADD PUSH1 0x40 MLOAD DUP1 SWAP2 SUB SWAP1 REVERT JUMPDEST PUSH2 0x815 DUP2 DUP5 DUP5 PUSH2 0x1889 JUMP JUMPDEST PUSH1 0x1 PUSH1 0x1 PUSH1 0xA0 SHL SUB DUP2 AND PUSH2 0x1C9D JUMPI PUSH1 0x40 MLOAD PUSH4 0x6EDAEF2F PUSH1 0xE1 SHL DUP2 MSTORE PUSH1 0x4 ADD PUSH1 0x40 MLOAD DUP1 SWAP2 SUB SWAP1 REVERT JUMPDEST PUSH1 0x1 PUSH1 0x1 PUSH1 0xA0 SHL SUB DUP2 AND PUSH1 0x0 SWAP1 DUP2 MSTORE PUSH1 0xC PUSH1 0x20 MSTORE PUSH1 0x40 DUP2 KECCAK256 DUP1 SLOAD PUSH2 0x1CC3 SWAP1 PUSH1 0x1 SWAP1 PUSH2 0x2423 JUMP JUMPDEST DUP2 SLOAD DUP2 LT PUSH2 0x1CD3 JUMPI PUSH2 0x1CD3 PUSH2 0x2449 JUMP JUMPDEST SWAP1 PUSH1 0x0 MSTORE PUSH1 0x20 PUSH1 0x0 KECCAK256 ADD SLOAD SWAP1 POP PUSH2 0x1CEC DUP3 PUSH1 0x0 DUP4 PUSH2 0x1889 JUMP JUMPDEST PUSH2 0xB72 PUSH1 0x1 DUP3 PUSH2 0x1EAB JUMP JUMPDEST PUSH1 0x0 DUP1 PUSH19 0x184F03E93FF9F4DAA797ED6E38ED64BF6A1F01 PUSH1 0x40 SHL DUP4 LT PUSH2 0x1D36 JUMPI PUSH19 0x184F03E93FF9F4DAA797ED6E38ED64BF6A1F01 PUSH1 0x40 SHL DUP4 DIV SWAP3 POP PUSH1 0x40 ADD JUMPDEST PUSH14 0x4EE2D6D415B85ACEF8100000000 DUP4 LT PUSH2 0x1D62 JUMPI PUSH14 0x4EE2D6D415B85ACEF8100000000 DUP4 DIV SWAP3 POP PUSH1 0x20 ADD JUMPDEST PUSH7 0x2386F26FC10000 DUP4 LT PUSH2 0x1D80 JUMPI PUSH7 0x2386F26FC10000 DUP4 DIV SWAP3 POP PUSH1 0x10 ADD JUMPDEST PUSH4 0x5F5E100 DUP4 LT PUSH2 0x1D98 JUMPI PUSH4 0x5F5E100 DUP4 DIV SWAP3 POP PUSH1 0x8 ADD JUMPDEST PUSH2 0x2710 DUP4 LT PUSH2 0x1DAC JUMPI PUSH2 0x2710 DUP4 DIV SWAP3 POP PUSH1 0x4 ADD JUMPDEST PUSH1 0x64 DUP4 LT PUSH2 0x1DBE JUMPI PUSH1 0x64 DUP4 DIV SWAP3 POP PUSH1 0x2 ADD JUMPDEST PUSH1 0xA DUP4 LT PUSH2 0x63E JUMPI PUSH1 0x1 ADD SWAP3 SWAP2 POP POP JUMP JUMPDEST PUSH1 0x0 DUP3 DUP2 MSTORE PUSH1 0xB PUSH1 0x20 MSTORE PUSH1 0x40 SWAP1 KECCAK256 SLOAD PUSH12 0xFFFFFFFFFFFFFFFFFFFFFFFF DUP3 GT ISZERO PUSH2 0x1E0B JUMPI PUSH1 0x40 MLOAD PUSH4 0x3F2CD0E3 PUSH1 0xE2 SHL DUP2 MSTORE PUSH1 0x4 ADD PUSH1 0x40 MLOAD DUP1 SWAP2 SUB SWAP1 REVERT JUMPDEST PUSH1 0x0 SWAP3 DUP4 MSTORE PUSH1 0xB PUSH1 0x20 MSTORE PUSH1 0x40 SWAP1 SWAP3 KECCAK256 PUSH1 0x1 PUSH1 0x1 PUSH1 0xA0 SHL SUB SWAP3 SWAP1 SWAP3 AND PUSH1 0xA0 SWAP2 SWAP1 SWAP2 SHL PUSH1 0x1 PUSH1 0x1 PUSH1 0xA0 SHL SUB NOT AND ADD SWAP1 SSTORE JUMP JUMPDEST DUP1 SLOAD PUSH1 0x0 SWAP1 PUSH1 0x1 PUSH1 0x1 PUSH1 0x80 SHL SUB PUSH1 0x1 PUSH1 0x80 SHL DUP3 DIV DUP2 AND SWAP2 AND DUP2 SUB PUSH2 0x1E72 JUMPI PUSH1 0x40 MLOAD PUSH4 0x75E52F4F PUSH1 0xE0 SHL DUP2 MSTORE PUSH1 0x4 ADD PUSH1 0x40 MLOAD DUP1 SWAP2 SUB SWAP1 REVERT JUMPDEST PUSH1 0x0 NOT ADD PUSH1 0x1 PUSH1 0x1 PUSH1 0x80 SHL SUB SWAP1 DUP2 AND PUSH1 0x0 DUP2 DUP2 MSTORE PUSH1 0x1 DUP6 ADD PUSH1 0x20 MSTORE PUSH1 0x40 DUP2 KECCAK256 DUP1 SLOAD SWAP2 SWAP1 SSTORE DUP5 SLOAD SWAP1 SWAP3 AND PUSH1 0x1 PUSH1 0x80 SHL SWAP1 SWAP2 MUL OR SWAP1 SWAP3 SSTORE POP SWAP1 JUMP JUMPDEST DUP2 SLOAD PUSH1 0x1 PUSH1 0x1 PUSH1 0x80 SHL SUB DUP1 DUP3 AND PUSH1 0x0 NOT ADD SWAP2 PUSH1 0x1 PUSH1 0x80 SHL SWAP1 DIV DUP2 AND SWAP1 DUP3 AND SUB PUSH2 0x1EE7 JUMPI PUSH1 0x40 MLOAD PUSH4 0x8ACB5F27 PUSH1 0xE0 SHL DUP2 MSTORE PUSH1 0x4 ADD PUSH1 0x40 MLOAD DUP1 SWAP2 SUB SWAP1 REVERT JUMPDEST PUSH1 0x1 PUSH1 0x1 PUSH1 0x80 SHL SUB AND PUSH1 0x0 DUP2 DUP2 MSTORE PUSH1 0x1 DUP5 ADD PUSH1 0x20 MSTORE PUSH1 0x40 SWAP1 KECCAK256 SWAP2 SWAP1 SWAP2 SSTORE DUP2 SLOAD PUSH16 0xFFFFFFFFFFFFFFFFFFFFFFFFFFFFFFFF NOT AND OR SWAP1 SSTORE JUMP JUMPDEST PUSH1 0x1 PUSH1 0x1 PUSH1 0xE0 SHL SUB NOT DUP2 AND DUP2 EQ PUSH2 0x92F JUMPI PUSH1 0x0 DUP1 REVERT JUMPDEST PUSH1 0x0 PUSH1 0x20 DUP3 DUP5 SUB SLT ISZERO PUSH2 0x1F46 JUMPI PUSH1 0x0 DUP1 REVERT JUMPDEST DUP2 CALLDATALOAD PUSH2 0x79D DUP2 PUSH2 0x1F1E JUMP JUMPDEST DUP1 CALLDATALOAD PUSH1 0x1 PUSH1 0x1 PUSH1 0xA0 SHL SUB DUP2 AND DUP2 EQ PUSH2 0x90C JUMPI PUSH1 0x0 DUP1 REVERT JUMPDEST PUSH1 0x0 PUSH1 0x20 DUP3 DUP5 SUB SLT ISZERO PUSH2 0x1F7A JUMPI PUSH1 0x0 DUP1 REVERT JUMPDEST PUSH2 0x79D DUP3 PUSH2 0x1F51 JUMP JUMPDEST PUSH1 0x0 JUMPDEST DUP4 DUP2 LT ISZERO PUSH2 0x1F9E JUMPI DUP2 DUP2 ADD MLOAD DUP4 DUP3 ADD MSTORE PUSH1 0x20 ADD PUSH2 0x1F86 JUMP JUMPDEST POP POP PUSH1 0x0 SWAP2 ADD MSTORE JUMP JUMPDEST PUSH1 0x0 DUP2 MLOAD DUP1 DUP5 MSTORE PUSH2 0x1FBF DUP2 PUSH1 0x20 DUP7 ADD PUSH1 0x20 DUP7 ADD PUSH2 0x1F83 JUMP JUMPDEST PUSH1 0x1F ADD PUSH1 0x1F NOT AND SWAP3 SWAP1 SWAP3 ADD PUSH1 0x20 ADD SWAP3 SWAP2 POP POP JUMP JUMPDEST PUSH1 0x20 DUP2 MSTORE PUSH1 0x0 PUSH2 0x79D PUSH1 0x20 DUP4 ADD DUP5 PUSH2 0x1FA7 JUMP JUMPDEST PUSH1 0x0 PUSH1 0x20 DUP3 DUP5 SUB SLT ISZERO PUSH2 0x1FF8 JUMPI PUSH1 0x0 DUP1 REVERT JUMPDEST POP CALLDATALOAD SWAP2 SWAP1 POP JUMP JUMPDEST PUSH1 0x0 DUP1 PUSH1 0x40 DUP4 DUP6 SUB SLT ISZERO PUSH2 0x2012 JUMPI PUSH1 0x0 DUP1 REVERT JUMPDEST PUSH2 0x201B DUP4 PUSH2 0x1F51 JUMP JUMPDEST SWAP5 PUSH1 0x20 SWAP4 SWAP1 SWAP4 ADD CALLDATALOAD SWAP4 POP POP POP JUMP JUMPDEST PUSH1 0x0 DUP1 PUSH1 0x0 PUSH1 0x60 DUP5 DUP7 SUB SLT ISZERO PUSH2 0x203E JUMPI PUSH1 0x0 DUP1 REVERT JUMPDEST PUSH2 0x2047 DUP5 PUSH2 0x1F51 JUMP JUMPDEST SWAP3 POP PUSH2 0x2055 PUSH1 0x20 DUP6 ADD PUSH2 0x1F51 JUMP JUMPDEST SWAP2 POP PUSH1 0x40 DUP5 ADD CALLDATALOAD SWAP1 POP SWAP3 POP SWAP3 POP SWAP3 JUMP JUMPDEST DUP1 CALLDATALOAD DUP1 ISZERO ISZERO DUP2 EQ PUSH2 0x90C JUMPI PUSH1 0x0 DUP1 REVERT JUMPDEST PUSH1 0x0 PUSH1 0x20 DUP3 DUP5 SUB SLT ISZERO PUSH2 0x2087 JUMPI PUSH1 0x0 DUP1 REVERT JUMPDEST PUSH2 0x79D DUP3 PUSH2 0x2065 JUMP JUMPDEST PUSH1 0x0 DUP1 PUSH1 0x40 DUP4 DUP6 SUB SLT ISZERO PUSH2 0x20A3 JUMPI PUSH1 0x0 DUP1 REVERT JUMPDEST PUSH2 0x20AC DUP4 PUSH2 0x1F51 JUMP JUMPDEST SWAP2 POP PUSH2 0x20BA PUSH1 0x20 DUP5 ADD PUSH2 0x2065 JUMP JUMPDEST SWAP1 POP SWAP3 POP SWAP3 SWAP1 POP JUMP JUMPDEST PUSH1 0x20 DUP1 DUP3 MSTORE DUP3 MLOAD DUP3 DUP3 ADD DUP2 SWAP1 MSTORE PUSH1 0x0 SWAP2 SWAP1 DUP5 DUP3 ADD SWAP1 PUSH1 0x40 DUP6 ADD SWAP1 DUP5 JUMPDEST DUP2 DUP2 LT ISZERO PUSH2 0x20FB JUMPI DUP4 MLOAD DUP4 MSTORE SWAP3 DUP5 ADD SWAP3 SWAP2 DUP5 ADD SWAP2 PUSH1 0x1 ADD PUSH2 0x20DF JUMP JUMPDEST POP SWAP1 SWAP7 SWAP6 POP POP POP POP POP POP JUMP JUMPDEST PUSH4 0x4E487B71 PUSH1 0xE0 SHL PUSH1 0x0 MSTORE PUSH1 0x41 PUSH1 0x4 MSTORE PUSH1 0x24 PUSH1 0x0 REVERT JUMPDEST PUSH1 0x0 DUP1 PUSH1 0x0 DUP1 PUSH1 0x80 DUP6 DUP8 SUB SLT ISZERO PUSH2 0x2133 JUMPI PUSH1 0x0 DUP1 REVERT JUMPDEST PUSH2 0x213C DUP6 PUSH2 0x1F51 JUMP JUMPDEST SWAP4 POP PUSH2 0x214A PUSH1 0x20 DUP7 ADD PUSH2 0x1F51 JUMP JUMPDEST SWAP3 POP PUSH1 0x40 DUP6 ADD CALLDATALOAD SWAP2 POP PUSH1 0x60 DUP6 ADD CALLDATALOAD PUSH8 0xFFFFFFFFFFFFFFFF DUP1 DUP3 GT ISZERO PUSH2 0x216E JUMPI PUSH1 0x0 DUP1 REVERT JUMPDEST DUP2 DUP8 ADD SWAP2 POP DUP8 PUSH1 0x1F DUP4 ADD SLT PUSH2 0x2182 JUMPI PUSH1 0x0 DUP1 REVERT JUMPDEST DUP2 CALLDATALOAD DUP2 DUP2 GT ISZERO PUSH2 0x2194 JUMPI PUSH2 0x2194 PUSH2 0x2107 JUMP JUMPDEST PUSH1 0x40 MLOAD PUSH1 0x1F DUP3 ADD PUSH1 0x1F NOT SWAP1 DUP2 AND PUSH1 0x3F ADD AND DUP2 ADD SWAP1 DUP4 DUP3 GT DUP2 DUP4 LT OR ISZERO PUSH2 0x21BC JUMPI PUSH2 0x21BC PUSH2 0x2107 JUMP JUMPDEST DUP2 PUSH1 0x40 MSTORE DUP3 DUP2 MSTORE DUP11 PUSH1 0x20 DUP5 DUP8 ADD ADD GT ISZERO PUSH2 0x21D5 JUMPI PUSH1 0x0 DUP1 REVERT JUMPDEST DUP3 PUSH1 0x20 DUP7 ADD PUSH1 0x20 DUP4 ADD CALLDATACOPY PUSH1 0x0 PUSH1 0x20 DUP5 DUP4 ADD ADD MSTORE DUP1 SWAP6 POP POP POP POP POP POP SWAP3 SWAP6 SWAP2 SWAP5 POP SWAP3 POP JUMP JUMPDEST PUSH1 0x0 DUP1 PUSH1 0x0 DUP1 PUSH1 0x0 DUP1 PUSH1 0x0 PUSH1 0xE0 DUP9 DUP11 SUB SLT ISZERO PUSH2 0x2214 JUMPI PUSH1 0x0 DUP1 REVERT JUMPDEST PUSH2 0x221D DUP9 PUSH2 0x1F51 JUMP JUMPDEST SWAP7 POP PUSH2 0x222B PUSH1 0x20 DUP10 ADD PUSH2 0x1F51 JUMP JUMPDEST SWAP6 POP PUSH1 0x40 DUP9 ADD CALLDATALOAD SWAP5 POP PUSH1 0x60 DUP9 ADD CALLDATALOAD SWAP4 POP PUSH1 0x80 DUP9 ADD CALLDATALOAD PUSH1 0xFF DUP2 AND DUP2 EQ PUSH2 0x224F JUMPI PUSH1 0x0 DUP1 REVERT JUMPDEST SWAP7 SWAP10 SWAP6 SWAP9 POP SWAP4 SWAP7 SWAP3 SWAP6 SWAP5 PUSH1 0xA0 DUP5 ADD CALLDATALOAD SWAP5 POP PUSH1 0xC0 SWAP1 SWAP4 ADD CALLDATALOAD SWAP3 SWAP2 POP POP JUMP JUMPDEST PUSH1 0x0 DUP1 PUSH1 0x40 DUP4 DUP6 SUB SLT ISZERO PUSH2 0x227F JUMPI PUSH1 0x0 DUP1 REVERT JUMPDEST PUSH2 0x2288 DUP4 PUSH2 0x1F51 JUMP JUMPDEST SWAP2 POP PUSH2 0x20BA PUSH1 0x20 DUP5 ADD PUSH2 0x1F51 JUMP JUMPDEST PUSH1 0x0 DUP1 PUSH1 0x40 DUP4 DUP6 SUB SLT ISZERO PUSH2 0x22A9 JUMPI PUSH1 0x0 DUP1 REVERT JUMPDEST POP POP DUP1 CALLDATALOAD SWAP3 PUSH1 0x20 SWAP1 SWAP2 ADD CALLDATALOAD SWAP2 POP JUMP JUMPDEST PUSH1 0x1 DUP2 DUP2 SHR SWAP1 DUP3 AND DUP1 PUSH2 0x22CC JUMPI PUSH1 0x7F DUP3 AND SWAP2 POP JUMPDEST PUSH1 0x20 DUP3 LT DUP2 SUB PUSH2 0x22EC JUMPI PUSH4 0x4E487B71 PUSH1 0xE0 SHL PUSH1 0x0 MSTORE PUSH1 0x22 PUSH1 0x4 MSTORE PUSH1 0x24 PUSH1 0x0 REVERT JUMPDEST POP SWAP2 SWAP1 POP JUMP JUMPDEST PUSH1 0x1 PUSH1 0x1 PUSH1 0xA0 SHL SUB DUP6 DUP2 AND DUP3 MSTORE DUP5 AND PUSH1 0x20 DUP3 ADD MSTORE PUSH1 0x40 DUP2 ADD DUP4 SWAP1 MSTORE PUSH1 0x80 PUSH1 0x60 DUP3 ADD DUP2 SWAP1 MSTORE PUSH1 0x0 SWAP1 PUSH2 0x2325 SWAP1 DUP4 ADD DUP5 PUSH2 0x1FA7 JUMP JUMPDEST SWAP7 SWAP6 POP POP POP POP POP POP JUMP JUMPDEST PUSH1 0x0 PUSH1 0x20 DUP3 DUP5 SUB SLT ISZERO PUSH2 0x2341 JUMPI PUSH1 0x0 DUP1 REVERT JUMPDEST DUP2 MLOAD PUSH2 0x79D DUP2 PUSH2 0x1F1E JUMP JUMPDEST DUP1 SLOAD PUSH1 0x0 SWAP1 PUSH1 0x1 DUP2 DUP2 SHR SWAP1 DUP1 DUP4 AND DUP1 PUSH2 0x2366 JUMPI PUSH1 0x7F DUP4 AND SWAP3 POP JUMPDEST PUSH1 0x20 DUP1 DUP5 LT DUP3 SUB PUSH2 0x2387 JUMPI PUSH4 0x4E487B71 PUSH1 0xE0 SHL PUSH1 0x0 MSTORE PUSH1 0x22 PUSH1 0x4 MSTORE PUSH1 0x24 PUSH1 0x0 REVERT JUMPDEST DUP2 DUP1 ISZERO PUSH2 0x239B JUMPI PUSH1 0x1 DUP2 EQ PUSH2 0x23B0 JUMPI PUSH2 0x23DC JUMP JUMPDEST PUSH1 0xFF NOT DUP7 AND DUP10 MSTORE DUP5 ISZERO ISZERO DUP6 MUL DUP10 ADD SWAP7 POP PUSH2 0x23DC JUMP JUMPDEST DUP8 PUSH1 0x0 MSTORE DUP2 PUSH1 0x0 KECCAK256 PUSH1 0x0 JUMPDEST DUP7 DUP2 LT ISZERO PUSH2 0x23D4 JUMPI DUP2 SLOAD DUP12 DUP3 ADD MSTORE SWAP1 DUP6 ADD SWAP1 DUP4 ADD PUSH2 0x23BB JUMP JUMPDEST POP POP DUP5 DUP10 ADD SWAP7 POP JUMPDEST POP POP POP POP POP POP SWAP3 SWAP2 POP POP JUMP JUMPDEST PUSH1 0x0 PUSH2 0x23F4 DUP3 DUP6 PUSH2 0x234C JUMP JUMPDEST DUP4 MLOAD PUSH2 0x2404 DUP2 DUP4 PUSH1 0x20 DUP9 ADD PUSH2 0x1F83 JUMP JUMPDEST ADD SWAP5 SWAP4 POP POP POP POP JUMP JUMPDEST PUSH4 0x4E487B71 PUSH1 0xE0 SHL PUSH1 0x0 MSTORE PUSH1 0x11 PUSH1 0x4 MSTORE PUSH1 0x24 PUSH1 0x0 REVERT JUMPDEST DUP2 DUP2 SUB DUP2 DUP2 GT ISZERO PUSH2 0x63E JUMPI PUSH2 0x63E PUSH2 0x240D JUMP JUMPDEST DUP1 DUP3 ADD DUP1 DUP3 GT ISZERO PUSH2 0x63E JUMPI PUSH2 0x63E PUSH2 0x240D JUMP JUMPDEST PUSH4 0x4E487B71 PUSH1 0xE0 SHL PUSH1 0x0 MSTORE PUSH1 0x32 PUSH1 0x4 MSTORE PUSH1 0x24 PUSH1 0x0 REVERT JUMPDEST PUSH1 0x0 PUSH2 0x79D DUP3 DUP5 PUSH2 0x234C JUMP JUMPDEST PUSH1 0x0 DUP3 PUSH2 0x2488 JUMPI PUSH4 0x4E487B71 PUSH1 0xE0 SHL PUSH1 0x0 MSTORE PUSH1 0x12 PUSH1 0x4 MSTORE PUSH1 0x24 PUSH1 0x0 REVERT JUMPDEST POP DIV SWAP1 JUMP JUMPDEST PUSH4 0x4E487B71 PUSH1 0xE0 SHL PUSH1 0x0 MSTORE PUSH1 0x31 PUSH1 0x4 MSTORE PUSH1 0x24 PUSH1 0x0 REVERT JUMPDEST PUSH1 0x0 PUSH1 0x1 DUP3 ADD PUSH2 0x24B5 JUMPI PUSH2 0x24B5 PUSH2 0x240D JUMP JUMPDEST POP PUSH1 0x1 ADD SWAP1 JUMP INVALID LOG2 PUSH5 0x6970667358 0x22 SLT KECCAK256 OR 0xC1 DUP7 0xD9 LT 0xC2 DUP8 CODECOPY PUSH3 0x51372E EXP 0xF6 CODECOPY 0xC5 0x27 PUSH10 0x3EF367E39F2B69B31106 PUSH15 0x7196764736F6C63430008140033DD CALLCODE MSTORE 0xAD SHL 0xE2 0xC8 SWAP12 PUSH10 0xC2B068FC378DAA952BA7 CALL PUSH4 0xC4A11628 CREATE2 GAS 0x4D CREATE2 0x23 0xB3 0xEF LOG2 PUSH5 0x6970667358 0x22 SLT KECCAK256 CREATE 0xA6 SWAP4 PUSH29 0x8D1ACCEA28D2B82E8ACAD7DE976D8F8AE8FFD020CB28436B5CE9067264 PUSH20 0x6F6C634300081400330000000000000000000000 "},"methodIdentifiers":{"_setURI(string)":"f392d4f5","addToWhitelist(address)":"e43252d7","createERC404(string,string,uint8,uint256,address)":"013afc51","erc404Instances(uint256)":"f47efcff","id()":"af640d0f","isWhitelisted(address)":"3af32abf","owner()":"8da5cb5b","removeFromWhitelist(address)":"8ab1d681","renounceOwnership()":"715018a6","tokenURI(uint256)":"c87b56dd","transferOwnership(address)":"f2fde38b","uri()":"eac989f8"}}}}}