{
  "_format": "hh-sol-artifact-1",
  "contractName": "ERC404Instance",
  "sourceName": "contracts/ERC404Instance.sol",
  "abi": [
    {
      "inputs": [
        {
          "internalType": "string",
          "name": "name_",
          "type": "string"
        },
        {
          "internalType": "string",
          "name": "symbol_",
          "type": "string"
        },
        {
          "internalType": "uint8",
          "name": "decimals_",
          "type": "uint8"
        },
        {
          "internalType": "uint256",
          "name": "maxTotalSupplyERC721_",
          "type": "uint256"
        },
        {
          "internalType": "address",
          "name": "initialMintRecipient_",
          "type": "address"
        },
        {
          "internalType": "string",
          "name": "uri_",
          "type": "string"
        }
      ],
      "stateMutability": "nonpayable",
      "type": "constructor"
    },
    {
      "inputs": [],
      "name": "AlreadyExists",
      "type": "error"
    },
    {
      "inputs": [],
      "name": "DecimalsTooLow",
      "type": "error"
    },
    {
      "inputs": [],
      "name": "InsufficientAllowance",
      "type": "error"
    },
    {
      "inputs": [],
      "name": "InvalidApproval",
      "type": "error"
    },
    {
      "inputs": [],
      "name": "InvalidExemption",
      "type": "error"
    },
    {
      "inputs": [],
      "name": "InvalidOperator",
      "type": "error"
    },
    {
      "inputs": [],
      "name": "InvalidRecipient",
      "type": "error"
    },
    {
      "inputs": [],
      "name": "InvalidSender",
      "type": "error"
    },
    {
      "inputs": [],
      "name": "InvalidSigner",
      "type": "error"
    },
    {
      "inputs": [],
      "name": "InvalidSpender",
      "type": "error"
    },
    {
      "inputs": [],
      "name": "InvalidTokenId",
      "type": "error"
    },
    {
      "inputs": [],
      "name": "MintLimitReached",
      "type": "error"
    },
    {
      "inputs": [],
      "name": "NotFound",
      "type": "error"
    },
    {
      "inputs": [
        {
          "internalType": "address",
          "name": "owner",
          "type": "address"
        }
      ],
      "name": "OwnableInvalidOwner",
      "type": "error"
    },
    {
      "inputs": [
        {
          "internalType": "address",
          "name": "account",
          "type": "address"
        }
      ],
      "name": "OwnableUnauthorizedAccount",
      "type": "error"
    },
    {
      "inputs": [],
      "name": "OwnedIndexOverflow",
      "type": "error"
    },
    {
      "inputs": [],
      "name": "PermitDeadlineExpired",
      "type": "error"
    },
    {
      "inputs": [],
      "name": "QueueEmpty",
      "type": "error"
    },
    {
      "inputs": [],
      "name": "QueueFull",
      "type": "error"
    },
    {
      "inputs": [],
      "name": "QueueOutOfBounds",
      "type": "error"
    },
    {
      "inputs": [],
      "name": "RecipientIsERC721TransferExempt",
      "type": "error"
    },
    {
      "inputs": [],
      "name": "Unauthorized",
      "type": "error"
    },
    {
      "inputs": [],
      "name": "UnsafeRecipient",
      "type": "error"
    },
    {
      "anonymous": false,
      "inputs": [
        {
          "indexed": true,
          "internalType": "address",
          "name": "owner",
          "type": "address"
        },
        {
          "indexed": true,
          "internalType": "address",
          "name": "spender",
          "type": "address"
        },
        {
          "indexed": false,
          "internalType": "uint256",
          "name": "value",
          "type": "uint256"
        }
      ],
      "name": "Approval",
      "type": "event"
    },
    {
      "anonymous": false,
      "inputs": [
        {
          "indexed": true,
          "internalType": "address",
          "name": "owner",
          "type": "address"
        },
        {
          "indexed": true,
          "internalType": "address",
          "name": "spender",
          "type": "address"
        },
        {
          "indexed": true,
          "internalType": "uint256",
          "name": "id",
          "type": "uint256"
        }
      ],
      "name": "Approval",
      "type": "event"
    },
    {
      "anonymous": false,
      "inputs": [
        {
          "indexed": true,
          "internalType": "address",
          "name": "owner",
          "type": "address"
        },
        {
          "indexed": true,
          "internalType": "address",
          "name": "operator",
          "type": "address"
        },
        {
          "indexed": false,
          "internalType": "bool",
          "name": "approved",
          "type": "bool"
        }
      ],
      "name": "ApprovalForAll",
      "type": "event"
    },
    {
      "anonymous": false,
      "inputs": [
        {
          "indexed": true,
          "internalType": "address",
          "name": "user",
          "type": "address"
        },
        {
          "indexed": false,
          "internalType": "string[]",
          "name": "cids",
          "type": "string[]"
        }
      ],
      "name": "CIDsAdded",
      "type": "event"
    },
    {
      "anonymous": false,
      "inputs": [
        {
          "indexed": true,
          "internalType": "address",
          "name": "previousOwner",
          "type": "address"
        },
        {
          "indexed": true,
          "internalType": "address",
          "name": "newOwner",
          "type": "address"
        }
      ],
      "name": "OwnershipTransferred",
      "type": "event"
    },
    {
      "anonymous": false,
      "inputs": [
        {
          "indexed": true,
          "internalType": "address",
          "name": "from",
          "type": "address"
        },
        {
          "indexed": true,
          "internalType": "address",
          "name": "to",
          "type": "address"
        },
        {
          "indexed": false,
          "internalType": "uint256",
          "name": "amount",
          "type": "uint256"
        }
      ],
      "name": "Transfer",
      "type": "event"
    },
    {
      "anonymous": false,
      "inputs": [
        {
          "indexed": true,
          "internalType": "address",
          "name": "from",
          "type": "address"
        },
        {
          "indexed": true,
          "internalType": "address",
          "name": "to",
          "type": "address"
        },
        {
          "indexed": true,
          "internalType": "uint256",
          "name": "id",
          "type": "uint256"
        }
      ],
      "name": "Transfer",
      "type": "event"
    },
    {
      "inputs": [],
      "name": "DOMAIN_SEPARATOR",
      "outputs": [
        {
          "internalType": "bytes32",
          "name": "",
          "type": "bytes32"
        }
      ],
      "stateMutability": "view",
      "type": "function"
    },
    {
      "inputs": [],
      "name": "ID_ENCODING_PREFIX",
      "outputs": [
        {
          "internalType": "uint256",
          "name": "",
          "type": "uint256"
        }
      ],
      "stateMutability": "view",
      "type": "function"
    },
    {
      "inputs": [
        {
          "internalType": "address",
          "name": "user",
          "type": "address"
        },
        {
          "internalType": "string[]",
          "name": "cids",
          "type": "string[]"
        }
      ],
      "name": "addCIDs",
      "outputs": [],
      "stateMutability": "nonpayable",
      "type": "function"
    },
    {
      "inputs": [
        {
          "internalType": "address",
          "name": "",
          "type": "address"
        },
        {
          "internalType": "address",
          "name": "",
          "type": "address"
        }
      ],
      "name": "allowance",
      "outputs": [
        {
          "internalType": "uint256",
          "name": "",
          "type": "uint256"
        }
      ],
      "stateMutability": "view",
      "type": "function"
    },
    {
      "inputs": [
        {
          "internalType": "address",
          "name": "spender_",
          "type": "address"
        },
        {
          "internalType": "uint256",
          "name": "valueOrId_",
          "type": "uint256"
        }
      ],
      "name": "approve",
      "outputs": [
        {
          "internalType": "bool",
          "name": "",
          "type": "bool"
        }
      ],
      "stateMutability": "nonpayable",
      "type": "function"
    },
    {
      "inputs": [
        {
          "internalType": "address",
          "name": "",
          "type": "address"
        }
      ],
      "name": "balanceOf",
      "outputs": [
        {
          "internalType": "uint256",
          "name": "",
          "type": "uint256"
        }
      ],
      "stateMutability": "view",
      "type": "function"
    },
    {
      "inputs": [],
      "name": "decimals",
      "outputs": [
        {
          "internalType": "uint8",
          "name": "",
          "type": "uint8"
        }
      ],
      "stateMutability": "view",
      "type": "function"
    },
    {
      "inputs": [
        {
          "internalType": "address",
          "name": "spender_",
          "type": "address"
        },
        {
          "internalType": "uint256",
          "name": "value_",
          "type": "uint256"
        }
      ],
      "name": "erc20Approve",
      "outputs": [
        {
          "internalType": "bool",
          "name": "",
          "type": "bool"
        }
      ],
      "stateMutability": "nonpayable",
      "type": "function"
    },
    {
      "inputs": [
        {
          "internalType": "address",
          "name": "owner_",
          "type": "address"
        }
      ],
      "name": "erc20BalanceOf",
      "outputs": [
        {
          "internalType": "uint256",
          "name": "",
          "type": "uint256"
        }
      ],
      "stateMutability": "view",
      "type": "function"
    },
    {
      "inputs": [],
      "name": "erc20TotalSupply",
      "outputs": [
        {
          "internalType": "uint256",
          "name": "",
          "type": "uint256"
        }
      ],
      "stateMutability": "view",
      "type": "function"
    },
    {
      "inputs": [
        {
          "internalType": "address",
          "name": "from_",
          "type": "address"
        },
        {
          "internalType": "address",
          "name": "to_",
          "type": "address"
        },
        {
          "internalType": "uint256",
          "name": "value_",
          "type": "uint256"
        }
      ],
      "name": "erc20TransferFrom",
      "outputs": [
        {
          "internalType": "bool",
          "name": "",
          "type": "bool"
        }
      ],
      "stateMutability": "nonpayable",
      "type": "function"
    },
    {
      "inputs": [
        {
          "internalType": "address",
          "name": "spender_",
          "type": "address"
        },
        {
          "internalType": "uint256",
          "name": "id_",
          "type": "uint256"
        }
      ],
      "name": "erc721Approve",
      "outputs": [],
      "stateMutability": "nonpayable",
      "type": "function"
    },
    {
      "inputs": [
        {
          "internalType": "address",
          "name": "owner_",
          "type": "address"
        }
      ],
      "name": "erc721BalanceOf",
      "outputs": [
        {
          "internalType": "uint256",
          "name": "",
          "type": "uint256"
        }
      ],
      "stateMutability": "view",
      "type": "function"
    },
    {
      "inputs": [],
      "name": "erc721TotalSupply",
      "outputs": [
        {
          "internalType": "uint256",
          "name": "",
          "type": "uint256"
        }
      ],
      "stateMutability": "view",
      "type": "function"
    },
    {
      "inputs": [
        {
          "internalType": "address",
          "name": "target_",
          "type": "address"
        }
      ],
      "name": "erc721TransferExempt",
      "outputs": [
        {
          "internalType": "bool",
          "name": "",
          "type": "bool"
        }
      ],
      "stateMutability": "view",
      "type": "function"
    },
    {
      "inputs": [
        {
          "internalType": "address",
          "name": "from_",
          "type": "address"
        },
        {
          "internalType": "address",
          "name": "to_",
          "type": "address"
        },
        {
          "internalType": "uint256",
          "name": "id_",
          "type": "uint256"
        }
      ],
      "name": "erc721TransferFrom",
      "outputs": [],
      "stateMutability": "nonpayable",
      "type": "function"
    },
    {
      "inputs": [
        {
          "internalType": "uint256",
          "name": "",
          "type": "uint256"
        }
      ],
      "name": "getApproved",
      "outputs": [
        {
          "internalType": "address",
          "name": "",
          "type": "address"
        }
      ],
      "stateMutability": "view",
      "type": "function"
    },
    {
      "inputs": [
        {
          "internalType": "address",
          "name": "user",
          "type": "address"
        }
      ],
      "name": "getCIDs",
      "outputs": [
        {
          "internalType": "string[]",
          "name": "",
          "type": "string[]"
        }
      ],
      "stateMutability": "view",
      "type": "function"
    },
    {
      "inputs": [
        {
          "internalType": "address",
          "name": "user",
          "type": "address"
        }
      ],
      "name": "getContribution",
      "outputs": [
        {
          "internalType": "uint256",
          "name": "",
          "type": "uint256"
        }
      ],
      "stateMutability": "view",
      "type": "function"
    },
    {
      "inputs": [],
      "name": "getERC721QueueLength",
      "outputs": [
        {
          "internalType": "uint256",
          "name": "",
          "type": "uint256"
        }
      ],
      "stateMutability": "view",
      "type": "function"
    },
    {
      "inputs": [
        {
          "internalType": "uint256",
          "name": "start_",
          "type": "uint256"
        },
        {
          "internalType": "uint256",
          "name": "count_",
          "type": "uint256"
        }
      ],
      "name": "getERC721TokensInQueue",
      "outputs": [
        {
          "internalType": "uint256[]",
          "name": "",
          "type": "uint256[]"
        }
      ],
      "stateMutability": "view",
      "type": "function"
    },
    {
      "inputs": [
        {
          "internalType": "address",
          "name": "",
          "type": "address"
        },
        {
          "internalType": "address",
          "name": "",
          "type": "address"
        }
      ],
      "name": "isApprovedForAll",
      "outputs": [
        {
          "internalType": "bool",
          "name": "",
          "type": "bool"
        }
      ],
      "stateMutability": "view",
      "type": "function"
    },
    {
      "inputs": [],
      "name": "minted",
      "outputs": [
        {
          "internalType": "uint256",
          "name": "",
          "type": "uint256"
        }
      ],
      "stateMutability": "view",
      "type": "function"
    },
    {
      "inputs": [],
      "name": "name",
      "outputs": [
        {
          "internalType": "string",
          "name": "",
          "type": "string"
        }
      ],
      "stateMutability": "view",
      "type": "function"
    },
    {
      "inputs": [
        {
          "internalType": "address",
          "name": "",
          "type": "address"
        }
      ],
      "name": "nonces",
      "outputs": [
        {
          "internalType": "uint256",
          "name": "",
          "type": "uint256"
        }
      ],
      "stateMutability": "view",
      "type": "function"
    },
    {
      "inputs": [
        {
          "internalType": "address",
          "name": "owner_",
          "type": "address"
        }
      ],
      "name": "owned",
      "outputs": [
        {
          "internalType": "uint256[]",
          "name": "",
          "type": "uint256[]"
        }
      ],
      "stateMutability": "view",
      "type": "function"
    },
    {
      "inputs": [],
      "name": "owner",
      "outputs": [
        {
          "internalType": "address",
          "name": "",
          "type": "address"
        }
      ],
      "stateMutability": "view",
      "type": "function"
    },
    {
      "inputs": [
        {
          "internalType": "uint256",
          "name": "id_",
          "type": "uint256"
        }
      ],
      "name": "ownerOf",
      "outputs": [
        {
          "internalType": "address",
          "name": "erc721Owner",
          "type": "address"
        }
      ],
      "stateMutability": "view",
      "type": "function"
    },
    {
      "inputs": [
        {
          "internalType": "address",
          "name": "owner_",
          "type": "address"
        },
        {
          "internalType": "address",
          "name": "spender_",
          "type": "address"
        },
        {
          "internalType": "uint256",
          "name": "value_",
          "type": "uint256"
        },
        {
          "internalType": "uint256",
          "name": "deadline_",
          "type": "uint256"
        },
        {
          "internalType": "uint8",
          "name": "v_",
          "type": "uint8"
        },
        {
          "internalType": "bytes32",
          "name": "r_",
          "type": "bytes32"
        },
        {
          "internalType": "bytes32",
          "name": "s_",
          "type": "bytes32"
        }
      ],
      "name": "permit",
      "outputs": [],
      "stateMutability": "nonpayable",
      "type": "function"
    },
    {
      "inputs": [],
      "name": "renounceOwnership",
      "outputs": [],
      "stateMutability": "nonpayable",
      "type": "function"
    },
    {
      "inputs": [
        {
          "internalType": "address",
          "name": "from_",
          "type": "address"
        },
        {
          "internalType": "address",
          "name": "to_",
          "type": "address"
        },
        {
          "internalType": "uint256",
          "name": "id_",
          "type": "uint256"
        }
      ],
      "name": "safeTransferFrom",
      "outputs": [],
      "stateMutability": "nonpayable",
      "type": "function"
    },
    {
      "inputs": [
        {
          "internalType": "address",
          "name": "from_",
          "type": "address"
        },
        {
          "internalType": "address",
          "name": "to_",
          "type": "address"
        },
        {
          "internalType": "uint256",
          "name": "id_",
          "type": "uint256"
        },
        {
          "internalType": "bytes",
          "name": "data_",
          "type": "bytes"
        }
      ],
      "name": "safeTransferFrom",
      "outputs": [],
      "stateMutability": "nonpayable",
      "type": "function"
    },
    {
      "inputs": [
        {
          "internalType": "address",
          "name": "operator_",
          "type": "address"
        },
        {
          "internalType": "bool",
          "name": "approved_",
          "type": "bool"
        }
      ],
      "name": "setApprovalForAll",
      "outputs": [],
      "stateMutability": "nonpayable",
      "type": "function"
    },
    {
      "inputs": [
        {
          "internalType": "address",
          "name": "account_",
          "type": "address"
        },
        {
          "internalType": "bool",
          "name": "value_",
          "type": "bool"
        }
      ],
      "name": "setERC721TransferExempt",
      "outputs": [],
      "stateMutability": "nonpayable",
      "type": "function"
    },
    {
      "inputs": [
        {
          "internalType": "bool",
          "name": "state_",
          "type": "bool"
        }
      ],
      "name": "setSelfERC721TransferExempt",
      "outputs": [],
      "stateMutability": "nonpayable",
      "type": "function"
    },
    {
      "inputs": [
        {
          "internalType": "bytes4",
          "name": "interfaceId",
          "type": "bytes4"
        }
      ],
      "name": "supportsInterface",
      "outputs": [
        {
          "internalType": "bool",
          "name": "",
          "type": "bool"
        }
      ],
      "stateMutability": "view",
      "type": "function"
    },
    {
      "inputs": [],
      "name": "symbol",
      "outputs": [
        {
          "internalType": "string",
          "name": "",
          "type": "string"
        }
      ],
      "stateMutability": "view",
      "type": "function"
    },
    {
      "inputs": [
        {
          "internalType": "uint256",
          "name": "id_",
          "type": "uint256"
        }
      ],
      "name": "tokenURI",
      "outputs": [
        {
          "internalType": "string",
          "name": "",
          "type": "string"
        }
      ],
      "stateMutability": "view",
      "type": "function"
    },
    {
      "inputs": [],
      "name": "totalSupply",
      "outputs": [
        {
          "internalType": "uint256",
          "name": "",
          "type": "uint256"
        }
      ],
      "stateMutability": "view",
      "type": "function"
    },
    {
      "inputs": [
        {
          "internalType": "address",
          "name": "to_",
          "type": "address"
        },
        {
          "internalType": "uint256",
          "name": "value_",
          "type": "uint256"
        }
      ],
      "name": "transfer",
      "outputs": [
        {
          "internalType": "bool",
          "name": "",
          "type": "bool"
        }
      ],
      "stateMutability": "nonpayable",
      "type": "function"
    },
    {
      "inputs": [
        {
          "internalType": "address",
          "name": "from_",
          "type": "address"
        },
        {
          "internalType": "address",
          "name": "to_",
          "type": "address"
        },
        {
          "internalType": "uint256",
          "name": "valueOrId_",
          "type": "uint256"
        }
      ],
      "name": "transferFrom",
      "outputs": [
        {
          "internalType": "bool",
          "name": "",
          "type": "bool"
        }
      ],
      "stateMutability": "nonpayable",
      "type": "function"
    },
    {
      "inputs": [
        {
          "internalType": "address",
          "name": "newOwner",
          "type": "address"
        }
      ],
      "name": "transferOwnership",
      "outputs": [],
      "stateMutability": "nonpayable",
      "type": "function"
    },
    {
      "inputs": [],
      "name": "units",
      "outputs": [
        {
          "internalType": "uint256",
          "name": "",
          "type": "uint256"
        }
      ],
      "stateMutability": "view",
      "type": "function"
    },
    {
      "inputs": [],
      "name": "uri",
      "outputs": [
        {
          "internalType": "string",
          "name": "",
          "type": "string"
        }
      ],
      "stateMutability": "view",
      "type": "function"
    }
  ],
  "bytecode": "0x610100806040523462000c8057620037d2803803809162000021828562000c85565b8339810160c08282031262000c805781516001600160401b03811162000c8057816200004f91840162000ca9565b60208301519092906001600160401b03811162000c8057826200007491830162000ca9565b60408201519060ff8216820362000c805760608301516080840151949093906001600160a01b038616860362000c805760a08201516001600160401b03811162000c8057620000c4920162000ca9565b94331562000c675760008054336001600160a01b0319821681178355916001600160a01b03909116907f8be0079c531659141344cd1fd0a4f28419497f9722a3daafe3b4186f6b6457e09080a38051906001600160401b038211620006615781906200013260035462000d1f565b601f811162000c03575b50602090601f831160011462000b855760009262000b79575b50508160011b916000199060031b1c1916176003555b8051906001600160401b038211620006615781906200018c60045462000d1f565b601f811162000b04575b50602090601f831160011462000a755760009262000a69575b50508160011b916000199060031b1c1916176004555b601260ff82161062000a575780608052604d60ff8216116200064b5760ff16600a0a60a0524660c052604051600354816000620002028362000d1f565b808352926001811690811562000a365750600114620009e3575b6200022a9250038262000c85565b6020815191012060405160208101917f8b73c3c69bb8fe3d512ecc4cf759cc79239f7b179b0ffacaa9a75d522b39400f835260408201527fc89efdaa54c0f20c7adf612882df0950f5a951637e0307cdcb4c672f298b8bc660608201524660808201523060a082015260a0815260c0810181811060018060401b03821117620006615760405251902060e05282516001600160401b0381116200066157620002d4600f5462000d1f565b601f81116200098a575b506020601f821160011462000911578192939460009262000905575b50508160011b916000199060031b1c191617600f555b6001600160a01b03821615620008f3576001600160a01b0382166000908152600c6020526040812054905b818110620006f95750506001600160a01b0382166000908152600d60205260409020805460ff1916600117905580158015620003d0575b604051612956908162000e1c82396080518161110a015260a051818181610c7a0152818161135201528181611e730152818161206801528181612196015281816122100152612273015260c05181611a07015260e05181611a2e0152f35b60a0518083029283041417156200064b5760055490600160ff1b620003f6828462000d5c565b11620006d557600760205260018060a01b0383166000526200041f816040600020549362000d5c565b6005556001600160a01b038316600081815260076020908152604080832080548601905551938452919290916000805160206200379283398151915291a36001600160a01b0382166000908152600d602052604090205460ff161562000487575b8062000372565b6007602052620004af620004a460406000205460a0519062000d6a565b9160a0519062000d6a565b81039081116200064b5760005b818110620004cb575062000480565b6001600160a01b03831615620006e757600154608081901c6001600160801b03909116146200069b57600154608081901c6001600160801b03821614620006895760001960809190911c016001600160801b0381166000908152600260205260408120805492919055600180546001600160801b031660809290921b6001600160801b031916919091179055905b6000828152600b60205260409020546001600160a01b0316918262000677576000818152600b6020908152604080832080546001600160a01b0319166001600160a01b038a169081019091558352600c90915290208054680100000000000000008110156200066157620005d981620005f2936001869401815562000d8b565b90919082549060031b91821b91600019901b1916179055565b6001600160a01b0385166000908152600c60205260409020546000198101939084116200064b57620006276001948362000dba565b838060a01b0386169060008051602062003792833981519152600080a401620004bc565b634e487b7160e01b600052601160045260246000fd5b634e487b7160e01b600052604160045260246000fd5b60405163119b4fd360e11b8152600490fd5b6040516375e52f4f60e01b8152600490fd5b6006805490600019908183146200064b576001830180915514620006d5576001600160ff1b0101600160ff1b81106200064b579062000559565b60405163303b682f60e01b8152600490fd5b604051634e46966960e11b8152600490fd5b6001600160a01b03841615620008e1576001600160a01b0384166000908152600c60205260409020805460001981019081116200064b576200073b9162000d8b565b905460039190911b1c600081815260096020908152604080832080546001600160a01b03191690556001600160a01b0388168352600c9091529020805491929190600019820182106200064b576200079891600019019062000d8b565b90549060031b1c82810362000896575b506001600160a01b0385166000908152600c602052604090208054801562000880576000190190620007db828262000d8b565b8154906000199060031b1b191690555581600052600b6020526000604081205581600060018060a01b038716600080516020620037928339815191528280a46001546001600160801b0380821660001901169060801c81146200086e576001600160801b038116600090815260026020526040902092909255600180546001600160801b0319169092178255016200033b565b604051638acb5f2760e01b8152600490fd5b634e487b7160e01b600052603160045260246000fd5b620008da9083600052600b60205260406000205460a01c9060018060a01b038816600052600c602052620008d481620005d984604060002062000d8b565b62000dba565b38620007a8565b604051636edaef2f60e11b8152600490fd5b60405163a41e3d3f60e01b8152600490fd5b015190503880620002fa565b600f6000908152600080516020620037b28339815191529190601f198416905b818110620009715750958360019596971062000957575b505050811b01600f5562000310565b015160001960f88460031b161c1916905538808062000948565b9192602060018192868b01518155019401920162000931565b600f600052600080516020620037b2833981519152601f830160051c81019160208410620009d8575b601f0160051c01905b818110620009cb5750620002de565b60008155600101620009bc565b9091508190620009b3565b50600360009081529091600080516020620037728339815191525b81831062000a195750509060206200022a928201016200021c565b6020919350806001915483858801015201910190918392620009fe565b602092506200022a94915060ff191682840152151560051b8201016200021c565b6040516398790fd560e01b8152600490fd5b015190503880620001af565b6004600090815293507f8a35acfbc15ff81a39ae7d344fd709f28e8600b4aa8c65c6b64bfe7fe36bd19b91905b601f198416851062000ae8576001945083601f1981161062000ace575b505050811b01600455620001c5565b015160001960f88460031b161c1916905538808062000abf565b8181015183556020948501946001909301929091019062000aa2565b60046000529091507f8a35acfbc15ff81a39ae7d344fd709f28e8600b4aa8c65c6b64bfe7fe36bd19b601f840160051c8101916020851062000b6e575b90601f859493920160051c01905b81811062000b5e575062000196565b6000815584935060010162000b4f565b909150819062000b41565b01519050388062000155565b6003600090815293506000805160206200377283398151915291905b601f198416851062000be7576001945083601f1981161062000bcd575b505050811b016003556200016b565b015160001960f88460031b161c1916905538808062000bbe565b8181015183556020948501946001909301929091019062000ba1565b600360005290915060008051602062003772833981519152601f840160051c8101916020851062000c5c575b90601f859493920160051c01905b81811062000c4c57506200013c565b6000815584935060010162000c3d565b909150819062000c2f565b604051631e4fbdf760e01b815260006004820152602490fd5b600080fd5b601f909101601f19168101906001600160401b038211908210176200066157604052565b919080601f8401121562000c805782516001600160401b03811162000661576020906040519262000ce483601f19601f850116018562000c85565b81845282828701011162000c805760005b81811062000d0b57508260009394955001015290565b858101830151848201840152820162000cf5565b90600182811c9216801562000d51575b602083101462000d3b57565b634e487b7160e01b600052602260045260246000fd5b91607f169162000d2f565b919082018092116200064b57565b811562000d75570490565b634e487b7160e01b600052601260045260246000fd5b805482101562000da45760005260206000200190600090565b634e487b7160e01b600052603260045260246000fd5b6000818152600b602052604090205491906001600160601b03821162000e09576000908152600b602052604090206001600160a01b039290921660a09190911b6001600160a01b031916019055565b604051633f2cd0e360e21b8152600490fdfe608060408181526004918236101561001657600080fd5b600090813560e01c90816301ffc9a71461169b5750806302519da314610e7a57806306fdde03146115e9578063081812fc146115b6578063095ea7b31461158d57806309674eb01461155d57806309f0ef651461153757806318160ddd14610dc957806321eff7fc146114ff57806323b872dd146114e357806325c03c8a1461112e578063313ce567146110f05780633644e515146110cc57806342842e0e1461107e5780634d966072146110555780634f02c42014610a3e5780636352211e14610fda5780636367da9c14610ed15780636e8f624b14610eb257806370a0823114610e7a578063715018a614610e205780637ecebe0014610de857806389fb4c6614610dc95780638a696e5014610da25780638da5cb5b14610d7a57806395d89b4114610c9d578063976a843514610c62578063a22cb46514610bc5578063a9059cbb14610b7c578063b1ab931714610afa578063b3f9ea3414610ac2578063b88d4fde14610a5d578063c5ab3ba614610a3e578063c6e672b914610a0c578063c87b56dd146107b4578063d505accf14610587578063d96ca0b914610562578063dd62ed3e14610519578063dd63769914610501578063dfabc033146104d9578063e985e9c514610487578063eac989f81461039e578063f2fde38b146103135763f780bc1a1461020857600080fd5b34610310578160031936011261031057508135906024356102288161180f565b926102358351948561175a565b818452601f196102448361180f565b0136602086013780946102686001546001600160801b03908181169060801c031690565b926001600160801b039160019485928460015416935b610294575b8751806102908b826118ed565b0390f35b6102a281879a99989a611faf565b8a101561030757818a10156102f757888a6102db8780849e9d9b9c9d168801166001600160801b03166000526002602052604060002090565b546102ef6102e98a84611d4d565b8d6119c0565b52019961027e565b865163580821e760e01b81528390fd5b86979850610283565b80fd5b50913461039a57602036600319011261039a5761032e6116ef565b90610337611fbc565b6001600160a01b0391821692831561038457505082546001600160a01b0319811683178455167f8be0079c531659141344cd1fd0a4f28419497f9722a3daafe3b4186f6b6457e08380a380f35b51631e4fbdf760e01b8152908101849052602490fd5b8280fd5b50346103105780600319360112610310578151918282600f546103c081611720565b9081845260209560019187600182169182600014610460575050600114610404575b50505061029092916103f591038561175a565b519282849384528301906117b5565b9190869350600f83527f8d1108e10bcb7c27dddfc02ed9d693a074039d026cf4ea4240b40f7d581ac8025b82841061044857505050820101816103f56102906103e2565b8054848a01860152889550879490930192810161042f565b60ff19168782015293151560051b860190930193508492506103f5915061029090506103e2565b5090346104d557806003193601126104d55760ff816020936104a76116ef565b6104af61170a565b6001600160a01b039182168352600a875283832091168252855220549151911615158152f35b5080fd5b5090346104d557366003190112610310576104fe6104f56116ef565b60243590611f0d565b80f35b5034610310576104fe610513366117da565b91611e09565b5090346104d557806003193601126104d557806020926105376116ef565b61053f61170a565b6001600160a01b0391821683526008865283832091168252845220549051908152f35b5090346104d55760209061057e610578366117da565b91611d70565b90519015158152f35b5090346104d55760e03660031901126104d5576105a26116ef565b906105ab61170a565b604435606435926084359260ff84168094036107b0574285106107a057600160ff1b831180610794575b610784576001600160a01b0390811695861561077457816105f4611a02565b911695868952602095600e8752848a2092835493600185019055855192888401947f6e71edae12b1b97f4d1f60370fef10105fa2faae0126114a169c64845d6126c986528a888601528b606086015288608086015260a085015260c084015260c0835260e0830167ffffffffffffffff9484821086831117610760578188528451902061010085019261190160f01b8452610102860152610122850152604281526101608401948186109086111761074d57848752519020835261018082015260a4356101a082015260c4356101c0909101528780528490889060809060015afa156107435786511680158015610739575b610729578652600883528086208587528352808620829055519081527f8c5be1e5ebec7d5bd14f71427d1e84f3dd0314c0f7b2291e5b200ac8c7c3b9259190a380f35b8151632057875960e21b81528890fd5b50848114156106e6565b81513d88823e3d90fd5b634e487b7160e01b8c5260418d5260248cfd5b50634e487b7160e01b8c5260418d5260248cfd5b8251635461585f60e01b81528990fd5b81516303e7c1bd60e31b81528890fd5b506000198314156105d5565b81516305787bdf60e01b81528890fd5b8680fd5b5091903461039a5760209182600319360112610a0857803590819480917a184f03e93ff9f4daa797ed6e38ed64bf6a1f010000000000000000808510156109fb575b506d04ee2d6d415b85acef8100000000808810156109ed575b50662386f26fc10000808810156109de575b506305f5e100808810156109cf575b50612710808810156109c0575b505060648610156109b0575b600a809610156109a6575b600191600181019661087d61086889611827565b9861087588519a8b61175a565b808a52611827565b94846021898b0194601f198099013687378b0101905b610977575b505050845196879383600f54916108ae83611720565b928a6001821691826000146109505750506001146108f0575b50505091806108e36103f5959361029098979551938491611792565b010390810186528561175a565b8993949550600f82527f8d1108e10bcb7c27dddfc02ed9d693a074039d026cf4ea4240b40f7d581ac8025b838310610936575050508401019190806108e36102906108c7565b80549783018501979097528a968a9490920191810161091b565b60ff191689820152841515909402880190930195508392506108e3915061029090506108c7565b600019019082906f181899199a1a9b1b9c1cb0b131b232b360811b8282061a8353049085826108935750610898565b9060010190610854565b9094606460029104950190610849565b9091929604950190388061083d565b60089193970496019138610830565b60109193970496019138610821565b86919397049601913861080f565b84049650849250386107f6565b8380fd5b5090346104d557366003190112610310576104fe610a286116ef565b610a306118de565b90610a39611fbc565b611fe8565b5090346104d557816003193601126104d5576020906006549051908152f35b5082346104d55760803660031901126104d557610a786116ef565b610a8061170a565b9060643567ffffffffffffffff8111610abe5736602382011215610abe576104fe93816024610ab493369301359101611843565b9160443591611c1a565b8480fd5b5090346104d55760203660031901126104d55760209181906001600160a01b03610aea6116ef565b168152600c845220549051908152f35b5090346104d557602090602060031936011261039a576001600160a01b03610b206116ef565b168352600c60205280832092815180936020865492838152019583526020832092905b828210610b65576102908686610b5b828b038361175a565b51918291826118ed565b835487529586019560019384019390910190610b43565b503461031057816003193601126103105750610b966116ef565b916001600160a01b03831615610bb7575061057e602092602435903361210c565b9051634e46966960e11b8152fd5b5091903461039a578060031936011261039a57610be06116ef565b90610be96118de565b6001600160a01b03909216928315610c545750338452600a602052808420838552602052610c25828286209060ff801983541691151516179055565b5190151581527f17307eab39ab6107e8899845ad3d59bd9653f200f220920489ca2b5937696c3160203392a380f35b905163ccea9e6f60e01b8152fd5b5090346104d557816003193601126104d557602090517f00000000000000000000000000000000000000000000000000000000000000008152f35b5091903461039a578260031936011261039a578051838194908454610cc181611720565b9182855260209660019288600182169182600014610d50575050600114610cf5575b8588610290896103f5848a038561175a565b815286935091907f8a35acfbc15ff81a39ae7d344fd709f28e8600b4aa8c65c6b64bfe7fe36bd19b5b828410610d3857505050820101816103f561029038610ce3565b8054848a018601528895508794909301928101610d1e565b60ff19168882015294151560051b870190940194508593506103f592506102909150389050610ce3565b5090346104d557816003193601126104d557905490516001600160a01b039091168152602090f35b5082346104d55760203660031901126104d5573580151581036104d5576104fe9033611fe8565b5090346104d557816003193601126104d5576020906005549051908152f35b5090346104d55760203660031901126104d55760209181906001600160a01b03610e106116ef565b168152600e845220549051908152f35b5034610310578060031936011261031057610e39611fbc565b80546001600160a01b03198116825581906001600160a01b03167f8be0079c531659141344cd1fd0a4f28419497f9722a3daafe3b4186f6b6457e08280a380f35b5090346104d55760203660031901126104d55760209181906001600160a01b03610ea26116ef565b1681526007845220549051908152f35b5090346104d557816003193601126104d55751600160ff1b8152602090f35b5090346104d5576020908160031936011261039a5782906001600160a01b03610ef86116ef565b1682526010835280822091825490610f0f8261180f565b93610f1c8451958661175a565b82855281528481209481908086015b848310610f3f57855180610290898261187a565b85518285928a5492610f5084611720565b808252600194808616908115610fbe5750600114610f86575b50610f7881600196038261175a565b815201980192019196610f2b565b8c8952838920955088905b808210610fa75750810183019450610f78610f69565b865483830186015295850195879490910190610f91565b60ff19168584015250151560051b810183019450610f78610f69565b5090346104d55760203660031901126104d5578235808352600b60205291819020546001600160a01b031691600160ff1b81119081611048575b501561103957811561102a576020925051908152f35b5163c5723b5160e01b81529050fd5b516307ed98ed60e31b81529050fd5b6000191415905038611014565b5090346104d557806003193601126104d55760209061057e6110756116ef565b60243590611bab565b5090346104d55761108e366117da565b91835193602085019085821067ffffffffffffffff8311176110b9576104fe96975052858452611c1a565b634e487b7160e01b875260418852602487fd5b5090346104d557816003193601126104d5576020906110e9611a02565b9051908152f35b5090346104d557816003193601126104d5576020905160ff7f0000000000000000000000000000000000000000000000000000000000000000168152f35b5082346104d557826003193601126104d5576111486116ef565b91602480359067ffffffffffffffff9283831161031057366023840112156103105782850135926111788461180f565b976111858151998a61175a565b848952602091828a018560059760051b830101913683116114df57868101915b8383106114a457505050506111b8611fbc565b6001600160a01b038816835b8a518110156113465781855260108452828520906111e2818d6119c0565b51918054600160401b811015611334576112039060019283820181556119ea565b919091611323578351908b82116113115761121e8354611720565b94601f958681116112cf575b508895831160011461126757829160019683928c9461125c575b50501b916000199060031b1c19161790555b016111c4565b015192503880611244565b90929394601f19831691858b52898b20928b5b8b8282106112bb5750509084600198979695949392106112a2575b505050811b019055611256565b015160001960f88460031b161c191690558f8080611295565b83850151865594870194938401930161127a565b848b52898b208d88808701821c8301938d8810611308575b01901c019083905b8281106112fd57505061122a565b8c81550183906112ef565b935082936112e7565b634e487b7160e01b895260418d528989fd5b634e487b7160e01b8852878c528888fd5b634e487b7160e01b885260418c528888fd5b5092938789918b9485517f00000000000000000000000000000000000000000000000000000000000000009283820291808304851490151715611493575087156114835760055493600160ff1b61139d8387611faf565b11611475575088600080516020612901833981519152838a93600782528484526113cb818b86205499611faf565b600555848452600782528984208181540190558951908152a36113ed84611962565b1561142b575b87877f9db9873cd0c3e9e21710778297adb5b1a923b4c4663a32440d58dc743a5478da6114258989519182918261187a565b0390a280f35b6114539291600761144d92898b525261144781878b20546120ec565b926120ec565b90611d4d565b90855b82811061146357806113f3565b60019061146f83612767565b01611456565b865163303b682f60e01b8152fd5b8551634e46966960e11b81528490fd5b634e487b7160e01b8a526011855289fd5b82358a81116114db578201366043820112156114db5786916114d08392369060448d8201359101611843565b8152019201916111a5565b8780fd5b8580fd5b5090346104d55760209061057e6114f9366117da565b9161198e565b5090346104d55760203660031901126104d55760209181906001600160a01b036115276116ef565b1681526010845220549051908152f35b5090346104d55760203660031901126104d55760209061057e6115586116ef565b611962565b5090346104d557816003193601126104d5576020906110e96001546001600160801b03908181169060801c031690565b5090346104d557806003193601126104d55760209061057e6115ad6116ef565b60243590611929565b50913461039a57602036600319011261039a5735825260096020908152918190205490516001600160a01b039091168152f35b5034610310578060031936011261031057815191828260035461160b81611720565b908184526020956001918760018216918260001461046057505060011461163f5750505061029092916103f591038561175a565b9190869350600383527fc2575a0e9e593c00f959f8c92f12db2869c3395a3b0502d05e2516446f71f85b5b82841061168357505050820101816103f56102906103e2565b8054848a01860152889550879490930192810161166a565b9050833461039a57602036600319011261039a573563ffffffff60e01b811680910361039a576020925063caf91ff560e01b81149081156116de575b5015158152f35b6301ffc9a760e01b149050836116d7565b600435906001600160a01b038216820361170557565b600080fd5b602435906001600160a01b038216820361170557565b90600182811c92168015611750575b602083101461173a57565b634e487b7160e01b600052602260045260246000fd5b91607f169161172f565b90601f8019910116810190811067ffffffffffffffff82111761177c57604052565b634e487b7160e01b600052604160045260246000fd5b60005b8381106117a55750506000910152565b8181015183820152602001611795565b906020916117ce81518092818552858086019101611792565b601f01601f1916010190565b6060906003190112611705576001600160a01b0390600435828116810361170557916024359081168103611705579060443590565b67ffffffffffffffff811161177c5760051b60200190565b67ffffffffffffffff811161177c57601f01601f191660200190565b92919261184f82611827565b9161185d604051938461175a565b829481845281830111611705578281602093846000960137010152565b6020808201906020835283518092526040830192602060408460051b8301019501936000915b8483106118b05750505050505090565b90919293949584806118ce600193603f198682030187528a516117b5565b98019301930191949392906118a0565b60243590811515820361170557565b602090602060408183019282815285518094520193019160005b828110611915575050505090565b835185529381019392810192600101611907565b90600160ff1b811180611956575b1561194a5761194591611f0d565b600190565b61195391611bab565b90565b50600019811415611937565b6001600160a01b03168015908115611978575090565b9050600052600d60205260ff6040600020541690565b9190600160ff1b8211806119b4575b156119ab5761194592611e09565b61195392611d70565b5060001982141561199d565b80518210156119d45760209160051b010190565b634e487b7160e01b600052603260045260246000fd5b80548210156119d45760005260206000200190600090565b6000467f000000000000000000000000000000000000000000000000000000000000000003611a5057507f000000000000000000000000000000000000000000000000000000000000000090565b6040516003548291611a6182611720565b808252816020948582019460019087600182169182600014611b8d575050600114611b33575b50611a949250038261175a565b51902091604051918201927f8b73c3c69bb8fe3d512ecc4cf759cc79239f7b179b0ffacaa9a75d522b39400f845260408301527fc89efdaa54c0f20c7adf612882df0950f5a951637e0307cdcb4c672f298b8bc660608301524660808301523060a083015260a0825260c082019082821067ffffffffffffffff831117611b1f575060405251902090565b634e487b7160e01b81526041600452602490fd5b6003885286915087907fc2575a0e9e593c00f959f8c92f12db2869c3395a3b0502d05e2516446f71f85b5b858310611b75575050611a94935082010138611a87565b80548388018501528694508893909201918101611b5e565b60ff19168852611a9495151560051b8501019250389150611a879050565b6001600160a01b0316908115611c0857336000526008602052604060002082600052602052806040600020556040519081527f8c5be1e5ebec7d5bd14f71427d1e84f3dd0314c0f7b2291e5b200ac8c7c3b92560203392a3600190565b604051635461585f60e01b8152600490fd5b919092600160ff1b821180611d41575b15611d2f57611c3a82858561198e565b50833b15159384611c62575b50505050611c5057565b604051633da6393160e01b8152600490fd5b611cac9394509060209160018060a01b039360405180968194829388630a85bd0160e11b9b8c865233600487015216602485015260448401526080606484015260848301906117b5565b03916000958691165af1918215611d22578192611cdb575b50506001600160e01b031916141538808080611c46565b9091506020813d602011611d1a575b81611cf76020938361175a565b810103126104d55751906001600160e01b03198216820361031057503880611cc4565b3d9150611cea565b50604051903d90823e3d90fd5b6040516307ed98ed60e31b8152600490fd5b50600019821415611c2a565b91908203918211611d5a57565b634e487b7160e01b600052601160045260246000fd5b6001600160a01b03808216939291908415611df757821615611de5576119539383600082815260086020526040812033825260205260408120546000198103611dbd575b5050505061210c565b604092611dc991611d4d565b9281526008602052818120338252602052205538838180611db4565b604051634e46966960e11b8152600490fd5b604051636edaef2f60e11b8152600490fd5b6001600160a01b03939291908481168015611df75785831615611de557600095848752600b6020526040968188822054168303611efd578790833314159384611ed9575b5083611ec1575b505050611eb157611e6482611962565b611ea057611e9e939450611e997f00000000000000000000000000000000000000000000000000000000000000008383612380565b6123f1565b565b8451635ce7539760e01b8152600490fd5b84516282b42960e81b8152600490fd5b86815260096020522054163314159050388681611e54565b915080935052600a6020528682203383526020528660ff8184205416159238611e4d565b87516282b42960e81b8152600490fd5b6000828152600b60205260408120546001600160a01b03908116913383141580611f8e575b611f7d577f8c5be1e5ebec7d5bd14f71427d1e84f3dd0314c0f7b2291e5b200ac8c7c3b92591858252600960205260408220941693846001600160601b0360a01b82541617905580a4565b6040516282b42960e81b8152600490fd5b50828152600a6020526040812033825260205260ff60408220541615611f32565b91908201809211611d5a57565b6000546001600160a01b03163303611fd057565b60405163118cdaa760e01b8152336004820152602490fd5b91906001600160a01b03831680156120da5781156120525780600052600c60205260406000205460005b818110612040575050611e9e9293505b600052600d60205260406000209060ff801983541691151516179055565b60019061204c876125dc565b01612012565b919082600052600760205261208d6040600020547f0000000000000000000000000000000000000000000000000000000000000000906120ec565b9280600052600c60205260406000205460005b6120aa8287611d4d565b8110156120ca579060016120aa926120c189612767565b019091506120a0565b505090919350611e9e9250612022565b60405163a41e3d3f60e01b8152600490fd5b81156120f6570490565b634e487b7160e01b600052601260045260246000fd5b919060018060a01b03918284166000948186526020906007825260409283882054968616968789528489205495612144818986612380565b61214d84611962565b61215689611962565b908080612379575b15612175575b505050505050505050505050600190565b156121ec57505050505090600761144d926121bc95968852528520546114477f000000000000000000000000000000000000000000000000000000000000000080926120ec565b915b8281106121da575050505b388080808080808080808080612164565b6001906121e683612767565b016121be565b989091969297939860001461226557505050509161144d91600761224295946122367f000000000000000000000000000000000000000000000000000000000000000080956120ec565b958952528620546120ec565b915b828110612253575050506121c9565b60019061225f836125dc565b01612244565b9196979095612299999493997f000000000000000000000000000000000000000000000000000000000000000080986120ec565b988991865b8381106123175750948896929461144d989488966122dc6007956122c96122ed9f9e6114479c6120ec565b90885286865261144d8a8a8a20546120ec565b11612308575b5083525220546120ec565b116122f9575b506121c9565b61230290612767565b386122f3565b612311906125dc565b386122e2565b90918093508752600c80875288882054906000198201918211612365578d61234d6001949361235b93888d528b528c8c206119ea565b90549060031b1c90876123f1565b01908a929161229e565b634e487b7160e01b89526011600452602489fd5b508161215e565b6001600160a01b039081169160008051602061290183398151915291602091846123d2576123b086600554611faf565b6005555b169384600052600782526040600020818154019055604051908152a3565b846000526007835260406000206123ea878254611d4d565b90556123b4565b6001600160a01b0390811691826124ea575b169081156124d5576000838152600b60205260408120836001600160601b0360a01b825416019055828152600c60205260408120805490600160401b8210156124c15761245a8287926001612473950181556119ea565b90919082549060031b91821b91600019901b1916179055565b828152600c60205260408120546000198101919082116124ad575061249890846128a5565b600080516020612901833981519152600080a4565b634e487b7160e01b81526011600452602490fd5b634e487b7160e01b83526041600452602483fd5b82600052600b60205260006040812055612498565b60008481526009602052604081206001600160601b0360a01b8154169055838152600c602052604081208054600019918282019182116125c8579061252e916119ea565b90549060031b1c86810361258f575b50848252600c6020526040822091825490811561257b5750019061257561256483836119ea565b8154906000199060031b1b19169055565b55612403565b634e487b7160e01b81526031600452602490fd5b6125c290878452600b602052604084205460a01c90878552600c6020526125bd8161245a84604089206119ea565b6128a5565b3861253d565b634e487b7160e01b84526011600452602484fd5b6001600160a01b03168015611df7576000818152602090600c8252604090818120938454600019958682019182116125c85790612618916119ea565b90549060031b1c93848352600981528383206001600160601b0360a01b8154169055818352600c8152838320805490878201918211612753579061265b916119ea565b90549060031b1c858103612723575b50818352600c81528383208054801561270f5791600b918888969594019061269561256483836119ea565b558484525281848120556000805160206129018339815191528280a4600154926001600160801b039081851601169260801c83146126ff57506126eb826001600160801b03166000526002602052604060002090565b556001600160801b03196001541617600155565b51638acb5f2760e01b8152600490fd5b634e487b7160e01b85526031600452602485fd5b61274d90868552600b83528585205460a01c90848652600c84526125bd8161245a848a8a206119ea565b3861266a565b634e487b7160e01b85526011600452602485fd5b6001600160a01b0381811615611de5576001546001600160801b0390600090608081901c908316146128475750600154818160801c9116811461283557600019018181169160006127e96127ce856001600160801b03166000526002602052604060002090565b54946001600160801b03166000526002602052604060002090565b55600154916001600160801b03199060801b16911617600155905b81600052600b60205260406000205416918261282357611e9e926123f1565b60405163119b4fd360e11b8152600490fd5b6040516375e52f4f60e01b8152600490fd5b90506006546000198082146128915760018201806006551461287f576001600160ff1b010190600160ff1b82106124ad575090612804565b60405163303b682f60e01b8152600490fd5b634e487b7160e01b83526011600452602483fd5b9081600052600b602052604060002054916001600160601b0382116128ee57600052600b6020526001600160601b0360a01b9060a01b169060018060a01b031601604060002055565b604051633f2cd0e360e21b8152600490fdfeddf252ad1be2c89b69c2b068fc378daa952ba7f163c4a11628f55a4df523b3efa26469706673582212209f366a2a8d99a2bf821eaa08eb0d1a0a4db89992a49ad574f10d4022665d985a64736f6c63430008170033c2575a0e9e593c00f959f8c92f12db2869c3395a3b0502d05e2516446f71f85bddf252ad1be2c89b69c2b068fc378daa952ba7f163c4a11628f55a4df523b3ef8d1108e10bcb7c27dddfc02ed9d693a074039d026cf4ea4240b40f7d581ac802",
  "linkReferences": {},
  "deployedLinkReferences": {}
}