{
  "_format": "hh-sol-artifact-1",
  "contractName": "ERC404Instance",
  "sourceName": "contracts/ERC404Instance.sol",
  "abi": [
    {
      "inputs": [
        {
          "internalType": "string",
          "name": "name_",
          "type": "string"
        },
        {
          "internalType": "string",
          "name": "symbol_",
          "type": "string"
        },
        {
          "internalType": "uint8",
          "name": "decimals_",
          "type": "uint8"
        },
        {
          "internalType": "uint256",
          "name": "maxTotalSupplyERC721_",
          "type": "uint256"
        },
        {
          "internalType": "address",
          "name": "initialMintRecipient_",
          "type": "address"
        },
        {
          "internalType": "string",
          "name": "uri_",
          "type": "string"
        }
      ],
      "stateMutability": "nonpayable",
      "type": "constructor"
    },
    {
      "inputs": [],
      "name": "AlreadyExists",
      "type": "error"
    },
    {
      "inputs": [],
      "name": "DecimalsTooLow",
      "type": "error"
    },
    {
      "inputs": [],
      "name": "InsufficientAllowance",
      "type": "error"
    },
    {
      "inputs": [],
      "name": "InvalidApproval",
      "type": "error"
    },
    {
      "inputs": [],
      "name": "InvalidExemption",
      "type": "error"
    },
    {
      "inputs": [],
      "name": "InvalidOperator",
      "type": "error"
    },
    {
      "inputs": [],
      "name": "InvalidRecipient",
      "type": "error"
    },
    {
      "inputs": [],
      "name": "InvalidSender",
      "type": "error"
    },
    {
      "inputs": [],
      "name": "InvalidSigner",
      "type": "error"
    },
    {
      "inputs": [],
      "name": "InvalidSpender",
      "type": "error"
    },
    {
      "inputs": [],
      "name": "InvalidTokenId",
      "type": "error"
    },
    {
      "inputs": [],
      "name": "MintLimitReached",
      "type": "error"
    },
    {
      "inputs": [],
      "name": "NotFound",
      "type": "error"
    },
    {
      "inputs": [],
      "name": "OwnedIndexOverflow",
      "type": "error"
    },
    {
      "inputs": [],
      "name": "PermitDeadlineExpired",
      "type": "error"
    },
    {
      "inputs": [],
      "name": "QueueEmpty",
      "type": "error"
    },
    {
      "inputs": [],
      "name": "QueueFull",
      "type": "error"
    },
    {
      "inputs": [],
      "name": "QueueOutOfBounds",
      "type": "error"
    },
    {
      "inputs": [],
      "name": "RecipientIsERC721TransferExempt",
      "type": "error"
    },
    {
      "inputs": [],
      "name": "Unauthorized",
      "type": "error"
    },
    {
      "inputs": [],
      "name": "UnsafeRecipient",
      "type": "error"
    },
    {
      "anonymous": false,
      "inputs": [
        {
          "indexed": true,
          "internalType": "address",
          "name": "owner",
          "type": "address"
        },
        {
          "indexed": true,
          "internalType": "address",
          "name": "spender",
          "type": "address"
        },
        {
          "indexed": false,
          "internalType": "uint256",
          "name": "value",
          "type": "uint256"
        }
      ],
      "name": "Approval",
      "type": "event"
    },
    {
      "anonymous": false,
      "inputs": [
        {
          "indexed": true,
          "internalType": "address",
          "name": "owner",
          "type": "address"
        },
        {
          "indexed": true,
          "internalType": "address",
          "name": "spender",
          "type": "address"
        },
        {
          "indexed": true,
          "internalType": "uint256",
          "name": "id",
          "type": "uint256"
        }
      ],
      "name": "Approval",
      "type": "event"
    },
    {
      "anonymous": false,
      "inputs": [
        {
          "indexed": true,
          "internalType": "address",
          "name": "owner",
          "type": "address"
        },
        {
          "indexed": true,
          "internalType": "address",
          "name": "operator",
          "type": "address"
        },
        {
          "indexed": false,
          "internalType": "bool",
          "name": "approved",
          "type": "bool"
        }
      ],
      "name": "ApprovalForAll",
      "type": "event"
    },
    {
      "anonymous": false,
      "inputs": [
        {
          "indexed": true,
          "internalType": "address",
          "name": "user",
          "type": "address"
        },
        {
          "indexed": false,
          "internalType": "string[]",
          "name": "cids",
          "type": "string[]"
        }
      ],
      "name": "CIDsAdded",
      "type": "event"
    },
    {
      "anonymous": false,
      "inputs": [
        {
          "indexed": true,
          "internalType": "address",
          "name": "previousOwner",
          "type": "address"
        },
        {
          "indexed": true,
          "internalType": "address",
          "name": "newOwner",
          "type": "address"
        }
      ],
      "name": "OwnershipTransferred",
      "type": "event"
    },
    {
      "anonymous": false,
      "inputs": [
        {
          "indexed": true,
          "internalType": "address",
          "name": "from",
          "type": "address"
        },
        {
          "indexed": true,
          "internalType": "address",
          "name": "to",
          "type": "address"
        },
        {
          "indexed": false,
          "internalType": "uint256",
          "name": "amount",
          "type": "uint256"
        }
      ],
      "name": "Transfer",
      "type": "event"
    },
    {
      "anonymous": false,
      "inputs": [
        {
          "indexed": true,
          "internalType": "address",
          "name": "from",
          "type": "address"
        },
        {
          "indexed": true,
          "internalType": "address",
          "name": "to",
          "type": "address"
        },
        {
          "indexed": true,
          "internalType": "uint256",
          "name": "id",
          "type": "uint256"
        }
      ],
      "name": "Transfer",
      "type": "event"
    },
    {
      "inputs": [],
      "name": "DOMAIN_SEPARATOR",
      "outputs": [
        {
          "internalType": "bytes32",
          "name": "",
          "type": "bytes32"
        }
      ],
      "stateMutability": "view",
      "type": "function"
    },
    {
      "inputs": [],
      "name": "ID_ENCODING_PREFIX",
      "outputs": [
        {
          "internalType": "uint256",
          "name": "",
          "type": "uint256"
        }
      ],
      "stateMutability": "view",
      "type": "function"
    },
    {
      "inputs": [
        {
          "internalType": "address",
          "name": "user",
          "type": "address"
        },
        {
          "internalType": "string[]",
          "name": "cids",
          "type": "string[]"
        }
      ],
      "name": "addCIDs",
      "outputs": [],
      "stateMutability": "nonpayable",
      "type": "function"
    },
    {
      "inputs": [
        {
          "internalType": "address",
          "name": "",
          "type": "address"
        },
        {
          "internalType": "address",
          "name": "",
          "type": "address"
        }
      ],
      "name": "allowance",
      "outputs": [
        {
          "internalType": "uint256",
          "name": "",
          "type": "uint256"
        }
      ],
      "stateMutability": "view",
      "type": "function"
    },
    {
      "inputs": [
        {
          "internalType": "address",
          "name": "spender_",
          "type": "address"
        },
        {
          "internalType": "uint256",
          "name": "valueOrId_",
          "type": "uint256"
        }
      ],
      "name": "approve",
      "outputs": [
        {
          "internalType": "bool",
          "name": "",
          "type": "bool"
        }
      ],
      "stateMutability": "nonpayable",
      "type": "function"
    },
    {
      "inputs": [
        {
          "internalType": "address",
          "name": "",
          "type": "address"
        }
      ],
      "name": "balanceOf",
      "outputs": [
        {
          "internalType": "uint256",
          "name": "",
          "type": "uint256"
        }
      ],
      "stateMutability": "view",
      "type": "function"
    },
    {
      "inputs": [],
      "name": "decimals",
      "outputs": [
        {
          "internalType": "uint8",
          "name": "",
          "type": "uint8"
        }
      ],
      "stateMutability": "view",
      "type": "function"
    },
    {
      "inputs": [
        {
          "internalType": "address",
          "name": "spender_",
          "type": "address"
        },
        {
          "internalType": "uint256",
          "name": "value_",
          "type": "uint256"
        }
      ],
      "name": "erc20Approve",
      "outputs": [
        {
          "internalType": "bool",
          "name": "",
          "type": "bool"
        }
      ],
      "stateMutability": "nonpayable",
      "type": "function"
    },
    {
      "inputs": [
        {
          "internalType": "address",
          "name": "owner_",
          "type": "address"
        }
      ],
      "name": "erc20BalanceOf",
      "outputs": [
        {
          "internalType": "uint256",
          "name": "",
          "type": "uint256"
        }
      ],
      "stateMutability": "view",
      "type": "function"
    },
    {
      "inputs": [],
      "name": "erc20TotalSupply",
      "outputs": [
        {
          "internalType": "uint256",
          "name": "",
          "type": "uint256"
        }
      ],
      "stateMutability": "view",
      "type": "function"
    },
    {
      "inputs": [
        {
          "internalType": "address",
          "name": "from_",
          "type": "address"
        },
        {
          "internalType": "address",
          "name": "to_",
          "type": "address"
        },
        {
          "internalType": "uint256",
          "name": "value_",
          "type": "uint256"
        }
      ],
      "name": "erc20TransferFrom",
      "outputs": [
        {
          "internalType": "bool",
          "name": "",
          "type": "bool"
        }
      ],
      "stateMutability": "nonpayable",
      "type": "function"
    },
    {
      "inputs": [
        {
          "internalType": "address",
          "name": "spender_",
          "type": "address"
        },
        {
          "internalType": "uint256",
          "name": "id_",
          "type": "uint256"
        }
      ],
      "name": "erc721Approve",
      "outputs": [],
      "stateMutability": "nonpayable",
      "type": "function"
    },
    {
      "inputs": [
        {
          "internalType": "address",
          "name": "owner_",
          "type": "address"
        }
      ],
      "name": "erc721BalanceOf",
      "outputs": [
        {
          "internalType": "uint256",
          "name": "",
          "type": "uint256"
        }
      ],
      "stateMutability": "view",
      "type": "function"
    },
    {
      "inputs": [],
      "name": "erc721TotalSupply",
      "outputs": [
        {
          "internalType": "uint256",
          "name": "",
          "type": "uint256"
        }
      ],
      "stateMutability": "view",
      "type": "function"
    },
    {
      "inputs": [
        {
          "internalType": "address",
          "name": "target_",
          "type": "address"
        }
      ],
      "name": "erc721TransferExempt",
      "outputs": [
        {
          "internalType": "bool",
          "name": "",
          "type": "bool"
        }
      ],
      "stateMutability": "view",
      "type": "function"
    },
    {
      "inputs": [
        {
          "internalType": "address",
          "name": "from_",
          "type": "address"
        },
        {
          "internalType": "address",
          "name": "to_",
          "type": "address"
        },
        {
          "internalType": "uint256",
          "name": "id_",
          "type": "uint256"
        }
      ],
      "name": "erc721TransferFrom",
      "outputs": [],
      "stateMutability": "nonpayable",
      "type": "function"
    },
    {
      "inputs": [
        {
          "internalType": "uint256",
          "name": "",
          "type": "uint256"
        }
      ],
      "name": "getApproved",
      "outputs": [
        {
          "internalType": "address",
          "name": "",
          "type": "address"
        }
      ],
      "stateMutability": "view",
      "type": "function"
    },
    {
      "inputs": [
        {
          "internalType": "address",
          "name": "user",
          "type": "address"
        }
      ],
      "name": "getCIDs",
      "outputs": [
        {
          "internalType": "string[]",
          "name": "",
          "type": "string[]"
        }
      ],
      "stateMutability": "view",
      "type": "function"
    },
    {
      "inputs": [
        {
          "internalType": "address",
          "name": "user",
          "type": "address"
        }
      ],
      "name": "getContribution",
      "outputs": [
        {
          "internalType": "uint256",
          "name": "",
          "type": "uint256"
        }
      ],
      "stateMutability": "view",
      "type": "function"
    },
    {
      "inputs": [],
      "name": "getERC721QueueLength",
      "outputs": [
        {
          "internalType": "uint256",
          "name": "",
          "type": "uint256"
        }
      ],
      "stateMutability": "view",
      "type": "function"
    },
    {
      "inputs": [
        {
          "internalType": "uint256",
          "name": "start_",
          "type": "uint256"
        },
        {
          "internalType": "uint256",
          "name": "count_",
          "type": "uint256"
        }
      ],
      "name": "getERC721TokensInQueue",
      "outputs": [
        {
          "internalType": "uint256[]",
          "name": "",
          "type": "uint256[]"
        }
      ],
      "stateMutability": "view",
      "type": "function"
    },
    {
      "inputs": [
        {
          "internalType": "address",
          "name": "",
          "type": "address"
        },
        {
          "internalType": "address",
          "name": "",
          "type": "address"
        }
      ],
      "name": "isApprovedForAll",
      "outputs": [
        {
          "internalType": "bool",
          "name": "",
          "type": "bool"
        }
      ],
      "stateMutability": "view",
      "type": "function"
    },
    {
      "inputs": [],
      "name": "minted",
      "outputs": [
        {
          "internalType": "uint256",
          "name": "",
          "type": "uint256"
        }
      ],
      "stateMutability": "view",
      "type": "function"
    },
    {
      "inputs": [],
      "name": "name",
      "outputs": [
        {
          "internalType": "string",
          "name": "",
          "type": "string"
        }
      ],
      "stateMutability": "view",
      "type": "function"
    },
    {
      "inputs": [
        {
          "internalType": "address",
          "name": "",
          "type": "address"
        }
      ],
      "name": "nonces",
      "outputs": [
        {
          "internalType": "uint256",
          "name": "",
          "type": "uint256"
        }
      ],
      "stateMutability": "view",
      "type": "function"
    },
    {
      "inputs": [
        {
          "internalType": "address",
          "name": "owner_",
          "type": "address"
        }
      ],
      "name": "owned",
      "outputs": [
        {
          "internalType": "uint256[]",
          "name": "",
          "type": "uint256[]"
        }
      ],
      "stateMutability": "view",
      "type": "function"
    },
    {
      "inputs": [],
      "name": "owner",
      "outputs": [
        {
          "internalType": "address",
          "name": "",
          "type": "address"
        }
      ],
      "stateMutability": "view",
      "type": "function"
    },
    {
      "inputs": [
        {
          "internalType": "uint256",
          "name": "id_",
          "type": "uint256"
        }
      ],
      "name": "ownerOf",
      "outputs": [
        {
          "internalType": "address",
          "name": "erc721Owner",
          "type": "address"
        }
      ],
      "stateMutability": "view",
      "type": "function"
    },
    {
      "inputs": [
        {
          "internalType": "address",
          "name": "owner_",
          "type": "address"
        },
        {
          "internalType": "address",
          "name": "spender_",
          "type": "address"
        },
        {
          "internalType": "uint256",
          "name": "value_",
          "type": "uint256"
        },
        {
          "internalType": "uint256",
          "name": "deadline_",
          "type": "uint256"
        },
        {
          "internalType": "uint8",
          "name": "v_",
          "type": "uint8"
        },
        {
          "internalType": "bytes32",
          "name": "r_",
          "type": "bytes32"
        },
        {
          "internalType": "bytes32",
          "name": "s_",
          "type": "bytes32"
        }
      ],
      "name": "permit",
      "outputs": [],
      "stateMutability": "nonpayable",
      "type": "function"
    },
    {
      "inputs": [],
      "name": "renounceOwnership",
      "outputs": [],
      "stateMutability": "nonpayable",
      "type": "function"
    },
    {
      "inputs": [
        {
          "internalType": "address",
          "name": "from_",
          "type": "address"
        },
        {
          "internalType": "address",
          "name": "to_",
          "type": "address"
        },
        {
          "internalType": "uint256",
          "name": "id_",
          "type": "uint256"
        }
      ],
      "name": "safeTransferFrom",
      "outputs": [],
      "stateMutability": "nonpayable",
      "type": "function"
    },
    {
      "inputs": [
        {
          "internalType": "address",
          "name": "from_",
          "type": "address"
        },
        {
          "internalType": "address",
          "name": "to_",
          "type": "address"
        },
        {
          "internalType": "uint256",
          "name": "id_",
          "type": "uint256"
        },
        {
          "internalType": "bytes",
          "name": "data_",
          "type": "bytes"
        }
      ],
      "name": "safeTransferFrom",
      "outputs": [],
      "stateMutability": "nonpayable",
      "type": "function"
    },
    {
      "inputs": [
        {
          "internalType": "address",
          "name": "operator_",
          "type": "address"
        },
        {
          "internalType": "bool",
          "name": "approved_",
          "type": "bool"
        }
      ],
      "name": "setApprovalForAll",
      "outputs": [],
      "stateMutability": "nonpayable",
      "type": "function"
    },
    {
      "inputs": [
        {
          "internalType": "address",
          "name": "account_",
          "type": "address"
        },
        {
          "internalType": "bool",
          "name": "value_",
          "type": "bool"
        }
      ],
      "name": "setERC721TransferExempt",
      "outputs": [],
      "stateMutability": "nonpayable",
      "type": "function"
    },
    {
      "inputs": [
        {
          "internalType": "bool",
          "name": "state_",
          "type": "bool"
        }
      ],
      "name": "setSelfERC721TransferExempt",
      "outputs": [],
      "stateMutability": "nonpayable",
      "type": "function"
    },
    {
      "inputs": [
        {
          "internalType": "bytes4",
          "name": "interfaceId",
          "type": "bytes4"
        }
      ],
      "name": "supportsInterface",
      "outputs": [
        {
          "internalType": "bool",
          "name": "",
          "type": "bool"
        }
      ],
      "stateMutability": "view",
      "type": "function"
    },
    {
      "inputs": [],
      "name": "symbol",
      "outputs": [
        {
          "internalType": "string",
          "name": "",
          "type": "string"
        }
      ],
      "stateMutability": "view",
      "type": "function"
    },
    {
      "inputs": [
        {
          "internalType": "uint256",
          "name": "id_",
          "type": "uint256"
        }
      ],
      "name": "tokenURI",
      "outputs": [
        {
          "internalType": "string",
          "name": "",
          "type": "string"
        }
      ],
      "stateMutability": "view",
      "type": "function"
    },
    {
      "inputs": [],
      "name": "totalSupply",
      "outputs": [
        {
          "internalType": "uint256",
          "name": "",
          "type": "uint256"
        }
      ],
      "stateMutability": "view",
      "type": "function"
    },
    {
      "inputs": [
        {
          "internalType": "address",
          "name": "to_",
          "type": "address"
        },
        {
          "internalType": "uint256",
          "name": "value_",
          "type": "uint256"
        }
      ],
      "name": "transfer",
      "outputs": [
        {
          "internalType": "bool",
          "name": "",
          "type": "bool"
        }
      ],
      "stateMutability": "nonpayable",
      "type": "function"
    },
    {
      "inputs": [
        {
          "internalType": "address",
          "name": "from_",
          "type": "address"
        },
        {
          "internalType": "address",
          "name": "to_",
          "type": "address"
        },
        {
          "internalType": "uint256",
          "name": "valueOrId_",
          "type": "uint256"
        }
      ],
      "name": "transferFrom",
      "outputs": [
        {
          "internalType": "bool",
          "name": "",
          "type": "bool"
        }
      ],
      "stateMutability": "nonpayable",
      "type": "function"
    },
    {
      "inputs": [
        {
          "internalType": "address",
          "name": "newOwner",
          "type": "address"
        }
      ],
      "name": "transferOwnership",
      "outputs": [],
      "stateMutability": "nonpayable",
      "type": "function"
    },
    {
      "inputs": [],
      "name": "units",
      "outputs": [
        {
          "internalType": "uint256",
          "name": "",
          "type": "uint256"
        }
      ],
      "stateMutability": "view",
      "type": "function"
    },
    {
      "inputs": [],
      "name": "uri",
      "outputs": [
        {
          "internalType": "string",
          "name": "",
          "type": "string"
        }
      ],
      "stateMutability": "view",
      "type": "function"
    }
  ],
  "bytecode": "0x610100806040523462000c62576200381c803803809162000021828562000c67565b8339810160c08282031262000c625781516001600160401b03811162000c6257816200004f91840162000c8b565b60208301519092906001600160401b03811162000c6257826200007491830162000c8b565b60408201519060ff8216820362000c625760608301516080840151949093906001600160a01b038616860362000c625760a08201516001600160401b03811162000c6257620000c4920162000c8b565b60008054336001600160a01b0319821681178355929792916001600160a01b03909116907f8be0079c531659141344cd1fd0a4f28419497f9722a3daafe3b4186f6b6457e09080a38051906001600160401b0382116200065c5781906200012d60035462000d01565b601f811162000bfe575b50602090601f831160011462000b805760009262000b74575b50508160011b916000199060031b1c1916176003555b8051906001600160401b0382116200065c5781906200018760045462000d01565b601f811162000aff575b50602090601f831160011462000a705760009262000a64575b50508160011b916000199060031b1c1916176004555b601260ff82161062000a525780608052604d60ff821611620006465760ff16600a0a60a0524660c052604051600354816000620001fd8362000d01565b808352926001811690811562000a315750600114620009de575b620002259250038262000c67565b6020815191012060405160208101917f8b73c3c69bb8fe3d512ecc4cf759cc79239f7b179b0ffacaa9a75d522b39400f835260408201527fc89efdaa54c0f20c7adf612882df0950f5a951637e0307cdcb4c672f298b8bc660608201524660808201523060a082015260a0815260c0810181811060018060401b038211176200065c5760405251902060e05282516001600160401b0381116200065c57620002cf600f5462000d01565b601f811162000985575b506020601f82116001146200090c578192939460009262000900575b50508160011b916000199060031b1c191617600f555b6001600160a01b03821615620008ee576001600160a01b0382166000908152600c6020526040812054905b818110620006f45750506001600160a01b0382166000908152600d60205260409020805460ff1916600117905580158015620003cb575b6040516129be908162000dfe823960805181611146015260a051818181610cb60152818161138e01528181611eaf015281816120d0015281816121fe0152818161227801526122db015260c05181611a43015260e05181611a6a0152f35b60a051808302928304141715620006465760055490600160ff1b620003f1828462000d3e565b11620006d057600760205260018060a01b0383166000526200041a816040600020549362000d3e565b6005556001600160a01b03831660008181526007602090815260408083208054860190555193845291929091600080516020620037dc83398151915291a36001600160a01b0382166000908152600d602052604090205460ff161562000482575b806200036d565b6007602052620004aa6200049f60406000205460a0519062000d4c565b9160a0519062000d4c565b8103908111620006465760005b818110620004c657506200047b565b6001600160a01b03831615620006e257600154608081901c6001600160801b03909116146200069657600154608081901c6001600160801b03821614620006845760001960809190911c016001600160801b0381166000908152600260205260408120805492919055600180546001600160801b031660809290921b6001600160801b031916919091179055905b6000828152600b60205260409020546001600160a01b0316918262000672576000818152600b6020908152604080832080546001600160a01b0319166001600160a01b038a169081019091558352600c90915290208054680100000000000000008110156200065c57620005d481620005ed936001869401815562000d6d565b90919082549060031b91821b91600019901b1916179055565b6001600160a01b0385166000908152600c60205260409020546000198101939084116200064657620006226001948362000d9c565b838060a01b03861690600080516020620037dc833981519152600080a401620004b7565b634e487b7160e01b600052601160045260246000fd5b634e487b7160e01b600052604160045260246000fd5b60405163119b4fd360e11b8152600490fd5b6040516375e52f4f60e01b8152600490fd5b60068054906000199081831462000646576001830180915514620006d0576001600160ff1b0101600160ff1b811062000646579062000554565b60405163303b682f60e01b8152600490fd5b604051634e46966960e11b8152600490fd5b6001600160a01b03841615620008dc576001600160a01b0384166000908152600c60205260409020805460001981019081116200064657620007369162000d6d565b905460039190911b1c600081815260096020908152604080832080546001600160a01b03191690556001600160a01b0388168352600c90915290208054919291906000198201821062000646576200079391600019019062000d6d565b90549060031b1c82810362000891575b506001600160a01b0385166000908152600c60205260409020805480156200087b576000190190620007d6828262000d6d565b8154906000199060031b1b191690555581600052600b6020526000604081205581600060018060a01b038716600080516020620037dc8339815191528280a46001546001600160801b0380821660001901169060801c811462000869576001600160801b038116600090815260026020526040902092909255600180546001600160801b03191690921782550162000336565b604051638acb5f2760e01b8152600490fd5b634e487b7160e01b600052603160045260246000fd5b620008d59083600052600b60205260406000205460a01c9060018060a01b038816600052600c602052620008cf81620005d484604060002062000d6d565b62000d9c565b38620007a3565b604051636edaef2f60e11b8152600490fd5b60405163a41e3d3f60e01b8152600490fd5b015190503880620002f5565b600f6000908152600080516020620037fc8339815191529190601f198416905b8181106200096c5750958360019596971062000952575b505050811b01600f556200030b565b015160001960f88460031b161c1916905538808062000943565b9192602060018192868b0151815501940192016200092c565b600f600052600080516020620037fc833981519152601f830160051c81019160208410620009d3575b601f0160051c01905b818110620009c65750620002d9565b60008155600101620009b7565b9091508190620009ae565b50600360009081529091600080516020620037bc8339815191525b81831062000a14575050906020620002259282010162000217565b6020919350806001915483858801015201910190918392620009f9565b602092506200022594915060ff191682840152151560051b82010162000217565b6040516398790fd560e01b8152600490fd5b015190503880620001aa565b6004600090815293507f8a35acfbc15ff81a39ae7d344fd709f28e8600b4aa8c65c6b64bfe7fe36bd19b91905b601f198416851062000ae3576001945083601f1981161062000ac9575b505050811b01600455620001c0565b015160001960f88460031b161c1916905538808062000aba565b8181015183556020948501946001909301929091019062000a9d565b60046000529091507f8a35acfbc15ff81a39ae7d344fd709f28e8600b4aa8c65c6b64bfe7fe36bd19b601f840160051c8101916020851062000b69575b90601f859493920160051c01905b81811062000b59575062000191565b6000815584935060010162000b4a565b909150819062000b3c565b01519050388062000150565b600360009081529350600080516020620037bc83398151915291905b601f198416851062000be2576001945083601f1981161062000bc8575b505050811b0160035562000166565b015160001960f88460031b161c1916905538808062000bb9565b8181015183556020948501946001909301929091019062000b9c565b6003600052909150600080516020620037bc833981519152601f840160051c8101916020851062000c57575b90601f859493920160051c01905b81811062000c47575062000137565b6000815584935060010162000c38565b909150819062000c2a565b600080fd5b601f909101601f19168101906001600160401b038211908210176200065c57604052565b919080601f8401121562000c625782516001600160401b0381116200065c576020906040519262000cc683601f19601f850116018562000c67565b81845282828701011162000c625760005b81811062000ced57508260009394955001015290565b858101830151848201840152820162000cd7565b90600182811c9216801562000d33575b602083101462000d1d57565b634e487b7160e01b600052602260045260246000fd5b91607f169162000d11565b919082018092116200064657565b811562000d57570490565b634e487b7160e01b600052601260045260246000fd5b805482101562000d865760005260206000200190600090565b634e487b7160e01b600052603260045260246000fd5b6000818152600b602052604090205491906001600160601b03821162000deb576000908152600b602052604090206001600160a01b039290921660a09190911b6001600160a01b031916019055565b604051633f2cd0e360e21b8152600490fdfe608060408181526004918236101561001657600080fd5b600090813560e01c90816301ffc9a7146116d75750806302519da314610eb657806306fdde0314611625578063081812fc146115f2578063095ea7b3146115c957806309674eb01461159957806309f0ef651461157357806318160ddd14610e0557806321eff7fc1461153b57806323b872dd1461151f57806325c03c8a1461116a578063313ce5671461112c5780633644e5151461110857806342842e0e146110ba5780634d966072146110915780634f02c42014610a7a5780636352211e146110165780636367da9c14610f0d5780636e8f624b14610eee57806370a0823114610eb6578063715018a614610e5c5780637ecebe0014610e2457806389fb4c6614610e055780638a696e5014610dde5780638da5cb5b14610db657806395d89b4114610cd9578063976a843514610c9e578063a22cb46514610c01578063a9059cbb14610bb8578063b1ab931714610b36578063b3f9ea3414610afe578063b88d4fde14610a99578063c5ab3ba614610a7a578063c6e672b914610a48578063c87b56dd146107f0578063d505accf146105c3578063d96ca0b91461059e578063dd62ed3e14610555578063dd6376991461053d578063dfabc03314610515578063e985e9c5146104c3578063eac989f8146103da578063f2fde38b146103135763f780bc1a1461020857600080fd5b34610310578160031936011261031057508135906024356102288161184b565b9261023583519485611796565b818452601f196102448361184b565b0136602086013780946102686001546001600160801b03908181169060801c031690565b926001600160801b039160019485928460015416935b610294575b8751806102908b82611929565b0390f35b6102a281879a99989a611feb565b8a101561030757818a10156102f757888a6102db8780849e9d9b9c9d168801166001600160801b03166000526002602052604060002090565b546102ef6102e98a84611d89565b8d6119fc565b52019961027e565b865163580821e760e01b81528390fd5b86979850610283565b80fd5b5091346103d65760203660031901126103d65761032e61172b565b90610337611ff8565b6001600160a01b0391821692831561038457505082546001600160a01b0319811683178455167f8be0079c531659141344cd1fd0a4f28419497f9722a3daafe3b4186f6b6457e08380a380f35b906020608492519162461bcd60e51b8352820152602660248201527f4f776e61626c653a206e6577206f776e657220697320746865207a65726f206160448201526564647265737360d01b6064820152fd5b8280fd5b50346103105780600319360112610310578151918282600f546103fc8161175c565b908184526020956001918760018216918260001461049c575050600114610440575b5050506102909291610431910385611796565b519282849384528301906117f1565b9190869350600f83527f8d1108e10bcb7c27dddfc02ed9d693a074039d026cf4ea4240b40f7d581ac8025b828410610484575050508201018161043161029061041e565b8054848a01860152889550879490930192810161046b565b60ff19168782015293151560051b860190930193508492506104319150610290905061041e565b50903461051157806003193601126105115760ff816020936104e361172b565b6104eb611746565b6001600160a01b039182168352600a875283832091168252855220549151911615158152f35b5080fd5b509034610511573660031901126103105761053a61053161172b565b60243590611f49565b80f35b50346103105761053a61054f36611816565b91611e45565b5090346105115780600319360112610511578060209261057361172b565b61057b611746565b6001600160a01b0391821683526008865283832091168252845220549051908152f35b509034610511576020906105ba6105b436611816565b91611dac565b90519015158152f35b5090346105115760e0366003190112610511576105de61172b565b906105e7611746565b604435606435926084359260ff84168094036107ec574285106107dc57600160ff1b8311806107d0575b6107c0576001600160a01b039081169586156107b05781610630611a3e565b911695868952602095600e8752848a2092835493600185019055855192888401947f6e71edae12b1b97f4d1f60370fef10105fa2faae0126114a169c64845d6126c986528a888601528b606086015288608086015260a085015260c084015260c0835260e0830167ffffffffffffffff948482108683111761079c578188528451902061010085019261190160f01b8452610102860152610122850152604281526101608401948186109086111761078957848752519020835261018082015260a4356101a082015260c4356101c0909101528780528490889060809060015afa1561077f5786511680158015610775575b610765578652600883528086208587528352808620829055519081527f8c5be1e5ebec7d5bd14f71427d1e84f3dd0314c0f7b2291e5b200ac8c7c3b9259190a380f35b8151632057875960e21b81528890fd5b5084811415610722565b81513d88823e3d90fd5b634e487b7160e01b8c5260418d5260248cfd5b50634e487b7160e01b8c5260418d5260248cfd5b8251635461585f60e01b81528990fd5b81516303e7c1bd60e31b81528890fd5b50600019831415610611565b81516305787bdf60e01b81528890fd5b8680fd5b509190346103d65760209182600319360112610a4457803590819480917a184f03e93ff9f4daa797ed6e38ed64bf6a1f01000000000000000080851015610a37575b506d04ee2d6d415b85acef810000000080881015610a29575b50662386f26fc1000080881015610a1a575b506305f5e10080881015610a0b575b50612710808810156109fc575b505060648610156109ec575b600a809610156109e2575b60019160018101966108b96108a489611863565b986108b188519a8b611796565b808a52611863565b94846021898b0194601f198099013687378b0101905b6109b3575b505050845196879383600f54916108ea8361175c565b928a60018216918260001461098c57505060011461092c575b505050918061091f6104319593610290989795519384916117ce565b0103908101865285611796565b8993949550600f82527f8d1108e10bcb7c27dddfc02ed9d693a074039d026cf4ea4240b40f7d581ac8025b8383106109725750505084010191908061091f610290610903565b80549783018501979097528a968a94909201918101610957565b60ff1916898201528415159094028801909301955083925061091f91506102909050610903565b600019019082906f181899199a1a9b1b9c1cb0b131b232b360811b8282061a8353049085826108cf57506108d4565b9060010190610890565b9094606460029104950190610885565b90919296049501903880610879565b6008919397049601913861086c565b6010919397049601913861085d565b86919397049601913861084b565b8404965084925038610832565b8380fd5b509034610511573660031901126103105761053a610a6461172b565b610a6c61191a565b90610a75611ff8565b612050565b5090346105115781600319360112610511576020906006549051908152f35b50823461051157608036600319011261051157610ab461172b565b610abc611746565b9060643567ffffffffffffffff8111610afa5736602382011215610afa5761053a93816024610af09336930135910161187f565b9160443591611c56565b8480fd5b5090346105115760203660031901126105115760209181906001600160a01b03610b2661172b565b168152600c845220549051908152f35b5090346105115760209060206003193601126103d6576001600160a01b03610b5c61172b565b168352600c60205280832092815180936020865492838152019583526020832092905b828210610ba1576102908686610b97828b0383611796565b5191829182611929565b835487529586019560019384019390910190610b7f565b503461031057816003193601126103105750610bd261172b565b916001600160a01b03831615610bf357506105ba6020926024359033612174565b9051634e46966960e11b8152fd5b509190346103d657806003193601126103d657610c1c61172b565b90610c2561191a565b6001600160a01b03909216928315610c905750338452600a602052808420838552602052610c61828286209060ff801983541691151516179055565b5190151581527f17307eab39ab6107e8899845ad3d59bd9653f200f220920489ca2b5937696c3160203392a380f35b905163ccea9e6f60e01b8152fd5b509034610511578160031936011261051157602090517f00000000000000000000000000000000000000000000000000000000000000008152f35b509190346103d657826003193601126103d6578051838194908454610cfd8161175c565b9182855260209660019288600182169182600014610d8c575050600114610d31575b858861029089610431848a0385611796565b815286935091907f8a35acfbc15ff81a39ae7d344fd709f28e8600b4aa8c65c6b64bfe7fe36bd19b5b828410610d74575050508201018161043161029038610d1f565b8054848a018601528895508794909301928101610d5a565b60ff19168882015294151560051b8701909401945085935061043192506102909150389050610d1f565b509034610511578160031936011261051157905490516001600160a01b039091168152602090f35b508234610511576020366003190112610511573580151581036105115761053a9033612050565b5090346105115781600319360112610511576020906005549051908152f35b5090346105115760203660031901126105115760209181906001600160a01b03610e4c61172b565b168152600e845220549051908152f35b5034610310578060031936011261031057610e75611ff8565b80546001600160a01b03198116825581906001600160a01b03167f8be0079c531659141344cd1fd0a4f28419497f9722a3daafe3b4186f6b6457e08280a380f35b5090346105115760203660031901126105115760209181906001600160a01b03610ede61172b565b1681526007845220549051908152f35b50903461051157816003193601126105115751600160ff1b8152602090f35b50903461051157602090816003193601126103d65782906001600160a01b03610f3461172b565b1682526010835280822091825490610f4b8261184b565b93610f5884519586611796565b82855281528481209481908086015b848310610f7b5785518061029089826118b6565b85518285928a5492610f8c8461175c565b808252600194808616908115610ffa5750600114610fc2575b50610fb4816001960382611796565b815201980192019196610f67565b8c8952838920955088905b808210610fe35750810183019450610fb4610fa5565b865483830186015295850195879490910190610fcd565b60ff19168584015250151560051b810183019450610fb4610fa5565b509034610511576020366003190112610511578235808352600b60205291819020546001600160a01b031691600160ff1b81119081611084575b5015611075578115611066576020925051908152f35b5163c5723b5160e01b81529050fd5b516307ed98ed60e31b81529050fd5b6000191415905038611050565b5090346105115780600319360112610511576020906105ba6110b161172b565b60243590611be7565b509034610511576110ca36611816565b91835193602085019085821067ffffffffffffffff8311176110f55761053a96975052858452611c56565b634e487b7160e01b875260418852602487fd5b509034610511578160031936011261051157602090611125611a3e565b9051908152f35b5090346105115781600319360112610511576020905160ff7f0000000000000000000000000000000000000000000000000000000000000000168152f35b50823461051157826003193601126105115761118461172b565b91602480359067ffffffffffffffff9283831161031057366023840112156103105782850135926111b48461184b565b976111c18151998a611796565b848952602091828a018560059760051b8301019136831161151b57868101915b8383106114e057505050506111f4611ff8565b6001600160a01b038816835b8a5181101561138257818552601084528285209061121e818d6119fc565b51918054600160401b8110156113705761123f906001928382018155611a26565b91909161135f578351908b821161134d5761125a835461175c565b94601f9586811161130b575b50889583116001146112a357829160019683928c94611298575b50501b916000199060031b1c19161790555b01611200565b015192503880611280565b90929394601f19831691858b52898b20928b5b8b8282106112f75750509084600198979695949392106112de575b505050811b019055611292565b015160001960f88460031b161c191690558f80806112d1565b8385015186559487019493840193016112b6565b848b52898b208d88808701821c8301938d8810611344575b01901c019083905b828110611339575050611266565b8c815501839061132b565b93508293611323565b634e487b7160e01b895260418d528989fd5b634e487b7160e01b8852878c528888fd5b634e487b7160e01b885260418c528888fd5b5092938789918b9485517f000000000000000000000000000000000000000000000000000000000000000092838202918083048514901517156114cf575087156114bf5760055493600160ff1b6113d98387611feb565b116114b1575088600080516020612969833981519152838a9360078252848452611407818b86205499611feb565b600555848452600782528984208181540190558951908152a36114298461199e565b15611467575b87877f9db9873cd0c3e9e21710778297adb5b1a923b4c4663a32440d58dc743a5478da611461898951918291826118b6565b0390a280f35b61148f9291600761148992898b525261148381878b2054612154565b92612154565b90611d89565b90855b82811061149f578061142f565b6001906114ab836127cf565b01611492565b865163303b682f60e01b8152fd5b8551634e46966960e11b81528490fd5b634e487b7160e01b8a526011855289fd5b82358a81116115175782013660438201121561151757869161150c8392369060448d820135910161187f565b8152019201916111e1565b8780fd5b8580fd5b509034610511576020906105ba61153536611816565b916119ca565b5090346105115760203660031901126105115760209181906001600160a01b0361156361172b565b1681526010845220549051908152f35b509034610511576020366003190112610511576020906105ba61159461172b565b61199e565b5090346105115781600319360112610511576020906111256001546001600160801b03908181169060801c031690565b5090346105115780600319360112610511576020906105ba6115e961172b565b60243590611965565b5091346103d65760203660031901126103d65735825260096020908152918190205490516001600160a01b039091168152f35b503461031057806003193601126103105781519182826003546116478161175c565b908184526020956001918760018216918260001461049c57505060011461167b575050506102909291610431910385611796565b9190869350600383527fc2575a0e9e593c00f959f8c92f12db2869c3395a3b0502d05e2516446f71f85b5b8284106116bf575050508201018161043161029061041e565b8054848a0186015288955087949093019281016116a6565b905083346103d65760203660031901126103d6573563ffffffff60e01b81168091036103d6576020925063caf91ff560e01b811490811561171a575b5015158152f35b6301ffc9a760e01b14905083611713565b600435906001600160a01b038216820361174157565b600080fd5b602435906001600160a01b038216820361174157565b90600182811c9216801561178c575b602083101461177657565b634e487b7160e01b600052602260045260246000fd5b91607f169161176b565b90601f8019910116810190811067ffffffffffffffff8211176117b857604052565b634e487b7160e01b600052604160045260246000fd5b60005b8381106117e15750506000910152565b81810151838201526020016117d1565b9060209161180a815180928185528580860191016117ce565b601f01601f1916010190565b6060906003190112611741576001600160a01b0390600435828116810361174157916024359081168103611741579060443590565b67ffffffffffffffff81116117b85760051b60200190565b67ffffffffffffffff81116117b857601f01601f191660200190565b92919261188b82611863565b916118996040519384611796565b829481845281830111611741578281602093846000960137010152565b6020808201906020835283518092526040830192602060408460051b8301019501936000915b8483106118ec5750505050505090565b909192939495848061190a600193603f198682030187528a516117f1565b98019301930191949392906118dc565b60243590811515820361174157565b602090602060408183019282815285518094520193019160005b828110611951575050505090565b835185529381019392810192600101611943565b90600160ff1b811180611992575b156119865761198191611f49565b600190565b61198f91611be7565b90565b50600019811415611973565b6001600160a01b031680159081156119b4575090565b9050600052600d60205260ff6040600020541690565b9190600160ff1b8211806119f0575b156119e75761198192611e45565b61198f92611dac565b506000198214156119d9565b8051821015611a105760209160051b010190565b634e487b7160e01b600052603260045260246000fd5b8054821015611a105760005260206000200190600090565b6000467f000000000000000000000000000000000000000000000000000000000000000003611a8c57507f000000000000000000000000000000000000000000000000000000000000000090565b6040516003548291611a9d8261175c565b808252816020948582019460019087600182169182600014611bc9575050600114611b6f575b50611ad092500382611796565b51902091604051918201927f8b73c3c69bb8fe3d512ecc4cf759cc79239f7b179b0ffacaa9a75d522b39400f845260408301527fc89efdaa54c0f20c7adf612882df0950f5a951637e0307cdcb4c672f298b8bc660608301524660808301523060a083015260a0825260c082019082821067ffffffffffffffff831117611b5b575060405251902090565b634e487b7160e01b81526041600452602490fd5b6003885286915087907fc2575a0e9e593c00f959f8c92f12db2869c3395a3b0502d05e2516446f71f85b5b858310611bb1575050611ad0935082010138611ac3565b80548388018501528694508893909201918101611b9a565b60ff19168852611ad095151560051b8501019250389150611ac39050565b6001600160a01b0316908115611c4457336000526008602052604060002082600052602052806040600020556040519081527f8c5be1e5ebec7d5bd14f71427d1e84f3dd0314c0f7b2291e5b200ac8c7c3b92560203392a3600190565b604051635461585f60e01b8152600490fd5b919092600160ff1b821180611d7d575b15611d6b57611c768285856119ca565b50833b15159384611c9e575b50505050611c8c57565b604051633da6393160e01b8152600490fd5b611ce89394509060209160018060a01b039360405180968194829388630a85bd0160e11b9b8c865233600487015216602485015260448401526080606484015260848301906117f1565b03916000958691165af1918215611d5e578192611d17575b50506001600160e01b031916141538808080611c82565b9091506020813d602011611d56575b81611d3360209383611796565b810103126105115751906001600160e01b03198216820361031057503880611d00565b3d9150611d26565b50604051903d90823e3d90fd5b6040516307ed98ed60e31b8152600490fd5b50600019821415611c66565b91908203918211611d9657565b634e487b7160e01b600052601160045260246000fd5b6001600160a01b03808216939291908415611e3357821615611e215761198f9383600082815260086020526040812033825260205260408120546000198103611df9575b50505050612174565b604092611e0591611d89565b9281526008602052818120338252602052205538838180611df0565b604051634e46966960e11b8152600490fd5b604051636edaef2f60e11b8152600490fd5b6001600160a01b03939291908481168015611e335785831615611e2157600095848752600b6020526040968188822054168303611f39578790833314159384611f15575b5083611efd575b505050611eed57611ea08261199e565b611edc57611eda939450611ed57f000000000000000000000000000000000000000000000000000000000000000083836123e8565b612459565b565b8451635ce7539760e01b8152600490fd5b84516282b42960e81b8152600490fd5b86815260096020522054163314159050388681611e90565b915080935052600a6020528682203383526020528660ff8184205416159238611e89565b87516282b42960e81b8152600490fd5b6000828152600b60205260408120546001600160a01b03908116913383141580611fca575b611fb9577f8c5be1e5ebec7d5bd14f71427d1e84f3dd0314c0f7b2291e5b200ac8c7c3b92591858252600960205260408220941693846001600160601b0360a01b82541617905580a4565b6040516282b42960e81b8152600490fd5b50828152600a6020526040812033825260205260ff60408220541615611f6e565b91908201809211611d9657565b6000546001600160a01b0316330361200c57565b606460405162461bcd60e51b815260206004820152602060248201527f4f776e61626c653a2063616c6c6572206973206e6f7420746865206f776e65726044820152fd5b91906001600160a01b03831680156121425781156120ba5780600052600c60205260406000205460005b8181106120a8575050611eda9293505b600052600d60205260406000209060ff801983541691151516179055565b6001906120b487612644565b0161207a565b91908260005260076020526120f56040600020547f000000000000000000000000000000000000000000000000000000000000000090612154565b9280600052600c60205260406000205460005b6121128287611d89565b8110156121325790600161211292612129896127cf565b01909150612108565b505090919350611eda925061208a565b60405163a41e3d3f60e01b8152600490fd5b811561215e570490565b634e487b7160e01b600052601260045260246000fd5b919060018060a01b039182841660009481865260209060078252604092838820549686169687895284892054956121ac8189866123e8565b6121b58461199e565b6121be8961199e565b9080806123e1575b156121dd575b505050505050505050505050600190565b156122545750505050509060076114899261222495968852528520546114837f00000000000000000000000000000000000000000000000000000000000000008092612154565b915b828110612242575050505b3880808080808080808080806121cc565b60019061224e836127cf565b01612226565b98909196929793986000146122cd5750505050916114899160076122aa959461229e7f00000000000000000000000000000000000000000000000000000000000000008095612154565b95895252862054612154565b915b8281106122bb57505050612231565b6001906122c783612644565b016122ac565b9196979095612301999493997f00000000000000000000000000000000000000000000000000000000000000008098612154565b988991865b83811061237f57509488969294611489989488966123446007956123316123559f9e6114839c612154565b9088528686526114898a8a8a2054612154565b11612370575b508352522054612154565b11612361575b50612231565b61236a906127cf565b3861235b565b61237990612644565b3861234a565b90918093508752600c808752888820549060001982019182116123cd578d6123b5600194936123c393888d528b528c8c20611a26565b90549060031b1c9087612459565b01908a9291612306565b634e487b7160e01b89526011600452602489fd5b50816121c6565b6001600160a01b0390811691600080516020612969833981519152916020918461243a5761241886600554611feb565b6005555b169384600052600782526040600020818154019055604051908152a3565b84600052600783526040600020612452878254611d89565b905561241c565b6001600160a01b039081169182612552575b1690811561253d576000838152600b60205260408120836001600160601b0360a01b825416019055828152600c60205260408120805490600160401b821015612529576124c282879260016124db95018155611a26565b90919082549060031b91821b91600019901b1916179055565b828152600c60205260408120546000198101919082116125155750612500908461290d565b600080516020612969833981519152600080a4565b634e487b7160e01b81526011600452602490fd5b634e487b7160e01b83526041600452602483fd5b82600052600b60205260006040812055612500565b60008481526009602052604081206001600160601b0360a01b8154169055838152600c60205260408120805460001991828201918211612630579061259691611a26565b90549060031b1c8681036125f7575b50848252600c602052604082209182549081156125e3575001906125dd6125cc8383611a26565b8154906000199060031b1b19169055565b5561246b565b634e487b7160e01b81526031600452602490fd5b61262a90878452600b602052604084205460a01c90878552600c602052612625816124c28460408920611a26565b61290d565b386125a5565b634e487b7160e01b84526011600452602484fd5b6001600160a01b03168015611e33576000818152602090600c825260409081812093845460001995868201918211612630579061268091611a26565b90549060031b1c93848352600981528383206001600160601b0360a01b8154169055818352600c81528383208054908782019182116127bb57906126c391611a26565b90549060031b1c85810361278b575b50818352600c8152838320805480156127775791600b91888896959401906126fd6125cc8383611a26565b558484525281848120556000805160206129698339815191528280a4600154926001600160801b039081851601169260801c83146127675750612753826001600160801b03166000526002602052604060002090565b556001600160801b03196001541617600155565b51638acb5f2760e01b8152600490fd5b634e487b7160e01b85526031600452602485fd5b6127b590868552600b83528585205460a01c90848652600c8452612625816124c2848a8a20611a26565b386126d2565b634e487b7160e01b85526011600452602485fd5b6001600160a01b0381811615611e21576001546001600160801b0390600090608081901c908316146128af5750600154818160801c9116811461289d5760001901818116916000612851612836856001600160801b03166000526002602052604060002090565b54946001600160801b03166000526002602052604060002090565b55600154916001600160801b03199060801b16911617600155905b81600052600b60205260406000205416918261288b57611eda92612459565b60405163119b4fd360e11b8152600490fd5b6040516375e52f4f60e01b8152600490fd5b90506006546000198082146128f9576001820180600655146128e7576001600160ff1b010190600160ff1b821061251557509061286c565b60405163303b682f60e01b8152600490fd5b634e487b7160e01b83526011600452602483fd5b9081600052600b602052604060002054916001600160601b03821161295657600052600b6020526001600160601b0360a01b9060a01b169060018060a01b031601604060002055565b604051633f2cd0e360e21b8152600490fdfeddf252ad1be2c89b69c2b068fc378daa952ba7f163c4a11628f55a4df523b3efa2646970667358221220e49500b15ad0f1c02ee4c746b053cb20f7ab134ba9cdd2e06d5e74a3fa1c768564736f6c63430008170033c2575a0e9e593c00f959f8c92f12db2869c3395a3b0502d05e2516446f71f85bddf252ad1be2c89b69c2b068fc378daa952ba7f163c4a11628f55a4df523b3ef8d1108e10bcb7c27dddfc02ed9d693a074039d026cf4ea4240b40f7d581ac802",
  "linkReferences": {},
  "deployedLinkReferences": {}
}