{
  "_format": "hh-sol-artifact-1",
  "contractName": "IPResolver",
  "sourceName": "@story-protocol/protocol-core/contracts/resolvers/IPResolver.sol",
  "abi": [
    {
      "inputs": [
        {
          "internalType": "address",
          "name": "accessController",
          "type": "address"
        },
        {
          "internalType": "address",
          "name": "ipAssetRegistry",
          "type": "address"
        }
      ],
      "stateMutability": "nonpayable",
      "type": "constructor"
    },
    {
      "inputs": [
        {
          "internalType": "address",
          "name": "ipAccount",
          "type": "address"
        }
      ],
      "name": "AccessControlled__NotIpAccount",
      "type": "error"
    },
    {
      "inputs": [],
      "name": "AccessControlled__ZeroAddress",
      "type": "error"
    },
    {
      "anonymous": false,
      "inputs": [
        {
          "indexed": true,
          "internalType": "address",
          "name": "ipId",
          "type": "address"
        },
        {
          "indexed": true,
          "internalType": "string",
          "name": "key",
          "type": "string"
        },
        {
          "indexed": false,
          "internalType": "string",
          "name": "value",
          "type": "string"
        }
      ],
      "name": "KeyValueSet",
      "type": "event"
    },
    {
      "inputs": [],
      "name": "ACCESS_CONTROLLER",
      "outputs": [
        {
          "internalType": "contract IAccessController",
          "name": "",
          "type": "address"
        }
      ],
      "stateMutability": "view",
      "type": "function"
    },
    {
      "inputs": [],
      "name": "IP_ACCOUNT_REGISTRY",
      "outputs": [
        {
          "internalType": "contract IIPAccountRegistry",
          "name": "",
          "type": "address"
        }
      ],
      "stateMutability": "view",
      "type": "function"
    },
    {
      "inputs": [],
      "name": "name",
      "outputs": [
        {
          "internalType": "string",
          "name": "",
          "type": "string"
        }
      ],
      "stateMutability": "view",
      "type": "function"
    },
    {
      "inputs": [
        {
          "internalType": "address",
          "name": "ipId",
          "type": "address"
        },
        {
          "internalType": "string",
          "name": "key",
          "type": "string"
        },
        {
          "internalType": "string",
          "name": "val",
          "type": "string"
        }
      ],
      "name": "setValue",
      "outputs": [],
      "stateMutability": "nonpayable",
      "type": "function"
    },
    {
      "inputs": [
        {
          "internalType": "bytes4",
          "name": "id",
          "type": "bytes4"
        }
      ],
      "name": "supportsInterface",
      "outputs": [
        {
          "internalType": "bool",
          "name": "",
          "type": "bool"
        }
      ],
      "stateMutability": "view",
      "type": "function"
    },
    {
      "inputs": [
        {
          "internalType": "address",
          "name": "ipId",
          "type": "address"
        },
        {
          "internalType": "string",
          "name": "key",
          "type": "string"
        }
      ],
      "name": "value",
      "outputs": [
        {
          "internalType": "string",
          "name": "",
          "type": "string"
        }
      ],
      "stateMutability": "view",
      "type": "function"
    }
  ],
  "bytecode": "0x60c0346100b357601f61089f38819003918201601f19168301916001600160401b038311848410176100b85780849260409485528339810103126100b357610052602061004b836100ce565b92016100ce565b6001600160a01b03918216919082156100a157169081156100a15760805260a0526040516107bc90816100e382396080518181816102f30152610456015260a05181818160d3015261040e0152f35b6040516320a816ad60e01b8152600490fd5b600080fd5b634e487b7160e01b600052604160045260246000fd5b51906001600160a01b03821682036100b35756fe608060408181526004918236101561001657600080fd5b6000918235918260e01c90816301ffc9a7146106055750806306fdde031461059457806314ee889e146104855780631b8b107314610441578063702acd85146103f95763dd75fb631461006857600080fd5b346103f55760603660031901126103f557610081610703565b9360249167ffffffffffffffff83358181116103f1576100a4903690850161071e565b916044358181116103ed576100bd87913690880161071e565b8651635a1c2dd760e01b81526001600160a01b037f000000000000000000000000000000000000000000000000000000000000000081168a8301529c8d169981018a905260209c929a919892908d8160448173__$abfffd80b4f190c1294ee8c446d73258f9$__5af49081156103e3578d916103a9575b5015610393578933036102f1575b5050878a52898b52858a208b8751809288888337888201908152030190209287116102e0575050610173815461074c565b601f811161029d575b5087601f8611600114610213579285928392838b9c967fce95ee68edc437f1ab7d39e82f77edcaf8434d037c4c44bcf686e1b377bb7e959a9b9c91610208575b508460011b906000198660031b1c19161790555b818651928392833781018b8152039020978451958487958652850152848401378181018301889052601f01601f19168101030190a380f35b90508b0135386101bc565b81895289892090601f1987168a5b8181106102865750927fce95ee68edc437f1ab7d39e82f77edcaf8434d037c4c44bcf686e1b377bb7e9598999a9b95928895928680961061026c575b5050600184811b0190556101d0565b8c0135600019600387901b60f8161c19169055388061025d565b91928c60018192868e013581550194019201610221565b818952898920601f870160051c8101918b88106102d6575b601f0160051c01905b8181106102cb575061017c565b8981556001016102be565b90915081906102b5565b634e487b7160e01b8a526041905288fd5b7f00000000000000000000000000000000000000000000000000000000000000001690813b1561038f578b9060848b8a519485938492637dfd0ddb60e01b845288840152338984015230604484015263ffffffff60e01b1660648301525afa801561038557610361575b80610142565b83819b929b11610374578652983861035b565b50634e487b7160e01b815260418a52fd5b87513d8d823e3d90fd5b8b80fd5b50508551630d64edf960e41b8152908101889052fd5b90508d81813d83116103dc575b6103c08183610682565b810103126103d8575180151581036103d85738610134565b8c80fd5b503d6103b6565b89513d8f823e3d90fd5b8880fd5b8680fd5b8280fd5b83823461043d578160031936011261043d57517f00000000000000000000000000000000000000000000000000000000000000006001600160a01b03168152602090f35b5080fd5b83823461043d578160031936011261043d57517f00000000000000000000000000000000000000000000000000000000000000006001600160a01b03168152602090f35b838583346103f557806003193601126103f5576104a0610703565b916024359067ffffffffffffffff8211610590576104c09136910161071e565b909260018060a01b0316845260208093858252838620838551948593843782019081520301902091815192848154906104f88261074c565b8087529260019280841690811561056c5750600114610531575b61052d8787610523828c0383610682565b51918291826106ba565b0390f35b9080949750528583205b828410610559575050508261052d9461052392820101948680610512565b805486850188015292860192810161053b565b60ff19168887015250505050151560051b83010192506105238261052d8680610512565b8480fd5b5090503461043d578160031936011261043d578051918183019083821067ffffffffffffffff8311176105f2575061052d93508152601282527149505f5245534f4c5645525f4d4f44554c4560701b602083015251918291826106ba565b634e487b7160e01b815260418552602490fd5b849086346103f55760203660031901126103f5573563ffffffff60e01b81168091036103f5576020925063c99b73fd60e01b8114908115610648575b5015158152f35b6301ffc9a760e01b811491508115610662575b5083610641565b6306fdde0360e01b1490811561067a575b508361065b565b905083610673565b90601f8019910116810190811067ffffffffffffffff8211176106a457604052565b634e487b7160e01b600052604160045260246000fd5b6020808252825181830181905290939260005b8281106106ef57505060409293506000838284010152601f8019910116010190565b8181018601518482016040015285016106cd565b600435906001600160a01b038216820361071957565b600080fd5b9181601f840112156107195782359167ffffffffffffffff8311610719576020838186019501011161071957565b90600182811c9216801561077c575b602083101461076657565b634e487b7160e01b600052602260045260246000fd5b91607f169161075b56fea264697066735822122037a7d82501a8c4376148b54f4d843d9a3b9f0872ea58eb5656893f53df99842264736f6c63430008170033",
  "linkReferences": {
    "@story-protocol/protocol-core/contracts/lib/registries/IPAccountChecker.sol": {
      "IPAccountChecker": [
        {
          "length": 20,
          "start": 500
        }
      ]
    }
  },
  "deployedLinkReferences": {
    "@story-protocol/protocol-core/contracts/lib/registries/IPAccountChecker.sol": {
      "IPAccountChecker": [
        {
          "length": 20,
          "start": 273
        }
      ]
    }
  }
}