{
  "_format": "hh-sol-artifact-1",
  "contractName": "IPAssetRegistry",
  "sourceName": "@story-protocol/protocol-core/contracts/registries/IPAssetRegistry.sol",
  "abi": [
    {
      "inputs": [
        {
          "internalType": "address",
          "name": "erc6551Registry",
          "type": "address"
        },
        {
          "internalType": "address",
          "name": "ipAccountImpl",
          "type": "address"
        },
        {
          "internalType": "address",
          "name": "moduleRegistry",
          "type": "address"
        },
        {
          "internalType": "address",
          "name": "governance",
          "type": "address"
        }
      ],
      "stateMutability": "nonpayable",
      "type": "constructor"
    },
    {
      "inputs": [],
      "name": "Governance__InconsistentState",
      "type": "error"
    },
    {
      "inputs": [],
      "name": "Governance__OnlyProtocolAdmin",
      "type": "error"
    },
    {
      "inputs": [
        {
          "internalType": "string",
          "name": "interfaceName",
          "type": "string"
        }
      ],
      "name": "Governance__UnsupportedInterface",
      "type": "error"
    },
    {
      "inputs": [],
      "name": "Governance__ZeroAddress",
      "type": "error"
    },
    {
      "inputs": [],
      "name": "IPAccountRegistry_InvalidIpAccountImpl",
      "type": "error"
    },
    {
      "inputs": [],
      "name": "IPAssetRegistry__AlreadyRegistered",
      "type": "error"
    },
    {
      "inputs": [],
      "name": "IPAssetRegistry__InvalidAccount",
      "type": "error"
    },
    {
      "inputs": [],
      "name": "IPAssetRegistry__NotYetRegistered",
      "type": "error"
    },
    {
      "inputs": [],
      "name": "IPAssetRegistry__RegistrantUnauthorized",
      "type": "error"
    },
    {
      "inputs": [],
      "name": "IPAssetRegistry__Unauthorized",
      "type": "error"
    },
    {
      "anonymous": false,
      "inputs": [
        {
          "indexed": true,
          "internalType": "address",
          "name": "owner",
          "type": "address"
        },
        {
          "indexed": true,
          "internalType": "address",
          "name": "operator",
          "type": "address"
        },
        {
          "indexed": false,
          "internalType": "bool",
          "name": "approved",
          "type": "bool"
        }
      ],
      "name": "ApprovalForAll",
      "type": "event"
    },
    {
      "anonymous": false,
      "inputs": [
        {
          "indexed": true,
          "internalType": "address",
          "name": "newGovernance",
          "type": "address"
        }
      ],
      "name": "GovernanceUpdated",
      "type": "event"
    },
    {
      "anonymous": false,
      "inputs": [
        {
          "indexed": true,
          "internalType": "address",
          "name": "account",
          "type": "address"
        },
        {
          "indexed": true,
          "internalType": "address",
          "name": "implementation",
          "type": "address"
        },
        {
          "indexed": true,
          "internalType": "uint256",
          "name": "chainId",
          "type": "uint256"
        },
        {
          "indexed": false,
          "internalType": "address",
          "name": "tokenContract",
          "type": "address"
        },
        {
          "indexed": false,
          "internalType": "uint256",
          "name": "tokenId",
          "type": "uint256"
        }
      ],
      "name": "IPAccountRegistered",
      "type": "event"
    },
    {
      "anonymous": false,
      "inputs": [
        {
          "indexed": false,
          "internalType": "address",
          "name": "ipId",
          "type": "address"
        },
        {
          "indexed": true,
          "internalType": "uint256",
          "name": "chainId",
          "type": "uint256"
        },
        {
          "indexed": true,
          "internalType": "address",
          "name": "tokenContract",
          "type": "address"
        },
        {
          "indexed": true,
          "internalType": "uint256",
          "name": "tokenId",
          "type": "uint256"
        },
        {
          "indexed": false,
          "internalType": "address",
          "name": "resolver",
          "type": "address"
        },
        {
          "indexed": false,
          "internalType": "address",
          "name": "provider",
          "type": "address"
        },
        {
          "indexed": false,
          "internalType": "bytes",
          "name": "metadata",
          "type": "bytes"
        }
      ],
      "name": "IPRegistered",
      "type": "event"
    },
    {
      "anonymous": false,
      "inputs": [
        {
          "indexed": false,
          "internalType": "address",
          "name": "ipId",
          "type": "address"
        },
        {
          "indexed": false,
          "internalType": "address",
          "name": "resolver",
          "type": "address"
        }
      ],
      "name": "IPResolverSet",
      "type": "event"
    },
    {
      "anonymous": false,
      "inputs": [
        {
          "indexed": true,
          "internalType": "address",
          "name": "ipId",
          "type": "address"
        },
        {
          "indexed": true,
          "internalType": "address",
          "name": "metadataProvider",
          "type": "address"
        },
        {
          "indexed": false,
          "internalType": "bytes",
          "name": "metadata",
          "type": "bytes"
        }
      ],
      "name": "MetadataSet",
      "type": "event"
    },
    {
      "inputs": [],
      "name": "ERC6551_PUBLIC_REGISTRY",
      "outputs": [
        {
          "internalType": "address",
          "name": "",
          "type": "address"
        }
      ],
      "stateMutability": "view",
      "type": "function"
    },
    {
      "inputs": [],
      "name": "IP_ACCOUNT_IMPL",
      "outputs": [
        {
          "internalType": "address",
          "name": "",
          "type": "address"
        }
      ],
      "stateMutability": "view",
      "type": "function"
    },
    {
      "inputs": [],
      "name": "IP_ACCOUNT_SALT",
      "outputs": [
        {
          "internalType": "bytes32",
          "name": "",
          "type": "bytes32"
        }
      ],
      "stateMutability": "view",
      "type": "function"
    },
    {
      "inputs": [],
      "name": "MODULE_REGISTRY",
      "outputs": [
        {
          "internalType": "contract IModuleRegistry",
          "name": "",
          "type": "address"
        }
      ],
      "stateMutability": "view",
      "type": "function"
    },
    {
      "inputs": [],
      "name": "REGISTRATION_MODULE",
      "outputs": [
        {
          "internalType": "contract IRegistrationModule",
          "name": "",
          "type": "address"
        }
      ],
      "stateMutability": "view",
      "type": "function"
    },
    {
      "inputs": [],
      "name": "getGovernance",
      "outputs": [
        {
          "internalType": "address",
          "name": "",
          "type": "address"
        }
      ],
      "stateMutability": "view",
      "type": "function"
    },
    {
      "inputs": [],
      "name": "getIPAccountImpl",
      "outputs": [
        {
          "internalType": "address",
          "name": "",
          "type": "address"
        }
      ],
      "stateMutability": "view",
      "type": "function"
    },
    {
      "inputs": [],
      "name": "governance",
      "outputs": [
        {
          "internalType": "address",
          "name": "",
          "type": "address"
        }
      ],
      "stateMutability": "view",
      "type": "function"
    },
    {
      "inputs": [
        {
          "internalType": "uint256",
          "name": "chainId",
          "type": "uint256"
        },
        {
          "internalType": "address",
          "name": "tokenContract",
          "type": "address"
        },
        {
          "internalType": "uint256",
          "name": "tokenId",
          "type": "uint256"
        }
      ],
      "name": "ipAccount",
      "outputs": [
        {
          "internalType": "address",
          "name": "",
          "type": "address"
        }
      ],
      "stateMutability": "view",
      "type": "function"
    },
    {
      "inputs": [
        {
          "internalType": "uint256",
          "name": "chainId",
          "type": "uint256"
        },
        {
          "internalType": "address",
          "name": "tokenContract",
          "type": "address"
        },
        {
          "internalType": "uint256",
          "name": "tokenId",
          "type": "uint256"
        }
      ],
      "name": "ipId",
      "outputs": [
        {
          "internalType": "address",
          "name": "",
          "type": "address"
        }
      ],
      "stateMutability": "view",
      "type": "function"
    },
    {
      "inputs": [
        {
          "internalType": "address",
          "name": "owner",
          "type": "address"
        },
        {
          "internalType": "address",
          "name": "operator",
          "type": "address"
        }
      ],
      "name": "isApprovedForAll",
      "outputs": [
        {
          "internalType": "bool",
          "name": "",
          "type": "bool"
        }
      ],
      "stateMutability": "view",
      "type": "function"
    },
    {
      "inputs": [
        {
          "internalType": "address",
          "name": "id",
          "type": "address"
        }
      ],
      "name": "isRegistered",
      "outputs": [
        {
          "internalType": "bool",
          "name": "",
          "type": "bool"
        }
      ],
      "stateMutability": "view",
      "type": "function"
    },
    {
      "inputs": [
        {
          "internalType": "address",
          "name": "id",
          "type": "address"
        }
      ],
      "name": "metadata",
      "outputs": [
        {
          "internalType": "bytes",
          "name": "",
          "type": "bytes"
        }
      ],
      "stateMutability": "view",
      "type": "function"
    },
    {
      "inputs": [
        {
          "internalType": "address",
          "name": "id",
          "type": "address"
        }
      ],
      "name": "metadataProvider",
      "outputs": [
        {
          "internalType": "address",
          "name": "",
          "type": "address"
        }
      ],
      "stateMutability": "view",
      "type": "function"
    },
    {
      "inputs": [],
      "name": "metadataProvider",
      "outputs": [
        {
          "internalType": "address",
          "name": "",
          "type": "address"
        }
      ],
      "stateMutability": "view",
      "type": "function"
    },
    {
      "inputs": [
        {
          "internalType": "uint256",
          "name": "chainId",
          "type": "uint256"
        },
        {
          "internalType": "address",
          "name": "tokenContract",
          "type": "address"
        },
        {
          "internalType": "uint256",
          "name": "tokenId",
          "type": "uint256"
        },
        {
          "internalType": "address",
          "name": "resolverAddr",
          "type": "address"
        },
        {
          "internalType": "bool",
          "name": "createAccount",
          "type": "bool"
        },
        {
          "internalType": "bytes",
          "name": "metadata_",
          "type": "bytes"
        }
      ],
      "name": "register",
      "outputs": [
        {
          "internalType": "address",
          "name": "ipId_",
          "type": "address"
        }
      ],
      "stateMutability": "nonpayable",
      "type": "function"
    },
    {
      "inputs": [
        {
          "internalType": "uint256[]",
          "name": "licenseIds",
          "type": "uint256[]"
        },
        {
          "internalType": "bytes",
          "name": "royaltyContext",
          "type": "bytes"
        },
        {
          "internalType": "uint256",
          "name": "chainId",
          "type": "uint256"
        },
        {
          "internalType": "address",
          "name": "tokenContract",
          "type": "address"
        },
        {
          "internalType": "uint256",
          "name": "tokenId",
          "type": "uint256"
        },
        {
          "internalType": "address",
          "name": "resolverAddr",
          "type": "address"
        },
        {
          "internalType": "bool",
          "name": "createAccount",
          "type": "bool"
        },
        {
          "internalType": "bytes",
          "name": "metadata_",
          "type": "bytes"
        }
      ],
      "name": "register",
      "outputs": [
        {
          "internalType": "address",
          "name": "ipId_",
          "type": "address"
        }
      ],
      "stateMutability": "nonpayable",
      "type": "function"
    },
    {
      "inputs": [
        {
          "internalType": "uint256",
          "name": "chainId",
          "type": "uint256"
        },
        {
          "internalType": "address",
          "name": "tokenContract",
          "type": "address"
        },
        {
          "internalType": "uint256",
          "name": "tokenId",
          "type": "uint256"
        }
      ],
      "name": "registerIpAccount",
      "outputs": [
        {
          "internalType": "address",
          "name": "ipAccountAddress",
          "type": "address"
        }
      ],
      "stateMutability": "nonpayable",
      "type": "function"
    },
    {
      "inputs": [
        {
          "internalType": "address",
          "name": "id",
          "type": "address"
        }
      ],
      "name": "resolver",
      "outputs": [
        {
          "internalType": "address",
          "name": "",
          "type": "address"
        }
      ],
      "stateMutability": "view",
      "type": "function"
    },
    {
      "inputs": [
        {
          "internalType": "address",
          "name": "operator",
          "type": "address"
        },
        {
          "internalType": "bool",
          "name": "approved",
          "type": "bool"
        }
      ],
      "name": "setApprovalForAll",
      "outputs": [],
      "stateMutability": "nonpayable",
      "type": "function"
    },
    {
      "inputs": [
        {
          "internalType": "address",
          "name": "newGovernance",
          "type": "address"
        }
      ],
      "name": "setGovernance",
      "outputs": [],
      "stateMutability": "nonpayable",
      "type": "function"
    },
    {
      "inputs": [
        {
          "internalType": "address",
          "name": "id",
          "type": "address"
        },
        {
          "internalType": "address",
          "name": "provider",
          "type": "address"
        },
        {
          "internalType": "bytes",
          "name": "data",
          "type": "bytes"
        }
      ],
      "name": "setMetadata",
      "outputs": [],
      "stateMutability": "nonpayable",
      "type": "function"
    },
    {
      "inputs": [
        {
          "internalType": "address",
          "name": "newMetadataProvider",
          "type": "address"
        }
      ],
      "name": "setMetadataProvider",
      "outputs": [],
      "stateMutability": "nonpayable",
      "type": "function"
    },
    {
      "inputs": [
        {
          "internalType": "address",
          "name": "registrationModule",
          "type": "address"
        }
      ],
      "name": "setRegistrationModule",
      "outputs": [],
      "stateMutability": "nonpayable",
      "type": "function"
    },
    {
      "inputs": [
        {
          "internalType": "address",
          "name": "id",
          "type": "address"
        },
        {
          "internalType": "address",
          "name": "resolverAddr",
          "type": "address"
        }
      ],
      "name": "setResolver",
      "outputs": [],
      "stateMutability": "nonpayable",
      "type": "function"
    },
    {
      "inputs": [],
      "name": "totalSupply",
      "outputs": [
        {
          "internalType": "uint256",
          "name": "",
          "type": "uint256"
        }
      ],
      "stateMutability": "view",
      "type": "function"
    }
  ],
  "bytecode": "0x61010034620001c657601f620028d438819003918201601f1916830192916001600160401b039182851184861017620001cb578160809285926040978852833981010312620001c6576200005382620001e1565b6200006160208401620001e1565b916200007d606062000075878701620001e1565b9501620001e1565b6001600160a01b039380851615620001b5579084916080526000938460a05260c05216908115620001a4578360018060a01b03199583878654161785558751937f9d3e522e1e47a2f6009739342b9cc7b252a1888154e843ab55ee1c81745795ab8680a2846002551660e052610d5180830191838310908311176200019057602091839162001b83833930815203019082f0908115620001855750169060055416176005555161198c9081620001f78239608051818181610670015281816110a401526117af015260a0518181816103dc015281816110cd01526117d7015260c05181818161037701528181611118015261181e015260e051818181610aba015261149d0152f35b8451903d90823e3d90fd5b634e487b7160e01b84526041600452602484fd5b855163239261b360e11b8152600490fd5b8651638f54663f60e01b8152600490fd5b600080fd5b634e487b7160e01b600052604160045260246000fd5b51906001600160a01b0382168203620001c65756fe6080604052600436101561001257600080fd5b60003560e01c8063015c1580146101a857806306d61f3d146101a35780630c3c72641461019e57806318160ddd146101995780631a8bb07b14610194578063289b3c0d146101805780632ba215721461018f5780634dfaef391461018a5780635796ffbc14610171578063597e99cb146101855780635aa6e6751461018057806364b094021461017b578063689c275a1461017657806387020f951461014e57806395a3dfb2146101715780639787b6181461016c578063a22cb46514610167578063ab033ea914610162578063b95ddb521461015d578063c3c5a54714610158578063c9e496b114610153578063d26bb83f1461014e578063d3d72d2a14610149578063db4fdb3114610144578063e985e9c51461013f5763f7b1a4031461013a57600080fd5b610c12565b610b98565b610b7f565b610b56565b61090c565b610b2d565b610ae9565b610aa4565b610a0e565b610979565b610937565b61065a565b610874565b6107de565b6103ff565b6106c4565b610588565b610484565b6103c4565b6103a6565b610361565b610262565b6101df565b6001600160a01b038116036101be57565b600080fd5b606435906101d0826101ad565b565b60a435906101d0826101ad565b346101be5760203660031901126101be5760206004356101fe816101ad565b60018060a01b038091166000526004825260406000205416604051908152f35b801515036101be57565b60c435906101d08261021e565b9181601f840112156101be578235916001600160401b0383116101be57602083818601950101116101be57565b346101be5760c03660031901126101be57600435602435610282816101ad565b604435606435610291816101ad565b6084359361029e8561021e565b60a4356001600160401b0381116101be5761035295610318956103356102e97fa3028b46ff4aeba585ebfa1c241ad4a453b6f10dc7bc3d3ebaa9cecc680a6f71943690600401610235565b81819a9295898b878b6040516102fe81610cf2565b600081526040519061030f82610cf2565b60008252611388565b9760018060a01b0393846005541660405195869516988b86610d9c565b0390a46040516001600160a01b0390911681529081906020820190565b0390f35b60009103126101be57565b346101be5760003660031901126101be576040517f00000000000000000000000000000000000000000000000000000000000000006001600160a01b03168152602090f35b346101be5760003660031901126101be576020600254604051908152f35b346101be5760003660031901126101be5760206040517f00000000000000000000000000000000000000000000000000000000000000008152f35b346101be5760003660031901126101be576000546040516001600160a01b039091168152602090f35b60005b83811061043b5750506000910152565b818101518382015260200161042b565b9060209161046481518092818552858086019101610428565b601f01601f1916010190565b90602061048192818152019061044b565b90565b346101be5760203660031901126101be576004356104a1816101ad565b6001600160a01b038181166000908152600460205260409020546104ce9082165b6001600160a01b031690565b1615610576576001600160a01b0381811660009081526004602052604081205461052b9391926104fe91166104c2565b60405163152860a360e11b81526001600160a01b0390921660048301529092839190829081906024820190565b03915afa8015610571576103529160009161054e575b5060405191829182610470565b61056b91503d806000833e6105638183610d28565b810190610dce565b38610541565b610e2c565b604051630dbdf99d60e11b8152600490fd5b346101be5760203660031901126101be576004356105a5816101ad565b6000546105ba906001600160a01b03166104c2565b604051632474521560e21b81526000600482015233602482015290602090829060449082905afa9081156105715760009161062b575b501561061957600180546001600160a01b0319166001600160a01b03909216919091179055005b005b604051632cd47a1560e11b8152600490fd5b61064d915060203d602011610653575b6106458183610d28565b810190610e38565b386105f0565b503d61063b565b346101be5760003660031901126101be576040517f00000000000000000000000000000000000000000000000000000000000000006001600160a01b03168152602090f35b60409060031901126101be576004356106b7816101ad565b90602435610481816101ad565b346101be576106d23661069f565b6001600160a01b0382811660009081526004602052604090208190610703906001905b01546001600160a01b031690565b161561057657604051638da5cb5b60e01b8152906020826004818785165afa918215610571576000926107ad575b508116331415908161075e575b5061074c5761061791611616565b60405163551204c560e11b8152600490fd5b6001600160a01b031660009081526003602052604090206107a791506107a39061079c9033905b9060018060a01b0316600052602052604060002090565b5460ff1690565b1590565b3861073e565b6107d091925060203d6020116107d7575b6107c88183610d28565b810190610e4d565b9038610731565b503d6107be565b346101be5760203660031901126101be576004356107fb816101ad565b600054610810906001600160a01b03166104c2565b604051632474521560e21b81526000600482015233602482015290602090829060449082905afa90811561057157600091610855575b50156106195761061790610e62565b61086e915060203d602011610653576106458183610d28565b38610846565b346101be5760603660031901126101be57600435610891816101ad565b6024359061089e826101ad565b6044356001600160401b0381116101be576108bd903690600401610235565b9160018060a01b0380821660005260046020528060406000205416330361074c576106179416906116cf565b60609060031901126101be5760043590602435610905816101ad565b9060443590565b346101be57602061092561091f366108e9565b91611798565b6040516001600160a01b039091168152f35b346101be5760203660031901126101be576020600435610956816101ad565b60018060a01b038091166000526004825260016040600020015416604051908152f35b346101be5760403660031901126101be57600435610996816101ad565b602435906109a38261021e565b3360009081526003602090815260408083206001600160a01b038516845290915290209115159160ff1981541660ff841617905560405191825260018060a01b0316907f17307eab39ab6107e8899845ad3d59bd9653f200f220920489ca2b5937696c3160203392a3005b346101be5760203660031901126101be57600435610a2b816101ad565b600054610a40906001600160a01b03166104c2565b604051632474521560e21b81526000600482015233602482015290602090829060449082905afa90811561057157600091610a85575b50156106195761061790610f08565b610a9e915060203d602011610653576106458183610d28565b38610a76565b346101be5760003660031901126101be576040517f00000000000000000000000000000000000000000000000000000000000000006001600160a01b03168152602090f35b346101be5760203660031901126101be576020600435610b08816101ad565b60018060a01b0380911660005260048252600160406000200154161515604051908152f35b346101be5760003660031901126101be576001546040516001600160a01b039091168152602090f35b346101be5760003660031901126101be576005546040516001600160a01b039091168152602090f35b346101be576020610925610b92366108e9565b9161108d565b346101be57602060ff610bd6610bad3661069f565b6001600160a01b0391821660009081526003865260408082209290931681526020919091522090565b54166040519015158152f35b9181601f840112156101be578235916001600160401b0383116101be576020808501948460051b0101116101be57565b346101be576101003660031901126101be576001600160401b036004358181116101be57610c44903690600401610be2565b6024929192358281116101be57610c5f903690600401610235565b91610c686101c3565b90610c716101d2565b90610c7a610228565b9260e4359687116101be5761035297610c9a610caa983690600401610235565b97909660843594604435936111d0565b6040516001600160a01b0390911681529081906020820190565b634e487b7160e01b600052604160045260246000fd5b6001600160401b038111610ced57604052565b610cc4565b602081019081106001600160401b03821117610ced57604052565b606081019081106001600160401b03821117610ced57604052565b90601f801991011681019081106001600160401b03821117610ced57604052565b6001600160401b038111610ced5760051b60200190565b6001600160401b038111610ced57601f01601f191660200190565b908060209392818452848401376000828201840152601f01601f1916010190565b6001600160a01b0391821681529181166020830152909116604082015260806060820181905261048193910191610d7b565b6020818303126101be578051906001600160401b0382116101be570181601f820112156101be578051610e0081610d60565b92610e0e6040519485610d28565b818452602082840101116101be576104819160208085019101610428565b6040513d6000823e3d90fd5b908160209103126101be57516104818161021e565b908160209103126101be5751610481816101ad565b6005546001600160a01b0390811691823b156101be57600091602483926040519485938492639c1bbc0360e01b845216968760048401525af1801561057157610ec1575b506bffffffffffffffffffffffff60a01b6005541617600555565b610eca90610cda565b38610ea6565b908160209103126101be575160028110156101be5790565b60021115610ef257565b634e487b7160e01b600052602160045260246000fd5b6001600160a01b03811690811561107b57610f256107a382611873565b61104857604051631865c57d60e01b808252602091908282600481885afa91821561057157600092611029575b506000548390610f6c906104c2906001600160a01b031681565b9160046040518094819382525afa92831561057157600093610ffa575b5050610f9482610ee8565b610f9d81610ee8565b03610fe857600080546001600160a01b0319166001600160a01b039092169190911790557f9d3e522e1e47a2f6009739342b9cc7b252a1888154e843ab55ee1c81745795ab600080a2565b60405163649cdd9960e01b8152600490fd5b61101a929350803d10611022575b6110128183610d28565b810190610ed0565b903880610f89565b503d611008565b611041919250833d8511611022576110128183610d28565b9038610f52565b60405162a73c8d60e01b815260206004820152600b60248201526a49476f7665726e616e636560a81b6044820152606490fd5b60405163239261b360e11b8152600490fd5b604051638a54c52f60e01b81526001600160a01b037f000000000000000000000000000000000000000000000000000000000000000081811660048401527f00000000000000000000000000000000000000000000000000000000000000006024840152604483018490528482166064840152608483018690529495949293919260208460a48160007f000000000000000000000000000000000000000000000000000000000000000087165af193841561057157600094611186575b50817f5be70b68c8361762980ec7d425d79fd33f6d49cac8a498e6ddf514f995b987f792604092869982855197168752602087015216941692a4565b604091945091806111c67f5be70b68c8361762980ec7d425d79fd33f6d49cac8a498e6ddf514f995b987f79460203d6020116107d7576107c88183610d28565b959250925061114a565b9192909a999a989493969795986111e681610d49565b926111f46040519485610d28565b818452602091602085019060051b8201913683116101be57905b8282106112b7575050505061122281610d60565b926112306040519485610d28565b81845236828201116101be577fa3028b46ff4aeba585ebfa1c241ad4a453b6f10dc7bc3d3ebaa9cecc680a6f7196898b878f95886112839860008f93808f9a916020926112b29f84013784010152611388565b60055490999061129b906001600160a01b03166104c2565b9360405194859460018060a01b0316988c86610d9c565b0390a4565b8135815290830190830161120e565b60001981146112d55760010190565b634e487b7160e01b600052601160045260246000fd5b60405190604082018281106001600160401b03821117610ced57604052601082526f4c4943454e53494e475f4d4f44554c4560801b6020830152565b939290936060810192606082528551809452608082019360208097019060005b818110611374575050506001600160a01b031660208201528083036040909101529192506104819161044b565b825187529588019591880191600101611347565b95916106f59593949998929791976113a18b8784611798565b6001600160a01b038082166000908152600460205260409020919c9098909189916113cb91600191565b16611604576040516331a9108f60e11b8152600481018290526020979088816024818d86165afa908115610571576000916115e7575b5089811633141590816115c4575b81611593575b50611581578c3b159283611579575b508261155e575b5050905061154c57611440611452938a611616565b6005546001600160a01b0316896116cf565b6114656114606002546112c6565b600255565b8251611472575b50505050565b6114988161147e6112eb565b6040518093819263011ea47b60e31b835260048301610470565b0381867f0000000000000000000000000000000000000000000000000000000000000000165afa9182156105715760009261152f575b50501691823b156101be576114ff92856000809460405196879586948593639f69e70d60e01b855260048501611327565b03925af1801561057157611516575b80808061146c565b8061152361152992610cda565b80610356565b3861150e565b6115459250803d106107d7576107c88183610d28565b38806114ce565b60405163596edc1b60e01b8152600490fd5b6104c2925061156c9361108d565b858a16141580388061142b565b925038611424565b60405163247254ed60e21b8152600490fd5b6001600160a01b031660009081526003602052604090206115be91506107a39061079c903390610785565b38611415565b6001549091506115de906104c2906001600160a01b031681565b3314159061140f565b6115fe9150893d8b116107d7576107c88183610d28565b38611401565b604051631064acb160e31b8152600490fd5b7f45d82cad942fa2e4cfe12a8e0c0b8ecb938b1c95496042dc75f0ecf94cc794f291604091611644826118fd565b806116bf575b61168b575b6001600160a01b039081166000818152600460205284902060010180546001600160a01b031916848416179055918351928352166020820152a1565b602060008451828101906301ffc9a760e01b8083526024820152602481526116b281610d0d565b519085617530fa5061164f565b506116c982611926565b1561164a565b6001600160a01b03908116600081815260046020526040812080546001600160a01b0319168585161790559093909290911693843b156117945760405192634fec5afd60e11b8452846004850152604060248501528380611734604482018587610d7b565b038183895af1928315610571577f9c8e2e143101fc3123c702e45f91bf26ceec5c14066c4577b98299d3c7ef61f793611785575b50611780604051928392602084526020840191610d7b565b0390a3565b61178e90610cda565b38611768565b8280fd5b60405163246a002160e01b81526001600160a01b037f0000000000000000000000000000000000000000000000000000000000000000811660048301527f0000000000000000000000000000000000000000000000000000000000000000602483015260448201929092529116606482015260848101919091526020818060a4810103817f00000000000000000000000000000000000000000000000000000000000000006001600160a01b03165afa9081156105715760009161185a575090565b610481915060203d6020116107d7576107c88183610d28565b61187c816118fd565b90816118eb575b8161188c575090565b60209150600090604051838101906301ffc9a760e01b825263275da9d360e11b6024820152602481526118be81610d0d565b5191617530fa6000513d826118df575b50816118d8575090565b9050151590565b602011159150386118ce565b90506118f681611926565b1590611883565b6000602091604051838101906301ffc9a760e01b8083526024820152602481526118be81610d0d565b6000602091604051838101906301ffc9a760e01b825263ffffffff60e01b6024820152602481526118be81610d0d56fea264697066735822122079babb446489d2b2b8ef7649a982148e900a71c7ba2935776e83306487ec0cca64736f6c6343000817003360a03461008157601f610d5138819003918201601f19168301916001600160401b038311848410176100865780849260209460405283398101031261008157516001600160a01b0381169081900361008157608052604051610cb4908161009d82396080518181816101df015281816103fa0152818161060701526106e40152f35b600080fd5b634e487b7160e01b600052604160045260246000fdfe6040608081526004908136101561001557600080fd5b600091823560e01c90816301984892146108905781632a50c146146107a85781632ba215721461071357816341c782c5146106cf578163426eb017146106925781637e809973146106675781639c1bbc03146105e15781639fd8b5fa146103b3578163a2911fcd14610388578163c29fab6d1461034e578163c987336c146100d1575063d091b7c2146100a757600080fd5b346100cd57816003193601126100cd57905490516001600160a01b039091168152602090f35b5080fd5b9190503461034a578060031936011261034a5781356001600160a01b0381811693918490036103465767ffffffffffffffff906024358281116103425761011b9036908501610999565b9080875416908115610332578551638da5cb5b60e01b8152602090818188818c5afa908115610328579083918b916102ec575b501633036102dc57878952600180825281888b208951908c90805494610173866109e0565b91828552858501966001811690816000146102c0575060011461028c575b5050506101d4936101ce93836101af6101c8956101b995038261095b565b8051010190610aa0565b93808851890101908801610aa0565b92610bfd565b91610bfd565b0361027c57908792917f00000000000000000000000000000000000000000000000000000000000000001690813b156102785783610239988851998a958694859363344e13ad60e11b85528b8501526024840152606060448401526064830190610904565b03925af1801561026e5761024b578480f35b831161025b575052388080808480f35b634e487b7160e01b845260419052602483fd5b83513d87823e3d90fd5b8380fd5b855163be1f6fe560e01b81528590fd5b8f809450528483205b8284106102ab5750505081018201838383610191565b80548585018701528795909301928101610295565b60ff19168852505050151560051b820183019050838383610191565b865163425ec99960e01b81528690fd5b809250838092503d8311610321575b610305818361095b565b8101031261031d576103178391610a47565b3861014e565b8980fd5b503d6102fb565b88513d8c823e3d90fd5b85516301d11e1d60e71b81528590fd5b8680fd5b8480fd5b8280fd5b5050346100cd5760203660031901126100cd576020906001600160a01b03606061037e6103796108c6565b610b3a565b0151169051908152f35b5050346100cd5760203660031901126100cd578067ffffffffffffffff60209261037e6103796108c6565b8383346100cd57806003193601126100cd576103cd6108c6565b9067ffffffffffffffff90602435828111610346576103ef9036908701610999565b946001600160a01b037f0000000000000000000000000000000000000000000000000000000000000000811633036105d257865194816060610439602080998c0101898c01610aa0565b015116156105c257169283865260018086528387209288519283116105af575061046383546109e0565b601f8111610569575b5085601f83116001146104e257918080899a95936104d197957feb93c52781456784fc831a72052881602fbd4b0251d0715f7e0852cdec233d1e9b936104d7575b501b916000199060031b1c19161790555b8080519586958652850152830190610904565b0390a180f35b87015192508c6104ad565b83885286882091929190601f198316895b81811061055457509183917feb93c52781456784fc831a72052881602fbd4b0251d0715f7e0852cdec233d1e9a9b96946104d19896941061053b575b5050811b0190556104be565b86015160001960f88460031b161c191690558a8061052f565b8b8301518455928501929189019189016104f3565b838852868820601f840160051c8101918885106105a5575b601f0160051c019082905b82811061059a57505061046c565b89815501829061058c565b9091508190610581565b634e487b7160e01b885260419052602487fd5b835163c3af260760e01b81528390fd5b5090516394b1485760e01b8152fd5b90503461034a57602036600319011261034a576105fc6108c6565b6001600160a01b03907f000000000000000000000000000000000000000000000000000000000000000082163303610657571691821561064a57505081546001600160a01b03191617815580f35b51630990112160e31b8152fd5b83516394b1485760e01b81528390fd5b5050346100cd5760203660031901126100cd57602090816106896103796108c6565b01519051908152f35b5050346100cd5760203660031901126100cd576106cb9060806106b66103796108c6565b01519051918291602083526020830190610904565b0390f35b5050346100cd57816003193601126100cd57517f00000000000000000000000000000000000000000000000000000000000000006001600160a01b03168152602090f35b5050346100cd5760203660031901126100cd576080906106cb6107456107376108c6565b61073f610a1a565b50610b3a565b9180519384936020855267ffffffffffffffff61076e825160a0602089015260c0880190610904565b60208301518786015293820151166060808701919091528101516001600160a01b0316828601520151838203601f190160a0850152610904565b5050346100cd576020908160031936011261034a576001600160a01b036107cd6108c6565b1683526001808352818420938251948592828254926107eb846109e0565b9384875288600182169182600014610866575050600114610828575b85886106cb89610819848a038561095b565b51928284938452830190610904565b87945081939291528383205b82841061084e57505050820101816108196106cb38610807565b8054848a018601528895508794909301928101610834565b60ff19168882015294151560051b8701909401945085935061081992506106cb9150389050610807565b5050346100cd5760203660031901126100cd576106cb906108b26103796108c6565b519051918291602083526020830190610904565b600435906001600160a01b03821682036108dc57565b600080fd5b60005b8381106108f45750506000910152565b81810151838201526020016108e4565b9060209161091d815180928185528580860191016108e1565b601f01601f1916010190565b60a0810190811067ffffffffffffffff82111761094557604052565b634e487b7160e01b600052604160045260246000fd5b90601f8019910116810190811067ffffffffffffffff82111761094557604052565b67ffffffffffffffff811161094557601f01601f191660200190565b81601f820112156108dc578035906109b08261097d565b926109be604051948561095b565b828452602083830101116108dc57816000926020809301838601378301015290565b90600182811c92168015610a10575b60208310146109fa57565b634e487b7160e01b600052602260045260246000fd5b91607f16916109ef565b60405190610a2782610929565b606060808382815260006020820152600060408201526000838201520152565b51906001600160a01b03821682036108dc57565b81601f820112156108dc578051610a718161097d565b92610a7f604051948561095b565b818452602082840101116108dc57610a9d91602080850191016108e1565b90565b906020828203126108dc57815167ffffffffffffffff928382116108dc57019060a0828203126108dc5760405192610ad784610929565b82518181116108dc5782610aec918501610a5b565b845260208301516020850152604083015181811681036108dc576040850152610b1760608401610a47565b606085015260808301519081116108dc57610b329201610a5b565b608082015290565b90610b43610a1a565b5060009160018060a01b0316825260019160206001815260408220604051908395815494610b70866109e0565b9283855285850196600181169081600014610bdb5750600114610ba2575b505050506101af81610a9d9596038261095b565b90809850528387205b828810610bc8575050509384018101936101af81610a9d38610b8e565b8054848901860152968401968101610bab565b60ff1916885250505050151560051b8101820194506101af81610a9d38610b8e565b805190610c78602082015167ffffffffffffffff604084015116610c6c608060018060a01b0360608701511695015192604051958693610c49602086019960a08b5260c0870190610904565b92604086015260608501526080840152601f1993848483030160a0850152610904565b0390810183528261095b565b5190209056fea26469706673582212204f4a4b6521ebb5eabe25fcff09c225fccc97ad2619da0831440ebf54548da09c64736f6c63430008170033",
  "linkReferences": {},
  "deployedLinkReferences": {}
}