{
  "_format": "hh-sol-artifact-1",
  "contractName": "RoyaltyModule",
  "sourceName": "@story-protocol/protocol-core/contracts/modules/royalty/RoyaltyModule.sol",
  "abi": [
    {
      "inputs": [
        {
          "internalType": "address",
          "name": "governance",
          "type": "address"
        }
      ],
      "stateMutability": "nonpayable",
      "type": "constructor"
    },
    {
      "inputs": [],
      "name": "Governance__InconsistentState",
      "type": "error"
    },
    {
      "inputs": [],
      "name": "Governance__OnlyProtocolAdmin",
      "type": "error"
    },
    {
      "inputs": [
        {
          "internalType": "string",
          "name": "interfaceName",
          "type": "string"
        }
      ],
      "name": "Governance__UnsupportedInterface",
      "type": "error"
    },
    {
      "inputs": [],
      "name": "Governance__ZeroAddress",
      "type": "error"
    },
    {
      "inputs": [],
      "name": "ReentrancyGuardReentrantCall",
      "type": "error"
    },
    {
      "inputs": [],
      "name": "RoyaltyModule__CanOnlyMintSelectedPolicy",
      "type": "error"
    },
    {
      "inputs": [],
      "name": "RoyaltyModule__IncompatibleRoyaltyPolicy",
      "type": "error"
    },
    {
      "inputs": [],
      "name": "RoyaltyModule__NoParentsOnLinking",
      "type": "error"
    },
    {
      "inputs": [],
      "name": "RoyaltyModule__NoRoyaltyPolicySet",
      "type": "error"
    },
    {
      "inputs": [],
      "name": "RoyaltyModule__NotAllowedCaller",
      "type": "error"
    },
    {
      "inputs": [],
      "name": "RoyaltyModule__NotWhitelistedRoyaltyPolicy",
      "type": "error"
    },
    {
      "inputs": [],
      "name": "RoyaltyModule__NotWhitelistedRoyaltyToken",
      "type": "error"
    },
    {
      "inputs": [],
      "name": "RoyaltyModule__ZeroLicensingModule",
      "type": "error"
    },
    {
      "inputs": [],
      "name": "RoyaltyModule__ZeroRoyaltyPolicy",
      "type": "error"
    },
    {
      "inputs": [],
      "name": "RoyaltyModule__ZeroRoyaltyToken",
      "type": "error"
    },
    {
      "anonymous": false,
      "inputs": [
        {
          "indexed": true,
          "internalType": "address",
          "name": "newGovernance",
          "type": "address"
        }
      ],
      "name": "GovernanceUpdated",
      "type": "event"
    },
    {
      "anonymous": false,
      "inputs": [
        {
          "indexed": false,
          "internalType": "address",
          "name": "receiverIpId",
          "type": "address"
        },
        {
          "indexed": false,
          "internalType": "address",
          "name": "payerAddress",
          "type": "address"
        },
        {
          "indexed": false,
          "internalType": "address",
          "name": "token",
          "type": "address"
        },
        {
          "indexed": false,
          "internalType": "uint256",
          "name": "amount",
          "type": "uint256"
        }
      ],
      "name": "LicenseMintingFeePaid",
      "type": "event"
    },
    {
      "anonymous": false,
      "inputs": [
        {
          "indexed": false,
          "internalType": "address",
          "name": "receiverIpId",
          "type": "address"
        },
        {
          "indexed": false,
          "internalType": "address",
          "name": "payerIpId",
          "type": "address"
        },
        {
          "indexed": false,
          "internalType": "address",
          "name": "sender",
          "type": "address"
        },
        {
          "indexed": false,
          "internalType": "address",
          "name": "token",
          "type": "address"
        },
        {
          "indexed": false,
          "internalType": "uint256",
          "name": "amount",
          "type": "uint256"
        }
      ],
      "name": "RoyaltyPaid",
      "type": "event"
    },
    {
      "anonymous": false,
      "inputs": [
        {
          "indexed": false,
          "internalType": "address",
          "name": "royaltyPolicy",
          "type": "address"
        },
        {
          "indexed": false,
          "internalType": "bool",
          "name": "allowed",
          "type": "bool"
        }
      ],
      "name": "RoyaltyPolicyWhitelistUpdated",
      "type": "event"
    },
    {
      "anonymous": false,
      "inputs": [
        {
          "indexed": false,
          "internalType": "address",
          "name": "token",
          "type": "address"
        },
        {
          "indexed": false,
          "internalType": "bool",
          "name": "allowed",
          "type": "bool"
        }
      ],
      "name": "RoyaltyTokenWhitelistUpdated",
      "type": "event"
    },
    {
      "inputs": [],
      "name": "LICENSING_MODULE",
      "outputs": [
        {
          "internalType": "address",
          "name": "",
          "type": "address"
        }
      ],
      "stateMutability": "view",
      "type": "function"
    },
    {
      "inputs": [],
      "name": "getGovernance",
      "outputs": [
        {
          "internalType": "address",
          "name": "",
          "type": "address"
        }
      ],
      "stateMutability": "view",
      "type": "function"
    },
    {
      "inputs": [],
      "name": "governance",
      "outputs": [
        {
          "internalType": "address",
          "name": "",
          "type": "address"
        }
      ],
      "stateMutability": "view",
      "type": "function"
    },
    {
      "inputs": [
        {
          "internalType": "address",
          "name": "royaltyPolicy",
          "type": "address"
        }
      ],
      "name": "isWhitelistedRoyaltyPolicy",
      "outputs": [
        {
          "internalType": "bool",
          "name": "isWhitelisted",
          "type": "bool"
        }
      ],
      "stateMutability": "view",
      "type": "function"
    },
    {
      "inputs": [
        {
          "internalType": "address",
          "name": "token",
          "type": "address"
        }
      ],
      "name": "isWhitelistedRoyaltyToken",
      "outputs": [
        {
          "internalType": "bool",
          "name": "",
          "type": "bool"
        }
      ],
      "stateMutability": "view",
      "type": "function"
    },
    {
      "inputs": [],
      "name": "name",
      "outputs": [
        {
          "internalType": "string",
          "name": "",
          "type": "string"
        }
      ],
      "stateMutability": "view",
      "type": "function"
    },
    {
      "inputs": [
        {
          "internalType": "address",
          "name": "ipId",
          "type": "address"
        },
        {
          "internalType": "address",
          "name": "royaltyPolicy",
          "type": "address"
        },
        {
          "internalType": "bytes",
          "name": "licenseData",
          "type": "bytes"
        },
        {
          "internalType": "bytes",
          "name": "externalData",
          "type": "bytes"
        }
      ],
      "name": "onLicenseMinting",
      "outputs": [],
      "stateMutability": "nonpayable",
      "type": "function"
    },
    {
      "inputs": [
        {
          "internalType": "address",
          "name": "ipId",
          "type": "address"
        },
        {
          "internalType": "address",
          "name": "royaltyPolicy",
          "type": "address"
        },
        {
          "internalType": "address[]",
          "name": "parentIpIds",
          "type": "address[]"
        },
        {
          "internalType": "bytes[]",
          "name": "licenseData",
          "type": "bytes[]"
        },
        {
          "internalType": "bytes",
          "name": "externalData",
          "type": "bytes"
        }
      ],
      "name": "onLinkToParents",
      "outputs": [],
      "stateMutability": "nonpayable",
      "type": "function"
    },
    {
      "inputs": [
        {
          "internalType": "address",
          "name": "receiverIpId",
          "type": "address"
        },
        {
          "internalType": "address",
          "name": "payerAddress",
          "type": "address"
        },
        {
          "internalType": "address",
          "name": "licenseRoyaltyPolicy",
          "type": "address"
        },
        {
          "internalType": "address",
          "name": "token",
          "type": "address"
        },
        {
          "internalType": "uint256",
          "name": "amount",
          "type": "uint256"
        }
      ],
      "name": "payLicenseMintingFee",
      "outputs": [],
      "stateMutability": "nonpayable",
      "type": "function"
    },
    {
      "inputs": [
        {
          "internalType": "address",
          "name": "receiverIpId",
          "type": "address"
        },
        {
          "internalType": "address",
          "name": "payerIpId",
          "type": "address"
        },
        {
          "internalType": "address",
          "name": "token",
          "type": "address"
        },
        {
          "internalType": "uint256",
          "name": "amount",
          "type": "uint256"
        }
      ],
      "name": "payRoyaltyOnBehalf",
      "outputs": [],
      "stateMutability": "nonpayable",
      "type": "function"
    },
    {
      "inputs": [
        {
          "internalType": "address",
          "name": "ipId",
          "type": "address"
        }
      ],
      "name": "royaltyPolicies",
      "outputs": [
        {
          "internalType": "address",
          "name": "royaltyPolicy",
          "type": "address"
        }
      ],
      "stateMutability": "view",
      "type": "function"
    },
    {
      "inputs": [
        {
          "internalType": "address",
          "name": "newGovernance",
          "type": "address"
        }
      ],
      "name": "setGovernance",
      "outputs": [],
      "stateMutability": "nonpayable",
      "type": "function"
    },
    {
      "inputs": [
        {
          "internalType": "address",
          "name": "licensingModule",
          "type": "address"
        }
      ],
      "name": "setLicensingModule",
      "outputs": [],
      "stateMutability": "nonpayable",
      "type": "function"
    },
    {
      "inputs": [
        {
          "internalType": "bytes4",
          "name": "interfaceId",
          "type": "bytes4"
        }
      ],
      "name": "supportsInterface",
      "outputs": [
        {
          "internalType": "bool",
          "name": "",
          "type": "bool"
        }
      ],
      "stateMutability": "view",
      "type": "function"
    },
    {
      "inputs": [
        {
          "internalType": "address",
          "name": "royaltyPolicy",
          "type": "address"
        },
        {
          "internalType": "bool",
          "name": "allowed",
          "type": "bool"
        }
      ],
      "name": "whitelistRoyaltyPolicy",
      "outputs": [],
      "stateMutability": "nonpayable",
      "type": "function"
    },
    {
      "inputs": [
        {
          "internalType": "address",
          "name": "token",
          "type": "address"
        },
        {
          "internalType": "bool",
          "name": "allowed",
          "type": "bool"
        }
      ],
      "name": "whitelistRoyaltyToken",
      "outputs": [],
      "stateMutability": "nonpayable",
      "type": "function"
    }
  ],
  "bytecode": "0x6080346100b457601f6115b438819003918201601f19168301916001600160401b038311848410176100b9578084926020946040528339810103126100b457516001600160a01b038116908190036100b45780156100a257600080546001600160a01b0319168217815560405191907f9d3e522e1e47a2f6009739342b9cc7b252a1888154e843ab55ee1c81745795ab9080a2600180556114e490816100d08239f35b60405163239261b360e11b8152600490fd5b600080fd5b634e487b7160e01b600052604160045260246000fdfe6080604052600436101561001257600080fd5b60003560e01c806301ffc9a71461011257806306fdde031461010d57806321dda4b514610108578063289b3c0d146100f45780632930af8b1461010357806349fb4615146100fe578063520cbac6146100f95780635aa6e675146100f457806365165aa5146100ef57806385863e51146100ea578063926e04fd146100e557806396467814146100e0578063ab033ea9146100db578063c325878e146100d6578063cc5b6084146100d15763d2577f3b146100cc57600080fd5b610b6a565b610ad4565b610908565b610872565b610830565b6107ee565b610666565b61063d565b610466565b6105b6565b610500565b61048f565b6103bf565b61025b565b346101825760203660031901126101825760043563ffffffff60e01b81168091036101825760209063e6d0174560e01b8114908115610157575b506040519015158152f35b6306fdde0360e01b811491508115610171575b503861014c565b6301ffc9a760e01b1490503861016a565b600080fd5b600091031261018257565b634e487b7160e01b600052604160045260246000fd5b67ffffffffffffffff81116101bc57604052565b610192565b6060810190811067ffffffffffffffff8211176101bc57604052565b90601f8019910116810190811067ffffffffffffffff8211176101bc57604052565b67ffffffffffffffff81116101bc57601f01601f191660200190565b919082519283825260005b848110610247575050826000602080949584010152601f8019910116010190565b602081830181015184830182015201610226565b3461018257600036600319011261018257604051604081019080821067ffffffffffffffff8311176101bc576102bd91604052600e81526d524f59414c54595f4d4f44554c4560901b602082015260405191829160208352602083019061021b565b0390f35b6001600160a01b0381160361018257565b9080601f830112156101825781359160209167ffffffffffffffff908185116101bc578460051b906040926040519661030d878501896101dd565b875285808801938601019482861161018257868101935b86851061033657505050505050505090565b843583811161018257820184603f8201121561018257888101359161035a836101ff565b610366895191826101dd565b838152868985850101116101825760008b8581968c8397018386013783010152815201940193610324565b9181601f840112156101825782359167ffffffffffffffff8311610182576020838186019501011161018257565b346101825760a0366003190112610182576004356103dc816102c1565b602435906103e9826102c1565b60443567ffffffffffffffff918282116101825736602383011215610182578160040135838111610182573660248260051b85010111610182576064358481116101825761043b9036906004016102d2565b91608435948511610182576104649561045a6024963690600401610391565b9690950191610d38565b005b34610182576000366003190112610182576000546040516001600160a01b039091168152602090f35b346101825760203660031901126101825760206004356104ae816102c1565b60018060a01b038091166000526005825260406000205416604051908152f35b8015150361018257565b6040906003190112610182576004356104f0816102c1565b906024356104fd816104ce565b90565b346101825761050e366104d8565b60005461052b906001600160a01b03165b6001600160a01b031690565b604051632474521560e21b81526000600482015233602482015290602090829060449082905afa9081156105b157600091610582575b5015610570576104649161103a565b604051632cd47a1560e11b8152600490fd5b6105a4915060203d6020116105aa575b61059c81836101dd565b810190611025565b38610561565b503d610592565b611019565b34610182576105c4366104d8565b6000546105d9906001600160a01b031661051f565b604051632474521560e21b81526000600482015233602482015290602090829060449082905afa9081156105b15760009161061e575b501561057057610464916110bf565b610637915060203d6020116105aa5761059c81836101dd565b3861060f565b34610182576000366003190112610182576002546040516001600160a01b039091168152602090f35b34610182576080366003190112610182576004803590610685826102c1565b602435610691816102c1565b67ffffffffffffffff90604435828111610182576106b29036908501610391565b949092606435908111610182576106cc9036908601610391565b90946106d6611353565b6002546001600160a01b0390811633036107de576001600160a01b038516600090815260036020526040902061071690610712905b5460ff1690565b1590565b6107ce576001600160a01b03841660009081526005602052604090208190610746905b546001600160a01b031690565b951694168481141590816107c4575b506107b557833b1561018257610784600096928793604051998a988997889662606e9d60e01b88528701611127565b03925af180156105b15761079c575b61046460018055565b806107a96107af926101a8565b80610187565b38610793565b60405163335baa4760e21b8152fd5b9050151538610755565b5060405163035b13fd60e11b8152fd5b5060405163379a102f60e11b8152fd5b346101825760203660031901126101825760043561080b816102c1565b60018060a01b03166000526004602052602060ff604060002054166040519015158152f35b346101825760203660031901126101825760043561084d816102c1565b60018060a01b03166000526003602052602060ff604060002054166040519015158152f35b346101825760203660031901126101825760043561088f816102c1565b6000546108a4906001600160a01b031661051f565b604051632474521560e21b81526000600482015233602482015290602090829060449082905afa9081156105b1576000916108e9575b50156105705761046490611193565b610902915060203d6020116105aa5761059c81836101dd565b386108da565b346101825760a03660031901126101825760048035610926816102c1565b60243590610933826102c1565b60443592610940846102c1565b6064359361094d856102c1565b60025460843591906001600160a01b039081163303610ac3576001600160a01b038716600090815260046020526040902061098b906107129061070b565b610ab2578116908115610aa1576001600160a01b031660009081526003602052604090206109bc906107129061070b565b610a9057803b156101825760408051635be8968b60e01b81526001600160a01b038088169582019586528087166020870152881691850191909152606084018390529592600091879182908490829060800103925af19182156105b1577f6d0da56cef79c5ded8a144464d37388ba6113852dd5c33ad704b258a371a4e8a95610a7893610a7d575b50604080516001600160a01b0395861681529585166020870152931692840192909252606083019190915281906080820190565b0390a1005b806107a9610a8a926101a8565b38610a44565b60405163035b13fd60e11b81528390fd5b604051630d5c3d2f60e41b81528490fd5b604051630e44f8ef60e31b81528490fd5b60405163379a102f60e11b81528490fd5b3461018257602036600319011261018257600435610af1816102c1565b600054610b06906001600160a01b031661051f565b604051632474521560e21b81526000600482015233602482015290602090829060449082905afa9081156105b157600091610b4b575b50156105705761046490611318565b610b64915060203d6020116105aa5761059c81836101dd565b38610b3c565b3461018257608036600319011261018257600435610b87816102c1565b60243590610b94826102c1565b60443591610ba1836102c1565b60643592610bad611353565b6001600160a01b0381166000908152600460205260409020610bd2906107129061070b565b610d26576001600160a01b0382166000908152600560205260409020610bf790610739565b6001600160a01b03811694908515610d14576001600160a01b03166000908152600360205260409020610c2d906107129061070b565b610d0257843b1561018257604051635be8968b60e01b81523360048201526001600160a01b0385811660248301528316604482015260648101829052946000908690608490829084905af19182156105b1577fe0ee75d70c5bcafc95db3e81961af1375efcd0e19fbfd7cae8a85f41c68e2d2d95610ce393610cef575b50604080516001600160a01b039687168152948616602086015233908501529093166060830152608082019290925290819060a0820190565b0390a161046460018055565b806107a9610cfc926101a8565b38610caa565b60405163035b13fd60e11b8152600490fd5b604051630d5c3d2f60e41b8152600490fd5b604051630e44f8ef60e31b8152600490fd5b96909593610d44611353565b6002546001600160a01b03969087163303610ec3576001600160a01b0388166000908152600360205260409020610d7e906107129061070b565b610d02578415610eb15760005b63ffffffff811686811015610e0b57610dce610739610db4610daf8c948b8b610f00565b610f26565b6001600160a01b0316600090815260056020526040902090565b16888a168114159081610e01575b50610def57610dea90610ed5565b610d8b565b604051639739ce9160e01b8152600490fd5b9050151538610ddc565b50509590969793949197610e5481610e358760018060a01b03166000526005602052604060002090565b80546001600160a01b0319166001600160a01b03909216919091179055565b1692833b1561018257610e83600096928793604051998a98899788966317da174760e11b885260048801610f51565b03925af180156105b157610e9e575b50610e9c60018055565b565b806107a9610eab926101a8565b38610e92565b6040516305d3644d60e11b8152600490fd5b60405163379a102f60e11b8152600490fd5b63ffffffff809116908114610eea5760010190565b634e487b7160e01b600052601160045260246000fd5b9190811015610f105760051b0190565b634e487b7160e01b600052603260045260246000fd5b356104fd816102c1565b908060209392818452848401376000828201840152601f01601f1916010190565b91969593949290608083019160018060a01b038092168452806020936080858701525260a0840198916000905b828210610ff5575050505081870360408301528451808852600581901b88018201958201916000818a015b838210610fc85750505050506104fd9495506060818503910152610f30565b90919293978380610fe66001938e601f199082030186528c5161021b565b9a019201920190939291610fa9565b909192998480600192848e3561100a816102c1565b168152019b0193920190610f7e565b6040513d6000823e3d90fd5b9081602091031261018257516104fd816104ce565b6001600160a01b038116919082156110ad577f1f584640e1aae6441a6deba8d18148f5c9fb11a0bd7640e4b2808383a96626909260005260036020526110908260406000209060ff801983541691151516179055565b604080516001600160a01b039290921682529115156020820152a1565b60405163b3c4f5c560e01b8152600490fd5b6001600160a01b03811691908215611115577fb40e5b8c4310e269d81608ec0e28372febb69a03ed8ace904c86459366cc36279260005260046020526110908260406000209060ff801983541691151516179055565b6040516335f6cdcb60e11b8152600490fd5b93916104fd959361114d9260018060a01b03168652606060208701526060860191610f30565b926040818503910152610f30565b90816020910312610182575160028110156101825790565b6002111561117d57565b634e487b7160e01b600052602160045260246000fd5b6001600160a01b038116908115611306576111b061071282611376565b6112d357604051631865c57d60e01b808252602091908282600481885afa9182156105b1576000926112b4575b5060005483906111f79061051f906001600160a01b031681565b9160046040518094819382525afa9283156105b157600093611285575b505061121f82611173565b61122881611173565b0361127357600080546001600160a01b0319166001600160a01b039092169190911790557f9d3e522e1e47a2f6009739342b9cc7b252a1888154e843ab55ee1c81745795ab600080a2565b60405163649cdd9960e01b8152600490fd5b6112a5929350803d106112ad575b61129d81836101dd565b81019061115b565b903880611214565b503d611293565b6112cc919250833d85116112ad5761129d81836101dd565b90386111dd565b60405162a73c8d60e01b815260206004820152600b60248201526a49476f7665726e616e636560a81b6044820152606490fd5b60405163239261b360e11b8152600490fd5b6001600160a01b03168015611341576bffffffffffffffffffffffff60a01b6002541617600255565b604051631f17bb8960e21b8152600490fd5b600260015414611364576002600155565b604051633ee5aeb560e01b8152600490fd5b6040519060208083018160006301ffc9a760e01b95868452866024820152602481526113a1816101c1565b51617530938685fa933d6000519086611446575b508561143c575b50846113d9575b505050816113cf575090565b6104fd9150611451565b83945090600091839460405185810192835263ffffffff60e01b602482015260248152611405816101c1565b5192fa60005190913d83611431575b505081611427575b5015903880806113c3565b905015153861141c565b101591503880611414565b15159450386113bc565b8411159550386113b5565b6000602091604051838101906301ffc9a760e01b825263275da9d360e11b602482015260248152611481816101c1565b5191617530fa6000513d826114a2575b508161149b575090565b9050151590565b6020111591503861149156fea2646970667358221220e4744f71e0b14a24c614cd604c1572b3cee74329d87906f5321609011112e1fc64736f6c63430008170033",
  "linkReferences": {},
  "deployedLinkReferences": {}
}