{
  "_format": "hh-sol-artifact-1",
  "contractName": "IPAccountChecker",
  "sourceName": "@story-protocol/protocol-core/contracts/lib/registries/IPAccountChecker.sol",
  "abi": [
    {
      "inputs": [
        {
          "internalType": "contract IIPAccountRegistry",
          "name": "ipAccountRegistry_",
          "type": "IIPAccountRegistry"
        },
        {
          "internalType": "address",
          "name": "ipAccountAddress_",
          "type": "address"
        }
      ],
      "name": "isIpAccount",
      "outputs": [
        {
          "internalType": "bool",
          "name": "",
          "type": "bool"
        }
      ],
      "stateMutability": "view",
      "type": "function"
    },
    {
      "inputs": [
        {
          "internalType": "contract IIPAccountRegistry",
          "name": "ipAccountRegistry_",
          "type": "IIPAccountRegistry"
        },
        {
          "internalType": "uint256",
          "name": "chainId_",
          "type": "uint256"
        },
        {
          "internalType": "address",
          "name": "tokenContract_",
          "type": "address"
        },
        {
          "internalType": "uint256",
          "name": "tokenId_",
          "type": "uint256"
        }
      ],
      "name": "isRegistered",
      "outputs": [
        {
          "internalType": "bool",
          "name": "",
          "type": "bool"
        }
      ],
      "stateMutability": "view",
      "type": "function"
    }
  ],
  "bytecode": "0x6080806040523461001a576104e99081610020823930815050f35b600080fdfe6080604052600436101561001257600080fd5b6000803560e01c80635a1c2dd7146101085763b43f0ea51461003357600080fd5b60803660031901126101055761009b602060043561005081610142565b6044359061005d82610142565b6040516387020f9560e01b81526024803560048301526001600160a01b03909316928101929092526064803560448401529193849283918291820190565b03916001600160a01b03165afa908115610100576100cd92916100d1575b50604051903b151581529081906020820190565b0390f35b6100f3915060203d6020116100f9575b6100eb818361018a565b8101906101dc565b386100b9565b503d6100e1565b6101d0565b80fd5b50604036600319011261010557602061013860043561012681610142565b6024359061013382610142565b6101f4565b6040519015158152f35b6001600160a01b0381160361015357565b600080fd5b6060810190811067ffffffffffffffff82111761017457604052565b634e487b7160e01b600052604160045260246000fd5b90601f8019910116810190811067ffffffffffffffff82111761017457604052565b9081606091031261015357805191604060208301516101ca81610142565b92015190565b6040513d6000823e3d90fd5b9081602091031261015357516101f181610142565b90565b6001600160a01b0382811692909190831561032757803b156103275761022061021c82610330565b1590565b6103275761023061021c826103fc565b6103275761021c6102409161046e565b61031f57604051637e062a3560e11b8152606081600481875afa8015610100576102b09260209285600080926000956102e9575b506040516387020f9560e01b815260048101919091526001600160a01b0390921660248301526044820193909352938492839182906064820190565b0392165afa908115610100576000916102ca575b50161490565b6102e3915060203d6020116100f9576100eb818361018a565b386102c4565b9194505061030f915060603d606011610318575b610307818361018a565b8101906101ac565b93909138610274565b503d6102fd565b505050600090565b50505050600090565b604051602090818101908260006301ffc9a760e01b928385528360248201526024815261035c81610158565b51617530948786fa933d60005190866103f1575b50856103e7575b5084610385575b5050505090565b839450906000929160405185810192835263ffffffff60e01b6024820152602481526103b081610158565b5192fa60005190913d836103dc575b5050816103d2575b50153880808061037e565b90501515386103c7565b1015915038806103bf565b1515945038610377565b851115955038610370565b61040581610330565b908161040f575090565b60209150600090604051838101906301ffc9a760e01b8252636faff5f160e01b60248201526024815261044181610158565b5191617530fa6000513d82610462575b508161045b575090565b9050151590565b60201115915038610451565b61047781610330565b9081610481575090565b60209150600090604051838101906301ffc9a760e01b825263ebe268b360e01b6024820152602481526104418161015856fea26469706673582212205a91eb16c4ecd710a5f634686b3c47713b22289e62b89ef37d07094d101067d264736f6c63430008170033",
  "linkReferences": {},
  "deployedLinkReferences": {}
}