{
  "_format": "hh-sol-artifact-1",
  "contractName": "Pantheon",
  "sourceName": "contracts/Pantheon.sol",
  "abi": [
    {
      "inputs": [
        {
          "internalType": "string",
          "name": "uri_",
          "type": "string"
        },
        {
          "internalType": "address",
          "name": "spg_",
          "type": "address"
        },
        {
          "internalType": "uint256",
          "name": "policyId_",
          "type": "uint256"
        }
      ],
      "stateMutability": "nonpayable",
      "type": "constructor"
    },
    {
      "anonymous": false,
      "inputs": [
        {
          "indexed": true,
          "internalType": "uint256",
          "name": "erc404Id",
          "type": "uint256"
        },
        {
          "indexed": true,
          "internalType": "address",
          "name": "contractAddress",
          "type": "address"
        },
        {
          "indexed": true,
          "internalType": "uint256",
          "name": "tokenId",
          "type": "uint256"
        },
        {
          "indexed": false,
          "internalType": "address",
          "name": "ipId",
          "type": "address"
        }
      ],
      "name": "ERC404Created",
      "type": "event"
    },
    {
      "anonymous": false,
      "inputs": [
        {
          "indexed": true,
          "internalType": "address",
          "name": "previousOwner",
          "type": "address"
        },
        {
          "indexed": true,
          "internalType": "address",
          "name": "newOwner",
          "type": "address"
        }
      ],
      "name": "OwnershipTransferred",
      "type": "event"
    },
    {
      "anonymous": false,
      "inputs": [
        {
          "indexed": false,
          "internalType": "string",
          "name": "newURI",
          "type": "string"
        }
      ],
      "name": "URIUpdated",
      "type": "event"
    },
    {
      "anonymous": false,
      "inputs": [
        {
          "indexed": true,
          "internalType": "address",
          "name": "account",
          "type": "address"
        },
        {
          "indexed": false,
          "internalType": "bool",
          "name": "isWhitelisted",
          "type": "bool"
        }
      ],
      "name": "WhitelistChanged",
      "type": "event"
    },
    {
      "inputs": [],
      "name": "NFT_ADDRESS",
      "outputs": [
        {
          "internalType": "address",
          "name": "",
          "type": "address"
        }
      ],
      "stateMutability": "view",
      "type": "function"
    },
    {
      "inputs": [],
      "name": "POLICY_ID",
      "outputs": [
        {
          "internalType": "uint256",
          "name": "",
          "type": "uint256"
        }
      ],
      "stateMutability": "view",
      "type": "function"
    },
    {
      "inputs": [
        {
          "internalType": "string",
          "name": "newURI",
          "type": "string"
        }
      ],
      "name": "_setURI",
      "outputs": [],
      "stateMutability": "nonpayable",
      "type": "function"
    },
    {
      "inputs": [
        {
          "internalType": "uint256",
          "name": "id_",
          "type": "uint256"
        },
        {
          "internalType": "address",
          "name": "user",
          "type": "address"
        },
        {
          "internalType": "string[]",
          "name": "cids",
          "type": "string[]"
        }
      ],
      "name": "addCIDs",
      "outputs": [],
      "stateMutability": "nonpayable",
      "type": "function"
    },
    {
      "inputs": [
        {
          "internalType": "address",
          "name": "account_",
          "type": "address"
        }
      ],
      "name": "addToWhitelist",
      "outputs": [],
      "stateMutability": "nonpayable",
      "type": "function"
    },
    {
      "inputs": [
        {
          "internalType": "string",
          "name": "name_",
          "type": "string"
        },
        {
          "internalType": "string",
          "name": "erc404Symbol_",
          "type": "string"
        },
        {
          "internalType": "uint8",
          "name": "erc404Decimals_",
          "type": "uint8"
        },
        {
          "internalType": "uint256",
          "name": "maxTotalSupplyERC721_",
          "type": "uint256"
        },
        {
          "internalType": "address",
          "name": "initialMintRecipient_",
          "type": "address"
        },
        {
          "internalType": "string",
          "name": "nftDescription",
          "type": "string"
        },
        {
          "internalType": "string",
          "name": "nftUrl",
          "type": "string"
        },
        {
          "internalType": "string",
          "name": "nftImage",
          "type": "string"
        },
        {
          "internalType": "string[]",
          "name": "nftAttributeKeys",
          "type": "string[]"
        },
        {
          "internalType": "string[]",
          "name": "nftAttributeValues",
          "type": "string[]"
        },
        {
          "internalType": "string",
          "name": "ipName_",
          "type": "string"
        },
        {
          "internalType": "bytes32",
          "name": "ipHash",
          "type": "bytes32"
        },
        {
          "internalType": "string",
          "name": "ipUrl",
          "type": "string"
        },
        {
          "internalType": "string[]",
          "name": "ipAttributeKeys",
          "type": "string[]"
        },
        {
          "internalType": "string[]",
          "name": "ipAttributeValues",
          "type": "string[]"
        }
      ],
      "name": "createERC404",
      "outputs": [],
      "stateMutability": "nonpayable",
      "type": "function"
    },
    {
      "inputs": [
        {
          "internalType": "uint256",
          "name": "",
          "type": "uint256"
        }
      ],
      "name": "erc404Instances",
      "outputs": [
        {
          "internalType": "contract ERC404Instance",
          "name": "",
          "type": "address"
        }
      ],
      "stateMutability": "view",
      "type": "function"
    },
    {
      "inputs": [
        {
          "internalType": "uint256",
          "name": "id_",
          "type": "uint256"
        },
        {
          "internalType": "address",
          "name": "user",
          "type": "address"
        }
      ],
      "name": "getCIDs",
      "outputs": [
        {
          "internalType": "string[]",
          "name": "",
          "type": "string[]"
        }
      ],
      "stateMutability": "view",
      "type": "function"
    },
    {
      "inputs": [
        {
          "internalType": "uint256",
          "name": "id_",
          "type": "uint256"
        },
        {
          "internalType": "address",
          "name": "user",
          "type": "address"
        }
      ],
      "name": "getContribution",
      "outputs": [
        {
          "internalType": "uint256",
          "name": "",
          "type": "uint256"
        }
      ],
      "stateMutability": "view",
      "type": "function"
    },
    {
      "inputs": [],
      "name": "id",
      "outputs": [
        {
          "internalType": "uint256",
          "name": "",
          "type": "uint256"
        }
      ],
      "stateMutability": "view",
      "type": "function"
    },
    {
      "inputs": [
        {
          "internalType": "bytes32",
          "name": "_hash",
          "type": "bytes32"
        },
        {
          "internalType": "bytes",
          "name": "_signature",
          "type": "bytes"
        }
      ],
      "name": "isValidSignature",
      "outputs": [
        {
          "internalType": "bytes4",
          "name": "",
          "type": "bytes4"
        }
      ],
      "stateMutability": "view",
      "type": "function"
    },
    {
      "inputs": [
        {
          "internalType": "address",
          "name": "account_",
          "type": "address"
        }
      ],
      "name": "isWhitelisted",
      "outputs": [
        {
          "internalType": "bool",
          "name": "",
          "type": "bool"
        }
      ],
      "stateMutability": "view",
      "type": "function"
    },
    {
      "inputs": [
        {
          "internalType": "address",
          "name": "",
          "type": "address"
        },
        {
          "internalType": "address",
          "name": "",
          "type": "address"
        },
        {
          "internalType": "uint256[]",
          "name": "",
          "type": "uint256[]"
        },
        {
          "internalType": "uint256[]",
          "name": "",
          "type": "uint256[]"
        },
        {
          "internalType": "bytes",
          "name": "",
          "type": "bytes"
        }
      ],
      "name": "onERC1155BatchReceived",
      "outputs": [
        {
          "internalType": "bytes4",
          "name": "",
          "type": "bytes4"
        }
      ],
      "stateMutability": "pure",
      "type": "function"
    },
    {
      "inputs": [
        {
          "internalType": "address",
          "name": "",
          "type": "address"
        },
        {
          "internalType": "address",
          "name": "",
          "type": "address"
        },
        {
          "internalType": "uint256",
          "name": "",
          "type": "uint256"
        },
        {
          "internalType": "uint256",
          "name": "",
          "type": "uint256"
        },
        {
          "internalType": "bytes",
          "name": "",
          "type": "bytes"
        }
      ],
      "name": "onERC1155Received",
      "outputs": [
        {
          "internalType": "bytes4",
          "name": "",
          "type": "bytes4"
        }
      ],
      "stateMutability": "pure",
      "type": "function"
    },
    {
      "inputs": [
        {
          "internalType": "address",
          "name": "",
          "type": "address"
        },
        {
          "internalType": "address",
          "name": "",
          "type": "address"
        },
        {
          "internalType": "uint256",
          "name": "",
          "type": "uint256"
        },
        {
          "internalType": "bytes",
          "name": "",
          "type": "bytes"
        }
      ],
      "name": "onERC721Received",
      "outputs": [
        {
          "internalType": "bytes4",
          "name": "",
          "type": "bytes4"
        }
      ],
      "stateMutability": "pure",
      "type": "function"
    },
    {
      "inputs": [],
      "name": "owner",
      "outputs": [
        {
          "internalType": "address",
          "name": "",
          "type": "address"
        }
      ],
      "stateMutability": "view",
      "type": "function"
    },
    {
      "inputs": [
        {
          "internalType": "address",
          "name": "account_",
          "type": "address"
        }
      ],
      "name": "removeFromWhitelist",
      "outputs": [],
      "stateMutability": "nonpayable",
      "type": "function"
    },
    {
      "inputs": [],
      "name": "renounceOwnership",
      "outputs": [],
      "stateMutability": "nonpayable",
      "type": "function"
    },
    {
      "inputs": [],
      "name": "spg",
      "outputs": [
        {
          "internalType": "contract IStoryProtocolGateway",
          "name": "",
          "type": "address"
        }
      ],
      "stateMutability": "view",
      "type": "function"
    },
    {
      "inputs": [
        {
          "internalType": "bytes4",
          "name": "interfaceId",
          "type": "bytes4"
        }
      ],
      "name": "supportsInterface",
      "outputs": [
        {
          "internalType": "bool",
          "name": "",
          "type": "bool"
        }
      ],
      "stateMutability": "pure",
      "type": "function"
    },
    {
      "inputs": [
        {
          "internalType": "address",
          "name": "newOwner",
          "type": "address"
        }
      ],
      "name": "transferOwnership",
      "outputs": [],
      "stateMutability": "nonpayable",
      "type": "function"
    },
    {
      "inputs": [],
      "name": "uri",
      "outputs": [
        {
          "internalType": "string",
          "name": "",
          "type": "string"
        }
      ],
      "stateMutability": "view",
      "type": "function"
    }
  ],
  "bytecode": "0x604060c08152346200031b576200714b803803806200001e8162000335565b9283398101906060818303126200031b5780516001600160401b0392908381116200031b57820192601f938285820112156200031b578051928284116200021657602093601f1992620000778883018516870162000335565b928284528683830101116200031b57859060005b8381106200032057505060009183010152848401516001600160a01b039586821693918490036200031b57880151966000549260018060a01b0319933385821617600055883391167f8be0079c531659141344cd1fd0a4f28419497f9722a3daafe3b4186f6b6457e0600080a38051918683116200021657600254916001948584811c9416801562000310575b8a851014620002fa5783838695116200029f575b50899284116001146200023857506000926200022c575b5050600019600383901b1c191690821b176002555b3360005260048552876000209060ff19825416179055600354161760035584519161186191828401908482109082111762000216576080849260c094620058ea8539888352600689840152651cdc19d3919560d21b6060840152820152600460808201526314d3919560e21b60a08201520301906000f080156200020b571660a0526080525161558e90816200035c82396080518181816108b50152610fc5015260a0518181816109890152610ff20152f35b83513d6000823e3d90fd5b634e487b7160e01b600052604160045260246000fd5b01519050388062000143565b859492919216916002600052896000209260005b8b8282106200028857505084116200026e575b505050811b0160025562000158565b015160001960f88460031b161c191690553880806200025f565b83850151865588979095019493840193016200024c565b90919293506002600052896000208480870160051c8201928c8810620002f0575b9187968992969594930160051c01915b828110620002e05750506200012c565b60008155879650889101620002d0565b92508192620002c0565b634e487b7160e01b600052602260045260246000fd5b93607f169362000118565b600080fd5b8181018301518582018401528792016200008b565b6040519190601f01601f191682016001600160401b03811183821017620002165760405256fe6102208060405260043610156200001557600080fd5b600061020052610200513560e01c90816301ffc9a714620017ae57508063150b7a0214620017505780631626ba7e14620017085780633af32abf14620016c15780634847927214620016945780636264d1bc14620014e2578063715018a6146200147e5780637a70c3121462000ae55780638ab1d6811462000a095780638da5cb5b14620009da578063af640d0f14620009b8578063b32c5c45146200096f578063bc197c8114620008d8578063db4ef9a61462000899578063e081dbf914620007ef578063e43252d71462000718578063eac989f8146200062d578063f23a6e6114620005cf578063f2fde38b14620004fa578063f392d4f51462000307578063f47efcff14620002cd5763fe232f05146200013157600080fd5b34620002b8576040366003190112620002b8576200014e62001837565b600435610200515260206005815260018060a01b038060406102005120541690604051936318d9f6a760e21b85521660048401528260248161020051935afa918215620002bf576102005192620001bb575b50620001b760405192828493845283019062001a71565b0390f35b9091503d8061020051833e620001d281836200186a565b81018282820312620002b85781516001600160401b0392838211620002b857019080601f83011215620002b85781516200020c8162001905565b936200021c60405195866200186a565b818552858086019260051b85010193838511620002b857868101925b8584106200024e575050505050509038620001a0565b8351838111620002b85782019085603f83011215620002b857888201519062000277826200188c565b6200028660405191826200186a565b8281528760408486010111620002b857620002ac8b949385946040868501910162001a25565b81520193019262000238565b6102005180fd5b6040513d61020051823e3d90fd5b34620002b8576020366003190112620002b85760043561020051526005602052602060018060a01b03604061020051205416604051908152f35b34620002b857602080600319360112620002b8576001600160401b0390600435828111620002b8576200033f903690600401620018e4565b906200034a62001cc3565b8151928311620004e05762000361600254620019e8565b601f811162000484575b509182906001601f821114620003e957610200517fe3afa94108b5f5e82e5f6e539d161ff4b5402a85f696c67b9768ec3ae54ce3669482620003dd575b508160011b916000199060031b1c1916176002555b620003d360405192828493845283019062001a4a565b0390a16102005180f35b905083015185620003a8565b601f19811693600261020051526000805160206200553983398151915294610200515b8181106200046c57509482916001937fe3afa94108b5f5e82e5f6e539d161ff4b5402a85f696c67b9768ec3ae54ce366971062000452575b5050811b01600255620003bd565b85015160001960f88460031b161c19169055858062000444565b8583015187556001909601959184019184016200040c565b6002610200515260008051602062005539833981519152601f850160051c810191838610620004d5575b601f0160051c01905b818110620004c657506200036b565b610200518155600101620004b7565b9091508190620004ae565b634e487b7160e01b61020051526041600452602461020051fd5b34620002b8576020366003190112620002b8576200051762001820565b6200052162001cc3565b6001600160a01b039081169081156200057b57600054826bffffffffffffffffffffffff60a01b821617600055167f8be0079c531659141344cd1fd0a4f28419497f9722a3daafe3b4186f6b6457e0600080a36102005180f35b60405162461bcd60e51b815260206004820152602660248201527f4f776e61626c653a206e6577206f776e657220697320746865207a65726f206160448201526564647265737360d01b6064820152608490fd5b34620002b85760a0366003190112620002b857620005ec62001820565b50620005f762001837565b506084356001600160401b038111620002b8576200061a903690600401620018e4565b5060405163f23a6e6160e01b8152602090f35b34620002b85761020051366003190112620002b8576040516102005160025490826200065983620019e8565b9182825260209360019085600182169182600014620006f6575050600114620006a2575b506200068c925003836200186a565b620001b760405192828493845283019062001a4a565b84915060026102005152600080516020620055398339815191529061020051915b858310620006dd5750506200068c9350820101856200067d565b80548389018501528794508693909201918101620006c3565b60ff1916858201526200068c95151560051b85010192508791506200067d9050565b34620002b8576020366003190112620002b8576200073562001820565b6200073f62001cc3565b6001600160a01b031680156200079e57806102005152600460205260406102005120600160ff198254161790557fb840a1dbd8b09a3dc45161bba92dfb9aba643c0e44c085a447f839d1d02cf13b602060405160018152a26102005180f35b60405162461bcd60e51b8152602060048201526024808201527f43616e6e6f7420616464207a65726f206164647265737320746f2077686974656044820152631b1a5cdd60e21b6064820152608490fd5b34620002b8576040366003190112620002b8576200080c62001837565b6004356102005152602090600582528160018060a01b0360248160406102005120541693604051948593849263087bfdff60e21b84521660048301525afa908115620002bf57610200519162000866575b50604051908152f35b90508181813d831162000891575b6200088081836200186a565b81010312620002b85751826200085d565b503d62000874565b34620002b85761020051366003190112620002b85760206040517f00000000000000000000000000000000000000000000000000000000000000008152f35b34620002b85760a0366003190112620002b857620008f562001820565b506200090062001837565b506001600160401b03604435818111620002b8576200092490369060040162001980565b50606435818111620002b8576200094090369060040162001980565b50608435908111620002b8576200095c903690600401620018e4565b5060405163bc197c8160e01b8152602090f35b34620002b85761020051366003190112620002b8576040517f00000000000000000000000000000000000000000000000000000000000000006001600160a01b03168152602090f35b34620002b85761020051366003190112620002b8576020600154604051908152f35b34620002b85761020051366003190112620002b85761020051546040516001600160a01b039091168152602090f35b34620002b8576020366003190112620002b85762000a2662001820565b62000a3062001cc3565b6001600160a01b0316801562000a8e5780610200515260046020526040610200512060ff1981541690557fb840a1dbd8b09a3dc45161bba92dfb9aba643c0e44c085a447f839d1d02cf13b6020604051610200518152a26102005180f35b60405162461bcd60e51b815260206004820152602960248201527f43616e6e6f742072656d6f7665207a65726f20616464726573732066726f6d206044820152681dda1a5d195b1a5cdd60ba1b6064820152608490fd5b34620002b8576101e0366003190112620002b8576004356001600160401b038111620002b85762000b1b9036906004016200191d565b610120526101e0526024356001600160401b038111620002b85762000b459036906004016200191d565b906044359160ff83168303620002b857608435926001600160a01b0384168403620014795760a4356001600160401b038111620002b85762000b8c9036906004016200191d565b610140529360c4356001600160401b038111620002b85762000bb39036906004016200191d565b60a05260c0526001600160401b0360e43511620002b85762000bdb3660e4356004016200191d565b60e052610100526001600160401b036101043511620002b85762000c0636610104356004016200194d565b94906001600160401b036101243511620002b85762000c2c36610124356004016200194d565b906001600160401b036101443511620002b85762000c5136610144356004016200191d565b6101c0526101a0526001600160401b036101843511620002b85762000c7d36610184356004016200191d565b61016052610180526001600160401b036101a43511620002b85762000ca9366101a4356004016200194d565b9490976001600160401b036101c43511620002b85762000cd0366101c4356004016200194d565b989097604051938461381c8101106001600160401b0361381c87011117620004e05762000d3d60ff91869561381c62001d1d883960c061381c88015262000d2660c061381c890101610120516101e05162001ad2565b9161381c88018303602061381c8a01015262001ad2565b921661381c8401604081019190915260643560608201526001600160a01b0391909116608082015280820360a09091015261020051600254909162000d8282620019e8565b808252916001811690811562001459575060011462001405575b5050039061020051f08015620002bf5760015461020051526005602052604061020051209060018060a01b03166bffffffffffffffffffffffff60a01b825416179055818803620013c0578584036200137b5762000dfa8862001af3565b97610200515b8181106200134157505050505062000e188162001af3565b608052610200515b818110620012cc5762000eb862000ec5888860405193849160a0602084015262000ea762000e9062000e7a62000e6160c08701610120516101e05162001ad2565b601f199788888303016040890152610140519062001ad2565b8686820301606087015260a05160c05162001ad2565b8585820301608086015260e0516101005162001ad2565b90848483030160a085015262001bcd565b039081018352826200186a565b604051908160808101106001600160401b03608084011117620012b6576080820160405262000efc366101c0516101a051620018a8565b825261016435602083015262000f1a366101605161018051620018a8565b604083015260805160608301526103e8420142116200124757604051918260608101106001600160401b03606085011117620012b657606083016040523083526103e842016020840152604051928360208101106001600160401b03602086011117620012b657620010296040938560206200107b9701865261020051815285840152620010b060018060a01b0360035416936060878051998a9889978897637253106560e11b89527f000000000000000000000000000000000000000000000000000000000000000060048a015260018060a01b037f00000000000000000000000000000000000000000000000000000000000000001660248a015260a060448a015260a489019062001a4a565b600319888203016064890152846200106a6200104f845160808552608085019062001a4a565b60208501516020850152868501518482038886015262001a4a565b920151908581840391015262001bcd565b85810360031901608487015283516001600160a01b031681526020808501519082015292015188830182905291019062001a4a565b039161020051905af1806102005192610200519262001261575b50620011d9576102005160033d11620011bf575b6308c379a0146200117e575b3d1562001178573d620010fd816200188c565b906200110d60405192836200186a565b8152610200513d916020013e5b60405162461bcd60e51b815260206004820152603060248201527f6d696e74416e645265676973746572497057697468536967206661696c65642060448201526f3bb4ba3437baba1030903932b0b9b7b760811b6064820152608490fd5b6200111a565b6200118862001c4f565b80620011955750620010ea565b60405162461bcd60e51b815260206004820152908190620011bb90602483019062001a4a565b0390fd5b50600461020051610200513e610200515160e01c620010de565b60015480610200515260056020527fa7e413fe202751b16372ffdcbabdfd049a0017d31bb273a60806e7195c7d26f3602060018060a01b03604061020051205416936040519060018060a01b03168152a4600154600019811462001247576001016001556102005161020051f35b634e487b7160e01b61020051526011600452602461020051fd5b925090506040823d604011620012ad575b8162001281604093836200186a565b81010312620002b8578151602090920151916001600160a01b0383168303620002b857919083620010ca565b3d915062001272565b634e487b7160e01b600052604160045260246000fd5b8062001317620012e0600193858962001b5d565b91906200130d620012f3858a8a62001b5d565b9190926040519562001305876200184e565b3691620018a8565b84523691620018a8565b60208201526200132a8260805162001bb8565b52620013398160805162001bb8565b500162000e20565b8062001355620012e0600193858962001b5d565b602082015262001366828d62001bb8565b5262001373818c62001bb8565b500162000e00565b60405162461bcd60e51b815260206004820152601d60248201527f49502061747472696275746573206c656e677468206d69736d617463680000006044820152606490fd5b60405162461bcd60e51b815260206004820152601e60248201527f4e46542061747472696275746573206c656e677468206d69736d6174636800006044820152606490fd5b6102008051600290525191939250600080516020620055398339815191525b8483106200143c5750602092935001018c8062000d9c565b602091935080600191548385870101520191019091849262001424565b90506020935060ff929192191683830152151560051b01018c8062000d9c565b600080fd5b34620002b85761020051366003190112620002b8576200149d62001cc3565b600080546001600160a01b0319811682556001600160a01b03167f8be0079c531659141344cd1fd0a4f28419497f9722a3daafe3b4186f6b6457e08280a36102005180f35b34620002b8576060366003190112620002b857620014ff62001837565b6044356001600160401b03808211620002b85736602383011215620002b8576024916004810135620015318162001905565b916200154160405193846200186a565b818352602091858385019160051b83010191368311620002b857868101915b8383106200166a57505050503361020051526004815260ff60406102005120541615620016275760059060043561020051525260018060a01b039384604061020051205416803b15620002b8576040519586926312e01e4560e11b84521660048301526040858301528180620015df6102005195604483019062001a71565b039161020051905af18015620002bf57620015fc575b6102005180f35b8211620016105750604052808080620015f5565b6102008051634e487b7160e01b9052604160045251fd5b6064906019856040519262461bcd60e51b845260048401528201527f43616c6c6572206973206e6f742077686974656c6973746564000000000000006044820152fd5b8235878111620002b85785916200168883928b3691870101620018e4565b81520192019162001560565b34620002b85761020051366003190112620002b8576003546040516001600160a01b039091168152602090f35b34620002b8576020366003190112620002b8576001600160a01b03620016e662001820565b1661020051526004602052602060ff6040610200512054166040519015158152f35b34620002b8576040366003190112620002b8576024356001600160401b038111620002b8576200173d903690600401620018e4565b50604051630b135d3f60e11b8152602090f35b34620002b8576080366003190112620002b8576200176d62001820565b506200177862001837565b506064356001600160401b038111620002b8576200179b903690600401620018e4565b50604051630a85bd0160e11b8152602090f35b34620002b8576020366003190112620002b8576004359063ffffffff60e01b8216809203620002b857602091630271189760e51b81149081156200180e575b8115620017fc575b5015158152f35b6301ffc9a760e01b14905083620017f5565b630a85bd0160e11b81149150620017ed565b600435906001600160a01b03821682036200147957565b602435906001600160a01b03821682036200147957565b604081019081106001600160401b03821117620012b657604052565b90601f801991011681019081106001600160401b03821117620012b657604052565b6001600160401b038111620012b657601f01601f191660200190565b929192620018b6826200188c565b91620018c660405193846200186a565b82948184528183011162001479578281602093846000960137010152565b9080601f8301121562001479578160206200190293359101620018a8565b90565b6001600160401b038111620012b65760051b60200190565b9181601f8401121562001479578235916001600160401b0383116200147957602083818601950101116200147957565b9181601f8401121562001479578235916001600160401b03831162001479576020808501948460051b0101116200147957565b9080601f83011215620014795760209082356200199d8162001905565b93620019ad60405195866200186a565b81855260208086019260051b8201019283116200147957602001905b828210620019d8575050505090565b81358152908301908301620019c9565b90600182811c9216801562001a1a575b602083101462001a0457565b634e487b7160e01b600052602260045260246000fd5b91607f1691620019f8565b60005b83811062001a395750506000910152565b818101518382015260200162001a28565b9060209162001a658151809281855285808601910162001a25565b601f01601f1916010190565b90808251908181526020809101926020808460051b8301019501936000915b84831062001aa15750505050505090565b909192939495848062001ac1600193601f198682030187528a5162001a4a565b980193019301919493929062001a90565b908060209392818452848401376000828201840152601f01601f1916010190565b9062001aff8262001905565b60409062001b1160405191826200186a565b838152809362001b24601f199162001905565b019160005b83811062001b375750505050565b602090825162001b47816200184e565b6060808252838201528482018301520162001b29565b919081101562001ba25760051b81013590601e1981360301821215620014795701908135916001600160401b0383116200147957602001823603811362001479579190565b634e487b7160e01b600052603260045260246000fd5b805182101562001ba25760209160051b010190565b908082519081815260208091019281808460051b8301019501936000915b84831062001bfc5750505050505090565b909192939495848062001c3e600193601f198682030187528a51908362001c2d604084519080855284019062001a4a565b920151908481840391015262001a4a565b980193019301919493929062001beb565b600060443d106200190257604051600319913d83016004833e81516001600160401b03918282113d60248401111762001cb25781840194855193841162001cba573d8501016020848701011162001cb2575062001902929101602001906200186a565b949350505050565b50949350505050565b6000546001600160a01b0316330362001cd857565b606460405162461bcd60e51b815260206004820152602060248201527f4f776e61626c653a2063616c6c6572206973206e6f7420746865206f776e65726044820152fdfe610100806040523462000c62576200381c803803809162000021828562000c67565b8339810160c08282031262000c625781516001600160401b03811162000c6257816200004f91840162000c8b565b60208301519092906001600160401b03811162000c6257826200007491830162000c8b565b60408201519060ff8216820362000c625760608301516080840151949093906001600160a01b038616860362000c625760a08201516001600160401b03811162000c6257620000c4920162000c8b565b60008054336001600160a01b0319821681178355929792916001600160a01b03909116907f8be0079c531659141344cd1fd0a4f28419497f9722a3daafe3b4186f6b6457e09080a38051906001600160401b0382116200065c5781906200012d60035462000d01565b601f811162000bfe575b50602090601f831160011462000b805760009262000b74575b50508160011b916000199060031b1c1916176003555b8051906001600160401b0382116200065c5781906200018760045462000d01565b601f811162000aff575b50602090601f831160011462000a705760009262000a64575b50508160011b916000199060031b1c1916176004555b601260ff82161062000a525780608052604d60ff821611620006465760ff16600a0a60a0524660c052604051600354816000620001fd8362000d01565b808352926001811690811562000a315750600114620009de575b620002259250038262000c67565b6020815191012060405160208101917f8b73c3c69bb8fe3d512ecc4cf759cc79239f7b179b0ffacaa9a75d522b39400f835260408201527fc89efdaa54c0f20c7adf612882df0950f5a951637e0307cdcb4c672f298b8bc660608201524660808201523060a082015260a0815260c0810181811060018060401b038211176200065c5760405251902060e05282516001600160401b0381116200065c57620002cf600f5462000d01565b601f811162000985575b506020601f82116001146200090c578192939460009262000900575b50508160011b916000199060031b1c191617600f555b6001600160a01b03821615620008ee576001600160a01b0382166000908152600c6020526040812054905b818110620006f45750506001600160a01b0382166000908152600d60205260409020805460ff1916600117905580158015620003cb575b6040516129be908162000dfe823960805181611146015260a051818181610cb60152818161138e01528181611eaf015281816120d0015281816121fe0152818161227801526122db015260c05181611a43015260e05181611a6a0152f35b60a051808302928304141715620006465760055490600160ff1b620003f1828462000d3e565b11620006d057600760205260018060a01b0383166000526200041a816040600020549362000d3e565b6005556001600160a01b03831660008181526007602090815260408083208054860190555193845291929091600080516020620037dc83398151915291a36001600160a01b0382166000908152600d602052604090205460ff161562000482575b806200036d565b6007602052620004aa6200049f60406000205460a0519062000d4c565b9160a0519062000d4c565b8103908111620006465760005b818110620004c657506200047b565b6001600160a01b03831615620006e257600154608081901c6001600160801b03909116146200069657600154608081901c6001600160801b03821614620006845760001960809190911c016001600160801b0381166000908152600260205260408120805492919055600180546001600160801b031660809290921b6001600160801b031916919091179055905b6000828152600b60205260409020546001600160a01b0316918262000672576000818152600b6020908152604080832080546001600160a01b0319166001600160a01b038a169081019091558352600c90915290208054680100000000000000008110156200065c57620005d481620005ed936001869401815562000d6d565b90919082549060031b91821b91600019901b1916179055565b6001600160a01b0385166000908152600c60205260409020546000198101939084116200064657620006226001948362000d9c565b838060a01b03861690600080516020620037dc833981519152600080a401620004b7565b634e487b7160e01b600052601160045260246000fd5b634e487b7160e01b600052604160045260246000fd5b60405163119b4fd360e11b8152600490fd5b6040516375e52f4f60e01b8152600490fd5b60068054906000199081831462000646576001830180915514620006d0576001600160ff1b0101600160ff1b811062000646579062000554565b60405163303b682f60e01b8152600490fd5b604051634e46966960e11b8152600490fd5b6001600160a01b03841615620008dc576001600160a01b0384166000908152600c60205260409020805460001981019081116200064657620007369162000d6d565b905460039190911b1c600081815260096020908152604080832080546001600160a01b03191690556001600160a01b0388168352600c90915290208054919291906000198201821062000646576200079391600019019062000d6d565b90549060031b1c82810362000891575b506001600160a01b0385166000908152600c60205260409020805480156200087b576000190190620007d6828262000d6d565b8154906000199060031b1b191690555581600052600b6020526000604081205581600060018060a01b038716600080516020620037dc8339815191528280a46001546001600160801b0380821660001901169060801c811462000869576001600160801b038116600090815260026020526040902092909255600180546001600160801b03191690921782550162000336565b604051638acb5f2760e01b8152600490fd5b634e487b7160e01b600052603160045260246000fd5b620008d59083600052600b60205260406000205460a01c9060018060a01b038816600052600c602052620008cf81620005d484604060002062000d6d565b62000d9c565b38620007a3565b604051636edaef2f60e11b8152600490fd5b60405163a41e3d3f60e01b8152600490fd5b015190503880620002f5565b600f6000908152600080516020620037fc8339815191529190601f198416905b8181106200096c5750958360019596971062000952575b505050811b01600f556200030b565b015160001960f88460031b161c1916905538808062000943565b9192602060018192868b0151815501940192016200092c565b600f600052600080516020620037fc833981519152601f830160051c81019160208410620009d3575b601f0160051c01905b818110620009c65750620002d9565b60008155600101620009b7565b9091508190620009ae565b50600360009081529091600080516020620037bc8339815191525b81831062000a14575050906020620002259282010162000217565b6020919350806001915483858801015201910190918392620009f9565b602092506200022594915060ff191682840152151560051b82010162000217565b6040516398790fd560e01b8152600490fd5b015190503880620001aa565b6004600090815293507f8a35acfbc15ff81a39ae7d344fd709f28e8600b4aa8c65c6b64bfe7fe36bd19b91905b601f198416851062000ae3576001945083601f1981161062000ac9575b505050811b01600455620001c0565b015160001960f88460031b161c1916905538808062000aba565b8181015183556020948501946001909301929091019062000a9d565b60046000529091507f8a35acfbc15ff81a39ae7d344fd709f28e8600b4aa8c65c6b64bfe7fe36bd19b601f840160051c8101916020851062000b69575b90601f859493920160051c01905b81811062000b59575062000191565b6000815584935060010162000b4a565b909150819062000b3c565b01519050388062000150565b600360009081529350600080516020620037bc83398151915291905b601f198416851062000be2576001945083601f1981161062000bc8575b505050811b0160035562000166565b015160001960f88460031b161c1916905538808062000bb9565b8181015183556020948501946001909301929091019062000b9c565b6003600052909150600080516020620037bc833981519152601f840160051c8101916020851062000c57575b90601f859493920160051c01905b81811062000c47575062000137565b6000815584935060010162000c38565b909150819062000c2a565b600080fd5b601f909101601f19168101906001600160401b038211908210176200065c57604052565b919080601f8401121562000c625782516001600160401b0381116200065c576020906040519262000cc683601f19601f850116018562000c67565b81845282828701011162000c625760005b81811062000ced57508260009394955001015290565b858101830151848201840152820162000cd7565b90600182811c9216801562000d33575b602083101462000d1d57565b634e487b7160e01b600052602260045260246000fd5b91607f169162000d11565b919082018092116200064657565b811562000d57570490565b634e487b7160e01b600052601260045260246000fd5b805482101562000d865760005260206000200190600090565b634e487b7160e01b600052603260045260246000fd5b6000818152600b602052604090205491906001600160601b03821162000deb576000908152600b602052604090206001600160a01b039290921660a09190911b6001600160a01b031916019055565b604051633f2cd0e360e21b8152600490fdfe608060408181526004918236101561001657600080fd5b600090813560e01c90816301ffc9a7146116d75750806302519da314610eb657806306fdde0314611625578063081812fc146115f2578063095ea7b3146115c957806309674eb01461159957806309f0ef651461157357806318160ddd14610e0557806321eff7fc1461153b57806323b872dd1461151f57806325c03c8a1461116a578063313ce5671461112c5780633644e5151461110857806342842e0e146110ba5780634d966072146110915780634f02c42014610a7a5780636352211e146110165780636367da9c14610f0d5780636e8f624b14610eee57806370a0823114610eb6578063715018a614610e5c5780637ecebe0014610e2457806389fb4c6614610e055780638a696e5014610dde5780638da5cb5b14610db657806395d89b4114610cd9578063976a843514610c9e578063a22cb46514610c01578063a9059cbb14610bb8578063b1ab931714610b36578063b3f9ea3414610afe578063b88d4fde14610a99578063c5ab3ba614610a7a578063c6e672b914610a48578063c87b56dd146107f0578063d505accf146105c3578063d96ca0b91461059e578063dd62ed3e14610555578063dd6376991461053d578063dfabc03314610515578063e985e9c5146104c3578063eac989f8146103da578063f2fde38b146103135763f780bc1a1461020857600080fd5b34610310578160031936011261031057508135906024356102288161184b565b9261023583519485611796565b818452601f196102448361184b565b0136602086013780946102686001546001600160801b03908181169060801c031690565b926001600160801b039160019485928460015416935b610294575b8751806102908b82611929565b0390f35b6102a281879a99989a611feb565b8a101561030757818a10156102f757888a6102db8780849e9d9b9c9d168801166001600160801b03166000526002602052604060002090565b546102ef6102e98a84611d89565b8d6119fc565b52019961027e565b865163580821e760e01b81528390fd5b86979850610283565b80fd5b5091346103d65760203660031901126103d65761032e61172b565b90610337611ff8565b6001600160a01b0391821692831561038457505082546001600160a01b0319811683178455167f8be0079c531659141344cd1fd0a4f28419497f9722a3daafe3b4186f6b6457e08380a380f35b906020608492519162461bcd60e51b8352820152602660248201527f4f776e61626c653a206e6577206f776e657220697320746865207a65726f206160448201526564647265737360d01b6064820152fd5b8280fd5b50346103105780600319360112610310578151918282600f546103fc8161175c565b908184526020956001918760018216918260001461049c575050600114610440575b5050506102909291610431910385611796565b519282849384528301906117f1565b9190869350600f83527f8d1108e10bcb7c27dddfc02ed9d693a074039d026cf4ea4240b40f7d581ac8025b828410610484575050508201018161043161029061041e565b8054848a01860152889550879490930192810161046b565b60ff19168782015293151560051b860190930193508492506104319150610290905061041e565b50903461051157806003193601126105115760ff816020936104e361172b565b6104eb611746565b6001600160a01b039182168352600a875283832091168252855220549151911615158152f35b5080fd5b509034610511573660031901126103105761053a61053161172b565b60243590611f49565b80f35b50346103105761053a61054f36611816565b91611e45565b5090346105115780600319360112610511578060209261057361172b565b61057b611746565b6001600160a01b0391821683526008865283832091168252845220549051908152f35b509034610511576020906105ba6105b436611816565b91611dac565b90519015158152f35b5090346105115760e0366003190112610511576105de61172b565b906105e7611746565b604435606435926084359260ff84168094036107ec574285106107dc57600160ff1b8311806107d0575b6107c0576001600160a01b039081169586156107b05781610630611a3e565b911695868952602095600e8752848a2092835493600185019055855192888401947f6e71edae12b1b97f4d1f60370fef10105fa2faae0126114a169c64845d6126c986528a888601528b606086015288608086015260a085015260c084015260c0835260e0830167ffffffffffffffff948482108683111761079c578188528451902061010085019261190160f01b8452610102860152610122850152604281526101608401948186109086111761078957848752519020835261018082015260a4356101a082015260c4356101c0909101528780528490889060809060015afa1561077f5786511680158015610775575b610765578652600883528086208587528352808620829055519081527f8c5be1e5ebec7d5bd14f71427d1e84f3dd0314c0f7b2291e5b200ac8c7c3b9259190a380f35b8151632057875960e21b81528890fd5b5084811415610722565b81513d88823e3d90fd5b634e487b7160e01b8c5260418d5260248cfd5b50634e487b7160e01b8c5260418d5260248cfd5b8251635461585f60e01b81528990fd5b81516303e7c1bd60e31b81528890fd5b50600019831415610611565b81516305787bdf60e01b81528890fd5b8680fd5b509190346103d65760209182600319360112610a4457803590819480917a184f03e93ff9f4daa797ed6e38ed64bf6a1f01000000000000000080851015610a37575b506d04ee2d6d415b85acef810000000080881015610a29575b50662386f26fc1000080881015610a1a575b506305f5e10080881015610a0b575b50612710808810156109fc575b505060648610156109ec575b600a809610156109e2575b60019160018101966108b96108a489611863565b986108b188519a8b611796565b808a52611863565b94846021898b0194601f198099013687378b0101905b6109b3575b505050845196879383600f54916108ea8361175c565b928a60018216918260001461098c57505060011461092c575b505050918061091f6104319593610290989795519384916117ce565b0103908101865285611796565b8993949550600f82527f8d1108e10bcb7c27dddfc02ed9d693a074039d026cf4ea4240b40f7d581ac8025b8383106109725750505084010191908061091f610290610903565b80549783018501979097528a968a94909201918101610957565b60ff1916898201528415159094028801909301955083925061091f91506102909050610903565b600019019082906f181899199a1a9b1b9c1cb0b131b232b360811b8282061a8353049085826108cf57506108d4565b9060010190610890565b9094606460029104950190610885565b90919296049501903880610879565b6008919397049601913861086c565b6010919397049601913861085d565b86919397049601913861084b565b8404965084925038610832565b8380fd5b509034610511573660031901126103105761053a610a6461172b565b610a6c61191a565b90610a75611ff8565b612050565b5090346105115781600319360112610511576020906006549051908152f35b50823461051157608036600319011261051157610ab461172b565b610abc611746565b9060643567ffffffffffffffff8111610afa5736602382011215610afa5761053a93816024610af09336930135910161187f565b9160443591611c56565b8480fd5b5090346105115760203660031901126105115760209181906001600160a01b03610b2661172b565b168152600c845220549051908152f35b5090346105115760209060206003193601126103d6576001600160a01b03610b5c61172b565b168352600c60205280832092815180936020865492838152019583526020832092905b828210610ba1576102908686610b97828b0383611796565b5191829182611929565b835487529586019560019384019390910190610b7f565b503461031057816003193601126103105750610bd261172b565b916001600160a01b03831615610bf357506105ba6020926024359033612174565b9051634e46966960e11b8152fd5b509190346103d657806003193601126103d657610c1c61172b565b90610c2561191a565b6001600160a01b03909216928315610c905750338452600a602052808420838552602052610c61828286209060ff801983541691151516179055565b5190151581527f17307eab39ab6107e8899845ad3d59bd9653f200f220920489ca2b5937696c3160203392a380f35b905163ccea9e6f60e01b8152fd5b509034610511578160031936011261051157602090517f00000000000000000000000000000000000000000000000000000000000000008152f35b509190346103d657826003193601126103d6578051838194908454610cfd8161175c565b9182855260209660019288600182169182600014610d8c575050600114610d31575b858861029089610431848a0385611796565b815286935091907f8a35acfbc15ff81a39ae7d344fd709f28e8600b4aa8c65c6b64bfe7fe36bd19b5b828410610d74575050508201018161043161029038610d1f565b8054848a018601528895508794909301928101610d5a565b60ff19168882015294151560051b8701909401945085935061043192506102909150389050610d1f565b509034610511578160031936011261051157905490516001600160a01b039091168152602090f35b508234610511576020366003190112610511573580151581036105115761053a9033612050565b5090346105115781600319360112610511576020906005549051908152f35b5090346105115760203660031901126105115760209181906001600160a01b03610e4c61172b565b168152600e845220549051908152f35b5034610310578060031936011261031057610e75611ff8565b80546001600160a01b03198116825581906001600160a01b03167f8be0079c531659141344cd1fd0a4f28419497f9722a3daafe3b4186f6b6457e08280a380f35b5090346105115760203660031901126105115760209181906001600160a01b03610ede61172b565b1681526007845220549051908152f35b50903461051157816003193601126105115751600160ff1b8152602090f35b50903461051157602090816003193601126103d65782906001600160a01b03610f3461172b565b1682526010835280822091825490610f4b8261184b565b93610f5884519586611796565b82855281528481209481908086015b848310610f7b5785518061029089826118b6565b85518285928a5492610f8c8461175c565b808252600194808616908115610ffa5750600114610fc2575b50610fb4816001960382611796565b815201980192019196610f67565b8c8952838920955088905b808210610fe35750810183019450610fb4610fa5565b865483830186015295850195879490910190610fcd565b60ff19168584015250151560051b810183019450610fb4610fa5565b509034610511576020366003190112610511578235808352600b60205291819020546001600160a01b031691600160ff1b81119081611084575b5015611075578115611066576020925051908152f35b5163c5723b5160e01b81529050fd5b516307ed98ed60e31b81529050fd5b6000191415905038611050565b5090346105115780600319360112610511576020906105ba6110b161172b565b60243590611be7565b509034610511576110ca36611816565b91835193602085019085821067ffffffffffffffff8311176110f55761053a96975052858452611c56565b634e487b7160e01b875260418852602487fd5b509034610511578160031936011261051157602090611125611a3e565b9051908152f35b5090346105115781600319360112610511576020905160ff7f0000000000000000000000000000000000000000000000000000000000000000168152f35b50823461051157826003193601126105115761118461172b565b91602480359067ffffffffffffffff9283831161031057366023840112156103105782850135926111b48461184b565b976111c18151998a611796565b848952602091828a018560059760051b8301019136831161151b57868101915b8383106114e057505050506111f4611ff8565b6001600160a01b038816835b8a5181101561138257818552601084528285209061121e818d6119fc565b51918054600160401b8110156113705761123f906001928382018155611a26565b91909161135f578351908b821161134d5761125a835461175c565b94601f9586811161130b575b50889583116001146112a357829160019683928c94611298575b50501b916000199060031b1c19161790555b01611200565b015192503880611280565b90929394601f19831691858b52898b20928b5b8b8282106112f75750509084600198979695949392106112de575b505050811b019055611292565b015160001960f88460031b161c191690558f80806112d1565b8385015186559487019493840193016112b6565b848b52898b208d88808701821c8301938d8810611344575b01901c019083905b828110611339575050611266565b8c815501839061132b565b93508293611323565b634e487b7160e01b895260418d528989fd5b634e487b7160e01b8852878c528888fd5b634e487b7160e01b885260418c528888fd5b5092938789918b9485517f000000000000000000000000000000000000000000000000000000000000000092838202918083048514901517156114cf575087156114bf5760055493600160ff1b6113d98387611feb565b116114b1575088600080516020612969833981519152838a9360078252848452611407818b86205499611feb565b600555848452600782528984208181540190558951908152a36114298461199e565b15611467575b87877f9db9873cd0c3e9e21710778297adb5b1a923b4c4663a32440d58dc743a5478da611461898951918291826118b6565b0390a280f35b61148f9291600761148992898b525261148381878b2054612154565b92612154565b90611d89565b90855b82811061149f578061142f565b6001906114ab836127cf565b01611492565b865163303b682f60e01b8152fd5b8551634e46966960e11b81528490fd5b634e487b7160e01b8a526011855289fd5b82358a81116115175782013660438201121561151757869161150c8392369060448d820135910161187f565b8152019201916111e1565b8780fd5b8580fd5b509034610511576020906105ba61153536611816565b916119ca565b5090346105115760203660031901126105115760209181906001600160a01b0361156361172b565b1681526010845220549051908152f35b509034610511576020366003190112610511576020906105ba61159461172b565b61199e565b5090346105115781600319360112610511576020906111256001546001600160801b03908181169060801c031690565b5090346105115780600319360112610511576020906105ba6115e961172b565b60243590611965565b5091346103d65760203660031901126103d65735825260096020908152918190205490516001600160a01b039091168152f35b503461031057806003193601126103105781519182826003546116478161175c565b908184526020956001918760018216918260001461049c57505060011461167b575050506102909291610431910385611796565b9190869350600383527fc2575a0e9e593c00f959f8c92f12db2869c3395a3b0502d05e2516446f71f85b5b8284106116bf575050508201018161043161029061041e565b8054848a0186015288955087949093019281016116a6565b905083346103d65760203660031901126103d6573563ffffffff60e01b81168091036103d6576020925063caf91ff560e01b811490811561171a575b5015158152f35b6301ffc9a760e01b14905083611713565b600435906001600160a01b038216820361174157565b600080fd5b602435906001600160a01b038216820361174157565b90600182811c9216801561178c575b602083101461177657565b634e487b7160e01b600052602260045260246000fd5b91607f169161176b565b90601f8019910116810190811067ffffffffffffffff8211176117b857604052565b634e487b7160e01b600052604160045260246000fd5b60005b8381106117e15750506000910152565b81810151838201526020016117d1565b9060209161180a815180928185528580860191016117ce565b601f01601f1916010190565b6060906003190112611741576001600160a01b0390600435828116810361174157916024359081168103611741579060443590565b67ffffffffffffffff81116117b85760051b60200190565b67ffffffffffffffff81116117b857601f01601f191660200190565b92919261188b82611863565b916118996040519384611796565b829481845281830111611741578281602093846000960137010152565b6020808201906020835283518092526040830192602060408460051b8301019501936000915b8483106118ec5750505050505090565b909192939495848061190a600193603f198682030187528a516117f1565b98019301930191949392906118dc565b60243590811515820361174157565b602090602060408183019282815285518094520193019160005b828110611951575050505090565b835185529381019392810192600101611943565b90600160ff1b811180611992575b156119865761198191611f49565b600190565b61198f91611be7565b90565b50600019811415611973565b6001600160a01b031680159081156119b4575090565b9050600052600d60205260ff6040600020541690565b9190600160ff1b8211806119f0575b156119e75761198192611e45565b61198f92611dac565b506000198214156119d9565b8051821015611a105760209160051b010190565b634e487b7160e01b600052603260045260246000fd5b8054821015611a105760005260206000200190600090565b6000467f000000000000000000000000000000000000000000000000000000000000000003611a8c57507f000000000000000000000000000000000000000000000000000000000000000090565b6040516003548291611a9d8261175c565b808252816020948582019460019087600182169182600014611bc9575050600114611b6f575b50611ad092500382611796565b51902091604051918201927f8b73c3c69bb8fe3d512ecc4cf759cc79239f7b179b0ffacaa9a75d522b39400f845260408301527fc89efdaa54c0f20c7adf612882df0950f5a951637e0307cdcb4c672f298b8bc660608301524660808301523060a083015260a0825260c082019082821067ffffffffffffffff831117611b5b575060405251902090565b634e487b7160e01b81526041600452602490fd5b6003885286915087907fc2575a0e9e593c00f959f8c92f12db2869c3395a3b0502d05e2516446f71f85b5b858310611bb1575050611ad0935082010138611ac3565b80548388018501528694508893909201918101611b9a565b60ff19168852611ad095151560051b8501019250389150611ac39050565b6001600160a01b0316908115611c4457336000526008602052604060002082600052602052806040600020556040519081527f8c5be1e5ebec7d5bd14f71427d1e84f3dd0314c0f7b2291e5b200ac8c7c3b92560203392a3600190565b604051635461585f60e01b8152600490fd5b919092600160ff1b821180611d7d575b15611d6b57611c768285856119ca565b50833b15159384611c9e575b50505050611c8c57565b604051633da6393160e01b8152600490fd5b611ce89394509060209160018060a01b039360405180968194829388630a85bd0160e11b9b8c865233600487015216602485015260448401526080606484015260848301906117f1565b03916000958691165af1918215611d5e578192611d17575b50506001600160e01b031916141538808080611c82565b9091506020813d602011611d56575b81611d3360209383611796565b810103126105115751906001600160e01b03198216820361031057503880611d00565b3d9150611d26565b50604051903d90823e3d90fd5b6040516307ed98ed60e31b8152600490fd5b50600019821415611c66565b91908203918211611d9657565b634e487b7160e01b600052601160045260246000fd5b6001600160a01b03808216939291908415611e3357821615611e215761198f9383600082815260086020526040812033825260205260408120546000198103611df9575b50505050612174565b604092611e0591611d89565b9281526008602052818120338252602052205538838180611df0565b604051634e46966960e11b8152600490fd5b604051636edaef2f60e11b8152600490fd5b6001600160a01b03939291908481168015611e335785831615611e2157600095848752600b6020526040968188822054168303611f39578790833314159384611f15575b5083611efd575b505050611eed57611ea08261199e565b611edc57611eda939450611ed57f000000000000000000000000000000000000000000000000000000000000000083836123e8565b612459565b565b8451635ce7539760e01b8152600490fd5b84516282b42960e81b8152600490fd5b86815260096020522054163314159050388681611e90565b915080935052600a6020528682203383526020528660ff8184205416159238611e89565b87516282b42960e81b8152600490fd5b6000828152600b60205260408120546001600160a01b03908116913383141580611fca575b611fb9577f8c5be1e5ebec7d5bd14f71427d1e84f3dd0314c0f7b2291e5b200ac8c7c3b92591858252600960205260408220941693846001600160601b0360a01b82541617905580a4565b6040516282b42960e81b8152600490fd5b50828152600a6020526040812033825260205260ff60408220541615611f6e565b91908201809211611d9657565b6000546001600160a01b0316330361200c57565b606460405162461bcd60e51b815260206004820152602060248201527f4f776e61626c653a2063616c6c6572206973206e6f7420746865206f776e65726044820152fd5b91906001600160a01b03831680156121425781156120ba5780600052600c60205260406000205460005b8181106120a8575050611eda9293505b600052600d60205260406000209060ff801983541691151516179055565b6001906120b487612644565b0161207a565b91908260005260076020526120f56040600020547f000000000000000000000000000000000000000000000000000000000000000090612154565b9280600052600c60205260406000205460005b6121128287611d89565b8110156121325790600161211292612129896127cf565b01909150612108565b505090919350611eda925061208a565b60405163a41e3d3f60e01b8152600490fd5b811561215e570490565b634e487b7160e01b600052601260045260246000fd5b919060018060a01b039182841660009481865260209060078252604092838820549686169687895284892054956121ac8189866123e8565b6121b58461199e565b6121be8961199e565b9080806123e1575b156121dd575b505050505050505050505050600190565b156122545750505050509060076114899261222495968852528520546114837f00000000000000000000000000000000000000000000000000000000000000008092612154565b915b828110612242575050505b3880808080808080808080806121cc565b60019061224e836127cf565b01612226565b98909196929793986000146122cd5750505050916114899160076122aa959461229e7f00000000000000000000000000000000000000000000000000000000000000008095612154565b95895252862054612154565b915b8281106122bb57505050612231565b6001906122c783612644565b016122ac565b9196979095612301999493997f00000000000000000000000000000000000000000000000000000000000000008098612154565b988991865b83811061237f57509488969294611489989488966123446007956123316123559f9e6114839c612154565b9088528686526114898a8a8a2054612154565b11612370575b508352522054612154565b11612361575b50612231565b61236a906127cf565b3861235b565b61237990612644565b3861234a565b90918093508752600c808752888820549060001982019182116123cd578d6123b5600194936123c393888d528b528c8c20611a26565b90549060031b1c9087612459565b01908a9291612306565b634e487b7160e01b89526011600452602489fd5b50816121c6565b6001600160a01b0390811691600080516020612969833981519152916020918461243a5761241886600554611feb565b6005555b169384600052600782526040600020818154019055604051908152a3565b84600052600783526040600020612452878254611d89565b905561241c565b6001600160a01b039081169182612552575b1690811561253d576000838152600b60205260408120836001600160601b0360a01b825416019055828152600c60205260408120805490600160401b821015612529576124c282879260016124db95018155611a26565b90919082549060031b91821b91600019901b1916179055565b828152600c60205260408120546000198101919082116125155750612500908461290d565b600080516020612969833981519152600080a4565b634e487b7160e01b81526011600452602490fd5b634e487b7160e01b83526041600452602483fd5b82600052600b60205260006040812055612500565b60008481526009602052604081206001600160601b0360a01b8154169055838152600c60205260408120805460001991828201918211612630579061259691611a26565b90549060031b1c8681036125f7575b50848252600c602052604082209182549081156125e3575001906125dd6125cc8383611a26565b8154906000199060031b1b19169055565b5561246b565b634e487b7160e01b81526031600452602490fd5b61262a90878452600b602052604084205460a01c90878552600c602052612625816124c28460408920611a26565b61290d565b386125a5565b634e487b7160e01b84526011600452602484fd5b6001600160a01b03168015611e33576000818152602090600c825260409081812093845460001995868201918211612630579061268091611a26565b90549060031b1c93848352600981528383206001600160601b0360a01b8154169055818352600c81528383208054908782019182116127bb57906126c391611a26565b90549060031b1c85810361278b575b50818352600c8152838320805480156127775791600b91888896959401906126fd6125cc8383611a26565b558484525281848120556000805160206129698339815191528280a4600154926001600160801b039081851601169260801c83146127675750612753826001600160801b03166000526002602052604060002090565b556001600160801b03196001541617600155565b51638acb5f2760e01b8152600490fd5b634e487b7160e01b85526031600452602485fd5b6127b590868552600b83528585205460a01c90848652600c8452612625816124c2848a8a20611a26565b386126d2565b634e487b7160e01b85526011600452602485fd5b6001600160a01b0381811615611e21576001546001600160801b0390600090608081901c908316146128af5750600154818160801c9116811461289d5760001901818116916000612851612836856001600160801b03166000526002602052604060002090565b54946001600160801b03166000526002602052604060002090565b55600154916001600160801b03199060801b16911617600155905b81600052600b60205260406000205416918261288b57611eda92612459565b60405163119b4fd360e11b8152600490fd5b6040516375e52f4f60e01b8152600490fd5b90506006546000198082146128f9576001820180600655146128e7576001600160ff1b010190600160ff1b821061251557509061286c565b60405163303b682f60e01b8152600490fd5b634e487b7160e01b83526011600452602483fd5b9081600052600b602052604060002054916001600160601b03821161295657600052600b6020526001600160601b0360a01b9060a01b169060018060a01b031601604060002055565b604051633f2cd0e360e21b8152600490fdfeddf252ad1be2c89b69c2b068fc378daa952ba7f163c4a11628f55a4df523b3efa2646970667358221220e49500b15ad0f1c02ee4c746b053cb20f7ab134ba9cdd2e06d5e74a3fa1c768564736f6c63430008170033c2575a0e9e593c00f959f8c92f12db2869c3395a3b0502d05e2516446f71f85bddf252ad1be2c89b69c2b068fc378daa952ba7f163c4a11628f55a4df523b3ef8d1108e10bcb7c27dddfc02ed9d693a074039d026cf4ea4240b40f7d581ac802405787fa12a823e0f2b7631cc41b3ba8828b3321ca811111fa75cd3aa3bb5acea26469706673582212208a6f1427fe9d213a1541bdb6587777c5296603aaa740e01deeaa82411e57c2d864736f6c63430008170033608060405234620005b45762001861803803806200001d81620005b9565b928339810190604081830312620005b45780516001600160401b0390818111620005b457836200004f918401620005f5565b9160209384820151838111620005b4576200006b9201620005f5565b60008054336001600160a01b031982168117835591959291906001600160a01b03167f8be0079c531659141344cd1fd0a4f28419497f9722a3daafe3b4186f6b6457e08780a38351918383116200030e576001948554938685811c95168015620005a9575b838610146200059557601f948581116200054d575b508083868211600114620004eb578991620004df575b50600019600383901b1c191690871b1786555b825185811162000407576002548781811c91168015620004d4575b84821014620003e8578581116200048b575b508083868211600114620004275789916200041b575b50600019600383901b1c191690871b176002555b80519085821162000407576007548781811c91168015620003fc575b84821014620003e85790818684931162000394575b5083908683116001146200032e57899262000322575b5050600019600383901b1c191690861b176007555b81519384116200030e576008548581811c9116801562000303575b82821014620002ef57838111620002a6575b50809284116001146200023c5750928293918392869462000230575b50501b916000199060031b1c1916176008555b600a556040516111f99081620006688239f35b0151925038806200020a565b919083601f198116600888528488209488905b888383106200028b575050501062000271575b505050811b016008556200021d565b015160001960f88460031b161c1916905538808062000262565b8587015188559096019594850194879350908101906200024f565b600887528187208480870160051c820192848810620002e5575b0160051c019086905b828110620002d9575050620001ee565b888155018690620002c9565b92508192620002c0565b634e487b7160e01b87526022600452602487fd5b90607f1690620001dc565b634e487b7160e01b86526041600452602486fd5b015190503880620001ac565b60078a52848a208994509190601f1984168b5b878282106200037d575050841162000363575b505050811b01600755620001c1565b015160001960f88460031b161c1916905538808062000354565b8385015186558c9790950194938401930162000341565b909150600789528389208680850160051c820192868610620003de575b918a91869594930160051c01915b828110620003cf57505062000196565b8b81558594508a9101620003bf565b92508192620003b1565b634e487b7160e01b89526022600452602489fd5b90607f169062000181565b634e487b7160e01b88526041600452602488fd5b90508401513862000151565b60028a52848a2089935090601f1983168b5b878282106200047457505083116200045a575b5050811b0160025562000165565b86015160001960f88460031b161c1916905538806200044c565b838a015185558c9690940193928301920162000439565b600289528389208680840160051c820192868510620004ca575b0160051c019088905b828110620004be5750506200013b565b8a8155018890620004ae565b92508192620004a5565b90607f169062000129565b905082015138620000fb565b888a52848a2089935090601f1983168b5b878282106200053657505083116200051c575b5050811b0186556200010e565b84015160001960f88460031b161c1916905538806200050f565b8388015185558c96909401939283019201620004fc565b8789528389208680840160051c8201928685106200058b575b0160051c019088905b8281106200057f575050620000e5565b8a81550188906200056f565b9250819262000566565b634e487b7160e01b88526022600452602488fd5b94607f1694620000d0565b600080fd5b6040519190601f01601f191682016001600160401b03811183821017620005df57604052565b634e487b7160e01b600052604160045260246000fd5b919080601f84011215620005b45782516001600160401b038111620005df576020906200062b601f8201601f19168301620005b9565b92818452828287010111620005b45760005b8181106200065357508260009394955001015290565b85810183015184820184015282016200063d56fe6080604081815260048036101561001557600080fd5b600092833560e01c90816301ffc9a714610aac5750806306fdde03146109dc578063081812fc146109bc578063095ea7b31461084c57806323b872dd1461082257806342842e0e146107f95780636352211e146107c857806370a0823114610737578063715018a6146106dd5780638da5cb5b146106b557806395d89b4114610599578063a22cb465146104ce578063b510391f14610374578063b69952e7146102c7578063b88d4fde14610270578063c87b56dd14610200578063e985e9c5146101ae5763f2fde38b146100e957600080fd5b346101aa5760203660031901126101aa57610102610b58565b9061010b610fad565b6001600160a01b0391821692831561015857505082546001600160a01b0319811683178455167f8be0079c531659141344cd1fd0a4f28419497f9722a3daafe3b4186f6b6457e08380a380f35b906020608492519162461bcd60e51b8352820152602660248201527f4f776e61626c653a206e6577206f776e657220697320746865207a65726f206160448201526564647265737360d01b6064820152fd5b8280fd5b5050346101fc57806003193601126101fc5760ff816020936101ce610b58565b6101d6610b73565b6001600160a01b0391821683526006875283832091168252855220549151911615158152f35b5080fd5b509190346101fc5760203660031901126101fc5761023f61023a61026c9435600052600360205260018060a01b0360406000205416151590565b610d15565b81815161024b81610bbe565b5280519161025883610bbe565b825251918291602083526020830190610b18565b0390f35b8382346101fc5760803660031901126101fc5761028b610b58565b610293610b73565b9060643567ffffffffffffffff81116102c3576102c0936102b691369101610c2e565b9160443591610d87565b80f35b8480fd5b50346101aa5760603660031901126101aa576102e1610b58565b82602319360112610370576102f4610fad565b6001600160a01b03161561031f5750600a548252600960205281206024358155600160443591015580f35b6020608492519162461bcd60e51b8352820152602660248201527f53504720616464726573732063616e6e6f7420626520746865207a65726f206160448201526564647265737360d01b6064820152fd5b8380fd5b508290346101fc57826003193601126101fc5761038f610b58565b9060243567ffffffffffffffff8111610370576103af9036908301610c2e565b50600a5491600183018093116104bb57600a8390556001600160a01b0316908115610478579060209483926104026103fc85600052600360205260018060a01b0360406000205416151590565b15611005565b600084815260036020526040902054610425906001600160a01b031615156103fc565b8286528652808520805460010190558285526003865280852080546001600160a01b0319168317905551937fddf252ad1be2c89b69c2b068fc378daa952ba7f163c4a11628f55a4df523b3ef8180a48152f35b606490602086519162461bcd60e51b8352820152602060248201527f4552433732313a206d696e7420746f20746865207a65726f20616464726573736044820152fd5b634e487b7160e01b845260118252602484fd5b5090346101aa57806003193601126101aa576104e8610b58565b90602435918215158093036102c3576001600160a01b0316923384146105575750338452600660205280842083855260205280842060ff1981541660ff8416179055519081527f17307eab39ab6107e8899845ad3d59bd9653f200f220920489ca2b5937696c3160203392a380f35b6020606492519162461bcd60e51b8352820152601960248201527f4552433732313a20617070726f766520746f2063616c6c6572000000000000006044820152fd5b5091346106b257806003193601126106b257815191816002549260018460011c91600186169586156106a8575b6020968785108114610695578899509688969785829a52918260001461066e575050600114610612575b50505061026c9291610603910385610bf0565b51928284938452830190610b18565b9190869350600283527f405787fa12a823e0f2b7631cc41b3ba8828b3321ca811111fa75cd3aa3bb5ace5b828410610656575050508201018161060361026c6105f0565b8054848a01860152889550879490930192810161063d565b60ff19168782015293151560051b86019093019350849250610603915061026c90506105f0565b634e487b7160e01b835260228a52602483fd5b92607f16926105c6565b80fd5b5050346101fc57816003193601126101fc57905490516001600160a01b039091168152602090f35b83346106b257806003193601126106b2576106f6610fad565b80546001600160a01b03198116825581906001600160a01b03167f8be0079c531659141344cd1fd0a4f28419497f9722a3daafe3b4186f6b6457e08280a380f35b5091346106b25760203660031901126106b2576001600160a01b0361075a610b58565b1680156107735781526020928352819020549051908152f35b825162461bcd60e51b8152602081860152602960248201527f4552433732313a2061646472657373207a65726f206973206e6f7420612076616044820152683634b21037bbb732b960b91b6064820152608490fd5b5091346106b25760203660031901126106b257506107e860209235610d61565b90516001600160a01b039091168152f35b5050346101fc576102c09061080d36610b89565b9192519261081a84610bbe565b858452610d87565b83346106b2576102c061083436610b89565b916108476108428433610dcf565b610cb3565b610e97565b50346101aa57816003193601126101aa57610865610b58565b6024359290916001600160a01b039190828061088087610d61565b1694169380851461096f57803314908115610950575b50156108e857508385526005602052842080546001600160a01b031916831790556108c083610d61565b167f8c5be1e5ebec7d5bd14f71427d1e84f3dd0314c0f7b2291e5b200ac8c7c3b9258480a480f35b6020608492519162461bcd60e51b8352820152603d60248201527f4552433732313a20617070726f76652063616c6c6572206973206e6f7420746f60448201527f6b656e206f776e6572206f7220617070726f76656420666f7220616c6c0000006064820152fd5b90508652600660205281862033875260205260ff828720541638610896565b506020608492519162461bcd60e51b8352820152602160248201527f4552433732313a20617070726f76616c20746f2063757272656e74206f776e656044820152603960f91b6064820152fd5b5091346106b25760203660031901126106b257506107e860209235610c75565b5091346106b257806003193601126106b25781519181600192600154938460011c9160018616958615610aa2575b6020968785108114610695578899509688969785829a52918260001461066e575050600114610a465750505061026c9291610603910385610bf0565b9190869350600183527fb10e2d527612073b26eecdfd717e6a320cf44b4afac2b0732d9fcbe2b7fa0cf65b828410610a8a575050508201018161060361026c6105f0565b8054848a018601528895508794909301928101610a71565b92607f1692610a0a565b925050346101aa5760203660031901126101aa573563ffffffff60e01b81168091036101aa57602092506380ac58cd60e01b8114908115610b07575b8115610af6575b5015158152f35b6301ffc9a760e01b14905038610aef565b635b5e139f60e01b81149150610ae8565b919082519283825260005b848110610b44575050826000602080949584010152601f8019910116010190565b602081830181015184830182015201610b23565b600435906001600160a01b0382168203610b6e57565b600080fd5b602435906001600160a01b0382168203610b6e57565b6060906003190112610b6e576001600160a01b03906004358281168103610b6e57916024359081168103610b6e579060443590565b6020810190811067ffffffffffffffff821117610bda57604052565b634e487b7160e01b600052604160045260246000fd5b90601f8019910116810190811067ffffffffffffffff821117610bda57604052565b67ffffffffffffffff8111610bda57601f01601f191660200190565b81601f82011215610b6e57803590610c4582610c12565b92610c536040519485610bf0565b82845260208383010111610b6e57816000926020809301838601378301015290565b600081815260036020526040902054610c98906001600160a01b03161515610d15565b6000908152600560205260409020546001600160a01b031690565b15610cba57565b60405162461bcd60e51b815260206004820152602d60248201527f4552433732313a2063616c6c6572206973206e6f7420746f6b656e206f776e6560448201526c1c881bdc88185c1c1c9bdd9959609a1b6064820152608490fd5b15610d1c57565b60405162461bcd60e51b815260206004820152601860248201527f4552433732313a20696e76616c696420746f6b656e20494400000000000000006044820152606490fd5b6000908152600360205260409020546001600160a01b0316610d84811515610d15565b90565b90610dab939291610d9b6108428433610dcf565b610da6838383610e97565b6110a4565b15610db257565b60405162461bcd60e51b815280610dcb60048201611051565b0390fd5b906001600160a01b038080610de384610d61565b16931691838314938415610e16575b508315610e00575b50505090565b610e0c91929350610c75565b1614388080610dfa565b909350600052600660205260406000208260005260205260ff604060002054169238610df2565b15610e4457565b60405162461bcd60e51b815260206004820152602560248201527f4552433732313a207472616e736665722066726f6d20696e636f72726563742060448201526437bbb732b960d91b6064820152608490fd5b90610ebf91610ea584610d61565b6001600160a01b0393918416928492909183168414610e3d565b16918215610f5c5781610edc91610ed586610d61565b1614610e3d565b7fddf252ad1be2c89b69c2b068fc378daa952ba7f163c4a11628f55a4df523b3ef60008481526005602052604081206bffffffffffffffffffffffff60a01b9081815416905583825260046020526040822060001981540190558482526040822060018154019055858252600360205284604083209182541617905580a4565b60405162461bcd60e51b8152602060048201526024808201527f4552433732313a207472616e7366657220746f20746865207a65726f206164646044820152637265737360e01b6064820152608490fd5b6000546001600160a01b03163303610fc157565b606460405162461bcd60e51b815260206004820152602060248201527f4f776e61626c653a2063616c6c6572206973206e6f7420746865206f776e65726044820152fd5b1561100c57565b60405162461bcd60e51b815260206004820152601c60248201527f4552433732313a20746f6b656e20616c7265616479206d696e746564000000006044820152606490fd5b60809060208152603260208201527f4552433732313a207472616e7366657220746f206e6f6e20455243373231526560408201527131b2b4bb32b91034b6b83632b6b2b73a32b960711b60608201520190565b9293919290803b156111b9576110f89460018060a01b039460405192839187630a85bd0160e11b9687855233600486015216602484015260448301526080606483015281806020998a956084830190610b18565b03916000988991165af1849181611179575b50611168575050503d600014611160573d61112481610c12565b906111326040519283610bf0565b81528091833d92013e5b8051918261115d5760405162461bcd60e51b815280610dcb60048201611051565b01fd5b50606061113c565b6001600160e01b0319161492509050565b9091508581813d83116111b2575b6111918183610bf0565b810103126102c357516001600160e01b0319811681036102c357903861110a565b503d611187565b505091505060019056fea264697066735822122042149c0945d49e9bcd94608db127747cfaeef364c164e8836aa3dd3180bff20164736f6c63430008170033",
  "linkReferences": {},
  "deployedLinkReferences": {}
}