{
  "_format": "hh-sol-artifact-1",
  "contractName": "IPAccountRegistry",
  "sourceName": "@story-protocol/protocol-core/contracts/registries/IPAccountRegistry.sol",
  "abi": [
    {
      "inputs": [
        {
          "internalType": "address",
          "name": "erc6551Registry",
          "type": "address"
        },
        {
          "internalType": "address",
          "name": "ipAccountImpl",
          "type": "address"
        }
      ],
      "stateMutability": "nonpayable",
      "type": "constructor"
    },
    {
      "inputs": [],
      "name": "IPAccountRegistry_InvalidIpAccountImpl",
      "type": "error"
    },
    {
      "anonymous": false,
      "inputs": [
        {
          "indexed": true,
          "internalType": "address",
          "name": "account",
          "type": "address"
        },
        {
          "indexed": true,
          "internalType": "address",
          "name": "implementation",
          "type": "address"
        },
        {
          "indexed": true,
          "internalType": "uint256",
          "name": "chainId",
          "type": "uint256"
        },
        {
          "indexed": false,
          "internalType": "address",
          "name": "tokenContract",
          "type": "address"
        },
        {
          "indexed": false,
          "internalType": "uint256",
          "name": "tokenId",
          "type": "uint256"
        }
      ],
      "name": "IPAccountRegistered",
      "type": "event"
    },
    {
      "inputs": [],
      "name": "ERC6551_PUBLIC_REGISTRY",
      "outputs": [
        {
          "internalType": "address",
          "name": "",
          "type": "address"
        }
      ],
      "stateMutability": "view",
      "type": "function"
    },
    {
      "inputs": [],
      "name": "IP_ACCOUNT_IMPL",
      "outputs": [
        {
          "internalType": "address",
          "name": "",
          "type": "address"
        }
      ],
      "stateMutability": "view",
      "type": "function"
    },
    {
      "inputs": [],
      "name": "IP_ACCOUNT_SALT",
      "outputs": [
        {
          "internalType": "bytes32",
          "name": "",
          "type": "bytes32"
        }
      ],
      "stateMutability": "view",
      "type": "function"
    },
    {
      "inputs": [],
      "name": "getIPAccountImpl",
      "outputs": [
        {
          "internalType": "address",
          "name": "",
          "type": "address"
        }
      ],
      "stateMutability": "view",
      "type": "function"
    },
    {
      "inputs": [
        {
          "internalType": "uint256",
          "name": "chainId",
          "type": "uint256"
        },
        {
          "internalType": "address",
          "name": "tokenContract",
          "type": "address"
        },
        {
          "internalType": "uint256",
          "name": "tokenId",
          "type": "uint256"
        }
      ],
      "name": "ipAccount",
      "outputs": [
        {
          "internalType": "address",
          "name": "",
          "type": "address"
        }
      ],
      "stateMutability": "view",
      "type": "function"
    },
    {
      "inputs": [
        {
          "internalType": "uint256",
          "name": "chainId",
          "type": "uint256"
        },
        {
          "internalType": "address",
          "name": "tokenContract",
          "type": "address"
        },
        {
          "internalType": "uint256",
          "name": "tokenId",
          "type": "uint256"
        }
      ],
      "name": "registerIpAccount",
      "outputs": [
        {
          "internalType": "address",
          "name": "ipAccountAddress",
          "type": "address"
        }
      ],
      "stateMutability": "nonpayable",
      "type": "function"
    }
  ],
  "bytecode": "0x60e0346100cf57601f61051d38819003918201601f19168301916001600160401b038311848410176100d45780849260409485528339810103126100cf57610052602061004b836100ea565b92016100ea565b6001600160a01b038116156100bd57608052600060a05260c05260405161041e90816100ff82396080518181816088015281816101d20152610333015260a05181818160b1015281816101fa01526102b7015260c05181818160f90152818161023c01526102ee0152f35b604051638f54663f60e01b8152600490fd5b600080fd5b634e487b7160e01b600052604160045260246000fd5b51906001600160a01b03821682036100cf5756fe60806040818152600436101561001457600080fd5b600091823560e01c9081630c3c7264146102da575080631a8bb07b146102a05780635796ffbc146101a657806387020f95146101ab57806395a3dfb2146101a65763db4fdb311461006457600080fd5b346101a25761007236610367565b8351638a54c52f60e01b81526001600160a01b037f000000000000000000000000000000000000000000000000000000000000000081811660048401527f0000000000000000000000000000000000000000000000000000000000000000602484015260448301869052848216606484015260848301849052959493929160208160a4818b7f000000000000000000000000000000000000000000000000000000000000000087165af190811561019857918087927f5be70b68c8361762980ec7d425d79fd33f6d49cac8a498e6ddf514f995b987f79460209b9161016b575b5016978894828451971687528a8701521693a451908152f35b61018b91508b3d8d11610191575b6101838183610391565b8101906103c9565b38610152565b503d610179565b86513d8a823e3d90fd5b5080fd5b61031d565b50346101a25760206101bc36610367565b845163246a002160e01b81526001600160a01b037f0000000000000000000000000000000000000000000000000000000000000000811660048301527f000000000000000000000000000000000000000000000000000000000000000060248301526044820194909452918316606483015260848201529290918360a4817f000000000000000000000000000000000000000000000000000000000000000086165afa9283156102965760209493610277575b505191168152f35b61028f919350843d8611610191576101838183610391565b913861026f565b81513d86823e3d90fd5b50346101a257816003193601126101a257602090517f00000000000000000000000000000000000000000000000000000000000000008152f35b8390346101a257816003193601126101a2577f00000000000000000000000000000000000000000000000000000000000000006001600160a01b03168152602090f35b34610362576000366003190112610362576040517f00000000000000000000000000000000000000000000000000000000000000006001600160a01b03168152602090f35b600080fd5b606090600319011261036257600435906024356001600160a01b0381168103610362579060443590565b90601f8019910116810190811067ffffffffffffffff8211176103b357604052565b634e487b7160e01b600052604160045260246000fd5b9081602091031261036257516001600160a01b0381168103610362579056fea264697066735822122073ecbff9b8629e89d8e008c3b0395535f9f3674b8ecddeb186e5836e263b8ab864736f6c63430008170033",
  "linkReferences": {},
  "deployedLinkReferences": {}
}